{
  "_format": "hh-sol-artifact-1",
  "contractName": "BookTraceabilitySimple",
  "sourceName": "contracts/BookTraceabilitySimple.sol",
  "abi": [
    {
      "anonymous": false,
      "inputs": [
        {
          "indexed": true,
          "internalType": "string",
          "name": "bookId",
          "type": "string"
        },
        {
          "indexed": false,
          "internalType": "string",
          "name": "title",
          "type": "string"
        },
        {
          "indexed": true,
          "internalType": "address",
          "name": "owner",
          "type": "address"
        },
        {
          "indexed": false,
          "internalType": "uint256",
          "name": "timestamp",
          "type": "uint256"
        }
      ],
      "name": "BookRegistered",
      "type": "event"
    },
    {
      "anonymous": false,
      "inputs": [
        {
          "indexed": true,
          "internalType": "string",
          "name": "bookId",
          "type": "string"
        },
        {
          "indexed": true,
          "internalType": "address",
          "name": "from",
          "type": "address"
        },
        {
          "indexed": true,
          "internalType": "address",
          "name": "to",
          "type": "address"
        },
        {
          "indexed": false,
          "internalType": "uint256",
          "name": "timestamp",
          "type": "uint256"
        }
      ],
      "name": "BookTransferred",
      "type": "event"
    },
    {
      "inputs": [
        {
          "internalType": "string",
          "name": "",
          "type": "string"
        }
      ],
      "name": "books",
      "outputs": [
        {
          "internalType": "string",
          "name": "bookId",
          "type": "string"
        },
        {
          "internalType": "string",
          "name": "title",
          "type": "string"
        },
        {
          "internalType": "address",
          "name": "currentOwner",
          "type": "address"
        },
        {
          "internalType": "uint256",
          "name": "registrationTime",
          "type": "uint256"
        }
      ],
      "stateMutability": "view",
      "type": "function"
    },
    {
      "inputs": [
        {
          "internalType": "string",
          "name": "_bookId",
          "type": "string"
        }
      ],
      "name": "getBook",
      "outputs": [
        {
          "components": [
            {
              "internalType": "string",
              "name": "bookId",
              "type": "string"
            },
            {
              "internalType": "string",
              "name": "title",
              "type": "string"
            },
            {
              "internalType": "address",
              "name": "currentOwner",
              "type": "address"
            },
            {
              "internalType": "uint256",
              "name": "registrationTime",
              "type": "uint256"
            }
          ],
          "internalType": "struct BookTraceabilitySimple.Book",
          "name": "",
          "type": "tuple"
        }
      ],
      "stateMutability": "view",
      "type": "function"
    },
    {
      "inputs": [
        {
          "internalType": "address",
          "name": "_owner",
          "type": "address"
        }
      ],
      "name": "getBooksByOwner",
      "outputs": [
        {
          "internalType": "string[]",
          "name": "",
          "type": "string[]"
        }
      ],
      "stateMutability": "view",
      "type": "function"
    },
    {
      "inputs": [
        {
          "internalType": "string",
          "name": "_bookId",
          "type": "string"
        }
      ],
      "name": "getTransferHistory",
      "outputs": [
        {
          "components": [
            {
              "internalType": "address",
              "name": "from",
              "type": "address"
            },
            {
              "internalType": "address",
              "name": "to",
              "type": "address"
            },
            {
              "internalType": "uint256",
              "name": "timestamp",
              "type": "uint256"
            }
          ],
          "internalType": "struct BookTraceabilitySimple.Transfer[]",
          "name": "",
          "type": "tuple[]"
        }
      ],
      "stateMutability": "view",
      "type": "function"
    },
    {
      "inputs": [
        {
          "internalType": "string",
          "name": "_bookId",
          "type": "string"
        },
        {
          "internalType": "string",
          "name": "_title",
          "type": "string"
        }
      ],
      "name": "registerBook",
      "outputs": [],
      "stateMutability": "nonpayable",
      "type": "function"
    },
    {
      "inputs": [],
      "name": "totalBooks",
      "outputs": [
        {
          "internalType": "uint256",
          "name": "",
          "type": "uint256"
        }
      ],
      "stateMutability": "view",
      "type": "function"
    },
    {
      "inputs": [
        {
          "internalType": "string",
          "name": "",
          "type": "string"
        },
        {
          "internalType": "uint256",
          "name": "",
          "type": "uint256"
        }
      ],
      "name": "transferHistory",
      "outputs": [
        {
          "internalType": "address",
          "name": "from",
          "type": "address"
        },
        {
          "internalType": "address",
          "name": "to",
          "type": "address"
        },
        {
          "internalType": "uint256",
          "name": "timestamp",
          "type": "uint256"
        }
      ],
      "stateMutability": "view",
      "type": "function"
    },
    {
      "inputs": [
        {
          "internalType": "string",
          "name": "_bookId",
          "type": "string"
        },
        {
          "internalType": "address",
          "name": "_newOwner",
          "type": "address"
        }
      ],
      "name": "transferOwnership",
      "outputs": [],
      "stateMutability": "nonpayable",
      "type": "function"
    },
    {
      "inputs": [
        {
          "internalType": "string",
          "name": "_bookId",
          "type": "string"
        },
        {
          "internalType": "address",
          "name": "_address",
          "type": "address"
        }
      ],
      "name": "verifyOwnership",
      "outputs": [
        {
          "internalType": "bool",
          "name": "",
          "type": "bool"
        }
      ],
      "stateMutability": "view",
      "type": "function"
    }
  ],
  "bytecode": "6080604052348015600f57600080fd5b50611ca98061001f6000396000f3fe608060405234801561001057600080fd5b50600436106100935760003560e01c80636ec4f4bf116100665780636ec4f4bf146101475780637b2cca7c146101655780639c63b7b914610195578063c0e793c2146101c7578063c37a8361146101e357610093565b8063195a0119146100985780632b9dfe80146100b457806359de8bd6146100e75780635ff4711414610117575b600080fd5b6100b260048036038101906100ad919061104e565b610213565b005b6100ce60048036038101906100c991906110c6565b61044b565b6040516100de94939291906111e8565b60405180910390f35b61010160048036038101906100fc9190611267565b6105c1565b60405161010e91906112de565b60405180910390f35b610131600480360381019061012c91906112f9565b61063b565b60405161013e9190611432565b60405180910390f35b61014f610753565b60405161015c9190611454565b60405180910390f35b61017f600480360381019061017a91906110c6565b610759565b60405161018c919061157e565b60405180910390f35b6101af60048036038101906101aa91906115cc565b61088c565b6040516101be93929190611628565b60405180910390f35b6101e160048036038101906101dc9190611267565b610929565b005b6101fd60048036038101906101f891906110c6565b610cfa565b60405161020a91906116c9565b60405180910390f35b600080836040516102249190611727565b908152602001604051809103902060000180546102409061176d565b905014610282576040517f08c379a0000000000000000000000000000000000000000000000000000000008152600401610279906117ea565b60405180910390fd5b60405180608001604052808381526020018281526020013373ffffffffffffffffffffffffffffffffffffffff168152602001428152506000836040516102c99190611727565b908152602001604051809103902060008201518160000190816102ec91906119b6565b50602082015181600101908161030291906119b6565b5060408201518160020160006101000a81548173ffffffffffffffffffffffffffffffffffffffff021916908373ffffffffffffffffffffffffffffffffffffffff16021790555060608201518160030155905050600260003373ffffffffffffffffffffffffffffffffffffffff1673ffffffffffffffffffffffffffffffffffffffff168152602001908152602001600020829080600181540180825580915050600190039060005260206000200160009091909190915090816103c891906119b6565b50600360008154809291906103dc90611ab7565b91905055503373ffffffffffffffffffffffffffffffffffffffff16826040516104069190611727565b60405180910390207ffac71935f5b3956bb12e403e8db8530ab044528c2e4afcbf2d89500910eb11fb834260405161043f929190611aff565b60405180910390a35050565b6000818051602081018201805184825260208301602085012081835280955050505050506000915090508060000180546104849061176d565b80601f01602080910402602001604051908101604052809291908181526020018280546104b09061176d565b80156104fd5780601f106104d2576101008083540402835291602001916104fd565b820191906000526020600020905b8154815290600101906020018083116104e057829003601f168201915b5050505050908060010180546105129061176d565b80601f016020809104026020016040519081016040528092919081815260200182805461053e9061176d565b801561058b5780601f106105605761010080835404028352916020019161058b565b820191906000526020600020905b81548152906001019060200180831161056e57829003601f168201915b5050505050908060020160009054906101000a900473ffffffffffffffffffffffffffffffffffffffff16908060030154905084565b60008173ffffffffffffffffffffffffffffffffffffffff166000846040516105ea9190611727565b908152602001604051809103902060020160009054906101000a900473ffffffffffffffffffffffffffffffffffffffff1673ffffffffffffffffffffffffffffffffffffffff1614905092915050565b6060600260008373ffffffffffffffffffffffffffffffffffffffff1673ffffffffffffffffffffffffffffffffffffffff168152602001908152602001600020805480602002602001604051908101604052809291908181526020016000905b828210156107485783829060005260206000200180546106bb9061176d565b80601f01602080910402602001604051908101604052809291908181526020018280546106e79061176d565b80156107345780601f1061070957610100808354040283529160200191610734565b820191906000526020600020905b81548152906001019060200180831161071757829003601f168201915b50505050508152602001906001019061069c565b505050509050919050565b60035481565b606060018260405161076b9190611727565b9081526020016040518091039020805480602002602001604051908101604052809291908181526020016000905b8282101561088157838290600052602060002090600302016040518060600160405290816000820160009054906101000a900473ffffffffffffffffffffffffffffffffffffffff1673ffffffffffffffffffffffffffffffffffffffff1673ffffffffffffffffffffffffffffffffffffffff1681526020016001820160009054906101000a900473ffffffffffffffffffffffffffffffffffffffff1673ffffffffffffffffffffffffffffffffffffffff1673ffffffffffffffffffffffffffffffffffffffff16815260200160028201548152505081526020019060010190610799565b505050509050919050565b60018280516020810182018051848252602083016020850120818352809550505050505081815481106108be57600080fd5b9060005260206000209060030201600091509150508060000160009054906101000a900473ffffffffffffffffffffffffffffffffffffffff16908060010160009054906101000a900473ffffffffffffffffffffffffffffffffffffffff16908060020154905083565b6000808360405161093a9190611727565b90815260200160405180910390209050600081600001805461095b9061176d565b90501161099d576040517f08c379a000000000000000000000000000000000000000000000000000000000815260040161099490611b7b565b60405180910390fd5b3373ffffffffffffffffffffffffffffffffffffffff168160020160009054906101000a900473ffffffffffffffffffffffffffffffffffffffff1673ffffffffffffffffffffffffffffffffffffffff1614610a2f576040517f08c379a0000000000000000000000000000000000000000000000000000000008152600401610a2690611be7565b60405180910390fd5b3373ffffffffffffffffffffffffffffffffffffffff168273ffffffffffffffffffffffffffffffffffffffff1603610a9d576040517f08c379a0000000000000000000000000000000000000000000000000000000008152600401610a9490611c53565b60405180910390fd5b600183604051610aad9190611727565b908152602001604051809103902060405180606001604052803373ffffffffffffffffffffffffffffffffffffffff1681526020018473ffffffffffffffffffffffffffffffffffffffff16815260200142815250908060018154018082558091505060019003906000526020600020906003020160009091909190915060008201518160000160006101000a81548173ffffffffffffffffffffffffffffffffffffffff021916908373ffffffffffffffffffffffffffffffffffffffff16021790555060208201518160010160006101000a81548173ffffffffffffffffffffffffffffffffffffffff021916908373ffffffffffffffffffffffffffffffffffffffff160217905550604082015181600201555050818160020160006101000a81548173ffffffffffffffffffffffffffffffffffffffff021916908373ffffffffffffffffffffffffffffffffffffffff160217905550600260008373ffffffffffffffffffffffffffffffffffffffff1673ffffffffffffffffffffffffffffffffffffffff16815260200190815260200160002083908060018154018082558091505060019003906000526020600020016000909190919091509081610c7991906119b6565b508173ffffffffffffffffffffffffffffffffffffffff163373ffffffffffffffffffffffffffffffffffffffff1684604051610cb69190611727565b60405180910390207f8758ab0c947af1360ae9a634e40f8fa1ecc49c8c1c589460781792b51ac6808d42604051610ced9190611454565b60405180910390a4505050565b610d02610eb6565b600082604051610d129190611727565b9081526020016040518091039020604051806080016040529081600082018054610d3b9061176d565b80601f0160208091040260200160405190810160405280929190818152602001828054610d679061176d565b8015610db45780601f10610d8957610100808354040283529160200191610db4565b820191906000526020600020905b815481529060010190602001808311610d9757829003601f168201915b50505050508152602001600182018054610dcd9061176d565b80601f0160208091040260200160405190810160405280929190818152602001828054610df99061176d565b8015610e465780601f10610e1b57610100808354040283529160200191610e46565b820191906000526020600020905b815481529060010190602001808311610e2957829003601f168201915b505050505081526020016002820160009054906101000a900473ffffffffffffffffffffffffffffffffffffffff1673ffffffffffffffffffffffffffffffffffffffff1673ffffffffffffffffffffffffffffffffffffffff1681526020016003820154815250509050919050565b60405180608001604052806060815260200160608152602001600073ffffffffffffffffffffffffffffffffffffffff168152602001600081525090565b6000604051905090565b600080fd5b600080fd5b600080fd5b600080fd5b6000601f19601f8301169050919050565b7f4e487b7100000000000000000000000000000000000000000000000000000000600052604160045260246000fd5b610f5b82610f12565b810181811067ffffffffffffffff82111715610f7a57610f79610f23565b5b80604052505050565b6000610f8d610ef4565b9050610f998282610f52565b919050565b600067ffffffffffffffff821115610fb957610fb8610f23565b5b610fc282610f12565b9050602081019050919050565b82818337600083830152505050565b6000610ff1610fec84610f9e565b610f83565b90508281526020810184848401111561100d5761100c610f0d565b5b611018848285610fcf565b509392505050565b600082601f83011261103557611034610f08565b5b8135611045848260208601610fde565b91505092915050565b6000806040838503121561106557611064610efe565b5b600083013567ffffffffffffffff81111561108357611082610f03565b5b61108f85828601611020565b925050602083013567ffffffffffffffff8111156110b0576110af610f03565b5b6110bc85828601611020565b9150509250929050565b6000602082840312156110dc576110db610efe565b5b600082013567ffffffffffffffff8111156110fa576110f9610f03565b5b61110684828501611020565b91505092915050565b600081519050919050565b600082825260208201905092915050565b60005b8381101561114957808201518184015260208101905061112e565b60008484015250505050565b60006111608261110f565b61116a818561111a565b935061117a81856020860161112b565b61118381610f12565b840191505092915050565b600073ffffffffffffffffffffffffffffffffffffffff82169050919050565b60006111b98261118e565b9050919050565b6111c9816111ae565b82525050565b6000819050919050565b6111e2816111cf565b82525050565b600060808201905081810360008301526112028187611155565b905081810360208301526112168186611155565b905061122560408301856111c0565b61123260608301846111d9565b95945050505050565b611244816111ae565b811461124f57600080fd5b50565b6000813590506112618161123b565b92915050565b6000806040838503121561127e5761127d610efe565b5b600083013567ffffffffffffffff81111561129c5761129b610f03565b5b6112a885828601611020565b92505060206112b985828601611252565b9150509250929050565b60008115159050919050565b6112d8816112c3565b82525050565b60006020820190506112f360008301846112cf565b92915050565b60006020828403121561130f5761130e610efe565b5b600061131d84828501611252565b91505092915050565b600081519050919050565b600082825260208201905092915050565b6000819050602082019050919050565b600082825260208201905092915050565b600061136e8261110f565b6113788185611352565b935061138881856020860161112b565b61139181610f12565b840191505092915050565b60006113a88383611363565b905092915050565b6000602082019050919050565b60006113c882611326565b6113d28185611331565b9350836020820285016113e485611342565b8060005b858110156114205784840389528151611401858261139c565b945061140c836113b0565b925060208a019950506001810190506113e8565b50829750879550505050505092915050565b6000602082019050818103600083015261144c81846113bd565b905092915050565b600060208201905061146960008301846111d9565b92915050565b600081519050919050565b600082825260208201905092915050565b6000819050602082019050919050565b6114a4816111ae565b82525050565b6114b3816111cf565b82525050565b6060820160008201516114cf600085018261149b565b5060208201516114e2602085018261149b565b5060408201516114f560408501826114aa565b50505050565b600061150783836114b9565b60608301905092915050565b6000602082019050919050565b600061152b8261146f565b611535818561147a565b93506115408361148b565b8060005b8381101561157157815161155888826114fb565b975061156383611513565b925050600181019050611544565b5085935050505092915050565b600060208201905081810360008301526115988184611520565b905092915050565b6115a9816111cf565b81146115b457600080fd5b50565b6000813590506115c6816115a0565b92915050565b600080604083850312156115e3576115e2610efe565b5b600083013567ffffffffffffffff81111561160157611600610f03565b5b61160d85828601611020565b925050602061161e858286016115b7565b9150509250929050565b600060608201905061163d60008301866111c0565b61164a60208301856111c0565b61165760408301846111d9565b949350505050565b6000608083016000830151848203600086015261167c8282611363565b915050602083015184820360208601526116968282611363565b91505060408301516116ab604086018261149b565b5060608301516116be60608601826114aa565b508091505092915050565b600060208201905081810360008301526116e3818461165f565b905092915050565b600081905092915050565b60006117018261110f565b61170b81856116eb565b935061171b81856020860161112b565b80840191505092915050565b600061173382846116f6565b915081905092915050565b7f4e487b7100000000000000000000000000000000000000000000000000000000600052602260045260246000fd5b6000600282049050600182168061178557607f821691505b6020821081036117985761179761173e565b5b50919050565b7f426f6f6b20657869737473000000000000000000000000000000000000000000600082015250565b60006117d4600b8361111a565b91506117df8261179e565b602082019050919050565b60006020820190508181036000830152611803816117c7565b9050919050565b60008190508160005260206000209050919050565b60006020601f8301049050919050565b600082821b905092915050565b60006008830261186c7fffffffffffffffffffffffffffffffffffffffffffffffffffffffffffffffff8261182f565b611876868361182f565b95508019841693508086168417925050509392505050565b6000819050919050565b60006118b36118ae6118a9846111cf565b61188e565b6111cf565b9050919050565b6000819050919050565b6118cd83611898565b6118e16118d9826118ba565b84845461183c565b825550505050565b600090565b6118f66118e9565b6119018184846118c4565b505050565b5b818110156119255761191a6000826118ee565b600181019050611907565b5050565b601f82111561196a5761193b8161180a565b6119448461181f565b81016020851015611953578190505b61196761195f8561181f565b830182611906565b50505b505050565b600082821c905092915050565b600061198d6000198460080261196f565b1980831691505092915050565b60006119a6838361197c565b9150826002028217905092915050565b6119bf8261110f565b67ffffffffffffffff8111156119d8576119d7610f23565b5b6119e2825461176d565b6119ed828285611929565b600060209050601f831160018114611a205760008415611a0e578287015190505b611a18858261199a565b865550611a80565b601f198416611a2e8661180a565b60005b82811015611a5657848901518255600182019150602085019450602081019050611a31565b86831015611a735784890151611a6f601f89168261197c565b8355505b6001600288020188555050505b505050505050565b7f4e487b7100000000000000000000000000000000000000000000000000000000600052601160045260246000fd5b6000611ac2826111cf565b91507fffffffffffffffffffffffffffffffffffffffffffffffffffffffffffffffff8203611af457611af3611a88565b5b600182019050919050565b60006040820190508181036000830152611b198185611155565b9050611b2860208301846111d9565b9392505050565b7f426f6f6b206e6f7420666f756e64000000000000000000000000000000000000600082015250565b6000611b65600e8361111a565b9150611b7082611b2f565b602082019050919050565b60006020820190508181036000830152611b9481611b58565b9050919050565b7f4e6f74206f776e65720000000000000000000000000000000000000000000000600082015250565b6000611bd160098361111a565b9150611bdc82611b9b565b602082019050919050565b60006020820190508181036000830152611c0081611bc4565b9050919050565b7f43616e6e6f74207472616e7366657220746f2073656c66000000000000000000600082015250565b6000611c3d60178361111a565b9150611c4882611c07565b602082019050919050565b60006020820190508181036000830152611c6c81611c30565b905091905056fea26469706673582212208811607138e636743b5930df739375d3ecb9944ad6ad1d16a11e699bd441fda364736f6c634300081c0033",
  "linkReferences": {},
  "deployedLinkReferences": {}
}