{
  "contracts/BookTraceabilitySimple.sol": {
    "BookTraceabilitySimple": {
      "abi": [
        {
          "anonymous": false,
          "inputs": [
            {
              "indexed": true,
              "internalType": "string",
              "name": "bookId",
              "type": "string"
            },
            {
              "indexed": false,
              "internalType": "string",
              "name": "title",
              "type": "string"
            },
            {
              "indexed": true,
              "internalType": "address",
              "name": "owner",
              "type": "address"
            },
            {
              "indexed": false,
              "internalType": "uint256",
              "name": "timestamp",
              "type": "uint256"
            }
          ],
          "name": "BookRegistered",
          "type": "event"
        },
        {
          "anonymous": false,
          "inputs": [
            {
              "indexed": true,
              "internalType": "string",
              "name": "bookId",
              "type": "string"
            },
            {
              "indexed": true,
              "internalType": "address",
              "name": "from",
              "type": "address"
            },
            {
              "indexed": true,
              "internalType": "address",
              "name": "to",
              "type": "address"
            },
            {
              "indexed": false,
              "internalType": "uint256",
              "name": "timestamp",
              "type": "uint256"
            }
          ],
          "name": "BookTransferred",
          "type": "event"
        },
        {
          "inputs": [
            {
              "internalType": "string",
              "name": "",
              "type": "string"
            }
          ],
          "name": "books",
          "outputs": [
            {
              "internalType": "string",
              "name": "bookId",
              "type": "string"
            },
            {
              "internalType": "string",
              "name": "title",
              "type": "string"
            },
            {
              "internalType": "address",
              "name": "currentOwner",
              "type": "address"
            },
            {
              "internalType": "uint256",
              "name": "registrationTime",
              "type": "uint256"
            }
          ],
          "stateMutability": "view",
          "type": "function"
        },
        {
          "inputs": [
            {
              "internalType": "string",
              "name": "_bookId",
              "type": "string"
            }
          ],
          "name": "getBook",
          "outputs": [
            {
              "components": [
                {
                  "internalType": "string",
                  "name": "bookId",
                  "type": "string"
                },
                {
                  "internalType": "string",
                  "name": "title",
                  "type": "string"
                },
                {
                  "internalType": "address",
                  "name": "currentOwner",
                  "type": "address"
                },
                {
                  "internalType": "uint256",
                  "name": "registrationTime",
                  "type": "uint256"
                }
              ],
              "internalType": "struct BookTraceabilitySimple.Book",
              "name": "",
              "type": "tuple"
            }
          ],
          "stateMutability": "view",
          "type": "function"
        },
        {
          "inputs": [
            {
              "internalType": "address",
              "name": "_owner",
              "type": "address"
            }
          ],
          "name": "getBooksByOwner",
          "outputs": [
            {
              "internalType": "string[]",
              "name": "",
              "type": "string[]"
            }
          ],
          "stateMutability": "view",
          "type": "function"
        },
        {
          "inputs": [
            {
              "internalType": "string",
              "name": "_bookId",
              "type": "string"
            }
          ],
          "name": "getTransferHistory",
          "outputs": [
            {
              "components": [
                {
                  "internalType": "address",
                  "name": "from",
                  "type": "address"
                },
                {
                  "internalType": "address",
                  "name": "to",
                  "type": "address"
                },
                {
                  "internalType": "uint256",
                  "name": "timestamp",
                  "type": "uint256"
                }
              ],
              "internalType": "struct BookTraceabilitySimple.Transfer[]",
              "name": "",
              "type": "tuple[]"
            }
          ],
          "stateMutability": "view",
          "type": "function"
        },
        {
          "inputs": [
            {
              "internalType": "string",
              "name": "_bookId",
              "type": "string"
            },
            {
              "internalType": "string",
              "name": "_title",
              "type": "string"
            }
          ],
          "name": "registerBook",
          "outputs": [],
          "stateMutability": "nonpayable",
          "type": "function"
        },
        {
          "inputs": [],
          "name": "totalBooks",
          "outputs": [
            {
              "internalType": "uint256",
              "name": "",
              "type": "uint256"
            }
          ],
          "stateMutability": "view",
          "type": "function"
        },
        {
          "inputs": [
            {
              "internalType": "string",
              "name": "",
              "type": "string"
            },
            {
              "internalType": "uint256",
              "name": "",
              "type": "uint256"
            }
          ],
          "name": "transferHistory",
          "outputs": [
            {
              "internalType": "address",
              "name": "from",
              "type": "address"
            },
            {
              "internalType": "address",
              "name": "to",
              "type": "address"
            },
            {
              "internalType": "uint256",
              "name": "timestamp",
              "type": "uint256"
            }
          ],
          "stateMutability": "view",
          "type": "function"
        },
        {
          "inputs": [
            {
              "internalType": "string",
              "name": "_bookId",
              "type": "string"
            },
            {
              "internalType": "address",
              "name": "_newOwner",
              "type": "address"
            }
          ],
          "name": "transferOwnership",
          "outputs": [],
          "stateMutability": "nonpayable",
          "type": "function"
        },
        {
          "inputs": [
            {
              "internalType": "string",
              "name": "_bookId",
              "type": "string"
            },
            {
              "internalType": "address",
              "name": "_address",
              "type": "address"
            }
          ],
          "name": "verifyOwnership",
          "outputs": [
            {
              "internalType": "bool",
              "name": "",
              "type": "bool"
            }
          ],
          "stateMutability": "view",
          "type": "function"
        }
      ],
      "evm": {
        "assembly": "// RO data = 0/0 bytes\n// RW data = 112/65696 bytes\n// Stack size = 32768 bytes\n\n// Instructions = 9337\n// Code size = 32732 bytes\n\n      : @0 (gas: 1)\n     0: jump @14 if a0 == a1\n      : @1 (gas: 9)\n     3: a3 = a1 << 0x20\n     6: a3 = a3 >> 0x20\n     9: a4 = a0 << 0x20\n    12: a4 = a4 >> 0x20\n    15: a4 = a4 + a2\n    18: a3 = a3 - a4\n    21: a4 = a2 << 0x1\n    24: a4 = -a4\n    26: jump @7 if a4 >=u a3\n      : @2 (gas: 1)\n    29: jump @11 if a0 >=u a1\n      : @3 (gas: 1)\n    32: jump @14 if a2 == 0\n      : @4 (gas: 3)\n    35: a2 = a2 + a0\n    38: a3 = a0\n    40: fallthrough\n      : @5 (gas: 6)\n    41: a4 = u8 [a1]\n    43: a1 = a1 + 0x1\n    46: a5 = a3 + 0x1\n    49: u8 [a3] = a4\n    51: a3 = a5\n    53: jump @5 if a5 != a2\n      : @6 (gas: 1)\n    56: jump @14\n      : @7 (gas: 1)\n    58: jump @14 if a2 == 0\n      : @8 (gas: 3)\n    61: a2 = a2 + a0\n    64: a3 = a0\n    66: fallthrough\n      : @9 (gas: 6)\n    67: a4 = u8 [a1]\n    69: a1 = a1 + 0x1\n    72: a5 = a3 + 0x1\n    75: u8 [a3] = a4\n    77: a3 = a5\n    79: jump @9 if a5 != a2\n      : @10 (gas: 1)\n    82: jump @14\n      : @11 (gas: 1)\n    84: jump @14 if a2 == 0\n      : @12 (gas: 2)\n    87: i32 a3 = a2 + 0xffffffffffffffff\n    90: fallthrough\n      : @13 (gas: 7)\n    91: a4 = a1 + a3\n    94: a4 = u8 [a4]\n    96: a2 = a2 + 0xffffffffffffffff\n    99: a5 = a0 + a3\n   102: u8 [a5] = a4\n   104: i32 a3 = a3 + 0xffffffffffffffff\n   107: jump @13 if a2 != 0\n      : @14 (gas: 1)\n   110: ret\n      : @15 (gas: 2)\n   112: a1 = i32 [0x20078]\n   117: jump @46 if a1 == 0\n      : @16 (gas: 4)\n   121: a0 = 0x300a0\n   126: i32 a0 = a0 + 0\n   128: ecalli 9 // 'set_immutable_data'\n   130: jump @46\n      : @17 (gas: 8)\n   133: sp = sp + 0xfffffffffffffff0\n   136: u64 [sp + 0x8] = ra\n   139: u64 [sp] = s0\n   141: a2 = a1\n   143: s0 = a0\n   145: a1 = 0x20\n   148: a0 = a2\n   150: ra = 2, jump @29\n      : @18 [@dyn 1] (gas: 100)\n   155: a1 = u8 [a0 + 0x1]\n   158: a2 = u8 [a0]\n   160: a3 = u8 [a0 + 0x2]\n   163: a4 = u8 [a0 + 0x3]\n   166: a1 = a1 << 0x8\n   169: a1 = a1 | a2\n   172: a3 = a3 << 0x10\n   175: a4 = a4 << 0x18\n   178: a3 = a3 | a4\n   181: a1 = a1 | a3\n   184: a2 = u8 [a0 + 0x5]\n   187: a3 = u8 [a0 + 0x4]\n   190: a4 = u8 [a0 + 0x6]\n   193: a5 = u8 [a0 + 0x7]\n   196: a2 = a2 << 0x8\n   199: a2 = a2 | a3\n   202: a4 = a4 << 0x10\n   205: a5 = a5 << 0x18\n   208: a4 = a4 | a5\n   211: a2 = a2 | a4\n   214: a2 = a2 << 0x20\n   217: t0 = a2 | a1\n   220: a2 = u8 [a0 + 0x9]\n   223: a3 = u8 [a0 + 0x8]\n   226: a4 = u8 [a0 + 0xa]\n   229: a5 = u8 [a0 + 0xb]\n   232: a2 = a2 << 0x8\n   235: a2 = a2 | a3\n   238: a4 = a4 << 0x10\n   241: a5 = a5 << 0x18\n   244: a4 = a4 | a5\n   247: a2 = a2 | a4\n   250: a3 = u8 [a0 + 0xd]\n   253: a4 = u8 [a0 + 0xc]\n   256: a5 = u8 [a0 + 0xe]\n   259: a1 = u8 [a0 + 0xf]\n   262: a3 = a3 << 0x8\n   265: a3 = a3 | a4\n   268: a5 = a5 << 0x10\n   271: a1 = a1 << 0x18\n   274: a1 = a1 | a5\n   277: a1 = a1 | a3\n   280: a1 = a1 << 0x20\n   283: t1 = a1 | a2\n   286: a1 = u8 [a0 + 0x11]\n   289: a3 = u8 [a0 + 0x10]\n   292: a4 = u8 [a0 + 0x12]\n   295: a5 = u8 [a0 + 0x13]\n   298: a1 = a1 << 0x8\n   301: a1 = a1 | a3\n   304: a4 = a4 << 0x10\n   307: a5 = a5 << 0x18\n   310: a4 = a4 | a5\n   313: a1 = a1 | a4\n   316: a3 = u8 [a0 + 0x15]\n   319: a4 = u8 [a0 + 0x14]\n   322: a5 = u8 [a0 + 0x16]\n   325: a2 = u8 [a0 + 0x17]\n   328: a3 = a3 << 0x8\n   331: a3 = a3 | a4\n   334: a5 = a5 << 0x10\n   337: a2 = a2 << 0x18\n   340: a2 = a2 | a5\n   343: a2 = a2 | a3\n   346: a2 = a2 << 0x20\n   349: a3 = a2 | a1\n   352: a1 = u8 [a0 + 0x19]\n   355: a2 = u8 [a0 + 0x18]\n   358: a4 = u8 [a0 + 0x1a]\n   361: a5 = u8 [a0 + 0x1b]\n   364: a1 = a1 << 0x8\n   367: a1 = a1 | a2\n   370: a4 = a4 << 0x10\n   373: a5 = a5 << 0x18\n   376: a4 = a4 | a5\n   379: a1 = a1 | a4\n   382: a2 = u8 [a0 + 0x1d]\n   385: a4 = u8 [a0 + 0x1c]\n   388: a5 = u8 [a0 + 0x1e]\n   391: a0 = u8 [a0 + 0x1f]\n   394: a2 = a2 << 0x8\n   397: a2 = a2 | a4\n   400: a5 = a5 << 0x10\n   403: a0 = a0 << 0x18\n   406: a0 = a0 | a5\n   409: a0 = a0 | a2\n   412: a0 = a0 << 0x20\n   415: a0 = a0 | a1\n   418: a0 = reverse a0\n   420: a1 = reverse a3\n   422: a2 = reverse t1\n   424: a3 = reverse t0\n   426: u64 [s0 + 0x18] = a3\n   429: u64 [s0 + 0x10] = a2\n   432: u64 [s0 + 0x8] = a1\n   435: u64 [s0] = a0\n   437: ra = u64 [sp + 0x8]\n   440: s0 = u64 [sp]\n   442: sp = sp + 0x10\n   445: ret\n      : @19 (gas: 12)\n   447: sp = sp + 0xffffffffffffffd8\n   450: u64 [sp + 0x20] = ra\n   453: u64 [sp + 0x18] = s0\n   456: u64 [sp + 0x10] = s1\n   459: a2 = u64 [a1]\n   461: u64 [sp + 0x8] = a2\n   464: a2 = u64 [a1 + 0x8]\n   467: u64 [sp] = a2\n   469: s0 = u64 [a1 + 0x10]\n   472: s1 = u64 [a1 + 0x18]\n   475: a1 = 0x20\n   478: ra = 4, jump @29\n      : @20 [@dyn 2] (gas: 71)\n   483: a1 = reverse s1\n   485: a2 = reverse s0\n   487: a3 = u64 [sp]\n   489: a3 = reverse a3\n   491: a4 = u64 [sp + 0x8]\n   494: a4 = reverse a4\n   496: u8 [a0 + 0x18] = a4\n   499: u8 [a0 + 0x10] = a3\n   502: u8 [a0 + 0x8] = a2\n   505: u8 [a0] = a1\n   507: a5 = a4 >> 0x38\n   510: u8 [a0 + 0x1f] = a5\n   513: a5 = a4 >> 0x30\n   516: u8 [a0 + 0x1e] = a5\n   519: a5 = a4 >> 0x28\n   522: u8 [a0 + 0x1d] = a5\n   525: a5 = a4 >> 0x20\n   528: u8 [a0 + 0x1c] = a5\n   531: a5 = a4 >> 0x18\n   534: u8 [a0 + 0x1b] = a5\n   537: a5 = a4 >> 0x10\n   540: u8 [a0 + 0x1a] = a5\n   543: a4 = a4 >> 0x8\n   546: u8 [a0 + 0x19] = a4\n   549: a4 = a3 >> 0x38\n   552: u8 [a0 + 0x17] = a4\n   555: a4 = a3 >> 0x30\n   558: u8 [a0 + 0x16] = a4\n   561: a4 = a3 >> 0x28\n   564: u8 [a0 + 0x15] = a4\n   567: a4 = a3 >> 0x20\n   570: u8 [a0 + 0x14] = a4\n   573: a4 = a3 >> 0x18\n   576: u8 [a0 + 0x13] = a4\n   579: a4 = a3 >> 0x10\n   582: u8 [a0 + 0x12] = a4\n   585: a3 = a3 >> 0x8\n   588: u8 [a0 + 0x11] = a3\n   591: a3 = a2 >> 0x38\n   594: u8 [a0 + 0xf] = a3\n   597: a3 = a2 >> 0x30\n   600: u8 [a0 + 0xe] = a3\n   603: a3 = a2 >> 0x28\n   606: u8 [a0 + 0xd] = a3\n   609: a3 = a2 >> 0x20\n   612: u8 [a0 + 0xc] = a3\n   615: a3 = a2 >> 0x18\n   618: u8 [a0 + 0xb] = a3\n   621: a3 = a2 >> 0x10\n   624: u8 [a0 + 0xa] = a3\n   627: a2 = a2 >> 0x8\n   630: u8 [a0 + 0x9] = a2\n   633: a2 = a1 >> 0x38\n   636: u8 [a0 + 0x7] = a2\n   639: a2 = a1 >> 0x30\n   642: u8 [a0 + 0x6] = a2\n   645: a2 = a1 >> 0x28\n   648: u8 [a0 + 0x5] = a2\n   651: a2 = a1 >> 0x20\n   654: u8 [a0 + 0x4] = a2\n   657: a2 = a1 >> 0x18\n   660: u8 [a0 + 0x3] = a2\n   663: a2 = a1 >> 0x10\n   666: u8 [a0 + 0x2] = a2\n   669: a1 = a1 >> 0x8\n   672: u8 [a0 + 0x1] = a1\n   675: ra = u64 [sp + 0x20]\n   678: s0 = u64 [sp + 0x18]\n   681: s1 = u64 [sp + 0x10]\n   684: sp = sp + 0x28\n   687: ret\n      : @21 (gas: 43)\n   689: sp = sp + 0xffffffffffffffa0\n   692: u64 [sp + 0x58] = ra\n   695: u64 [sp + 0x50] = s0\n   698: u64 [sp + 0x48] = s1\n   701: s0 = sp + 0x60\n   704: sp = sp & 0xffffffffffffffe0\n   707: s1 = a0\n   709: a0 = u64 [a1 + 0x18]\n   712: a2 = u64 [a1 + 0x10]\n   715: a3 = u64 [a1 + 0x8]\n   718: a1 = u64 [a1]\n   720: a0 = reverse a0\n   722: a2 = reverse a2\n   724: a3 = reverse a3\n   726: a1 = reverse a1\n   728: u64 [sp + 0x18] = a1\n   731: u64 [sp + 0x10] = a3\n   734: u64 [sp + 0x8] = a2\n   737: u64 [sp] = a0\n   739: u64 [sp + 56] = 0\n   742: u64 [sp + 48] = 0\n   745: u64 [sp + 40] = 0\n   748: u64 [sp + 32] = 0\n   751: u32 [sp + 64] = 0x20\n   755: i32 a1 = sp + 0\n   757: i32 a3 = sp + 0x20\n   760: i32 a4 = sp + 0x40\n   763: a2 = 0xffffffffffffffff\n   766: a0 = 0\n   768: ecalli 5 // 'get_storage'\n   770: a0 = u64 [sp + 0x38]\n   773: a1 = u64 [sp + 0x30]\n   776: a2 = u64 [sp + 0x28]\n   779: a3 = u64 [sp + 0x20]\n   782: a0 = reverse a0\n   784: a1 = reverse a1\n   786: a2 = reverse a2\n   788: a3 = reverse a3\n   790: u64 [s1 + 0x18] = a3\n   793: u64 [s1 + 0x10] = a2\n   796: u64 [s1 + 0x8] = a1\n   799: u64 [s1] = a0\n   801: t0 = 6, jump @1043\n      : @22 [@dyn 3] (gas: 1)\n   806: ret\n      : @23 (gas: 40)\n   808: sp = sp + 0xffffffffffffffa0\n   811: u64 [sp + 0x58] = ra\n   814: u64 [sp + 0x50] = s0\n   817: s0 = sp + 0x60\n   820: sp = sp & 0xffffffffffffffe0\n   823: t0 = u64 [a0]\n   825: a3 = u64 [a0 + 0x8]\n   828: a4 = u64 [a0 + 0x10]\n   831: a0 = u64 [a0 + 0x18]\n   834: t1 = u64 [a1]\n   836: a2 = u64 [a1 + 0x8]\n   839: a5 = u64 [a1 + 0x10]\n   842: a1 = u64 [a1 + 0x18]\n   845: t2 = reverse a0\n   847: a4 = reverse a4\n   849: a3 = reverse a3\n   851: a0 = reverse t0\n   853: t0 = reverse a1\n   855: a5 = reverse a5\n   857: a2 = reverse a2\n   859: a1 = reverse t1\n   861: u64 [sp + 0x18] = a0\n   864: u64 [sp + 0x10] = a3\n   867: u64 [sp + 0x8] = a4\n   870: u64 [sp] = t2\n   872: u64 [sp + 0x38] = a1\n   875: u64 [sp + 0x30] = a2\n   878: u64 [sp + 0x28] = a5\n   881: u64 [sp + 0x20] = t0\n   884: i32 a1 = sp + 0\n   886: i32 a3 = sp + 0x20\n   889: a2 = 0xffffffffffffffff\n   892: a4 = 0x20\n   895: a0 = 0\n   897: ecalli 10 // 'set_storage'\n   899: sp = s0 + 0xffffffffffffffa0\n   902: ra = u64 [sp + 0x58]\n   905: s0 = u64 [sp + 0x50]\n   908: sp = sp + 0x60\n   911: ret\n      : @24 [@dyn 4] (gas: 9)\n   913: a5 = u64 [a4]\n   915: u64 [sp + 0x40] = a5\n   918: a5 = u64 [a4 + 0x8]\n   921: u64 [sp + 0x48] = a5\n   924: a5 = u64 [a4 + 0x10]\n   927: u64 [sp + 0x50] = a5\n   930: a4 = u64 [a4 + 0x18]\n   933: u64 [sp + 0x58] = a4\n   936: t0 = 10, jump @1029\n      : @25 [@dyn 5] (gas: 2)\n   941: u64 [sp + 0x38] = a1\n   944: ra = 12, jump @29\n      : @26 [@dyn 6] (gas: 46)\n   949: a1 = reverse s1\n   951: u64 [sp + 0x78] = a1\n   954: a1 = u64 [sp]\n   956: a1 = reverse a1\n   958: u64 [sp + 0x70] = a1\n   961: a1 = u64 [sp + 0x8]\n   964: a1 = reverse a1\n   966: u64 [sp + 0x68] = a1\n   969: a1 = u64 [sp + 0x10]\n   972: a1 = reverse a1\n   974: u64 [sp + 0x60] = a1\n   977: a1 = u64 [sp + 0x18]\n   980: a1 = reverse a1\n   982: u64 [sp + 0x98] = a1\n   986: a1 = u64 [sp + 0x20]\n   989: a1 = reverse a1\n   991: u64 [sp + 0x90] = a1\n   995: a1 = u64 [sp + 0x28]\n   998: a1 = reverse a1\n  1000: u64 [sp + 0x88] = a1\n  1004: a1 = u64 [sp + 0x30]\n  1007: a1 = reverse a1\n  1009: u64 [sp + 0x80] = a1\n  1013: a1 = u64 [sp + 0x40]\n  1016: a1 = reverse a1\n  1018: u64 [sp + 0xb8] = a1\n  1022: a1 = u64 [sp + 0x48]\n  1025: a1 = reverse a1\n  1027: u64 [sp + 0xb0] = a1\n  1031: a1 = u64 [sp + 0x50]\n  1034: a1 = reverse a1\n  1036: u64 [sp + 0xa8] = a1\n  1040: a1 = u64 [sp + 0x58]\n  1043: a1 = reverse a1\n  1045: u64 [sp + 0xa0] = a1\n  1049: i32 a2 = a0 + 0\n  1051: a3 = i32 [sp + 0x38]\n  1054: i32 a0 = sp + 0x60\n  1057: a1 = 0x3\n  1060: ecalli 4 // 'deposit_event'\n  1062: sp = s0 + 0xffffffffffffff20\n  1066: ra = u64 [sp + 0xd8]\n  1070: s0 = u64 [sp + 0xd0]\n  1074: s1 = u64 [sp + 0xc8]\n  1078: sp = sp + 0xe0\n  1082: ret\n      : @27 [@dyn 7] (gas: 2)\n  1084: u64 [sp + 0x58] = a1\n  1087: ra = 16, jump @29\n      : @28 [@dyn 8] (gas: 58)\n  1092: a1 = reverse s1\n  1094: u64 [sp + 0x98] = a1\n  1098: a1 = u64 [sp]\n  1100: a1 = reverse a1\n  1102: u64 [sp + 0x90] = a1\n  1106: a1 = u64 [sp + 0x8]\n  1109: a1 = reverse a1\n  1111: u64 [sp + 0x88] = a1\n  1115: a1 = u64 [sp + 0x10]\n  1118: a1 = reverse a1\n  1120: u64 [sp + 0x80] = a1\n  1124: a1 = u64 [sp + 0x18]\n  1127: a1 = reverse a1\n  1129: u64 [sp + 0xb8] = a1\n  1133: a1 = u64 [sp + 0x20]\n  1136: a1 = reverse a1\n  1138: u64 [sp + 0xb0] = a1\n  1142: a1 = u64 [sp + 0x28]\n  1145: a1 = reverse a1\n  1147: u64 [sp + 0xa8] = a1\n  1151: a1 = u64 [sp + 0x30]\n  1154: a1 = reverse a1\n  1156: u64 [sp + 0xa0] = a1\n  1160: a1 = u64 [sp + 0x38]\n  1163: a1 = reverse a1\n  1165: u64 [sp + 0xd8] = a1\n  1169: a1 = u64 [sp + 0x40]\n  1172: a1 = reverse a1\n  1174: u64 [sp + 0xd0] = a1\n  1178: a1 = u64 [sp + 0x48]\n  1181: a1 = reverse a1\n  1183: u64 [sp + 0xc8] = a1\n  1187: a1 = u64 [sp + 0x50]\n  1190: a1 = reverse a1\n  1192: u64 [sp + 0xc0] = a1\n  1196: a1 = u64 [sp + 0x60]\n  1199: a1 = reverse a1\n  1201: u64 [sp + 0xf8] = a1\n  1205: a1 = u64 [sp + 0x68]\n  1208: a1 = reverse a1\n  1210: u64 [sp + 0xf0] = a1\n  1214: a1 = u64 [sp + 0x70]\n  1217: a1 = reverse a1\n  1219: u64 [sp + 0xe8] = a1\n  1223: a1 = u64 [sp + 0x78]\n  1226: a1 = reverse a1\n  1228: u64 [sp + 0xe0] = a1\n  1232: i32 a2 = a0 + 0\n  1234: a3 = i32 [sp + 0x58]\n  1237: i32 a0 = sp + 0x80\n  1241: a1 = 0x4\n  1244: ecalli 4 // 'deposit_event'\n  1246: sp = s0 + 0xfffffffffffffee0\n  1250: ra = u64 [sp + 0x118]\n  1254: s0 = u64 [sp + 0x110]\n  1258: s1 = u64 [sp + 0x108]\n  1262: sp = sp + 0x120\n  1266: ret\n      : @29 (gas: 2)\n  1268: i32 a2 = a0 >> 0x10\n  1271: jump @34 if a2 != 0\n      : @30 (gas: 4)\n  1274: a1 = a1 + a0\n  1277: i32 a1 = a1 + 0x1f\n  1280: a1 = a1 & 0xffffffffffffffe0\n  1283: jump @34 if a1 >u 65536\n      : @31 (gas: 3)\n  1289: a2 = 0x20074\n  1294: a3 = i32 [0x20074]\n  1299: jump @33 if a3 >=u a1\n      : @32 (gas: 2)\n  1302: u32 [0x20074] = a1\n  1307: fallthrough\n      : @33 (gas: 4)\n  1308: a1 = 0x20080\n  1313: i32 a0 = a0 + 0\n  1315: a0 = a0 + a1\n  1318: ret\n      : @34 (gas: 1)\n  1320: trap\n      : @35 (gas: 6)\n  1321: sp = sp + 0xfffffffffffffff0\n  1324: u64 [sp + 0x8] = ra\n  1327: u64 [sp] = s0\n  1329: s0 = a0 & 0x1\n  1332: ecalli 2 // 'call_data_size'\n  1334: fallthrough\n      : @36 (gas: 2)\n  1335: u32 [0x20070] = a0\n  1340: jump @38 if s0 == 0\n      : @37 (gas: 1)\n  1343: ra = 18, jump @39\n      : @38 [@dyn 9] (gas: 1)\n  1347: ra = 20, jump @48\n      : @39 [@dyn 10] (gas: 12)\n  1352: sp = sp + 0xffffffffffffffa0\n  1355: u64 [sp + 0x58] = ra\n  1358: u64 [sp + 0x50] = s0\n  1361: s0 = sp + 0x60\n  1364: sp = sp & 0xffffffffffffffe0\n  1367: u64 [sp + 24] = 0\n  1370: u64 [sp + 16] = 0\n  1373: u64 [sp + 0] = 0x80\n  1377: a0 = 0x40\n  1380: a1 = sp\n  1382: u64 [sp + 8] = 0\n  1385: ra = 22, jump @19\n      : @40 [@dyn 11] (gas: 7)\n  1390: u64 [sp + 56] = 0\n  1393: u64 [sp + 48] = 0\n  1396: u64 [sp + 40] = 0\n  1399: u64 [sp + 32] = 0\n  1402: i32 a0 = sp + 0x20\n  1405: ecalli 11 // 'value_transferred'\n  1407: fallthrough\n      : @41 (gas: 8)\n  1408: a0 = u64 [sp + 0x30]\n  1411: a1 = u64 [sp + 0x38]\n  1414: a2 = u64 [sp + 0x28]\n  1417: a3 = u64 [sp + 0x20]\n  1420: a1 = a1 | a2\n  1423: a0 = a0 | a3\n  1426: a0 = a0 | a1\n  1429: jump @43 if a0 == 0\n      : @42 (gas: 7)\n  1432: a1 = 0x20080\n  1437: i32 a1 = a1 + 0\n  1439: a0 = 0x1\n  1442: a2 = 0\n  1444: ra = 0x1a\n  1447: ecalli 8 // 'seal_return'\n  1449: jump @48\n      : @43 (gas: 2)\n  1451: a1 = i32 [0x20074]\n  1456: jump @45 if a1 >u 127\n      : @44 (gas: 2)\n  1460: u32 [0x20074] = 0x80\n  1467: fallthrough\n      : @45 (gas: 6)\n  1468: a0 = 0x20080\n  1473: i32 a0 = a0 + 0x80\n  1477: a1 = 0\n  1479: a2 = 0\n  1481: ecalli 0 // 'call_data_copy'\n  1482: jump @15\n      : @46 (gas: 3)\n  1485: a0 = 0x80\n  1489: a1 = 0\n  1491: ra = 24, jump @29\n      : @47 [@dyn 12] (gas: 6)\n  1496: i32 a1 = a0 + 0\n  1498: a0 = 0\n  1500: a2 = 0\n  1502: ra = 0x1a\n  1505: ecalli 8 // 'seal_return'\n  1507: fallthrough\n      : @48 [@dyn 13] (gas: 16)\n  1508: sp = sp + 0xfffffffffffffe10\n  1512: u64 [sp + 0x1e8] = ra\n  1516: u64 [sp + 0x1e0] = s0\n  1520: u64 [sp + 0x1d8] = s1\n  1524: s0 = sp + 0x1f0\n  1528: sp = sp + 0xffffffffffffdab0\n  1532: sp = sp & 0xffffffffffffffe0\n  1535: s1 = sp\n  1537: a2 = s1 + 0x2078\n  1541: u64 [a2 + 256] = 0\n  1545: u64 [a2 + 248] = 0\n  1549: u64 [a2 + 232] = 0x80\n  1555: a0 = 0x40\n  1558: a1 = s1 + 0x2160\n  1562: u64 [a2 + 240] = 0\n  1566: ra = 28, jump @19\n      : @49 [@dyn 14] (gas: 4)\n  1571: a0 = 0x20070\n  1576: u64 [s1 + 0xf8] = a0\n  1580: a0 = i32 [0x20070]\n  1585: jump @51 if a0 >=u 4\n      : @50 (gas: 1)\n  1589: jump @738\n      : @51 (gas: 6)\n  1592: a0 = s1 + 0x2000\n  1596: i32 a0 = a0 + 0x180\n  1600: a1 = 0\n  1602: ra = 0x1e\n  1605: ecalli 1 // 'call_data_load'\n  1607: fallthrough\n      : @52 [@dyn 15] (gas: 3)\n  1608: a2 = s1 + 0x2078\n  1612: a0 = i32 [a2 + 0x124]\n  1616: jump @54 if a0 != 2623780793\n      : @53 (gas: 1)\n  1623: jump @544\n      : @54 (gas: 1)\n  1626: jump @56 if a0 != 3236402114\n      : @55 (gas: 1)\n  1633: jump @211\n      : @56 (gas: 1)\n  1636: jump @58 if a0 != 3279586145\n      : @57 (gas: 1)\n  1643: jump @448\n      : @58 (gas: 1)\n  1646: jump @60 if a0 != 425328921\n      : @59 (gas: 1)\n  1653: jump @330\n      : @60 (gas: 1)\n  1656: jump @78 if a0 == 731774592\n      : @61 (gas: 1)\n  1664: jump @173 if a0 == 1507757014\n      : @62 (gas: 1)\n  1672: jump @140 if a0 == 1609855252\n      : @63 (gas: 1)\n  1680: jump @65 if a0 == 1858401471\n      : @64 (gas: 1)\n  1687: jump @257\n      : @65 (gas: 8)\n  1690: u64 [a2 + 960] = 0\n  1694: u64 [a2 + 952] = 0\n  1698: u64 [a2 + 944] = 0\n  1702: u64 [a2 + 936] = 0\n  1706: a0 = s1 + 0x2000\n  1710: i32 a0 = a0 + 0x420\n  1714: ecalli 11 // 'value_transferred'\n  1716: fallthrough\n      : @66 (gas: 10)\n  1717: a4 = s1 + 0x2078\n  1721: a5 = a4 + 0x300\n  1725: a0 = u64 [a5 + 0xb8]\n  1729: a1 = u64 [a5 + 0xc0]\n  1733: a2 = u64 [a5 + 0xb0]\n  1737: a3 = u64 [a5 + 0xa8]\n  1741: a1 = a1 | a2\n  1744: a0 = a0 | a3\n  1747: a0 = a0 | a1\n  1750: jump @68 if a0 == 0\n      : @67 (gas: 1)\n  1753: jump @740\n      : @68 (gas: 3)\n  1756: a0 = u64 [s1 + 0xf8]\n  1760: a1 = i32 [a0]\n  1762: jump @70 if a1 >u 3\n      : @69 (gas: 1)\n  1766: jump @741\n      : @70 (gas: 8)\n  1769: u64 [a4 + 992] = 0\n  1773: u64 [a4 + 984] = 0\n  1777: u64 [a4 + 976] = 0\n  1781: u64 [a4 + 968] = 0x3\n  1786: a0 = s1 + 0x7ff\n  1790: a0 = a0 + 0x681\n  1794: a1 = s1 + 0x2440\n  1798: ra = 32, jump @21\n      : @71 [@dyn 16] (gas: 15)\n  1803: a1 = s1 + 0x7ff\n  1807: a1 = a1 + 0x79\n  1810: a2 = a1 + 0x600\n  1814: a0 = u64 [a2 + 0x20]\n  1817: u64 [s1 + 0xf8] = a0\n  1821: a0 = u64 [a2 + 0x18]\n  1824: u64 [s1 + 0xf0] = a0\n  1828: a0 = u64 [a2 + 0x10]\n  1831: u64 [s1 + 0xe8] = a0\n  1835: a0 = u64 [a2 + 0x8]\n  1838: u64 [s1 + 0xe0] = a0\n  1842: a0 = s1 + 0x7ff\n  1846: a0 = a0 + 0x661\n  1850: a1 = 0x40\n  1853: ra = 34, jump @17\n      : @72 [@dyn 17] (gas: 15)\n  1858: a3 = s1 + 0x7ff\n  1862: a3 = a3 + 0x79\n  1865: a0 = u64 [a3 + 0x600]\n  1869: a5 = a3 + 0x500\n  1873: a1 = u64 [a5 + 0xf8]\n  1877: a2 = u64 [a5 + 0xf0]\n  1881: a4 = u64 [a5 + 0xe8]\n  1885: a0 = a0 | a2\n  1888: a2 = a4 | a1\n  1891: a2 = a2 | a0\n  1894: a2 = a2 >> 0x20\n  1897: a0 = a0 | a1\n  1900: a0 = a0 << 0x20\n  1903: a0 = a0 | a2\n  1906: jump @74 if a0 == 0\n      : @73 (gas: 1)\n  1909: jump @609\n      : @74 (gas: 12)\n  1912: a0 = u64 [s1 + 0xe0]\n  1916: a2 = a3 + 0x500\n  1920: u64 [a2 + 0xc8] = a0\n  1924: a0 = u64 [s1 + 0xe8]\n  1928: u64 [a2 + 0xd0] = a0\n  1932: a0 = u64 [s1 + 0xf0]\n  1936: u64 [a2 + 0xd8] = a0\n  1940: a1 = s1 + 0x7ff\n  1944: a1 = a1 + 0x641\n  1948: a0 = u64 [s1 + 0xf8]\n  1952: u64 [a2 + 0xe0] = a0\n  1956: fallthrough\n      : @75 (gas: 3)\n  1957: a0 = a4\n  1959: u64 [s1 + 0xf8] = a4\n  1963: ra = 36, jump @19\n      : @76 [@dyn 18] (gas: 3)\n  1968: a1 = 0x20\n  1971: a0 = u64 [s1 + 0xf8]\n  1975: ra = 38, jump @29\n      : @77 [@dyn 19] (gas: 5)\n  1980: i32 a1 = a0 + 0\n  1982: a2 = 0x20\n  1985: a0 = 0\n  1987: ecalli 8 // 'seal_return'\n  1989: fallthrough\n      : @78 (gas: 8)\n  1990: u64 [a2 + 704] = 0\n  1994: u64 [a2 + 696] = 0\n  1998: u64 [a2 + 688] = 0\n  2002: u64 [a2 + 680] = 0\n  2006: a0 = s1 + 0x2000\n  2010: i32 a0 = a0 + 0x320\n  2014: ecalli 11 // 'value_transferred'\n  2016: fallthrough\n      : @79 (gas: 10)\n  2017: a3 = s1 + 0x2078\n  2021: a4 = a3 + 0x200\n  2025: a0 = u64 [a4 + 0xb8]\n  2029: a1 = u64 [a4 + 0xc0]\n  2033: a2 = u64 [a4 + 0xb0]\n  2037: a3 = u64 [a4 + 0xa8]\n  2041: a1 = a1 | a2\n  2044: a0 = a0 | a3\n  2047: a0 = a0 | a1\n  2050: jump @81 if a0 == 0\n      : @80 (gas: 1)\n  2053: jump @742\n      : @81 (gas: 3)\n  2056: a0 = u64 [s1 + 0xf8]\n  2060: a0 = i32 [a0]\n  2062: jump @83 if a0 >u 35\n      : @82 (gas: 1)\n  2066: jump @743\n      : @83 (gas: 6)\n  2069: a0 = s1 + 0x2000\n  2073: i32 a0 = a0 + 0x340\n  2077: a1 = 0x4\n  2080: ra = 0x28\n  2083: ecalli 1 // 'call_data_load'\n  2085: fallthrough\n      : @84 [@dyn 20] (gas: 6)\n  2086: a5 = s1 + 0x2078\n  2090: a3 = a5 + 0x200\n  2094: a0 = u64 [a3 + 0xe0]\n  2098: a1 = u64 [a3 + 0xd8]\n  2102: a2 = u64 [a3 + 0xd0]\n  2106: t0 = 42, jump @1027\n      : @85 [@dyn 21] (gas: 1)\n  2111: jump @87 if a4 != 0\n      : @86 (gas: 1)\n  2114: jump @744\n      : @87 (gas: 30)\n  2117: a3 = u64 [a5 + 0x2c8]\n  2121: a4 = u64 [s1 + 0xf8]\n  2125: t0 = u32 [a4]\n  2127: a5 = a3 + 0x4\n  2130: a3 = a5 <u a3\n  2133: a4 = a2 + a3\n  2136: a2 = a4 <u a2\n  2139: a2 = a3 if a3 == 0\n  2142: a2 = a2 + a1\n  2145: a1 = a2 <u a1\n  2148: a3 = a0 + a1\n  2151: a0 = s1 + 0x7ff\n  2155: a0 = a0 + 0x79\n  2158: u64 [a0 + 416] = 0\n  2162: u64 [a0 + 408] = 0\n  2166: u64 [a0 + 400] = 0\n  2170: u64 [a0 + 0x188] = t0\n  2174: a1 = a0 + 0x100\n  2178: u64 [a1 + 0xa8] = a5\n  2182: u64 [a1 + 0xb0] = a4\n  2186: u64 [a1 + 0xb8] = a2\n  2190: a4 = a0\n  2192: a0 = s1 + 0x7ff\n  2196: a0 = a0 + 0x241\n  2200: a1 = s1 + 0x7ff\n  2204: a1 = a1 + 0x221\n  2208: a2 = s1 + 0x7ff\n  2212: a2 = a2 + 0x201\n  2216: u64 [a4 + 0x1c0] = a3\n  2220: ra = 44, jump @820\n      : @88 [@dyn 22] (gas: 15)\n  2225: a0 = s1 + 0x7ff\n  2229: a0 = a0 + 0x79\n  2232: a2 = a0 + 0x100\n  2236: a1 = u64 [a2 + 0xe0]\n  2240: u64 [s1 + 0xf0] = a1\n  2244: a1 = u64 [a2 + 0xd8]\n  2248: u64 [s1 + 0xe8] = a1\n  2252: a1 = u64 [a2 + 0xd0]\n  2256: u64 [s1 + 0xf8] = a1\n  2260: a0 = u64 [a2 + 0xc8]\n  2264: u64 [s1 + 0xe0] = a0\n  2268: a0 = s1 + 0x7ff\n  2272: a0 = a0 + 0x1e1\n  2276: a1 = 0x40\n  2279: ra = 46, jump @17\n      : @89 [@dyn 23] (gas: 1)\n  2284: t0 = 48, jump @1018\n      : @90 [@dyn 24] (gas: 1)\n  2289: jump @92 if a0 == 0\n      : @91 (gas: 1)\n  2292: jump @609\n      : @92 (gas: 14)\n  2295: a0 = s1 + 0x7ff\n  2299: a0 = a0 + 0x79\n  2302: a3 = a0 + 0x100\n  2306: a2 = u64 [a3 + 0x80]\n  2310: u64 [s1 + 0xd0] = a2\n  2314: a2 = u64 [a3 + 0x78]\n  2317: u64 [s1 + 0xc8] = a2\n  2321: a2 = u64 [a3 + 0x70]\n  2324: u64 [s1 + 0xc0] = a2\n  2328: a0 = u64 [a3 + 0x68]\n  2331: u64 [s1 + 0xd8] = a0\n  2335: a0 = s1 + 0x7ff\n  2339: a0 = a0 + 0x1c1\n  2343: ra = 50, jump @17\n      : @93 [@dyn 25] (gas: 1)\n  2348: t0 = 52, jump @1016\n      : @94 [@dyn 26] (gas: 1)\n  2353: jump @96 if a0 == 0\n      : @95 (gas: 1)\n  2356: jump @609\n      : @96 (gas: 1)\n  2359: t0 = 54, jump @1015\n      : @97 [@dyn 27] (gas: 1)\n  2364: jump @99 if a1 != 0\n      : @98 (gas: 1)\n  2367: jump @609\n      : @99 (gas: 15)\n  2370: a0 = s1 + 0x7ff\n  2374: a0 = a0 + 0x79\n  2377: t0 = u64 [a0 + 0x160]\n  2381: a2 = a0 + 0x100\n  2385: a5 = u64 [a2 + 0x58]\n  2388: a1 = u64 [a2 + 0x48]\n  2391: a3 = u64 [a2 + 0x50]\n  2394: a0 = a1 | a5\n  2397: a2 = a3 | t0\n  2400: a0 = a0 | a2\n  2403: a0 = a0 >> 0x20\n  2406: a2 = a2 | a5\n  2409: a2 = a2 << 0x20\n  2412: a0 = a0 | a2\n  2415: jump @101 if a0 == 0\n      : @100 (gas: 1)\n  2418: jump @609\n      : @101 (gas: 8)\n  2421: i32 a0 = a4 + 0x20\n  2424: u64 [s1 + 0xe0] = a0\n  2428: a0 = u64 [s1 + 0xd8]\n  2432: u64 [s1 + 0xf8] = a1\n  2436: u64 [s1 + 0xf0] = a3\n  2440: u64 [s1 + 0xe8] = t0\n  2444: u64 [s1 + 0xb8] = a5\n  2448: ra = 56, jump @29\n      : @102 [@dyn 28] (gas: 4)\n  2453: u64 [s1 + 0xb0] = a0\n  2457: a0 = u64 [s1 + 0xe0]\n  2461: a1 = u64 [s1 + 0xf8]\n  2465: ra = 58, jump @29\n      : @103 [@dyn 29] (gas: 4)\n  2470: a1 = a0\n  2472: a0 = u64 [s1 + 0xb0]\n  2476: a2 = u64 [s1 + 0xf8]\n  2480: ra = 60, jump @0\n      : @104 [@dyn 30] (gas: 13)\n  2485: t2 = u64 [s1 + 0xb8]\n  2489: t1 = u64 [s1 + 0xe8]\n  2493: t0 = u64 [s1 + 0xf0]\n  2497: a0 = u64 [s1 + 0xd8]\n  2501: a1 = u64 [s1 + 0xf8]\n  2505: a0 = a0 + a1\n  2508: a1 = a0 <u a1\n  2511: a2 = u64 [s1 + 0xc0]\n  2515: a2 = a2 + t0\n  2518: a2 = a2 + a1\n  2521: a3 = a2 ^ t0\n  2524: a4 = a2 <u t0\n  2527: t0 = 62, jump @1013\n      : @105 [@dyn 31] (gas: 1)\n  2532: jump @107 if a1 == 0\n      : @106 (gas: 1)\n  2535: jump @609\n      : @107 (gas: 9)\n  2538: a2 = s1 + 0x7ff\n  2542: a2 = a2 + 0x79\n  2545: u64 [a2 + 320] = 0\n  2549: u64 [a2 + 312] = 0\n  2553: u64 [a2 + 304] = 0\n  2557: a1 = s1 + 0x7ff\n  2561: a1 = a1 + 0x1a1\n  2565: u64 [a2 + 296] = 0\n  2569: ra = 64, jump @19\n      : @108 [@dyn 32] (gas: 3)\n  2574: a0 = u64 [s1 + 0xe8]\n  2578: a1 = u64 [s1 + 0xb8]\n  2582: t0 = 66, jump @1039\n      : @109 [@dyn 33] (gas: 1)\n  2587: jump @111 if a1 != 0\n      : @110 (gas: 1)\n  2590: jump @609\n      : @111 (gas: 4)\n  2593: i32 a1 = a2 + 0x20\n  2596: u64 [s1 + 0xf8] = a1\n  2600: a0 = u64 [s1 + 0xd8]\n  2604: ra = 68, jump @29\n      : @112 [@dyn 34] (gas: 1)\n  2609: t0 = 70, jump @1031\n      : @113 [@dyn 35] (gas: 25)\n  2614: ecalli 6 // 'hash_keccak_256'\n  2616: a3 = u64 [s1 + 0xf0]\n  2620: a0 = u64 [a3 + 0x18]\n  2623: a1 = u64 [a3 + 0x10]\n  2626: a2 = u64 [a3 + 0x8]\n  2629: a3 = u64 [a3]\n  2631: a5 = reverse a0\n  2633: u64 [s1 + 0xe8] = a5\n  2637: a4 = reverse a1\n  2639: u64 [s1 + 0xf0] = a4\n  2643: a2 = reverse a2\n  2645: u64 [s1 + 0xe0] = a2\n  2649: a1 = reverse a3\n  2651: u64 [s1 + 0xf8] = a1\n  2655: a3 = s1 + 0x7ff\n  2659: a3 = a3 + 0x79\n  2662: u64 [a3 + 0x100] = a1\n  2666: u64 [a3 + 0xf8] = a2\n  2670: u64 [a3 + 0xf0] = a4\n  2674: a0 = s1 + 0x7ff\n  2678: a0 = a0 + 0x181\n  2682: a1 = s1 + 0x7ff\n  2686: a1 = a1 + 0x161\n  2690: u64 [a3 + 0xe8] = a5\n  2694: ra = 72, jump @857\n      : @114 [@dyn 36] (gas: 32)\n  2699: a4 = s1 + 0x7ff\n  2703: a4 = a4 + 0x79\n  2706: a1 = a4 + 0x100\n  2710: a0 = u64 [a1 + 0x20]\n  2713: u64 [s1 + 0xc0] = a0\n  2717: a0 = u64 [a1 + 0x18]\n  2720: u64 [s1 + 0xc8] = a0\n  2724: a0 = u64 [a1 + 0x10]\n  2727: u64 [s1 + 0xd0] = a0\n  2731: a0 = u64 [a1 + 0x8]\n  2734: u64 [s1 + 0xd8] = a0\n  2738: a0 = u64 [s1 + 0xe8]\n  2742: a0 = a0 + 0x1\n  2745: a1 = a0 <u 0x1\n  2748: a2 = u64 [s1 + 0xf0]\n  2752: a1 = a1 + a2\n  2755: a2 = a0 | a1\n  2758: a2 = a2 <u 0x1\n  2761: a3 = u64 [s1 + 0xe0]\n  2765: a2 = a2 + a3\n  2768: a3 = a2 <u a3\n  2771: a5 = u64 [s1 + 0xf8]\n  2775: a3 = a3 + a5\n  2778: u64 [a4 + 0xb0] = a1\n  2782: u64 [a4 + 0xa8] = a0\n  2786: u64 [a4 + 0xb8] = a2\n  2790: a0 = s1 + 0x7ff\n  2794: a0 = a0 + 0x141\n  2798: a1 = s1 + 0x7ff\n  2802: a1 = a1 + 0x121\n  2806: u64 [a4 + 0xc0] = a3\n  2810: ra = 74, jump @857\n      : @115 [@dyn 37] (gas: 13)\n  2815: a1 = s1 + 0x7ff\n  2819: a1 = a1 + 0x79\n  2822: a0 = u64 [a1 + 0xe0]\n  2826: u64 [s1 + 0xa0] = a0\n  2830: a0 = u64 [a1 + 0xd8]\n  2834: u64 [s1 + 0xa8] = a0\n  2838: a0 = u64 [a1 + 0xd0]\n  2842: u64 [s1 + 0xb0] = a0\n  2846: a0 = u64 [a1 + 0xc8]\n  2850: u64 [s1 + 0xb8] = a0\n  2854: a1 = u64 [s1 + 0xe8]\n  2858: a0 = a1 + 0x2\n  2861: t0 = 76, jump @1033\n      : @116 [@dyn 38] (gas: 12)\n  2866: a4 = u64 [s1 + 0xf8]\n  2870: a1 = a1 + a4\n  2873: a4 = s1 + 0x2078\n  2877: u64 [a4 + 0x300] = a1\n  2881: a1 = a4 + 0x200\n  2885: u64 [a1 + 0xf8] = a3\n  2889: u64 [a1 + 0xf0] = a2\n  2893: u64 [a1 + 0xe8] = a0\n  2897: a0 = s1 + 0x7ff\n  2901: a0 = a0 + 0x101\n  2905: a1 = s1 + 0x2360\n  2909: ra = 78, jump @21\n      : @117 [@dyn 39] (gas: 9)\n  2914: a5 = s1 + 0x7ff\n  2918: a5 = a5 + 0x79\n  2921: a0 = u32 [a5 + 0x98]\n  2925: u64 [s1 + 0x98] = a0\n  2929: a1 = u64 [s1 + 0xe8]\n  2933: a0 = a1 + 0x3\n  2936: a1 = a0 <u a1\n  2939: a3 = u64 [s1 + 0xf0]\n  2943: t0 = 80, jump @1030\n      : @118 [@dyn 40] (gas: 19)\n  2948: a1 = u64 [a5 + 0x90]\n  2952: u64 [s1 + 0x90] = a1\n  2956: a1 = u64 [s1 + 0xe0]\n  2960: a3 = a3 + a1\n  2963: a1 = a3 <u a1\n  2966: a4 = u64 [s1 + 0xf8]\n  2970: a1 = a1 + a4\n  2973: a4 = u64 [a5 + 0x88]\n  2977: u64 [s1 + 0x88] = a4\n  2981: a4 = s1 + 0x2078\n  2985: a5 = a4 + 0x300\n  2989: u64 [a5 + 0x20] = a1\n  2992: u64 [a5 + 0x18] = a3\n  2995: u64 [a5 + 0x10] = a2\n  2998: u64 [a5 + 0x8] = a0\n  3001: a0 = s1 + 0x7ff\n  3005: a0 = a0 + 0xe1\n  3009: a1 = s1 + 0x2380\n  3013: ra = 82, jump @21\n      : @119 [@dyn 41] (gas: 14)\n  3018: a1 = s1 + 0x7ff\n  3022: a1 = a1 + 0x79\n  3025: a0 = u64 [a1 + 0x80]\n  3029: u64 [s1 + 0x80] = a0\n  3033: a0 = u64 [a1 + 0x78]\n  3036: u64 [s1 + 0x78] = a0\n  3039: a0 = u64 [a1 + 0x70]\n  3042: u64 [s1 + 0x70] = a0\n  3045: a0 = u64 [a1 + 0x68]\n  3048: u64 [s1 + 0x68] = a0\n  3051: a0 = s1 + 0x7ff\n  3055: a0 = a0 + 0xc1\n  3059: a1 = 0x40\n  3062: ra = 84, jump @17\n      : @120 [@dyn 42] (gas: 9)\n  3067: a5 = s1 + 0x7ff\n  3071: a5 = a5 + 0x79\n  3074: a4 = u64 [a5 + 0x60]\n  3077: a3 = u64 [a5 + 0x58]\n  3080: a1 = u64 [a5 + 0x50]\n  3083: a0 = u64 [a5 + 0x48]\n  3086: u64 [s1 + 0xf0] = a1\n  3090: a2 = a1 | a4\n  3093: t0 = 86, jump @1034\n      : @121 [@dyn 43] (gas: 1)\n  3098: jump @123 if a1 == 0\n      : @122 (gas: 1)\n  3101: jump @609\n      : @123 (gas: 10)\n  3104: u64 [a5 + 64] = 0\n  3107: u64 [a5 + 56] = 0\n  3110: u64 [a5 + 48] = 0\n  3113: u64 [s1 + 0xe8] = a3\n  3117: a1 = s1 + 0x7ff\n  3121: a1 = a1 + 0xa1\n  3125: u64 [a5 + 40] = 0x80\n  3130: u64 [s1 + 0xf8] = a0\n  3134: u64 [s1 + 0xe0] = a4\n  3138: ra = 88, jump @19\n      : @124 [@dyn 44] (gas: 41)\n  3143: a0 = u64 [s1 + 0xf8]\n  3147: a0 = a0 + 0x80\n  3151: a1 = u64 [s1 + 0xf8]\n  3155: a1 = a0 <u a1\n  3158: a3 = u64 [s1 + 0xf0]\n  3162: a2 = a3 + a1\n  3165: a3 = a2 <u a3\n  3168: a3 = a1 if a1 == 0\n  3171: a1 = u64 [s1 + 0xe8]\n  3175: a3 = a3 + a1\n  3178: a1 = u64 [s1 + 0xe8]\n  3182: a1 = a3 <u a1\n  3185: a4 = u64 [s1 + 0xe0]\n  3189: a4 = a4 + a1\n  3192: a1 = s1 + 0x1000\n  3196: u64 [a1 + 0xfffffffffffff848] = a2\n  3200: a1 = s1 + 0x1000\n  3204: u64 [a1 + 0xfffffffffffff840] = a0\n  3208: a0 = u64 [s1 + 0xc0]\n  3212: a1 = s1 + 0x7ff\n  3216: a1 = a1 + 0x79\n  3219: u64 [a1] = a0\n  3221: a0 = u64 [s1 + 0xc8]\n  3225: u64 [a1 + 0xfffffffffffffff8] = a0\n  3228: a0 = u64 [s1 + 0xd0]\n  3232: a1 = s1 + 0x1000\n  3236: u64 [a1 + 0xfffffffffffff868] = a0\n  3240: a0 = u64 [s1 + 0xd8]\n  3244: a1 = s1 + 0x1000\n  3248: u64 [a1 + 0xfffffffffffff860] = a0\n  3252: a0 = s1 + 0x1000\n  3256: u64 [a0 + 0xfffffffffffff850] = a3\n  3260: a0 = s1 + 0x7ff\n  3264: a0 = a0 + 0x81\n  3268: a1 = s1 + 0x7ff\n  3272: a1 = a1 + 0x61\n  3275: a2 = s1 + 0x7ff\n  3279: a2 = a2 + 0x41\n  3282: a3 = s1 + 0x1000\n  3286: u64 [a3 + 0xfffffffffffff858] = a4\n  3290: ra = 90, jump @881\n      : @125 [@dyn 45] (gas: 12)\n  3295: a3 = u64 [s1 + 0xe8]\n  3299: t2 = u64 [s1 + 0xe0]\n  3303: a1 = u64 [s1 + 0xf8]\n  3307: a2 = a3 | t2\n  3310: a0 = 0x100000000\n  3320: u64 [s1 + 0xd8] = a0\n  3324: a0 = 0xffffffe0\n  3334: a0 = a1 <u a0\n  3337: a5 = u64 [s1 + 0xf0]\n  3341: a0 = 0 if a5 != 0\n  3343: a0 = 0 if a2 != 0\n  3345: jump @127 if a0 != 0\n      : @126 (gas: 1)\n  3348: jump @609\n      : @127 (gas: 44)\n  3351: a0 = s1 + 0x7ff\n  3355: a0 = a0 + 0x79\n  3358: a4 = u64 [a0 + 0x8]\n  3361: u64 [s1 + 0xd0] = a4\n  3365: t1 = u64 [a0 + 0x10]\n  3368: t0 = u64 [a0 + 0x20]\n  3371: u64 [s1 + 0x60] = t0\n  3374: a0 = u64 [a0 + 0x18]\n  3377: u64 [s1 + 0xc0] = a0\n  3381: ra = a4 <u a1\n  3384: a4 = u64 [s1 + 0xf0]\n  3388: a1 = t1 ^ a4\n  3391: u64 [s1 + 0x50] = a1\n  3394: u64 [s1 + 0xc8] = a2\n  3398: a2 = t1 <u a4\n  3401: u64 [s1 + 0x58] = t1\n  3404: a5 = a4\n  3406: a1 = u64 [s1 + 0x50]\n  3409: a2 = ra if a1 == 0\n  3412: a1 = a0 - a3\n  3415: a3 = a0 <u a3\n  3418: a4 = t0 - t2\n  3421: a4 = a4 - a3\n  3424: a3 = a1 <u a2\n  3427: a4 = a4 - a3\n  3430: a1 = a1 - a2\n  3433: a2 = t1 - a5\n  3436: a2 = a2 - ra\n  3439: a0 = u64 [s1 + 0xf8]\n  3443: a3 = u64 [s1 + 0xd0]\n  3447: a3 = a3 - a0\n  3450: a0 = u64 [s1 + 0xf8]\n  3454: i32 a0 = a0 + 0x20\n  3457: a5 = s1 + 0x1000\n  3461: u64 [a5 + 0xfffffffffffff820] = a3\n  3465: a3 = s1 + 0x1000\n  3469: u64 [a3 + 0xfffffffffffff828] = a2\n  3473: a2 = s1 + 0x1000\n  3477: u64 [a2 + 0xfffffffffffff830] = a1\n  3481: a1 = s1 + 0x7ff\n  3485: a1 = a1 + 0x21\n  3488: a2 = s1 + 0x1000\n  3492: u64 [a2 + 0xfffffffffffff838] = a4\n  3496: ra = 92, jump @19\n      : @128 [@dyn 46] (gas: 22)\n  3501: a0 = u64 [s1 + 0x60]\n  3504: a4 = s1 + 0x700\n  3508: u64 [a4 + 0xd8] = a0\n  3512: a0 = u64 [s1 + 0xc0]\n  3516: u64 [a4 + 0xd0] = a0\n  3520: a0 = u64 [s1 + 0x58]\n  3523: u64 [a4 + 0xc8] = a0\n  3527: a0 = u64 [s1 + 0xd0]\n  3531: u64 [a4 + 0xc0] = a0\n  3535: a0 = u64 [s1 + 0xa0]\n  3539: u64 [a4 + 0xf8] = a0\n  3543: a0 = u64 [s1 + 0xa8]\n  3547: u64 [a4 + 0xf0] = a0\n  3551: a0 = u64 [s1 + 0xb0]\n  3555: u64 [a4 + 0xe8] = a0\n  3559: a0 = s1 + 0x7ff\n  3563: a0 = a0 + 0x1\n  3566: a1 = s1 + 0x7e0\n  3570: a2 = s1 + 0x7c0\n  3574: a3 = u64 [s1 + 0xb8]\n  3578: u64 [a4 + 0xe0] = a3\n  3582: ra = 94, jump @881\n      : @129 [@dyn 47] (gas: 9)\n  3587: a2 = u64 [s1 + 0xc8]\n  3591: a1 = u64 [s1 + 0xf8]\n  3595: a0 = u64 [s1 + 0xd8]\n  3599: a0 = a0 + 0xffffffffffffffc0\n  3602: a0 = a1 <u a0\n  3605: a3 = u64 [s1 + 0xf0]\n  3609: a0 = 0 if a3 != 0\n  3611: a0 = 0 if a2 != 0\n  3613: jump @131 if a0 != 0\n      : @130 (gas: 1)\n  3616: jump @609\n      : @131 (gas: 23)\n  3619: a0 = s1 + 0x1000\n  3623: a0 = u64 [a0 + 0xfffffffffffff818]\n  3627: u64 [s1 + 0xc0] = a0\n  3631: a0 = s1 + 0x1000\n  3635: a0 = u64 [a0 + 0xfffffffffffff810]\n  3639: u64 [s1 + 0xb8] = a0\n  3643: a0 = s1 + 0x1000\n  3647: a0 = u64 [a0 + 0xfffffffffffff808]\n  3651: u64 [s1 + 0xd0] = a0\n  3655: a0 = s1 + 0x1000\n  3659: a0 = u64 [a0 + 0xfffffffffffff800]\n  3663: u64 [s1 + 0xd8] = a0\n  3667: i32 a0 = a1 + 0x40\n  3670: u64 [s1 + 1976] = 0\n  3674: a1 = u64 [s1 + 0x88]\n  3678: a3 = s1 + 0x700\n  3682: u64 [a3 + 0xa0] = a1\n  3686: a1 = u64 [s1 + 0x90]\n  3690: u64 [a3 + 0xa8] = a1\n  3694: a1 = s1 + 0x7a0\n  3698: a2 = u64 [s1 + 0x98]\n  3702: u64 [a3 + 0xb0] = a2\n  3706: ra = 96, jump @19\n      : @132 [@dyn 48] (gas: 8)\n  3711: a2 = u64 [s1 + 0xf8]\n  3715: a0 = 0xffffffa0\n  3725: a0 = a2 <u a0\n  3728: a1 = u64 [s1 + 0xf0]\n  3732: a0 = 0 if a1 != 0\n  3734: a1 = u64 [s1 + 0xc8]\n  3738: a0 = 0 if a1 != 0\n  3740: jump @134 if a0 != 0\n      : @133 (gas: 1)\n  3743: jump @609\n      : @134 (gas: 12)\n  3746: i32 a0 = a2 + 0x60\n  3749: a1 = u64 [s1 + 0x68]\n  3752: a2 = s1 + 0x700\n  3756: u64 [a2 + 0x80] = a1\n  3760: a1 = u64 [s1 + 0x70]\n  3763: u64 [a2 + 0x88] = a1\n  3767: a1 = u64 [s1 + 0x78]\n  3770: u64 [a2 + 0x90] = a1\n  3774: a1 = s1 + 0x780\n  3778: a3 = u64 [s1 + 0x80]\n  3782: u64 [a2 + 0x98] = a3\n  3786: ra = 98, jump @19\n      : @135 [@dyn 49] (gas: 23)\n  3791: t0 = u64 [s1 + 0xd8]\n  3795: ra = u64 [s1 + 0xf8]\n  3799: t1 = t0 <u ra\n  3802: a5 = u64 [s1 + 0xf0]\n  3806: a1 = u64 [s1 + 0xd0]\n  3810: a3 = a1 ^ a5\n  3813: a2 = a1 <u a5\n  3816: a2 = t1 if a3 == 0\n  3819: a3 = u64 [s1 + 0xe8]\n  3823: a4 = u64 [s1 + 0xb8]\n  3827: a0 = a4 - a3\n  3830: t2 = a4 <u a3\n  3833: a4 = u64 [s1 + 0xe0]\n  3837: a3 = u64 [s1 + 0xc0]\n  3841: a4 = a3 - a4\n  3844: a4 = a4 - t2\n  3847: a3 = a0 <u a2\n  3850: a4 = a4 - a3\n  3853: a3 = a0 - a2\n  3856: a2 = a1 - a5\n  3859: a2 = a2 - t1\n  3862: a0 = t0 - ra\n  3865: fallthrough\n      : @136 (gas: 9)\n  3866: a2 = a2 | a4\n  3869: a4 = a0\n  3871: a0 = a0 | a3\n  3874: a0 = a0 | a2\n  3877: a1 = a2 | a3\n  3880: a0 = a0 >> 0x20\n  3883: a1 = a1 << 0x20\n  3886: a0 = a0 | a1\n  3889: jump @138 if a0 == 0\n      : @137 (gas: 1)\n  3892: jump @609\n      : @138 (gas: 4)\n  3895: a0 = u64 [s1 + 0xf8]\n  3899: a1 = a4\n  3901: u64 [s1 + 0xf0] = a4\n  3905: ra = 100, jump @29\n      : @139 [@dyn 50] (gas: 5)\n  3910: i32 a1 = a0 + 0\n  3912: a2 = i32 [s1 + 0xf0]\n  3916: a0 = 0\n  3918: ecalli 8 // 'seal_return'\n  3920: jump @78\n      : @140 (gas: 10)\n  3923: u64 [a2 + 896] = 0\n  3927: u64 [a2 + 888] = 0\n  3931: u64 [a2 + 880] = 0\n  3935: u64 [a2 + 872] = 0\n  3939: a0 = s1 + 0x2000\n  3943: i32 a0 = a0 + 0x3e0\n  3947: ra = 0x66\n  3950: ecalli 11 // 'value_transferred'\n  3952: t0 = 0x68\n  3955: jump @1045\n      : @141 [@dyn 51] (gas: 1)\n  3958: t0 = 104, jump @1045\n      : @142 [@dyn 52] (gas: 8)\n  3963: a0 = u64 [a4 + 0x78]\n  3966: a1 = u64 [a4 + 0x80]\n  3970: a2 = u64 [a4 + 0x70]\n  3973: a3 = u64 [a4 + 0x68]\n  3976: a1 = a1 | a2\n  3979: a0 = a0 | a3\n  3982: a0 = a0 | a1\n  3985: jump @144 if a0 == 0\n      : @143 (gas: 1)\n  3988: jump @745\n      : @144 (gas: 3)\n  3991: a0 = u64 [s1 + 0xf8]\n  3995: a0 = i32 [a0]\n  3997: jump @146 if a0 >u 35\n      : @145 (gas: 1)\n  4001: jump @746\n      : @146 (gas: 6)\n  4004: a0 = s1 + 0x2000\n  4008: i32 a0 = a0 + 0x400\n  4012: a1 = 0x4\n  4015: ra = 0x6a\n  4018: ecalli 1 // 'call_data_load'\n  4020: fallthrough\n      : @147 [@dyn 53] (gas: 4)\n  4021: a4 = s1 + 0x2078\n  4025: a1 = u64 [a4 + 0x398]\n  4029: a0 = u64 [a4 + 0x3a0]\n  4033: t0 = 108, jump @1038\n      : @148 [@dyn 54] (gas: 1)\n  4038: jump @150 if a3 != 0\n      : @149 (gas: 1)\n  4041: jump @747\n      : @150 (gas: 13)\n  4044: a2 = u64 [a4 + 0x390]\n  4048: a3 = u64 [a4 + 0x388]\n  4052: a4 = s1 + 0x7ff\n  4056: a4 = a4 + 0x79\n  4059: a5 = a4 + 0x500\n  4063: u64 [a5 + 0xa8] = a3\n  4067: u64 [a5 + 0xb0] = a2\n  4071: u64 [a5 + 0xb8] = a1\n  4075: a1 = s1 + 0x7ff\n  4079: a1 = a1 + 0x621\n  4083: u64 [a5 + 0xc0] = a0\n  4087: a0 = 0\n  4089: ra = 110, jump @19\n      : @151 [@dyn 55] (gas: 11)\n  4094: a1 = s1 + 0x7ff\n  4098: a1 = a1 + 0x79\n  4101: u64 [a1 + 1440] = 0\n  4105: u64 [a1 + 1432] = 0\n  4109: u64 [a1 + 1416] = 0x2\n  4114: a2 = a1\n  4116: a0 = 0x20\n  4119: a1 = s1 + 0x7ff\n  4123: a1 = a1 + 0x601\n  4127: u64 [a2 + 1424] = 0\n  4131: ra = 112, jump @19\n      : @152 [@dyn 56] (gas: 7)\n  4136: a0 = sp + 0xffffffffffffffe0\n  4139: a0 = a0 & 0xffffffffffffffe0\n  4142: u64 [s1 + 0xf8] = a0\n  4146: sp = a0\n  4148: a2 = 0x20074\n  4153: a0 = i32 [0x20074]\n  4158: jump @154 if a0 >u 63\n      : @153 (gas: 2)\n  4162: u32 [0x20074] = 0x40\n  4168: fallthrough\n      : @154 (gas: 32)\n  4169: u64 [s1 + 0xc0] = a2\n  4173: a0 = sp + 0xffffffffffffffe0\n  4176: a2 = a0 & 0xffffffffffffffe0\n  4179: u64 [s1 + 0xf0] = a2\n  4183: sp = a2\n  4185: a0 = 0x20080\n  4190: i32 a0 = a0 + 0\n  4192: i32 a2 = a2 + 0\n  4194: a1 = 0x40\n  4197: u64 [s1 + 0xb8] = a0\n  4201: ecalli 6 // 'hash_keccak_256'\n  4203: a3 = u64 [s1 + 0xf0]\n  4207: a0 = u64 [a3 + 0x18]\n  4210: a1 = u64 [a3 + 0x10]\n  4213: a2 = u64 [a3 + 0x8]\n  4216: a3 = u64 [a3]\n  4218: a0 = reverse a0\n  4220: a4 = reverse a1\n  4222: a2 = reverse a2\n  4224: a3 = reverse a3\n  4226: u64 [s1 + 0x60] = a3\n  4229: a1 = u64 [s1 + 0xf8]\n  4233: u64 [a1 + 0x18] = a3\n  4236: u64 [s1 + 0xa0] = a2\n  4240: u64 [a1 + 0x10] = a2\n  4243: u64 [s1 + 0xa8] = a4\n  4247: u64 [a1 + 0x8] = a4\n  4250: u64 [s1 + 0xb0] = a0\n  4254: u64 [a1] = a0\n  4256: a0 = s1 + 0x7ff\n  4260: a0 = a0 + 0x5e1\n  4264: ra = 114, jump @21\n      : @155 [@dyn 57] (gas: 20)\n  4269: a4 = s1 + 0x7ff\n  4273: a4 = a4 + 0x79\n  4276: a5 = a4 + 0x500\n  4280: a0 = u64 [a5 + 0x80]\n  4284: a1 = u64 [a5 + 0x78]\n  4287: a2 = u64 [a5 + 0x70]\n  4290: a3 = u64 [a5 + 0x68]\n  4293: u64 [s1 + 0x98] = a0\n  4297: u64 [a5 + 0x40] = a0\n  4300: u64 [s1 + 0x90] = a1\n  4304: u64 [a5 + 0x38] = a1\n  4307: u64 [s1 + 0x88] = a2\n  4311: u64 [a5 + 0x30] = a2\n  4314: a0 = s1 + 0x7ff\n  4318: a0 = a0 + 0x5c1\n  4322: a1 = s1 + 0x7ff\n  4326: a1 = a1 + 0x5a1\n  4330: u64 [s1 + 0x80] = a3\n  4334: u64 [a5 + 0x28] = a3\n  4337: ra = 116, jump @1002\n      : @156 [@dyn 58] (gas: 15)\n  4342: a1 = s1 + 0x7ff\n  4346: a1 = a1 + 0x79\n  4349: a2 = a1 + 0x500\n  4353: a0 = u64 [a2 + 0x48]\n  4356: u64 [s1 + 0xe0] = a0\n  4360: a0 = u64 [a2 + 0x50]\n  4363: u64 [s1 + 0xd8] = a0\n  4367: a0 = u64 [a2 + 0x58]\n  4370: u64 [s1 + 0xd0] = a0\n  4374: a0 = u64 [a2 + 0x60]\n  4377: u64 [s1 + 0xc8] = a0\n  4381: a0 = s1 + 0x7ff\n  4385: a0 = a0 + 0x581\n  4389: a1 = 0x40\n  4392: ra = 118, jump @17\n      : @157 [@dyn 59] (gas: 28)\n  4397: a0 = s1 + 0x7ff\n  4401: a0 = a0 + 0x79\n  4404: a2 = u64 [a0 + 0x520]\n  4408: u64 [s1 + 0xf8] = a2\n  4412: a1 = u64 [a0 + 0x518]\n  4416: u64 [s1 + 0xf0] = a1\n  4420: a4 = u64 [a0 + 0x510]\n  4424: u64 [s1 + 0xe8] = a4\n  4428: a5 = u64 [a0 + 0x508]\n  4432: u64 [s1 + 0x48] = a5\n  4435: a3 = u64 [s1 + 0xc8]\n  4439: u64 [a0 + 0x4e0] = a3\n  4443: a3 = u64 [s1 + 0xd0]\n  4447: u64 [a0 + 0x4d8] = a3\n  4451: a3 = u64 [s1 + 0xd8]\n  4455: u64 [a0 + 0x4d0] = a3\n  4459: a3 = u64 [s1 + 0xe0]\n  4463: u64 [a0 + 0x4c8] = a3\n  4467: u64 [a0 + 0x500] = a2\n  4471: u64 [a0 + 0x4f8] = a1\n  4475: u64 [a0 + 0x4f0] = a4\n  4479: a2 = a0\n  4481: a0 = s1 + 0x7ff\n  4485: a0 = a0 + 0x561\n  4489: a1 = s1 + 0x7ff\n  4493: a1 = a1 + 0x541\n  4497: u64 [a2 + 0x4e8] = a5\n  4501: ra = 120, jump @810\n      : @158 [@dyn 60] (gas: 6)\n  4506: a0 = u64 [s1 + 0x48]\n  4509: a1 = u64 [s1 + 0xf8]\n  4513: a2 = u64 [s1 + 0xe8]\n  4517: a2 = a2 | a1\n  4520: a3 = u64 [s1 + 0xf0]\n  4524: t0 = 122, jump @1034\n      : @159 [@dyn 61] (gas: 1)\n  4529: jump @161 if a1 == 0\n      : @160 (gas: 1)\n  4532: jump @609\n      : @161 (gas: 14)\n  4535: a3 = s1 + 0x7ff\n  4539: a3 = a3 + 0x79\n  4542: a1 = u64 [s1 + 0x80]\n  4546: a4 = a3 + 0x400\n  4550: u64 [a4 + 0xa8] = a1\n  4554: a1 = u64 [s1 + 0x88]\n  4558: u64 [a4 + 0xb0] = a1\n  4562: a1 = u64 [s1 + 0x90]\n  4566: u64 [a4 + 0xb8] = a1\n  4570: a1 = s1 + 0x7ff\n  4574: a1 = a1 + 0x521\n  4578: a2 = u64 [s1 + 0x98]\n  4582: u64 [a4 + 0xc0] = a2\n  4586: ra = 124, jump @19\n      : @162 [@dyn 62] (gas: 30)\n  4591: a1 = u64 [s1 + 0x48]\n  4594: a0 = a1 + 0x20\n  4597: u64 [s1 + 0x78] = a0\n  4600: a0 = a0 <u a1\n  4603: a2 = u64 [s1 + 0xe8]\n  4607: a1 = a2 + a0\n  4610: u64 [s1 + 0x70] = a1\n  4613: a1 = a1 <u a2\n  4616: a1 = a0 if a0 == 0\n  4619: a0 = u64 [s1 + 0xf0]\n  4623: a1 = a1 + a0\n  4626: u64 [s1 + 0x68] = a1\n  4629: a0 = a1 <u a0\n  4632: u64 [s1 + 0xf0] = a0\n  4636: a0 = u64 [s1 + 0x60]\n  4639: a1 = s1 + 0x7ff\n  4643: a1 = a1 + 0x79\n  4646: a2 = a1 + 0x400\n  4650: u64 [a2 + 0xa0] = a0\n  4654: a0 = u64 [s1 + 0xa0]\n  4658: u64 [a2 + 0x98] = a0\n  4662: a0 = u64 [s1 + 0xa8]\n  4666: u64 [a2 + 0x90] = a0\n  4670: a2 = a1\n  4672: a1 = s1 + 0x7ff\n  4676: a1 = a1 + 0x501\n  4680: a0 = u64 [s1 + 0xb0]\n  4684: u64 [a2 + 0x488] = a0\n  4688: a0 = 0\n  4690: ra = 126, jump @19\n      : @163 [@dyn 63] (gas: 3)\n  4695: a2 = u64 [s1 + 0xc0]\n  4699: a0 = i32 [a2]\n  4701: jump @165 if a0 >u 31\n      : @164 (gas: 2)\n  4705: u32 [a2 + 0] = 0x20\n  4708: fallthrough\n      : @165 (gas: 37)\n  4709: a0 = u64 [s1 + 0xf8]\n  4713: a1 = u64 [s1 + 0xf0]\n  4717: a0 = a0 + a1\n  4720: u64 [s1 + 0x60] = a0\n  4723: a0 = sp + 0xffffffffffffffe0\n  4726: a0 = a0 & 0xffffffffffffffe0\n  4729: u64 [s1 + 0xf8] = a0\n  4733: sp = a0\n  4735: i32 a2 = a0 + 0\n  4737: a1 = 0x20\n  4740: a0 = u64 [s1 + 0xb8]\n  4744: ecalli 6 // 'hash_keccak_256'\n  4746: t0 = 0\n  4748: t1 = 0\n  4750: a5 = 0\n  4752: a3 = u64 [s1 + 0xf8]\n  4756: a0 = u64 [a3]\n  4758: a1 = u64 [a3 + 0x8]\n  4761: a2 = u64 [a3 + 0x10]\n  4764: a3 = u64 [a3 + 0x18]\n  4767: a0 = reverse a0\n  4769: u64 [s1 + 0xd0] = a0\n  4773: a0 = reverse a1\n  4775: u64 [s1 + 0xc8] = a0\n  4779: ra = reverse a2\n  4781: a0 = reverse a3\n  4783: a3 = 0\n  4785: u64 [s1 + 0xd8] = a0\n  4789: a0 = u64 [s1 + 0x78]\n  4792: u64 [s1 + 0xe8] = a0\n  4796: a0 = u64 [s1 + 0x70]\n  4799: u64 [s1 + 0xe0] = a0\n  4803: a0 = u64 [s1 + 0x68]\n  4806: u64 [s1 + 0xf0] = a0\n  4810: a0 = u64 [s1 + 0x60]\n  4813: u64 [s1 + 0xf8] = a0\n  4817: fallthrough\n      : @166 (gas: 20)\n  4818: a0 = u64 [s1 + 0x80]\n  4822: a0 = t0 <u a0\n  4825: a2 = u64 [s1 + 0x88]\n  4829: a1 = t1 ^ a2\n  4832: a2 = t1 <u a2\n  4835: a2 = a0 if a1 == 0\n  4838: a4 = u64 [s1 + 0x90]\n  4842: t2 = a3 <u a4\n  4845: a0 = a3\n  4847: a3 = u64 [s1 + 0x98]\n  4851: a1 = a5 ^ a3\n  4854: a3 = a5 <u a3\n  4857: a3 = t2 if a1 == 0\n  4860: u64 [s1 + 0xc0] = a0\n  4864: a0 = a0 ^ a4\n  4867: a0 = a0 | a1\n  4870: a3 = a2 if a0 == 0\n  4873: a2 = s1 + 0x7ff\n  4877: a2 = a2 + 0x79\n  4880: jump @168 if a3 != 0\n      : @167 (gas: 1)\n  4883: jump @593\n      : @168 (gas: 17)\n  4886: u64 [s1 + 0xa8] = a5\n  4890: u64 [s1 + 0xb0] = t1\n  4894: u64 [s1 + 0xb8] = t0\n  4898: a0 = u64 [s1 + 0xd8]\n  4902: a4 = a2 + 0x300\n  4906: u64 [a4 + 0x28] = a0\n  4909: u64 [a2 + 0x330] = ra\n  4913: a0 = u64 [s1 + 0xc8]\n  4917: u64 [a4 + 0x38] = a0\n  4920: a0 = s1 + 0x7ff\n  4924: a0 = a0 + 0x3c1\n  4928: a1 = s1 + 0x7ff\n  4932: a1 = a1 + 0x3a1\n  4936: a3 = u64 [s1 + 0xd0]\n  4940: u64 [a4 + 0x40] = a3\n  4943: u64 [s1 + 0xa0] = ra\n  4947: ra = 128, jump @857\n      : @169 [@dyn 64] (gas: 12)\n  4953: a2 = u64 [s1 + 0xf0]\n  4957: a0 = u64 [s1 + 0xe8]\n  4961: a4 = a0 | a2\n  4964: a3 = u64 [s1 + 0xf8]\n  4968: a5 = u64 [s1 + 0xe0]\n  4972: a1 = a5 | a3\n  4975: a4 = a4 | a1\n  4978: a4 = a4 >> 0x20\n  4981: a1 = a1 | a2\n  4984: a1 = a1 << 0x20\n  4987: a1 = a1 | a4\n  4990: jump @171 if a1 == 0\n      : @170 (gas: 1)\n  4993: jump @609\n      : @171 (gas: 17)\n  4996: a4 = s1 + 0x7ff\n  5000: a4 = a4 + 0x79\n  5003: t0 = u64 [a4 + 0x360]\n  5007: a1 = u64 [a4 + 0x358]\n  5011: u64 [s1 + 0xf0] = a2\n  5015: a2 = u64 [a4 + 0x350]\n  5019: u64 [s1 + 0xf8] = a3\n  5023: a3 = u64 [a4 + 0x348]\n  5027: u64 [a4 + 0x308] = a3\n  5031: u64 [a4 + 0x310] = a2\n  5035: u64 [a4 + 0x318] = a1\n  5039: a1 = s1 + 0x7ff\n  5043: a1 = a1 + 0x381\n  5047: u64 [a4 + 0x320] = t0\n  5051: u64 [s1 + 0xe8] = a0\n  5055: u64 [s1 + 0xe0] = a5\n  5059: ra = 130, jump @19\n      : @172 [@dyn 65] (gas: 45)\n  5065: a0 = u64 [s1 + 0xe8]\n  5069: t2 = a0 + 0x20\n  5072: a2 = t2 <u a0\n  5075: a0 = u64 [s1 + 0xe0]\n  5079: a1 = a0 + a2\n  5082: a3 = a1 <u a0\n  5085: a3 = a2 if a2 == 0\n  5088: a0 = u64 [s1 + 0xf0]\n  5092: a2 = a0 + a3\n  5095: a3 = a2 <u a0\n  5098: a0 = u64 [s1 + 0xf8]\n  5102: a0 = a0 + a3\n  5105: u64 [s1 + 0xf8] = a0\n  5109: a0 = u64 [s1 + 0xd8]\n  5113: a0 = a0 + 0x1\n  5116: a3 = a0 <u 0x1\n  5119: ra = u64 [s1 + 0xa0]\n  5123: ra = ra + a3\n  5126: u64 [s1 + 0xd8] = a0\n  5130: a3 = a0 | ra\n  5133: a3 = a3 <u 0x1\n  5136: a0 = u64 [s1 + 0xc8]\n  5140: a3 = a3 + a0\n  5143: a4 = a3 <u a0\n  5146: a0 = u64 [s1 + 0xd0]\n  5150: a0 = a0 + a4\n  5153: u64 [s1 + 0xd0] = a0\n  5157: t0 = u64 [s1 + 0xb8]\n  5161: t0 = t0 + 0x1\n  5164: a4 = t0 <u 0x1\n  5167: t1 = u64 [s1 + 0xb0]\n  5171: t1 = t1 + a4\n  5174: a4 = t0 | t1\n  5177: a4 = a4 <u 0x1\n  5180: a0 = u64 [s1 + 0xc0]\n  5184: a4 = a4 + a0\n  5187: a5 = a4 <u a0\n  5190: a0 = u64 [s1 + 0xa8]\n  5194: a5 = a5 + a0\n  5197: u64 [s1 + 0xe8] = t2\n  5201: u64 [s1 + 0xe0] = a1\n  5205: u64 [s1 + 0xf0] = a2\n  5209: u64 [s1 + 0xc8] = a3\n  5213: a3 = a4\n  5215: jump @166\n      : @173 (gas: 10)\n  5218: u64 [a2 + 832] = 0\n  5222: u64 [a2 + 824] = 0\n  5226: u64 [a2 + 816] = 0\n  5230: u64 [a2 + 808] = 0\n  5234: a0 = s1 + 0x2000\n  5238: i32 a0 = a0 + 0x3a0\n  5242: ra = 0x84\n  5246: ecalli 11 // 'value_transferred'\n  5248: t0 = 0x86\n  5252: jump @1045\n      : @174 [@dyn 66] (gas: 1)\n  5255: t0 = 134, jump @1045\n      : @175 [@dyn 67] (gas: 1)\n  5261: t0 = 136, jump @1044\n      : @176 [@dyn 68] (gas: 1)\n  5267: jump @178 if a0 == 0\n      : @177 (gas: 1)\n  5270: jump @748\n      : @178 (gas: 15)\n  5273: a0 = u64 [s1 + 0xf8]\n  5277: a0 = u32 [a0]\n  5279: a2 = s1 + 0x7ff\n  5283: a2 = a2 + 0x79\n  5286: u64 [a2 + 704] = 0\n  5290: u64 [a2 + 696] = 0\n  5294: u64 [a2 + 0x2a8] = a0\n  5298: a0 = s1 + 0x7ff\n  5302: a0 = a0 + 0x341\n  5306: a1 = s1 + 0x7ff\n  5310: a1 = a1 + 0x321\n  5314: u64 [a2 + 688] = 0\n  5318: ra = 0x8a\n  5322: t0 = 0x37c\n  5326: jump @1046\n      : @179 [@dyn 69] (gas: 21)\n  5329: a1 = s1 + 0x7ff\n  5333: a1 = a1 + 0x79\n  5336: a2 = a1 + 0x200\n  5340: a0 = u64 [a2 + 0xf8]\n  5344: u64 [s1 + 0xb8] = a0\n  5348: a0 = u64 [a2 + 0xf0]\n  5352: u64 [s1 + 0xa8] = a0\n  5356: a0 = u64 [a2 + 0xe8]\n  5360: u64 [s1 + 0xb0] = a0\n  5364: a0 = u64 [a2 + 0xe0]\n  5368: u64 [s1 + 0xf0] = a0\n  5372: a0 = u64 [a2 + 0xd8]\n  5376: u64 [s1 + 0xe8] = a0\n  5380: a0 = u64 [a2 + 0xd0]\n  5384: u64 [s1 + 0xf8] = a0\n  5388: a0 = u64 [a2 + 0xc8]\n  5392: u64 [s1 + 0xe0] = a0\n  5396: a0 = s1 + 0x7ff\n  5400: a0 = a0 + 0x301\n  5404: a1 = 0x40\n  5407: ra = 140, jump @17\n      : @180 [@dyn 70] (gas: 1)\n  5413: t0 = 142, jump @1018\n      : @181 [@dyn 71] (gas: 1)\n  5419: jump @183 if a0 == 0\n      : @182 (gas: 1)\n  5422: jump @609\n      : @183 (gas: 14)\n  5425: a0 = s1 + 0x7ff\n  5429: a0 = a0 + 0x79\n  5432: a3 = a0 + 0x200\n  5436: a2 = u64 [a3 + 0xa0]\n  5440: u64 [s1 + 0xd0] = a2\n  5444: a2 = u64 [a3 + 0x98]\n  5448: u64 [s1 + 0xc8] = a2\n  5452: a2 = u64 [a3 + 0x90]\n  5456: u64 [s1 + 0xc0] = a2\n  5460: a0 = u64 [a3 + 0x88]\n  5464: u64 [s1 + 0xd8] = a0\n  5468: a0 = s1 + 0x7ff\n  5472: a0 = a0 + 0x2e1\n  5476: ra = 144, jump @17\n      : @184 [@dyn 72] (gas: 1)\n  5482: t0 = 146, jump @1016\n      : @185 [@dyn 73] (gas: 1)\n  5488: jump @187 if a0 == 0\n      : @186 (gas: 1)\n  5491: jump @609\n      : @187 (gas: 1)\n  5494: t0 = 148, jump @1015\n      : @188 [@dyn 74] (gas: 1)\n  5500: jump @190 if a1 != 0\n      : @189 (gas: 1)\n  5503: jump @609\n      : @190 (gas: 15)\n  5506: a0 = s1 + 0x7ff\n  5510: a0 = a0 + 0x79\n  5513: t0 = u64 [a0 + 0x280]\n  5517: a2 = a0 + 0x200\n  5521: a5 = u64 [a2 + 0x78]\n  5524: a1 = u64 [a2 + 0x68]\n  5527: a3 = u64 [a2 + 0x70]\n  5530: a0 = a1 | a5\n  5533: a2 = a3 | t0\n  5536: a0 = a0 | a2\n  5539: a0 = a0 >> 0x20\n  5542: a2 = a2 | a5\n  5545: a2 = a2 << 0x20\n  5548: a0 = a0 | a2\n  5551: jump @192 if a0 == 0\n      : @191 (gas: 1)\n  5554: jump @609\n      : @192 (gas: 8)\n  5557: i32 a0 = a4 + 0x20\n  5560: u64 [s1 + 0xe0] = a0\n  5564: a0 = u64 [s1 + 0xd8]\n  5568: u64 [s1 + 0xf8] = a1\n  5572: u64 [s1 + 0xf0] = a3\n  5576: u64 [s1 + 0xe8] = t0\n  5580: u64 [s1 + 0xa0] = a5\n  5584: ra = 150, jump @29\n      : @193 [@dyn 75] (gas: 4)\n  5590: u64 [s1 + 0x98] = a0\n  5594: a0 = u64 [s1 + 0xe0]\n  5598: a1 = u64 [s1 + 0xf8]\n  5602: ra = 152, jump @29\n      : @194 [@dyn 76] (gas: 4)\n  5608: a1 = a0\n  5610: a0 = u64 [s1 + 0x98]\n  5614: a2 = u64 [s1 + 0xf8]\n  5618: ra = 154, jump @0\n      : @195 [@dyn 77] (gas: 13)\n  5624: t2 = u64 [s1 + 0xa0]\n  5628: t1 = u64 [s1 + 0xe8]\n  5632: t0 = u64 [s1 + 0xf0]\n  5636: a0 = u64 [s1 + 0xd8]\n  5640: a1 = u64 [s1 + 0xf8]\n  5644: a0 = a0 + a1\n  5647: a1 = a0 <u a1\n  5650: a2 = u64 [s1 + 0xc0]\n  5654: a2 = a2 + t0\n  5657: a2 = a2 + a1\n  5660: a3 = a2 ^ t0\n  5663: a4 = a2 <u t0\n  5666: t0 = 156, jump @1013\n      : @196 [@dyn 78] (gas: 1)\n  5672: jump @198 if a1 == 0\n      : @197 (gas: 1)\n  5675: jump @609\n      : @198 (gas: 9)\n  5678: a2 = s1 + 0x7ff\n  5682: a2 = a2 + 0x79\n  5685: u64 [a2 + 608] = 0\n  5689: u64 [a2 + 600] = 0\n  5693: u64 [a2 + 592] = 0\n  5697: a1 = s1 + 0x7ff\n  5701: a1 = a1 + 0x2c1\n  5705: u64 [a2 + 584] = 0\n  5709: ra = 158, jump @19\n      : @199 [@dyn 79] (gas: 3)\n  5715: a0 = u64 [s1 + 0xe8]\n  5719: a1 = u64 [s1 + 0xa0]\n  5723: t0 = 160, jump @1039\n      : @200 [@dyn 80] (gas: 1)\n  5729: jump @202 if a1 != 0\n      : @201 (gas: 1)\n  5732: jump @609\n      : @202 (gas: 4)\n  5735: i32 a1 = a2 + 0x20\n  5738: u64 [s1 + 0xf8] = a1\n  5742: a0 = u64 [s1 + 0xd8]\n  5746: ra = 162, jump @29\n      : @203 [@dyn 81] (gas: 1)\n  5752: t0 = 164, jump @1031\n      : @204 [@dyn 82] (gas: 3)\n  5758: ra = 0xa6\n  5762: ecalli 6 // 'hash_keccak_256'\n  5764: fallthrough\n      : @205 [@dyn 83] (gas: 11)\n  5765: a3 = u64 [s1 + 0xf0]\n  5769: a0 = u64 [a3]\n  5771: a1 = u64 [a3 + 0x8]\n  5774: a2 = u64 [a3 + 0x10]\n  5777: a3 = u64 [a3 + 0x18]\n  5780: a0 = reverse a0\n  5782: a1 = reverse a1\n  5784: a2 = reverse a2\n  5786: a3 = reverse a3\n  5788: a4 = a3 + 0x2\n  5791: t0 = 168, jump @1042\n      : @206 [@dyn 84] (gas: 11)\n  5797: a0 = a0 + a1\n  5800: a1 = s1 + 0x2078\n  5804: a3 = a1 + 0x300\n  5808: u64 [a3 + 0x48] = a4\n  5811: u64 [a3 + 0x50] = a5\n  5814: u64 [a3 + 0x58] = a2\n  5817: u64 [a3 + 0x60] = a0\n  5820: a0 = s1 + 0x7ff\n  5824: a0 = a0 + 0x2a1\n  5828: a1 = s1 + 0x23c0\n  5832: ra = 170, jump @21\n      : @207 [@dyn 85] (gas: 13)\n  5838: a1 = s1 + 0x7ff\n  5842: a1 = a1 + 0x79\n  5845: a2 = a1 + 0x200\n  5849: a0 = u64 [a2 + 0x38]\n  5852: u64 [s1 + 0xf8] = a0\n  5856: a0 = u64 [a2 + 0x30]\n  5859: u64 [s1 + 0xe8] = a0\n  5863: a0 = u64 [a2 + 0x28]\n  5866: u64 [s1 + 0xf0] = a0\n  5870: a0 = s1 + 0x7ff\n  5874: a0 = a0 + 0x281\n  5878: a1 = 0x40\n  5881: ra = 172, jump @17\n      : @208 [@dyn 86] (gas: 15)\n  5887: a3 = s1 + 0x7ff\n  5891: a3 = a3 + 0x79\n  5894: a5 = a3 + 0x200\n  5898: a0 = u64 [a5 + 0x20]\n  5901: a1 = u64 [a5 + 0x18]\n  5904: a2 = u64 [a5 + 0x10]\n  5907: a4 = u64 [a5 + 0x8]\n  5910: a0 = a0 | a2\n  5913: a2 = a4 | a1\n  5916: a2 = a2 | a0\n  5919: a2 = a2 >> 0x20\n  5922: a0 = a0 | a1\n  5925: a0 = a0 << 0x20\n  5928: a0 = a0 | a2\n  5931: jump @210 if a0 == 0\n      : @209 (gas: 1)\n  5934: jump @609\n      : @210 (gas: 21)\n  5937: a0 = u64 [s1 + 0xa8]\n  5941: a1 = u64 [s1 + 0xe8]\n  5945: a0 = a0 ^ a1\n  5948: a1 = u64 [s1 + 0xb0]\n  5952: a2 = u64 [s1 + 0xf0]\n  5956: a1 = a1 ^ a2\n  5959: a2 = u64 [s1 + 0xb8]\n  5963: a5 = u64 [s1 + 0xf8]\n  5967: a2 = a2 ^ a5\n  5970: a2 = a2 << 0x20\n  5973: a2 = a2 >> 0x20\n  5976: a0 = a0 | a1\n  5979: a0 = a0 | a2\n  5982: a0 = a0 <u 0x1\n  5985: u64 [a3 + 512] = 0\n  5989: u64 [a3 + 504] = 0\n  5993: u64 [a3 + 0x1e8] = a0\n  5997: a1 = s1 + 0x7ff\n  6001: a1 = a1 + 0x261\n  6005: u64 [a3 + 496] = 0\n  6009: jump @75\n      : @211 (gas: 8)\n  6012: u64 [a2 + 1312] = 0\n  6016: u64 [a2 + 1304] = 0\n  6020: u64 [a2 + 1296] = 0\n  6024: u64 [a2 + 1288] = 0\n  6028: a0 = s1 + 0x2000\n  6032: i32 a0 = a0 + 0x580\n  6036: ecalli 11 // 'value_transferred'\n  6038: fallthrough\n      : @212 (gas: 10)\n  6039: a3 = s1 + 0x2078\n  6043: a4 = a3 + 0x500\n  6047: a0 = u64 [a4 + 0x18]\n  6050: a1 = u64 [a4 + 0x20]\n  6053: a2 = u64 [a4 + 0x10]\n  6056: a3 = u64 [a4 + 0x8]\n  6059: a1 = a1 | a2\n  6062: a0 = a0 | a3\n  6065: a0 = a0 | a1\n  6068: jump @214 if a0 == 0\n      : @213 (gas: 1)\n  6071: jump @749\n      : @214 (gas: 12)\n  6074: a0 = u64 [s1 + 0xf8]\n  6078: a0 = u32 [a0]\n  6080: a2 = s1 + 0x1878\n  6084: u64 [a2 + 928] = 0\n  6088: u64 [a2 + 920] = 0\n  6092: u64 [a2 + 0x388] = a0\n  6096: a0 = s1 + 0x1c20\n  6100: a1 = s1 + 0x1c00\n  6104: u64 [a2 + 912] = 0\n  6108: ra = 0xae\n  6112: t0 = 0x37c\n  6116: jump @1046\n      : @215 [@dyn 87] (gas: 3)\n  6119: t0 = 0xb0\n  6123: a1 = s1 + 0x1878\n  6127: fallthrough\n      : @216 [@dyn 88] (gas: 18)\n  6128: a2 = a1 + 0x300\n  6132: a0 = u64 [a2 + 0xd8]\n  6136: u64 [s1 + 0xa8] = a0\n  6140: a0 = u64 [a2 + 0xd0]\n  6144: u64 [s1 + 0xb0] = a0\n  6148: a0 = u64 [a2 + 0xc8]\n  6152: u64 [s1 + 0xb8] = a0\n  6156: a0 = u64 [a2 + 0xb8]\n  6160: u64 [s1 + 0xf0] = a0\n  6164: a0 = u64 [a2 + 0xa8]\n  6168: u64 [s1 + 0xf8] = a0\n  6172: a0 = u64 [a2 + 0xc0]\n  6176: u64 [s1 + 0xe0] = a0\n  6180: a0 = u64 [a2 + 0xb0]\n  6184: u64 [s1 + 0xe8] = a0\n  6188: a0 = s1 + 0x1be0\n  6192: a1 = 0x40\n  6195: ra = 178, jump @17\n      : @217 [@dyn 89] (gas: 12)\n  6201: a1 = u64 [s1 + 0xf8]\n  6205: a0 = u64 [s1 + 0xe0]\n  6209: a2 = u64 [s1 + 0xe8]\n  6213: a0 = a0 | a2\n  6216: a3 = u64 [s1 + 0xf0]\n  6220: a2 = a1 | a3\n  6223: a2 = a2 | a0\n  6226: a2 = a2 >> 0x20\n  6229: a0 = a0 | a3\n  6232: a0 = a0 << 0x20\n  6235: a0 = a0 | a2\n  6238: jump @219 if a0 == 0\n      : @218 (gas: 1)\n  6241: jump @609\n      : @219 (gas: 12)\n  6244: a0 = s1 + 0x1878\n  6248: a3 = a0 + 0x300\n  6252: a2 = u64 [a3 + 0x80]\n  6256: u64 [s1 + 0xd0] = a2\n  6260: a2 = u64 [a3 + 0x78]\n  6263: u64 [s1 + 0xc8] = a2\n  6267: a2 = u64 [a3 + 0x70]\n  6270: u64 [s1 + 0xc0] = a2\n  6274: a0 = u64 [a3 + 0x68]\n  6277: u64 [s1 + 0xd8] = a0\n  6281: a0 = s1 + 0x1bc0\n  6285: ra = 180, jump @17\n      : @220 [@dyn 90] (gas: 1)\n  6291: t0 = 182, jump @1016\n      : @221 [@dyn 91] (gas: 1)\n  6297: jump @223 if a0 == 0\n      : @222 (gas: 1)\n  6300: jump @609\n      : @223 (gas: 10)\n  6303: a0 = u64 [s1 + 0xf0]\n  6307: a1 = u64 [s1 + 0xe0]\n  6311: a0 = a0 | a1\n  6314: a1 = 0xffffffe0\n  6324: a3 = u64 [s1 + 0xf8]\n  6328: a1 = a3 <u a1\n  6331: a2 = u64 [s1 + 0xe8]\n  6335: a1 = 0 if a2 != 0\n  6337: a1 = 0 if a0 != 0\n  6339: jump @225 if a1 != 0\n      : @224 (gas: 1)\n  6342: jump @609\n      : @225 (gas: 15)\n  6345: a2 = a3\n  6347: a0 = s1 + 0x1878\n  6351: t0 = u64 [a0 + 0x360]\n  6355: a3 = a0 + 0x300\n  6359: a5 = u64 [a3 + 0x58]\n  6362: a1 = u64 [a3 + 0x48]\n  6365: a4 = u64 [a3 + 0x50]\n  6368: a0 = a1 | a5\n  6371: a3 = a4 | t0\n  6374: a0 = a0 | a3\n  6377: a0 = a0 >> 0x20\n  6380: a3 = a3 | a5\n  6383: a3 = a3 << 0x20\n  6386: a0 = a0 | a3\n  6389: jump @227 if a0 == 0\n      : @226 (gas: 1)\n  6392: jump @609\n      : @227 (gas: 8)\n  6395: i32 a0 = a2 + 0x20\n  6398: u64 [s1 + 0x80] = a0\n  6402: a0 = u64 [s1 + 0xd8]\n  6406: u64 [s1 + 0xa0] = a1\n  6410: u64 [s1 + 0x98] = a4\n  6414: u64 [s1 + 0x90] = t0\n  6418: u64 [s1 + 0x88] = a5\n  6422: ra = 184, jump @29\n      : @228 [@dyn 92] (gas: 4)\n  6428: u64 [s1 + 0x78] = a0\n  6431: a0 = u64 [s1 + 0x80]\n  6435: a1 = u64 [s1 + 0xa0]\n  6439: ra = 186, jump @29\n      : @229 [@dyn 93] (gas: 4)\n  6445: a1 = a0\n  6447: a0 = u64 [s1 + 0x78]\n  6450: a2 = u64 [s1 + 0xa0]\n  6454: ra = 188, jump @0\n      : @230 [@dyn 94] (gas: 13)\n  6460: t2 = u64 [s1 + 0x88]\n  6464: t1 = u64 [s1 + 0x90]\n  6468: t0 = u64 [s1 + 0x98]\n  6472: a0 = u64 [s1 + 0xd8]\n  6476: a1 = u64 [s1 + 0xa0]\n  6480: a0 = a0 + a1\n  6483: a1 = a0 <u a1\n  6486: a2 = u64 [s1 + 0xc0]\n  6490: a2 = a2 + t0\n  6493: a2 = a2 + a1\n  6496: a3 = a2 ^ t0\n  6499: a4 = a2 <u t0\n  6502: t0 = 190, jump @1013\n      : @231 [@dyn 95] (gas: 1)\n  6508: jump @233 if a1 == 0\n      : @232 (gas: 1)\n  6511: jump @609\n      : @233 (gas: 3)\n  6514: t0 = 0xc0\n  6518: a2 = s1 + 0x1878\n  6522: fallthrough\n      : @234 [@dyn 96] (gas: 6)\n  6523: u64 [a2 + 832] = 0\n  6527: u64 [a2 + 824] = 0\n  6531: u64 [a2 + 816] = 0\n  6535: a1 = s1 + 0x1ba0\n  6539: u64 [a2 + 808] = 0\n  6543: ra = 194, jump @19\n      : @235 [@dyn 97] (gas: 13)\n  6549: a0 = sp + 0xffffffffffffffe0\n  6552: a3 = a0 & 0xffffffffffffffe0\n  6555: sp = a3\n  6557: a0 = u64 [s1 + 0x90]\n  6561: a1 = u64 [s1 + 0x88]\n  6565: a0 = a0 | a1\n  6568: a1 = 0xffffffe0\n  6578: a2 = u64 [s1 + 0xa0]\n  6582: a1 = a2 <u a1\n  6585: a4 = u64 [s1 + 0x98]\n  6589: a1 = 0 if a4 != 0\n  6591: a1 = 0 if a0 != 0\n  6593: jump @237 if a1 != 0\n      : @236 (gas: 1)\n  6596: jump @609\n      : @237 (gas: 5)\n  6599: i32 a1 = a2 + 0x20\n  6602: u64 [s1 + 0xd0] = a1\n  6606: a0 = u64 [s1 + 0xd8]\n  6610: u64 [s1 + 0xd8] = a3\n  6614: ra = 196, jump @29\n      : @238 [@dyn 98] (gas: 29)\n  6620: a1 = sp + 0xffffffffffffffe0\n  6623: a1 = a1 & 0xffffffffffffffe0\n  6626: u64 [s1 + 0xc8] = a1\n  6630: sp = a1\n  6632: i32 a0 = a0 + 0\n  6634: i32 a2 = a1 + 0\n  6636: a1 = u64 [s1 + 0xd0]\n  6640: ecalli 6 // 'hash_keccak_256'\n  6642: a3 = u64 [s1 + 0xc8]\n  6646: a0 = u64 [a3 + 0x18]\n  6649: a1 = u64 [a3 + 0x10]\n  6652: a2 = u64 [a3 + 0x8]\n  6655: a3 = u64 [a3]\n  6657: a5 = reverse a0\n  6659: a4 = reverse a1\n  6661: a0 = reverse a2\n  6663: a1 = reverse a3\n  6665: u64 [s1 + 0xc8] = a1\n  6669: a2 = u64 [s1 + 0xd8]\n  6673: u64 [a2 + 0x18] = a1\n  6676: u64 [s1 + 0xd0] = a0\n  6680: u64 [a2 + 0x10] = a0\n  6683: u64 [s1 + 0xc0] = a4\n  6687: u64 [a2 + 0x8] = a4\n  6690: u64 [s1 + 0xa0] = a5\n  6694: u64 [a2] = a5\n  6696: a1 = a2\n  6698: a0 = s1 + 0x1b80\n  6702: ra = 198, jump @21\n      : @239 [@dyn 99] (gas: 14)\n  6708: a4 = s1 + 0x1878\n  6712: a5 = a4 + 0x300\n  6716: a2 = u64 [a5 + 0x8]\n  6719: a0 = u64 [a5 + 0x10]\n  6722: a1 = u64 [a5 + 0x18]\n  6725: a3 = u64 [a5 + 0x20]\n  6728: a5 = a4 + 0x200\n  6732: u64 [a5 + 0xe0] = a3\n  6736: u64 [a5 + 0xd8] = a1\n  6740: u64 [a5 + 0xd0] = a0\n  6744: a0 = s1 + 0x1b60\n  6748: a1 = s1 + 0x1b40\n  6752: u64 [a5 + 0xc8] = a2\n  6756: ra = 200, jump @848\n      : @240 [@dyn 100] (gas: 10)\n  6762: a3 = s1 + 0x1878\n  6766: a4 = a3 + 0x200\n  6770: a0 = u64 [a4 + 0xf8]\n  6774: a1 = u64 [a3 + 0x300]\n  6778: a2 = u64 [a4 + 0xf0]\n  6782: a3 = u64 [a4 + 0xe8]\n  6786: a1 = a1 | a2\n  6789: a0 = a0 | a3\n  6792: a0 = a0 | a1\n  6795: jump @242 if a0 == 0\n      : @241 (gas: 1)\n  6798: jump @610\n      : @242 (gas: 3)\n  6801: a0 = s1 + 0x1580\n  6805: a1 = 0x40\n  6808: ra = 202, jump @17\n      : @243 [@dyn 101] (gas: 16)\n  6814: a2 = s1 + 0x1078\n  6818: a5 = a2 + 0x500\n  6822: a3 = u64 [a5 + 0x20]\n  6825: a4 = u64 [a5 + 0x18]\n  6828: a0 = u64 [a5 + 0x10]\n  6831: a1 = u64 [a5 + 0x8]\n  6834: u64 [s1 + 0xf0] = a0\n  6838: a0 = a0 | a3\n  6841: u64 [s1 + 0xf8] = a1\n  6845: a1 = a1 | a4\n  6848: a1 = a1 | a0\n  6851: a1 = a1 >> 0x20\n  6854: a0 = a0 | a4\n  6857: a0 = a0 << 0x20\n  6860: a0 = a0 | a1\n  6863: jump @245 if a0 == 0\n      : @244 (gas: 1)\n  6866: jump @609\n      : @245 (gas: 10)\n  6869: u64 [a2 + 1272] = 0\n  6873: u64 [a2 + 1264] = 0\n  6877: u64 [a2 + 1256] = 0\n  6881: a0 = 0x8c379a000000000\n  6891: a1 = s1 + 0x1560\n  6895: u64 [a2 + 0x500] = a0\n  6899: a0 = u64 [s1 + 0xf8]\n  6903: u64 [s1 + 0xe8] = a3\n  6907: u64 [s1 + 0xe0] = a4\n  6911: ra = 204, jump @19\n      : @246 [@dyn 102] (gas: 12)\n  6917: a0 = u64 [s1 + 0xe8]\n  6921: a2 = u64 [s1 + 0xe0]\n  6925: a2 = a2 | a0\n  6928: a3 = 0x100000000\n  6938: a0 = 0xfffffffc\n  6948: a1 = u64 [s1 + 0xf8]\n  6952: a0 = a1 <u a0\n  6955: a1 = u64 [s1 + 0xf0]\n  6959: a0 = 0 if a1 != 0\n  6961: u64 [s1 + 0xe8] = a2\n  6965: a0 = 0 if a2 != 0\n  6967: jump @248 if a0 != 0\n      : @247 (gas: 1)\n  6970: jump @609\n      : @248 (gas: 10)\n  6973: a0 = u64 [s1 + 0xf8]\n  6977: i32 a0 = a0 + 0x4\n  6980: a2 = s1 + 0x1078\n  6984: u64 [a2 + 1248] = 0\n  6988: u64 [a2 + 1240] = 0\n  6992: u64 [a2 + 1224] = 0x20\n  6997: a1 = s1 + 0x1540\n  7001: u64 [a2 + 1232] = 0\n  7005: u64 [s1 + 0xe0] = a3\n  7009: ra = 206, jump @19\n      : @249 [@dyn 103] (gas: 3)\n  7015: a0 = u64 [s1 + 0xe0]\n  7019: a0 = a0 + 0xffffffffffffffdc\n  7022: t0 = 208, jump @1020\n      : @250 [@dyn 104] (gas: 1)\n  7028: jump @252 if a0 != 0\n      : @251 (gas: 1)\n  7031: jump @609\n      : @252 (gas: 9)\n  7034: a0 = u64 [s1 + 0xf8]\n  7038: i32 a0 = a0 + 0x24\n  7041: a2 = s1 + 0x1078\n  7045: u64 [a2 + 1216] = 0\n  7049: u64 [a2 + 1208] = 0\n  7053: u64 [a2 + 1192] = 0xe\n  7058: a1 = s1 + 0x1520\n  7062: u64 [a2 + 1200] = 0\n  7066: ra = 210, jump @19\n      : @253 [@dyn 105] (gas: 2)\n  7072: a0 = 0xffffffbc\n  7082: t0 = 212, jump @1020\n      : @254 [@dyn 106] (gas: 1)\n  7088: jump @256 if a0 != 0\n      : @255 (gas: 1)\n  7091: jump @609\n      : @256 (gas: 12)\n  7094: a0 = u64 [s1 + 0xf8]\n  7098: i32 a0 = a0 + 0x44\n  7101: a1 = u64 [0x20040]\n  7106: a2 = s1 + 0x1078\n  7110: u64 [a2 + 1168] = 0\n  7114: u64 [a2 + 0x4a0] = a1\n  7118: a1 = 0x20666f756e640000\n  7128: u64 [a2 + 0x498] = a1\n  7132: a1 = s1 + 0x1500\n  7136: u64 [a2 + 1160] = 0\n  7140: ra = 0x286\n  7144: jump @19\n      : @257 (gas: 1)\n  7147: jump @259 if a0 == 2066532988\n      : @258 (gas: 1)\n  7154: jump @738\n      : @259 (gas: 10)\n  7157: u64 [a2 + 1024] = 0\n  7161: u64 [a2 + 1016] = 0\n  7165: u64 [a2 + 1008] = 0\n  7169: u64 [a2 + 1000] = 0\n  7173: a0 = s1 + 0x2000\n  7177: i32 a0 = a0 + 0x460\n  7181: ra = 0xd6\n  7185: ecalli 11 // 'value_transferred'\n  7187: t0 = 0xd8\n  7191: jump @1045\n      : @260 [@dyn 107] (gas: 1)\n  7194: t0 = 216, jump @1045\n      : @261 [@dyn 108] (gas: 8)\n  7200: a0 = u64 [a4 + 0xf8]\n  7204: a1 = u64 [a3 + 0x400]\n  7208: a2 = u64 [a4 + 0xf0]\n  7212: a3 = u64 [a4 + 0xe8]\n  7216: a1 = a1 | a2\n  7219: a0 = a0 | a3\n  7222: a0 = a0 | a1\n  7225: jump @263 if a0 == 0\n      : @262 (gas: 1)\n  7228: jump @750\n      : @263 (gas: 3)\n  7231: a0 = u64 [s1 + 0xf8]\n  7235: a0 = i32 [a0]\n  7237: jump @265 if a0 >u 35\n      : @264 (gas: 1)\n  7241: jump @751\n      : @265 (gas: 6)\n  7244: a0 = s1 + 0x2000\n  7248: i32 a0 = a0 + 0x480\n  7252: a1 = 0x4\n  7255: ra = 0xda\n  7259: ecalli 1 // 'call_data_load'\n  7261: fallthrough\n      : @266 [@dyn 109] (gas: 6)\n  7262: a5 = s1 + 0x2078\n  7266: a3 = a5 + 0x400\n  7270: a0 = u64 [a3 + 0x20]\n  7273: a1 = u64 [a3 + 0x18]\n  7276: a2 = u64 [a3 + 0x10]\n  7279: t0 = 220, jump @1027\n      : @267 [@dyn 110] (gas: 1)\n  7285: jump @269 if a4 != 0\n      : @268 (gas: 1)\n  7288: jump @752\n      : @269 (gas: 26)\n  7291: a3 = u64 [a5 + 0x408]\n  7295: a4 = u64 [s1 + 0xf8]\n  7299: t0 = u32 [a4]\n  7301: a5 = a3 + 0x4\n  7304: a3 = a5 <u a3\n  7307: a4 = a2 + a3\n  7310: a2 = a4 <u a2\n  7313: a2 = a3 if a3 == 0\n  7316: a2 = a2 + a1\n  7319: a1 = a2 <u a1\n  7322: a3 = a0 + a1\n  7325: a0 = s1 + 0x1078\n  7329: u64 [a0 + 512] = 0\n  7333: u64 [a0 + 504] = 0\n  7337: u64 [a0 + 496] = 0\n  7341: u64 [a0 + 0x1e8] = t0\n  7345: a1 = a0 + 0x200\n  7349: u64 [a1 + 0x8] = a5\n  7352: u64 [a1 + 0x10] = a4\n  7355: u64 [a1 + 0x18] = a2\n  7358: a4 = a0\n  7360: a0 = s1 + 0x12a0\n  7364: a1 = s1 + 0x1280\n  7368: a2 = s1 + 0x1260\n  7372: u64 [a4 + 0x220] = a3\n  7376: ra = 222, jump @820\n      : @270 [@dyn 111] (gas: 13)\n  7382: a0 = s1 + 0x1078\n  7386: a2 = a0 + 0x200\n  7390: a1 = u64 [a2 + 0x40]\n  7393: u64 [s1 + 0xf0] = a1\n  7397: a1 = u64 [a2 + 0x38]\n  7400: u64 [s1 + 0xe8] = a1\n  7404: a1 = u64 [a2 + 0x30]\n  7407: u64 [s1 + 0xf8] = a1\n  7411: a0 = u64 [a2 + 0x28]\n  7414: u64 [s1 + 0xe0] = a0\n  7418: a0 = s1 + 0x1240\n  7422: a1 = 0x40\n  7425: ra = 224, jump @17\n      : @271 [@dyn 112] (gas: 1)\n  7431: t0 = 226, jump @1018\n      : @272 [@dyn 113] (gas: 1)\n  7437: jump @274 if a0 == 0\n      : @273 (gas: 1)\n  7440: jump @609\n      : @274 (gas: 12)\n  7443: a0 = s1 + 0x1078\n  7447: a3 = a0 + 0x100\n  7451: a2 = u64 [a3 + 0xe0]\n  7455: u64 [s1 + 0xd0] = a2\n  7459: a2 = u64 [a3 + 0xd8]\n  7463: u64 [s1 + 0xc8] = a2\n  7467: a2 = u64 [a3 + 0xd0]\n  7471: u64 [s1 + 0xc0] = a2\n  7475: a0 = u64 [a3 + 0xc8]\n  7479: u64 [s1 + 0xd8] = a0\n  7483: a0 = s1 + 0x1220\n  7487: ra = 228, jump @17\n      : @275 [@dyn 114] (gas: 1)\n  7493: t0 = 230, jump @1016\n      : @276 [@dyn 115] (gas: 1)\n  7499: jump @278 if a0 == 0\n      : @277 (gas: 1)\n  7502: jump @609\n      : @278 (gas: 1)\n  7505: t0 = 232, jump @1015\n      : @279 [@dyn 116] (gas: 1)\n  7511: jump @281 if a1 != 0\n      : @280 (gas: 1)\n  7514: jump @609\n      : @281 (gas: 14)\n  7517: a0 = s1 + 0x1078\n  7521: t0 = u64 [a0 + 0x1c0]\n  7525: a2 = a0 + 0x100\n  7529: a5 = u64 [a2 + 0xb8]\n  7533: a1 = u64 [a2 + 0xa8]\n  7537: a3 = u64 [a2 + 0xb0]\n  7541: a0 = a1 | a5\n  7544: a2 = a3 | t0\n  7547: a0 = a0 | a2\n  7550: a0 = a0 >> 0x20\n  7553: a2 = a2 | a5\n  7556: a2 = a2 << 0x20\n  7559: a0 = a0 | a2\n  7562: jump @283 if a0 == 0\n      : @282 (gas: 1)\n  7565: jump @609\n      : @283 (gas: 8)\n  7568: i32 a0 = a4 + 0x20\n  7571: u64 [s1 + 0xe0] = a0\n  7575: a0 = u64 [s1 + 0xd8]\n  7579: u64 [s1 + 0xf8] = a1\n  7583: u64 [s1 + 0xf0] = a3\n  7587: u64 [s1 + 0xe8] = t0\n  7591: u64 [s1 + 0xb8] = a5\n  7595: ra = 234, jump @29\n      : @284 [@dyn 117] (gas: 4)\n  7601: u64 [s1 + 0xb0] = a0\n  7605: a0 = u64 [s1 + 0xe0]\n  7609: a1 = u64 [s1 + 0xf8]\n  7613: ra = 236, jump @29\n      : @285 [@dyn 118] (gas: 4)\n  7619: a1 = a0\n  7621: a0 = u64 [s1 + 0xb0]\n  7625: a2 = u64 [s1 + 0xf8]\n  7629: ra = 238, jump @0\n      : @286 [@dyn 119] (gas: 13)\n  7635: t2 = u64 [s1 + 0xb8]\n  7639: t1 = u64 [s1 + 0xe8]\n  7643: t0 = u64 [s1 + 0xf0]\n  7647: a0 = u64 [s1 + 0xd8]\n  7651: a1 = u64 [s1 + 0xf8]\n  7655: a0 = a0 + a1\n  7658: a1 = a0 <u a1\n  7661: a2 = u64 [s1 + 0xc0]\n  7665: a2 = a2 + t0\n  7668: a2 = a2 + a1\n  7671: a3 = a2 ^ t0\n  7674: a4 = a2 <u t0\n  7677: t0 = 240, jump @1013\n      : @287 [@dyn 120] (gas: 1)\n  7683: jump @289 if a1 == 0\n      : @288 (gas: 1)\n  7686: jump @609\n      : @289 (gas: 7)\n  7689: a2 = s1 + 0x1078\n  7693: u64 [a2 + 416] = 0\n  7697: u64 [a2 + 408] = 0\n  7701: u64 [a2 + 400] = 0\n  7705: a1 = s1 + 0x1200\n  7709: u64 [a2 + 392] = 0x1\n  7714: ra = 242, jump @19\n      : @290 [@dyn 121] (gas: 6)\n  7720: a0 = sp + 0xffffffffffffffe0\n  7723: a3 = a0 & 0xffffffffffffffe0\n  7726: sp = a3\n  7728: a0 = u64 [s1 + 0xe8]\n  7732: a1 = u64 [s1 + 0xb8]\n  7736: t0 = 244, jump @1040\n      : @291 [@dyn 122] (gas: 1)\n  7742: jump @293 if a1 != 0\n      : @292 (gas: 1)\n  7745: jump @609\n      : @293 (gas: 5)\n  7748: i32 a1 = a2 + 0x20\n  7751: u64 [s1 + 0xf0] = a1\n  7755: a0 = u64 [s1 + 0xd8]\n  7759: u64 [s1 + 0xf8] = a3\n  7763: ra = 246, jump @29\n      : @294 [@dyn 123] (gas: 12)\n  7769: a1 = sp + 0xffffffffffffffe0\n  7772: a1 = a1 & 0xffffffffffffffe0\n  7775: u64 [s1 + 0xe8] = a1\n  7779: sp = a1\n  7781: i32 a0 = a0 + 0\n  7783: i32 a2 = a1 + 0\n  7785: a1 = u64 [s1 + 0xf0]\n  7789: ra = 0xf8\n  7793: ecalli 6 // 'hash_keccak_256'\n  7795: a3 = u64 [s1 + 0xe8]\n  7799: t0 = 0xfa\n  7803: jump @1017\n      : @295 [@dyn 124] (gas: 2)\n  7806: a3 = u64 [s1 + 0xe8]\n  7810: t0 = 250, jump @1017\n      : @296 [@dyn 125] (gas: 12)\n  7816: u64 [s1 + 0xa8] = a3\n  7820: a4 = u64 [s1 + 0xf8]\n  7824: u64 [a4 + 0x18] = a3\n  7827: u64 [s1 + 0xb0] = a2\n  7831: u64 [a4 + 0x10] = a2\n  7834: u64 [s1 + 0xb8] = a1\n  7838: u64 [a4 + 0x8] = a1\n  7841: u64 [s1 + 0xc0] = a0\n  7845: u64 [a4] = a0\n  7847: a1 = a4\n  7849: a0 = s1 + 0x11e0\n  7853: ra = 252, jump @21\n      : @297 [@dyn 126] (gas: 17)\n  7859: a4 = s1 + 0x1078\n  7863: a5 = a4 + 0x100\n  7867: a0 = u64 [a5 + 0x80]\n  7871: a1 = u64 [a5 + 0x78]\n  7874: a2 = u64 [a5 + 0x70]\n  7877: a3 = u64 [a5 + 0x68]\n  7880: u64 [s1 + 0x58] = a0\n  7883: u64 [a5 + 0x40] = a0\n  7886: u64 [s1 + 0x50] = a1\n  7889: u64 [a5 + 0x38] = a1\n  7892: u64 [s1 + 0x48] = a2\n  7895: u64 [a5 + 0x30] = a2\n  7898: a0 = s1 + 0x11c0\n  7902: a1 = s1 + 0x11a0\n  7906: u64 [s1 + 0x40] = a3\n  7909: u64 [a5 + 0x28] = a3\n  7912: ra = 254, jump @1002\n      : @298 [@dyn 127] (gas: 3)\n  7918: t0 = 0x100\n  7922: a1 = s1 + 0x1078\n  7926: fallthrough\n      : @299 [@dyn 128] (gas: 12)\n  7927: a2 = a1 + 0x100\n  7931: a0 = u64 [a2 + 0x48]\n  7934: u64 [s1 + 0xe0] = a0\n  7938: a0 = u64 [a2 + 0x50]\n  7941: u64 [s1 + 0xd8] = a0\n  7945: a0 = u64 [a2 + 0x58]\n  7948: u64 [s1 + 0xd0] = a0\n  7952: a0 = u64 [a2 + 0x60]\n  7955: u64 [s1 + 0xc8] = a0\n  7959: a0 = s1 + 0x1180\n  7963: a1 = 0x40\n  7966: ra = 258, jump @17\n      : @300 [@dyn 129] (gas: 25)\n  7972: a0 = s1 + 0x1078\n  7976: a2 = u64 [a0 + 0x120]\n  7980: u64 [s1 + 0xf8] = a2\n  7984: a1 = u64 [a0 + 0x118]\n  7988: u64 [s1 + 0xf0] = a1\n  7992: a4 = u64 [a0 + 0x110]\n  7996: u64 [s1 + 0xe8] = a4\n  8000: a5 = u64 [a0 + 0x108]\n  8004: u64 [s1 + 0x8] = a5\n  8007: a3 = u64 [s1 + 0xc8]\n  8011: u64 [a0 + 0xe0] = a3\n  8015: a3 = u64 [s1 + 0xd0]\n  8019: u64 [a0 + 0xd8] = a3\n  8023: a3 = u64 [s1 + 0xd8]\n  8027: u64 [a0 + 0xd0] = a3\n  8031: a3 = u64 [s1 + 0xe0]\n  8035: u64 [a0 + 0xc8] = a3\n  8039: u64 [a0 + 0x100] = a2\n  8043: u64 [a0 + 0xf8] = a1\n  8047: u64 [a0 + 0xf0] = a4\n  8051: a2 = a0\n  8053: a0 = s1 + 0x1160\n  8057: a1 = s1 + 0x1140\n  8061: u64 [a2 + 0xe8] = a5\n  8065: ra = 260, jump @810\n      : @301 [@dyn 130] (gas: 6)\n  8071: a0 = u64 [s1 + 0x8]\n  8074: a1 = u64 [s1 + 0xf8]\n  8078: a2 = u64 [s1 + 0xe8]\n  8082: a2 = a2 | a1\n  8085: a3 = u64 [s1 + 0xf0]\n  8089: t0 = 262, jump @1034\n      : @302 [@dyn 131] (gas: 1)\n  8095: jump @304 if a1 == 0\n      : @303 (gas: 1)\n  8098: jump @609\n      : @304 (gas: 11)\n  8101: a3 = s1 + 0x1078\n  8105: a1 = u64 [s1 + 0x40]\n  8108: u64 [a3 + 0xa8] = a1\n  8112: a1 = u64 [s1 + 0x48]\n  8115: u64 [a3 + 0xb0] = a1\n  8119: a1 = u64 [s1 + 0x50]\n  8122: u64 [a3 + 0xb8] = a1\n  8126: a1 = s1 + 0x1120\n  8130: a2 = u64 [s1 + 0x58]\n  8133: u64 [a3 + 0xc0] = a2\n  8137: ra = 264, jump @19\n      : @305 [@dyn 132] (gas: 27)\n  8143: a1 = u64 [s1 + 0x8]\n  8146: a0 = a1 + 0x20\n  8149: u64 [s1 + 0x10] = a0\n  8152: a0 = a0 <u a1\n  8155: a2 = u64 [s1 + 0xe8]\n  8159: a1 = a2 + a0\n  8162: u64 [s1 + 0x28] = a1\n  8165: a1 = a1 <u a2\n  8168: a1 = a0 if a0 == 0\n  8171: a0 = u64 [s1 + 0xf0]\n  8175: a1 = a1 + a0\n  8178: u64 [s1 + 0x20] = a1\n  8181: a0 = a1 <u a0\n  8184: u64 [s1 + 0xf0] = a0\n  8188: a0 = u64 [s1 + 0xa8]\n  8192: a1 = s1 + 0x1078\n  8196: u64 [a1 + 0xa0] = a0\n  8200: a0 = u64 [s1 + 0xb0]\n  8204: u64 [a1 + 0x98] = a0\n  8208: a0 = u64 [s1 + 0xb8]\n  8212: u64 [a1 + 0x90] = a0\n  8216: a2 = a1\n  8218: a1 = s1 + 0x1100\n  8222: a0 = u64 [s1 + 0xc0]\n  8226: u64 [a2 + 0x88] = a0\n  8230: a0 = 0\n  8232: ra = 266, jump @19\n      : @306 [@dyn 133] (gas: 6)\n  8238: a0 = sp + 0xffffffffffffffe0\n  8241: a0 = a0 & 0xffffffffffffffe0\n  8244: u64 [s1 + 0x90] = a0\n  8248: sp = a0\n  8250: a1 = i32 [0x20074]\n  8255: jump @308 if a1 >u 31\n      : @307 (gas: 2)\n  8259: u32 [0x20074] = 0x20\n  8265: fallthrough\n      : @308 (gas: 52)\n  8266: a0 = u64 [s1 + 0xf8]\n  8270: a1 = u64 [s1 + 0xf0]\n  8274: a0 = a0 + a1\n  8277: u64 [s1 + 0x18] = a0\n  8280: a0 = 0xffffffff\n  8290: u64 [s1 + 0x98] = a0\n  8294: a0 = sp + 0xffffffffffffffe0\n  8297: a2 = a0 & 0xffffffffffffffe0\n  8300: u64 [s1 + 0xf8] = a2\n  8304: sp = a2\n  8306: a0 = 0x20080\n  8311: i32 a0 = a0 + 0\n  8313: i32 a2 = a2 + 0\n  8315: a1 = 0x20\n  8318: ecalli 6 // 'hash_keccak_256'\n  8320: a2 = 0\n  8322: a3 = 0\n  8324: a5 = 0\n  8326: t0 = 0\n  8328: a0 = u64 [s1 + 0xf8]\n  8332: t2 = u64 [a0 + 0x18]\n  8335: a1 = u64 [a0 + 0x10]\n  8338: a4 = u64 [a0 + 0x8]\n  8341: t1 = u64 [a0]\n  8343: t2 = reverse t2\n  8345: ra = reverse a1\n  8347: a4 = reverse a4\n  8349: a1 = reverse t1\n  8351: a0 = u64 [s1 + 0x90]\n  8355: u64 [s1 + 0xd8] = a1\n  8359: u64 [a0 + 0x18] = a1\n  8362: u64 [s1 + 0xf0] = a4\n  8366: u64 [a0 + 0x10] = a4\n  8369: a1 = ra\n  8371: u64 [s1 + 0xc8] = a1\n  8375: u64 [a0 + 0x8] = a1\n  8378: a1 = t2\n  8380: u64 [s1 + 0xd0] = a1\n  8384: u64 [a0] = a1\n  8386: a0 = 0x100000000\n  8396: u64 [s1 + 0x30] = a0\n  8399: a0 = 0xffffffe0\n  8409: u64 [s1 + 0x38] = a0\n  8412: a0 = u64 [s1 + 0x10]\n  8415: u64 [s1 + 0xb0] = a0\n  8419: a0 = u64 [s1 + 0x28]\n  8422: u64 [s1 + 0xa8] = a0\n  8426: a0 = u64 [s1 + 0x20]\n  8429: u64 [s1 + 0xb8] = a0\n  8433: a0 = u64 [s1 + 0x18]\n  8436: u64 [s1 + 0xc0] = a0\n  8440: fallthrough\n      : @309 (gas: 23)\n  8441: a0 = u64 [s1 + 0x40]\n  8444: u64 [s1 + 0x78] = a2\n  8447: a0 = a2 <u a0\n  8450: a2 = u64 [s1 + 0x48]\n  8453: a1 = a3 ^ a2\n  8456: u64 [s1 + 0x70] = a3\n  8459: a2 = a3 <u a2\n  8462: a2 = a0 if a1 == 0\n  8465: a4 = u64 [s1 + 0x50]\n  8468: a0 = a5 <u a4\n  8471: a3 = u64 [s1 + 0x58]\n  8474: a1 = t0 ^ a3\n  8477: u64 [s1 + 0x68] = t0\n  8480: a3 = t0 <u a3\n  8483: a3 = a0 if a1 == 0\n  8486: u64 [s1 + 0x60] = a5\n  8489: a0 = a5 ^ a4\n  8492: a0 = a0 | a1\n  8495: a3 = a2 if a0 == 0\n  8498: u64 [s1 + 0x88] = a3\n  8502: a0 = s1 + 0x10e0\n  8506: a1 = 0x40\n  8509: ra = 268, jump @17\n      : @310 [@dyn 134] (gas: 14)\n  8515: ra = s1 + 0x1078\n  8519: t2 = u64 [ra + 0x80]\n  8523: a0 = ra\n  8525: a1 = u64 [a0 + 0x78]\n  8528: a3 = u64 [a0 + 0x68]\n  8531: a5 = u64 [a0 + 0x70]\n  8534: a0 = a3 | a1\n  8537: a4 = a5 | t2\n  8540: a2 = u64 [s1 + 0x88]\n  8544: u64 [s1 + 0xf8] = a3\n  8548: u64 [s1 + 0xa0] = t2\n  8552: u64 [s1 + 0xe0] = a5\n  8556: u64 [s1 + 0xe8] = a1\n  8560: jump @312 if a2 != 0\n      : @311 (gas: 1)\n  8563: jump @708\n      : @312 (gas: 14)\n  8566: u64 [s1 + 0x88] = a0\n  8570: a2 = s1 + 0x7ff\n  8574: a2 = a2 + 0x79\n  8577: a0 = a2 + 0x700\n  8581: u64 [a0 + 0x8] = a3\n  8584: u64 [a0 + 0x10] = a5\n  8587: u64 [a0 + 0x18] = a1\n  8590: a0 = s1 + 0x7ff\n  8594: a0 = a0 + 0x781\n  8598: u64 [a2 + 0x720] = t2\n  8602: u64 [s1 + 0x80] = a4\n  8606: ra = 0x10e\n  8610: t0 = 0x31c\n  8614: jump @1026\n      : @313 [@dyn 135] (gas: 4)\n  8617: a0 = s1 + 0x7ff\n  8621: a0 = a0 + 0x761\n  8625: a1 = u64 [s1 + 0x90]\n  8629: ra = 272, jump @21\n      : @314 [@dyn 136] (gas: 9)\n  8635: a0 = u64 [s1 + 0x88]\n  8639: a2 = u64 [s1 + 0x80]\n  8643: a0 = a0 | a2\n  8646: a0 = a0 >> 0x20\n  8649: a1 = u64 [s1 + 0xe8]\n  8653: a1 = a1 | a2\n  8656: a1 = a1 << 0x20\n  8659: a0 = a0 | a1\n  8662: jump @316 if a0 == 0\n      : @315 (gas: 1)\n  8665: jump @609\n      : @316 (gas: 19)\n  8668: a3 = s1 + 0x7ff\n  8672: a3 = a3 + 0x79\n  8675: a5 = a3 + 0x600\n  8679: a0 = u64 [a5 + 0xf8]\n  8683: a1 = u64 [a5 + 0xf0]\n  8687: a2 = u64 [a5 + 0xe8]\n  8691: a4 = u64 [s1 + 0x98]\n  8695: a0 = a0 & a4\n  8698: a4 = 0xffffffffffffffff\n  8701: a1 = a1 & a4\n  8704: a2 = a2 & a4\n  8707: u64 [a3 + 1760] = 0\n  8711: u64 [a5 + 0xc8] = a2\n  8715: u64 [a5 + 0xd0] = a1\n  8719: a1 = s1 + 0x7ff\n  8723: a1 = a1 + 0x741\n  8727: u64 [a5 + 0xd8] = a0\n  8731: a0 = u64 [s1 + 0xf8]\n  8735: ra = 274, jump @19\n      : @317 [@dyn 137] (gas: 23)\n  8741: a0 = u64 [s1 + 0xd0]\n  8745: a0 = a0 + 0x1\n  8748: a1 = a0 <u 0x1\n  8751: a2 = u64 [s1 + 0xc8]\n  8755: a1 = a1 + a2\n  8758: a2 = a0 | a1\n  8761: a2 = a2 <u 0x1\n  8764: a3 = u64 [s1 + 0xf0]\n  8768: a2 = a2 + a3\n  8771: u64 [s1 + 0xf0] = a3\n  8775: a3 = a2 <u a3\n  8778: a4 = u64 [s1 + 0xd8]\n  8782: a3 = a3 + a4\n  8785: a4 = s1 + 0x2078\n  8789: a5 = a4 + 0x400\n  8793: u64 [a5 + 0x30] = a1\n  8796: u64 [a5 + 0x28] = a0\n  8799: u64 [a5 + 0x38] = a2\n  8802: u64 [a5 + 0x40] = a3\n  8805: a0 = s1 + 0x7ff\n  8809: a0 = a0 + 0x721\n  8813: a1 = s1 + 0x24a0\n  8817: ra = 276, jump @21\n      : @318 [@dyn 138] (gas: 10)\n  8823: a0 = u64 [s1 + 0xa0]\n  8827: a2 = u64 [s1 + 0xe8]\n  8831: a2 = a2 | a0\n  8834: a0 = u64 [s1 + 0x38]\n  8837: a4 = u64 [s1 + 0xf8]\n  8841: a0 = a4 <u a0\n  8844: a1 = u64 [s1 + 0xe0]\n  8848: a0 = 0 if a1 != 0\n  8850: a0 = 0 if a2 != 0\n  8852: jump @320 if a0 != 0\n      : @319 (gas: 1)\n  8855: jump @609\n      : @320 (gas: 18)\n  8858: a3 = s1 + 0x7ff\n  8862: a3 = a3 + 0x79\n  8865: a0 = u64 [a3 + 0x6b8]\n  8869: a1 = u64 [a3 + 0x6b0]\n  8873: u64 [s1 + 0x88] = a2\n  8877: a2 = u64 [a3 + 0x6a8]\n  8881: a5 = u64 [s1 + 0x98]\n  8885: t0 = a0 & a5\n  8888: a1 = a1 & 0xffffffffffffffff\n  8891: a2 = a2 & 0xffffffffffffffff\n  8894: i32 a0 = a4 + 0x20\n  8897: u64 [a3 + 1696] = 0\n  8901: u64 [a3 + 0x688] = a2\n  8905: u64 [a3 + 0x690] = a1\n  8909: a1 = s1 + 0x7ff\n  8913: a1 = a1 + 0x701\n  8917: u64 [a3 + 0x698] = t0\n  8921: ra = 278, jump @19\n      : @321 [@dyn 139] (gas: 5)\n  8927: a1 = u64 [s1 + 0xd0]\n  8931: a0 = a1 + 0x2\n  8934: a1 = a0 <u a1\n  8937: a3 = u64 [s1 + 0xc8]\n  8941: t0 = 280, jump @1030\n      : @322 [@dyn 140] (gas: 15)\n  8947: a1 = u64 [s1 + 0xf0]\n  8951: a3 = a3 + a1\n  8954: a1 = a3 <u a1\n  8957: a4 = u64 [s1 + 0xd8]\n  8961: a1 = a1 + a4\n  8964: a4 = s1 + 0x2078\n  8968: a5 = a4 + 0x400\n  8972: u64 [a5 + 0x50] = a2\n  8975: u64 [a5 + 0x48] = a0\n  8978: u64 [a5 + 0x58] = a3\n  8981: u64 [a5 + 0x60] = a1\n  8984: a0 = s1 + 0x7ff\n  8988: a0 = a0 + 0x6e1\n  8992: a1 = s1 + 0x24c0\n  8996: ra = 282, jump @21\n      : @323 [@dyn 141] (gas: 9)\n  9002: a5 = u64 [s1 + 0xf8]\n  9006: a0 = u64 [s1 + 0x30]\n  9009: a0 = a0 + 0xffffffffffffffc0\n  9012: a0 = a5 <u a0\n  9015: a1 = u64 [s1 + 0xe0]\n  9019: a0 = 0 if a1 != 0\n  9021: a1 = u64 [s1 + 0x88]\n  9025: a0 = 0 if a1 != 0\n  9027: jump @325 if a0 != 0\n      : @324 (gas: 1)\n  9030: jump @609\n      : @325 (gas: 15)\n  9033: a2 = s1 + 0x7ff\n  9037: a2 = a2 + 0x79\n  9040: t0 = u64 [a2 + 0x680]\n  9044: a1 = u64 [a2 + 0x678]\n  9048: a3 = u64 [a2 + 0x670]\n  9052: a4 = u64 [a2 + 0x668]\n  9056: i32 a0 = a5 + 0x40\n  9059: a5 = a2 + 0x600\n  9063: u64 [a5 + 0x48] = a4\n  9066: u64 [a5 + 0x50] = a3\n  9069: u64 [a5 + 0x58] = a1\n  9072: a1 = s1 + 0x7ff\n  9076: a1 = a1 + 0x6c1\n  9080: u64 [a2 + 0x660] = t0\n  9084: ra = 284, jump @19\n      : @326 [@dyn 142] (gas: 12)\n  9090: a3 = u64 [s1 + 0xb8]\n  9094: a4 = u64 [s1 + 0xb0]\n  9098: a0 = a4 | a3\n  9101: a2 = u64 [s1 + 0xc0]\n  9105: a5 = u64 [s1 + 0xa8]\n  9109: a1 = a5 | a2\n  9112: a0 = a0 | a1\n  9115: a0 = a0 >> 0x20\n  9118: a1 = a1 | a3\n  9121: a1 = a1 << 0x20\n  9124: a0 = a0 | a1\n  9127: jump @328 if a0 == 0\n      : @327 (gas: 1)\n  9130: jump @609\n      : @328 (gas: 18)\n  9133: t0 = s1 + 0x7ff\n  9137: t0 = t0 + 0x79\n  9140: a0 = u64 [s1 + 0xf8]\n  9144: u64 [t0 + 0x628] = a0\n  9148: a0 = u64 [s1 + 0xe0]\n  9152: u64 [t0 + 0x630] = a0\n  9156: a0 = u64 [s1 + 0xe8]\n  9160: u64 [t0 + 0x638] = a0\n  9164: a1 = s1 + 0x7ff\n  9168: a1 = a1 + 0x6a1\n  9172: a0 = u64 [s1 + 0xa0]\n  9176: u64 [t0 + 0x640] = a0\n  9180: a0 = a4\n  9182: u64 [s1 + 0xc0] = a2\n  9186: u64 [s1 + 0xb8] = a3\n  9190: u64 [s1 + 0xb0] = a4\n  9194: u64 [s1 + 0xa8] = a5\n  9198: ra = 286, jump @19\n      : @329 [@dyn 143] (gas: 55)\n  9204: a1 = u64 [s1 + 0xb0]\n  9208: a0 = a1 + 0x20\n  9211: u64 [s1 + 0xf8] = a0\n  9215: a2 = a0 <u a1\n  9218: a1 = u64 [s1 + 0xa8]\n  9222: a0 = a1 + a2\n  9225: u64 [s1 + 0xe8] = a0\n  9229: a3 = a0 <u a1\n  9232: a3 = a2 if a2 == 0\n  9235: a0 = u64 [s1 + 0xb8]\n  9239: t2 = a0 + a3\n  9242: a3 = t2 <u a0\n  9245: a0 = u64 [s1 + 0xc0]\n  9249: a0 = a0 + a3\n  9252: u64 [s1 + 0xc0] = a0\n  9256: a0 = u64 [s1 + 0xd0]\n  9260: ra = a0 + 0x3\n  9263: a4 = ra <u a0\n  9266: a0 = u64 [s1 + 0xc8]\n  9270: t1 = a0 + a4\n  9273: a5 = t1 <u a0\n  9276: a5 = a4 if a4 == 0\n  9279: a0 = u64 [s1 + 0xf0]\n  9283: a5 = a5 + a0\n  9286: a4 = a5 <u a0\n  9289: a0 = u64 [s1 + 0xd8]\n  9293: a0 = a0 + a4\n  9296: a2 = u64 [s1 + 0x78]\n  9299: a2 = a2 + 0x1\n  9302: a4 = a2 <u 0x1\n  9305: a3 = u64 [s1 + 0x70]\n  9308: a3 = a3 + a4\n  9311: a4 = a2 | a3\n  9314: a4 = a4 <u 0x1\n  9317: a1 = u64 [s1 + 0x60]\n  9320: a4 = a4 + a1\n  9323: a1 = a4 <u a1\n  9326: t0 = u64 [s1 + 0x68]\n  9329: t0 = t0 + a1\n  9332: a1 = u64 [s1 + 0x90]\n  9336: u64 [a1 + 0x8] = t1\n  9339: u64 [a1] = ra\n  9341: u64 [a1 + 0x10] = a5\n  9344: u64 [s1 + 0xd8] = a0\n  9348: u64 [a1 + 0x18] = a0\n  9351: a0 = u64 [s1 + 0xf8]\n  9355: u64 [s1 + 0xb0] = a0\n  9359: a0 = u64 [s1 + 0xe8]\n  9363: u64 [s1 + 0xa8] = a0\n  9367: u64 [s1 + 0xb8] = t2\n  9371: u64 [s1 + 0xd0] = ra\n  9375: u64 [s1 + 0xc8] = t1\n  9379: u64 [s1 + 0xf0] = a5\n  9383: a5 = a4\n  9385: jump @309\n      : @330 (gas: 9)\n  9388: u64 [a2 + 320] = 0\n  9392: u64 [a2 + 312] = 0\n  9396: u64 [a2 + 304] = 0\n  9400: u64 [a2 + 296] = 0\n  9404: a0 = s1 + 0x2000\n  9408: i32 a0 = a0 + 0x1a0\n  9412: ra = 0x120\n  9416: ecalli 11 // 'value_transferred'\n  9418: fallthrough\n      : @331 [@dyn 144] (gas: 3)\n  9419: a3 = s1 + 0x2078\n  9423: a4 = a3 + 0x100\n  9427: t0 = 290, jump @1044\n      : @332 [@dyn 145] (gas: 1)\n  9433: jump @334 if a0 == 0\n      : @333 (gas: 1)\n  9436: jump @753\n      : @334 (gas: 3)\n  9439: a0 = u64 [s1 + 0xf8]\n  9443: a0 = i32 [a0]\n  9445: jump @336 if a0 >u 67\n      : @335 (gas: 1)\n  9449: jump @754\n      : @336 (gas: 6)\n  9452: a0 = s1 + 0x2000\n  9456: i32 a0 = a0 + 0x1c0\n  9460: a1 = 0x4\n  9463: ra = 0x124\n  9467: ecalli 1 // 'call_data_load'\n  9469: fallthrough\n      : @337 [@dyn 146] (gas: 6)\n  9470: a5 = s1 + 0x2078\n  9474: a3 = a5 + 0x100\n  9478: a0 = u64 [a3 + 0x60]\n  9481: a1 = u64 [a3 + 0x58]\n  9484: a2 = u64 [a3 + 0x50]\n  9487: t0 = 294, jump @1027\n      : @338 [@dyn 147] (gas: 1)\n  9493: jump @340 if a4 != 0\n      : @339 (gas: 1)\n  9496: jump @755\n      : @340 (gas: 23)\n  9499: a3 = u64 [a5 + 0x148]\n  9503: a4 = u64 [s1 + 0xf8]\n  9507: t0 = u32 [a4]\n  9509: a5 = a3 + 0x4\n  9512: a3 = a5 <u a3\n  9515: a4 = a2 + a3\n  9518: a2 = a4 <u a2\n  9521: a2 = a3 if a3 == 0\n  9524: a2 = a2 + a1\n  9527: a1 = a2 <u a1\n  9530: a3 = a0 + a1\n  9533: u64 [s1 + 1848] = 0\n  9537: u64 [s1 + 1840] = 0\n  9541: u64 [s1 + 1832] = 0\n  9545: u64 [s1 + 0x720] = t0\n  9549: u64 [s1 + 0x740] = a5\n  9553: u64 [s1 + 0x748] = a4\n  9557: u64 [s1 + 0x750] = a2\n  9561: a0 = s1 + 0x760\n  9565: a1 = s1 + 0x740\n  9569: a2 = s1 + 0x720\n  9573: u64 [s1 + 0x758] = a3\n  9577: ra = 296, jump @820\n      : @341 [@dyn 148] (gas: 15)\n  9583: a1 = s1 + 0x700\n  9587: a0 = u64 [a1 + 0x78]\n  9590: u64 [s1 + 0xd8] = a0\n  9594: a0 = u64 [a1 + 0x70]\n  9597: u64 [s1 + 0xe0] = a0\n  9601: a0 = u64 [a1 + 0x68]\n  9604: u64 [s1 + 0xe8] = a0\n  9608: a0 = u64 [a1 + 0x60]\n  9611: u64 [s1 + 0xf0] = a0\n  9615: a0 = s1 + 0x2000\n  9619: i32 a0 = a0 + 0x1e0\n  9623: a1 = 0x24\n  9626: ra = 0x12a\n  9630: ecalli 1 // 'call_data_load'\n  9632: fallthrough\n      : @342 [@dyn 149] (gas: 6)\n  9633: a5 = s1 + 0x2078\n  9637: a3 = a5 + 0x100\n  9641: a0 = u64 [a3 + 0x80]\n  9645: a1 = u64 [a3 + 0x78]\n  9648: a2 = u64 [a3 + 0x70]\n  9651: t0 = 300, jump @1027\n      : @343 [@dyn 150] (gas: 1)\n  9657: jump @345 if a4 != 0\n      : @344 (gas: 1)\n  9660: jump @756\n      : @345 (gas: 24)\n  9663: a3 = u64 [a5 + 0x168]\n  9667: a4 = u64 [s1 + 0xf8]\n  9671: t0 = u32 [a4]\n  9673: a5 = a3 + 0x4\n  9676: a3 = a5 <u a3\n  9679: a4 = a2 + a3\n  9682: a2 = a4 <u a2\n  9685: a2 = a3 if a3 == 0\n  9688: a2 = a2 + a1\n  9691: a1 = a2 <u a1\n  9694: a3 = a0 + a1\n  9697: u64 [s1 + 1752] = 0\n  9701: u64 [s1 + 1744] = 0\n  9705: u64 [s1 + 1736] = 0\n  9709: u64 [s1 + 0x6c0] = t0\n  9713: u64 [s1 + 0x6e0] = a5\n  9717: a5 = s1 + 0x600\n  9721: u64 [a5 + 0xe8] = a4\n  9725: u64 [a5 + 0xf0] = a2\n  9729: a0 = s1 + 0x700\n  9733: a1 = s1 + 0x6e0\n  9737: a2 = s1 + 0x6c0\n  9741: u64 [a5 + 0xf8] = a3\n  9745: ra = 302, jump @820\n      : @346 [@dyn 151] (gas: 12)\n  9751: a1 = s1 + 0x700\n  9755: a0 = u64 [a1 + 0x18]\n  9758: u64 [s1 + 0xa0] = a0\n  9762: a0 = u64 [a1 + 0x10]\n  9765: u64 [s1 + 0xa8] = a0\n  9769: a0 = u64 [a1 + 0x8]\n  9772: u64 [s1 + 0xb0] = a0\n  9776: a0 = u64 [a1]\n  9778: u64 [s1 + 0xb8] = a0\n  9782: a0 = s1 + 0x6a0\n  9786: a1 = 0x40\n  9789: ra = 304, jump @17\n      : @347 [@dyn 152] (gas: 6)\n  9795: a2 = u64 [s1 + 0xe0]\n  9799: a4 = u64 [s1 + 0xf0]\n  9803: a0 = a4 | a2\n  9806: a1 = u64 [s1 + 0xd8]\n  9810: a3 = u64 [s1 + 0xe8]\n  9814: t0 = 306, jump @1022\n      : @348 [@dyn 153] (gas: 1)\n  9820: jump @350 if a0 == 0\n      : @349 (gas: 1)\n  9823: jump @609\n      : @350 (gas: 12)\n  9826: a1 = a4\n  9828: a2 = s1 + 0x600\n  9832: a0 = u64 [a2 + 0xb8]\n  9836: u64 [s1 + 0xd0] = a0\n  9840: a0 = u64 [a2 + 0xb0]\n  9844: u64 [s1 + 0xc8] = a0\n  9848: a0 = u64 [a2 + 0xa8]\n  9852: u64 [s1 + 0xc0] = a0\n  9856: a0 = u64 [a2 + 0xa0]\n  9860: u64 [s1 + 0xf8] = a0\n  9864: a0 = s1 + 0x680\n  9868: ra = 308, jump @17\n      : @351 [@dyn 154] (gas: 6)\n  9874: a2 = u64 [s1 + 0xc8]\n  9878: a0 = u64 [s1 + 0xf8]\n  9882: a0 = a0 | a2\n  9885: a1 = u64 [s1 + 0xd0]\n  9889: a3 = u64 [s1 + 0xc0]\n  9893: t0 = 310, jump @1022\n      : @352 [@dyn 155] (gas: 1)\n  9899: jump @354 if a0 == 0\n      : @353 (gas: 1)\n  9902: jump @609\n      : @354 (gas: 10)\n  9905: a0 = u64 [s1 + 0xe0]\n  9909: a1 = u64 [s1 + 0xd8]\n  9913: a0 = a0 | a1\n  9916: a1 = 0xffffffe0\n  9926: a3 = u64 [s1 + 0xf0]\n  9930: a1 = a3 <u a1\n  9933: a2 = u64 [s1 + 0xe8]\n  9937: a1 = 0 if a2 != 0\n  9939: a1 = 0 if a0 != 0\n  9941: jump @356 if a1 != 0\n      : @355 (gas: 1)\n  9944: jump @609\n      : @356 (gas: 14)\n  9947: a2 = a3\n  9949: t0 = u64 [s1 + 0x698]\n  9953: a0 = s1 + 0x600\n  9957: a5 = u64 [a0 + 0x90]\n  9961: a1 = u64 [a0 + 0x80]\n  9965: a4 = u64 [a0 + 0x88]\n  9969: a0 = a1 | a5\n  9972: a3 = a4 | t0\n  9975: a0 = a0 | a3\n  9978: a0 = a0 >> 0x20\n  9981: a3 = a3 | a5\n  9984: a3 = a3 << 0x20\n  9987: a0 = a0 | a3\n  9990: jump @358 if a0 == 0\n      : @357 (gas: 1)\n  9993: jump @609\n      : @358 (gas: 8)\n  9996: i32 a0 = a2 + 0x20\n  9999: u64 [s1 + 0x78] = a0\n 10002: a0 = u64 [s1 + 0xf8]\n 10006: u64 [s1 + 0x98] = a1\n 10010: u64 [s1 + 0x90] = a4\n 10014: u64 [s1 + 0x88] = t0\n 10018: u64 [s1 + 0x80] = a5\n 10022: ra = 312, jump @29\n      : @359 [@dyn 156] (gas: 4)\n 10028: u64 [s1 + 0x70] = a0\n 10031: a0 = u64 [s1 + 0x78]\n 10034: a1 = u64 [s1 + 0x98]\n 10038: ra = 314, jump @29\n      : @360 [@dyn 157] (gas: 4)\n 10044: a1 = a0\n 10046: a0 = u64 [s1 + 0x70]\n 10049: a2 = u64 [s1 + 0x98]\n 10053: ra = 316, jump @0\n      : @361 [@dyn 158] (gas: 13)\n 10059: t2 = u64 [s1 + 0x80]\n 10063: t1 = u64 [s1 + 0x88]\n 10067: t0 = u64 [s1 + 0x90]\n 10071: a0 = u64 [s1 + 0xf8]\n 10075: a1 = u64 [s1 + 0x98]\n 10079: a0 = a0 + a1\n 10082: a1 = a0 <u a1\n 10085: a2 = u64 [s1 + 0xc0]\n 10089: a2 = a2 + t0\n 10092: a2 = a2 + a1\n 10095: a3 = a2 ^ t0\n 10098: a4 = a2 <u t0\n 10101: t0 = 318, jump @1013\n      : @362 [@dyn 159] (gas: 1)\n 10107: jump @364 if a1 == 0\n      : @363 (gas: 1)\n 10110: jump @609\n      : @364 (gas: 6)\n 10113: u64 [s1 + 1656] = 0\n 10117: u64 [s1 + 1648] = 0\n 10121: u64 [s1 + 1640] = 0\n 10125: a1 = s1 + 0x660\n 10129: u64 [s1 + 1632] = 0\n 10133: ra = 320, jump @19\n      : @365 [@dyn 160] (gas: 10)\n 10139: a0 = u64 [s1 + 0x88]\n 10143: a1 = u64 [s1 + 0x80]\n 10147: a0 = a0 | a1\n 10150: a1 = 0xffffffe0\n 10160: a2 = u64 [s1 + 0x98]\n 10164: a1 = a2 <u a1\n 10167: a3 = u64 [s1 + 0x90]\n 10171: a1 = 0 if a3 != 0\n 10173: a1 = 0 if a0 != 0\n 10175: jump @367 if a1 != 0\n      : @366 (gas: 1)\n 10178: jump @609\n      : @367 (gas: 4)\n 10181: i32 a1 = a2 + 0x20\n 10184: u64 [s1 + 0xd0] = a1\n 10188: a0 = u64 [s1 + 0xf8]\n 10192: ra = 322, jump @29\n      : @368 [@dyn 161] (gas: 12)\n 10198: a1 = sp + 0xffffffffffffffe0\n 10201: a1 = a1 & 0xffffffffffffffe0\n 10204: u64 [s1 + 0xf8] = a1\n 10208: sp = a1\n 10210: i32 a0 = a0 + 0\n 10212: i32 a2 = a1 + 0\n 10214: a1 = u64 [s1 + 0xd0]\n 10218: ra = 0x144\n 10222: ecalli 6 // 'hash_keccak_256'\n 10224: a3 = u64 [s1 + 0xf8]\n 10228: t0 = 0x146\n 10232: jump @1017\n      : @369 [@dyn 162] (gas: 2)\n 10235: a3 = u64 [s1 + 0xf8]\n 10239: t0 = 326, jump @1017\n      : @370 [@dyn 163] (gas: 9)\n 10245: a4 = s1 + 0x2078\n 10249: a5 = a4 + 0x100\n 10253: u64 [a5 + 0xa0] = a3\n 10257: u64 [a5 + 0x98] = a2\n 10261: u64 [a5 + 0x90] = a1\n 10265: u64 [a5 + 0x88] = a0\n 10269: a0 = s1 + 0x640\n 10273: a1 = s1 + 0x2200\n 10277: ra = 328, jump @21\n      : @371 [@dyn 164] (gas: 11)\n 10283: a2 = u64 [s1 + 0x640]\n 10287: a0 = u64 [s1 + 0x648]\n 10291: a1 = u64 [s1 + 0x650]\n 10295: a3 = u64 [s1 + 0x658]\n 10299: u64 [s1 + 0x618] = a3\n 10303: u64 [s1 + 0x610] = a1\n 10307: u64 [s1 + 0x608] = a0\n 10311: a0 = s1 + 0x620\n 10315: a1 = s1 + 0x600\n 10319: u64 [s1 + 0x600] = a2\n 10323: ra = 330, jump @848\n      : @372 [@dyn 165] (gas: 12)\n 10329: a4 = s1 + 0x600\n 10333: a0 = u64 [a4 + 0x30]\n 10336: a1 = u64 [a4 + 0x38]\n 10339: a2 = u64 [a4 + 0x28]\n 10342: a3 = u64 [a4 + 0x20]\n 10345: a1 = a1 | a2\n 10348: a0 = a0 | a3\n 10351: a0 = a0 | a1\n 10354: u64 [s1 + 0xc8] = a0\n 10358: a0 = s1 + 0x5e0\n 10362: a1 = 0x40\n 10365: ra = 332, jump @17\n      : @373 [@dyn 166] (gas: 8)\n 10371: a1 = s1 + 0x500\n 10375: a4 = u64 [a1 + 0xf8]\n 10379: a5 = u64 [a1 + 0xf0]\n 10383: a3 = u64 [a1 + 0xe8]\n 10387: a0 = u64 [a1 + 0xe0]\n 10391: u64 [s1 + 0xf8] = a0\n 10395: a1 = u64 [s1 + 0xc8]\n 10399: jump @375 if a1 == 0\n      : @374 (gas: 1)\n 10402: jump @627\n      : @375 (gas: 12)\n 10405: a1 = s1 + 0x500\n 10409: u64 [a1 + 0x40] = a0\n 10412: u64 [a1 + 0x48] = a3\n 10415: u64 [a1 + 0x50] = a5\n 10418: a0 = s1 + 0x540\n 10422: u64 [a1 + 0x58] = a4\n 10425: u64 [s1 + 0xd0] = a3\n 10429: u64 [s1 + 0xc0] = a4\n 10433: u64 [s1 + 0x98] = a5\n 10437: ra = 0x14e\n 10441: t0 = 0x30c\n 10445: jump @1026\n      : @376 [@dyn 167] (gas: 12)\n 10448: a4 = u64 [s1 + 0x98]\n 10452: a3 = u64 [s1 + 0xc0]\n 10456: a2 = u64 [s1 + 0xf8]\n 10460: a0 = a2 | a4\n 10463: a1 = u64 [s1 + 0xd0]\n 10467: a1 = a1 | a3\n 10470: a0 = a0 | a1\n 10473: a0 = a0 >> 0x20\n 10476: a1 = a1 | a4\n 10479: a1 = a1 << 0x20\n 10482: a0 = a0 | a1\n 10485: jump @378 if a0 == 0\n      : @377 (gas: 1)\n 10488: jump @609\n      : @378 (gas: 12)\n 10491: a0 = u64 [s1 + 0xf0]\n 10495: a3 = s1 + 0x500\n 10499: u64 [a3 + 0x20] = a0\n 10502: a0 = u64 [s1 + 0xe8]\n 10506: u64 [a3 + 0x28] = a0\n 10509: a0 = u64 [s1 + 0xe0]\n 10513: u64 [a3 + 0x30] = a0\n 10516: a1 = s1 + 0x520\n 10520: a0 = u64 [s1 + 0xd8]\n 10524: u64 [a3 + 0x38] = a0\n 10527: a0 = a2\n 10529: ra = 336, jump @19\n      : @379 [@dyn 168] (gas: 6)\n 10535: a3 = u64 [s1 + 0xd0]\n 10539: a1 = u64 [s1 + 0xf8]\n 10543: a0 = u64 [s1 + 0x98]\n 10547: a2 = u64 [s1 + 0xc0]\n 10551: a2 = a2 | a0\n 10554: t0 = 338, jump @1041\n      : @380 [@dyn 169] (gas: 1)\n 10560: jump @382 if a0 != 0\n      : @381 (gas: 1)\n 10563: jump @609\n      : @382 (gas: 16)\n 10566: u64 [s1 + 0xc8] = a2\n 10570: i32 a2 = a1 + 0x20\n 10573: a0 = u64 [s1 + 0xb8]\n 10577: a3 = s1 + 0x500\n 10581: u64 [a3] = a0\n 10583: a0 = u64 [s1 + 0xb0]\n 10587: u64 [a3 + 0x8] = a0\n 10590: a0 = u64 [s1 + 0xa8]\n 10594: u64 [a3 + 0x10] = a0\n 10597: a1 = s1 + 0x500\n 10601: a0 = u64 [s1 + 0xa0]\n 10605: u64 [a3 + 0x18] = a0\n 10608: u64 [s1 + 0x88] = a2\n 10612: a0 = a2\n 10614: u64 [s1 + 0xc0] = a4\n 10618: ra = 340, jump @19\n      : @383 [@dyn 170] (gas: 6)\n 10624: a0 = 0x30080\n 10629: u64 [s1 + 0x98] = a0\n 10633: i32 a0 = a0 + 0\n 10635: u64 [s1 + 0x90] = a0\n 10639: ecalli 3 // 'caller'\n 10641: fallthrough\n      : @384 (gas: 9)\n 10642: a4 = u64 [s1 + 0xf8]\n 10646: a0 = u64 [s1 + 0xc0]\n 10650: a0 = a0 + 0xffffffffffffffc0\n 10653: a0 = a4 <u a0\n 10656: a1 = u64 [s1 + 0xd0]\n 10660: a0 = 0 if a1 != 0\n 10662: a1 = u64 [s1 + 0xc8]\n 10666: a0 = 0 if a1 != 0\n 10668: jump @386 if a0 != 0\n      : @385 (gas: 1)\n 10671: jump @609\n      : @386 (gas: 23)\n 10674: a2 = u64 [s1 + 0x98]\n 10678: a0 = u64 [a2 + 0x8]\n 10681: a1 = i32 [a2 + 0x10]\n 10684: a2 = u64 [a2]\n 10686: a0 = reverse a0\n 10688: a3 = a0 << 0x20\n 10691: a1 = reverse a1\n 10693: a1 = a1 >> 0x20\n 10696: a3 = a3 | a1\n 10699: a0 = a0 >> 0x20\n 10702: a1 = reverse a2\n 10704: a2 = a1 << 0x20\n 10707: a2 = a2 | a0\n 10710: a1 = a1 >> 0x20\n 10713: i32 a0 = a4 + 0x40\n 10716: u64 [s1 + 1272] = 0\n 10720: a4 = s1 + 0x400\n 10724: u64 [a4 + 0xf0] = a1\n 10728: u64 [a4 + 0xe8] = a2\n 10732: a1 = s1 + 0x4e0\n 10736: u64 [a4 + 0xe0] = a3\n 10740: u64 [s1 + 0x70] = a0\n 10743: ra = 342, jump @19\n      : @387 [@dyn 171] (gas: 4)\n 10749: a0 = s1 + 0x2000\n 10753: i32 a0 = a0 + 0x220\n 10757: ecalli 7 // 'now'\n 10759: fallthrough\n      : @388 (gas: 8)\n 10760: a4 = u64 [s1 + 0xf8]\n 10764: a0 = 0xffffffa0\n 10774: a0 = a4 <u a0\n 10777: a1 = u64 [s1 + 0xd0]\n 10781: a0 = 0 if a1 != 0\n 10783: a1 = u64 [s1 + 0xc8]\n 10787: a0 = 0 if a1 != 0\n 10789: jump @390 if a0 != 0\n      : @389 (gas: 1)\n 10792: jump @609\n      : @390 (gas: 14)\n 10795: a3 = s1 + 0x2078\n 10799: a0 = a3 + 0x100\n 10803: a5 = u64 [a0 + 0xa8]\n 10807: a1 = u64 [a0 + 0xb0]\n 10811: a2 = u64 [a0 + 0xb8]\n 10815: a3 = u64 [a0 + 0xc0]\n 10819: i32 a0 = a4 + 0x60\n 10822: u64 [s1 + 0x4d8] = a3\n 10826: u64 [s1 + 0x4d0] = a2\n 10830: u64 [s1 + 0x4c8] = a1\n 10834: a1 = s1 + 0x4c0\n 10838: u64 [s1 + 0x4c0] = a5\n 10842: u64 [s1 + 0x60] = a0\n 10845: ra = 344, jump @19\n      : @391 [@dyn 172] (gas: 3)\n 10851: a0 = s1 + 0x4a0\n 10855: a1 = 0x40\n 10858: ra = 346, jump @17\n      : @392 [@dyn 173] (gas: 12)\n 10864: a1 = s1 + 0x400\n 10868: a0 = u64 [a1 + 0xb8]\n 10872: u64 [s1 + 0xc8] = a0\n 10876: a0 = u64 [a1 + 0xb0]\n 10880: u64 [s1 + 0xc0] = a0\n 10884: a0 = u64 [a1 + 0xa8]\n 10888: u64 [s1 + 0x80] = a0\n 10892: a0 = u64 [a1 + 0xa0]\n 10896: u64 [s1 + 0xd0] = a0\n 10900: a0 = s1 + 0x480\n 10904: a1 = u64 [s1 + 0xf0]\n 10908: ra = 348, jump @17\n      : @393 [@dyn 174] (gas: 6)\n 10914: a0 = u64 [s1 + 0xc8]\n 10918: a1 = u64 [s1 + 0x80]\n 10922: a0 = a0 | a1\n 10925: a2 = u64 [s1 + 0xc0]\n 10929: a1 = u64 [s1 + 0xd0]\n 10933: t0 = 350, jump @1036\n      : @394 [@dyn 175] (gas: 1)\n 10939: jump @396 if a0 == 0\n      : @395 (gas: 1)\n 10942: jump @609\n      : @396 (gas: 17)\n 10945: a4 = s1 + 0x400\n 10949: a2 = u64 [a4 + 0x98]\n 10953: a3 = u64 [a4 + 0x90]\n 10957: a0 = u64 [a4 + 0x80]\n 10961: a1 = u64 [a4 + 0x88]\n 10965: u64 [s1 + 0x68] = a0\n 10968: a0 = a0 | a3\n 10971: u64 [s1 + 0x58] = a1\n 10974: u64 [s1 + 0x50] = a2\n 10977: a1 = a1 | a2\n 10980: a0 = a0 | a1\n 10983: a0 = a0 >> 0x20\n 10986: u64 [s1 + 0x48] = a3\n 10989: a1 = a1 | a3\n 10992: a1 = a1 << 0x20\n 10995: a0 = a0 | a1\n 10998: jump @398 if a0 == 0\n      : @397 (gas: 1)\n 11001: jump @609\n      : @398 (gas: 3)\n 11004: a0 = u64 [s1 + 0xd0]\n 11008: a1 = u64 [s1 + 0x68]\n 11011: ra = 352, jump @29\n      : @399 [@dyn 176] (gas: 4)\n 11017: u64 [s1 + 0x40] = a0\n 11020: a0 = u64 [s1 + 0x78]\n 11023: a1 = u64 [s1 + 0x68]\n 11026: ra = 354, jump @29\n      : @400 [@dyn 177] (gas: 4)\n 11032: a1 = a0\n 11034: a0 = u64 [s1 + 0x40]\n 11037: a2 = u64 [s1 + 0x68]\n 11040: ra = 356, jump @0\n      : @401 [@dyn 178] (gas: 7)\n 11046: a1 = u64 [s1 + 0x68]\n 11049: a0 = u64 [s1 + 0xd0]\n 11053: a0 = a0 + a1\n 11056: a1 = a0 <u a1\n 11059: a4 = u64 [s1 + 0x58]\n 11062: a2 = u64 [s1 + 0x80]\n 11066: t0 = 358, jump @1028\n      : @402 [@dyn 179] (gas: 9)\n 11072: a3 = u64 [s1 + 0x48]\n 11075: a1 = u64 [s1 + 0xc0]\n 11079: a1 = a1 + a3\n 11082: t0 = a1 <u a3\n 11085: a5 = u64 [s1 + 0x50]\n 11088: a3 = u64 [s1 + 0xc8]\n 11092: a5 = a5 + a3\n 11095: a3 = a5 + t0\n 11098: t0 = 360, jump @1014\n      : @403 [@dyn 180] (gas: 1)\n 11104: jump @405 if a1 == 0\n      : @404 (gas: 1)\n 11107: jump @609\n      : @405 (gas: 6)\n 11110: u64 [s1 + 1144] = 0\n 11114: u64 [s1 + 1136] = 0\n 11118: u64 [s1 + 1128] = 0\n 11122: a1 = s1 + 0x460\n 11126: u64 [s1 + 1120] = 0\n 11130: ra = 362, jump @19\n      : @406 [@dyn 181] (gas: 10)\n 11136: a0 = u64 [s1 + 0x50]\n 11139: a1 = u64 [s1 + 0x48]\n 11142: a0 = a0 | a1\n 11145: a1 = 0xffffffe0\n 11155: a2 = u64 [s1 + 0x68]\n 11158: a1 = a2 <u a1\n 11161: a2 = u64 [s1 + 0x58]\n 11164: a1 = 0 if a2 != 0\n 11166: a1 = 0 if a0 != 0\n 11168: jump @408 if a1 != 0\n      : @407 (gas: 1)\n 11171: jump @609\n      : @408 (gas: 5)\n 11174: a0 = u64 [s1 + 0x68]\n 11177: i32 a1 = a0 + 0x20\n 11180: u64 [s1 + 0xc8] = a1\n 11184: a0 = u64 [s1 + 0xd0]\n 11188: ra = 364, jump @29\n      : @409 [@dyn 182] (gas: 24)\n 11194: a1 = sp + 0xffffffffffffffe0\n 11197: a1 = a1 & 0xffffffffffffffe0\n 11200: u64 [s1 + 0xd0] = a1\n 11204: sp = a1\n 11206: i32 a0 = a0 + 0\n 11208: i32 a2 = a1 + 0\n 11210: a1 = u64 [s1 + 0xc8]\n 11214: ecalli 6 // 'hash_keccak_256'\n 11216: a3 = u64 [s1 + 0xd0]\n 11220: a0 = u64 [a3 + 0x18]\n 11223: a1 = u64 [a3 + 0x10]\n 11226: a2 = u64 [a3 + 0x8]\n 11229: a3 = u64 [a3]\n 11231: a0 = reverse a0\n 11233: u64 [s1 + 0xc0] = a0\n 11237: a0 = reverse a1\n 11239: u64 [s1 + 0xc8] = a0\n 11243: a0 = reverse a2\n 11245: u64 [s1 + 0x80] = a0\n 11249: a0 = reverse a3\n 11251: u64 [s1 + 0xd0] = a0\n 11255: a0 = s1 + 0x440\n 11259: a1 = u64 [s1 + 0xf8]\n 11263: ra = 366, jump @17\n      : @410 [@dyn 183] (gas: 20)\n 11269: a4 = s1 + 0x400\n 11273: a0 = u64 [a4 + 0x40]\n 11276: a1 = u64 [a4 + 0x48]\n 11279: a2 = u64 [a4 + 0x50]\n 11282: a3 = u64 [a4 + 0x58]\n 11285: u64 [a4 + 0x18] = a3\n 11288: u64 [a4 + 0x10] = a2\n 11291: u64 [a4 + 0x8] = a1\n 11294: u64 [a4] = a0\n 11296: a0 = u64 [s1 + 0xd0]\n 11300: u64 [a4 + 0x38] = a0\n 11303: a0 = u64 [s1 + 0x80]\n 11307: u64 [a4 + 0x30] = a0\n 11310: a0 = u64 [s1 + 0xc8]\n 11314: u64 [a4 + 0x28] = a0\n 11317: a0 = s1 + 0x420\n 11321: a1 = s1 + 0x400\n 11325: a2 = u64 [s1 + 0xc0]\n 11329: u64 [a4 + 0x20] = a2\n 11332: ra = 368, jump @923\n      : @411 [@dyn 184] (gas: 3)\n 11338: a0 = s1 + 0x3e0\n 11342: a1 = u64 [s1 + 0x88]\n 11346: ra = 370, jump @17\n      : @412 [@dyn 185] (gas: 27)\n 11352: t0 = u64 [s1 + 0x3e0]\n 11356: t1 = u64 [s1 + 0x3e8]\n 11360: t2 = u64 [s1 + 0x3f0]\n 11364: a4 = u64 [s1 + 0x3f8]\n 11368: a3 = u64 [s1 + 0xc0]\n 11372: a3 = a3 + 0x1\n 11375: a5 = a3 <u 0x1\n 11378: a0 = u64 [s1 + 0xc8]\n 11382: a5 = a5 + a0\n 11385: a2 = a3 | a5\n 11388: a2 = a2 <u 0x1\n 11391: a0 = u64 [s1 + 0x80]\n 11395: a2 = a2 + a0\n 11398: a1 = a2 <u a0\n 11401: a0 = u64 [s1 + 0xd0]\n 11405: a1 = a1 + a0\n 11408: u64 [s1 + 0x3b8] = a4\n 11412: u64 [s1 + 0x3b0] = t2\n 11416: u64 [s1 + 0x3a8] = t1\n 11420: u64 [s1 + 0x3a0] = t0\n 11424: u64 [s1 + 0x3d8] = a1\n 11428: u64 [s1 + 0x3d0] = a2\n 11432: u64 [s1 + 0x3c8] = a5\n 11436: a0 = s1 + 0x3c0\n 11440: a1 = s1 + 0x3a0\n 11444: u64 [s1 + 0x3c0] = a3\n 11448: ra = 372, jump @923\n      : @413 [@dyn 186] (gas: 3)\n 11454: a0 = s1 + 0x380\n 11458: a1 = u64 [s1 + 0x70]\n 11461: ra = 374, jump @17\n      : @414 [@dyn 187] (gas: 14)\n 11467: a0 = u64 [s1 + 0x380]\n 11471: u64 [s1 + 0xf8] = a0\n 11475: a0 = u64 [s1 + 0x388]\n 11479: u64 [s1 + 0x88] = a0\n 11483: a0 = u32 [s1 + 0x390]\n 11487: u64 [s1 + 0x78] = a0\n 11490: a0 = sp + 0xffffffffffffffe0\n 11493: a5 = a0 & 0xffffffffffffffe0\n 11496: sp = a5\n 11498: a1 = u64 [s1 + 0xc0]\n 11502: a0 = a1 + 0x2\n 11505: a1 = a0 <u a1\n 11508: a3 = u64 [s1 + 0xc8]\n 11512: t0 = 376, jump @1030\n      : @415 [@dyn 188] (gas: 13)\n 11518: a1 = u64 [s1 + 0x80]\n 11522: a3 = a3 + a1\n 11525: a1 = a3 <u a1\n 11528: a4 = u64 [s1 + 0xd0]\n 11532: a4 = a4 + a1\n 11535: a1 = a5\n 11537: u64 [s1 + 0x70] = a5\n 11540: u64 [a5 + 0x18] = a4\n 11543: u64 [a5 + 0x10] = a3\n 11546: u64 [a5 + 0x8] = a2\n 11549: u64 [a5] = a0\n 11551: a0 = s1 + 0x360\n 11555: ra = 378, jump @21\n      : @416 [@dyn 189] (gas: 16)\n 11561: a0 = u32 [s1 + 0x374]\n 11565: a0 = a0 << 0x20\n 11568: a1 = u64 [s1 + 0x378]\n 11572: a2 = u64 [s1 + 0x78]\n 11575: a0 = a0 | a2\n 11578: a3 = s1 + 0x2078\n 11582: a2 = u64 [s1 + 0x88]\n 11586: a4 = a3 + 0x100\n 11590: u64 [a4 + 0xd0] = a2\n 11594: a2 = u64 [s1 + 0xf8]\n 11598: u64 [a4 + 0xc8] = a2\n 11602: u64 [a4 + 0xe0] = a1\n 11606: u64 [a4 + 0xd8] = a0\n 11610: a1 = s1 + 0x2240\n 11614: a0 = u64 [s1 + 0x70]\n 11617: ra = 380, jump @23\n      : @417 [@dyn 190] (gas: 3)\n 11623: a0 = s1 + 0x340\n 11627: a1 = u64 [s1 + 0x60]\n 11630: ra = 382, jump @17\n      : @418 [@dyn 191] (gas: 29)\n 11636: t0 = u64 [s1 + 0x340]\n 11640: t1 = u64 [s1 + 0x348]\n 11644: a0 = u64 [s1 + 0xc0]\n 11648: a2 = a0 + 0x3\n 11651: a3 = a2 <u a0\n 11654: a0 = u64 [s1 + 0xc8]\n 11658: a4 = a0 + a3\n 11661: a5 = a4 <u a0\n 11664: a5 = a3 if a3 == 0\n 11667: t2 = u64 [s1 + 0x350]\n 11671: a0 = u64 [s1 + 0x80]\n 11675: a5 = a5 + a0\n 11678: a0 = a5 <u a0\n 11681: a1 = u64 [s1 + 0xd0]\n 11685: a0 = a0 + a1\n 11688: a1 = u64 [s1 + 0x358]\n 11692: a3 = s1 + 0x2078\n 11696: u64 [a3 + 0x200] = a0\n 11700: a0 = a3 + 0x100\n 11704: u64 [a0 + 0xf8] = a5\n 11708: u64 [a0 + 0xf0] = a4\n 11712: u64 [a0 + 0xe8] = a2\n 11716: u64 [a3 + 0x220] = a1\n 11720: u64 [a3 + 0x218] = t2\n 11724: u64 [a3 + 0x210] = t1\n 11728: u64 [a3 + 0x208] = t0\n 11732: a0 = s1 + 0x2260\n 11736: a1 = s1 + 0x2280\n 11740: ra = 384, jump @23\n      : @419 [@dyn 192] (gas: 6)\n 11746: a0 = u64 [s1 + 0x90]\n 11750: ra = 0x182\n 11754: ecalli 3 // 'caller'\n 11756: a2 = u64 [s1 + 0x98]\n 11760: t0 = 0x184\n 11764: jump @1025\n      : @420 [@dyn 193] (gas: 2)\n 11767: a2 = u64 [s1 + 0x98]\n 11771: t0 = 388, jump @1025\n      : @421 [@dyn 194] (gas: 7)\n 11777: u64 [s1 + 824] = 0\n 11781: u64 [s1 + 0x330] = a1\n 11785: u64 [s1 + 0x328] = a0\n 11789: a1 = s1 + 0x320\n 11793: u64 [s1 + 0x320] = a3\n 11797: a0 = 0\n 11799: ra = 390, jump @19\n      : @422 [@dyn 195] (gas: 7)\n 11805: u64 [s1 + 792] = 0\n 11809: u64 [s1 + 784] = 0\n 11813: u64 [s1 + 768] = 0x2\n 11818: a0 = 0x20\n 11821: a1 = s1 + 0x300\n 11825: u64 [s1 + 776] = 0\n 11829: ra = 392, jump @19\n      : @423 [@dyn 196] (gas: 4)\n 11835: a0 = 0x20074\n 11840: u64 [s1 + 0xd0] = a0\n 11844: a0 = i32 [0x20074]\n 11849: jump @425 if a0 >u 63\n      : @424 (gas: 3)\n 11853: a1 = u64 [s1 + 0xd0]\n 11857: u32 [a1 + 0] = 0x40\n 11860: fallthrough\n      : @425 (gas: 14)\n 11861: a0 = sp + 0xffffffffffffffe0\n 11864: a2 = a0 & 0xffffffffffffffe0\n 11867: u64 [s1 + 0xf8] = a2\n 11871: sp = a2\n 11873: a0 = 0x20080\n 11878: i32 a0 = a0 + 0\n 11880: i32 a2 = a2 + 0\n 11882: a1 = 0x40\n 11885: u64 [s1 + 0xc8] = a0\n 11889: ra = 0x18a\n 11893: ecalli 6 // 'hash_keccak_256'\n 11895: a3 = u64 [s1 + 0xf8]\n 11899: t0 = 0x18c\n 11903: jump @1035\n      : @426 [@dyn 197] (gas: 2)\n 11906: a3 = u64 [s1 + 0xf8]\n 11910: t0 = 396, jump @1035\n      : @427 [@dyn 198] (gas: 15)\n 11916: a3 = u64 [s1 + 0xd8]\n 11920: u64 [s1 + 0x2d8] = a3\n 11924: a3 = u64 [s1 + 0xe0]\n 11928: u64 [s1 + 0x2d0] = a3\n 11932: a3 = u64 [s1 + 0xe8]\n 11936: u64 [s1 + 0x2c8] = a3\n 11940: a3 = u64 [s1 + 0xf0]\n 11944: u64 [s1 + 0x2c0] = a3\n 11948: u64 [s1 + 0x2f8] = a2\n 11952: u64 [s1 + 0x2f0] = a1\n 11956: u64 [s1 + 0x2e8] = a0\n 11960: a0 = s1 + 0x2e0\n 11964: a1 = s1 + 0x2c0\n 11968: u64 [s1 + 0x2e0] = a4\n 11972: ra = 398, jump @971\n      : @428 [@dyn 199] (gas: 8)\n 11978: a0 = s1 + 0x2078\n 11982: u64 [a0 + 576] = 0\n 11986: u64 [a0 + 568] = 0\n 11990: u64 [a0 + 560] = 0\n 11994: u64 [a0 + 552] = 0x3\n 11999: a0 = s1 + 0x2a0\n 12003: a1 = s1 + 0x22a0\n 12007: ra = 400, jump @21\n      : @429 [@dyn 200] (gas: 17)\n 12013: a2 = s1 + 0x200\n 12017: a0 = u64 [a2 + 0xa0]\n 12021: a3 = u64 [a2 + 0xb8]\n 12025: a1 = u64 [a2 + 0xa8]\n 12029: a4 = u64 [a2 + 0xb0]\n 12033: a0 = a0 + 0x1\n 12036: a2 = a0 <u 0x1\n 12039: a1 = a1 + a2\n 12042: a2 = a0 | a1\n 12045: a2 = a2 <u 0x1\n 12048: a2 = a2 + a4\n 12051: a4 = a2 <u a4\n 12054: a3 = a3 + a4\n 12057: a4 = a1 | a3\n 12060: a5 = a0 | a2\n 12063: a4 = a4 | a5\n 12066: jump @431 if a4 != 0\n      : @430 (gas: 1)\n 12069: jump @763\n      : @431 (gas: 13)\n 12072: a4 = s1 + 0x2078\n 12076: u64 [a4 + 608] = 0\n 12080: u64 [a4 + 600] = 0\n 12084: u64 [a4 + 592] = 0\n 12088: u64 [a4 + 584] = 0x3\n 12093: a5 = a4 + 0x200\n 12097: u64 [a5 + 0x68] = a0\n 12100: u64 [a5 + 0x70] = a1\n 12103: u64 [a5 + 0x78] = a2\n 12106: u64 [a5 + 0x80] = a3\n 12110: a0 = s1 + 0x22c0\n 12114: a1 = s1 + 0x22e0\n 12118: ra = 402, jump @23\n      : @432 [@dyn 201] (gas: 13)\n 12124: a0 = u64 [s1 + 0xd8]\n 12128: u64 [s1 + 0x278] = a0\n 12132: a0 = u64 [s1 + 0xe0]\n 12136: u64 [s1 + 0x270] = a0\n 12140: a0 = u64 [s1 + 0xe8]\n 12144: u64 [s1 + 0x268] = a0\n 12148: a0 = s1 + 0x280\n 12152: a1 = s1 + 0x260\n 12156: a2 = u64 [s1 + 0xf0]\n 12160: u64 [s1 + 0x260] = a2\n 12164: ra = 0x194\n 12168: t0 = 0x3d6\n 12172: jump @1046\n      : @433 [@dyn 202] (gas: 11)\n 12175: a0 = u64 [s1 + 0x298]\n 12179: u64 [s1 + 0xd8] = a0\n 12183: a0 = u64 [s1 + 0x290]\n 12187: u64 [s1 + 0x88] = a0\n 12191: a0 = u64 [s1 + 0x288]\n 12195: u64 [s1 + 0xc0] = a0\n 12199: a0 = u64 [s1 + 0x280]\n 12203: u64 [s1 + 0xd0] = a0\n 12207: a0 = s1 + 0x240\n 12211: a1 = 0x40\n 12214: ra = 406, jump @17\n      : @434 [@dyn 203] (gas: 17)\n 12220: a4 = s1 + 0x200\n 12224: a2 = u64 [a4 + 0x58]\n 12227: a3 = u64 [a4 + 0x50]\n 12230: a0 = u64 [a4 + 0x48]\n 12233: a1 = u64 [a4 + 0x40]\n 12236: u64 [s1 + 0xf0] = a0\n 12240: u64 [s1 + 0xe8] = a2\n 12244: a0 = a0 | a2\n 12247: u64 [s1 + 0xf8] = a1\n 12251: a1 = a1 | a3\n 12254: a1 = a1 | a0\n 12257: a1 = a1 >> 0x20\n 12260: u64 [s1 + 0xe0] = a3\n 12264: a0 = a0 | a3\n 12267: a0 = a0 << 0x20\n 12270: a0 = a0 | a1\n 12273: jump @436 if a0 == 0\n      : @435 (gas: 1)\n 12276: jump @609\n      : @436 (gas: 7)\n 12279: u64 [s1 + 568] = 0\n 12283: u64 [s1 + 560] = 0\n 12287: u64 [s1 + 552] = 0\n 12291: a1 = s1 + 0x220\n 12295: u64 [s1 + 544] = 0x40\n 12300: a0 = u64 [s1 + 0xf8]\n 12304: ra = 408, jump @19\n      : @437 [@dyn 204] (gas: 3)\n 12310: a1 = u64 [s1 + 0xf8]\n 12314: a0 = a1 + 0x40\n 12317: t0 = 410, jump @1033\n      : @438 [@dyn 205] (gas: 19)\n 12323: a4 = u64 [s1 + 0xe8]\n 12327: a4 = a4 + a1\n 12330: a5 = s1 + 0x100\n 12334: u64 [a5 + 0xc8] = a2\n 12338: u64 [a5 + 0xc0] = a0\n 12342: a0 = u64 [s1 + 0xa0]\n 12346: u64 [a5 + 0xf8] = a0\n 12350: a0 = u64 [s1 + 0xa8]\n 12354: u64 [a5 + 0xf0] = a0\n 12358: a0 = u64 [s1 + 0xb0]\n 12362: u64 [a5 + 0xe8] = a0\n 12366: a0 = u64 [s1 + 0xb8]\n 12370: u64 [a5 + 0xe0] = a0\n 12374: u64 [a5 + 0xd0] = a3\n 12378: a0 = s1 + 0x200\n 12382: a1 = s1 + 0x1e0\n 12386: a2 = s1 + 0x1c0\n 12390: u64 [a5 + 0xd8] = a4\n 12394: ra = 412, jump @881\n      : @439 [@dyn 206] (gas: 13)\n 12400: a1 = s1 + 0x200\n 12404: a0 = u64 [a1 + 0x18]\n 12407: u64 [s1 + 0xa8] = a0\n 12411: a0 = u64 [a1 + 0x10]\n 12414: u64 [s1 + 0xa0] = a0\n 12418: a0 = u64 [a1 + 0x8]\n 12421: u64 [s1 + 0xb0] = a0\n 12425: a0 = u64 [a1]\n 12427: u64 [s1 + 0xb8] = a0\n 12431: a0 = s1 + 0x2000\n 12435: i32 a0 = a0 + 0x300\n 12439: ecalli 7 // 'now'\n 12441: fallthrough\n      : @440 (gas: 10)\n 12442: a0 = u64 [s1 + 0xe0]\n 12446: a1 = u64 [s1 + 0xe8]\n 12450: a0 = a0 | a1\n 12453: a1 = 0xffffffe0\n 12463: a2 = u64 [s1 + 0xf8]\n 12467: a1 = a2 <u a1\n 12470: a2 = u64 [s1 + 0xf0]\n 12474: a1 = 0 if a2 != 0\n 12476: a1 = 0 if a0 != 0\n 12478: jump @442 if a1 != 0\n      : @441 (gas: 1)\n 12481: jump @609\n      : @442 (gas: 15)\n 12484: a0 = s1 + 0x2078\n 12488: a5 = a0 + 0x200\n 12492: a2 = u64 [a5 + 0x88]\n 12496: a1 = u64 [a5 + 0x90]\n 12500: a3 = u64 [a5 + 0x98]\n 12504: a4 = u64 [a5 + 0xa0]\n 12508: a0 = u64 [s1 + 0xf8]\n 12512: i32 a0 = a0 + 0x20\n 12515: a5 = s1 + 0x100\n 12519: u64 [a5 + 0xb8] = a4\n 12523: u64 [a5 + 0xb0] = a3\n 12527: u64 [a5 + 0xa8] = a1\n 12531: a1 = s1 + 0x1a0\n 12535: u64 [a5 + 0xa0] = a2\n 12539: ra = 414, jump @19\n      : @443 [@dyn 207] (gas: 3)\n 12545: a0 = u64 [s1 + 0x90]\n 12549: ecalli 3 // 'caller'\n 12551: fallthrough\n      : @444 (gas: 30)\n 12552: t0 = u64 [s1 + 0xb8]\n 12556: ra = u64 [s1 + 0xf8]\n 12560: t1 = t0 <u ra\n 12563: a5 = u64 [s1 + 0xf0]\n 12567: a1 = u64 [s1 + 0xb0]\n 12571: a3 = a1 ^ a5\n 12574: a2 = a1 <u a5\n 12577: a2 = t1 if a3 == 0\n 12580: a3 = u64 [s1 + 0xe0]\n 12584: a4 = u64 [s1 + 0xa0]\n 12588: a0 = a4 - a3\n 12591: t2 = a4 <u a3\n 12594: a4 = u64 [s1 + 0xe8]\n 12598: a3 = u64 [s1 + 0xa8]\n 12602: a4 = a3 - a4\n 12605: a4 = a4 - t2\n 12608: a3 = a0 <u a2\n 12611: a4 = a4 - a3\n 12614: a2 = a0 - a2\n 12617: a1 = a1 - a5\n 12620: a0 = a1 - t1\n 12623: a1 = t0 - ra\n 12626: a0 = a0 | a4\n 12629: a3 = a1 | a2\n 12632: a3 = a3 | a0\n 12635: a0 = a0 | a2\n 12638: a3 = a3 >> 0x20\n 12641: a0 = a0 << 0x20\n 12644: a0 = a0 | a3\n 12647: jump @446 if a0 == 0\n      : @445 (gas: 1)\n 12650: jump @609\n      : @446 (gas: 42)\n 12653: a3 = u64 [s1 + 0x98]\n 12657: a0 = u64 [a3 + 0x8]\n 12660: a2 = i32 [a3 + 0x10]\n 12663: a3 = u64 [a3]\n 12665: a4 = reverse a0\n 12667: a0 = a4 << 0x20\n 12670: a2 = reverse a2\n 12672: a2 = a2 >> 0x20\n 12675: t0 = a2 | a0\n 12678: a4 = a4 >> 0x20\n 12681: a3 = reverse a3\n 12683: a2 = a3 << 0x20\n 12686: t1 = a2 | a4\n 12689: a3 = a3 >> 0x20\n 12692: u64 [s1 + 344] = 0\n 12696: a0 = u64 [s1 + 0x88]\n 12700: u64 [s1 + 0x170] = a0\n 12704: a0 = u64 [s1 + 0xc0]\n 12708: u64 [s1 + 0x168] = a0\n 12712: a0 = u64 [s1 + 0xd0]\n 12716: u64 [s1 + 0x160] = a0\n 12720: a4 = u64 [0x20050]\n 12725: a5 = u64 [0x20058]\n 12730: a0 = u64 [0x20060]\n 12735: a2 = u64 [0x20068]\n 12740: u64 [s1 + 0x198] = a4\n 12744: a4 = s1 + 0x100\n 12748: u64 [a4 + 0x90] = a5\n 12752: u64 [a4 + 0x88] = a0\n 12756: u64 [a4 + 0x80] = a2\n 12760: u64 [a4 + 0x50] = a3\n 12763: a0 = u64 [s1 + 0xd8]\n 12767: u64 [a4 + 0x78] = a0\n 12770: u64 [s1 + 0x148] = t1\n 12774: a2 = s1 + 0x180\n 12778: a3 = s1 + 0x160\n 12782: a4 = s1 + 0x140\n 12786: u64 [s1 + 0x140] = t0\n 12790: a0 = u64 [s1 + 0xf8]\n 12794: ra = 0x1a0\n 12798: t0 = 0x8\n 12801: jump @1046\n      : @447 [@dyn 208] (gas: 6)\n 12804: a0 = 0\n 12806: a1 = u64 [s1 + 0xc8]\n 12810: a2 = 0\n 12812: ecalli 8 // 'seal_return'\n 12814: a1 = 0x20080\n 12819: jump @739\n      : @448 (gas: 9)\n 12822: u64 [a2 + 1600] = 0\n 12826: u64 [a2 + 1592] = 0\n 12830: u64 [a2 + 1584] = 0\n 12834: u64 [a2 + 1576] = 0\n 12838: a0 = s1 + 0x2000\n 12842: i32 a0 = a0 + 0x6a0\n 12846: ra = 0x1a2\n 12850: ecalli 11 // 'value_transferred'\n 12852: fallthrough\n      : @449 [@dyn 209] (gas: 3)\n 12853: a3 = s1 + 0x2078\n 12857: a4 = a3 + 0x600\n 12861: t0 = 420, jump @1044\n      : @450 [@dyn 210] (gas: 1)\n 12867: jump @452 if a0 == 0\n      : @451 (gas: 1)\n 12870: jump @757\n      : @452 (gas: 3)\n 12873: a0 = u64 [s1 + 0xf8]\n 12877: a0 = i32 [a0]\n 12879: jump @454 if a0 >u 35\n      : @453 (gas: 1)\n 12883: jump @758\n      : @454 (gas: 6)\n 12886: a0 = s1 + 0x2000\n 12890: i32 a0 = a0 + 0x6c0\n 12894: a1 = 0x4\n 12897: ra = 0x1a6\n 12901: ecalli 1 // 'call_data_load'\n 12903: fallthrough\n      : @455 [@dyn 211] (gas: 6)\n 12904: a5 = s1 + 0x2078\n 12908: a3 = a5 + 0x600\n 12912: a0 = u64 [a3 + 0x60]\n 12915: a1 = u64 [a3 + 0x58]\n 12918: a2 = u64 [a3 + 0x50]\n 12921: t0 = 424, jump @1027\n      : @456 [@dyn 212] (gas: 1)\n 12927: jump @458 if a4 != 0\n      : @457 (gas: 1)\n 12930: jump @759\n      : @458 (gas: 25)\n 12933: a3 = u64 [a5 + 0x648]\n 12937: a4 = u64 [s1 + 0xf8]\n 12941: t0 = u32 [a4]\n 12943: t1 = a5\n 12945: a5 = a3 + 0x4\n 12948: a3 = a5 <u a3\n 12951: a4 = a2 + a3\n 12954: a2 = a4 <u a2\n 12957: a2 = a3 if a3 == 0\n 12960: a2 = a2 + a1\n 12963: a1 = a2 <u a1\n 12966: a3 = a0 + a1\n 12969: u64 [t1 + 160] = 0\n 12973: u64 [t1 + 152] = 0\n 12977: u64 [t1 + 144] = 0\n 12981: u64 [t1 + 0x88] = t0\n 12985: u64 [t1 + 0xa8] = a5\n 12989: a5 = t1\n 12991: u64 [a5 + 0xb0] = a4\n 12995: u64 [a5 + 0xb8] = a2\n 12999: a0 = s1 + 0x2140\n 13003: a1 = s1 + 0x2120\n 13007: a2 = s1 + 0x2100\n 13011: u64 [a5 + 0xc0] = a3\n 13015: ra = 426, jump @820\n      : @459 [@dyn 213] (gas: 12)\n 13021: a1 = s1 + 0x2078\n 13025: a0 = u64 [a1 + 0xe0]\n 13029: u64 [s1 + 0xc8] = a0\n 13033: a0 = u64 [a1 + 0xd8]\n 13037: u64 [s1 + 0xc0] = a0\n 13041: a0 = u64 [a1 + 0xd0]\n 13045: u64 [s1 + 0xd0] = a0\n 13049: a0 = u64 [a1 + 0xc8]\n 13053: u64 [s1 + 0xd8] = a0\n 13057: a0 = s1 + 0x20e0\n 13061: a1 = 0x40\n 13064: ra = 428, jump @17\n      : @460 [@dyn 214] (gas: 18)\n 13070: a0 = s1 + 0x2078\n 13074: a1 = u64 [a0 + 0x80]\n 13078: u64 [s1 + 0xe8] = a1\n 13082: a2 = u64 [a0 + 0x78]\n 13085: u64 [s1 + 0xe0] = a2\n 13089: a4 = u64 [a0 + 0x70]\n 13092: u64 [s1 + 0xf0] = a4\n 13096: a3 = u64 [a0 + 0x68]\n 13099: u64 [s1 + 0xf8] = a3\n 13103: u64 [a0 + 0x60] = a1\n 13106: u64 [a0 + 0x58] = a2\n 13109: u64 [a0 + 0x50] = a4\n 13112: a1 = a0\n 13114: a0 = s1 + 0x20c0\n 13118: u64 [a1 + 0x48] = a3\n 13121: ra = 0x1ae\n 13125: t0 = 0x30c\n 13129: jump @1026\n      : @461 [@dyn 215] (gas: 6)\n 13132: a0 = u64 [s1 + 0xe8]\n 13136: a1 = u64 [s1 + 0xf0]\n 13140: a0 = a0 | a1\n 13143: a2 = u64 [s1 + 0xe0]\n 13147: a1 = u64 [s1 + 0xf8]\n 13151: t0 = 432, jump @1036\n      : @462 [@dyn 216] (gas: 1)\n 13157: jump @464 if a0 == 0\n      : @463 (gas: 1)\n 13160: jump @609\n      : @464 (gas: 8)\n 13163: a0 = s1 + 0x2078\n 13167: u64 [a0 + 64] = 0\n 13170: u64 [a0 + 56] = 0\n 13173: u64 [a0 + 48] = 0\n 13176: a1 = s1 + 0x20a0\n 13180: u64 [a0 + 40] = 0x60\n 13184: a0 = u64 [s1 + 0xf8]\n 13188: ra = 434, jump @19\n      : @465 [@dyn 217] (gas: 11)\n 13194: a0 = u64 [s1 + 0xe8]\n 13198: a2 = u64 [s1 + 0xe0]\n 13202: a2 = a2 | a0\n 13205: a3 = 0x100000000\n 13215: a0 = 0xffffffe0\n 13225: a1 = u64 [s1 + 0xf8]\n 13229: a0 = a1 <u a0\n 13232: a1 = u64 [s1 + 0xf0]\n 13236: a0 = 0 if a1 != 0\n 13238: a0 = 0 if a2 != 0\n 13240: jump @467 if a0 != 0\n      : @466 (gas: 1)\n 13243: jump @609\n      : @467 (gas: 13)\n 13246: a0 = u64 [s1 + 0xf8]\n 13250: i32 a0 = a0 + 0x20\n 13253: a1 = s1 + 0x2078\n 13257: u64 [s1 + 0xe8] = a2\n 13261: a2 = a1\n 13263: a4 = 0\n 13265: u64 [a1 + 32] = 0\n 13268: u64 [a1 + 24] = 0\n 13271: u64 [a2 + 8] = 0x60\n 13275: a1 = s1 + 0x2080\n 13279: u64 [a2 + 16] = 0\n 13282: u64 [s1 + 0xe0] = a3\n 13286: ra = 436, jump @19\n      : @468 [@dyn 218] (gas: 9)\n 13292: a2 = u64 [s1 + 0xe8]\n 13296: a0 = u64 [s1 + 0xe0]\n 13300: a0 = a0 + 0xffffffffffffffc0\n 13303: a1 = u64 [s1 + 0xf8]\n 13307: a0 = a1 <u a0\n 13310: a1 = u64 [s1 + 0xf0]\n 13314: a0 = 0 if a1 != 0\n 13316: a0 = 0 if a2 != 0\n 13318: jump @470 if a0 != 0\n      : @469 (gas: 1)\n 13321: jump @609\n      : @470 (gas: 9)\n 13324: a0 = u64 [s1 + 0xf8]\n 13328: i32 a0 = a0 + 0x40\n 13331: a2 = s1 + 0x2078\n 13335: u64 [a2 + 0] = 0\n 13337: u64 [a2 + 4294967288] = 0\n 13340: u64 [a2 + 4294967280] = 0\n 13343: a1 = s1 + 0x2060\n 13347: u64 [a2 + 4294967272] = 0\n 13350: ra = 438, jump @19\n      : @471 [@dyn 219] (gas: 2)\n 13356: a0 = 0xffffffa0\n 13366: t0 = 440, jump @1020\n      : @472 [@dyn 220] (gas: 1)\n 13372: jump @474 if a0 != 0\n      : @473 (gas: 1)\n 13375: jump @609\n      : @474 (gas: 5)\n 13378: a0 = u64 [s1 + 0xf8]\n 13382: i32 a0 = a0 + 0x60\n 13385: t0 = 0x1ba\n 13389: a2 = s1 + 0x1878\n 13393: fallthrough\n      : @475 [@dyn 221] (gas: 6)\n 13394: u64 [a2 + 2016] = 0\n 13398: u64 [a2 + 2008] = 0\n 13402: u64 [a2 + 2000] = 0\n 13406: a1 = s1 + 0x2040\n 13410: u64 [a2 + 1992] = 0\n 13414: ra = 444, jump @19\n      : @476 [@dyn 222] (gas: 3)\n 13420: a0 = s1 + 0x2020\n 13424: a1 = 0x40\n 13427: ra = 446, jump @17\n      : @477 [@dyn 223] (gas: 12)\n 13433: a1 = u64 [s1 + 0xd8]\n 13437: a4 = u64 [s1 + 0xc0]\n 13441: a0 = a1 | a4\n 13444: a2 = u64 [s1 + 0xd0]\n 13448: a3 = u64 [s1 + 0xc8]\n 13452: a2 = a2 | a3\n 13455: a0 = a0 | a2\n 13458: a0 = a0 >> 0x20\n 13461: a2 = a2 | a4\n 13464: a2 = a2 << 0x20\n 13467: a0 = a0 | a2\n 13470: jump @479 if a0 == 0\n      : @478 (gas: 1)\n 13473: jump @609\n      : @479 (gas: 12)\n 13476: a0 = s1 + 0x1878\n 13480: a3 = a0 + 0x700\n 13484: a2 = u64 [a3 + 0xc0]\n 13488: u64 [s1 + 0xf0] = a2\n 13492: a2 = u64 [a3 + 0xb8]\n 13496: u64 [s1 + 0xe8] = a2\n 13500: a2 = u64 [a3 + 0xb0]\n 13504: u64 [s1 + 0xe0] = a2\n 13508: a0 = u64 [a3 + 0xa8]\n 13512: u64 [s1 + 0xf8] = a0\n 13516: a0 = s1 + 0x2000\n 13520: ra = 448, jump @17\n      : @480 [@dyn 224] (gas: 6)\n 13526: a2 = u64 [s1 + 0xe8]\n 13530: a0 = u64 [s1 + 0xf8]\n 13534: a0 = a0 | a2\n 13537: a1 = u64 [s1 + 0xf0]\n 13541: a3 = u64 [s1 + 0xe0]\n 13545: t0 = 450, jump @1022\n      : @481 [@dyn 225] (gas: 1)\n 13551: jump @483 if a0 == 0\n      : @482 (gas: 1)\n 13554: jump @609\n      : @483 (gas: 10)\n 13557: a0 = u64 [s1 + 0xc8]\n 13561: a1 = u64 [s1 + 0xc0]\n 13565: a0 = a0 | a1\n 13568: a1 = 0xffffffe0\n 13578: a3 = u64 [s1 + 0xd8]\n 13582: a1 = a3 <u a1\n 13585: a2 = u64 [s1 + 0xd0]\n 13589: a1 = 0 if a2 != 0\n 13591: a1 = 0 if a0 != 0\n 13593: jump @485 if a1 != 0\n      : @484 (gas: 1)\n 13596: jump @609\n      : @485 (gas: 15)\n 13599: a2 = a3\n 13601: a0 = s1 + 0x1878\n 13605: t0 = u64 [a0 + 0x7a0]\n 13609: a3 = a0 + 0x700\n 13613: a5 = u64 [a3 + 0x98]\n 13617: a1 = u64 [a3 + 0x88]\n 13621: a4 = u64 [a3 + 0x90]\n 13625: a0 = a1 | a5\n 13628: a3 = a4 | t0\n 13631: a0 = a0 | a3\n 13634: a0 = a0 >> 0x20\n 13637: a3 = a3 | a5\n 13640: a3 = a3 << 0x20\n 13643: a0 = a0 | a3\n 13646: jump @487 if a0 == 0\n      : @486 (gas: 1)\n 13649: jump @609\n      : @487 (gas: 8)\n 13652: i32 a0 = a2 + 0x20\n 13655: u64 [s1 + 0xb8] = a0\n 13659: a0 = u64 [s1 + 0xf8]\n 13663: u64 [s1 + 0xd8] = a1\n 13667: u64 [s1 + 0xd0] = a4\n 13671: u64 [s1 + 0xc8] = t0\n 13675: u64 [s1 + 0xc0] = a5\n 13679: ra = 452, jump @29\n      : @488 [@dyn 226] (gas: 4)\n 13685: u64 [s1 + 0xb0] = a0\n 13689: a0 = u64 [s1 + 0xb8]\n 13693: a1 = u64 [s1 + 0xd8]\n 13697: ra = 454, jump @29\n      : @489 [@dyn 227] (gas: 4)\n 13703: a1 = a0\n 13705: a0 = u64 [s1 + 0xb0]\n 13709: a2 = u64 [s1 + 0xd8]\n 13713: ra = 456, jump @0\n      : @490 [@dyn 228] (gas: 20)\n 13719: t2 = u64 [s1 + 0xc0]\n 13723: t1 = u64 [s1 + 0xc8]\n 13727: t0 = u64 [s1 + 0xd0]\n 13731: a0 = u64 [s1 + 0xf8]\n 13735: a1 = u64 [s1 + 0xd8]\n 13739: a0 = a0 + a1\n 13742: a1 = a0 <u a1\n 13745: a2 = u64 [s1 + 0xe0]\n 13749: a2 = a2 + t0\n 13752: a2 = a2 + a1\n 13755: a3 = a2 ^ t0\n 13758: a4 = a2 <u t0\n 13761: a4 = a1 if a3 == 0\n 13764: a1 = u64 [s1 + 0xe8]\n 13768: a1 = a1 + t2\n 13771: a3 = a1 <u t2\n 13774: a5 = u64 [s1 + 0xf0]\n 13778: a5 = a5 + t1\n 13781: a3 = a3 + a5\n 13784: t0 = 458, jump @1014\n      : @491 [@dyn 229] (gas: 1)\n 13790: jump @493 if a1 == 0\n      : @492 (gas: 1)\n 13793: jump @609\n      : @493 (gas: 3)\n 13796: t0 = 0x1cc\n 13800: a2 = s1 + 0x1878\n 13804: fallthrough\n      : @494 [@dyn 230] (gas: 6)\n 13805: u64 [a2 + 1920] = 0\n 13809: u64 [a2 + 1912] = 0\n 13813: u64 [a2 + 1904] = 0\n 13817: a1 = s1 + 0x1fe0\n 13821: u64 [a2 + 1896] = 0\n 13825: ra = 462, jump @19\n      : @495 [@dyn 231] (gas: 10)\n 13831: a0 = u64 [s1 + 0xc8]\n 13835: a1 = u64 [s1 + 0xc0]\n 13839: a0 = a0 | a1\n 13842: a1 = 0xffffffe0\n 13852: a2 = u64 [s1 + 0xd8]\n 13856: a1 = a2 <u a1\n 13859: a3 = u64 [s1 + 0xd0]\n 13863: a1 = 0 if a3 != 0\n 13865: a1 = 0 if a0 != 0\n 13867: jump @497 if a1 != 0\n      : @496 (gas: 1)\n 13870: jump @609\n      : @497 (gas: 4)\n 13873: i32 a1 = a2 + 0x20\n 13876: u64 [s1 + 0xf0] = a1\n 13880: a0 = u64 [s1 + 0xf8]\n 13884: ra = 464, jump @29\n      : @498 [@dyn 232] (gas: 24)\n 13890: a1 = sp + 0xffffffffffffffe0\n 13893: a1 = a1 & 0xffffffffffffffe0\n 13896: u64 [s1 + 0xf8] = a1\n 13900: sp = a1\n 13902: i32 a0 = a0 + 0\n 13904: i32 a2 = a1 + 0\n 13906: a1 = u64 [s1 + 0xf0]\n 13910: ecalli 6 // 'hash_keccak_256'\n 13912: a3 = u64 [s1 + 0xf8]\n 13916: a0 = u64 [a3 + 0x18]\n 13919: a1 = u64 [a3 + 0x10]\n 13922: a2 = u64 [a3 + 0x8]\n 13925: a3 = u64 [a3]\n 13927: a0 = reverse a0\n 13929: u64 [s1 + 0xd0] = a0\n 13933: a0 = reverse a1\n 13935: u64 [s1 + 0xd8] = a0\n 13939: a0 = reverse a2\n 13941: u64 [s1 + 0xe8] = a0\n 13945: a0 = reverse a3\n 13947: u64 [s1 + 0xe0] = a0\n 13951: a0 = s1 + 0x1fc0\n 13955: a1 = 0x40\n 13958: ra = 466, jump @17\n      : @499 [@dyn 233] (gas: 18)\n 13964: a3 = s1 + 0x1878\n 13968: a5 = a3 + 0x700\n 13972: a0 = u64 [a5 + 0x60]\n 13975: u64 [s1 + 0xc8] = a0\n 13979: a1 = u64 [a5 + 0x58]\n 13982: u64 [s1 + 0xc0] = a1\n 13986: a4 = u64 [a5 + 0x50]\n 13989: u64 [s1 + 0xf0] = a4\n 13993: a2 = u64 [a5 + 0x48]\n 13996: u64 [s1 + 0xf8] = a2\n 14000: u64 [a5 + 0x40] = a0\n 14003: u64 [a5 + 0x38] = a1\n 14006: u64 [a5 + 0x30] = a4\n 14009: a0 = s1 + 0x1fa0\n 14013: u64 [a5 + 0x28] = a2\n 14016: ra = 0x1d4\n 14020: t0 = 0x30c\n 14024: jump @1026\n      : @500 [@dyn 234] (gas: 13)\n 14027: a0 = u64 [s1 + 0xe0]\n 14031: a1 = s1 + 0x1878\n 14035: u64 [a1 + 0x700] = a0\n 14039: a0 = u64 [s1 + 0xe8]\n 14043: u64 [a1 + 0x6f8] = a0\n 14047: a0 = u64 [s1 + 0xd8]\n 14051: u64 [a1 + 0x6f0] = a0\n 14055: a3 = a1\n 14057: a0 = s1 + 0x1f80\n 14061: a1 = s1 + 0x1f60\n 14065: a2 = u64 [s1 + 0xd0]\n 14069: u64 [a3 + 0x6e8] = a2\n 14073: ra = 470, jump @857\n      : @501 [@dyn 235] (gas: 6)\n 14079: a0 = u64 [s1 + 0xc8]\n 14083: a1 = u64 [s1 + 0xf0]\n 14087: a0 = a0 | a1\n 14090: a2 = u64 [s1 + 0xc0]\n 14094: a1 = u64 [s1 + 0xf8]\n 14098: t0 = 472, jump @1036\n      : @502 [@dyn 236] (gas: 1)\n 14104: jump @504 if a0 == 0\n      : @503 (gas: 1)\n 14107: jump @609\n      : @504 (gas: 14)\n 14110: a4 = s1 + 0x1878\n 14114: a5 = a4 + 0x700\n 14118: a0 = u64 [a5 + 0x20]\n 14121: a1 = u64 [a5 + 0x18]\n 14124: a2 = u64 [a5 + 0x10]\n 14127: a3 = u64 [a5 + 0x8]\n 14130: a5 = a4 + 0x600\n 14134: u64 [a5 + 0xc8] = a3\n 14138: u64 [a5 + 0xd0] = a2\n 14142: u64 [a5 + 0xd8] = a1\n 14146: a1 = s1 + 0x1f40\n 14150: u64 [a5 + 0xe0] = a0\n 14154: a0 = u64 [s1 + 0xf8]\n 14158: ra = 474, jump @19\n      : @505 [@dyn 237] (gas: 21)\n 14164: a0 = u64 [s1 + 0xd0]\n 14168: a0 = a0 + 0x1\n 14171: a1 = a0 <u 0x1\n 14174: a2 = u64 [s1 + 0xd8]\n 14178: a1 = a1 + a2\n 14181: a2 = a0 | a1\n 14184: a2 = a2 <u 0x1\n 14187: a3 = u64 [s1 + 0xe8]\n 14191: a2 = a2 + a3\n 14194: a3 = a2 <u a3\n 14197: a4 = u64 [s1 + 0xe0]\n 14201: a3 = a3 + a4\n 14204: a4 = s1 + 0x1878\n 14208: a5 = a4 + 0x600\n 14212: u64 [a5 + 0x98] = a2\n 14216: u64 [a5 + 0x90] = a1\n 14220: u64 [a5 + 0x88] = a0\n 14224: a0 = s1 + 0x1f20\n 14228: a1 = s1 + 0x1f00\n 14232: u64 [a5 + 0xa0] = a3\n 14236: ra = 476, jump @857\n      : @506 [@dyn 238] (gas: 13)\n 14242: a0 = u64 [s1 + 0xc8]\n 14246: a2 = u64 [s1 + 0xc0]\n 14250: a2 = a2 | a0\n 14253: a0 = 0x100000000\n 14263: u64 [s1 + 0xc0] = a0\n 14267: a0 = 0xffffffe0\n 14277: a1 = u64 [s1 + 0xf8]\n 14281: a0 = a1 <u a0\n 14284: a1 = u64 [s1 + 0xf0]\n 14288: a0 = 0 if a1 != 0\n 14290: u64 [s1 + 0xc8] = a2\n 14294: a0 = 0 if a2 != 0\n 14296: jump @508 if a0 != 0\n      : @507 (gas: 1)\n 14299: jump @609\n      : @508 (gas: 15)\n 14302: a4 = s1 + 0x1878\n 14306: t0 = u64 [a4 + 0x6c0]\n 14310: a5 = a4 + 0x600\n 14314: a1 = u64 [a5 + 0xb8]\n 14318: a2 = u64 [a5 + 0xb0]\n 14322: a3 = u64 [a5 + 0xa8]\n 14326: a0 = u64 [s1 + 0xf8]\n 14330: i32 a0 = a0 + 0x20\n 14333: u64 [a5 + 0x68] = a3\n 14336: u64 [a5 + 0x70] = a2\n 14339: u64 [a5 + 0x78] = a1\n 14342: a1 = s1 + 0x1ee0\n 14346: u64 [a4 + 0x680] = t0\n 14350: u64 [s1 + 0xb8] = a0\n 14354: ra = 478, jump @19\n      : @509 [@dyn 239] (gas: 3)\n 14360: a1 = u64 [s1 + 0xd0]\n 14364: a0 = a1 + 0x2\n 14367: t0 = 480, jump @1021\n      : @510 [@dyn 240] (gas: 7)\n 14373: u64 [a5 + 0x70] = a2\n 14376: u64 [a5 + 0x68] = a0\n 14379: u64 [a5 + 0x78] = a3\n 14382: u64 [a5 + 0x80] = a1\n 14386: a0 = s1 + 0x1ec0\n 14390: a1 = s1 + 0x26e0\n 14394: ra = 482, jump @21\n      : @511 [@dyn 241] (gas: 9)\n 14400: a0 = u64 [s1 + 0xc0]\n 14404: a0 = a0 + 0xffffffffffffffc0\n 14407: a1 = u64 [s1 + 0xf8]\n 14411: a0 = a1 <u a0\n 14414: a1 = u64 [s1 + 0xf0]\n 14418: a0 = 0 if a1 != 0\n 14420: a1 = u64 [s1 + 0xc8]\n 14424: a0 = 0 if a1 != 0\n 14426: jump @513 if a0 != 0\n      : @512 (gas: 1)\n 14429: jump @609\n      : @513 (gas: 16)\n 14432: a3 = s1 + 0x1878\n 14436: a5 = a3 + 0x600\n 14440: a0 = u64 [a5 + 0x58]\n 14443: a1 = u64 [a5 + 0x50]\n 14446: a2 = u64 [a5 + 0x48]\n 14449: a0 = a0 << 0x20\n 14452: a4 = a0 >> 0x20\n 14455: a0 = u64 [s1 + 0xf8]\n 14459: i32 a0 = a0 + 0x40\n 14462: u64 [a3 + 1600] = 0\n 14466: u64 [a5 + 0x28] = a2\n 14469: u64 [a5 + 0x30] = a1\n 14472: a1 = s1 + 0x1ea0\n 14476: u64 [a5 + 0x38] = a4\n 14479: u64 [s1 + 0xc0] = a0\n 14483: ra = 484, jump @19\n      : @514 [@dyn 242] (gas: 3)\n 14489: a1 = u64 [s1 + 0xd0]\n 14493: a0 = a1 + 0x3\n 14496: t0 = 486, jump @1021\n      : @515 [@dyn 243] (gas: 7)\n 14502: u64 [a5 + 0x98] = a3\n 14506: u64 [a5 + 0x90] = a2\n 14510: u64 [a5 + 0x88] = a0\n 14514: u64 [a5 + 0xa0] = a1\n 14518: a0 = s1 + 0x1e80\n 14522: a1 = s1 + 0x2700\n 14526: ra = 488, jump @21\n      : @516 [@dyn 244] (gas: 8)\n 14532: a0 = 0xffffffa0\n 14542: a1 = u64 [s1 + 0xf8]\n 14546: a0 = a1 <u a0\n 14549: a1 = u64 [s1 + 0xf0]\n 14553: a0 = 0 if a1 != 0\n 14555: a1 = u64 [s1 + 0xc8]\n 14559: a0 = 0 if a1 != 0\n 14561: jump @609 if a0 == 0\n      : @517 (gas: 14)\n 14565: a5 = s1 + 0x1878\n 14569: a4 = u64 [a5 + 0x620]\n 14573: a1 = u64 [a5 + 0x618]\n 14577: a2 = u64 [a5 + 0x610]\n 14581: a3 = u64 [a5 + 0x608]\n 14585: a0 = u64 [s1 + 0xf8]\n 14589: i32 a0 = a0 + 0x60\n 14592: u64 [a5 + 0x5e8] = a3\n 14596: u64 [a5 + 0x5f0] = a2\n 14600: u64 [a5 + 0x5f8] = a1\n 14604: a1 = s1 + 0x1e60\n 14608: u64 [a5 + 0x600] = a4\n 14612: u64 [s1 + 0xd0] = a0\n 14616: ra = 490, jump @19\n      : @518 [@dyn 245] (gas: 3)\n 14622: a0 = s1 + 0x1e40\n 14626: a1 = 0x40\n 14629: ra = 492, jump @17\n      : @519 [@dyn 246] (gas: 3)\n 14635: t0 = 0x1ee\n 14639: a1 = s1 + 0x1878\n 14643: fallthrough\n      : @520 [@dyn 247] (gas: 17)\n 14644: a4 = a1 + 0x500\n 14648: a2 = u64 [a4 + 0xe0]\n 14652: a3 = u64 [a4 + 0xd8]\n 14656: a0 = u64 [a4 + 0xd0]\n 14660: a1 = u64 [a4 + 0xc8]\n 14664: u64 [s1 + 0xe8] = a0\n 14668: u64 [s1 + 0xe0] = a2\n 14672: a0 = a0 | a2\n 14675: u64 [s1 + 0xf0] = a1\n 14679: a1 = a1 | a3\n 14682: a1 = a1 | a0\n 14685: a1 = a1 >> 0x20\n 14688: u64 [s1 + 0xd8] = a3\n 14692: a0 = a0 | a3\n 14695: a0 = a0 << 0x20\n 14698: a0 = a0 | a1\n 14701: jump @609 if a0 != 0\n      : @521 (gas: 8)\n 14705: a2 = s1 + 0x1878\n 14709: u64 [a2 + 1472] = 0\n 14713: u64 [a2 + 1464] = 0\n 14717: u64 [a2 + 1456] = 0\n 14721: a1 = s1 + 0x1e20\n 14725: u64 [a2 + 1448] = 0x20\n 14730: a0 = u64 [s1 + 0xf0]\n 14734: ra = 496, jump @19\n      : @522 [@dyn 248] (gas: 3)\n 14740: a0 = s1 + 0x1e00\n 14744: a1 = u64 [s1 + 0xf8]\n 14748: ra = 498, jump @17\n      : @523 [@dyn 249] (gas: 13)\n 14754: a0 = u64 [s1 + 0xe0]\n 14758: a1 = u64 [s1 + 0xd8]\n 14762: a2 = a1 | a0\n 14765: a0 = 0x100000000\n 14775: u64 [s1 + 0xc8] = a0\n 14779: a0 = 0xffffffe0\n 14789: a1 = u64 [s1 + 0xf0]\n 14793: a0 = a1 <u a0\n 14796: a1 = u64 [s1 + 0xe8]\n 14800: a0 = 0 if a1 != 0\n 14802: u64 [s1 + 0xf8] = a2\n 14806: a0 = 0 if a2 != 0\n 14808: jump @609 if a0 == 0\n      : @524 (gas: 18)\n 14812: a2 = s1 + 0x1878\n 14816: a3 = a2 + 0x500\n 14820: a0 = u64 [a3 + 0xa0]\n 14824: u64 [s1 + 0x98] = a0\n 14828: a0 = u64 [a3 + 0x98]\n 14832: u64 [s1 + 0xa0] = a0\n 14836: a0 = u64 [a3 + 0x90]\n 14840: u64 [s1 + 0xa8] = a0\n 14844: a0 = u64 [a3 + 0x88]\n 14848: u64 [s1 + 0xb0] = a0\n 14852: a0 = u64 [s1 + 0xf0]\n 14856: i32 a0 = a0 + 0x20\n 14859: u64 [a2 + 1408] = 0\n 14863: u64 [a2 + 1400] = 0\n 14867: u64 [a3 + 104] = 0x80\n 14872: a1 = s1 + 0x1de0\n 14876: u64 [a2 + 1392] = 0\n 14880: ra = 500, jump @19\n      : @525 [@dyn 250] (gas: 5)\n 14886: a1 = u64 [s1 + 0xf0]\n 14890: a0 = a1 + 0xa0\n 14894: a1 = a0 <u a1\n 14897: a3 = u64 [s1 + 0xe8]\n 14901: t0 = 502, jump @1030\n      : @526 [@dyn 251] (gas: 24)\n 14907: a1 = u64 [s1 + 0xd8]\n 14911: a3 = a3 + a1\n 14914: a1 = a3 <u a1\n 14917: a4 = u64 [s1 + 0xe0]\n 14921: a4 = a4 + a1\n 14924: a1 = s1 + 0x1878\n 14928: a5 = a1 + 0x500\n 14932: u64 [a5 + 0x10] = a2\n 14935: u64 [a5 + 0x8] = a0\n 14938: a0 = u64 [s1 + 0x98]\n 14942: u64 [a5 + 0x40] = a0\n 14945: a0 = u64 [s1 + 0xa0]\n 14949: u64 [a5 + 0x38] = a0\n 14952: a0 = u64 [s1 + 0xa8]\n 14956: u64 [a5 + 0x30] = a0\n 14959: a0 = u64 [s1 + 0xb0]\n 14963: u64 [a5 + 0x28] = a0\n 14966: u64 [a5 + 0x18] = a3\n 14969: a3 = a1\n 14971: a0 = s1 + 0x1dc0\n 14975: a1 = s1 + 0x1da0\n 14979: a2 = s1 + 0x1d80\n 14983: u64 [a3 + 0x520] = a4\n 14987: ra = 504, jump @881\n      : @527 [@dyn 252] (gas: 3)\n 14993: t0 = 0x1fa\n 14997: a1 = s1 + 0x1878\n 15001: fallthrough\n      : @528 [@dyn 253] (gas: 12)\n 15002: a2 = a1 + 0x500\n 15006: a0 = u64 [a2 + 0x60]\n 15009: u64 [s1 + 0x98] = a0\n 15013: a0 = u64 [a2 + 0x58]\n 15016: u64 [s1 + 0xa0] = a0\n 15020: a0 = u64 [a2 + 0x50]\n 15023: u64 [s1 + 0xa8] = a0\n 15027: a0 = u64 [a2 + 0x48]\n 15030: u64 [s1 + 0xb0] = a0\n 15034: a0 = s1 + 0x1d60\n 15038: a1 = u64 [s1 + 0xb8]\n 15042: ra = 508, jump @17\n      : @529 [@dyn 254] (gas: 3)\n 15048: a0 = u64 [s1 + 0xc8]\n 15052: a0 = a0 + 0xffffffffffffffc0\n 15055: t0 = 510, jump @1032\n      : @530 [@dyn 255] (gas: 1)\n 15061: jump @609 if a0 == 0\n      : @531 (gas: 54)\n 15065: a1 = s1 + 0x1878\n 15069: a0 = u64 [a1 + 0x500]\n 15073: u64 [s1 + 0xb8] = a0\n 15077: a0 = u64 [a1 + 0x4f8]\n 15081: u64 [s1 + 0xc8] = a0\n 15085: a0 = u64 [s1 + 0xf0]\n 15089: a1 = u64 [s1 + 0xb0]\n 15093: a2 = a1 <u a0\n 15096: t2 = a0\n 15098: a3 = u64 [s1 + 0xe8]\n 15102: a4 = u64 [s1 + 0xa8]\n 15106: t0 = a4 ^ a3\n 15109: a0 = a4 <u a3\n 15112: a0 = a2 if t0 == 0\n 15115: t1 = u64 [s1 + 0xd8]\n 15119: t0 = u64 [s1 + 0xa0]\n 15123: ra = t0 - t1\n 15126: a3 = a4 - a3\n 15129: a4 = a3 - a2\n 15132: a3 = a1 - t2\n 15135: a2 = a3 + 0xffffffffffffffe0\n 15138: a5 = a2 <u a3\n 15141: a3 = a4 + a5\n 15144: a3 = a3 + 0xffffffffffffffff\n 15147: a1 = a3 ^ a4\n 15150: a4 = a3 <u a4\n 15153: a4 = a5 if a1 == 0\n 15156: t0 = t0 <u t1\n 15159: a5 = u64 [s1 + 0xe0]\n 15163: a1 = u64 [s1 + 0x98]\n 15167: a5 = a1 - a5\n 15170: a5 = a5 - t0\n 15173: a1 = ra <u a0\n 15176: a5 = a5 - a1\n 15179: t0 = s1 + 0x1878\n 15183: a1 = u64 [t0 + 0x4f0]\n 15187: u64 [s1 + 0x88] = a1\n 15191: a0 = ra - a0\n 15194: a1 = a0 <u 0x1\n 15197: a5 = a5 - a1\n 15200: a1 = u64 [t0 + 0x4e8]\n 15204: u64 [s1 + 0x90] = a1\n 15208: a0 = a0 + 0xffffffffffffffff\n 15211: a4 = a4 + a0\n 15214: a0 = a4 <u a0\n 15217: a5 = a5 + a0\n 15220: i32 a0 = t2 + 0x40\n 15223: u64 [t0 + 0x4c8] = a2\n 15227: a2 = t0 + 0x400\n 15231: u64 [a2 + 0xd0] = a3\n 15235: u64 [a2 + 0xd8] = a4\n 15239: a1 = s1 + 0x1d40\n 15243: u64 [a2 + 0xe0] = a5\n 15247: ra = 512, jump @19\n      : @532 [@dyn 256] (gas: 23)\n 15253: a0 = s1 + 0x1878\n 15257: a1 = u64 [s1 + 0x98]\n 15261: a2 = a0 + 0x400\n 15265: u64 [a2 + 0x80] = a1\n 15269: a1 = u64 [s1 + 0xa0]\n 15273: u64 [a2 + 0x78] = a1\n 15276: a1 = u64 [s1 + 0xa8]\n 15280: u64 [a2 + 0x70] = a1\n 15283: a1 = u64 [s1 + 0xb0]\n 15287: u64 [a2 + 0x68] = a1\n 15290: a1 = u64 [s1 + 0xb8]\n 15294: u64 [a2 + 0xa0] = a1\n 15298: a1 = u64 [s1 + 0xc8]\n 15302: u64 [a2 + 0x98] = a1\n 15306: a1 = u64 [s1 + 0x88]\n 15310: u64 [a2 + 0x90] = a1\n 15314: a4 = a0\n 15316: a0 = s1 + 0x1d20\n 15320: a1 = s1 + 0x1d00\n 15324: a2 = s1 + 0x1ce0\n 15328: a3 = u64 [s1 + 0x90]\n 15332: u64 [a4 + 0x488] = a3\n 15336: ra = 514, jump @881\n      : @533 [@dyn 257] (gas: 3)\n 15342: t0 = 0x204\n 15346: a1 = s1 + 0x1878\n 15350: fallthrough\n      : @534 [@dyn 258] (gas: 12)\n 15351: a2 = a1 + 0x400\n 15355: a0 = u64 [a2 + 0xc0]\n 15359: u64 [s1 + 0xa8] = a0\n 15363: a0 = u64 [a2 + 0xb8]\n 15367: u64 [s1 + 0xa0] = a0\n 15371: a0 = u64 [a2 + 0xb0]\n 15375: u64 [s1 + 0xb0] = a0\n 15379: a0 = u64 [a2 + 0xa8]\n 15383: u64 [s1 + 0xb8] = a0\n 15387: a0 = s1 + 0x1cc0\n 15391: a1 = u64 [s1 + 0xc0]\n 15395: ra = 518, jump @17\n      : @535 [@dyn 259] (gas: 4)\n 15401: a0 = 0x100000000\n 15411: u64 [s1 + 0xc8] = a0\n 15415: a0 = 0xffffffa0\n 15425: t0 = 520, jump @1032\n      : @536 [@dyn 260] (gas: 1)\n 15431: jump @609 if a0 == 0\n      : @537 (gas: 16)\n 15435: a5 = s1 + 0x1878\n 15439: a1 = u64 [a5 + 0x458]\n 15443: a2 = u64 [a5 + 0x450]\n 15447: a3 = u64 [a5 + 0x448]\n 15451: a4 = 0xffffffff\n 15461: a4 = a4 & a1\n 15464: a2 = a2 & 0xffffffffffffffff\n 15467: a3 = a3 & 0xffffffffffffffff\n 15470: a0 = u64 [s1 + 0xf0]\n 15474: i32 a0 = a0 + 0x60\n 15477: u64 [a5 + 1088] = 0\n 15481: u64 [a5 + 0x428] = a3\n 15485: u64 [a5 + 0x430] = a2\n 15489: a1 = s1 + 0x1ca0\n 15493: u64 [a5 + 0x438] = a4\n 15497: ra = 522, jump @19\n      : @538 [@dyn 261] (gas: 3)\n 15503: a0 = s1 + 0x1c80\n 15507: a1 = u64 [s1 + 0xd0]\n 15511: ra = 524, jump @17\n      : @539 [@dyn 262] (gas: 3)\n 15517: a0 = u64 [s1 + 0xc8]\n 15521: a0 = a0 + 0xffffffffffffff80\n 15524: t0 = 526, jump @1032\n      : @540 [@dyn 263] (gas: 1)\n 15530: jump @609 if a0 == 0\n      : @541 (gas: 15)\n 15534: a5 = s1 + 0x1878\n 15538: t0 = u64 [a5 + 0x420]\n 15542: a0 = a5 + 0x400\n 15546: a1 = u64 [a0 + 0x18]\n 15549: a3 = u64 [a0 + 0x10]\n 15552: a4 = u64 [a0 + 0x8]\n 15555: a0 = u64 [s1 + 0xf0]\n 15559: i32 a0 = a0 + 0x80\n 15563: a2 = a5 + 0x300\n 15567: u64 [a2 + 0xe8] = a4\n 15571: u64 [a2 + 0xf0] = a3\n 15575: u64 [a2 + 0xf8] = a1\n 15579: a1 = s1 + 0x1c60\n 15583: u64 [a5 + 0x400] = t0\n 15587: ra = 528, jump @19\n      : @542 [@dyn 264] (gas: 31)\n 15593: t0 = u64 [s1 + 0xb8]\n 15597: ra = u64 [s1 + 0xf0]\n 15601: t1 = t0 <u ra\n 15604: a5 = u64 [s1 + 0xe8]\n 15608: a1 = u64 [s1 + 0xb0]\n 15612: a3 = a1 ^ a5\n 15615: a2 = a1 <u a5\n 15618: a2 = t1 if a3 == 0\n 15621: a3 = u64 [s1 + 0xd8]\n 15625: a4 = u64 [s1 + 0xa0]\n 15629: a0 = a4 - a3\n 15632: t2 = a4 <u a3\n 15635: a4 = u64 [s1 + 0xe0]\n 15639: a3 = u64 [s1 + 0xa8]\n 15643: a4 = a3 - a4\n 15646: a4 = a4 - t2\n 15649: a3 = a0 <u a2\n 15652: a4 = a4 - a3\n 15655: a3 = a0 - a2\n 15658: a2 = a1 - a5\n 15661: a2 = a2 - t1\n 15664: a0 = t0 - ra\n 15667: a2 = a2 | a4\n 15670: a4 = a0\n 15672: a0 = a0 | a3\n 15675: a0 = a0 | a2\n 15678: a1 = a2 | a3\n 15681: a0 = a0 >> 0x20\n 15684: a1 = a1 << 0x20\n 15687: a0 = a0 | a1\n 15690: jump @609 if a0 != 0\n      : @543 (gas: 5)\n 15694: a0 = u64 [s1 + 0xf0]\n 15698: a1 = a4\n 15700: u64 [s1 + 0xf8] = a4\n 15704: ra = 0x2fa\n 15708: jump @29\n      : @544 (gas: 8)\n 15711: u64 [a2 + 1152] = 0\n 15715: u64 [a2 + 1144] = 0\n 15719: u64 [a2 + 1136] = 0\n 15723: u64 [a2 + 1128] = 0\n 15727: a0 = s1 + 0x2000\n 15731: i32 a0 = a0 + 0x4e0\n 15735: ecalli 11 // 'value_transferred'\n 15737: fallthrough\n      : @545 (gas: 10)\n 15738: a3 = s1 + 0x2078\n 15742: a4 = a3 + 0x400\n 15746: a0 = u64 [a4 + 0x78]\n 15749: a1 = u64 [a4 + 0x80]\n 15753: a2 = u64 [a4 + 0x70]\n 15756: a3 = u64 [a4 + 0x68]\n 15759: a1 = a1 | a2\n 15762: a0 = a0 | a3\n 15765: a0 = a0 | a1\n 15768: jump @547 if a0 == 0\n      : @546 (gas: 1)\n 15771: jump @760\n      : @547 (gas: 3)\n 15774: a0 = u64 [s1 + 0xf8]\n 15778: a0 = i32 [a0]\n 15780: jump @549 if a0 >u 67\n      : @548 (gas: 1)\n 15784: jump @761\n      : @549 (gas: 6)\n 15787: a0 = s1 + 0x2000\n 15791: i32 a0 = a0 + 0x500\n 15795: a1 = 0x4\n 15798: ra = 0x212\n 15802: ecalli 1 // 'call_data_load'\n 15804: fallthrough\n      : @550 [@dyn 265] (gas: 6)\n 15805: a5 = s1 + 0x2078\n 15809: a3 = a5 + 0x400\n 15813: a0 = u64 [a3 + 0xa0]\n 15817: a1 = u64 [a3 + 0x98]\n 15821: a2 = u64 [a3 + 0x90]\n 15825: t0 = 532, jump @1027\n      : @551 [@dyn 266] (gas: 1)\n 15831: jump @553 if a4 != 0\n      : @552 (gas: 1)\n 15834: jump @762\n      : @553 (gas: 26)\n 15837: a3 = u64 [a5 + 0x488]\n 15841: a4 = u64 [s1 + 0xf8]\n 15845: t0 = u32 [a4]\n 15847: a5 = a3 + 0x4\n 15850: a3 = a5 <u a3\n 15853: a4 = a2 + a3\n 15856: a2 = a4 <u a2\n 15859: a2 = a3 if a3 == 0\n 15862: a2 = a2 + a1\n 15865: a1 = a2 <u a1\n 15868: a3 = a0 + a1\n 15871: a0 = s1 + 0x1078\n 15875: u64 [a0 + 1088] = 0\n 15879: u64 [a0 + 1080] = 0\n 15883: u64 [a0 + 1072] = 0\n 15887: u64 [a0 + 0x428] = t0\n 15891: a1 = a0 + 0x400\n 15895: u64 [a1 + 0x48] = a5\n 15898: u64 [a1 + 0x50] = a4\n 15901: u64 [a1 + 0x58] = a2\n 15904: a4 = a0\n 15906: a0 = s1 + 0x14e0\n 15910: a1 = s1 + 0x14c0\n 15914: a2 = s1 + 0x14a0\n 15918: u64 [a4 + 0x460] = a3\n 15922: ra = 534, jump @820\n      : @554 [@dyn 267] (gas: 27)\n 15928: a1 = s1 + 0x1078\n 15932: a2 = a1 + 0x400\n 15936: a0 = u64 [a2 + 0x80]\n 15940: u64 [s1 + 0xf0] = a0\n 15944: a0 = u64 [a2 + 0x78]\n 15947: u64 [s1 + 0xe8] = a0\n 15951: a0 = u64 [a2 + 0x70]\n 15954: u64 [s1 + 0xf8] = a0\n 15958: a0 = u64 [a2 + 0x68]\n 15961: u64 [s1 + 0xe0] = a0\n 15965: a0 = s1 + 0x2000\n 15969: i32 a0 = a0 + 0x520\n 15973: a1 = 0x24\n 15976: ecalli 1 // 'call_data_load'\n 15978: a1 = s1 + 0x2078\n 15982: a2 = a1 + 0x400\n 15986: a0 = u64 [a2 + 0xc0]\n 15990: u64 [s1 + 0xa0] = a0\n 15994: a0 = u64 [a2 + 0xb8]\n 15998: u64 [s1 + 0xa8] = a0\n 16002: a0 = u64 [a2 + 0xb0]\n 16006: u64 [s1 + 0xb0] = a0\n 16010: a0 = u64 [a2 + 0xa8]\n 16014: u64 [s1 + 0xb8] = a0\n 16018: a0 = s1 + 0x1480\n 16022: a1 = 0x40\n 16025: ra = 536, jump @17\n      : @555 [@dyn 268] (gas: 1)\n 16031: t0 = 538, jump @1018\n      : @556 [@dyn 269] (gas: 1)\n 16037: jump @609 if a0 != 0\n      : @557 (gas: 12)\n 16041: a0 = s1 + 0x1078\n 16045: a3 = a0 + 0x400\n 16049: a2 = u64 [a3 + 0x20]\n 16052: u64 [s1 + 0xd0] = a2\n 16056: a2 = u64 [a3 + 0x18]\n 16059: u64 [s1 + 0xc8] = a2\n 16063: a2 = u64 [a3 + 0x10]\n 16066: u64 [s1 + 0xc0] = a2\n 16070: a0 = u64 [a3 + 0x8]\n 16073: u64 [s1 + 0xd8] = a0\n 16077: a0 = s1 + 0x1460\n 16081: ra = 540, jump @17\n      : @558 [@dyn 270] (gas: 1)\n 16087: t0 = 542, jump @1016\n      : @559 [@dyn 271] (gas: 1)\n 16093: jump @609 if a0 != 0\n      : @560 (gas: 1)\n 16097: t0 = 544, jump @1015\n      : @561 [@dyn 272] (gas: 1)\n 16103: jump @609 if a1 == 0\n      : @562 (gas: 14)\n 16107: a0 = s1 + 0x1078\n 16111: t0 = u64 [a0 + 0x400]\n 16115: a2 = a0 + 0x300\n 16119: a5 = u64 [a2 + 0xf8]\n 16123: a1 = u64 [a2 + 0xe8]\n 16127: a3 = u64 [a2 + 0xf0]\n 16131: a0 = a1 | a5\n 16134: a2 = a3 | t0\n 16137: a0 = a0 | a2\n 16140: a0 = a0 >> 0x20\n 16143: a2 = a2 | a5\n 16146: a2 = a2 << 0x20\n 16149: a0 = a0 | a2\n 16152: jump @609 if a0 != 0\n      : @563 (gas: 8)\n 16156: i32 a0 = a4 + 0x20\n 16159: u64 [s1 + 0xe0] = a0\n 16163: a0 = u64 [s1 + 0xd8]\n 16167: u64 [s1 + 0xf8] = a1\n 16171: u64 [s1 + 0xf0] = a3\n 16175: u64 [s1 + 0xe8] = t0\n 16179: u64 [s1 + 0x98] = a5\n 16183: ra = 546, jump @29\n      : @564 [@dyn 273] (gas: 4)\n 16189: u64 [s1 + 0x90] = a0\n 16193: a0 = u64 [s1 + 0xe0]\n 16197: a1 = u64 [s1 + 0xf8]\n 16201: ra = 548, jump @29\n      : @565 [@dyn 274] (gas: 4)\n 16207: a1 = a0\n 16209: a0 = u64 [s1 + 0x90]\n 16213: a2 = u64 [s1 + 0xf8]\n 16217: ra = 550, jump @0\n      : @566 [@dyn 275] (gas: 13)\n 16223: t2 = u64 [s1 + 0x98]\n 16227: t1 = u64 [s1 + 0xe8]\n 16231: t0 = u64 [s1 + 0xf0]\n 16235: a0 = u64 [s1 + 0xd8]\n 16239: a1 = u64 [s1 + 0xf8]\n 16243: a0 = a0 + a1\n 16246: a1 = a0 <u a1\n 16249: a2 = u64 [s1 + 0xc0]\n 16253: a2 = a2 + t0\n 16256: a2 = a2 + a1\n 16259: a3 = a2 ^ t0\n 16262: a4 = a2 <u t0\n 16265: t0 = 552, jump @1013\n      : @567 [@dyn 276] (gas: 1)\n 16271: jump @609 if a1 != 0\n      : @568 (gas: 7)\n 16275: a2 = s1 + 0x1078\n 16279: u64 [a2 + 992] = 0\n 16283: u64 [a2 + 984] = 0\n 16287: u64 [a2 + 976] = 0\n 16291: a1 = s1 + 0x1440\n 16295: u64 [a2 + 968] = 0x1\n 16300: ra = 554, jump @19\n      : @569 [@dyn 277] (gas: 6)\n 16306: a0 = sp + 0xffffffffffffffe0\n 16309: a3 = a0 & 0xffffffffffffffe0\n 16312: sp = a3\n 16314: a0 = u64 [s1 + 0xe8]\n 16318: a1 = u64 [s1 + 0x98]\n 16322: t0 = 556, jump @1040\n      : @570 [@dyn 278] (gas: 1)\n 16328: jump @609 if a1 == 0\n      : @571 (gas: 5)\n 16332: i32 a1 = a2 + 0x20\n 16335: u64 [s1 + 0xf8] = a1\n 16339: a0 = u64 [s1 + 0xd8]\n 16343: u64 [s1 + 0xd8] = a3\n 16347: ra = 558, jump @29\n      : @572 [@dyn 279] (gas: 1)\n 16353: t0 = 560, jump @1031\n      : @573 [@dyn 280] (gas: 5)\n 16359: ra = 0x232\n 16363: ecalli 6 // 'hash_keccak_256'\n 16365: a3 = u64 [s1 + 0xf0]\n 16369: t0 = 0x234\n 16373: jump @1017\n      : @574 [@dyn 281] (gas: 2)\n 16376: a3 = u64 [s1 + 0xf0]\n 16380: t0 = 564, jump @1017\n      : @575 [@dyn 282] (gas: 12)\n 16386: u64 [s1 + 0xe0] = a3\n 16390: a4 = u64 [s1 + 0xd8]\n 16394: u64 [a4 + 0x18] = a3\n 16397: u64 [s1 + 0xe8] = a2\n 16401: u64 [a4 + 0x10] = a2\n 16404: u64 [s1 + 0xf0] = a1\n 16408: u64 [a4 + 0x8] = a1\n 16411: u64 [s1 + 0xf8] = a0\n 16415: u64 [a4] = a0\n 16417: a1 = a4\n 16419: a0 = s1 + 0x1420\n 16423: ra = 566, jump @21\n      : @576 [@dyn 283] (gas: 22)\n 16429: ra = s1 + 0x1078\n 16433: a2 = ra + 0x300\n 16437: a0 = u64 [a2 + 0xb0]\n 16441: a1 = u64 [a2 + 0xa8]\n 16445: t2 = u64 [ra + 0x3b8]\n 16449: a5 = u64 [a2 + 0xc0]\n 16453: t1 = u64 [s1 + 0xb0]\n 16457: a4 = t1 ^ a0\n 16460: a0 = t1 <u a0\n 16463: t0 = u64 [s1 + 0xb8]\n 16467: a1 = t0 <u a1\n 16470: a1 = a0 if a4 != 0\n 16473: a3 = u64 [s1 + 0xa0]\n 16477: a0 = a3 ^ a5\n 16480: a2 = a3 <u a5\n 16483: a5 = u64 [s1 + 0xa8]\n 16487: a4 = a5 <u t2\n 16490: a4 = a2 if a0 != 0\n 16493: a2 = a5 ^ t2\n 16496: a0 = a0 | a2\n 16499: a1 = a4 if a0 != 0\n 16502: jump @578 if a1 != 0\n      : @577 (gas: 1)\n 16505: jump @769\n      : @578 (gas: 21)\n 16508: a0 = sp + 0xffffffffffffffe0\n 16511: a0 = a0 & 0xffffffffffffffe0\n 16514: u64 [s1 + 0xd8] = a0\n 16518: sp = a0\n 16520: a4 = ra + 0x300\n 16524: u64 [a4 + 0x40] = a3\n 16527: u64 [a4 + 0x38] = a5\n 16530: u64 [ra + 0x330] = t1\n 16534: u64 [ra + 0x328] = t0\n 16538: a0 = u64 [s1 + 0xe0]\n 16542: u64 [a4 + 0x60] = a0\n 16545: a0 = u64 [s1 + 0xe8]\n 16549: u64 [a4 + 0x58] = a0\n 16552: a0 = u64 [s1 + 0xf0]\n 16556: u64 [a4 + 0x50] = a0\n 16559: a0 = s1 + 0x13e0\n 16563: a1 = s1 + 0x13c0\n 16567: a2 = s1 + 0x13a0\n 16571: a3 = u64 [s1 + 0xf8]\n 16575: u64 [a4 + 0x48] = a3\n 16578: ra = 568, jump @911\n      : @579 [@dyn 284] (gas: 20)\n 16584: a0 = s1 + 0x1078\n 16588: a4 = u64 [a0 + 0x378]\n 16592: u64 [s1 + 0xe0] = a4\n 16596: a0 = s1 + 0x1078\n 16600: a1 = u64 [a0 + 0x380]\n 16604: u64 [s1 + 0xf8] = a1\n 16608: a0 = s1 + 0x1078\n 16612: a2 = u64 [a0 + 0x368]\n 16616: u64 [s1 + 0xe8] = a2\n 16620: a0 = s1 + 0x1078\n 16624: a0 = u64 [a0 + 0x370]\n 16628: u64 [s1 + 0xf0] = a0\n 16632: a3 = u64 [s1 + 0xd8]\n 16636: u64 [a3 + 0x10] = a4\n 16639: u64 [a3 + 0x18] = a1\n 16642: u64 [a3] = a2\n 16644: u64 [a3 + 0x8] = a0\n 16647: a1 = a3\n 16649: a0 = s1 + 0x1380\n 16653: ra = 570, jump @21\n      : @580 [@dyn 285] (gas: 30)\n 16659: a0 = s1 + 0x1078\n 16663: a0 = u64 [a0 + 0x318]\n 16667: u64 [s1 + 0xc8] = a0\n 16671: a0 = s1 + 0x1078\n 16675: a0 = u64 [a0 + 0x310]\n 16679: u64 [s1 + 0xd0] = a0\n 16683: a0 = s1 + 0x1078\n 16687: a0 = u64 [a0 + 0x308]\n 16691: u64 [s1 + 0xd8] = a0\n 16695: a0 = u64 [s1 + 0xe8]\n 16699: a0 = a0 + 0x1\n 16702: a1 = a0 <u 0x1\n 16705: a2 = u64 [s1 + 0xf0]\n 16709: a1 = a1 + a2\n 16712: a2 = s1 + 0x2078\n 16716: a3 = a2 + 0x400\n 16720: u64 [a3 + 0xd0] = a1\n 16724: a1 = a1 | a0\n 16727: u64 [a3 + 0xc8] = a0\n 16731: a0 = a1 <u 0x1\n 16734: a1 = u64 [s1 + 0xe0]\n 16738: a0 = a0 + a1\n 16741: u64 [a3 + 0xd8] = a0\n 16745: a0 = a0 <u a1\n 16748: a1 = u64 [s1 + 0xf8]\n 16752: a0 = a0 + a1\n 16755: u64 [a3 + 0xe0] = a0\n 16759: a0 = s1 + 0x1360\n 16763: a1 = s1 + 0x2540\n 16767: ra = 572, jump @21\n      : @581 [@dyn 286] (gas: 8)\n 16773: a0 = s1 + 0x1078\n 16777: a0 = u32 [a0 + 0x2f8]\n 16781: u64 [s1 + 0xc0] = a0\n 16785: a1 = u64 [s1 + 0xe8]\n 16789: a0 = a1 + 0x2\n 16792: a1 = a0 <u a1\n 16795: a3 = u64 [s1 + 0xf0]\n 16799: t0 = 574, jump @1030\n      : @582 [@dyn 287] (gas: 20)\n 16805: a1 = s1 + 0x1078\n 16809: a1 = u64 [a1 + 0x2f0]\n 16813: u64 [s1 + 0xf0] = a1\n 16817: a1 = u64 [s1 + 0xe0]\n 16821: a3 = a3 + a1\n 16824: a1 = a3 <u a1\n 16827: a4 = u64 [s1 + 0xf8]\n 16831: a1 = a1 + a4\n 16834: a4 = s1 + 0x1078\n 16838: a4 = u64 [a4 + 0x2e8]\n 16842: u64 [s1 + 0xe8] = a4\n 16846: a4 = s1 + 0x2078\n 16850: u64 [a4 + 0x500] = a1\n 16854: a1 = a4 + 0x400\n 16858: u64 [a1 + 0xf8] = a3\n 16862: u64 [a1 + 0xf0] = a2\n 16866: u64 [a1 + 0xe8] = a0\n 16870: a0 = s1 + 0x1340\n 16874: a1 = s1 + 0x2560\n 16878: ra = 576, jump @21\n      : @583 [@dyn 288] (gas: 15)\n 16884: a0 = s1 + 0x1078\n 16888: a0 = u64 [a0 + 0x2e0]\n 16892: u64 [s1 + 0xb8] = a0\n 16896: a0 = s1 + 0x1078\n 16900: a0 = u64 [a0 + 0x2d8]\n 16904: u64 [s1 + 0xb0] = a0\n 16908: a0 = s1 + 0x1078\n 16912: a0 = u64 [a0 + 0x2d0]\n 16916: u64 [s1 + 0xa8] = a0\n 16920: a0 = s1 + 0x1078\n 16924: a0 = u64 [a0 + 0x2c8]\n 16928: u64 [s1 + 0xa0] = a0\n 16932: a0 = s1 + 0x1320\n 16936: a1 = 0x40\n 16939: ra = 578, jump @17\n      : @584 [@dyn 289] (gas: 14)\n 16945: a3 = s1 + 0x1078\n 16949: a1 = a3 + 0x200\n 16953: a5 = u64 [a1 + 0xc0]\n 16957: t0 = u64 [a3 + 0x2b8]\n 16961: a4 = u64 [a1 + 0xb0]\n 16965: a0 = u64 [a1 + 0xa8]\n 16969: a2 = a4 | a5\n 16972: a1 = a0 | t0\n 16975: a1 = a1 | a2\n 16978: a1 = a1 >> 0x20\n 16981: a2 = a2 | t0\n 16984: a2 = a2 << 0x20\n 16987: a1 = a1 | a2\n 16990: jump @609 if a1 != 0\n      : @585 (gas: 18)\n 16994: u64 [s1 + 0xe0] = a4\n 16998: a1 = 0xffffffff\n 17008: a2 = u64 [s1 + 0xc8]\n 17012: a2 = a2 & a1\n 17015: a1 = u64 [s1 + 0xd0]\n 17019: a1 = a1 & 0xffffffffffffffff\n 17022: u64 [s1 + 0xd0] = a5\n 17026: a5 = u64 [s1 + 0xd8]\n 17030: a4 = a5 & 0xffffffffffffffff\n 17033: u64 [a3 + 672] = 0\n 17037: a5 = a3 + 0x200\n 17041: u64 [a5 + 0x88] = a4\n 17045: u64 [a5 + 0x90] = a1\n 17049: a1 = s1 + 0x1300\n 17053: u64 [a5 + 0x98] = a2\n 17057: u64 [s1 + 0xf8] = a0\n 17061: u64 [s1 + 0xd8] = t0\n 17065: ra = 580, jump @19\n      : @586 [@dyn 290] (gas: 6)\n 17071: a3 = u64 [s1 + 0xe0]\n 17075: a1 = u64 [s1 + 0xf8]\n 17079: a0 = u64 [s1 + 0xd0]\n 17083: a2 = u64 [s1 + 0xd8]\n 17087: a2 = a2 | a0\n 17090: t0 = 582, jump @1041\n      : @587 [@dyn 291] (gas: 1)\n 17096: jump @609 if a0 == 0\n      : @588 (gas: 15)\n 17100: i32 a0 = a1 + 0x20\n 17103: a1 = s1 + 0x1078\n 17107: u64 [s1 + 0xd8] = a4\n 17111: a4 = a1\n 17113: u64 [a1 + 640] = 0\n 17117: a1 = u64 [s1 + 0xe8]\n 17121: a3 = a4 + 0x200\n 17125: u64 [a3 + 0x68] = a1\n 17128: a1 = u64 [s1 + 0xf0]\n 17132: u64 [a3 + 0x70] = a1\n 17135: a1 = s1 + 0x12e0\n 17139: u64 [s1 + 0xf0] = a2\n 17143: a2 = u64 [s1 + 0xc0]\n 17147: u64 [a3 + 0x78] = a2\n 17150: ra = 584, jump @19\n      : @589 [@dyn 292] (gas: 9)\n 17156: a3 = u64 [s1 + 0xf8]\n 17160: a0 = u64 [s1 + 0xd8]\n 17164: a0 = a0 + 0xffffffffffffffc0\n 17167: a0 = a3 <u a0\n 17170: a1 = u64 [s1 + 0xe0]\n 17174: a0 = 0 if a1 != 0\n 17176: a1 = u64 [s1 + 0xf0]\n 17180: a0 = 0 if a1 != 0\n 17182: jump @609 if a0 == 0\n      : @590 (gas: 13)\n 17186: i32 a0 = a3 + 0x40\n 17189: a1 = u64 [s1 + 0xa0]\n 17193: a4 = s1 + 0x1078\n 17197: a3 = a4 + 0x200\n 17201: u64 [a3 + 0x48] = a1\n 17204: a1 = u64 [s1 + 0xa8]\n 17208: u64 [a3 + 0x50] = a1\n 17211: a1 = u64 [s1 + 0xb0]\n 17215: u64 [a3 + 0x58] = a1\n 17218: a1 = s1 + 0x12c0\n 17222: a2 = u64 [s1 + 0xb8]\n 17226: u64 [a3 + 0x60] = a2\n 17229: ra = 586, jump @19\n      : @591 [@dyn 293] (gas: 3)\n 17235: a1 = 0x60\n 17238: a0 = u64 [s1 + 0xf8]\n 17242: ra = 588, jump @29\n      : @592 [@dyn 294] (gas: 5)\n 17248: i32 a1 = a0 + 0\n 17250: a2 = 0x60\n 17253: a0 = 0\n 17255: ecalli 8 // 'seal_return'\n 17257: jump @78\n      : @593 (gas: 4)\n 17260: a0 = s1 + 0x7ff\n 17264: a0 = a0 + 0x4e1\n 17268: a1 = 0x40\n 17271: ra = 590, jump @17\n      : @594 [@dyn 295] (gas: 15)\n 17277: a2 = s1 + 0x7ff\n 17281: a2 = a2 + 0x79\n 17284: t0 = u64 [a2 + 0x480]\n 17288: a1 = a2 + 0x400\n 17292: a5 = u64 [a1 + 0x78]\n 17295: a4 = u64 [a1 + 0x70]\n 17298: a0 = u64 [a1 + 0x68]\n 17301: a3 = a4 | t0\n 17304: a1 = a0 | a5\n 17307: a1 = a1 | a3\n 17310: a1 = a1 >> 0x20\n 17313: a3 = a3 | a5\n 17316: a3 = a3 << 0x20\n 17319: a1 = a1 | a3\n 17322: jump @609 if a1 != 0\n      : @595 (gas: 23)\n 17326: a1 = a0 + 0x20\n 17329: u64 [s1 + 0xf0] = a1\n 17333: t1 = a1 <u a0\n 17336: a1 = a4 + t1\n 17339: u64 [s1 + 0xf8] = a1\n 17343: a1 = a1 <u a4\n 17346: a1 = t1 if t1 == 0\n 17349: a1 = a1 + a5\n 17352: u64 [s1 + 0xe0] = a1\n 17356: a1 = a1 <u a5\n 17359: a1 = a1 + t0\n 17362: u64 [s1 + 0xe8] = a1\n 17366: u64 [a2 + 1120] = 0\n 17370: u64 [a2 + 1112] = 0\n 17374: u64 [a2 + 1104] = 0\n 17378: a1 = s1 + 0x7ff\n 17382: a1 = a1 + 0x4c1\n 17386: u64 [a2 + 1096] = 0x20\n 17391: u64 [s1 + 0xb8] = a0\n 17395: u64 [s1 + 0x58] = t0\n 17398: u64 [s1 + 0x50] = a5\n 17401: u64 [s1 + 0x80] = a4\n 17405: ra = 592, jump @19\n      : @596 [@dyn 296] (gas: 4)\n 17411: a0 = s1 + 0x7ff\n 17415: a0 = a0 + 0x4a1\n 17419: a1 = u64 [s1 + 0x48]\n 17422: ra = 594, jump @17\n      : @597 [@dyn 297] (gas: 12)\n 17428: a0 = u64 [s1 + 0xf0]\n 17432: a3 = u64 [s1 + 0xe0]\n 17436: a2 = a0 | a3\n 17439: a1 = u64 [s1 + 0xf8]\n 17443: a4 = u64 [s1 + 0xe8]\n 17447: a1 = a1 | a4\n 17450: a2 = a2 | a1\n 17453: a2 = a2 >> 0x20\n 17456: a1 = a1 | a3\n 17459: a1 = a1 << 0x20\n 17462: a1 = a1 | a2\n 17465: jump @609 if a1 != 0\n      : @598 (gas: 18)\n 17469: a5 = s1 + 0x7ff\n 17473: a5 = a5 + 0x79\n 17476: a4 = u64 [a5 + 0x440]\n 17480: u64 [s1 + 0x40] = a4\n 17483: a2 = u64 [a5 + 0x438]\n 17487: u64 [s1 + 0x38] = a2\n 17490: a1 = u64 [a5 + 0x430]\n 17494: u64 [s1 + 0x48] = a1\n 17497: a3 = u64 [a5 + 0x428]\n 17501: u64 [s1 + 0x30] = a3\n 17504: u64 [a5 + 0x408] = a3\n 17508: a3 = a5 + 0x400\n 17512: u64 [a3 + 0x10] = a1\n 17515: u64 [a3 + 0x18] = a2\n 17518: a1 = s1 + 0x7ff\n 17522: a1 = a1 + 0x481\n 17526: u64 [a3 + 0x20] = a4\n 17529: ra = 596, jump @19\n      : @599 [@dyn 298] (gas: 57)\n 17535: ra = 0\n 17537: a5 = 0\n 17539: u64 [s1 + 176] = 0\n 17543: t1 = 0\n 17545: a0 = u64 [s1 + 0xb8]\n 17549: a3 = a0 + 0x40\n 17552: t0 = a3 <u a0\n 17555: a0 = u64 [s1 + 0x80]\n 17559: a4 = a0 + t0\n 17562: a1 = u64 [s1 + 0x30]\n 17565: a2 = a1 >> 0x3b\n 17568: u64 [s1 + 0xf8] = a2\n 17572: a2 = u64 [s1 + 0x48]\n 17575: a2 = a2 << 0x5\n 17578: t2 = u64 [s1 + 0xf8]\n 17582: t2 = a2 | t2\n 17585: a2 = a1 << 0x5\n 17588: a1 = a4 + t2\n 17591: a2 = a2 + a3\n 17594: u64 [s1 + 0xf8] = a3\n 17598: u64 [s1 + 0xe8] = a2\n 17602: a2 = a2 <u a3\n 17605: a3 = a1 + a2\n 17608: a1 = a3 ^ a4\n 17611: u64 [s1 + 0xe0] = a3\n 17615: a3 = a3 <u a4\n 17618: a3 = a2 if a1 == 0\n 17621: u64 [s1 + 0xd0] = a4\n 17625: a1 = a4 <u a0\n 17628: a1 = t0 if t0 == 0\n 17631: a4 = u64 [s1 + 0x38]\n 17634: a0 = a4 >> 0x3b\n 17637: a2 = u64 [s1 + 0x40]\n 17640: a2 = a2 << 0x5\n 17643: t0 = a2 | a0\n 17646: a2 = u64 [s1 + 0x48]\n 17649: a2 = a2 >> 0x3b\n 17652: a4 = a4 << 0x5\n 17655: t2 = a4 | a2\n 17658: a4 = u64 [s1 + 0xb0]\n 17662: a0 = u64 [s1 + 0x50]\n 17665: a2 = a0 + a1\n 17668: a1 = a2 <u a0\n 17671: a0 = u64 [s1 + 0x58]\n 17674: a1 = a1 + a0\n 17677: a0 = a2 + t2\n 17680: u64 [s1 + 0xc8] = a1\n 17684: t0 = t0 + a1\n 17687: u64 [s1 + 0xc0] = a2\n 17691: a1 = a0 <u a2\n 17694: a2 = t0 + a1\n 17697: a3 = a3 + a0\n 17700: u64 [s1 + 0xd8] = a3\n 17704: a1 = a3 <u a0\n 17707: a1 = a1 + a2\n 17710: u64 [s1 + 0xf0] = a1\n 17714: fallthrough\n      : @600 (gas: 41)\n 17715: t2 = u64 [s1 + 0xb8]\n 17719: a3 = u64 [s1 + 0x80]\n 17723: a0 = u64 [s1 + 0x30]\n 17726: u64 [s1 + 0x98] = ra\n 17730: a0 = ra <u a0\n 17733: a2 = u64 [s1 + 0x48]\n 17736: a1 = a5 ^ a2\n 17739: u64 [s1 + 0x90] = a5\n 17743: a2 = a5 <u a2\n 17746: a2 = a0 if a1 == 0\n 17749: a5 = u64 [s1 + 0x38]\n 17752: ra = a4 <u a5\n 17755: a0 = a4\n 17757: a4 = u64 [s1 + 0x40]\n 17760: a1 = t1 ^ a4\n 17763: u64 [s1 + 0x88] = t1\n 17767: a4 = t1 <u a4\n 17770: a4 = ra if a1 == 0\n 17773: u64 [s1 + 0xb0] = a0\n 17777: a0 = a0 ^ a5\n 17780: a0 = a0 | a1\n 17783: a4 = a2 if a0 == 0\n 17786: t0 = u64 [s1 + 0xe8]\n 17790: t1 = t0 <u t2\n 17793: a5 = u64 [s1 + 0xe0]\n 17797: a0 = a5 ^ a3\n 17800: u64 [s1 + 0xa8] = a0\n 17804: a1 = a3\n 17806: t2 = a5 <u a3\n 17809: a3 = u64 [s1 + 0xd8]\n 17813: a0 = u64 [s1 + 0x50]\n 17816: a2 = a3 - a0\n 17819: a0 = a3 <u a0\n 17822: u64 [s1 + 0xa0] = a0\n 17826: a3 = u64 [s1 + 0xf0]\n 17830: a0 = u64 [s1 + 0x58]\n 17833: ra = a3 - a0\n 17836: a1 = a5 - a1\n 17839: a0 = u64 [s1 + 0xb8]\n 17843: a5 = t0 - a0\n 17846: jump @607 if a4 == 0\n      : @601 (gas: 12)\n 17850: t0 = u64 [s1 + 0xc0]\n 17854: a0 = u64 [s1 + 0xf8]\n 17858: a0 = a0 | t0\n 17861: a3 = u64 [s1 + 0xd0]\n 17865: a4 = u64 [s1 + 0xc8]\n 17869: a4 = a4 | a3\n 17872: a3 = a0 | a4\n 17875: a3 = a3 >> 0x20\n 17878: a4 = a4 | t0\n 17881: a4 = a4 << 0x20\n 17884: a3 = a3 | a4\n 17887: jump @609 if a3 != 0\n      : @602 (gas: 32)\n 17891: a0 = u64 [s1 + 0xa8]\n 17895: t2 = t1 if a0 == 0\n 17898: a3 = a2 <u t2\n 17901: a0 = u64 [s1 + 0xa0]\n 17905: a4 = ra - a0\n 17908: a4 = a4 - a3\n 17911: a2 = a2 - t2\n 17914: a0 = a1 - t1\n 17917: a1 = a2 <u 0x1\n 17920: t0 = a4 - a1\n 17923: a1 = a5 + 0xffffffffffffffc0\n 17926: a3 = a1 <u a5\n 17929: a5 = a0 + a3\n 17932: a5 = a5 + 0xffffffffffffffff\n 17935: a4 = a5 ^ a0\n 17938: a0 = a5 <u a0\n 17941: a0 = a3 if a4 == 0\n 17944: a2 = a2 + 0xffffffffffffffff\n 17947: a0 = a0 + a2\n 17950: a2 = a0 <u a2\n 17953: a2 = a2 + t0\n 17956: a3 = s1 + 0x7ff\n 17960: a3 = a3 + 0x79\n 17963: a4 = a3 + 0x300\n 17967: u64 [a4 + 0xe8] = a1\n 17971: u64 [a4 + 0xf0] = a5\n 17975: u64 [a4 + 0xf8] = a0\n 17979: a1 = s1 + 0x7ff\n 17983: a1 = a1 + 0x461\n 17987: u64 [a3 + 0x400] = a2\n 17991: a0 = u64 [s1 + 0xf8]\n 17995: ra = 598, jump @19\n      : @603 [@dyn 299] (gas: 12)\n 18001: a1 = u64 [s1 + 0x78]\n 18004: a4 = u64 [s1 + 0x68]\n 18007: a0 = a1 | a4\n 18010: a3 = u64 [s1 + 0x70]\n 18013: a5 = u64 [s1 + 0x60]\n 18016: a2 = a3 | a5\n 18019: a0 = a0 | a2\n 18022: a0 = a0 >> 0x20\n 18025: a2 = a2 | a4\n 18028: a2 = a2 << 0x20\n 18031: a0 = a0 | a2\n 18034: jump @609 if a0 != 0\n      : @604 (gas: 7)\n 18038: a0 = s1 + 0x7ff\n 18042: a0 = a0 + 0x441\n 18046: u64 [s1 + 0x78] = a1\n 18049: u64 [s1 + 0x70] = a3\n 18052: u64 [s1 + 0x68] = a4\n 18055: u64 [s1 + 0x60] = a5\n 18058: ra = 600, jump @17\n      : @605 [@dyn 300] (gas: 26)\n 18064: a5 = s1 + 0x7ff\n 18068: a5 = a5 + 0x79\n 18071: a3 = u64 [a5 + 0x3c8]\n 18075: a0 = u64 [a5 + 0x3d0]\n 18079: a1 = u64 [a5 + 0x3d8]\n 18083: a2 = u64 [a5 + 0x3e0]\n 18087: a4 = u64 [s1 + 0xf0]\n 18091: u64 [a5 + 0x380] = a4\n 18095: a4 = u64 [s1 + 0xd8]\n 18099: u64 [a5 + 0x378] = a4\n 18103: a4 = u64 [s1 + 0xe0]\n 18107: u64 [a5 + 0x370] = a4\n 18111: a4 = u64 [s1 + 0xe8]\n 18115: u64 [a5 + 0x368] = a4\n 18119: a4 = a5 + 0x300\n 18123: u64 [a4 + 0xa0] = a2\n 18127: u64 [a4 + 0x98] = a1\n 18131: u64 [a4 + 0x90] = a0\n 18135: a0 = s1 + 0x7ff\n 18139: a0 = a0 + 0x421\n 18143: a1 = s1 + 0x7ff\n 18147: a1 = a1 + 0x401\n 18151: a2 = s1 + 0x7ff\n 18155: a2 = a2 + 0x3e1\n 18159: u64 [a4 + 0x88] = a3\n 18163: ra = 602, jump @881\n      : @606 [@dyn 301] (gas: 59)\n 18169: t1 = s1 + 0x7ff\n 18173: t1 = t1 + 0x79\n 18176: a0 = u64 [t1 + 0x3c0]\n 18180: u64 [s1 + 0xf0] = a0\n 18184: a1 = u64 [s1 + 0x78]\n 18187: a0 = a1 + 0x20\n 18190: u64 [s1 + 0xa8] = a0\n 18194: a2 = a0 <u a1\n 18197: a0 = u64 [s1 + 0x70]\n 18200: t0 = a0 + a2\n 18203: a3 = t0 <u a0\n 18206: a3 = a2 if a2 == 0\n 18209: a0 = u64 [s1 + 0x68]\n 18212: t2 = a0 + a3\n 18215: a3 = t2 <u a0\n 18218: a0 = u64 [s1 + 0x60]\n 18221: a0 = a0 + a3\n 18224: u64 [s1 + 0x60] = a0\n 18227: a0 = u64 [s1 + 0xf8]\n 18231: a3 = a0 + 0x20\n 18234: a5 = a3 <u a0\n 18237: a0 = u64 [s1 + 0xd0]\n 18241: a4 = a0 + a5\n 18244: a0 = a4 <u a0\n 18247: a0 = a5 if a5 == 0\n 18250: a1 = u64 [t1 + 0x3b8]\n 18254: u64 [s1 + 0xd8] = a1\n 18258: a1 = u64 [s1 + 0xc0]\n 18262: a0 = a0 + a1\n 18265: a5 = a0 <u a1\n 18268: a1 = u64 [s1 + 0xc8]\n 18272: a1 = a1 + a5\n 18275: u64 [s1 + 0xc8] = a1\n 18279: ra = u64 [s1 + 0x98]\n 18283: ra = ra + 0x1\n 18286: a5 = ra <u 0x1\n 18289: a2 = u64 [s1 + 0x90]\n 18293: a2 = a2 + a5\n 18296: a5 = ra | a2\n 18299: a5 = a5 <u 0x1\n 18302: a1 = u64 [t1 + 0x3b0]\n 18306: u64 [s1 + 0xe0] = a1\n 18310: a1 = u64 [t1 + 0x3a8]\n 18314: u64 [s1 + 0xe8] = a1\n 18318: a1 = u64 [s1 + 0xb0]\n 18322: a5 = a5 + a1\n 18325: a1 = a5 <u a1\n 18328: t1 = u64 [s1 + 0x88]\n 18332: t1 = t1 + a1\n 18335: a1 = u64 [s1 + 0xa8]\n 18339: u64 [s1 + 0x78] = a1\n 18342: u64 [s1 + 0x70] = t0\n 18345: u64 [s1 + 0x68] = t2\n 18348: u64 [s1 + 0xf8] = a3\n 18352: u64 [s1 + 0xd0] = a4\n 18356: u64 [s1 + 0xc0] = a0\n 18360: a4 = a5\n 18362: a5 = a2\n 18364: jump @600\n      : @607 (gas: 18)\n 18367: a3 = u64 [s1 + 0xa8]\n 18371: t2 = t1 if a3 == 0\n 18374: a3 = a1\n 18376: a1 = a5\n 18378: a5 = a2 <u t2\n 18381: a4 = u64 [s1 + 0xa0]\n 18385: a4 = ra - a4\n 18388: a4 = a4 - a5\n 18391: a2 = a2 - t2\n 18394: a3 = a3 - t1\n 18397: a5 = a1 | a2\n 18400: a3 = a3 | a4\n 18403: a5 = a5 | a3\n 18406: a5 = a5 >> 0x20\n 18409: a2 = a2 | a3\n 18412: a2 = a2 << 0x20\n 18415: a2 = a2 | a5\n 18418: jump @609 if a2 != 0\n      : @608 (gas: 1)\n 18421: jump @770\n      : @609 (gas: 1)\n 18424: trap\n      : @610 (gas: 22)\n 18425: a0 = sp + 0xffffffffffffffe0\n 18428: a1 = a0 & 0xffffffffffffffe0\n 18431: sp = a1\n 18433: a2 = u64 [s1 + 0xa0]\n 18437: a0 = a2 + 0x2\n 18440: a4 = a0 <u a2\n 18443: a3 = u64 [s1 + 0xc0]\n 18447: a2 = a3 + a4\n 18450: a3 = a2 <u a3\n 18453: a3 = a4 if a4 == 0\n 18456: a4 = u64 [s1 + 0xd0]\n 18460: a3 = a3 + a4\n 18463: a4 = a3 <u a4\n 18466: a5 = u64 [s1 + 0xc8]\n 18470: a4 = a4 + a5\n 18473: u64 [a1 + 0x8] = a2\n 18476: u64 [a1] = a0\n 18478: u64 [a1 + 0x10] = a3\n 18481: u64 [a1 + 0x18] = a4\n 18484: a0 = s1 + 0x1b20\n 18488: u64 [s1 + 0x98] = a1\n 18492: ra = 604, jump @21\n      : @611 [@dyn 302] (gas: 15)\n 18498: a0 = s1 + 0x1878\n 18502: a1 = u64 [a0 + 0x2b0]\n 18506: u64 [s1 + 0xd0] = a1\n 18510: a1 = u64 [a0 + 0x2a8]\n 18514: u64 [s1 + 0xc8] = a1\n 18518: a0 = u32 [a0 + 0x2b8]\n 18522: u64 [s1 + 0xc0] = a0\n 18526: a0 = 0x30080\n 18531: u64 [s1 + 0xd8] = a0\n 18535: i32 a0 = a0 + 0\n 18537: u64 [s1 + 0xa0] = a0\n 18541: ra = 0x25e\n 18545: ecalli 3 // 'caller'\n 18547: t0 = 0x260\n 18551: jump @1023\n      : @612 [@dyn 303] (gas: 1)\n 18554: t0 = 608, jump @1023\n      : @613 [@dyn 304] (gas: 9)\n 18560: a2 = u64 [s1 + 0xc0]\n 18564: a1 = a1 ^ a2\n 18567: a2 = u64 [s1 + 0xc8]\n 18571: a0 = a0 ^ a2\n 18574: a0 = a0 | a1\n 18577: a1 = u64 [s1 + 0xd0]\n 18581: a1 = a1 ^ a3\n 18584: a0 = a0 | a1\n 18587: jump @635 if a0 != 0\n      : @614 (gas: 9)\n 18591: a0 = u64 [s1 + 0xa8]\n 18595: a0 = a0 << 0x20\n 18598: a0 = a0 >> 0x20\n 18601: u64 [s1 + 0xc8] = a0\n 18605: a0 = u64 [s1 + 0xa0]\n 18609: ra = 0x262\n 18613: ecalli 3 // 'caller'\n 18615: t0 = 0x264\n 18619: jump @1023\n      : @615 [@dyn 305] (gas: 1)\n 18622: t0 = 612, jump @1023\n      : @616 [@dyn 306] (gas: 12)\n 18628: a2 = u64 [s1 + 0xc8]\n 18632: a1 = a1 ^ a2\n 18635: a2 = u64 [s1 + 0xb8]\n 18639: a0 = a0 ^ a2\n 18642: a0 = a0 | a1\n 18645: a1 = u64 [s1 + 0xb0]\n 18649: a1 = a1 ^ a3\n 18652: a0 = a0 | a1\n 18655: u64 [s1 + 0xc0] = a0\n 18659: a0 = s1 + 0x1a60\n 18663: a1 = 0x40\n 18666: ra = 614, jump @17\n      : @617 [@dyn 307] (gas: 11)\n 18672: a0 = s1 + 0x1878\n 18676: a4 = u64 [a0 + 0x200]\n 18680: a1 = a0 + 0x100\n 18684: a5 = u64 [a1 + 0xf8]\n 18688: a3 = u64 [a1 + 0xf0]\n 18692: a2 = u64 [a1 + 0xe8]\n 18696: a0 = u64 [s1 + 0xc0]\n 18700: u64 [s1 + 0xd0] = a3\n 18704: u64 [s1 + 0x90] = a4\n 18708: u64 [s1 + 0x88] = a5\n 18712: jump @650 if a0 != 0\n      : @618 (gas: 8)\n 18716: a0 = a2 | a5\n 18719: a1 = a3 | a4\n 18722: a0 = a0 | a1\n 18725: a0 = a0 >> 0x20\n 18728: a1 = a1 | a5\n 18731: a1 = a1 << 0x20\n 18734: a0 = a0 | a1\n 18737: jump @609 if a0 != 0\n      : @619 (gas: 10)\n 18741: a3 = s1 + 0x1078\n 18745: u64 [a3 + 1432] = 0\n 18749: u64 [a3 + 1424] = 0\n 18753: u64 [a3 + 1416] = 0\n 18757: a0 = 0x8c379a000000000\n 18767: a1 = s1 + 0x1600\n 18771: u64 [a3 + 0x5a0] = a0\n 18775: a0 = a2\n 18777: u64 [s1 + 0xa8] = a2\n 18781: ra = 616, jump @19\n      : @620 [@dyn 308] (gas: 13)\n 18787: a2 = u64 [s1 + 0xa8]\n 18791: a0 = u64 [s1 + 0x90]\n 18795: a1 = u64 [s1 + 0x88]\n 18799: a1 = a1 | a0\n 18802: a0 = 0x100000000\n 18812: u64 [s1 + 0xf0] = a0\n 18816: a0 = 0xfffffffc\n 18826: a0 = a2 <u a0\n 18829: a3 = u64 [s1 + 0xd0]\n 18833: a0 = 0 if a3 != 0\n 18835: u64 [s1 + 0xf8] = a1\n 18839: a0 = 0 if a1 != 0\n 18841: jump @609 if a0 == 0\n      : @621 (gas: 8)\n 18845: i32 a0 = a2 + 0x4\n 18848: a3 = s1 + 0x1078\n 18852: u64 [a3 + 1408] = 0\n 18856: u64 [a3 + 1400] = 0\n 18860: u64 [a3 + 1384] = 0x20\n 18865: a1 = s1 + 0x15e0\n 18869: u64 [a3 + 1392] = 0\n 18873: ra = 618, jump @19\n      : @622 [@dyn 309] (gas: 9)\n 18879: a0 = u64 [s1 + 0xf0]\n 18883: a0 = a0 + 0xffffffffffffffdc\n 18886: a1 = u64 [s1 + 0xa8]\n 18890: a0 = a1 <u a0\n 18893: a1 = u64 [s1 + 0xd0]\n 18897: a0 = 0 if a1 != 0\n 18899: a1 = u64 [s1 + 0xf8]\n 18903: a0 = 0 if a1 != 0\n 18905: jump @609 if a0 == 0\n      : @623 (gas: 9)\n 18909: a0 = u64 [s1 + 0xa8]\n 18913: i32 a0 = a0 + 0x24\n 18916: a2 = s1 + 0x1078\n 18920: u64 [a2 + 1376] = 0\n 18924: u64 [a2 + 1368] = 0\n 18928: u64 [a2 + 1352] = 0x17\n 18933: a1 = s1 + 0x15c0\n 18937: u64 [a2 + 1360] = 0\n 18941: ra = 620, jump @19\n      : @624 [@dyn 310] (gas: 8)\n 18947: a0 = 0xffffffbc\n 18957: a1 = u64 [s1 + 0xa8]\n 18961: a0 = a1 <u a0\n 18964: a1 = u64 [s1 + 0xd0]\n 18968: a0 = 0 if a1 != 0\n 18970: a1 = u64 [s1 + 0xf8]\n 18974: a0 = 0 if a1 != 0\n 18976: jump @609 if a0 == 0\n      : @625 (gas: 13)\n 18980: a0 = u64 [s1 + 0xa8]\n 18984: i32 a0 = a0 + 0x44\n 18987: a1 = u64 [0x20028]\n 18992: a2 = u64 [0x20030]\n 18997: a3 = u64 [0x20038]\n 19002: a4 = s1 + 0x1078\n 19006: a5 = a4 + 0x500\n 19010: u64 [a5 + 0x40] = a1\n 19013: u64 [a5 + 0x38] = a2\n 19016: u64 [a5 + 0x30] = a3\n 19019: a1 = s1 + 0x15a0\n 19023: u64 [a4 + 1320] = 0\n 19027: ra = 622, jump @19\n      : @626 [@dyn 311] (gas: 4)\n 19033: a1 = 0x64\n 19036: a0 = u64 [s1 + 0xa8]\n 19040: ra = 0x288\n 19044: jump @29\n      : @627 (gas: 8)\n 19047: a2 = a0 | a5\n 19050: a1 = a3 | a4\n 19053: a2 = a2 | a1\n 19056: a2 = a2 >> 0x20\n 19059: a1 = a1 | a5\n 19062: a1 = a1 << 0x20\n 19065: a1 = a1 | a2\n 19068: jump @609 if a1 != 0\n      : @628 (gas: 10)\n 19072: u64 [s1 + 1488] = 0\n 19076: u64 [s1 + 1480] = 0\n 19080: u64 [s1 + 1472] = 0\n 19084: a2 = 0x8c379a000000000\n 19094: a1 = s1 + 0x5c0\n 19098: u64 [s1 + 0x5d8] = a2\n 19102: u64 [s1 + 0xd0] = a3\n 19106: u64 [s1 + 0xc0] = a4\n 19110: u64 [s1 + 0x98] = a5\n 19114: ra = 624, jump @19\n      : @629 [@dyn 312] (gas: 11)\n 19120: a2 = u64 [s1 + 0xd0]\n 19124: a1 = u64 [s1 + 0xf8]\n 19128: a0 = u64 [s1 + 0x98]\n 19132: a3 = u64 [s1 + 0xc0]\n 19136: a3 = a3 | a0\n 19139: a4 = 0x100000000\n 19149: a0 = 0xfffffffc\n 19159: a0 = a1 <u a0\n 19162: a0 = 0 if a2 != 0\n 19164: a0 = 0 if a3 != 0\n 19166: jump @609 if a0 == 0\n      : @630 (gas: 9)\n 19170: i32 a0 = a1 + 0x4\n 19173: u64 [s1 + 1464] = 0\n 19177: u64 [s1 + 1456] = 0\n 19181: u64 [s1 + 1440] = 0x20\n 19186: a1 = s1 + 0x5a0\n 19190: u64 [s1 + 1448] = 0\n 19194: u64 [s1 + 0xf0] = a3\n 19198: u64 [s1 + 0xe8] = a4\n 19202: ra = 626, jump @19\n      : @631 [@dyn 313] (gas: 9)\n 19208: a2 = u64 [s1 + 0xf8]\n 19212: a0 = u64 [s1 + 0xe8]\n 19216: a0 = a0 + 0xffffffffffffffdc\n 19219: a0 = a2 <u a0\n 19222: a1 = u64 [s1 + 0xd0]\n 19226: a0 = 0 if a1 != 0\n 19228: a1 = u64 [s1 + 0xf0]\n 19232: a0 = 0 if a1 != 0\n 19234: jump @609 if a0 == 0\n      : @632 (gas: 7)\n 19238: i32 a0 = a2 + 0x24\n 19241: u64 [s1 + 1432] = 0\n 19245: u64 [s1 + 1424] = 0\n 19249: u64 [s1 + 1408] = 0xb\n 19254: a1 = s1 + 0x580\n 19258: u64 [s1 + 1416] = 0\n 19262: ra = 628, jump @19\n      : @633 [@dyn 314] (gas: 8)\n 19268: a0 = 0xffffffbc\n 19278: a1 = u64 [s1 + 0xf8]\n 19282: a0 = a1 <u a0\n 19285: a1 = u64 [s1 + 0xd0]\n 19289: a0 = 0 if a1 != 0\n 19291: a1 = u64 [s1 + 0xf0]\n 19295: a0 = 0 if a1 != 0\n 19297: jump @609 if a0 == 0\n      : @634 (gas: 11)\n 19301: a0 = u64 [s1 + 0xf8]\n 19305: i32 a0 = a0 + 0x44\n 19308: a1 = u64 [0x20048]\n 19313: u64 [s1 + 1384] = 0\n 19317: u64 [s1 + 0x578] = a1\n 19321: a1 = 0x7374730000000000\n 19331: u64 [s1 + 0x570] = a1\n 19335: a1 = s1 + 0x560\n 19339: u64 [s1 + 1376] = 0\n 19343: ra = 0x286\n 19347: jump @19\n      : @635 (gas: 3)\n 19350: a0 = s1 + 0x1b00\n 19354: a1 = 0x40\n 19357: ra = 630, jump @17\n      : @636 [@dyn 315] (gas: 16)\n 19363: a2 = s1 + 0x1878\n 19367: a5 = a2 + 0x200\n 19371: a3 = u64 [a5 + 0xa0]\n 19375: a4 = u64 [a5 + 0x98]\n 19379: a0 = u64 [a5 + 0x90]\n 19383: a1 = u64 [a5 + 0x88]\n 19387: u64 [s1 + 0xf0] = a0\n 19391: a0 = a0 | a3\n 19394: u64 [s1 + 0xf8] = a1\n 19398: a1 = a1 | a4\n 19401: a1 = a1 | a0\n 19404: a1 = a1 >> 0x20\n 19407: a0 = a0 | a4\n 19410: a0 = a0 << 0x20\n 19413: a0 = a0 | a1\n 19416: jump @609 if a0 != 0\n      : @637 (gas: 10)\n 19420: u64 [a2 + 632] = 0\n 19424: u64 [a2 + 624] = 0\n 19428: u64 [a2 + 616] = 0\n 19432: a0 = 0x8c379a000000000\n 19442: a1 = s1 + 0x1ae0\n 19446: u64 [a2 + 0x280] = a0\n 19450: a0 = u64 [s1 + 0xf8]\n 19454: u64 [s1 + 0xe8] = a3\n 19458: u64 [s1 + 0xe0] = a4\n 19462: ra = 632, jump @19\n      : @638 [@dyn 316] (gas: 13)\n 19468: a0 = u64 [s1 + 0xe8]\n 19472: a2 = u64 [s1 + 0xe0]\n 19476: a2 = a2 | a0\n 19479: a0 = 0x100000000\n 19489: u64 [s1 + 0xe0] = a0\n 19493: a0 = 0xfffffffc\n 19503: a1 = u64 [s1 + 0xf8]\n 19507: a0 = a1 <u a0\n 19510: a1 = u64 [s1 + 0xf0]\n 19514: a0 = 0 if a1 != 0\n 19516: u64 [s1 + 0xe8] = a2\n 19520: a0 = 0 if a2 != 0\n 19522: jump @609 if a0 == 0\n      : @639 (gas: 5)\n 19526: a0 = u64 [s1 + 0xf8]\n 19530: i32 a0 = a0 + 0x4\n 19533: t0 = 0x27a\n 19537: a2 = s1 + 0x1878\n 19541: fallthrough\n      : @640 [@dyn 317] (gas: 6)\n 19542: u64 [a2 + 608] = 0\n 19546: u64 [a2 + 600] = 0\n 19550: u64 [a2 + 584] = 0x20\n 19555: a1 = s1 + 0x1ac0\n 19559: u64 [a2 + 592] = 0\n 19563: ra = 636, jump @19\n      : @641 [@dyn 318] (gas: 3)\n 19569: a0 = u64 [s1 + 0xe0]\n 19573: a0 = a0 + 0xffffffffffffffdc\n 19576: t0 = 638, jump @1020\n      : @642 [@dyn 319] (gas: 1)\n 19582: jump @609 if a0 == 0\n      : @643 (gas: 5)\n 19586: a0 = u64 [s1 + 0xf8]\n 19590: i32 a0 = a0 + 0x24\n 19593: t0 = 0x280\n 19597: a2 = s1 + 0x1878\n 19601: fallthrough\n      : @644 [@dyn 320] (gas: 6)\n 19602: u64 [a2 + 576] = 0\n 19606: u64 [a2 + 568] = 0\n 19610: u64 [a2 + 552] = 0x9\n 19615: a1 = s1 + 0x1aa0\n 19619: u64 [a2 + 560] = 0\n 19623: ra = 642, jump @19\n      : @645 [@dyn 321] (gas: 2)\n 19629: a0 = 0xffffffbc\n 19639: t0 = 644, jump @1020\n      : @646 [@dyn 322] (gas: 1)\n 19645: jump @609 if a0 == 0\n      : @647 (gas: 11)\n 19649: a0 = u64 [s1 + 0xf8]\n 19653: i32 a0 = a0 + 0x44\n 19656: a1 = u64 [0x20000]\n 19661: a2 = s1 + 0x1878\n 19665: u64 [a2 + 528] = 0\n 19669: u64 [a2 + 0x220] = a1\n 19673: a1 = 0x7200000000000000\n 19683: u64 [a2 + 0x218] = a1\n 19687: a1 = s1 + 0x1a80\n 19691: u64 [a2 + 520] = 0\n 19695: ra = 646, jump @19\n      : @648 [@dyn 323] (gas: 3)\n 19701: a1 = 0x64\n 19704: a0 = u64 [s1 + 0xf8]\n 19708: ra = 648, jump @29\n      : @649 [@dyn 324] (gas: 5)\n 19714: i32 a1 = a0 + 0\n 19716: a0 = 0x1\n 19719: a2 = 0x64\n 19722: ecalli 8 // 'seal_return'\n 19724: fallthrough\n      : @650 (gas: 4)\n 19725: a0 = s1 + 0x1a40\n 19729: a1 = u64 [s1 + 0xf8]\n 19733: u64 [s1 + 0xa8] = a2\n 19737: ra = 650, jump @17\n      : @651 [@dyn 325] (gas: 12)\n 19743: a4 = u64 [s1 + 0x88]\n 19747: a2 = u64 [s1 + 0xa8]\n 19751: a0 = a2 | a4\n 19754: a1 = u64 [s1 + 0xd0]\n 19758: a3 = u64 [s1 + 0x90]\n 19762: a1 = a1 | a3\n 19765: a0 = a0 | a1\n 19768: a0 = a0 >> 0x20\n 19771: a1 = a1 | a4\n 19774: a1 = a1 << 0x20\n 19777: a0 = a0 | a1\n 19780: jump @609 if a0 != 0\n      : @652 (gas: 16)\n 19784: a0 = s1 + 0x1878\n 19788: a4 = u64 [a0 + 0x1e0]\n 19792: a5 = u64 [a0 + 0x1d8]\n 19796: a1 = u64 [a0 + 0x1c8]\n 19800: a3 = u64 [a0 + 0x1d0]\n 19804: a0 = a1 | a5\n 19807: u64 [s1 + 0x78] = a3\n 19810: u64 [s1 + 0x70] = a4\n 19813: a3 = a3 | a4\n 19816: a0 = a0 | a3\n 19819: a0 = a0 >> 0x20\n 19822: u64 [s1 + 0x68] = a5\n 19825: a3 = a3 | a5\n 19828: a3 = a3 << 0x20\n 19831: a0 = a0 | a3\n 19834: jump @609 if a0 != 0\n      : @653 (gas: 3)\n 19838: a0 = a2\n 19840: u64 [s1 + 0xc0] = a1\n 19844: ra = 652, jump @29\n      : @654 [@dyn 326] (gas: 4)\n 19850: u64 [s1 + 0x60] = a0\n 19853: a0 = u64 [s1 + 0x80]\n 19857: a1 = u64 [s1 + 0xc0]\n 19861: ra = 654, jump @29\n      : @655 [@dyn 327] (gas: 4)\n 19867: a1 = a0\n 19869: a0 = u64 [s1 + 0x60]\n 19872: a2 = u64 [s1 + 0xc0]\n 19876: ra = 656, jump @0\n      : @656 [@dyn 328] (gas: 7)\n 19882: a1 = u64 [s1 + 0xc0]\n 19886: a0 = u64 [s1 + 0xa8]\n 19890: a0 = a0 + a1\n 19893: a1 = a0 <u a1\n 19896: a2 = u64 [s1 + 0xd0]\n 19900: a4 = u64 [s1 + 0x78]\n 19903: t0 = 658, jump @1028\n      : @657 [@dyn 329] (gas: 9)\n 19909: a1 = u64 [s1 + 0x88]\n 19913: a3 = u64 [s1 + 0x68]\n 19916: a1 = a1 + a3\n 19919: t0 = a1 <u a3\n 19922: a5 = u64 [s1 + 0x90]\n 19926: a3 = u64 [s1 + 0x70]\n 19929: a5 = a5 + a3\n 19932: a3 = a5 + t0\n 19935: t0 = 660, jump @1014\n      : @658 [@dyn 330] (gas: 1)\n 19941: jump @609 if a1 != 0\n      : @659 (gas: 3)\n 19945: t0 = 0x296\n 19949: a2 = s1 + 0x1878\n 19953: fallthrough\n      : @660 [@dyn 331] (gas: 6)\n 19954: u64 [a2 + 448] = 0\n 19958: u64 [a2 + 440] = 0\n 19962: u64 [a2 + 432] = 0\n 19966: a1 = s1 + 0x1a20\n 19970: u64 [a2 + 424] = 0x1\n 19975: ra = 664, jump @19\n      : @661 [@dyn 332] (gas: 14)\n 19981: a0 = sp + 0xffffffffffffffe0\n 19984: a0 = a0 & 0xffffffffffffffe0\n 19987: u64 [s1 + 0x90] = a0\n 19991: sp = a0\n 19993: a0 = u64 [s1 + 0x70]\n 19996: a1 = u64 [s1 + 0x68]\n 19999: a0 = a0 | a1\n 20002: a1 = 0xffffffe0\n 20012: a2 = u64 [s1 + 0xc0]\n 20016: a1 = a2 <u a1\n 20019: a2 = u64 [s1 + 0x78]\n 20022: a1 = 0 if a2 != 0\n 20024: a1 = 0 if a0 != 0\n 20026: jump @609 if a1 == 0\n      : @662 (gas: 5)\n 20030: a0 = u64 [s1 + 0xc0]\n 20034: i32 a1 = a0 + 0x20\n 20037: u64 [s1 + 0xd0] = a1\n 20041: a0 = u64 [s1 + 0xa8]\n 20045: ra = 666, jump @29\n      : @663 [@dyn 333] (gas: 29)\n 20051: a1 = sp + 0xffffffffffffffe0\n 20054: a1 = a1 & 0xffffffffffffffe0\n 20057: u64 [s1 + 0xc0] = a1\n 20061: sp = a1\n 20063: i32 a0 = a0 + 0\n 20065: i32 a2 = a1 + 0\n 20067: a1 = u64 [s1 + 0xd0]\n 20071: ecalli 6 // 'hash_keccak_256'\n 20073: a3 = u64 [s1 + 0xc0]\n 20077: a0 = u64 [a3 + 0x18]\n 20080: a1 = u64 [a3 + 0x10]\n 20083: a2 = u64 [a3 + 0x8]\n 20086: a3 = u64 [a3]\n 20088: a4 = reverse a0\n 20090: a1 = reverse a1\n 20092: a2 = reverse a2\n 20094: a3 = reverse a3\n 20096: a0 = u64 [s1 + 0x90]\n 20100: u64 [s1 + 0x68] = a3\n 20103: u64 [a0 + 0x18] = a3\n 20106: u64 [s1 + 0x70] = a2\n 20109: u64 [a0 + 0x10] = a2\n 20112: u64 [s1 + 0x78] = a1\n 20115: u64 [a0 + 0x8] = a1\n 20118: u64 [s1 + 0x80] = a4\n 20122: u64 [a0] = a4\n 20124: a0 = s1 + 0x1a00\n 20128: a1 = 0x40\n 20131: ra = 668, jump @17\n      : @664 [@dyn 334] (gas: 18)\n 20137: a1 = s1 + 0x1878\n 20141: a5 = a1 + 0x100\n 20145: a0 = u64 [a5 + 0xa0]\n 20149: u64 [s1 + 0xa8] = a0\n 20153: a2 = u64 [a5 + 0x98]\n 20157: u64 [s1 + 0x88] = a2\n 20161: a4 = u64 [a5 + 0x90]\n 20165: u64 [s1 + 0xc0] = a4\n 20169: a3 = u64 [a5 + 0x88]\n 20173: u64 [s1 + 0xd0] = a3\n 20177: u64 [a5 + 0x80] = a0\n 20181: u64 [a5 + 0x78] = a2\n 20184: u64 [a5 + 0x70] = a4\n 20187: a0 = s1 + 0x19e0\n 20191: u64 [a5 + 0x68] = a3\n 20194: ra = 0x29e\n 20198: t0 = 0x31c\n 20202: jump @1026\n      : @665 [@dyn 335] (gas: 4)\n 20205: a0 = u64 [s1 + 0xa0]\n 20209: ra = 0x2a0\n 20213: ecalli 3 // 'caller'\n 20215: fallthrough\n      : @666 [@dyn 336] (gas: 6)\n 20216: a0 = u64 [s1 + 0xa8]\n 20220: a1 = u64 [s1 + 0xc0]\n 20224: a0 = a0 | a1\n 20227: a2 = u64 [s1 + 0x88]\n 20231: a1 = u64 [s1 + 0xd0]\n 20235: t0 = 674, jump @1036\n      : @667 [@dyn 337] (gas: 1)\n 20241: jump @609 if a0 != 0\n      : @668 (gas: 2)\n 20245: a2 = u64 [s1 + 0xd8]\n 20249: t0 = 676, jump @1025\n      : @669 [@dyn 338] (gas: 9)\n 20255: a2 = s1 + 0x1878\n 20259: u64 [a2 + 352] = 0\n 20263: a4 = a2 + 0x100\n 20267: u64 [a4 + 0x58] = a1\n 20270: u64 [a4 + 0x50] = a0\n 20273: a1 = s1 + 0x19c0\n 20277: u64 [a4 + 0x48] = a3\n 20280: a0 = u64 [s1 + 0xd0]\n 20284: ra = 678, jump @19\n      : @670 [@dyn 339] (gas: 13)\n 20290: a0 = u64 [s1 + 0xa8]\n 20294: a1 = u64 [s1 + 0x88]\n 20298: a2 = a1 | a0\n 20301: a0 = 0x100000000\n 20311: u64 [s1 + 0x88] = a0\n 20315: a0 = 0xffffffe0\n 20325: a1 = u64 [s1 + 0xd0]\n 20329: a0 = a1 <u a0\n 20332: a1 = u64 [s1 + 0xc0]\n 20336: a0 = 0 if a1 != 0\n 20338: u64 [s1 + 0xa8] = a2\n 20342: a0 = 0 if a2 != 0\n 20344: jump @609 if a0 == 0\n      : @671 (gas: 15)\n 20348: a0 = u64 [s1 + 0xd0]\n 20352: i32 a3 = a0 + 0x20\n 20355: a0 = s1 + 0x1878\n 20359: u64 [a0 + 320] = 0\n 20363: a1 = u64 [s1 + 0xb8]\n 20367: a4 = a0 + 0x100\n 20371: u64 [a4 + 0x28] = a1\n 20374: a1 = u64 [s1 + 0xb0]\n 20378: u64 [a4 + 0x30] = a1\n 20381: a1 = s1 + 0x19a0\n 20385: a2 = u64 [s1 + 0xc8]\n 20389: u64 [a4 + 0x38] = a2\n 20392: u64 [s1 + 0x60] = a3\n 20395: a0 = a3\n 20397: ra = 680, jump @19\n      : @672 [@dyn 340] (gas: 4)\n 20403: a0 = s1 + 0x2000\n 20407: i32 a0 = a0 + 0x5a0\n 20411: ecalli 7 // 'now'\n 20413: fallthrough\n      : @673 (gas: 9)\n 20414: a0 = u64 [s1 + 0x88]\n 20418: a0 = a0 + 0xffffffffffffffc0\n 20421: a1 = u64 [s1 + 0xd0]\n 20425: a0 = a1 <u a0\n 20428: a1 = u64 [s1 + 0xc0]\n 20432: a0 = 0 if a1 != 0\n 20434: a1 = u64 [s1 + 0xa8]\n 20438: a0 = 0 if a1 != 0\n 20440: jump @609 if a0 == 0\n      : @674 (gas: 17)\n 20444: a3 = s1 + 0x2078\n 20448: a0 = a3 + 0x500\n 20452: a5 = u64 [a0 + 0x28]\n 20455: a1 = u64 [a0 + 0x30]\n 20458: a2 = u64 [a0 + 0x38]\n 20461: a3 = u64 [a0 + 0x40]\n 20464: a4 = u64 [s1 + 0xd0]\n 20468: i32 a0 = a4 + 0x40\n 20471: a4 = s1 + 0x1878\n 20475: u64 [a4 + 0x120] = a3\n 20479: a3 = a4 + 0x100\n 20483: u64 [a3 + 0x18] = a2\n 20486: u64 [a3 + 0x10] = a1\n 20489: a1 = s1 + 0x1980\n 20493: u64 [a3 + 0x8] = a5\n 20496: u64 [s1 + 0x58] = a0\n 20499: ra = 682, jump @19\n      : @675 [@dyn 341] (gas: 3)\n 20505: a0 = s1 + 0x1960\n 20509: a1 = u64 [s1 + 0x90]\n 20513: ra = 684, jump @21\n      : @676 [@dyn 342] (gas: 13)\n 20519: a0 = s1 + 0x1878\n 20523: a5 = u64 [a0 + 0x100]\n 20527: a3 = u64 [a0 + 0xf8]\n 20531: a2 = u64 [a0 + 0xf0]\n 20535: a0 = a5 >u 0\n 20537: a1 = a3 >u 0\n 20539: a1 = a0 if a5 != 0\n 20542: a4 = a3\n 20544: a0 = a3 | a5\n 20547: a3 = a2\n 20549: a2 = a2 >u 0\n 20551: a2 = a1 if a0 != 0\n 20554: jump @772 if a2 != 0\n      : @677 (gas: 23)\n 20558: a0 = s1 + 0x1878\n 20562: a0 = u64 [a0 + 0xe8]\n 20566: u64 [s1 + 0xa8] = a0\n 20570: a0 = a0 + 0x1\n 20573: a1 = a0 <u 0x1\n 20576: u64 [s1 + 0x88] = a3\n 20580: a1 = a1 + a3\n 20583: a2 = a0 | a1\n 20586: a2 = a2 <u 0x1\n 20589: u64 [s1 + 0x50] = a4\n 20592: a2 = a2 + a4\n 20595: a3 = a2 <u a4\n 20598: u64 [s1 + 0x48] = a5\n 20601: a3 = a3 + a5\n 20604: a4 = s1 + 0x2078\n 20608: a5 = a4 + 0x500\n 20612: u64 [a5 + 0x48] = a0\n 20615: u64 [a5 + 0x50] = a1\n 20618: u64 [a5 + 0x58] = a2\n 20621: u64 [a5 + 0x60] = a3\n 20624: a1 = s1 + 0x25c0\n 20628: a0 = u64 [s1 + 0x90]\n 20632: ra = 686, jump @23\n      : @678 [@dyn 343] (gas: 26)\n 20638: a0 = sp + 0xffffffffffffffe0\n 20641: a0 = a0 & 0xffffffffffffffe0\n 20644: u64 [s1 + 0xc0] = a0\n 20648: sp = a0\n 20650: a1 = s1 + 0x1878\n 20654: a0 = u64 [s1 + 0x48]\n 20657: u64 [a1 + 0x80] = a0\n 20661: a0 = u64 [s1 + 0x50]\n 20664: u64 [a1 + 0x78] = a0\n 20667: a0 = u64 [s1 + 0x88]\n 20671: u64 [a1 + 0x70] = a0\n 20674: a0 = u64 [s1 + 0xa8]\n 20678: u64 [a1 + 0x68] = a0\n 20681: a0 = u64 [s1 + 0x68]\n 20684: u64 [a1 + 0xa0] = a0\n 20688: a0 = u64 [s1 + 0x70]\n 20691: u64 [a1 + 0x98] = a0\n 20695: a0 = u64 [s1 + 0x78]\n 20698: u64 [a1 + 0x90] = a0\n 20702: a4 = a1\n 20704: a0 = s1 + 0x1920\n 20708: a1 = s1 + 0x1900\n 20712: a2 = s1 + 0x18e0\n 20716: a3 = u64 [s1 + 0x80]\n 20720: u64 [a4 + 0x88] = a3\n 20724: ra = 688, jump @911\n      : @679 [@dyn 344] (gas: 2)\n 20730: a1 = s1 + 0x1878\n 20734: fallthrough\n      : @680 (gas: 21)\n 20735: t0 = u64 [a1 + 0xd8]\n 20739: t1 = u64 [a1 + 0xc8]\n 20743: t2 = u64 [a1 + 0xe0]\n 20747: a2 = u64 [a1 + 0xd0]\n 20751: a4 = u64 [a1 + 0xb8]\n 20755: a5 = u64 [a1 + 0xc0]\n 20759: a0 = u64 [a1 + 0xa8]\n 20763: a1 = u64 [a1 + 0xb0]\n 20767: u64 [s1 + 0xa8] = a4\n 20771: a3 = u64 [s1 + 0xc0]\n 20775: u64 [a3 + 0x10] = a4\n 20778: u64 [s1 + 0x90] = a5\n 20782: u64 [a3 + 0x18] = a5\n 20785: u64 [s1 + 0x80] = a0\n 20789: u64 [a3] = a0\n 20791: a2 = a2 | t2\n 20794: a0 = t1 | t0\n 20797: a0 = a0 | a2\n 20800: u64 [s1 + 0x88] = a1\n 20804: u64 [a3 + 0x8] = a1\n 20807: jump @779 if a0 != 0\n      : @681 (gas: 5)\n 20811: a0 = 0xffffffff\n 20821: u64 [s1 + 0x78] = a0\n 20824: a0 = s1 + 0x1880\n 20828: a1 = u64 [s1 + 0xd0]\n 20832: ra = 690, jump @17\n      : @682 [@dyn 345] (gas: 14)\n 20838: a2 = s1 + 0x1878\n 20842: a0 = u64 [a2 + 0x8]\n 20845: a1 = u64 [a2 + 0x10]\n 20848: a2 = u64 [a2 + 0x18]\n 20851: a0 = a0 & 0xffffffffffffffff\n 20854: u64 [s1 + 0xd0] = a0\n 20858: a1 = a1 & 0xffffffffffffffff\n 20861: u64 [s1 + 0x70] = a1\n 20864: a0 = u64 [s1 + 0x78]\n 20867: a0 = a0 & a2\n 20870: u64 [s1 + 0x68] = a0\n 20873: a0 = s1 + 0x1860\n 20877: a1 = u64 [s1 + 0xc0]\n 20881: ra = 692, jump @21\n      : @683 [@dyn 346] (gas: 18)\n 20887: a0 = s1 + 0x1078\n 20891: a0 = u32 [a0 + 0x7fc]\n 20895: a0 = a0 << 0x20\n 20898: a1 = s1 + 0x1878\n 20902: a1 = u64 [a1]\n 20904: a2 = u64 [s1 + 0x68]\n 20907: a0 = a0 | a2\n 20910: a2 = s1 + 0x2078\n 20914: a3 = u64 [s1 + 0x70]\n 20917: a4 = a2 + 0x500\n 20921: u64 [a4 + 0x70] = a3\n 20924: a3 = u64 [s1 + 0xd0]\n 20928: u64 [a4 + 0x68] = a3\n 20931: u64 [a4 + 0x80] = a1\n 20935: u64 [a4 + 0x78] = a0\n 20938: a1 = s1 + 0x25e0\n 20942: a0 = u64 [s1 + 0xc0]\n 20946: ra = 694, jump @23\n      : @684 [@dyn 347] (gas: 3)\n 20952: a0 = s1 + 0x1840\n 20956: a1 = u64 [s1 + 0x60]\n 20959: ra = 696, jump @17\n      : @685 [@dyn 348] (gas: 36)\n 20965: a2 = s1 + 0x1078\n 20969: a3 = a2 + 0x700\n 20973: a0 = u64 [a3 + 0xc8]\n 20977: a1 = u64 [a3 + 0xd0]\n 20981: a2 = u64 [a3 + 0xd8]\n 20985: a0 = a0 & 0xffffffffffffffff\n 20988: u64 [s1 + 0xd0] = a0\n 20992: a1 = a1 & 0xffffffffffffffff\n 20995: u64 [s1 + 0xc0] = a1\n 20999: a0 = u64 [s1 + 0x78]\n 21002: a0 = a0 & a2\n 21005: u64 [s1 + 0x78] = a0\n 21008: a0 = sp + 0xffffffffffffffe0\n 21011: t0 = a0 & 0xffffffffffffffe0\n 21014: sp = t0\n 21016: a0 = u64 [s1 + 0x80]\n 21020: a0 = a0 + 0x1\n 21023: a1 = a0 <u 0x1\n 21026: a2 = u64 [s1 + 0x88]\n 21030: a5 = a2 + a1\n 21033: a2 = a0 | a5\n 21036: a2 = a2 <u 0x1\n 21039: a3 = u64 [s1 + 0xa8]\n 21043: a2 = a2 + a3\n 21046: a3 = a2 <u a3\n 21049: a4 = u64 [s1 + 0x90]\n 21053: a3 = a3 + a4\n 21056: a1 = t0\n 21058: a4 = t0\n 21060: u64 [s1 + 0x70] = a4\n 21063: u64 [a4 + 0x18] = a3\n 21066: u64 [a4 + 0x10] = a2\n 21069: u64 [a4 + 0x8] = a5\n 21072: u64 [a4] = a0\n 21074: a0 = s1 + 0x1820\n 21078: ra = 698, jump @21\n      : @686 [@dyn 349] (gas: 17)\n 21084: a1 = s1 + 0x1078\n 21088: a0 = u32 [a1 + 0x7bc]\n 21092: a0 = a0 << 0x20\n 21095: a1 = u64 [a1 + 0x7c0]\n 21099: a2 = u64 [s1 + 0x78]\n 21102: a0 = a0 | a2\n 21105: a2 = s1 + 0x2078\n 21109: a3 = u64 [s1 + 0xc0]\n 21113: a4 = a2 + 0x500\n 21117: u64 [a4 + 0x90] = a3\n 21121: a3 = u64 [s1 + 0xd0]\n 21125: u64 [a4 + 0x88] = a3\n 21129: u64 [a4 + 0xa0] = a1\n 21133: u64 [a4 + 0x98] = a0\n 21137: a1 = s1 + 0x2600\n 21141: a0 = u64 [s1 + 0x70]\n 21144: ra = 700, jump @23\n      : @687 [@dyn 350] (gas: 3)\n 21150: a0 = s1 + 0x1800\n 21154: a1 = u64 [s1 + 0x58]\n 21157: ra = 702, jump @17\n      : @688 [@dyn 351] (gas: 30)\n 21163: a1 = s1 + 0x1078\n 21167: t0 = u64 [a1 + 0x788]\n 21171: t1 = u64 [a1 + 0x790]\n 21175: a0 = u64 [s1 + 0x80]\n 21179: a2 = a0 + 0x2\n 21182: a3 = a2 <u a0\n 21185: a0 = u64 [s1 + 0x88]\n 21189: a4 = a0 + a3\n 21192: a5 = a4 <u a0\n 21195: a5 = a3 if a3 == 0\n 21198: t2 = u64 [a1 + 0x798]\n 21202: a0 = u64 [s1 + 0xa8]\n 21206: a5 = a5 + a0\n 21209: a0 = a5 <u a0\n 21212: a3 = u64 [s1 + 0x90]\n 21216: a0 = a0 + a3\n 21219: ra = u64 [a1 + 0x7a0]\n 21223: a1 = s1 + 0x2078\n 21227: a3 = a1 + 0x500\n 21231: u64 [a3 + 0xc0] = a0\n 21235: u64 [a3 + 0xb8] = a5\n 21239: u64 [a3 + 0xb0] = a4\n 21243: u64 [a3 + 0xa8] = a2\n 21247: u64 [a1 + 0x5e0] = ra\n 21251: u64 [a1 + 0x5d8] = t2\n 21255: u64 [a1 + 0x5d0] = t1\n 21259: u64 [a1 + 0x5c8] = t0\n 21263: a0 = s1 + 0x2620\n 21267: a1 = s1 + 0x2640\n 21271: ra = 704, jump @23\n      : @689 [@dyn 352] (gas: 3)\n 21277: a0 = s1 + 0x17e0\n 21281: a1 = u64 [s1 + 0x98]\n 21285: ra = 706, jump @21\n      : @690 [@dyn 353] (gas: 17)\n 21291: a1 = s1 + 0x1078\n 21295: a0 = u32 [a1 + 0x77c]\n 21299: a0 = a0 << 0x20\n 21302: a1 = u64 [a1 + 0x780]\n 21306: a2 = u64 [s1 + 0xc8]\n 21310: a0 = a0 | a2\n 21313: a2 = s1 + 0x2078\n 21317: a3 = u64 [s1 + 0xb0]\n 21321: a4 = a2 + 0x500\n 21325: u64 [a4 + 0xf0] = a3\n 21329: a3 = u64 [s1 + 0xb8]\n 21333: u64 [a4 + 0xe8] = a3\n 21337: u64 [a2 + 0x600] = a1\n 21341: u64 [a4 + 0xf8] = a0\n 21345: a1 = s1 + 0x2660\n 21349: a0 = u64 [s1 + 0x98]\n 21353: ra = 708, jump @23\n      : @691 [@dyn 354] (gas: 12)\n 21359: a0 = s1 + 0x1078\n 21363: u64 [a0 + 1888] = 0\n 21367: a1 = u64 [s1 + 0xc8]\n 21371: a3 = a0 + 0x700\n 21375: u64 [a3 + 0x58] = a1\n 21378: a1 = u64 [s1 + 0xb0]\n 21382: u64 [a3 + 0x50] = a1\n 21385: a1 = s1 + 0x17c0\n 21389: a2 = u64 [s1 + 0xb8]\n 21393: u64 [a3 + 0x48] = a2\n 21396: a0 = 0\n 21398: ra = 710, jump @19\n      : @692 [@dyn 355] (gas: 3)\n 21404: t0 = 0x2c8\n 21408: a1 = s1 + 0x1078\n 21412: fallthrough\n      : @693 [@dyn 356] (gas: 8)\n 21413: u64 [a1 + 1856] = 0\n 21417: u64 [a1 + 1848] = 0\n 21421: u64 [a1 + 1832] = 0x2\n 21426: a2 = a1\n 21428: a0 = 0x20\n 21431: a1 = s1 + 0x17a0\n 21435: u64 [a2 + 1840] = 0\n 21439: ra = 714, jump @19\n      : @694 [@dyn 357] (gas: 2)\n 21445: a1 = i32 [0x20074]\n 21450: jump @696 if a1 >u 63\n      : @695 (gas: 2)\n 21454: u32 [0x20074] = 0x40\n 21460: fallthrough\n      : @696 (gas: 14)\n 21461: a0 = sp + 0xffffffffffffffe0\n 21464: a2 = a0 & 0xffffffffffffffe0\n 21467: u64 [s1 + 0xd0] = a2\n 21471: sp = a2\n 21473: a0 = 0x20080\n 21478: i32 a0 = a0 + 0\n 21480: i32 a2 = a2 + 0\n 21482: a1 = 0x40\n 21485: u64 [s1 + 0xc0] = a0\n 21489: ra = 0x2cc\n 21493: ecalli 6 // 'hash_keccak_256'\n 21495: a3 = u64 [s1 + 0xd0]\n 21499: t0 = 0x2ce\n 21503: jump @1035\n      : @697 [@dyn 358] (gas: 2)\n 21506: a3 = u64 [s1 + 0xd0]\n 21510: t0 = 718, jump @1035\n      : @698 [@dyn 359] (gas: 17)\n 21516: a3 = s1 + 0x1078\n 21520: a5 = u64 [s1 + 0xe0]\n 21524: u64 [a3 + 0x700] = a5\n 21528: a5 = u64 [s1 + 0xf0]\n 21532: u64 [a3 + 0x6f8] = a5\n 21536: a5 = u64 [s1 + 0xe8]\n 21540: u64 [a3 + 0x6f0] = a5\n 21544: a5 = u64 [s1 + 0xf8]\n 21548: u64 [a3 + 0x6e8] = a5\n 21552: a5 = a3 + 0x700\n 21556: u64 [a5 + 0x20] = a2\n 21559: u64 [a5 + 0x18] = a1\n 21562: u64 [a5 + 0x10] = a0\n 21565: a0 = s1 + 0x1780\n 21569: a1 = s1 + 0x1760\n 21573: u64 [a5 + 0x8] = a4\n 21576: ra = 720, jump @971\n      : @699 [@dyn 360] (gas: 15)\n 21582: a3 = s1 + 0x1078\n 21586: a0 = u64 [s1 + 0xe0]\n 21590: a4 = a3 + 0x600\n 21594: u64 [a4 + 0xc0] = a0\n 21598: a0 = u64 [s1 + 0xf0]\n 21602: u64 [a4 + 0xb8] = a0\n 21606: a0 = u64 [s1 + 0xe8]\n 21610: u64 [a4 + 0xb0] = a0\n 21614: a0 = s1 + 0x1740\n 21618: a1 = s1 + 0x1720\n 21622: a2 = u64 [s1 + 0xf8]\n 21626: u64 [a4 + 0xa8] = a2\n 21630: ra = 0x2d2\n 21634: t0 = 0x3d6\n 21638: jump @1046\n      : @700 [@dyn 361] (gas: 3)\n 21641: t0 = 0x2d4\n 21645: a1 = s1 + 0x1078\n 21649: fallthrough\n      : @701 [@dyn 362] (gas: 12)\n 21650: a2 = a1 + 0x600\n 21654: a0 = u64 [a2 + 0xe0]\n 21658: u64 [s1 + 0x90] = a0\n 21662: a0 = u64 [a2 + 0xd8]\n 21666: u64 [s1 + 0x98] = a0\n 21670: a0 = u64 [a2 + 0xd0]\n 21674: u64 [s1 + 0xa8] = a0\n 21678: a0 = u64 [a2 + 0xc8]\n 21682: u64 [s1 + 0xd0] = a0\n 21686: a0 = s1 + 0x1700\n 21690: a1 = 0x40\n 21693: ra = 726, jump @17\n      : @702 [@dyn 363] (gas: 15)\n 21699: a0 = s1 + 0x1078\n 21703: a2 = a0 + 0x600\n 21707: a1 = u64 [a2 + 0xa0]\n 21711: u64 [s1 + 0xf0] = a1\n 21715: a1 = u64 [a2 + 0x98]\n 21719: u64 [s1 + 0xe8] = a1\n 21723: a1 = u64 [a2 + 0x90]\n 21727: u64 [s1 + 0xe0] = a1\n 21731: a0 = u64 [a2 + 0x88]\n 21735: u64 [s1 + 0xf8] = a0\n 21739: a0 = s1 + 0x2000\n 21743: i32 a0 = a0 + 0x680\n 21747: ra = 0x2d8\n 21751: ecalli 7 // 'now'\n 21753: fallthrough\n      : @703 [@dyn 364] (gas: 7)\n 21754: a0 = u64 [s1 + 0xf0]\n 21758: a1 = u64 [s1 + 0xe0]\n 21762: a0 = a0 | a1\n 21765: a1 = u64 [s1 + 0xf8]\n 21769: a5 = a1\n 21771: a2 = u64 [s1 + 0xe8]\n 21775: t0 = 730, jump @1036\n      : @704 [@dyn 365] (gas: 1)\n 21781: jump @609 if a0 != 0\n      : @705 (gas: 15)\n 21785: a3 = s1 + 0x2078\n 21789: a4 = a3 + 0x600\n 21793: a0 = u64 [a4 + 0x8]\n 21796: a1 = u64 [a4 + 0x10]\n 21799: a2 = u64 [a4 + 0x18]\n 21802: a3 = u64 [a4 + 0x20]\n 21805: a4 = s1 + 0x1078\n 21809: u64 [a4 + 0x680] = a3\n 21813: a3 = a4 + 0x600\n 21817: u64 [a3 + 0x78] = a2\n 21820: u64 [a3 + 0x70] = a1\n 21823: a1 = s1 + 0x16e0\n 21827: u64 [a3 + 0x68] = a0\n 21830: a0 = a5\n 21832: ra = 732, jump @19\n      : @706 [@dyn 366] (gas: 77)\n 21838: a0 = u64 [s1 + 0xa0]\n 21842: ecalli 3 // 'caller'\n 21844: a2 = u64 [s1 + 0xd8]\n 21848: a0 = u64 [a2 + 0x8]\n 21851: a1 = i32 [a2 + 0x10]\n 21854: a2 = u64 [a2]\n 21856: a3 = reverse a0\n 21858: a0 = a3 << 0x20\n 21861: a1 = reverse a1\n 21863: a1 = a1 >> 0x20\n 21866: t0 = a1 | a0\n 21869: a3 = a3 >> 0x20\n 21872: a2 = reverse a2\n 21874: a1 = a2 << 0x20\n 21877: a1 = a1 | a3\n 21880: a2 = a2 >> 0x20\n 21883: a3 = u64 [s1 + 0xc8]\n 21887: a0 = s1 + 0x1078\n 21891: a4 = a0 + 0x500\n 21895: u64 [a4 + 0xf8] = a3\n 21899: a3 = u64 [s1 + 0xb0]\n 21903: u64 [a4 + 0xf0] = a3\n 21907: a3 = u64 [s1 + 0xb8]\n 21911: u64 [a4 + 0xe8] = a3\n 21915: a3 = u64 [s1 + 0x90]\n 21919: u64 [a0 + 0x640] = a3\n 21923: a3 = u64 [0x20008]\n 21928: a4 = u64 [s1 + 0x98]\n 21932: u64 [a0 + 0x638] = a4\n 21936: a4 = u64 [s1 + 0xa8]\n 21940: u64 [a0 + 0x630] = a4\n 21944: a4 = u64 [s1 + 0xd0]\n 21948: u64 [a0 + 0x628] = a4\n 21952: u64 [a0 + 0x660] = a3\n 21956: a3 = u64 [0x20010]\n 21961: a4 = u64 [0x20018]\n 21966: a5 = u64 [0x20020]\n 21971: u64 [a0 + 0x658] = a3\n 21975: u64 [a0 + 1536] = 0\n 21979: a3 = a0 + 0x600\n 21983: u64 [a3 + 0x50] = a4\n 21986: u64 [a3 + 0x48] = a5\n 21989: u64 [a3 + 0x18] = a2\n 21992: u64 [a3 + 0x10] = a1\n 21995: u64 [a0 + 0x608] = t0\n 21999: a1 = 0x20\n 22002: a2 = s1 + 0x16c0\n 22006: a3 = s1 + 0x16a0\n 22010: a4 = s1 + 0x1680\n 22014: a5 = s1 + 0x1660\n 22018: u64 [a0 + 1568] = 0\n 22022: a0 = u64 [s1 + 0xf8]\n 22026: ra = 0x2de\n 22030: sp = sp + 0xfffffffffffffee0\n 22034: u64 [sp + 0x118] = ra\n 22038: u64 [sp + 0x110] = s0\n 22042: u64 [sp + 0x108] = s1\n 22046: s0 = sp + 0x120\n 22050: sp = sp & 0xffffffffffffffe0\n 22053: s1 = u64 [a5]\n 22055: u64 [sp + 0x60] = s1\n 22058: s1 = u64 [a5 + 0x8]\n 22061: u64 [sp + 0x68] = s1\n 22064: s1 = u64 [a5 + 0x10]\n 22067: u64 [sp + 0x70] = s1\n 22070: a5 = u64 [a5 + 0x18]\n 22073: u64 [sp + 0x78] = a5\n 22076: a5 = u64 [a4]\n 22078: u64 [sp + 0x38] = a5\n 22081: a5 = u64 [a4 + 0x8]\n 22084: u64 [sp + 0x40] = a5\n 22087: a5 = u64 [a4 + 0x10]\n 22090: u64 [sp + 0x48] = a5\n 22093: a4 = u64 [a4 + 0x18]\n 22096: u64 [sp + 0x50] = a4\n 22099: t0 = 0xe\n 22102: jump @1029\n      : @707 [@dyn 367] (gas: 6)\n 22105: a0 = 0\n 22107: a1 = u64 [s1 + 0xc0]\n 22111: a2 = 0\n 22113: ecalli 8 // 'seal_return'\n 22115: a1 = 0x20080\n 22120: jump @739\n      : @708 (gas: 7)\n 22123: a0 = a0 | a4\n 22126: a0 = a0 >> 0x20\n 22129: t0 = a1\n 22131: a1 = a1 | a4\n 22134: a1 = a1 << 0x20\n 22137: a0 = a0 | a1\n 22140: jump @609 if a0 != 0\n      : @709 (gas: 19)\n 22144: a0 = a3 + 0x20\n 22147: u64 [s1 + 0xd8] = a0\n 22151: t1 = a0 <u a3\n 22154: a0 = a5 + t1\n 22157: u64 [s1 + 0xf0] = a0\n 22161: a1 = a0 <u a5\n 22164: a1 = t1 if t1 == 0\n 22167: a1 = a1 + t0\n 22170: u64 [s1 + 0xc8] = a1\n 22174: a0 = a1 <u t0\n 22177: a0 = a0 + t2\n 22180: u64 [s1 + 0xd0] = a0\n 22184: u64 [ra + 96] = 0\n 22187: u64 [ra + 88] = 0\n 22190: u64 [ra + 80] = 0\n 22193: a1 = s1 + 0x10c0\n 22197: u64 [ra + 72] = 0x20\n 22201: a0 = a3\n 22203: ra = 736, jump @19\n      : @710 [@dyn 368] (gas: 3)\n 22209: a0 = s1 + 0x10a0\n 22213: a1 = u64 [s1 + 0x8]\n 22216: ra = 738, jump @17\n      : @711 [@dyn 369] (gas: 12)\n 22222: a0 = u64 [s1 + 0xd8]\n 22226: a3 = u64 [s1 + 0xc8]\n 22230: a2 = a0 | a3\n 22233: a1 = u64 [s1 + 0xf0]\n 22237: a4 = u64 [s1 + 0xd0]\n 22241: a1 = a1 | a4\n 22244: a2 = a2 | a1\n 22247: a2 = a2 >> 0x20\n 22250: a1 = a1 | a3\n 22253: a1 = a1 << 0x20\n 22256: a1 = a1 | a2\n 22259: jump @609 if a1 != 0\n      : @712 (gas: 15)\n 22263: a5 = s1 + 0x1078\n 22267: a4 = u64 [a5 + 0x40]\n 22270: a1 = u64 [a5 + 0x38]\n 22273: a2 = u64 [a5 + 0x30]\n 22276: a3 = u64 [a5 + 0x28]\n 22279: u64 [s1 + 0x48] = a3\n 22282: u64 [a5 + 0x8] = a3\n 22285: u64 [s1 + 0x50] = a2\n 22288: u64 [a5 + 0x10] = a2\n 22291: u64 [s1 + 0x58] = a1\n 22294: u64 [a5 + 0x18] = a1\n 22297: a1 = s1 + 0x1080\n 22301: u64 [s1 + 0x60] = a4\n 22304: u64 [a5 + 0x20] = a4\n 22307: ra = 740, jump @19\n      : @713 [@dyn 370] (gas: 27)\n 22313: ra = 0\n 22315: a3 = 0\n 22317: t0 = 0\n 22319: t1 = 0\n 22321: a1 = u64 [s1 + 0xf8]\n 22325: a0 = a1 + 0x40\n 22328: u64 [s1 + 0xf0] = a0\n 22332: a0 = a0 <u a1\n 22335: a2 = u64 [s1 + 0xe0]\n 22339: a1 = a2 + a0\n 22342: u64 [s1 + 0xd8] = a1\n 22346: a1 = a1 <u a2\n 22349: a1 = a0 if a0 == 0\n 22352: a0 = u64 [s1 + 0xe8]\n 22356: a1 = a1 + a0\n 22359: u64 [s1 + 0xc8] = a1\n 22363: a0 = a1 <u a0\n 22366: a1 = u64 [s1 + 0xa0]\n 22370: a0 = a0 + a1\n 22373: u64 [s1 + 0xd0] = a0\n 22377: a0 = 0x100000000\n 22387: u64 [s1 + 0x40] = a0\n 22390: a0 = 0xffffffe0\n 22400: u64 [s1 + 0xb0] = a0\n 22404: a1 = u64 [s1 + 0x10]\n 22407: t2 = u64 [s1 + 0x18]\n 22410: fallthrough\n      : @714 (gas: 18)\n 22411: a0 = u64 [s1 + 0x48]\n 22414: a0 = ra <u a0\n 22417: a2 = u64 [s1 + 0x50]\n 22420: a4 = a3 ^ a2\n 22423: u64 [s1 + 0x88] = a3\n 22427: a2 = a3 <u a2\n 22430: a2 = a0 if a4 == 0\n 22433: a5 = u64 [s1 + 0x58]\n 22436: a0 = t0 <u a5\n 22439: a3 = u64 [s1 + 0x60]\n 22442: a4 = t1 ^ a3\n 22445: u64 [s1 + 0x80] = t1\n 22449: a3 = t1 <u a3\n 22452: a3 = a0 if a4 == 0\n 22455: a0 = t0 ^ a5\n 22458: a0 = a0 | a4\n 22461: a3 = a2 if a0 == 0\n 22464: jump @737 if a3 == 0\n      : @715 (gas: 13)\n 22468: u64 [s1 + 0x70] = t0\n 22471: u64 [s1 + 0x78] = ra\n 22474: a3 = u64 [s1 + 0x20]\n 22477: a0 = a1 | a3\n 22480: u64 [s1 + 0x18] = t2\n 22483: a2 = u64 [s1 + 0x28]\n 22486: a2 = a2 | t2\n 22489: a0 = a0 | a2\n 22492: a0 = a0 >> 0x20\n 22495: a2 = a2 | a3\n 22498: a2 = a2 << 0x20\n 22501: a0 = a0 | a2\n 22504: jump @717 if a0 == 0\n      : @716 (gas: 1)\n 22507: jump @609\n      : @717 (gas: 3)\n 22510: a0 = s1 + 0x1060\n 22514: u64 [s1 + 0x10] = a1\n 22517: ra = 742, jump @17\n      : @718 [@dyn 371] (gas: 17)\n 22523: a0 = s1 + 0x1078\n 22527: a3 = u64 [a0]\n 22529: a5 = a0 + 0xffffffffffffff00\n 22533: a4 = u64 [a5 + 0xf8]\n 22537: a2 = u64 [a5 + 0xf0]\n 22541: a1 = u64 [a5 + 0xe8]\n 22545: u64 [s1 + 0xc0] = a2\n 22549: u64 [s1 + 0xa8] = a3\n 22553: a0 = a2 | a3\n 22556: a2 = a1 | a4\n 22559: a2 = a2 | a0\n 22562: a2 = a2 >> 0x20\n 22565: u64 [s1 + 0x90] = a4\n 22569: a0 = a0 | a4\n 22572: a0 = a0 << 0x20\n 22575: a0 = a0 | a2\n 22578: jump @720 if a0 == 0\n      : @719 (gas: 1)\n 22581: jump @609\n      : @720 (gas: 3)\n 22584: a0 = s1 + 0x1040\n 22588: u64 [s1 + 0xb8] = a1\n 22592: ra = 744, jump @17\n      : @721 [@dyn 372] (gas: 12)\n 22598: a5 = u64 [s1 + 0xf0]\n 22602: a3 = u64 [s1 + 0xc8]\n 22606: a0 = a5 | a3\n 22609: a1 = u64 [s1 + 0xd0]\n 22613: a2 = u64 [s1 + 0xd8]\n 22617: a1 = a1 | a2\n 22620: a0 = a0 | a1\n 22623: a0 = a0 >> 0x20\n 22626: a1 = a1 | a3\n 22629: a1 = a1 << 0x20\n 22632: a0 = a0 | a1\n 22635: jump @723 if a0 == 0\n      : @722 (gas: 1)\n 22638: jump @609\n      : @723 (gas: 18)\n 22641: a3 = s1 + 0x7ff\n 22645: a3 = a3 + 0x79\n 22648: a0 = u64 [a3 + 0x7d8]\n 22652: a1 = u64 [a3 + 0x7d0]\n 22656: a2 = u64 [a3 + 0x7c8]\n 22660: a4 = u64 [s1 + 0x98]\n 22664: a0 = a0 & a4\n 22667: a1 = a1 & 0xffffffffffffffff\n 22670: a2 = a2 & 0xffffffffffffffff\n 22673: u64 [a3 + 1984] = 0\n 22677: a4 = a3 + 0x700\n 22681: u64 [a4 + 0xa8] = a2\n 22685: u64 [a4 + 0xb0] = a1\n 22689: a1 = s1 + 0x1020\n 22693: u64 [a4 + 0xb8] = a0\n 22697: a0 = a5\n 22699: u64 [s1 + 0xf0] = a5\n 22703: ra = 746, jump @19\n      : @724 [@dyn 373] (gas: 11)\n 22709: a0 = u64 [s1 + 0xa8]\n 22713: a3 = u64 [s1 + 0x90]\n 22717: a3 = a3 | a0\n 22720: a1 = u64 [s1 + 0xb8]\n 22724: a0 = u64 [s1 + 0xb0]\n 22728: a0 = a1 <u a0\n 22731: a2 = u64 [s1 + 0xc0]\n 22735: a0 = 0 if a2 != 0\n 22737: u64 [s1 + 0xa8] = a3\n 22741: a0 = 0 if a3 != 0\n 22743: jump @726 if a0 != 0\n      : @725 (gas: 1)\n 22746: jump @609\n      : @726 (gas: 3)\n 22749: i32 a1 = a1 + 0x20\n 22752: a0 = s1 + 0x1000\n 22756: ra = 748, jump @17\n      : @727 [@dyn 374] (gas: 11)\n 22762: a0 = u64 [s1 + 0xd0]\n 22766: a1 = u64 [s1 + 0xc8]\n 22770: a2 = a1 | a0\n 22773: a5 = u64 [s1 + 0xf0]\n 22777: a0 = u64 [s1 + 0xb0]\n 22781: a0 = a5 <u a0\n 22784: a1 = u64 [s1 + 0xd8]\n 22788: a0 = 0 if a1 != 0\n 22790: u64 [s1 + 0x90] = a2\n 22794: a0 = 0 if a2 != 0\n 22796: jump @729 if a0 != 0\n      : @728 (gas: 1)\n 22799: jump @609\n      : @729 (gas: 18)\n 22802: a4 = s1 + 0x7ff\n 22806: a4 = a4 + 0x79\n 22809: a0 = u64 [a4 + 0x798]\n 22813: a1 = u64 [a4 + 0x790]\n 22817: a2 = u64 [a4 + 0x788]\n 22821: a3 = u64 [s1 + 0x98]\n 22825: a3 = a3 & a0\n 22828: a1 = a1 & 0xffffffffffffffff\n 22831: a2 = a2 & 0xffffffffffffffff\n 22834: i32 a0 = a5 + 0x20\n 22837: u64 [a4 + 1920] = 0\n 22841: a5 = a4 + 0x700\n 22845: u64 [a5 + 0x68] = a2\n 22848: u64 [a5 + 0x70] = a1\n 22851: a1 = s1 + 0x7ff\n 22855: a1 = a1 + 0x7e1\n 22859: u64 [a5 + 0x78] = a3\n 22862: ra = 750, jump @19\n      : @730 [@dyn 375] (gas: 10)\n 22868: a0 = u64 [s1 + 0x40]\n 22871: a0 = a0 + 0xffffffffffffffc0\n 22874: a1 = u64 [s1 + 0xb8]\n 22878: u64 [s1 + 0x68] = a0\n 22881: a0 = a1 <u a0\n 22884: a2 = u64 [s1 + 0xc0]\n 22888: a0 = 0 if a2 != 0\n 22890: a2 = u64 [s1 + 0xa8]\n 22894: a0 = 0 if a2 != 0\n 22896: jump @732 if a0 != 0\n      : @731 (gas: 1)\n 22899: jump @609\n      : @732 (gas: 4)\n 22902: i32 a1 = a1 + 0x40\n 22905: a0 = s1 + 0x7ff\n 22909: a0 = a0 + 0x7c1\n 22913: ra = 752, jump @17\n      : @733 [@dyn 376] (gas: 8)\n 22919: a2 = u64 [s1 + 0xf0]\n 22923: a0 = u64 [s1 + 0x68]\n 22926: a0 = a2 <u a0\n 22929: a1 = u64 [s1 + 0xd8]\n 22933: a0 = 0 if a1 != 0\n 22935: a1 = u64 [s1 + 0x90]\n 22939: a0 = 0 if a1 != 0\n 22941: jump @735 if a0 != 0\n      : @734 (gas: 1)\n 22944: jump @609\n      : @735 (gas: 15)\n 22947: a5 = s1 + 0x7ff\n 22951: a5 = a5 + 0x79\n 22954: t0 = u64 [a5 + 0x760]\n 22958: a1 = u64 [a5 + 0x758]\n 22962: a3 = u64 [a5 + 0x750]\n 22966: a4 = u64 [a5 + 0x748]\n 22970: i32 a0 = a2 + 0x40\n 22973: a2 = a5 + 0x700\n 22977: u64 [a2 + 0x28] = a4\n 22980: u64 [a2 + 0x30] = a3\n 22983: u64 [a2 + 0x38] = a1\n 22986: a1 = s1 + 0x7ff\n 22990: a1 = a1 + 0x7a1\n 22994: u64 [a5 + 0x740] = t0\n 22998: ra = 754, jump @19\n      : @736 [@dyn 377] (gas: 49)\n 23004: a1 = u64 [s1 + 0xf0]\n 23008: a0 = a1 + 0x60\n 23011: u64 [s1 + 0xc0] = a0\n 23015: a2 = a0 <u a1\n 23018: a0 = u64 [s1 + 0xd8]\n 23022: a1 = a0 + a2\n 23025: u64 [s1 + 0xb8] = a1\n 23029: a3 = a1 <u a0\n 23032: a3 = a2 if a2 == 0\n 23035: a0 = u64 [s1 + 0xc8]\n 23039: t0 = a0 + a3\n 23042: a3 = t0 <u a0\n 23045: a0 = u64 [s1 + 0xd0]\n 23049: a0 = a0 + a3\n 23052: u64 [s1 + 0xd0] = a0\n 23056: a0 = u64 [s1 + 0x10]\n 23059: a2 = a0 + 0x20\n 23062: a4 = a2 <u a0\n 23065: a0 = u64 [s1 + 0x28]\n 23068: a5 = a0 + a4\n 23071: a0 = a5 <u a0\n 23074: a0 = a4 if a4 == 0\n 23077: a1 = u64 [s1 + 0x20]\n 23080: a0 = a0 + a1\n 23083: a4 = a0 <u a1\n 23086: t2 = u64 [s1 + 0x18]\n 23089: t2 = t2 + a4\n 23092: ra = u64 [s1 + 0x78]\n 23095: ra = ra + 0x1\n 23098: a4 = ra <u 0x1\n 23101: a3 = u64 [s1 + 0x88]\n 23105: a3 = a3 + a4\n 23108: a4 = ra | a3\n 23111: a4 = a4 <u 0x1\n 23114: a1 = u64 [s1 + 0x70]\n 23117: a4 = a4 + a1\n 23120: a1 = a4 <u a1\n 23123: t1 = u64 [s1 + 0x80]\n 23127: t1 = t1 + a1\n 23130: a1 = u64 [s1 + 0xc0]\n 23134: u64 [s1 + 0xf0] = a1\n 23138: a1 = u64 [s1 + 0xb8]\n 23142: u64 [s1 + 0xd8] = a1\n 23146: u64 [s1 + 0xc8] = t0\n 23150: a1 = a2\n 23152: u64 [s1 + 0x28] = a5\n 23155: u64 [s1 + 0x20] = a0\n 23158: t0 = a4\n 23160: jump @714\n      : @737 (gas: 23)\n 23163: t0 = u64 [s1 + 0xf8]\n 23167: t2 = u64 [s1 + 0xf0]\n 23171: ra = t2 <u t0\n 23174: a5 = u64 [s1 + 0xe0]\n 23178: a1 = u64 [s1 + 0xd8]\n 23182: a3 = a1 ^ a5\n 23185: a2 = a1 <u a5\n 23188: a2 = ra if a3 == 0\n 23191: a3 = u64 [s1 + 0xe8]\n 23195: a4 = u64 [s1 + 0xc8]\n 23199: a0 = a4 - a3\n 23202: t1 = a4 <u a3\n 23205: a4 = u64 [s1 + 0xa0]\n 23209: a3 = u64 [s1 + 0xd0]\n 23213: a4 = a3 - a4\n 23216: a4 = a4 - t1\n 23219: a3 = a0 <u a2\n 23222: a4 = a4 - a3\n 23225: a3 = a0 - a2\n 23228: a2 = a1 - a5\n 23231: a2 = a2 - ra\n 23234: a0 = t2 - t0\n 23237: jump @136\n      : @738 (gas: 7)\n 23240: a1 = 0x20080\n 23245: i32 a1 = a1 + 0\n 23247: a0 = 0x1\n 23250: a2 = 0\n 23252: ecalli 8 // 'seal_return'\n 23254: a1 = 0x20080\n 23259: fallthrough\n      : @739 (gas: 6)\n 23260: i32 a1 = a1 + 0\n 23262: a0 = 0x1\n 23265: a2 = 0\n 23267: ecalli 8 // 'seal_return'\n 23269: a1 = 0x20080\n 23274: jump @739\n      : @740 (gas: 2)\n 23276: a1 = 0x20080\n 23281: jump @739\n      : @741 (gas: 2)\n 23283: a1 = 0x20080\n 23288: jump @739\n      : @742 (gas: 2)\n 23290: a1 = 0x20080\n 23295: jump @739\n      : @743 (gas: 2)\n 23297: a1 = 0x20080\n 23302: jump @739\n      : @744 (gas: 2)\n 23304: a1 = 0x20080\n 23309: jump @739\n      : @745 (gas: 2)\n 23311: a1 = 0x20080\n 23316: jump @739\n      : @746 (gas: 2)\n 23318: a1 = 0x20080\n 23323: jump @739\n      : @747 (gas: 2)\n 23325: a1 = 0x20080\n 23330: jump @739\n      : @748 (gas: 2)\n 23332: a1 = 0x20080\n 23337: jump @739\n      : @749 (gas: 2)\n 23339: a1 = 0x20080\n 23344: jump @739\n      : @750 (gas: 2)\n 23346: a1 = 0x20080\n 23351: jump @739\n      : @751 (gas: 2)\n 23353: a1 = 0x20080\n 23358: jump @739\n      : @752 (gas: 2)\n 23360: a1 = 0x20080\n 23365: jump @739\n      : @753 (gas: 2)\n 23367: a1 = 0x20080\n 23372: jump @739\n      : @754 (gas: 2)\n 23374: a1 = 0x20080\n 23379: jump @739\n      : @755 (gas: 2)\n 23381: a1 = 0x20080\n 23386: jump @739\n      : @756 (gas: 2)\n 23388: a1 = 0x20080\n 23393: jump @739\n      : @757 (gas: 2)\n 23396: a1 = 0x20080\n 23401: jump @739\n      : @758 (gas: 2)\n 23404: a1 = 0x20080\n 23409: jump @739\n      : @759 (gas: 2)\n 23412: a1 = 0x20080\n 23417: jump @739\n      : @760 (gas: 2)\n 23420: a1 = 0x20080\n 23425: jump @739\n      : @761 (gas: 2)\n 23428: a1 = 0x20080\n 23433: jump @739\n      : @762 (gas: 2)\n 23436: a1 = 0x20080\n 23441: jump @739\n      : @763 (gas: 6)\n 23444: u64 [s1 + 304] = 0\n 23448: u64 [s1 + 296] = 0\n 23452: u64 [s1 + 288] = 0\n 23456: t0 = 0x2f4\n 23460: a0 = 0x4e487b7100000000\n 23470: fallthrough\n      : @764 [@dyn 378] (gas: 4)\n 23471: a1 = s1 + 0x120\n 23475: u64 [s1 + 0x138] = a0\n 23479: a0 = 0\n 23481: ra = 758, jump @19\n      : @765 [@dyn 379] (gas: 7)\n 23487: u64 [s1 + 280] = 0\n 23491: u64 [s1 + 272] = 0\n 23495: u64 [s1 + 256] = 0x11\n 23500: a0 = 0x4\n 23503: a1 = s1 + 0x100\n 23507: u64 [s1 + 264] = 0\n 23511: ra = 760, jump @19\n      : @766 [@dyn 380] (gas: 3)\n 23517: a0 = u64 [s1 + 0xd0]\n 23521: a0 = i32 [a0]\n 23523: jump @768 if a0 >u 63\n      : @767 (gas: 3)\n 23527: a1 = u64 [s1 + 0xd0]\n 23531: u32 [a1 + 0] = 0x40\n 23534: fallthrough\n      : @768 (gas: 6)\n 23535: a0 = 0x1\n 23538: a2 = 0x24\n 23541: a1 = u64 [s1 + 0xc8]\n 23545: ecalli 8 // 'seal_return'\n 23547: a1 = 0x20080\n 23552: jump @739\n      : @769 (gas: 2)\n 23555: a1 = 0x20080\n 23560: jump @739\n      : @770 (gas: 2)\n 23563: u64 [s1 + 0xf8] = a1\n 23567: ra = 762, jump @29\n      : @771 [@dyn 381] (gas: 5)\n 23573: i32 a1 = a0 + 0\n 23575: a2 = i32 [s1 + 0xf8]\n 23579: a0 = 0\n 23581: ecalli 8 // 'seal_return'\n 23583: jump @78\n      : @772 (gas: 8)\n 23586: a0 = s1 + 0x1078\n 23590: u64 [a0 + 1496] = 0\n 23594: u64 [a0 + 1488] = 0\n 23598: u64 [a0 + 1480] = 0\n 23602: a2 = a0\n 23604: t0 = 0x2fc\n 23608: a0 = 0x4e487b7100000000\n 23618: fallthrough\n      : @773 [@dyn 382] (gas: 4)\n 23619: a1 = s1 + 0x1640\n 23623: u64 [a2 + 0x5e0] = a0\n 23627: a0 = 0\n 23629: ra = 766, jump @19\n      : @774 [@dyn 383] (gas: 3)\n 23635: t0 = 0x300\n 23639: a1 = s1 + 0x1078\n 23643: fallthrough\n      : @775 [@dyn 384] (gas: 8)\n 23644: u64 [a1 + 1472] = 0\n 23648: u64 [a1 + 1464] = 0\n 23652: u64 [a1 + 1448] = 0x41\n 23657: a2 = a1\n 23659: a0 = 0x4\n 23662: a1 = s1 + 0x1620\n 23666: u64 [a2 + 1456] = 0\n 23670: ra = 770, jump @19\n      : @776 [@dyn 385] (gas: 2)\n 23676: a1 = i32 [0x20074]\n 23681: jump @778 if a1 >u 63\n      : @777 (gas: 3)\n 23685: u32 [0x20074] = 0x40\n 23691: a1 = 0x20080\n 23696: jump @785\n      : @778 (gas: 2)\n 23698: a1 = 0x20080\n 23703: jump @785\n      : @779 (gas: 8)\n 23705: a0 = s1 + 0x1878\n 23709: u64 [a0 + 88] = 0\n 23712: u64 [a0 + 80] = 0\n 23715: u64 [a0 + 72] = 0\n 23718: a2 = a0\n 23720: t0 = 0x304\n 23724: a0 = 0x4e487b7100000000\n 23734: fallthrough\n      : @780 [@dyn 386] (gas: 4)\n 23735: a1 = s1 + 0x18c0\n 23739: u64 [a2 + 0x60] = a0\n 23742: a0 = 0\n 23744: ra = 774, jump @19\n      : @781 [@dyn 387] (gas: 9)\n 23750: a0 = s1 + 0x1878\n 23754: u64 [a0 + 64] = 0\n 23757: u64 [a0 + 56] = 0\n 23760: u64 [a0 + 48] = 0\n 23763: a2 = a0\n 23765: a0 = 0x4\n 23768: a1 = s1 + 0x18a0\n 23772: u64 [a2 + 40] = 0\n 23775: ra = 776, jump @19\n      : @782 [@dyn 388] (gas: 2)\n 23781: a1 = i32 [0x20074]\n 23786: jump @784 if a1 >u 63\n      : @783 (gas: 3)\n 23790: u32 [0x20074] = 0x40\n 23796: a1 = 0x20080\n 23801: jump @785\n      : @784 (gas: 2)\n 23803: a1 = 0x20080\n 23808: fallthrough\n      : @785 (gas: 7)\n 23809: i32 a1 = a1 + 0\n 23811: a0 = 0x1\n 23814: a2 = 0x24\n 23817: ra = 0x30a\n 23821: ecalli 8 // 'seal_return'\n 23823: t0 = 0x30c\n 23827: jump @1026\n      : @786 [@dyn 389] (gas: 1)\n 23830: t0 = 780, jump @1026\n      : @787 [@dyn 390] (gas: 7)\n 23836: t0 = a0 >u 0\n 23838: a4 = t1 <u 0xffffffffffffff80\n 23841: a4 = a4 ^ 0x1\n 23844: a4 = t0 if a0 != 0\n 23847: a1 = a2 | a3\n 23850: a4 = a5 if a1 != 0\n 23853: jump @791 if a4 != 0\n      : @788 (gas: 2)\n 23856: a1 = t1 + 0x80\n 23860: t0 = 782, jump @1024\n      : @789 [@dyn 391] (gas: 1)\n 23866: ra = 784, jump @19\n      : @790 [@dyn 392] (gas: 5)\n 23872: sp = s0 + 0xffffffffffffff90\n 23875: ra = u64 [sp + 0x68]\n 23878: s0 = u64 [sp + 0x60]\n 23881: sp = sp + 0x70\n 23884: ret\n      : @791 (gas: 1)\n 23886: t0 = 786, jump @1019\n      : @792 [@dyn 393] (gas: 1)\n 23892: ra = 788, jump @19\n      : @793 [@dyn 394] (gas: 1)\n 23898: t0 = 790, jump @1037\n      : @794 [@dyn 395] (gas: 1)\n 23904: ra = 792, jump @19\n      : @795 [@dyn 396] (gas: 2)\n 23910: a1 = i32 [0x20074]\n 23915: jump @797 if a1 >u 63\n      : @796 (gas: 2)\n 23919: u32 [0x20074] = 0x40\n 23925: fallthrough\n      : @797 (gas: 8)\n 23926: a1 = 0x20080\n 23931: i32 a1 = a1 + 0\n 23933: a0 = 0x1\n 23936: a2 = 0x24\n 23939: ra = 0x31a\n 23943: ecalli 8 // 'seal_return'\n 23945: t0 = 0x31c\n 23949: jump @1026\n      : @798 [@dyn 397] (gas: 1)\n 23952: t0 = 796, jump @1026\n      : @799 [@dyn 398] (gas: 7)\n 23958: t0 = a0 >u 0\n 23960: a4 = t1 <u 0xffffffffffffffa0\n 23963: a4 = a4 ^ 0x1\n 23966: a4 = t0 if a0 != 0\n 23969: a1 = a2 | a3\n 23972: a4 = a5 if a1 != 0\n 23975: jump @803 if a4 != 0\n      : @800 (gas: 2)\n 23978: a1 = t1 + 0x60\n 23981: t0 = 798, jump @1024\n      : @801 [@dyn 399] (gas: 1)\n 23987: ra = 800, jump @19\n      : @802 [@dyn 400] (gas: 5)\n 23993: sp = s0 + 0xffffffffffffff90\n 23996: ra = u64 [sp + 0x68]\n 23999: s0 = u64 [sp + 0x60]\n 24002: sp = sp + 0x70\n 24005: ret\n      : @803 (gas: 1)\n 24007: t0 = 802, jump @1019\n      : @804 [@dyn 401] (gas: 1)\n 24013: ra = 804, jump @19\n      : @805 [@dyn 402] (gas: 1)\n 24019: t0 = 806, jump @1037\n      : @806 [@dyn 403] (gas: 1)\n 24025: ra = 808, jump @19\n      : @807 [@dyn 404] (gas: 2)\n 24031: a1 = i32 [0x20074]\n 24036: jump @809 if a1 >u 63\n      : @808 (gas: 2)\n 24040: u32 [0x20074] = 0x40\n 24046: fallthrough\n      : @809 (gas: 7)\n 24047: a1 = 0x20080\n 24052: i32 a1 = a1 + 0\n 24054: a0 = 0x1\n 24057: a2 = 0x24\n 24060: ra = 0x32a\n 24064: ecalli 8 // 'seal_return'\n 24066: fallthrough\n      : @810 [@dyn 405] (gas: 46)\n 24067: sp = sp + 0xffffffffffffff70\n 24071: u64 [sp + 0x88] = ra\n 24075: u64 [sp + 0x80] = s0\n 24079: u64 [sp + 0x78] = s1\n 24082: s0 = sp + 0x90\n 24086: sp = sp & 0xfffffffffffffff0\n 24089: t0 = a0\n 24091: a2 = u64 [a1]\n 24093: t2 = u64 [a0 + 0x8]\n 24096: a5 = u64 [a1 + 0x8]\n 24099: t1 = u64 [a0]\n 24101: a3 = a2 + 0x1f\n 24104: ra = a3 <u a2\n 24107: a2 = a5 + ra\n 24110: a3 = a3 & 0xffffffffffffffe0\n 24113: u64 [sp + 0x8] = t1\n 24116: t1 = t1 + a3\n 24119: a4 = t1 <u a3\n 24122: a3 = a2 + t2\n 24125: a3 = a3 + a4\n 24128: s1 = a3 ^ a2\n 24131: a0 = a3 <u a2\n 24134: a0 = a4 if s1 == 0\n 24137: a4 = u64 [t0 + 0x18]\n 24140: a5 = a2 <u a5\n 24143: s1 = u64 [a1 + 0x10]\n 24146: t0 = u64 [t0 + 0x10]\n 24149: a1 = u64 [a1 + 0x18]\n 24152: a5 = ra if ra == 0\n 24155: a5 = a5 + s1\n 24158: s1 = a5 <u s1\n 24161: a2 = a5 + t0\n 24164: a0 = a0 + a2\n 24167: a5 = a2 <u a5\n 24170: a2 = a0 <u a2\n 24173: a1 = a1 + a4\n 24176: a1 = a1 + s1\n 24179: a1 = a1 + a5\n 24182: a5 = a1 + a2\n 24185: a1 = a5 >u 0\n 24187: a2 = a0 >u 0\n 24189: a2 = a1 if a5 != 0\n 24192: a1 = a0 | a5\n 24195: s1 = a3 >u 0\n 24197: s1 = a2 if a1 != 0\n 24200: jump @814 if s1 != 0\n      : @811 (gas: 13)\n 24203: a1 = u64 [sp + 0x8]\n 24206: a1 = t1 <u a1\n 24209: a2 = a3 ^ t2\n 24212: s1 = a3 <u t2\n 24215: s1 = a1 if a2 == 0\n 24218: a1 = a0 <u t0\n 24221: a2 = a5 ^ a4\n 24224: a4 = a5 <u a4\n 24227: a4 = a1 if a2 == 0\n 24230: a1 = a0 ^ t0\n 24233: a1 = a1 | a2\n 24236: a4 = s1 if a1 == 0\n 24239: jump @814 if a4 != 0\n      : @812 (gas: 7)\n 24242: u64 [sp + 0x50] = t1\n 24245: u64 [sp + 0x58] = a3\n 24248: u64 [sp + 0x60] = a0\n 24251: a0 = 0x40\n 24254: a1 = sp + 0x50\n 24257: u64 [sp + 0x68] = a5\n 24260: ra = 812, jump @19\n      : @813 [@dyn 406] (gas: 6)\n 24266: sp = s0 + 0xffffffffffffff70\n 24270: ra = u64 [sp + 0x88]\n 24274: s0 = u64 [sp + 0x80]\n 24278: s1 = u64 [sp + 0x78]\n 24281: sp = sp + 0x90\n 24285: ret\n      : @814 (gas: 6)\n 24287: u64 [sp + 64] = 0\n 24290: u64 [sp + 56] = 0\n 24293: u64 [sp + 48] = 0\n 24296: t0 = 0x32e\n 24300: a0 = 0x4e487b7100000000\n 24310: fallthrough\n      : @815 [@dyn 407] (gas: 4)\n 24311: a1 = sp + 0x30\n 24314: u64 [sp + 0x48] = a0\n 24317: a0 = 0\n 24319: ra = 816, jump @19\n      : @816 [@dyn 408] (gas: 7)\n 24325: u64 [sp + 40] = 0\n 24328: u64 [sp + 32] = 0\n 24331: u64 [sp + 16] = 0x41\n 24335: a0 = 0x4\n 24338: a1 = sp + 0x10\n 24341: u64 [sp + 24] = 0\n 24344: ra = 818, jump @19\n      : @817 [@dyn 409] (gas: 2)\n 24350: a1 = i32 [0x20074]\n 24355: jump @819 if a1 >u 63\n      : @818 (gas: 2)\n 24359: u32 [0x20074] = 0x40\n 24365: fallthrough\n      : @819 (gas: 7)\n 24366: a1 = 0x20080\n 24371: i32 a1 = a1 + 0\n 24373: a0 = 0x1\n 24376: a2 = 0x24\n 24379: ra = 0x334\n 24383: ecalli 8 // 'seal_return'\n 24385: fallthrough\n      : @820 [@dyn 410] (gas: 37)\n 24386: sp = sp + 0xfffffffffffffe40\n 24390: u64 [sp + 0x1b8] = ra\n 24394: u64 [sp + 0x1b0] = s0\n 24398: u64 [sp + 0x1a8] = s1\n 24402: s0 = sp + 0x1c0\n 24406: sp = sp & 0xffffffffffffffe0\n 24409: ra = u64 [a1]\n 24411: a4 = u64 [a2 + 0x8]\n 24414: t2 = u64 [a1 + 0x8]\n 24417: s1 = u64 [a2]\n 24419: a3 = ra + 0x1f\n 24422: t0 = a3 <u ra\n 24425: a5 = t2 + t0\n 24428: u64 [sp + 0x30] = s1\n 24431: t1 = a3 <u s1\n 24434: a3 = a5 ^ a4\n 24437: u64 [sp + 0x40] = a4\n 24440: a4 = a5 <u a4\n 24443: a4 = t1 if a3 == 0\n 24446: s1 = u64 [a1 + 0x10]\n 24449: a3 = a5 <u t2\n 24452: a3 = t0 if t0 == 0\n 24455: a5 = u64 [a2 + 0x18]\n 24458: t0 = u64 [a1 + 0x18]\n 24461: t1 = u64 [a2 + 0x10]\n 24464: a3 = a3 + s1\n 24467: a1 = a3 <u s1\n 24470: a1 = a1 + t0\n 24473: a2 = a1 ^ a5\n 24476: u64 [sp + 0x20] = a5\n 24479: a1 = a1 <s a5\n 24482: a5 = a3 <u t1\n 24485: a1 = a5 if a2 == 0\n 24488: a3 = a3 ^ t1\n 24491: a2 = a2 | a3\n 24494: a4 = a1 if a2 != 0\n 24497: jump @839 if a4 == 0\n      : @821 (gas: 13)\n 24501: u64 [sp + 0x18] = a0\n 24504: u64 [sp + 0x28] = t1\n 24507: a0 = ra | s1\n 24510: u64 [sp + 0x50] = t2\n 24513: u64 [sp + 0x38] = t0\n 24516: a1 = t2 | t0\n 24519: a0 = a0 | a1\n 24522: a0 = a0 >> 0x20\n 24525: u64 [sp + 0x48] = s1\n 24528: a1 = a1 | s1\n 24531: a1 = a1 << 0x20\n 24534: a0 = a0 | a1\n 24537: jump @838 if a0 != 0\n      : @822 (gas: 6)\n 24541: u64 [sp + 0x60] = ra\n 24544: i32 a1 = ra + 0\n 24546: i32 a0 = sp + 0x180\n 24550: u64 [sp + 0x10] = a1\n 24553: ecalli 1 // 'call_data_load'\n 24555: fallthrough\n      : @823 (gas: 13)\n 24556: a2 = u64 [sp + 0x198]\n 24560: a3 = u64 [sp + 0x190]\n 24564: a4 = u64 [sp + 0x188]\n 24568: a0 = a2 >u 0\n 24570: a1 = a3 >u 0\n 24572: a1 = a0 if a2 != 0\n 24575: u64 [sp + 0x90] = a2\n 24579: u64 [sp + 0x88] = a3\n 24583: a0 = a3 | a2\n 24586: u64 [sp + 0x98] = a4\n 24590: a2 = a4 >u 0\n 24592: a2 = a1 if a0 != 0\n 24595: jump @840 if a2 != 0\n      : @824 (gas: 4)\n 24599: s1 = u64 [sp + 0x180]\n 24603: a0 = sp + 0x160\n 24607: a1 = 0x40\n 24610: ra = 822, jump @17\n      : @825 [@dyn 411] (gas: 31)\n 24616: t0 = u64 [sp + 0x178]\n 24620: a5 = u64 [sp + 0x170]\n 24624: u64 [sp + 0x78] = a5\n 24627: t1 = u64 [sp + 0x168]\n 24631: u64 [sp + 0x80] = t1\n 24635: t2 = u64 [sp + 0x160]\n 24639: u64 [sp + 0x70] = t2\n 24642: a0 = s1 + 0x1f\n 24645: u64 [sp + 0x58] = s1\n 24648: a1 = a0 <u s1\n 24651: a2 = u64 [sp + 0x98]\n 24655: a1 = a1 + a2\n 24658: a1 = a1 & 0x1\n 24661: a0 = a0 & 0xffffffffffffffe0\n 24664: a2 = a0 + 0x20\n 24667: a0 = a2 <u a0\n 24670: a3 = a1 + a0\n 24673: a4 = a3 <u a1\n 24676: a4 = a0 if a0 == 0\n 24679: u64 [sp + 312] = 0\n 24683: u64 [sp + 0x120] = a2\n 24687: s1 = t0\n 24689: u64 [sp + 0x158] = t0\n 24693: u64 [sp + 0x150] = a5\n 24697: u64 [sp + 0x148] = t1\n 24701: u64 [sp + 0x140] = t2\n 24705: u64 [sp + 0x128] = a3\n 24709: a0 = sp + 0x140\n 24713: a1 = sp + 0x120\n 24717: u64 [sp + 0x130] = a4\n 24721: ra = 824, jump @810\n      : @826 [@dyn 412] (gas: 12)\n 24727: a2 = u64 [sp + 0x70]\n 24730: u64 [sp + 0x68] = s1\n 24733: a1 = u64 [sp + 0x80]\n 24737: a0 = a1 | s1\n 24740: a3 = u64 [sp + 0x78]\n 24743: a1 = a2 | a3\n 24746: a1 = a1 | a0\n 24749: a1 = a1 >> 0x20\n 24752: a0 = a0 | a3\n 24755: a0 = a0 << 0x20\n 24758: a0 = a0 | a1\n 24761: jump @838 if a0 != 0\n      : @827 (gas: 11)\n 24765: s1 = u64 [sp + 0x58]\n 24768: u64 [sp + 0x100] = s1\n 24772: a0 = u64 [sp + 0x98]\n 24776: u64 [sp + 0x108] = a0\n 24780: a0 = u64 [sp + 0x88]\n 24784: u64 [sp + 0x110] = a0\n 24788: a1 = sp + 0x100\n 24792: a0 = u64 [sp + 0x90]\n 24796: u64 [sp + 0x118] = a0\n 24800: a0 = a2\n 24802: ra = 826, jump @19\n      : @828 [@dyn 413] (gas: 46)\n 24808: a0 = u64 [sp + 0x60]\n 24811: a3 = a0 + s1\n 24814: a2 = a3 <u a0\n 24817: t2 = u64 [sp + 0x50]\n 24820: a0 = u64 [sp + 0x98]\n 24824: a0 = a0 + t2\n 24827: a0 = a0 + a2\n 24830: a4 = a0 ^ t2\n 24833: a1 = a0 <u t2\n 24836: a1 = a2 if a4 == 0\n 24839: ra = u64 [sp + 0x48]\n 24842: a2 = u64 [sp + 0x88]\n 24846: a2 = a2 + ra\n 24849: a5 = a3 + 0x20\n 24852: t0 = a5 <u a3\n 24855: a4 = a0 + t0\n 24858: a3 = u64 [sp + 0x30]\n 24861: a5 = a3 <u a5\n 24864: a3 = u64 [sp + 0x40]\n 24867: s1 = a4 ^ a3\n 24870: a3 = a3 <u a4\n 24873: a5 = a3 if s1 != 0\n 24876: a3 = a2 <u ra\n 24879: t1 = u64 [sp + 0x38]\n 24882: s1 = u64 [sp + 0x90]\n 24886: s1 = s1 + t1\n 24889: a3 = a3 + s1\n 24892: a1 = a1 + a2\n 24895: a2 = a1 <u a2\n 24898: a2 = a2 + a3\n 24901: a0 = a4 <u a0\n 24904: a0 = t0 if t0 == 0\n 24907: a0 = a0 + a1\n 24910: a1 = a0 <u a1\n 24913: a1 = a1 + a2\n 24916: a3 = u64 [sp + 0x20]\n 24919: a2 = a1 ^ a3\n 24922: a1 = a3 <u a1\n 24925: a4 = u64 [sp + 0x28]\n 24928: a3 = a4 <u a0\n 24931: a1 = a3 if a2 == 0\n 24934: a0 = a0 ^ a4\n 24937: a0 = a0 | a2\n 24940: a5 = a1 if a0 != 0\n 24943: a3 = u64 [sp + 0x98]\n 24947: jump @846 if a5 != 0\n      : @829 (gas: 7)\n 24951: a0 = ra | t1\n 24954: a1 = 0xffffffe0\n 24964: a2 = u64 [sp + 0x60]\n 24967: a1 = a2 <u a1\n 24970: a1 = 0 if t2 != 0\n 24972: a1 = 0 if a0 != 0\n 24974: jump @838 if a1 == 0\n      : @830 (gas: 5)\n 24978: a2 = u64 [sp + 0x88]\n 24982: a5 = u64 [sp + 0x58]\n 24985: a0 = a5 | a2\n 24988: a1 = u64 [sp + 0x90]\n 24992: t0 = 828, jump @1022\n      : @831 [@dyn 414] (gas: 5)\n 24998: s1 = u64 [sp + 0x70]\n 25001: a2 = u64 [sp + 0x80]\n 25005: a3 = u64 [sp + 0x78]\n 25008: a4 = u64 [sp + 0x68]\n 25011: jump @838 if a0 != 0\n      : @832 (gas: 7)\n 25015: a0 = a3 | a4\n 25018: a1 = 0xffffffe0\n 25028: u64 [sp + 0x60] = a1\n 25031: a1 = s1 <u a1\n 25034: a1 = 0 if a2 != 0\n 25036: a1 = 0 if a0 != 0\n 25038: jump @838 if a1 == 0\n      : @833 (gas: 7)\n 25042: a0 = u64 [sp + 0x10]\n 25045: i32 a0 = a0 + 0x20\n 25048: u64 [sp + 0x50] = a0\n 25051: i32 a0 = s1 + 0x20\n 25054: a1 = a5\n 25056: s1 = a5\n 25058: ra = 830, jump @29\n      : @834 [@dyn 415] (gas: 5)\n 25064: i32 a0 = a0 + 0\n 25066: i32 a1 = s1 + 0\n 25068: a2 = u64 [sp + 0x50]\n 25071: ecalli 0 // 'call_data_copy'\n 25072: fallthrough\n      : @835 (gas: 27)\n 25073: t0 = u64 [sp + 0x70]\n 25076: a0 = t0 + s1\n 25079: a1 = a0 <u t0\n 25082: a2 = u64 [sp + 0x98]\n 25086: a4 = u64 [sp + 0x80]\n 25090: a2 = a2 + a4\n 25093: a2 = a2 + a1\n 25096: a3 = a2 ^ a4\n 25099: a4 = a2 <u a4\n 25102: a4 = a1 if a3 == 0\n 25105: a1 = u64 [sp + 0x88]\n 25109: a3 = u64 [sp + 0x78]\n 25112: a1 = a1 + a3\n 25115: a3 = a1 <u a3\n 25118: a5 = u64 [sp + 0x90]\n 25122: s1 = u64 [sp + 0x68]\n 25125: a5 = a5 + s1\n 25128: a3 = a3 + a5\n 25131: a4 = a4 + a1\n 25134: a1 = a4 <u a1\n 25137: a1 = a1 + a3\n 25140: a1 = a1 | a4\n 25143: a3 = u64 [sp + 0x60]\n 25146: a3 = a0 <u a3\n 25149: a3 = 0 if a2 != 0\n 25151: a3 = 0 if a1 != 0\n 25153: jump @838 if a3 == 0\n      : @836 (gas: 8)\n 25156: s1 = t0\n 25158: i32 a0 = a0 + 0x20\n 25161: u64 [sp + 248] = 0\n 25165: u64 [sp + 240] = 0\n 25169: u64 [sp + 232] = 0\n 25173: a1 = sp + 0xe0\n 25177: u64 [sp + 224] = 0\n 25181: ra = 832, jump @19\n      : @837 [@dyn 416] (gas: 14)\n 25187: a0 = u64 [sp + 0x18]\n 25190: a1 = u64 [sp + 0x68]\n 25193: u64 [a0 + 0x18] = a1\n 25196: a1 = u64 [sp + 0x78]\n 25199: u64 [a0 + 0x10] = a1\n 25202: a1 = u64 [sp + 0x80]\n 25206: u64 [a0 + 0x8] = a1\n 25209: u64 [a0] = s1\n 25211: sp = s0 + 0xfffffffffffffe40\n 25215: ra = u64 [sp + 0x1b8]\n 25219: s0 = u64 [sp + 0x1b0]\n 25223: s1 = u64 [sp + 0x1a8]\n 25227: sp = sp + 0x1c0\n 25231: ret\n      : @838 (gas: 1)\n 25233: trap\n      : @839 (gas: 2)\n 25234: a1 = 0x20080\n 25239: jump @847\n      : @840 (gas: 6)\n 25241: u64 [sp + 208] = 0\n 25245: u64 [sp + 200] = 0\n 25249: u64 [sp + 192] = 0\n 25253: t0 = 0x342\n 25257: a0 = 0x4e487b7100000000\n 25267: fallthrough\n      : @841 [@dyn 417] (gas: 4)\n 25268: a1 = sp + 0xc0\n 25272: u64 [sp + 0xd8] = a0\n 25276: a0 = 0\n 25278: ra = 836, jump @19\n      : @842 [@dyn 418] (gas: 7)\n 25284: u64 [sp + 184] = 0\n 25288: u64 [sp + 176] = 0\n 25292: u64 [sp + 160] = 0x41\n 25297: a0 = 0x4\n 25300: a1 = sp + 0xa0\n 25304: u64 [sp + 168] = 0\n 25308: ra = 838, jump @19\n      : @843 [@dyn 419] (gas: 2)\n 25314: a1 = i32 [0x20074]\n 25319: jump @845 if a1 >u 63\n      : @844 (gas: 2)\n 25323: u32 [0x20074] = 0x40\n 25329: fallthrough\n      : @845 (gas: 7)\n 25330: a1 = 0x20080\n 25335: i32 a1 = a1 + 0\n 25337: a0 = 0x1\n 25340: a2 = 0x24\n 25343: ecalli 8 // 'seal_return'\n 25345: a1 = 0x20080\n 25350: jump @847\n      : @846 (gas: 2)\n 25352: a1 = 0x20080\n 25357: fallthrough\n      : @847 (gas: 6)\n 25358: i32 a1 = a1 + 0\n 25360: a0 = 0x1\n 25363: a2 = 0\n 25365: ra = 0x348\n 25369: ecalli 8 // 'seal_return'\n 25371: fallthrough\n      : @848 [@dyn 420] (gas: 33)\n 25372: sp = sp + 0xffffffffffffffa0\n 25375: u64 [sp + 0x58] = ra\n 25378: u64 [sp + 0x50] = s0\n 25381: u64 [sp + 0x48] = s1\n 25384: s0 = sp + 0x60\n 25387: sp = sp & 0xfffffffffffffff0\n 25390: a2 = u64 [a1 + 0x10]\n 25393: a5 = u64 [a1 + 0x8]\n 25396: a4 = u64 [a1]\n 25398: a1 = u64 [a1 + 0x18]\n 25401: t0 = a2 << 0x3f\n 25404: a3 = a5 >> 0x1\n 25407: t0 = a3 | t0\n 25410: a3 = a1 << 0x3f\n 25413: a2 = a2 >> 0x1\n 25416: a3 = a3 | a2\n 25419: a5 = a5 << 0x3f\n 25422: a2 = a4 >> 0x1\n 25425: a5 = a5 | a2\n 25428: t1 = a1 >> 0x1\n 25431: a4 = a4 & 0x1\n 25434: a1 = -a4\n 25436: s1 = a4 <u 0x1\n 25439: a2 = a5 & 0x7f\n 25442: t2 = a1 & a3\n 25445: a3 = a1 & t0\n 25448: a2 = a5 if a4 != 0\n 25451: a4 = a1 & t1\n 25454: a1 = a2 <u 0x20\n 25457: a1 = 0 if a3 != 0\n 25459: a5 = t2 | a4\n 25462: a1 = 0 if a5 != 0\n 25464: jump @851 if s1 != a1\n      : @849 (gas: 5)\n 25467: u64 [a0] = a2\n 25469: u64 [a0 + 0x8] = a3\n 25472: u64 [a0 + 0x10] = t2\n 25475: u64 [a0 + 0x18] = a4\n 25478: t0 = 842, jump @1043\n      : @850 [@dyn 421] (gas: 1)\n 25484: ret\n      : @851 (gas: 1)\n 25486: t0 = 844, jump @1019\n      : @852 [@dyn 422] (gas: 1)\n 25492: ra = 846, jump @19\n      : @853 [@dyn 423] (gas: 7)\n 25498: u64 [sp + 24] = 0\n 25501: u64 [sp + 16] = 0\n 25504: u64 [sp + 0] = 0x22\n 25507: a0 = 0x4\n 25510: a1 = sp\n 25512: u64 [sp + 8] = 0\n 25515: ra = 848, jump @19\n      : @854 [@dyn 424] (gas: 2)\n 25521: a1 = i32 [0x20074]\n 25526: jump @856 if a1 >u 63\n      : @855 (gas: 2)\n 25530: u32 [0x20074] = 0x40\n 25536: fallthrough\n      : @856 (gas: 7)\n 25537: a1 = 0x20080\n 25542: i32 a1 = a1 + 0\n 25544: a0 = 0x1\n 25547: a2 = 0x24\n 25550: ra = 0x352\n 25554: ecalli 8 // 'seal_return'\n 25556: fallthrough\n      : @857 [@dyn 425] (gas: 24)\n 25557: sp = sp + 0xfffffffffffffda0\n 25561: a2 = sp + 0x200\n 25565: u64 [a2 + 0x58] = ra\n 25568: u64 [a2 + 0x50] = s0\n 25571: u64 [a2 + 0x48] = s1\n 25574: s0 = sp + 0x260\n 25578: sp = sp & 0xffffffffffffffe0\n 25581: s1 = sp\n 25583: u64 [s1 + 0x10] = a0\n 25586: a0 = u64 [a1 + 0x18]\n 25589: a2 = u64 [a1 + 0x10]\n 25592: a3 = u64 [a1 + 0x8]\n 25595: a1 = u64 [a1]\n 25597: u64 [s1 + 0xb0] = a0\n 25601: u64 [s1 + 0x238] = a0\n 25605: u64 [s1 + 0xa8] = a2\n 25609: u64 [s1 + 0x230] = a2\n 25613: u64 [s1 + 0xa0] = a3\n 25617: u64 [s1 + 0x228] = a3\n 25621: u64 [s1 + 0x98] = a1\n 25625: u64 [s1 + 0x220] = a1\n 25629: a0 = s1 + 0x200\n 25633: a1 = 0x40\n 25636: ra = 852, jump @17\n      : @858 [@dyn 426] (gas: 12)\n 25642: a1 = s1 + 0x200\n 25646: a0 = u64 [a1 + 0x18]\n 25649: u64 [s1 + 0x18] = a0\n 25652: a0 = u64 [a1 + 0x10]\n 25655: u64 [s1 + 0x20] = a0\n 25658: a0 = u64 [a1 + 0x8]\n 25661: u64 [s1 + 0x28] = a0\n 25664: a0 = u64 [a1]\n 25666: u64 [s1 + 0x30] = a0\n 25669: a0 = s1 + 0x1e0\n 25673: a1 = s1 + 0x220\n 25677: ra = 854, jump @21\n      : @859 [@dyn 427] (gas: 16)\n 25683: a4 = s1 + 0x100\n 25687: a0 = u64 [a4 + 0xf8]\n 25691: a1 = u64 [a4 + 0xf0]\n 25695: a2 = u64 [a4 + 0xe8]\n 25699: a3 = u64 [a4 + 0xe0]\n 25703: u64 [s1 + 0x90] = a0\n 25707: u64 [a4 + 0xb8] = a0\n 25711: u64 [s1 + 0x88] = a1\n 25715: u64 [a4 + 0xb0] = a1\n 25719: u64 [s1 + 0x80] = a2\n 25723: u64 [a4 + 0xa8] = a2\n 25727: a0 = s1 + 0x1c0\n 25731: a1 = s1 + 0x1a0\n 25735: u64 [s1 + 0xb8] = a3\n 25739: u64 [a4 + 0xa0] = a3\n 25743: ra = 856, jump @848\n      : @860 [@dyn 428] (gas: 6)\n 25749: a0 = u64 [s1 + 0x30]\n 25752: a1 = u64 [s1 + 0x18]\n 25755: a2 = u64 [s1 + 0x28]\n 25758: a2 = a2 | a1\n 25761: a3 = u64 [s1 + 0x20]\n 25764: t0 = 858, jump @1034\n      : @861 [@dyn 429] (gas: 1)\n 25770: jump @880 if a1 != 0\n      : @862 (gas: 15)\n 25774: a5 = s1 + 0x100\n 25778: a2 = u64 [a5 + 0xd8]\n 25782: a3 = u64 [a5 + 0xd0]\n 25786: a1 = u64 [a5 + 0xc8]\n 25790: a4 = u64 [a5 + 0xc0]\n 25794: u64 [s1 + 0x60] = a4\n 25797: u64 [a5 + 0x80] = a4\n 25801: u64 [s1 + 0x70] = a1\n 25804: u64 [a5 + 0x88] = a1\n 25808: u64 [s1 + 0x68] = a3\n 25811: u64 [a5 + 0x90] = a3\n 25815: a1 = s1 + 0x180\n 25819: u64 [s1 + 0x78] = a2\n 25822: u64 [a5 + 0x98] = a2\n 25826: ra = 860, jump @19\n      : @863 [@dyn 430] (gas: 3)\n 25832: a3 = u64 [s1 + 0xb8]\n 25836: a0 = a3 & 0x1\n 25839: jump @869 if a0 != 0\n      : @864 (gas: 10)\n 25843: a0 = u64 [s1 + 0x20]\n 25846: a1 = u64 [s1 + 0x18]\n 25849: a0 = a0 | a1\n 25852: a1 = 0xffffffe0\n 25862: a4 = u64 [s1 + 0x30]\n 25865: a1 = a4 <u a1\n 25868: a2 = u64 [s1 + 0x28]\n 25871: a1 = 0 if a2 != 0\n 25873: a1 = 0 if a0 != 0\n 25875: jump @880 if a1 == 0\n      : @865 (gas: 12)\n 25879: a1 = a3 & 0xffffffffffffff00\n 25883: i32 a0 = a4 + 0x20\n 25886: a3 = u64 [s1 + 0x80]\n 25890: a2 = s1 + 0x100\n 25894: u64 [a2 + 0x8] = a3\n 25897: u64 [a2] = a1\n 25899: a1 = u64 [s1 + 0x88]\n 25903: u64 [a2 + 0x10] = a1\n 25906: a1 = s1 + 0x100\n 25910: a3 = u64 [s1 + 0x90]\n 25914: u64 [a2 + 0x18] = a3\n 25917: ra = 862, jump @19\n      : @866 [@dyn 431] (gas: 14)\n 25923: t2 = 0\n 25925: t1 = 0\n 25927: t0 = 0\n 25929: a0 = u64 [s1 + 0x68]\n 25932: a1 = u64 [s1 + 0x60]\n 25935: a0 = a0 | a1\n 25938: a1 = u64 [s1 + 0x78]\n 25941: a2 = u64 [s1 + 0x70]\n 25944: a1 = a1 | a2\n 25947: a0 = a0 | a1\n 25950: a0 = a0 >u 0\n 25952: a0 = a0 << 0x5\n 25955: u64 [s1 + 0xb8] = a0\n 25959: fallthrough\n      : @867 (gas: 24)\n 25960: a1 = u64 [s1 + 0xb8]\n 25964: a0 = a1 + 0x20\n 25967: a1 = a0 <u a1\n 25970: a2 = t2 + a1\n 25973: a3 = a2 <u t2\n 25976: a3 = a1 if a1 == 0\n 25979: a3 = a3 + t1\n 25982: a1 = a3 <u t1\n 25985: a4 = t0 + a1\n 25988: a1 = u64 [s1 + 0x30]\n 25991: u64 [s1 + 0xe0] = a1\n 25995: u64 [s1 + 0xc0] = a0\n 25999: a0 = u64 [s1 + 0x28]\n 26002: u64 [s1 + 0xe8] = a0\n 26006: a0 = u64 [s1 + 0x20]\n 26009: u64 [s1 + 0xf0] = a0\n 26013: u64 [s1 + 0xc8] = a2\n 26017: a0 = u64 [s1 + 0x18]\n 26020: u64 [s1 + 0xf8] = a0\n 26024: u64 [s1 + 0xd0] = a3\n 26028: a0 = s1 + 0xe0\n 26032: a1 = s1 + 0xc0\n 26036: u64 [s1 + 0xd8] = a4\n 26040: ra = 864, jump @810\n      : @868 [@dyn 432] (gas: 16)\n 26046: a0 = u64 [s1 + 0x10]\n 26049: a1 = u64 [s1 + 0x18]\n 26052: u64 [a0 + 0x18] = a1\n 26055: a1 = u64 [s1 + 0x20]\n 26058: u64 [a0 + 0x10] = a1\n 26061: a1 = u64 [s1 + 0x28]\n 26064: u64 [a0 + 0x8] = a1\n 26067: a1 = u64 [s1 + 0x30]\n 26070: u64 [a0] = a1\n 26072: sp = s0 + 0xfffffffffffffda0\n 26076: a0 = sp + 0x200\n 26080: ra = u64 [a0 + 0x58]\n 26083: s0 = u64 [a0 + 0x50]\n 26086: s1 = u64 [a0 + 0x48]\n 26089: sp = sp + 0x260\n 26093: ret\n      : @869 (gas: 12)\n 26095: a0 = u64 [s1 + 0x98]\n 26099: a2 = s1 + 0x100\n 26103: u64 [a2 + 0x60] = a0\n 26106: a0 = u64 [s1 + 0xa0]\n 26110: u64 [a2 + 0x68] = a0\n 26113: a0 = u64 [s1 + 0xa8]\n 26117: u64 [a2 + 0x70] = a0\n 26120: a1 = s1 + 0x160\n 26124: a0 = u64 [s1 + 0xb0]\n 26128: u64 [a2 + 0x78] = a0\n 26131: a0 = 0\n 26133: ra = 866, jump @19\n      : @870 [@dyn 433] (gas: 6)\n 26139: a0 = sp + 0xffffffffffffffe0\n 26142: a0 = a0 & 0xffffffffffffffe0\n 26145: u64 [s1 + 0x58] = a0\n 26148: sp = a0\n 26150: a1 = i32 [0x20074]\n 26155: jump @872 if a1 >u 31\n      : @871 (gas: 2)\n 26159: u32 [0x20074] = 0x20\n 26165: fallthrough\n      : @872 (gas: 49)\n 26166: a0 = sp + 0xffffffffffffffe0\n 26169: a2 = a0 & 0xffffffffffffffe0\n 26172: u64 [s1 + 0xb0] = a2\n 26176: sp = a2\n 26178: a0 = 0x20080\n 26183: i32 a0 = a0 + 0\n 26185: i32 a2 = a2 + 0\n 26187: a1 = 0x20\n 26190: ecalli 6 // 'hash_keccak_256'\n 26192: u64 [s1 + 184] = 0\n 26196: t2 = 0\n 26198: t1 = 0\n 26200: t0 = 0\n 26202: a5 = u64 [s1 + 0xb0]\n 26206: a0 = u64 [a5 + 0x18]\n 26209: a1 = u64 [s1 + 0x30]\n 26212: a2 = a1 + 0x20\n 26215: u64 [s1 + 0x50] = a2\n 26218: a1 = a2 <u a1\n 26221: a2 = u64 [s1 + 0x28]\n 26224: a3 = a2 + a1\n 26227: u64 [s1 + 0x48] = a3\n 26230: a4 = a3 <u a2\n 26233: a4 = a1 if a1 == 0\n 26236: a1 = u64 [a5 + 0x10]\n 26239: a2 = u64 [a5 + 0x8]\n 26242: a3 = u64 [a5]\n 26244: a0 = reverse a0\n 26246: a1 = reverse a1\n 26248: ra = reverse a2\n 26250: a2 = reverse a3\n 26252: a5 = u64 [s1 + 0x58]\n 26255: a3 = a2\n 26257: u64 [a5 + 0x18] = a2\n 26260: a2 = ra\n 26262: u64 [s1 + 0x80] = a2\n 26266: u64 [a5 + 0x10] = a2\n 26269: u64 [s1 + 0x90] = a1\n 26273: u64 [a5 + 0x8] = a1\n 26276: a2 = a0\n 26278: u64 [a5] = a0\n 26280: a0 = u64 [s1 + 0x20]\n 26283: a4 = a4 + a0\n 26286: u64 [s1 + 0x40] = a4\n 26289: a0 = a4 <u a0\n 26292: a1 = u64 [s1 + 0x18]\n 26295: a0 = a0 + a1\n 26298: u64 [s1 + 0x38] = a0\n 26301: fallthrough\n      : @873 (gas: 19)\n 26302: u64 [s1 + 0x88] = a3\n 26306: u64 [s1 + 0x98] = a2\n 26310: a0 = u64 [s1 + 0x60]\n 26313: a1 = u64 [s1 + 0xb8]\n 26317: a0 = a1 <u a0\n 26320: a2 = u64 [s1 + 0x70]\n 26323: a1 = t2 ^ a2\n 26326: a2 = t2 <u a2\n 26329: a2 = a0 if a1 == 0\n 26332: a4 = u64 [s1 + 0x68]\n 26335: a0 = t1 <u a4\n 26338: a3 = u64 [s1 + 0x78]\n 26341: a1 = t0 ^ a3\n 26344: a3 = t0 <u a3\n 26347: a3 = a0 if a1 == 0\n 26350: a0 = t1 ^ a4\n 26353: a0 = a0 | a1\n 26356: a3 = a2 if a0 == 0\n 26359: jump @867 if a3 == 0\n      : @874 (gas: 6)\n 26363: a0 = s1 + 0x140\n 26367: a1 = a5\n 26369: u64 [s1 + 0xb0] = t0\n 26373: u64 [s1 + 0xa8] = t1\n 26377: u64 [s1 + 0xa0] = t2\n 26381: ra = 868, jump @21\n      : @875 [@dyn 434] (gas: 7)\n 26387: a1 = u64 [s1 + 0x50]\n 26390: a0 = u64 [s1 + 0xb8]\n 26394: a0 = a0 + a1\n 26397: a1 = a0 <u a1\n 26400: a4 = u64 [s1 + 0x48]\n 26403: a2 = u64 [s1 + 0xa0]\n 26407: t0 = 870, jump @1028\n      : @876 [@dyn 435] (gas: 9)\n 26413: a3 = u64 [s1 + 0x40]\n 26416: a1 = u64 [s1 + 0xa8]\n 26420: a1 = a1 + a3\n 26423: t0 = a1 <u a3\n 26426: a5 = u64 [s1 + 0x38]\n 26429: a3 = u64 [s1 + 0xb0]\n 26433: a5 = a5 + a3\n 26436: a3 = a5 + t0\n 26439: t0 = 872, jump @1014\n      : @877 [@dyn 436] (gas: 1)\n 26445: jump @880 if a1 != 0\n      : @878 (gas: 11)\n 26449: a5 = s1 + 0x100\n 26453: a2 = u64 [a5 + 0x58]\n 26456: a1 = u64 [a5 + 0x50]\n 26459: a3 = u64 [a5 + 0x48]\n 26462: a4 = u64 [a5 + 0x40]\n 26465: u64 [a5 + 0x20] = a4\n 26468: u64 [a5 + 0x28] = a3\n 26471: u64 [a5 + 0x30] = a1\n 26474: a1 = s1 + 0x120\n 26478: u64 [a5 + 0x38] = a2\n 26481: ra = 874, jump @19\n      : @879 [@dyn 437] (gas: 38)\n 26487: a3 = u64 [s1 + 0x98]\n 26491: a3 = a3 + 0x1\n 26494: a0 = a3 <u 0x1\n 26497: t2 = u64 [s1 + 0x90]\n 26501: t2 = t2 + a0\n 26504: a0 = a3 | t2\n 26507: a0 = a0 <u 0x1\n 26510: a1 = u64 [s1 + 0x80]\n 26514: t1 = a1 + a0\n 26517: a1 = t1 <u a1\n 26520: a0 = u64 [s1 + 0x88]\n 26524: a0 = a0 + a1\n 26527: a1 = u64 [s1 + 0xb8]\n 26531: ra = a1 + 0x20\n 26534: a2 = ra <u a1\n 26537: a4 = u64 [s1 + 0xa0]\n 26541: a1 = a4 + a2\n 26544: a4 = a1 <u a4\n 26547: a4 = a2 if a2 == 0\n 26550: a2 = u64 [s1 + 0xa8]\n 26554: a4 = a4 + a2\n 26557: a2 = a4 <u a2\n 26560: t0 = u64 [s1 + 0xb0]\n 26564: t0 = t0 + a2\n 26567: a2 = t2\n 26569: u64 [s1 + 0x90] = a2\n 26573: a5 = u64 [s1 + 0x58]\n 26576: u64 [a5 + 0x8] = a2\n 26579: a2 = a3\n 26581: u64 [a5] = a3\n 26583: u64 [a5 + 0x10] = t1\n 26586: a3 = a0\n 26588: u64 [a5 + 0x18] = a0\n 26591: u64 [s1 + 0x80] = t1\n 26595: u64 [s1 + 0xb8] = ra\n 26599: t2 = a1\n 26601: t1 = a4\n 26603: jump @873\n      : @880 (gas: 1)\n 26606: trap\n      : @881 (gas: 21)\n 26607: sp = sp + 0xffffffffffffff10\n 26611: u64 [sp + 0xe8] = ra\n 26615: u64 [sp + 0xe0] = s0\n 26619: u64 [sp + 0xd8] = s1\n 26623: s0 = sp + 0xf0\n 26627: sp = sp & 0xfffffffffffffff0\n 26630: a5 = u64 [a1 + 0x10]\n 26633: a4 = u64 [a1 + 0x18]\n 26636: a3 = u64 [a1 + 0x8]\n 26639: a1 = u64 [a1]\n 26641: u64 [sp + 0x28] = a3\n 26644: u64 [sp + 0x18] = a4\n 26647: a4 = a4 | a3\n 26650: a3 = a1 | a5\n 26653: a3 = a3 | a4\n 26656: a3 = a3 >> 0x20\n 26659: u64 [sp + 0x20] = a5\n 26662: a4 = a4 | a5\n 26665: a4 = a4 << 0x20\n 26668: a3 = a3 | a4\n 26671: jump @896 if a3 != 0\n      : @882 (gas: 11)\n 26675: u64 [sp + 0x8] = a0\n 26678: a0 = u64 [a2 + 0x18]\n 26681: u64 [sp + 0x68] = a0\n 26684: s1 = u64 [a2 + 0x10]\n 26687: a0 = u64 [a2 + 0x8]\n 26690: u64 [sp + 0x60] = a0\n 26693: a0 = u64 [a2]\n 26695: u64 [sp + 0x58] = a0\n 26698: a0 = sp + 0xb0\n 26702: u64 [sp + 0x10] = a1\n 26705: ra = 876, jump @17\n      : @883 [@dyn 438] (gas: 12)\n 26711: a0 = u64 [sp + 0x58]\n 26714: a2 = a0 | s1\n 26717: a1 = u64 [sp + 0x68]\n 26720: a3 = u64 [sp + 0x60]\n 26723: a1 = a1 | a3\n 26726: a2 = a2 | a1\n 26729: a2 = a2 >> 0x20\n 26732: u64 [sp + 0x50] = s1\n 26735: a1 = a1 | s1\n 26738: a1 = a1 << 0x20\n 26741: a1 = a1 | a2\n 26744: jump @896 if a1 != 0\n      : @884 (gas: 15)\n 26748: a2 = u64 [sp + 0xc8]\n 26752: a3 = u64 [sp + 0xc0]\n 26756: a4 = u64 [sp + 0xb8]\n 26760: a1 = u64 [sp + 0xb0]\n 26764: u64 [sp + 0x30] = a1\n 26767: u64 [sp + 0x90] = a1\n 26771: u64 [sp + 0x38] = a4\n 26774: u64 [sp + 0x98] = a4\n 26778: u64 [sp + 0x40] = a3\n 26781: u64 [sp + 0xa0] = a3\n 26785: a1 = sp + 0x90\n 26789: u64 [sp + 0x48] = a2\n 26792: u64 [sp + 0xa8] = a2\n 26796: s1 = a0\n 26798: ra = 878, jump @19\n      : @885 [@dyn 439] (gas: 9)\n 26804: a0 = u64 [sp + 0x68]\n 26807: a1 = u64 [sp + 0x50]\n 26810: a1 = a1 | a0\n 26813: a0 = 0xffffffe0\n 26823: a2 = s1 <u a0\n 26826: a3 = u64 [sp + 0x60]\n 26829: a2 = 0 if a3 != 0\n 26831: a2 = 0 if a1 != 0\n 26833: jump @896 if a2 == 0\n      : @886 (gas: 9)\n 26837: a1 = u64 [sp + 0x20]\n 26840: a2 = u64 [sp + 0x18]\n 26843: a1 = a1 | a2\n 26846: a2 = u64 [sp + 0x10]\n 26849: a0 = a2 <u a0\n 26852: a3 = u64 [sp + 0x28]\n 26855: a0 = 0 if a3 != 0\n 26857: a0 = 0 if a1 != 0\n 26859: jump @896 if a0 == 0\n      : @887 (gas: 13)\n 26863: a5 = s1\n 26865: s1 = u64 [sp + 0x30]\n 26868: a3 = u64 [sp + 0x40]\n 26871: a0 = s1 | a3\n 26874: a1 = u64 [sp + 0x48]\n 26877: a4 = u64 [sp + 0x38]\n 26880: a1 = a1 | a4\n 26883: a0 = a0 | a1\n 26886: a0 = a0 >> 0x20\n 26889: a1 = a1 | a3\n 26892: a1 = a1 << 0x20\n 26895: a0 = a0 | a1\n 26898: jump @896 if a0 != 0\n      : @888 (gas: 5)\n 26902: i32 a0 = a5 + 0x20\n 26905: i32 a1 = a2 + 0x20\n 26908: u64 [sp + 0x28] = a1\n 26911: a1 = s1\n 26913: ra = 880, jump @29\n      : @889 [@dyn 440] (gas: 4)\n 26919: u64 [sp + 0x20] = a0\n 26922: a0 = u64 [sp + 0x28]\n 26925: a1 = s1\n 26927: ra = 882, jump @29\n      : @890 [@dyn 441] (gas: 4)\n 26933: a1 = a0\n 26935: a0 = u64 [sp + 0x20]\n 26938: a2 = s1\n 26940: ra = 884, jump @0\n      : @891 [@dyn 442] (gas: 6)\n 26946: a0 = u64 [sp + 0x58]\n 26949: a0 = a0 + s1\n 26952: a1 = a0 <u s1\n 26955: a2 = u64 [sp + 0x60]\n 26958: a4 = u64 [sp + 0x38]\n 26961: t0 = 886, jump @1028\n      : @892 [@dyn 443] (gas: 17)\n 26967: a1 = u64 [sp + 0x50]\n 26970: a3 = u64 [sp + 0x40]\n 26973: a1 = a1 + a3\n 26976: a3 = a1 <u a3\n 26979: a5 = u64 [sp + 0x68]\n 26982: s1 = u64 [sp + 0x48]\n 26985: a5 = a5 + s1\n 26988: a3 = a3 + a5\n 26991: a4 = a4 + a1\n 26994: a1 = a4 <u a1\n 26997: a1 = a1 + a3\n 27000: a1 = a1 | a4\n 27003: a3 = 0xffffffe0\n 27013: a3 = a0 <u a3\n 27016: a3 = 0 if a2 != 0\n 27018: a3 = 0 if a1 != 0\n 27020: jump @896 if a3 == 0\n      : @893 (gas: 7)\n 27024: i32 a0 = a0 + 0x20\n 27027: u64 [sp + 136] = 0\n 27031: u64 [sp + 128] = 0\n 27035: u64 [sp + 120] = 0\n 27038: a1 = sp + 0x70\n 27041: u64 [sp + 112] = 0\n 27044: ra = 888, jump @19\n      : @894 [@dyn 444] (gas: 9)\n 27050: s1 = u64 [sp + 0x30]\n 27053: s1 = s1 + 0x1f\n 27056: a0 = 0x1ffffffe0\n 27066: a0 = a0 & s1\n 27069: a1 = u64 [sp + 0x58]\n 27072: a0 = a0 + a1\n 27075: a1 = a0 <u a1\n 27078: a3 = u64 [sp + 0x60]\n 27081: t0 = 890, jump @1030\n      : @895 [@dyn 445] (gas: 24)\n 27087: a1 = u64 [sp + 0x50]\n 27090: a3 = a3 + a1\n 27093: a1 = a3 <u a1\n 27096: a4 = u64 [sp + 0x68]\n 27099: a1 = a1 + a4\n 27102: a4 = a0 + 0x20\n 27105: a0 = a4 <u a0\n 27108: a5 = a2 + a0\n 27111: a2 = a5 <u a2\n 27114: a2 = a0 if a0 == 0\n 27117: a2 = a2 + a3\n 27120: a0 = a2 <u a3\n 27123: a0 = a0 + a1\n 27126: a1 = u64 [sp + 0x8]\n 27129: u64 [a1] = a4\n 27131: u64 [a1 + 0x8] = a5\n 27134: u64 [a1 + 0x10] = a2\n 27137: u64 [a1 + 0x18] = a0\n 27140: sp = s0 + 0xffffffffffffff10\n 27144: ra = u64 [sp + 0xe8]\n 27148: s0 = u64 [sp + 0xe0]\n 27152: s1 = u64 [sp + 0xd8]\n 27156: sp = sp + 0xf0\n 27160: ret\n      : @896 (gas: 1)\n 27162: trap\n      : @897 [@dyn 446] (gas: 31)\n 27163: a2 = u64 [a1]\n 27165: s1 = u64 [a1 + 0x18]\n 27168: a5 = u64 [a1 + 0x8]\n 27171: a1 = u64 [a1 + 0x10]\n 27174: t0 = a2 + 0xfffffffffffffffc\n 27177: u64 [sp + 0x10] = a2\n 27180: a2 = t0 <u a2\n 27183: a3 = a5 + a2\n 27186: a3 = a3 + 0xffffffffffffffff\n 27189: a4 = a3 ^ a5\n 27192: u64 [sp] = a5\n 27194: a5 = a3 <u a5\n 27197: a5 = a2 if a4 == 0\n 27200: a2 = a1 + 0xffffffffffffffff\n 27203: a5 = a5 + a2\n 27206: a2 = a5 <u a2\n 27209: u64 [sp + 0x8] = a1\n 27212: a4 = a1 <u 0x1\n 27215: u64 [sp + 0x18] = s1\n 27218: a4 = s1 - a4\n 27221: a2 = a2 + a4\n 27224: a4 = a2 >s 0\n 27226: s1 = a5 >u 0\n 27228: s1 = a4 if a2 != 0\n 27231: a2 = a2 | a5\n 27234: a4 = a3 >u 0\n 27236: a1 = t0 <u 0x40\n 27239: a1 = a1 ^ 0x1\n 27242: a1 = a4 if a3 != 0\n 27245: a1 = s1 if a2 != 0\n 27248: jump @907 if a1 == 0\n      : @898 (gas: 6)\n 27252: s1 = a0\n 27254: i32 a0 = sp + 0x80\n 27258: a1 = 0x4\n 27261: ra = 0x37e\n 27265: ecalli 1 // 'call_data_load'\n 27267: fallthrough\n      : @899 [@dyn 447] (gas: 4)\n 27268: a0 = u64 [sp + 0x98]\n 27272: a1 = u64 [sp + 0x90]\n 27276: a2 = u64 [sp + 0x88]\n 27280: t0 = 896, jump @1027\n      : @900 [@dyn 448] (gas: 1)\n 27286: jump @908 if a4 == 0\n      : @901 (gas: 3)\n 27290: a3 = u64 [sp + 0x80]\n 27294: a4 = a3 + 0x4\n 27297: t0 = 898, jump @1042\n      : @902 [@dyn 449] (gas: 17)\n 27303: a3 = a0 + a1\n 27306: a0 = u64 [sp + 0x10]\n 27309: u64 [sp + 0x20] = a0\n 27312: a0 = u64 [sp]\n 27314: u64 [sp + 0x28] = a0\n 27317: u64 [sp + 0x40] = a4\n 27320: a0 = u64 [sp + 0x8]\n 27323: u64 [sp + 0x30] = a0\n 27326: a0 = u64 [sp + 0x18]\n 27329: u64 [sp + 0x38] = a0\n 27332: u64 [sp + 0x48] = a5\n 27335: u64 [sp + 0x50] = a2\n 27338: a0 = sp + 0x60\n 27341: a1 = sp + 0x40\n 27344: a2 = sp + 0x20\n 27347: u64 [sp + 0x58] = a3\n 27350: ra = 900, jump @820\n      : @903 [@dyn 450] (gas: 13)\n 27356: a0 = u64 [sp + 0x78]\n 27359: u64 [sp + 0x18] = a0\n 27362: a0 = u64 [sp + 0x70]\n 27365: u64 [sp + 0x10] = a0\n 27368: a0 = u64 [sp + 0x68]\n 27371: u64 [sp + 0x8] = a0\n 27374: a0 = u64 [sp + 0x60]\n 27377: u64 [sp] = a0\n 27379: i32 a0 = sp + 0xa0\n 27383: a1 = 0x24\n 27386: ra = 0x386\n 27390: ecalli 1 // 'call_data_load'\n 27392: fallthrough\n      : @904 [@dyn 451] (gas: 3)\n 27393: a1 = u64 [sp + 0xb0]\n 27397: a0 = u64 [sp + 0xb8]\n 27401: t0 = 904, jump @1038\n      : @905 [@dyn 452] (gas: 1)\n 27407: jump @909 if a3 == 0\n      : @906 (gas: 20)\n 27410: a2 = u64 [sp + 0xa0]\n 27414: a3 = u64 [sp + 0xa8]\n 27418: u64 [s1 + 0x20] = a2\n 27421: a2 = u64 [sp]\n 27423: u64 [s1] = a2\n 27425: u64 [s1 + 0x28] = a3\n 27428: a2 = u64 [sp + 0x8]\n 27431: u64 [s1 + 0x8] = a2\n 27434: u64 [s1 + 0x30] = a1\n 27437: a1 = u64 [sp + 0x10]\n 27440: u64 [s1 + 0x10] = a1\n 27443: u64 [s1 + 0x38] = a0\n 27446: a0 = u64 [sp + 0x18]\n 27449: u64 [s1 + 0x18] = a0\n 27452: sp = s0 + 0xffffffffffffff20\n 27456: ra = u64 [sp + 0xd8]\n 27460: s0 = u64 [sp + 0xd0]\n 27464: s1 = u64 [sp + 0xc8]\n 27468: sp = sp + 0xe0\n 27472: ret\n      : @907 (gas: 2)\n 27474: a1 = 0x20080\n 27479: jump @910\n      : @908 (gas: 2)\n 27481: a1 = 0x20080\n 27486: jump @910\n      : @909 (gas: 2)\n 27488: a1 = 0x20080\n 27493: fallthrough\n      : @910 (gas: 6)\n 27494: i32 a1 = a1 + 0\n 27496: a0 = 0x1\n 27499: a2 = 0\n 27501: ra = 0x38a\n 27505: ecalli 8 // 'seal_return'\n 27507: fallthrough\n      : @911 [@dyn 453] (gas: 31)\n 27508: sp = sp + 0xfffffffffffffee0\n 27512: u64 [sp + 0x118] = ra\n 27516: u64 [sp + 0x110] = s0\n 27520: u64 [sp + 0x108] = s1\n 27524: s0 = sp + 0x120\n 27528: sp = sp & 0xffffffffffffffe0\n 27531: s1 = sp\n 27533: u64 [s1 + 0x38] = a0\n 27536: a0 = u64 [a2]\n 27538: u64 [s1 + 0x40] = a0\n 27541: a0 = u64 [a2 + 0x8]\n 27544: u64 [s1 + 0x48] = a0\n 27547: a0 = u64 [a2 + 0x10]\n 27550: u64 [s1 + 0x50] = a0\n 27553: a0 = u64 [a2 + 0x18]\n 27556: u64 [s1 + 0x58] = a0\n 27559: a0 = u64 [a1 + 0x18]\n 27562: a2 = u64 [a1 + 0x10]\n 27565: a3 = u64 [a1 + 0x8]\n 27568: a1 = u64 [a1]\n 27570: u64 [s1 + 0x30] = a0\n 27573: u64 [s1 + 0xf8] = a0\n 27577: u64 [s1 + 0x28] = a2\n 27580: u64 [s1 + 0xf0] = a2\n 27584: u64 [s1 + 0x20] = a3\n 27587: u64 [s1 + 0xe8] = a3\n 27591: u64 [s1 + 0x18] = a1\n 27594: u64 [s1 + 0xe0] = a1\n 27598: a0 = s1 + 0xc0\n 27602: a1 = s1 + 0xe0\n 27606: ra = 908, jump @21\n      : @912 [@dyn 454] (gas: 20)\n 27612: a0 = u64 [s1 + 0xd8]\n 27616: t0 = u64 [s1 + 0xc0]\n 27620: a2 = u64 [s1 + 0xd0]\n 27624: a3 = u64 [s1 + 0xc8]\n 27628: a1 = u64 [s1 + 0x58]\n 27631: a4 = a0 ^ a1\n 27634: a1 = a1 <u a0\n 27637: a0 = u64 [s1 + 0x50]\n 27640: a5 = a0 <u a2\n 27643: a5 = a1 if a4 != 0\n 27646: a1 = u64 [s1 + 0x48]\n 27649: t1 = a3 ^ a1\n 27652: a3 = a1 <u a3\n 27655: a1 = u64 [s1 + 0x40]\n 27658: a1 = a1 <u t0\n 27661: a1 = a3 if t1 != 0\n 27664: a0 = a0 ^ a2\n 27667: a0 = a0 | a4\n 27670: a1 = a5 if a0 != 0\n 27673: jump @917 if a1 == 0\n      : @913 (gas: 11)\n 27677: a0 = u64 [s1 + 0x18]\n 27680: u64 [s1 + 0x60] = a0\n 27683: a0 = u64 [s1 + 0x20]\n 27686: u64 [s1 + 0x68] = a0\n 27689: a0 = u64 [s1 + 0x28]\n 27692: u64 [s1 + 0x70] = a0\n 27695: a1 = s1 + 0x60\n 27698: a0 = u64 [s1 + 0x30]\n 27701: u64 [s1 + 0x78] = a0\n 27704: a0 = 0\n 27706: ra = 910, jump @19\n      : @914 [@dyn 455] (gas: 2)\n 27712: a1 = i32 [0x20074]\n 27717: jump @916 if a1 >u 31\n      : @915 (gas: 2)\n 27721: u32 [0x20074] = 0x20\n 27727: fallthrough\n      : @916 (gas: 72)\n 27728: a0 = sp + 0xffffffffffffffe0\n 27731: a2 = a0 & 0xffffffffffffffe0\n 27734: u64 [s1 + 0x30] = a2\n 27737: sp = a2\n 27739: a0 = 0x20080\n 27744: i32 a0 = a0 + 0\n 27746: i32 a2 = a2 + 0\n 27748: a1 = 0x20\n 27751: ecalli 6 // 'hash_keccak_256'\n 27753: t0 = u64 [s1 + 0x30]\n 27756: a0 = u64 [t0 + 0x18]\n 27759: a1 = u64 [t0 + 0x10]\n 27762: a3 = reverse a0\n 27764: a1 = reverse a1\n 27766: a4 = 0x3\n 27769: a0 = u64 [s1 + 0x40]\n 27772: a2 = a0 << 0x1\n 27775: t1 = a2 + a0\n 27778: a4 = a0 mulhu a4\n 27781: a2 = u64 [s1 + 0x48]\n 27784: a5 = a2 << 0x1\n 27787: a5 = a5 + a2\n 27790: a4 = a4 + a5\n 27793: t1 = t1 + a3\n 27796: a3 = t1 <u a3\n 27799: a0 = a1 + a4\n 27802: ra = a0 + a3\n 27805: a0 = ra ^ a1\n 27808: a1 = ra <u a1\n 27811: a1 = a3 if a0 == 0\n 27814: a0 = a4 <u a5\n 27817: a4 = 0x3\n 27820: a3 = a2 mulhu a4\n 27823: a0 = a0 + a3\n 27826: a2 = u64 [s1 + 0x50]\n 27829: a3 = a2 << 0x1\n 27832: t2 = a3 + a2\n 27835: a4 = a2 mulhu a4\n 27838: a5 = u64 [t0]\n 27840: a2 = u64 [s1 + 0x58]\n 27843: a3 = a2 << 0x1\n 27846: a3 = a3 + a2\n 27849: a3 = a3 + a4\n 27852: a4 = reverse a5\n 27854: a3 = a3 + a4\n 27857: a4 = u64 [t0 + 0x8]\n 27860: t2 = t2 + a0\n 27863: a0 = t2 <u a0\n 27866: a0 = a0 + a3\n 27869: a3 = reverse a4\n 27871: t2 = t2 + a3\n 27874: a3 = t2 <u a3\n 27877: a0 = a0 + a3\n 27880: a1 = a1 + t2\n 27883: a3 = a1 <u t2\n 27886: a0 = a0 + a3\n 27889: a3 = u64 [s1 + 0x38]\n 27892: u64 [a3] = t1\n 27894: u64 [a3 + 0x8] = ra\n 27897: u64 [a3 + 0x10] = a1\n 27900: u64 [a3 + 0x18] = a0\n 27903: a0 = 0\n 27905: u64 [a3 + 56] = 0\n 27908: u64 [a3 + 48] = 0\n 27911: u64 [a3 + 40] = 0\n 27914: u64 [a3 + 32] = 0\n 27917: sp = s0 + 0xfffffffffffffee0\n 27921: ra = u64 [sp + 0x118]\n 27925: s0 = u64 [sp + 0x110]\n 27929: s1 = u64 [sp + 0x108]\n 27933: sp = sp + 0x120\n 27937: ret\n      : @917 (gas: 6)\n 27939: u64 [s1 + 176] = 0\n 27943: u64 [s1 + 168] = 0\n 27947: u64 [s1 + 160] = 0\n 27951: t0 = 0x390\n 27955: a0 = 0x4e487b7100000000\n 27965: fallthrough\n      : @918 [@dyn 456] (gas: 4)\n 27966: a1 = s1 + 0xa0\n 27970: u64 [s1 + 0xb8] = a0\n 27974: a0 = 0\n 27976: ra = 914, jump @19\n      : @919 [@dyn 457] (gas: 7)\n 27982: u64 [s1 + 152] = 0\n 27986: u64 [s1 + 144] = 0\n 27990: u64 [s1 + 128] = 0x32\n 27995: a0 = 0x4\n 27998: a1 = s1 + 0x80\n 28002: u64 [s1 + 136] = 0\n 28006: ra = 916, jump @19\n      : @920 [@dyn 458] (gas: 2)\n 28012: a1 = i32 [0x20074]\n 28017: jump @922 if a1 >u 63\n      : @921 (gas: 2)\n 28021: u32 [0x20074] = 0x40\n 28027: fallthrough\n      : @922 (gas: 7)\n 28028: a1 = 0x20080\n 28033: i32 a1 = a1 + 0\n 28035: a0 = 0x1\n 28038: a2 = 0x24\n 28041: ra = 0x396\n 28045: ecalli 8 // 'seal_return'\n 28047: fallthrough\n      : @923 [@dyn 459] (gas: 36)\n 28048: sp = sp + 0xfffffffffffffce0\n 28052: a2 = sp + 0x300\n 28056: u64 [a2 + 0x18] = ra\n 28059: u64 [a2 + 0x10] = s0\n 28062: u64 [a2 + 0x8] = s1\n 28065: s0 = sp + 0x320\n 28069: sp = sp & 0xffffffffffffffe0\n 28072: s1 = sp\n 28074: a3 = u64 [a1 + 0x10]\n 28077: t0 = u64 [a1]\n 28079: t1 = u64 [a1 + 0x18]\n 28082: a1 = u64 [a1 + 0x8]\n 28085: a5 = u64 [a0 + 0x18]\n 28088: a2 = u64 [a0 + 0x10]\n 28091: a4 = u64 [a0 + 0x8]\n 28094: t2 = u64 [a0]\n 28096: u64 [s1 + 0x80] = a5\n 28100: a0 = s1 + 0x200\n 28104: u64 [a0 + 0x58] = a5\n 28107: u64 [s1 + 0x78] = a2\n 28110: u64 [a0 + 0x50] = a2\n 28113: u64 [s1 + 0x28] = a4\n 28116: u64 [a0 + 0x48] = a4\n 28119: u64 [s1 + 0x68] = a1\n 28122: u64 [s1 + 0x58] = t1\n 28125: a0 = a1 | t1\n 28128: a1 = t0 | a3\n 28131: a1 = a1 | a0\n 28134: a1 = a1 >> 0x20\n 28137: u64 [s1 + 0x60] = a3\n 28140: a0 = a0 | a3\n 28143: a0 = a0 << 0x20\n 28146: a0 = a0 | a1\n 28149: u64 [s1 + 0x20] = t2\n 28152: u64 [s1 + 0x240] = t2\n 28156: jump @964 if a0 != 0\n      : @924 (gas: 4)\n 28160: a0 = s1 + 0x220\n 28164: u64 [s1 + 0x70] = t0\n 28167: a1 = t0\n 28169: ra = 920, jump @17\n      : @925 [@dyn 460] (gas: 17)\n 28175: a0 = s1 + 0x200\n 28179: a3 = u64 [a0 + 0x38]\n 28182: a2 = u64 [a0 + 0x30]\n 28185: a1 = u64 [a0 + 0x28]\n 28188: a0 = a3 >u 0\n 28190: a4 = a2 >u 0\n 28192: a4 = a0 if a3 != 0\n 28195: u64 [s1 + 0x38] = a1\n 28198: a0 = a1 >u 0\n 28200: u64 [s1 + 0x40] = a2\n 28203: u64 [s1 + 0x30] = a3\n 28206: a2 = a2 | a3\n 28209: u64 [s1 + 0x18] = a0\n 28212: u64 [s1 + 0x50] = a4\n 28215: u64 [s1 + 0x90] = a2\n 28219: a0 = a4 if a2 != 0\n 28222: jump @965 if a0 != 0\n      : @926 (gas: 5)\n 28226: a0 = u64 [s1 + 0x220]\n 28230: u64 [s1 + 0x48] = a0\n 28233: a0 = s1 + 0x200\n 28237: a1 = s1 + 0x240\n 28241: ra = 922, jump @21\n      : @927 [@dyn 461] (gas: 12)\n 28247: a4 = s1 + 0x200\n 28251: a2 = u64 [a4]\n 28253: a0 = u64 [a4 + 0x8]\n 28256: a1 = u64 [a4 + 0x10]\n 28259: a3 = u64 [a4 + 0x18]\n 28262: u64 [s1 + 0x1d8] = a3\n 28266: u64 [s1 + 0x1d0] = a1\n 28270: u64 [s1 + 0x1c8] = a0\n 28274: a0 = s1 + 0x1e0\n 28278: a1 = s1 + 0x1c0\n 28282: u64 [s1 + 0x1c0] = a2\n 28286: ra = 924, jump @848\n      : @928 [@dyn 462] (gas: 18)\n 28292: a0 = s1 + 0x100\n 28296: a3 = u64 [a0 + 0xf8]\n 28300: a4 = u64 [a0 + 0xf0]\n 28304: a5 = u64 [a0 + 0xe8]\n 28308: t0 = u64 [s1 + 0x1e0]\n 28312: a0 = a3 >u 0\n 28314: a1 = a4 >u 0\n 28316: a1 = a0 if a3 != 0\n 28319: a0 = a5 >u 0\n 28321: a2 = t0 <u 0x20\n 28324: a2 = a2 ^ 0x1\n 28327: a2 = a0 if a5 != 0\n 28330: a0 = a4 | a3\n 28333: a2 = a1 if a0 != 0\n 28336: a0 = u64 [s1 + 0x48]\n 28339: a0 = a0 <u 0x20\n 28342: u64 [s1 + 0x88] = a0\n 28346: jump @936 if a2 == 0\n      : @929 (gas: 16)\n 28350: u64 [s1 + 0xb0] = t0\n 28354: u64 [s1 + 0xb8] = a5\n 28358: u64 [s1 + 0xd0] = a4\n 28362: u64 [s1 + 0xc0] = a3\n 28366: a0 = u64 [s1 + 0x20]\n 28369: a2 = s1 + 0x100\n 28373: u64 [a2 + 0xa0] = a0\n 28377: a0 = u64 [s1 + 0x28]\n 28380: u64 [a2 + 0xa8] = a0\n 28384: a0 = u64 [s1 + 0x78]\n 28387: u64 [a2 + 0xb0] = a0\n 28391: a1 = s1 + 0x1a0\n 28395: a0 = u64 [s1 + 0x80]\n 28399: u64 [a2 + 0xb8] = a0\n 28403: a0 = 0\n 28405: ra = 926, jump @19\n      : @930 [@dyn 463] (gas: 2)\n 28411: a1 = i32 [0x20074]\n 28416: jump @932 if a1 >u 31\n      : @931 (gas: 2)\n 28420: u32 [0x20074] = 0x20\n 28426: fallthrough\n      : @932 (gas: 117)\n 28427: a0 = sp + 0xffffffffffffffe0\n 28430: a2 = a0 & 0xffffffffffffffe0\n 28433: u64 [s1 + 0xc8] = a2\n 28437: sp = a2\n 28439: a0 = 0x20080\n 28444: i32 a0 = a0 + 0\n 28446: i32 a2 = a2 + 0\n 28448: a1 = 0x20\n 28451: ecalli 6 // 'hash_keccak_256'\n 28453: a0 = u64 [s1 + 0x48]\n 28456: a1 = a0 + 0x1f\n 28459: a0 = a1 <u a0\n 28462: a5 = u64 [s1 + 0x38]\n 28465: a2 = a5 + a0\n 28468: a3 = a2 <u a5\n 28471: a3 = a0 if a0 == 0\n 28474: a4 = u64 [s1 + 0x40]\n 28477: a3 = a3 + a4\n 28480: u64 [s1 + 0xa8] = a3\n 28484: a3 = a3 << 0x3b\n 28487: a4 = a2 >> 0x5\n 28490: a4 = a4 | a3\n 28493: a0 = u64 [s1 + 0xc8]\n 28497: t1 = u64 [a0 + 0x18]\n 28500: a2 = a2 << 0x3b\n 28503: a3 = u64 [a0 + 0x10]\n 28506: a1 = a1 >> 0x5\n 28509: a0 = a1 | a2\n 28512: t2 = reverse t1\n 28514: a2 = reverse a3\n 28516: a1 = u64 [s1 + 0x88]\n 28520: a1 = 0 if a5 != 0\n 28522: a3 = u64 [s1 + 0x90]\n 28526: a1 = 0 if a3 != 0\n 28528: a4 = 0 if a1 != 0\n 28530: a0 = 0 if a1 != 0\n 28532: t0 = t2 + a0\n 28535: a0 = t0 <u t2\n 28538: a5 = a2 + a0\n 28541: a4 = a4 + a5\n 28544: u64 [s1 + 0xd8] = a4\n 28548: a5 = a4 ^ a2\n 28551: a3 = a4 <u a2\n 28554: a3 = a0 if a5 == 0\n 28557: u64 [s1 + 0xa0] = a3\n 28561: a0 = u64 [s1 + 0xb0]\n 28565: ra = a0 + 0x1f\n 28568: a4 = ra <u a0\n 28571: a3 = u64 [s1 + 0xb8]\n 28575: a0 = a3 + a4\n 28578: a5 = a0 <u a3\n 28581: a5 = a4 if a4 == 0\n 28584: t1 = u64 [s1 + 0xd0]\n 28588: t1 = t1 + a5\n 28591: a4 = t1 << 0x3b\n 28594: a3 = a0 >> 0x5\n 28597: a3 = a3 | a4\n 28600: a0 = a0 << 0x3b\n 28603: a4 = ra >> 0x5\n 28606: a0 = a0 | a4\n 28609: a0 = a0 + t2\n 28612: u64 [s1 + 0xb8] = a0\n 28616: a0 = a0 <u t2\n 28619: t2 = t0\n 28621: a4 = a2 + a0\n 28624: a4 = a4 + a3\n 28627: a3 = a4 ^ a2\n 28630: u64 [s1 + 0xb0] = a4\n 28634: a2 = a4 <u a2\n 28637: a2 = a0 if a3 == 0\n 28640: a4 = u64 [s1 + 0xa8]\n 28644: a0 = u64 [s1 + 0x40]\n 28647: a0 = a4 <u a0\n 28650: a3 = u64 [s1 + 0x30]\n 28653: a0 = a0 + a3\n 28656: a3 = a4 >> 0x5\n 28659: a4 = a0 << 0x3b\n 28662: a3 = a3 | a4\n 28665: a4 = u64 [s1 + 0xc8]\n 28669: t0 = u64 [a4]\n 28671: a4 = u64 [a4 + 0x8]\n 28674: a0 = a0 >> 0x5\n 28677: a3 = 0 if a1 != 0\n 28679: a0 = 0 if a1 != 0\n 28681: a1 = reverse a4\n 28683: a4 = reverse t0\n 28685: a0 = a0 + a4\n 28688: a3 = a3 + a1\n 28691: a5 = a3 <u a1\n 28694: a0 = a0 + a5\n 28697: ra = u64 [s1 + 0xa0]\n 28701: ra = ra + a3\n 28704: a3 = ra <u a3\n 28707: t0 = a0 + a3\n 28710: a0 = u64 [s1 + 0xd0]\n 28714: a0 = t1 <u a0\n 28717: a3 = u64 [s1 + 0xc0]\n 28721: a0 = a0 + a3\n 28724: a3 = t1 >> 0x5\n 28727: a5 = a0 << 0x3b\n 28730: a3 = a3 | a5\n 28733: a0 = a0 >> 0x5\n 28736: a0 = a0 + a4\n 28739: a4 = u64 [s1 + 0xd8]\n 28743: a3 = a3 + a1\n 28746: a1 = a3 <u a1\n 28749: a0 = a0 + a1\n 28752: a2 = a2 + a3\n 28755: u64 [s1 + 0xa8] = a2\n 28759: a1 = a2 <u a3\n 28762: a0 = a0 + a1\n 28765: u64 [s1 + 0xa0] = a0\n 28769: a0 = sp + 0xffffffffffffffe0\n 28772: t1 = a0 & 0xffffffffffffffe0\n 28775: sp = t1\n 28777: u64 [s1 + 0x98] = t1\n 28781: fallthrough\n      : @933 (gas: 20)\n 28782: a0 = u64 [s1 + 0xb8]\n 28786: a0 = t2 <u a0\n 28789: a2 = u64 [s1 + 0xb0]\n 28793: a1 = a4 ^ a2\n 28796: a2 = a4 <u a2\n 28799: a2 = a0 if a1 == 0\n 28802: a5 = u64 [s1 + 0xa8]\n 28806: a0 = ra <u a5\n 28809: a3 = u64 [s1 + 0xa0]\n 28813: a1 = t0 ^ a3\n 28816: a3 = t0 <u a3\n 28819: a3 = a0 if a1 == 0\n 28822: a0 = ra ^ a5\n 28825: a0 = a0 | a1\n 28828: a3 = a2 if a0 == 0\n 28831: u64 [t1] = t2\n 28833: u64 [t1 + 0x8] = a4\n 28836: u64 [t1 + 0x10] = ra\n 28839: u64 [t1 + 0x18] = t0\n 28842: jump @936 if a3 == 0\n      : @934 (gas: 11)\n 28845: u64 [s1 + 632] = 0\n 28849: u64 [s1 + 624] = 0\n 28853: u64 [s1 + 616] = 0\n 28857: u64 [s1 + 608] = 0\n 28861: a1 = s1 + 0x260\n 28865: a0 = t1\n 28867: u64 [s1 + 0xd0] = t2\n 28871: u64 [s1 + 0xd8] = a4\n 28875: u64 [s1 + 0xc8] = t0\n 28879: u64 [s1 + 0xc0] = ra\n 28883: ra = 928, jump @23\n      : @935 [@dyn 464] (gas: 15)\n 28889: t1 = u64 [s1 + 0x98]\n 28893: t0 = u64 [s1 + 0xc8]\n 28897: a4 = u64 [s1 + 0xd8]\n 28901: t2 = u64 [s1 + 0xd0]\n 28905: t2 = t2 + 0x1\n 28908: a0 = t2 <u 0x1\n 28911: a4 = a4 + a0\n 28914: a0 = t2 | a4\n 28917: a0 = a0 <u 0x1\n 28920: a1 = u64 [s1 + 0xc0]\n 28924: a0 = a0 + a1\n 28927: a1 = a0 <u a1\n 28930: t0 = t0 + a1\n 28933: ra = a0\n 28935: jump @933\n      : @936 (gas: 9)\n 28938: a0 = u64 [s1 + 0x88]\n 28942: a0 = a0 ^ 0x1\n 28945: a3 = u64 [s1 + 0x38]\n 28948: a1 = u64 [s1 + 0x18]\n 28951: a0 = a1 if a3 != 0\n 28954: a1 = u64 [s1 + 0x50]\n 28957: a2 = u64 [s1 + 0x90]\n 28961: a0 = a1 if a2 != 0\n 28964: jump @945 if a0 == 0\n      : @937 (gas: 15)\n 28968: a0 = u64 [s1 + 0x48]\n 28971: a0 = a0 & 0xffffffffffffffe0\n 28974: u64 [s1 + 0x50] = a0\n 28977: a0 = u64 [s1 + 0x20]\n 28980: a2 = s1 + 0x100\n 28984: u64 [a2 + 0x60] = a0\n 28987: a0 = u64 [s1 + 0x28]\n 28990: u64 [a2 + 0x68] = a0\n 28993: a0 = u64 [s1 + 0x78]\n 28996: u64 [a2 + 0x70] = a0\n 28999: a1 = s1 + 0x160\n 29003: a0 = u64 [s1 + 0x80]\n 29007: u64 [a2 + 0x78] = a0\n 29010: a0 = 0\n 29012: ra = 930, jump @19\n      : @938 [@dyn 465] (gas: 7)\n 29018: a0 = sp + 0xffffffffffffffe0\n 29021: a0 = a0 & 0xffffffffffffffe0\n 29024: u64 [s1 + 0xb8] = a0\n 29028: sp = a0\n 29030: a1 = 0x20\n 29033: a0 = 0\n 29035: ra = 932, jump @29\n      : @939 [@dyn 466] (gas: 35)\n 29041: a1 = sp + 0xffffffffffffffe0\n 29044: a1 = a1 & 0xffffffffffffffe0\n 29047: u64 [s1 + 0xb0] = a1\n 29051: sp = a1\n 29053: i32 a0 = a0 + 0\n 29055: i32 a2 = a1 + 0\n 29057: a1 = 0x20\n 29060: ecalli 6 // 'hash_keccak_256'\n 29062: u64 [s1 + 208] = 0x20\n 29067: u64 [s1 + 216] = 0\n 29071: u64 [s1 + 200] = 0\n 29075: a4 = 0\n 29077: t0 = 0\n 29079: t2 = 0\n 29081: u64 [s1 + 192] = 0\n 29085: a3 = u64 [s1 + 0xb0]\n 29089: a0 = u64 [a3 + 0x18]\n 29092: a1 = u64 [a3 + 0x10]\n 29095: a2 = u64 [a3 + 0x8]\n 29098: a5 = u64 [a3]\n 29100: t1 = reverse a0\n 29102: a1 = reverse a1\n 29104: a3 = reverse a2\n 29106: a2 = reverse a5\n 29108: a5 = 0\n 29110: ra = a2\n 29112: a0 = u64 [s1 + 0xb8]\n 29116: u64 [a0 + 0x18] = a2\n 29119: u64 [s1 + 0x90] = a3\n 29123: u64 [a0 + 0x10] = a3\n 29126: u64 [s1 + 0xb0] = a1\n 29130: u64 [a0 + 0x8] = a1\n 29133: a3 = t1\n 29135: u64 [a0] = t1\n 29137: fallthrough\n      : @940 (gas: 25)\n 29138: u64 [s1 + 0xa8] = ra\n 29142: t1 = a3\n 29144: a0 = u64 [s1 + 0x50]\n 29147: u64 [s1 + 0xa0] = a4\n 29151: a0 = a4 <u a0\n 29154: a4 = a0 ^ 0x1\n 29157: u64 [s1 + 0x98] = t0\n 29161: a4 = 0x1 if t0 != 0\n 29164: a0 = u64 [s1 + 0xc0]\n 29168: a0 = t2 | a0\n 29171: a4 = 0x1 if a0 != 0\n 29174: a1 = u64 [s1 + 0x70]\n 29177: a0 = u64 [s1 + 0xd0]\n 29181: a1 = a1 + a0\n 29184: a3 = u64 [s1 + 0x68]\n 29187: a3 = a3 + a5\n 29190: a2 = u64 [s1 + 0x60]\n 29193: a0 = u64 [s1 + 0xd8]\n 29197: a2 = a2 + a0\n 29200: a0 = u64 [s1 + 0x58]\n 29203: t0 = a5\n 29205: a5 = u64 [s1 + 0xc8]\n 29209: a0 = a0 + a5\n 29212: a5 = t0\n 29214: jump @949 if a4 != 0\n      : @941 (gas: 23)\n 29218: u64 [s1 + 0x80] = t2\n 29222: a4 = u64 [s1 + 0xd0]\n 29226: a4 = a1 <u a4\n 29229: a3 = a3 + a4\n 29232: t0 = a3 ^ a5\n 29235: u64 [s1 + 0x78] = a5\n 29238: a5 = a3 <u a5\n 29241: a5 = a4 if t0 == 0\n 29244: a5 = a5 + a2\n 29247: t0 = a5 <u a2\n 29250: a4 = u64 [s1 + 0xd8]\n 29254: a2 = a2 <u a4\n 29257: a0 = a0 + a2\n 29260: a0 = a0 + t0\n 29263: a2 = a1 | a5\n 29266: a0 = a0 | a3\n 29269: a2 = a2 | a0\n 29272: a2 = a2 >> 0x20\n 29275: a0 = a0 | a5\n 29278: a0 = a0 << 0x20\n 29281: a0 = a0 | a2\n 29284: u64 [s1 + 0x88] = t1\n 29288: jump @964 if a0 != 0\n      : @942 (gas: 2)\n 29292: a0 = s1 + 0x120\n 29296: ra = 934, jump @17\n      : @943 [@dyn 467] (gas: 13)\n 29302: a4 = s1 + 0x100\n 29306: a0 = u64 [a4 + 0x38]\n 29309: a1 = u64 [a4 + 0x30]\n 29312: a2 = u64 [a4 + 0x28]\n 29315: a3 = u64 [a4 + 0x20]\n 29318: a4 = s1 + 0x200\n 29322: u64 [a4 + 0x98] = a0\n 29326: u64 [a4 + 0x90] = a1\n 29330: u64 [a4 + 0x88] = a2\n 29334: u64 [a4 + 0x80] = a3\n 29338: a1 = s1 + 0x280\n 29342: a0 = u64 [s1 + 0xb8]\n 29346: ra = 936, jump @23\n      : @944 [@dyn 468] (gas: 57)\n 29352: ra = u64 [s1 + 0x88]\n 29356: ra = ra + 0x1\n 29359: a0 = ra <u 0x1\n 29362: t0 = u64 [s1 + 0xb0]\n 29366: t0 = t0 + a0\n 29369: a0 = ra | t0\n 29372: a0 = a0 <u 0x1\n 29375: a1 = u64 [s1 + 0x90]\n 29379: t1 = a1 + a0\n 29382: a1 = t1 <u a1\n 29385: a0 = u64 [s1 + 0xa8]\n 29389: a0 = a0 + a1\n 29392: a1 = u64 [s1 + 0xd0]\n 29396: a2 = a1 + 0x20\n 29399: u64 [s1 + 0xa8] = a2\n 29403: a3 = a2 <u a1\n 29406: a1 = u64 [s1 + 0x78]\n 29409: a2 = a1 + a3\n 29412: u64 [s1 + 0x88] = a2\n 29416: a4 = a2 <u a1\n 29419: a4 = a3 if a3 == 0\n 29422: a1 = u64 [s1 + 0xd8]\n 29426: t2 = a1 + a4\n 29429: a4 = t2 <u a1\n 29432: a1 = u64 [s1 + 0xc8]\n 29436: a1 = a1 + a4\n 29439: u64 [s1 + 0xc8] = a1\n 29443: a1 = u64 [s1 + 0xa0]\n 29447: a4 = a1 + 0x20\n 29450: a5 = a4 <u a1\n 29453: a2 = u64 [s1 + 0x98]\n 29457: a1 = a2 + a5\n 29460: a2 = a1 <u a2\n 29463: a2 = a5 if a5 == 0\n 29466: a3 = u64 [s1 + 0x80]\n 29470: a2 = a2 + a3\n 29473: a5 = a2 <u a3\n 29476: a3 = u64 [s1 + 0xc0]\n 29480: a3 = a3 + a5\n 29483: u64 [s1 + 0xc0] = a3\n 29487: a3 = t0\n 29489: u64 [s1 + 0xb0] = a3\n 29493: a5 = u64 [s1 + 0xb8]\n 29497: u64 [a5 + 0x8] = a3\n 29500: a3 = ra\n 29502: u64 [a5] = ra\n 29504: u64 [a5 + 0x10] = t1\n 29507: ra = a0\n 29509: u64 [a5 + 0x18] = a0\n 29512: u64 [s1 + 0x90] = t1\n 29516: a0 = u64 [s1 + 0xa8]\n 29520: u64 [s1 + 0xd0] = a0\n 29524: a5 = u64 [s1 + 0x88]\n 29528: u64 [s1 + 0xd8] = t2\n 29532: t0 = a1\n 29534: t2 = a2\n 29536: jump @940\n      : @945 (gas: 8)\n 29539: a2 = u64 [s1 + 0x48]\n 29542: a0 = u64 [s1 + 0x40]\n 29545: a0 = a0 | a2\n 29548: a1 = u64 [s1 + 0x30]\n 29551: a1 = a1 | a3\n 29554: a0 = a0 | a1\n 29557: a4 = u64 [s1 + 0x70]\n 29560: jump @958 if a0 == 0\n      : @946 (gas: 9)\n 29564: a0 = u64 [s1 + 0x60]\n 29567: a1 = u64 [s1 + 0x58]\n 29570: a0 = a0 | a1\n 29573: a1 = 0xffffffe0\n 29583: a1 = a4 <u a1\n 29586: a2 = u64 [s1 + 0x68]\n 29589: a1 = 0 if a2 != 0\n 29591: a1 = 0 if a0 != 0\n 29593: jump @964 if a1 == 0\n      : @947 (gas: 3)\n 29597: i32 a1 = a4 + 0x20\n 29600: a0 = s1 + 0x180\n 29604: ra = 938, jump @17\n      : @948 [@dyn 469] (gas: 12)\n 29610: a1 = s1 + 0x100\n 29614: a0 = u64 [a1 + 0x98]\n 29618: u64 [s1 + 0xd0] = a0\n 29622: a0 = u64 [a1 + 0x90]\n 29626: u64 [s1 + 0xc8] = a0\n 29630: a0 = u64 [a1 + 0x88]\n 29634: u64 [s1 + 0xb8] = a0\n 29638: a0 = u64 [a1 + 0x80]\n 29642: u64 [s1 + 0xc0] = a0\n 29646: a2 = u64 [s1 + 0x48]\n 29649: a3 = u64 [s1 + 0x38]\n 29652: jump @959\n      : @949 (gas: 11)\n 29655: t1 = a5\n 29657: t0 = u64 [s1 + 0x48]\n 29660: a4 = u64 [s1 + 0x50]\n 29663: a4 = a4 ^ t0\n 29666: a5 = u64 [s1 + 0x40]\n 29669: a4 = a4 | a5\n 29672: t2 = u64 [s1 + 0x38]\n 29675: a5 = u64 [s1 + 0x30]\n 29678: a5 = t2 | a5\n 29681: a4 = a4 | a5\n 29684: jump @957 if a4 == 0\n      : @950 (gas: 20)\n 29688: a4 = u64 [s1 + 0xd0]\n 29692: a4 = a1 <u a4\n 29695: a3 = a3 + a4\n 29698: t0 = a3 ^ t1\n 29701: a5 = a3 <u t1\n 29704: a5 = a4 if t0 == 0\n 29707: a5 = a5 + a2\n 29710: t0 = a5 <u a2\n 29713: a4 = u64 [s1 + 0xd8]\n 29717: a2 = a2 <u a4\n 29720: a0 = a0 + a2\n 29723: a0 = a0 + t0\n 29726: a2 = a1 | a5\n 29729: a0 = a0 | a3\n 29732: a2 = a2 | a0\n 29735: a2 = a2 >> 0x20\n 29738: a0 = a0 | a5\n 29741: a0 = a0 << 0x20\n 29744: a0 = a0 | a2\n 29747: jump @964 if a0 != 0\n      : @951 (gas: 2)\n 29751: a0 = s1 + 0x140\n 29755: ra = 940, jump @17\n      : @952 [@dyn 470] (gas: 17)\n 29761: a1 = s1 + 0x100\n 29765: a0 = u64 [a1 + 0x58]\n 29768: u64 [s1 + 0xd0] = a0\n 29772: a0 = u64 [a1 + 0x50]\n 29775: u64 [s1 + 0xc8] = a0\n 29779: a0 = u64 [a1 + 0x48]\n 29782: u64 [s1 + 0xc0] = a0\n 29786: a0 = u64 [a1 + 0x40]\n 29789: u64 [s1 + 0xb0] = a0\n 29793: a0 = u64 [s1 + 0x48]\n 29796: a0 = a0 << 0x3b\n 29799: a1 = a0 >> 0x38\n 29802: u64 [s1 + 0xd8] = a1\n 29806: a2 = 0x80 - a1\n 29810: a0 = 0xffffffffffffffff\n 29813: a1 = 0xffffffffffffffff\n 29816: ra = 942, jump @1052\n      : @953 [@dyn 471] (gas: 6)\n 29822: u64 [s1 + 0xa8] = a0\n 29826: u64 [s1 + 0x90] = a1\n 29830: a0 = 0xffffffffffffffff\n 29833: a1 = 0xffffffffffffffff\n 29836: a2 = u64 [s1 + 0xd8]\n 29840: ra = 944, jump @1047\n      : @954 [@dyn 472] (gas: 10)\n 29846: u64 [s1 + 0x98] = a0\n 29850: u64 [s1 + 0xa0] = a1\n 29854: a0 = u64 [s1 + 0x90]\n 29858: a0 = a0 | a1\n 29861: u64 [s1 + 0x90] = a0\n 29865: a0 = u64 [s1 + 0xd8]\n 29869: a2 = a0 + 0xffffffffffffff80\n 29872: a0 = 0xffffffffffffffff\n 29875: a1 = 0xffffffffffffffff\n 29878: ra = 946, jump @1047\n      : @955 [@dyn 473] (gas: 29)\n 29884: a4 = u64 [s1 + 0xd8]\n 29888: a2 = a4 <u 0x80\n 29892: a3 = u64 [s1 + 0x90]\n 29896: a1 = a3 if a2 != 0\n 29899: a5 = u64 [s1 + 0x98]\n 29903: a3 = u64 [s1 + 0xa8]\n 29907: a3 = a3 | a5\n 29910: a3 = a0 if a2 == 0\n 29913: a1 = 0xffffffffffffffff if a4 == 0\n 29916: a3 = 0xffffffffffffffff if a4 == 0\n 29919: a4 = u64 [s1 + 0xa0]\n 29923: a4 = 0 if a2 == 0\n 29925: a5 = 0 if a2 == 0\n 29927: a0 = u64 [s1 + 0xb0]\n 29931: a0 = a0 & ~a3\n 29934: a2 = u64 [s1 + 0xc0]\n 29938: a1 = a2 & ~a1\n 29941: a2 = u64 [s1 + 0xc8]\n 29945: a2 = a2 & ~a5\n 29948: a3 = u64 [s1 + 0xd0]\n 29952: a3 = a3 & ~a4\n 29955: a4 = s1 + 0x200\n 29959: u64 [a4 + 0xb8] = a3\n 29963: u64 [a4 + 0xb0] = a2\n 29967: u64 [a4 + 0xa8] = a1\n 29971: u64 [a4 + 0xa0] = a0\n 29975: a1 = s1 + 0x2a0\n 29979: a0 = u64 [s1 + 0xb8]\n 29983: ra = 948, jump @23\n      : @956 [@dyn 474] (gas: 3)\n 29989: t0 = u64 [s1 + 0x48]\n 29992: t2 = u64 [s1 + 0x38]\n 29995: fallthrough\n      : @957 (gas: 22)\n 29996: a2 = u64 [s1 + 0x40]\n 29999: a0 = a2 >> 0x3f\n 30002: a1 = u64 [s1 + 0x30]\n 30005: a1 = a1 << 0x1\n 30008: a0 = a0 | a1\n 30011: a1 = t2 >> 0x3f\n 30014: a2 = a2 << 0x1\n 30017: a1 = a1 | a2\n 30020: a2 = t0 >> 0x3f\n 30023: a3 = t2 << 0x1\n 30026: a2 = a2 | a3\n 30029: a3 = t0 << 0x1\n 30032: a3 = a3 + 0x1\n 30035: a4 = s1 + 0x200\n 30039: u64 [a4 + 0xc0] = a3\n 30043: u64 [a4 + 0xc8] = a2\n 30047: u64 [a4 + 0xd0] = a1\n 30051: u64 [a4 + 0xd8] = a0\n 30055: a1 = s1 + 0x2c0\n 30059: a0 = s1 + 0x240\n 30063: ra = 0x3bc\n 30067: jump @23\n      : @958 (gas: 5)\n 30070: u64 [s1 + 192] = 0\n 30074: u64 [s1 + 184] = 0\n 30078: u64 [s1 + 200] = 0\n 30082: u64 [s1 + 208] = 0\n 30086: fallthrough\n      : @959 (gas: 22)\n 30087: a0 = a3 >> 0x3f\n 30090: a4 = u64 [s1 + 0x40]\n 30093: a1 = a4 << 0x1\n 30096: a0 = a0 | a1\n 30099: u64 [s1 + 0xb0] = a0\n 30103: a0 = a4 >> 0x3f\n 30106: a1 = u64 [s1 + 0x30]\n 30109: a1 = a1 << 0x1\n 30112: a0 = a0 | a1\n 30115: u64 [s1 + 0xa8] = a0\n 30119: a0 = a2 >> 0x3f\n 30122: a1 = a3 << 0x1\n 30125: a0 = a0 | a1\n 30128: u64 [s1 + 0xa0] = a0\n 30132: a0 = a2 << 0x1\n 30135: u64 [s1 + 0x98] = a0\n 30139: a1 = a2 << 0x3\n 30142: u64 [s1 + 0xd8] = a1\n 30146: i32 a2 = 0x80 - a1\n 30150: a0 = 0xffffffffffffffff\n 30153: a1 = 0xffffffffffffffff\n 30156: ra = 950, jump @1052\n      : @960 [@dyn 475] (gas: 7)\n 30162: u64 [s1 + 0x78] = a0\n 30165: u64 [s1 + 0x90] = a1\n 30169: a0 = u64 [s1 + 0x48]\n 30172: i32 a2 = a0 << 0x3\n 30175: a0 = 0xffffffffffffffff\n 30178: a1 = 0xffffffffffffffff\n 30181: ra = 952, jump @1047\n      : @961 [@dyn 476] (gas: 10)\n 30187: u64 [s1 + 0x88] = a0\n 30191: u64 [s1 + 0x80] = a1\n 30195: a1 = u64 [s1 + 0x78]\n 30198: a0 = a0 | a1\n 30201: u64 [s1 + 0x78] = a0\n 30204: a0 = u64 [s1 + 0xd8]\n 30208: i32 a2 = a0 + 0xffffffffffffff80\n 30211: a0 = 0xffffffffffffffff\n 30214: a1 = 0xffffffffffffffff\n 30217: ra = 954, jump @1047\n      : @962 [@dyn 477] (gas: 37)\n 30223: a4 = u64 [s1 + 0xd8]\n 30227: a2 = a4 <u 0x80\n 30231: a3 = u64 [s1 + 0x78]\n 30234: a0 = a3 if a2 != 0\n 30237: a5 = u64 [s1 + 0x80]\n 30241: a3 = u64 [s1 + 0x90]\n 30245: a3 = a3 | a5\n 30248: a3 = a1 if a2 == 0\n 30251: a0 = 0xffffffffffffffff if a4 == 0\n 30254: a3 = 0xffffffffffffffff if a4 == 0\n 30257: a5 = 0 if a2 == 0\n 30259: a4 = u64 [s1 + 0x88]\n 30263: a4 = 0 if a2 == 0\n 30265: a1 = u64 [s1 + 0xb8]\n 30269: a1 = a1 & ~a3\n 30272: a2 = u64 [s1 + 0xc0]\n 30276: a0 = a2 & ~a0\n 30279: a2 = u64 [s1 + 0xc8]\n 30283: a2 = a2 & ~a4\n 30286: a3 = u64 [s1 + 0xd0]\n 30290: a3 = a3 & ~a5\n 30293: a4 = u64 [s1 + 0x98]\n 30297: a0 = a0 | a4\n 30300: a4 = u64 [s1 + 0xa0]\n 30304: a1 = a1 | a4\n 30307: a4 = u64 [s1 + 0xa8]\n 30311: a3 = a3 | a4\n 30314: a4 = u64 [s1 + 0xb0]\n 30318: a2 = a2 | a4\n 30321: a4 = s1 + 0x200\n 30325: u64 [a4 + 0xf0] = a2\n 30329: u64 [a4 + 0xf8] = a3\n 30333: u64 [a4 + 0xe8] = a1\n 30337: u64 [a4 + 0xe0] = a0\n 30341: a1 = s1 + 0x2e0\n 30345: a0 = s1 + 0x240\n 30349: ra = 956, jump @23\n      : @963 [@dyn 478] (gas: 7)\n 30355: sp = s0 + 0xfffffffffffffce0\n 30359: a0 = sp + 0x300\n 30363: ra = u64 [a0 + 0x18]\n 30366: s0 = u64 [a0 + 0x10]\n 30369: s1 = u64 [a0 + 0x8]\n 30372: sp = sp + 0x320\n 30376: ret\n      : @964 (gas: 1)\n 30378: trap\n      : @965 (gas: 6)\n 30379: u64 [s1 + 272] = 0\n 30383: u64 [s1 + 264] = 0\n 30387: u64 [s1 + 256] = 0\n 30391: t0 = 0x3be\n 30395: a0 = 0x4e487b7100000000\n 30405: fallthrough\n      : @966 [@dyn 479] (gas: 4)\n 30406: a1 = s1 + 0x100\n 30410: u64 [s1 + 0x118] = a0\n 30414: a0 = 0\n 30416: ra = 960, jump @19\n      : @967 [@dyn 480] (gas: 7)\n 30422: u64 [s1 + 248] = 0\n 30426: u64 [s1 + 240] = 0\n 30430: u64 [s1 + 224] = 0x41\n 30435: a0 = 0x4\n 30438: a1 = s1 + 0xe0\n 30442: u64 [s1 + 232] = 0\n 30446: ra = 962, jump @19\n      : @968 [@dyn 481] (gas: 2)\n 30452: a1 = i32 [0x20074]\n 30457: jump @970 if a1 >u 63\n      : @969 (gas: 2)\n 30461: u32 [0x20074] = 0x40\n 30467: fallthrough\n      : @970 (gas: 7)\n 30468: a1 = 0x20080\n 30473: i32 a1 = a1 + 0\n 30475: a0 = 0x1\n 30478: a2 = 0x24\n 30481: ra = 0x3c4\n 30485: ecalli 8 // 'seal_return'\n 30487: fallthrough\n      : @971 [@dyn 482] (gas: 30)\n 30488: sp = sp + 0xfffffffffffffea0\n 30492: u64 [sp + 0x158] = ra\n 30496: u64 [sp + 0x150] = s0\n 30500: u64 [sp + 0x148] = s1\n 30504: s0 = sp + 0x160\n 30508: sp = sp & 0xffffffffffffffe0\n 30511: s1 = sp\n 30513: a2 = u64 [a1 + 0x18]\n 30516: u64 [s1 + 0x40] = a2\n 30519: a2 = u64 [a1 + 0x10]\n 30522: u64 [s1 + 0x48] = a2\n 30525: a2 = u64 [a1 + 0x8]\n 30528: u64 [s1 + 0x50] = a2\n 30531: a1 = u64 [a1]\n 30533: u64 [s1 + 0x58] = a1\n 30536: a3 = u64 [a0 + 0x18]\n 30539: a2 = u64 [a0 + 0x10]\n 30542: a1 = u64 [a0 + 0x8]\n 30545: a0 = u64 [a0]\n 30547: u64 [s1] = a3\n 30549: u64 [s1 + 0x138] = a3\n 30553: u64 [s1 + 0x8] = a2\n 30556: u64 [s1 + 0x130] = a2\n 30560: u64 [s1 + 0x10] = a1\n 30563: u64 [s1 + 0x128] = a1\n 30567: u64 [s1 + 0x18] = a0\n 30570: u64 [s1 + 0x120] = a0\n 30574: a0 = s1 + 0x100\n 30578: a1 = s1 + 0x120\n 30582: ra = 966, jump @21\n      : @972 [@dyn 483] (gas: 8)\n 30588: a0 = s1 + 0x100\n 30592: a5 = u64 [a0 + 0x18]\n 30595: a4 = u64 [a0 + 0x10]\n 30598: a3 = u64 [a0 + 0x8]\n 30601: a0 = a4 | a5\n 30604: a1 = a3 <u 0x1\n 30607: a1 = 0 if a0 != 0\n 30609: jump @979 if a1 == 0\n      : @973 (gas: 22)\n 30613: a0 = u64 [s1 + 0x100]\n 30617: a1 = sp + 0xffffffffffffffe0\n 30620: a1 = a1 & 0xffffffffffffffe0\n 30623: sp = a1\n 30625: u64 [s1 + 0x20] = a0\n 30628: a0 = a0 + 0x1\n 30631: a2 = a0 <u 0x1\n 30634: u64 [s1 + 0x28] = a3\n 30637: a2 = a2 + a3\n 30640: a3 = a0 | a2\n 30643: a3 = a3 <u 0x1\n 30646: a3 = a3 + a4\n 30649: u64 [s1 + 0x30] = a4\n 30652: a4 = a3 <u a4\n 30655: u64 [s1 + 0x38] = a5\n 30658: a4 = a4 + a5\n 30661: u64 [a1 + 0x8] = a2\n 30664: u64 [a1] = a0\n 30666: u64 [a1 + 0x10] = a3\n 30669: u64 [a1 + 0x18] = a4\n 30672: a0 = s1 + 0x120\n 30676: ra = 968, jump @23\n      : @974 [@dyn 484] (gas: 11)\n 30682: a0 = u64 [s1]\n 30684: u64 [s1 + 0xf8] = a0\n 30688: a0 = u64 [s1 + 0x8]\n 30691: u64 [s1 + 0xf0] = a0\n 30695: a0 = u64 [s1 + 0x10]\n 30698: u64 [s1 + 0xe8] = a0\n 30702: a1 = s1 + 0xe0\n 30706: a0 = u64 [s1 + 0x18]\n 30709: u64 [s1 + 0xe0] = a0\n 30713: a0 = 0\n 30715: ra = 970, jump @19\n      : @975 [@dyn 485] (gas: 2)\n 30721: a1 = i32 [0x20074]\n 30726: jump @977 if a1 >u 31\n      : @976 (gas: 2)\n 30730: u32 [0x20074] = 0x20\n 30736: fallthrough\n      : @977 (gas: 51)\n 30737: a0 = sp + 0xffffffffffffffe0\n 30740: a2 = a0 & 0xffffffffffffffe0\n 30743: u64 [s1 + 0x18] = a2\n 30746: sp = a2\n 30748: a0 = 0x20080\n 30753: i32 a0 = a0 + 0\n 30755: i32 a2 = a2 + 0\n 30757: a1 = 0x20\n 30760: ecalli 6 // 'hash_keccak_256'\n 30762: a3 = u64 [s1 + 0x18]\n 30765: a0 = u64 [a3]\n 30767: a1 = u64 [a3 + 0x8]\n 30770: a2 = u64 [a3 + 0x18]\n 30773: a3 = u64 [a3 + 0x10]\n 30776: t0 = reverse a0\n 30778: a1 = reverse a1\n 30780: a2 = reverse a2\n 30782: a3 = reverse a3\n 30784: a4 = u64 [s1 + 0x28]\n 30787: a4 = a4 + a3\n 30790: t1 = u64 [s1 + 0x20]\n 30793: t1 = t1 + a2\n 30796: a2 = t1 <u a2\n 30799: a4 = a4 + a2\n 30802: a0 = a4 ^ a3\n 30805: a3 = a4 <u a3\n 30808: a3 = a2 if a0 == 0\n 30811: a0 = u64 [s1 + 0x30]\n 30814: a0 = a0 + a1\n 30817: a3 = a3 + a0\n 30820: a2 = a3 <u a0\n 30823: a5 = u64 [s1 + 0x38]\n 30826: t0 = t0 + a5\n 30829: a0 = a0 <u a1\n 30832: a0 = a0 + t0\n 30835: a2 = a2 + a0\n 30838: a0 = u64 [s1 + 0x40]\n 30841: u64 [s1 + 0xb8] = a0\n 30845: a0 = u64 [s1 + 0x48]\n 30848: u64 [s1 + 0xb0] = a0\n 30852: a0 = u64 [s1 + 0x50]\n 30855: u64 [s1 + 0xa8] = a0\n 30859: a0 = u64 [s1 + 0x58]\n 30862: u64 [s1 + 0xa0] = a0\n 30866: u64 [s1 + 0xc0] = t1\n 30870: u64 [s1 + 0xc8] = a4\n 30874: u64 [s1 + 0xd0] = a3\n 30878: a0 = s1 + 0xc0\n 30882: a1 = s1 + 0xa0\n 30886: u64 [s1 + 0xd8] = a2\n 30890: ra = 972, jump @923\n      : @978 [@dyn 486] (gas: 6)\n 30896: sp = s0 + 0xfffffffffffffea0\n 30900: ra = u64 [sp + 0x158]\n 30904: s0 = u64 [sp + 0x150]\n 30908: s1 = u64 [sp + 0x148]\n 30912: sp = sp + 0x160\n 30916: ret\n      : @979 (gas: 6)\n 30918: u64 [s1 + 144] = 0\n 30922: u64 [s1 + 136] = 0\n 30926: u64 [s1 + 128] = 0\n 30930: t0 = 0x3ce\n 30934: a0 = 0x4e487b7100000000\n 30944: fallthrough\n      : @980 [@dyn 487] (gas: 4)\n 30945: a1 = s1 + 0x80\n 30949: u64 [s1 + 0x98] = a0\n 30953: a0 = 0\n 30955: ra = 976, jump @19\n      : @981 [@dyn 488] (gas: 7)\n 30961: u64 [s1 + 120] = 0\n 30964: u64 [s1 + 112] = 0\n 30967: u64 [s1 + 96] = 0x41\n 30971: a0 = 0x4\n 30974: a1 = s1 + 0x60\n 30977: u64 [s1 + 104] = 0\n 30980: ra = 978, jump @19\n      : @982 [@dyn 489] (gas: 2)\n 30986: a1 = i32 [0x20074]\n 30991: jump @984 if a1 >u 63\n      : @983 (gas: 2)\n 30995: u32 [0x20074] = 0x40\n 31001: fallthrough\n      : @984 (gas: 8)\n 31002: a1 = 0x20080\n 31007: i32 a1 = a1 + 0\n 31009: a0 = 0x1\n 31012: a2 = 0x24\n 31015: ra = 0x3d4\n 31019: ecalli 8 // 'seal_return'\n 31021: t0 = 0x3d6\n 31025: jump @1046\n      : @985 [@dyn 490] (gas: 1)\n 31028: t0 = 982, jump @1046\n      : @986 [@dyn 491] (gas: 13)\n 31034: s1 = sp\n 31036: a2 = u64 [a1 + 0x10]\n 31039: u64 [s1 + 0x48] = a2\n 31042: a2 = u64 [a1]\n 31044: u64 [s1 + 0x38] = a2\n 31047: a2 = u64 [a1 + 0x18]\n 31050: u64 [s1 + 0x40] = a2\n 31053: a1 = u64 [a1 + 0x8]\n 31056: u64 [s1 + 0x50] = a1\n 31059: u64 [s1 + 0x18] = a0\n 31062: a0 = s1 + 0xa0\n 31066: a1 = 0x40\n 31069: ra = 984, jump @17\n      : @987 [@dyn 492] (gas: 12)\n 31075: a1 = u64 [s1 + 0x38]\n 31078: a0 = u64 [s1 + 0x40]\n 31081: a2 = u64 [s1 + 0x50]\n 31084: a0 = a0 | a2\n 31087: a3 = u64 [s1 + 0x48]\n 31090: a2 = a1 | a3\n 31093: a2 = a2 | a0\n 31096: a2 = a2 >> 0x20\n 31099: a0 = a0 | a3\n 31102: a0 = a0 << 0x20\n 31105: a0 = a0 | a2\n 31108: jump @1001 if a0 != 0\n      : @988 (gas: 10)\n 31112: a0 = u64 [s1 + 0xb8]\n 31116: u64 [s1 + 0x28] = a0\n 31119: a0 = u64 [s1 + 0xb0]\n 31123: u64 [s1 + 0x30] = a0\n 31126: a0 = u64 [s1 + 0xa8]\n 31130: u64 [s1 + 0x20] = a0\n 31133: a0 = u64 [s1 + 0xa0]\n 31137: u64 [s1 + 0x58] = a0\n 31140: a0 = s1 + 0x80\n 31144: ra = 986, jump @17\n      : @989 [@dyn 493] (gas: 12)\n 31150: a0 = u64 [s1 + 0x58]\n 31153: a3 = u64 [s1 + 0x30]\n 31156: a2 = a0 | a3\n 31159: a1 = u64 [s1 + 0x28]\n 31162: a4 = u64 [s1 + 0x20]\n 31165: a1 = a1 | a4\n 31168: a2 = a2 | a1\n 31171: a2 = a2 >> 0x20\n 31174: a1 = a1 | a3\n 31177: a1 = a1 << 0x20\n 31180: a1 = a1 | a2\n 31183: jump @1001 if a1 != 0\n      : @990 (gas: 10)\n 31187: a1 = u64 [s1 + 0x48]\n 31190: a2 = u64 [s1 + 0x40]\n 31193: a2 = a2 | a1\n 31196: a1 = 0xffffffe0\n 31206: t0 = u64 [s1 + 0x38]\n 31209: a1 = t0 <u a1\n 31212: a3 = u64 [s1 + 0x50]\n 31215: a1 = 0 if a3 != 0\n 31217: a1 = 0 if a2 != 0\n 31219: jump @1001 if a1 == 0\n      : @991 (gas: 15)\n 31223: a3 = u64 [s1 + 0x98]\n 31227: a5 = u64 [s1 + 0x90]\n 31231: a1 = u64 [s1 + 0x80]\n 31235: a4 = u64 [s1 + 0x88]\n 31239: a2 = a1 | a5\n 31242: u64 [s1 + 0x40] = a3\n 31245: u64 [s1 + 0x10] = a4\n 31248: a4 = a4 | a3\n 31251: a2 = a2 | a4\n 31254: a2 = a2 >> 0x20\n 31257: u64 [s1 + 0x48] = a5\n 31260: a4 = a4 | a5\n 31263: a4 = a4 << 0x20\n 31266: a2 = a2 | a4\n 31269: jump @1001 if a2 != 0\n      : @992 (gas: 4)\n 31273: i32 a2 = t0 + 0x20\n 31276: u64 [s1 + 0x38] = a2\n 31279: u64 [s1 + 0x50] = a1\n 31282: ra = 988, jump @29\n      : @993 [@dyn 494] (gas: 4)\n 31288: u64 [s1 + 0x8] = a0\n 31291: a0 = u64 [s1 + 0x38]\n 31294: a1 = u64 [s1 + 0x50]\n 31297: ra = 990, jump @29\n      : @994 [@dyn 495] (gas: 4)\n 31303: a1 = a0\n 31305: a0 = u64 [s1 + 0x8]\n 31308: a2 = u64 [s1 + 0x50]\n 31311: ra = 992, jump @0\n      : @995 [@dyn 496] (gas: 30)\n 31317: t0 = u64 [s1 + 0x50]\n 31320: a0 = u64 [s1 + 0x58]\n 31323: a0 = a0 + t0\n 31326: a1 = a0 <u t0\n 31329: a2 = u64 [s1 + 0x20]\n 31332: a4 = u64 [s1 + 0x10]\n 31335: a2 = a2 + a4\n 31338: a2 = a2 + a1\n 31341: a3 = a2 ^ a4\n 31344: a4 = a2 <u a4\n 31347: a4 = a1 if a3 == 0\n 31350: a1 = u64 [s1 + 0x28]\n 31353: a3 = u64 [s1 + 0x40]\n 31356: a1 = a1 + a3\n 31359: a3 = u64 [s1 + 0x30]\n 31362: a5 = u64 [s1 + 0x48]\n 31365: a3 = a3 + a5\n 31368: a5 = a3 <u a5\n 31371: a1 = a1 + a5\n 31374: a4 = a4 + a3\n 31377: a3 = a4 <u a3\n 31380: a1 = a1 + a3\n 31383: a1 = a1 | a2\n 31386: a2 = a0 | a4\n 31389: a2 = a2 | a1\n 31392: a1 = a1 | a4\n 31395: a2 = a2 >> 0x20\n 31398: a1 = a1 << 0x20\n 31401: a1 = a1 | a2\n 31404: jump @1001 if a1 != 0\n      : @996 (gas: 8)\n 31407: i32 t0 = t0 + 0\n 31409: u64 [s1 + 0x50] = t0\n 31412: u64 [s1 + 120] = 0\n 31415: u64 [s1 + 112] = 0\n 31418: u64 [s1 + 104] = 0\n 31421: a1 = s1 + 0x60\n 31424: u64 [s1 + 96] = 0\n 31427: ra = 994, jump @19\n      : @997 [@dyn 497] (gas: 3)\n 31433: a0 = u64 [s1 + 0x58]\n 31436: a1 = u64 [s1 + 0x50]\n 31439: ra = 996, jump @29\n      : @998 [@dyn 498] (gas: 12)\n 31445: a1 = sp + 0xffffffffffffffe0\n 31448: a1 = a1 & 0xffffffffffffffe0\n 31451: u64 [s1 + 0x58] = a1\n 31454: sp = a1\n 31456: i32 a0 = a0 + 0\n 31458: i32 a2 = a1 + 0\n 31460: a1 = u64 [s1 + 0x50]\n 31463: ra = 0x3e6\n 31467: ecalli 6 // 'hash_keccak_256'\n 31469: a3 = u64 [s1 + 0x58]\n 31472: t0 = 0x3e8\n 31476: jump @1017\n      : @999 [@dyn 499] (gas: 2)\n 31479: a3 = u64 [s1 + 0x58]\n 31482: t0 = 1000, jump @1017\n      : @1000 [@dyn 500] (gas: 11)\n 31488: a4 = u64 [s1 + 0x18]\n 31491: u64 [a4 + 0x18] = a3\n 31494: u64 [a4 + 0x10] = a2\n 31497: u64 [a4 + 0x8] = a1\n 31500: u64 [a4] = a0\n 31502: sp = s0 + 0xffffffffffffff20\n 31506: ra = u64 [sp + 0xd8]\n 31510: s0 = u64 [sp + 0xd0]\n 31514: s1 = u64 [sp + 0xc8]\n 31518: sp = sp + 0xe0\n 31522: ret\n      : @1001 (gas: 1)\n 31524: trap\n      : @1002 (gas: 10)\n 31525: a4 = u64 [a1 + 0x18]\n 31528: a3 = u64 [a1 + 0x10]\n 31531: t1 = u64 [a1 + 0x8]\n 31534: t0 = a4 >u 0\n 31536: a5 = a3 >u 0\n 31538: a5 = t0 if a4 != 0\n 31541: t0 = a3 | a4\n 31544: a2 = t1 >u 0\n 31546: a2 = a5 if t0 != 0\n 31549: jump @1004 if a2 != 0\n      : @1003 (gas: 24)\n 31552: a1 = u64 [a1]\n 31554: a2 = a3 >> 0x3b\n 31557: a4 = a4 << 0x5\n 31560: t0 = a4 | a2\n 31563: a4 = t1 >> 0x3b\n 31566: a3 = a3 << 0x5\n 31569: a3 = a3 | a4\n 31572: a4 = a1 >> 0x3b\n 31575: t1 = t1 << 0x5\n 31578: a4 = t1 | a4\n 31581: a1 = a1 << 0x5\n 31584: a5 = a1 + 0x20\n 31587: a1 = a5 <u a1\n 31590: a2 = a4 + a1\n 31593: a4 = a2 <u a4\n 31596: a4 = a1 if a1 == 0\n 31599: a4 = a4 + a3\n 31602: a1 = a4 <u a3\n 31605: a1 = a1 + t0\n 31608: u64 [a0] = a5\n 31610: u64 [a0 + 0x8] = a2\n 31613: u64 [a0 + 0x10] = a4\n 31616: u64 [a0 + 0x18] = a1\n 31619: ret\n      : @1004 (gas: 6)\n 31621: sp = sp + 0xffffffffffffffb0\n 31624: u64 [sp + 0x48] = ra\n 31627: u64 [sp + 0x40] = s0\n 31630: s0 = sp + 0x50\n 31633: sp = sp & 0xfffffffffffffff0\n 31636: t0 = 1002, jump @1019\n      : @1005 [@dyn 501] (gas: 1)\n 31642: ra = 1004, jump @19\n      : @1006 [@dyn 502] (gas: 1)\n 31648: t0 = 1006, jump @1037\n      : @1007 [@dyn 503] (gas: 1)\n 31654: ra = 1008, jump @19\n      : @1008 [@dyn 504] (gas: 2)\n 31660: a1 = i32 [0x20074]\n 31665: jump @1010 if a1 >u 63\n      : @1009 (gas: 2)\n 31669: u32 [0x20074] = 0x40\n 31675: fallthrough\n      : @1010 (gas: 8)\n 31676: a1 = 0x20080\n 31681: i32 a1 = a1 + 0\n 31683: a0 = 0x1\n 31686: a2 = 0x24\n 31689: ecalli 8 // 'seal_return'\n 31691: a0 = 0\n 31693: ra = 0x3f2\n 31697: jump @35\n      : @1011 [export #0: 'call'] (gas: 2)\n 31700: a0 = 0\n 31702: ra = 1010, jump @35\n      : @1012 [@dyn 505] [export #1: 'deploy'] (gas: 2)\n 31708: a0 = 0x1\n 31711: ra = 1012, jump @35\n      : @1013 [@dyn 506] (gas: 18)\n 31717: a4 = a1 if a3 == 0\n 31720: a1 = u64 [s1 + 0xc8]\n 31724: a1 = a1 + t2\n 31727: a3 = a1 <u t2\n 31730: a5 = u64 [s1 + 0xd0]\n 31734: a5 = a5 + t1\n 31737: a3 = a3 + a5\n 31740: a4 = a4 + a1\n 31743: a1 = a4 <u a1\n 31746: a1 = a1 + a3\n 31749: a1 = a1 | a2\n 31752: a2 = a0 | a4\n 31755: a2 = a2 | a1\n 31758: a1 = a1 | a4\n 31761: a2 = a2 >> 0x20\n 31764: a1 = a1 << 0x20\n 31767: a1 = a1 | a2\n 31770: jump [t0]\n      : @1014 (gas: 11)\n 31772: a4 = a4 + a1\n 31775: a1 = a4 <u a1\n 31778: a1 = a1 + a3\n 31781: a1 = a1 | a2\n 31784: a2 = a0 | a4\n 31787: a2 = a2 | a1\n 31790: a1 = a1 | a4\n 31793: a2 = a2 >> 0x20\n 31796: a1 = a1 << 0x20\n 31799: a1 = a1 | a2\n 31802: jump [t0]\n      : @1015 (gas: 10)\n 31804: a0 = u64 [s1 + 0xf0]\n 31808: a1 = u64 [s1 + 0xe8]\n 31812: a0 = a0 | a1\n 31815: a1 = 0xffffffe0\n 31825: a4 = u64 [s1 + 0xe0]\n 31829: a1 = a4 <u a1\n 31832: a2 = u64 [s1 + 0xf8]\n 31836: a1 = 0 if a2 != 0\n 31838: a1 = 0 if a0 != 0\n 31840: jump [t0]\n      : @1016 (gas: 12)\n 31842: a2 = u64 [s1 + 0xc8]\n 31846: a0 = u64 [s1 + 0xd8]\n 31850: a0 = a0 | a2\n 31853: a1 = u64 [s1 + 0xd0]\n 31857: a3 = u64 [s1 + 0xc0]\n 31861: a1 = a1 | a3\n 31864: a0 = a0 | a1\n 31867: a0 = a0 >> 0x20\n 31870: a1 = a1 | a2\n 31873: a1 = a1 << 0x20\n 31876: a0 = a0 | a1\n 31879: jump [t0]\n      : @1017 (gas: 9)\n 31881: a0 = u64 [a3 + 0x18]\n 31884: a1 = u64 [a3 + 0x10]\n 31887: a2 = u64 [a3 + 0x8]\n 31890: a3 = u64 [a3]\n 31892: a0 = reverse a0\n 31894: a1 = reverse a1\n 31896: a2 = reverse a2\n 31898: a3 = reverse a3\n 31900: jump [t0]\n      : @1018 (gas: 12)\n 31902: a1 = u64 [s1 + 0xe0]\n 31906: a0 = u64 [s1 + 0xf0]\n 31910: a2 = u64 [s1 + 0xf8]\n 31914: a0 = a0 | a2\n 31917: a3 = u64 [s1 + 0xe8]\n 31921: a2 = a1 | a3\n 31924: a2 = a2 | a0\n 31927: a2 = a2 >> 0x20\n 31930: a0 = a0 | a3\n 31933: a0 = a0 << 0x20\n 31936: a0 = a0 | a2\n 31939: jump [t0]\n      : @1019 (gas: 8)\n 31941: u64 [sp + 48] = 0\n 31944: u64 [sp + 40] = 0\n 31947: u64 [sp + 32] = 0\n 31950: a0 = 0x4e487b7100000000\n 31960: a1 = sp + 0x20\n 31963: u64 [sp + 0x38] = a0\n 31966: a0 = 0\n 31968: jump [t0]\n      : @1020 (gas: 7)\n 31970: a1 = u64 [s1 + 0xf8]\n 31974: a0 = a1 <u a0\n 31977: a1 = u64 [s1 + 0xf0]\n 31981: a0 = 0 if a1 != 0\n 31983: a1 = u64 [s1 + 0xe8]\n 31987: a0 = 0 if a1 != 0\n 31989: jump [t0]\n      : @1021 (gas: 13)\n 31991: a1 = a0 <u a1\n 31994: a3 = u64 [s1 + 0xd8]\n 31998: a2 = a3 + a1\n 32001: a3 = a2 <u a3\n 32004: a3 = a1 if a1 == 0\n 32007: a1 = u64 [s1 + 0xe8]\n 32011: a3 = a3 + a1\n 32014: a1 = a3 <u a1\n 32017: a4 = u64 [s1 + 0xe0]\n 32021: a1 = a1 + a4\n 32024: a4 = s1 + 0x2078\n 32028: a5 = a4 + 0x600\n 32032: jump [t0]\n      : @1022 (gas: 7)\n 32034: a1 = a1 | a3\n 32037: a0 = a0 | a1\n 32040: a0 = a0 >> 0x20\n 32043: a1 = a1 | a2\n 32046: a1 = a1 << 0x20\n 32049: a0 = a0 | a1\n 32052: jump [t0]\n      : @1023 (gas: 15)\n 32054: a2 = u64 [s1 + 0xd8]\n 32058: a0 = u64 [a2 + 0x8]\n 32061: a1 = u64 [a2]\n 32063: a2 = i32 [a2 + 0x10]\n 32066: a0 = reverse a0\n 32068: a3 = a0 >> 0x20\n 32071: a1 = reverse a1\n 32073: a4 = a1 << 0x20\n 32076: a3 = a3 | a4\n 32079: a0 = a0 << 0x20\n 32082: a2 = reverse a2\n 32084: a2 = a2 >> 0x20\n 32087: a0 = a0 | a2\n 32090: a1 = a1 >> 0x20\n 32093: jump [t0]\n      : @1024 (gas: 14)\n 32095: a4 = a1 <u t1\n 32098: a5 = a0 + a4\n 32101: a0 = a5 <u a0\n 32104: a0 = a4 if a4 == 0\n 32107: a0 = a0 + a2\n 32110: a2 = a0 <u a2\n 32113: a2 = a2 + a3\n 32116: u64 [sp + 0x40] = a1\n 32119: u64 [sp + 0x48] = a5\n 32122: u64 [sp + 0x50] = a0\n 32125: a0 = 0x40\n 32128: a1 = sp + a0\n 32131: u64 [sp + 0x58] = a2\n 32134: jump [t0]\n      : @1025 (gas: 14)\n 32136: a0 = u64 [a2 + 0x8]\n 32139: a1 = i32 [a2 + 0x10]\n 32142: a2 = u64 [a2]\n 32144: a0 = reverse a0\n 32146: a3 = a0 << 0x20\n 32149: a1 = reverse a1\n 32151: a1 = a1 >> 0x20\n 32154: a3 = a3 | a1\n 32157: a0 = a0 >> 0x20\n 32160: a1 = reverse a2\n 32162: a2 = a1 << 0x20\n 32165: a0 = a0 | a2\n 32168: a1 = a1 >> 0x20\n 32171: jump [t0]\n      : @1026 (gas: 13)\n 32173: sp = sp + 0xffffffffffffff90\n 32176: u64 [sp + 0x68] = ra\n 32179: u64 [sp + 0x60] = s0\n 32182: s0 = sp + 0x70\n 32185: sp = sp & 0xfffffffffffffff0\n 32188: a3 = u64 [a0 + 0x18]\n 32191: a2 = u64 [a0 + 0x10]\n 32194: t1 = u64 [a0]\n 32196: a0 = u64 [a0 + 0x8]\n 32199: a4 = a3 >u 0\n 32201: a5 = a2 >u 0\n 32203: a5 = a4 if a3 != 0\n 32206: jump [t0]\n      : @1027 (gas: 4)\n 32208: a3 = a1 | a0\n 32211: a4 = a2 <u 0x1\n 32214: a4 = 0 if a3 != 0\n 32216: jump [t0]\n      : @1028 (gas: 6)\n 32218: a2 = a2 + a4\n 32221: a2 = a2 + a1\n 32224: a3 = a2 ^ a4\n 32227: a4 = a2 <u a4\n 32230: a4 = a1 if a3 == 0\n 32233: jump [t0]\n      : @1029 (gas: 16)\n 32235: a4 = u64 [a3]\n 32237: u64 [sp + 0x18] = a4\n 32240: a4 = u64 [a3 + 0x8]\n 32243: u64 [sp + 0x20] = a4\n 32246: a4 = u64 [a3 + 0x10]\n 32249: u64 [sp + 0x28] = a4\n 32252: a3 = u64 [a3 + 0x18]\n 32255: u64 [sp + 0x30] = a3\n 32258: s1 = u64 [a2]\n 32260: a3 = u64 [a2 + 0x8]\n 32263: u64 [sp] = a3\n 32265: a3 = u64 [a2 + 0x10]\n 32268: u64 [sp + 0x8] = a3\n 32271: a2 = u64 [a2 + 0x18]\n 32274: u64 [sp + 0x10] = a2\n 32277: jump [t0]\n      : @1030 (gas: 4)\n 32279: a2 = a3 + a1\n 32282: a3 = a2 <u a3\n 32285: a3 = a1 if a1 == 0\n 32288: jump [t0]\n      : @1031 (gas: 8)\n 32290: a1 = sp + 0xffffffffffffffe0\n 32293: a1 = a1 & 0xffffffffffffffe0\n 32296: u64 [s1 + 0xf0] = a1\n 32300: sp = a1\n 32302: i32 a0 = a0 + 0\n 32304: i32 a2 = a1 + 0\n 32306: a1 = u64 [s1 + 0xf8]\n 32310: jump [t0]\n      : @1032 (gas: 7)\n 32312: a1 = u64 [s1 + 0xf0]\n 32316: a0 = a1 <u a0\n 32319: a1 = u64 [s1 + 0xe8]\n 32323: a0 = 0 if a1 != 0\n 32325: a1 = u64 [s1 + 0xf8]\n 32329: a0 = 0 if a1 != 0\n 32331: jump [t0]\n      : @1033 (gas: 9)\n 32333: a1 = a0 <u a1\n 32336: a3 = u64 [s1 + 0xf0]\n 32340: a2 = a3 + a1\n 32343: a3 = a2 <u a3\n 32346: a3 = a1 if a1 == 0\n 32349: a1 = u64 [s1 + 0xe0]\n 32353: a3 = a3 + a1\n 32356: a1 = a3 <u a1\n 32359: jump [t0]\n      : @1034 (gas: 7)\n 32361: a1 = a0 | a3\n 32364: a1 = a1 | a2\n 32367: a1 = a1 >> 0x20\n 32370: a2 = a2 | a3\n 32373: a2 = a2 << 0x20\n 32376: a1 = a1 | a2\n 32379: jump [t0]\n      : @1035 (gas: 9)\n 32381: a0 = u64 [a3 + 0x18]\n 32384: a1 = u64 [a3 + 0x10]\n 32387: a2 = u64 [a3 + 0x8]\n 32390: a3 = u64 [a3]\n 32392: a4 = reverse a0\n 32394: a0 = reverse a1\n 32396: a1 = reverse a2\n 32398: a2 = reverse a3\n 32400: jump [t0]\n      : @1036 (gas: 7)\n 32402: a1 = a1 | a2\n 32405: a1 = a1 | a0\n 32408: a1 = a1 >> 0x20\n 32411: a0 = a0 | a2\n 32414: a0 = a0 << 0x20\n 32417: a0 = a0 | a1\n 32420: jump [t0]\n      : @1037 (gas: 7)\n 32422: u64 [sp + 24] = 0\n 32425: u64 [sp + 16] = 0\n 32428: u64 [sp + 0] = 0x41\n 32431: a0 = 0x4\n 32434: a1 = sp\n 32436: u64 [sp + 8] = 0\n 32439: jump [t0]\n      : @1038 (gas: 8)\n 32441: a2 = 0x100000000\n 32451: a2 = a2 ^ a1\n 32454: a2 = a2 | a0\n 32457: a3 = a1 >> 0x20\n 32460: a3 = a3 <u 0x1\n 32463: a3 = 0 if a0 != 0\n 32465: a3 = 0 if a2 == 0\n 32467: jump [t0]\n      : @1039 (gas: 8)\n 32469: a0 = a0 | a1\n 32472: a1 = 0xffffffe0\n 32482: a2 = u64 [s1 + 0xf8]\n 32486: a1 = a2 <u a1\n 32489: a3 = u64 [s1 + 0xf0]\n 32493: a1 = 0 if a3 != 0\n 32495: a1 = 0 if a0 != 0\n 32497: jump [t0]\n      : @1040 (gas: 8)\n 32499: a0 = a0 | a1\n 32502: a1 = 0xffffffe0\n 32512: a2 = u64 [s1 + 0xf8]\n 32516: a1 = a2 <u a1\n 32519: a4 = u64 [s1 + 0xf0]\n 32523: a1 = 0 if a4 != 0\n 32525: a1 = 0 if a0 != 0\n 32527: jump [t0]\n      : @1041 (gas: 6)\n 32529: a4 = 0x100000000\n 32539: a0 = 0xffffffe0\n 32549: a0 = a1 <u a0\n 32552: a0 = 0 if a3 != 0\n 32554: a0 = 0 if a2 != 0\n 32556: jump [t0]\n      : @1042 (gas: 7)\n 32558: a3 = a4 <u a3\n 32561: a5 = a2 + a3\n 32564: a2 = a5 <u a2\n 32567: a2 = a3 if a3 == 0\n 32570: a2 = a2 + a1\n 32573: a1 = a2 <u a1\n 32576: jump [t0]\n      : @1043 (gas: 6)\n 32578: sp = s0 + 0xffffffffffffffa0\n 32581: ra = u64 [sp + 0x58]\n 32584: s0 = u64 [sp + 0x50]\n 32587: s1 = u64 [sp + 0x48]\n 32590: sp = sp + 0x60\n 32593: jump [t0]\n      : @1044 (gas: 8)\n 32595: a0 = u64 [a4 + 0x38]\n 32598: a1 = u64 [a4 + 0x40]\n 32601: a2 = u64 [a4 + 0x30]\n 32604: a3 = u64 [a4 + 0x28]\n 32607: a1 = a1 | a2\n 32610: a0 = a0 | a3\n 32613: a0 = a0 | a1\n 32616: jump [t0]\n      : @1045 (gas: 4)\n 32618: a0 = 0x2078\n 32622: a3 = s1 + a0\n 32625: a4 = a3 + 0x300\n 32629: jump [t0]\n      : @1046 (gas: 7)\n 32631: sp = sp + 0xffffffffffffff20\n 32635: u64 [sp + 0xd8] = ra\n 32639: u64 [sp + 0xd0] = s0\n 32643: u64 [sp + 0xc8] = s1\n 32647: s0 = sp + 0xe0\n 32651: sp = sp & 0xffffffffffffffe0\n 32654: jump [t0]\n      : @1047 (gas: 2)\n 32656: a3 = a2 & 0x40\n 32659: jump @1051 if a3 != 0\n      : @1048 (gas: 1)\n 32662: jump @1050 if a2 == 0\n      : @1049 (gas: 6)\n 32665: i32 a3 = 0x40 - a2\n 32668: a3 = 0xffffffffffffffff << a3\n 32671: a1 = 0xffffffffffffffff >> a2\n 32674: a0 = 0xffffffffffffffff >> a2\n 32677: a0 = a0 | a3\n 32680: ret\n      : @1050 (gas: 1)\n 32682: ret\n      : @1051 (gas: 4)\n 32684: a0 = a2 + 0xffffffffffffffc0\n 32687: a0 = 0xffffffffffffffff >> a0\n 32690: a1 = 0\n 32692: ret\n      : @1052 (gas: 2)\n 32694: a3 = a2 & 0x40\n 32697: jump @1056 if a3 != 0\n      : @1053 (gas: 1)\n 32700: jump @1055 if a2 == 0\n      : @1054 (gas: 6)\n 32703: i32 a3 = 0x40 - a2\n 32706: a3 = 0xffffffffffffffff >> a3\n 32709: a0 = 0xffffffffffffffff << a2\n 32712: a1 = 0xffffffffffffffff << a2\n 32715: a1 = a1 | a3\n 32718: ret\n      : @1055 (gas: 1)\n 32720: ret\n      : @1056 (gas: 4)\n 32722: a1 = a2 + 0xffffffffffffffc0\n 32725: a1 = 0xffffffffffffffff << a1\n 32728: a0 = 0\n 32730: ret\n",
        "bytecode": {
          "object": "50564d00003b95000000000000010700c1a000c000800370656e776f20746f4e36f17a940cab5887a18f0fe434a6e90a6094581c8c9cc4ec8d80c61ab59217787420746f6e6e614320726566736e617200666c6573206f74746f6e206b6f6f42697865206b6f6f426b95b3f53519c7fa0a53b88d3e402eb1bffc4a2e8c5244b0fb11eb100950892d0480c40c000000000e0000001c0000002a000000300000003d00000048000000570000005a00000065000000770000008200000063616c6c5f646174615f636f707963616c6c5f646174615f6c6f616463616c6c5f646174615f73697a6563616c6c65726465706f7369745f6576656e746765745f73746f72616765686173685f6b656363616b5f3235366e6f777365616c5f72657475726e7365745f696d6d757461626c655f646174617365745f73746f7261676576616c75655f7472616e73666572726564051302c0d47b0463616c6cc0dc7b066465706c6f7906c0d29381fa02c0dc7f9b00e30126039103ad03b5033c044404430548056e05d805e405230648060b074207b007bc0726083f08b108ec08f1082c0931093c099509a609b509e4090e0a1b0a310a360a8b0aff0a320b620b840bca0bfb0b1a0c470cdf0cad0d030e7f0ecf0e460f760f7b0fb50fc60ffe0f2810ad10f6102d119a11b111ef1157125913c91387148d149314d11425152b156a1570157c15d615e815f81528165316611678167e168516a516ce16ff16e717f0173918931899181c192d193c196c197b199519dc19341a6a1a9e1a051b671b741ba01bb01b1a1c201c5e1c751cd61c071d0d1d451d4b1d571db11dc31dd31d031e281e3e1e591e7e1e881eb31eee1ef71e241f871f9f1fcf1f2e204321a921bb2125227722df22f3222a238223f423cb24d924fe2415256f25a125b925172643265c269226ab262c273c274b277b279b27d627fb2705282b2859288328d028272940298029fd29632a702aa22abb2a092b182b262b402b602b802bba2b052c4a2c582cbe2ccb2cfe2c292d672d742de22df72d012e1d2e3b2e822e8c2eca2eed2e5c2f8f2fbc2f163023307030013104323532433268327f32dd320e334c3365338a33ec332c343c3452346c347934d634ef34753587359735de35ed35073642368c36cb36ff3618375437a2371838253840389938a638c4381e392b3934399439a239263a3b3a913a9a3ac83ad53a953bee3bf73b293c473c8f3c9d3caa3ce93cbd3dd73d383e9f3ea53ed73edd3ee73e3d3f4f3f5f3f8f3fb23fc83fe13fe73ff83f02402d40c84013418541a541f4413142af42c8420443534360437d43034414447f4451469046f94642487a488048be48c448f0486349bf49034a594ab04a084b444ba34b0c4c564c714c7e4c924cad4cbd4cf54c024d1f4d8a4d9b4daa4dc54de54df24d0d4e534ea94eed4ef84e114f1f4f424fb34f195027509e50fa5066519751d851e5515c529e52ab521d532b536f539c53a553c55302540c544e5489549254c354fa5415554e555956c156ce562957fb574658b558ea5854598759dc59af5bbf5bdd5b155c435c535c5c5c7c5cb75cc65ce55c165d1c5d3a5d405d545d5a5d605d665d905d965db35db95dcd5dd35dd95ddf5d035eca5ef75e055f1e5f425f28609760e860a661e8616362b462c462e2621c638c6394639a63b163d5632a6453649564aa64e8644365be651b6613672d674d6777675768b4682769356942695769aa69cf691b6a846a966aa76adc6a016b0f6b746bdc6b406c3e6d4e6d6c6d906d0f6e576e846efb6ed9705a7171717672a872aa7341747e749674bc742575d275eb750f769376c676d676f47618777c77da770178b078e178f1780a7934793a796379ae79387a477a557ac97ad57af77a007b9a7ba07ba67bac7bdc7be57baa876e978a2098aa20977b2098bb20c89b0bc9ba0a979b019abbaeab20ae873751094ec87909647a017c8b95880195ac0178ab64caab9cf42836510934c87909647a017c8b95880195ac0178ab64caab9cf4281c51091a839aff01c8a80b7cbb9599ffc8a70c78cb83aaff5209f032003908780002510858053307a0000383770a09284b059511f07b10087b156489647533082064975010025e047c78017c797c7a027c7b03978808d4980897aa1097bb18d4ba0ad4a8087c79057c7a047c7b067c7c07979908d4a90997bb1097cc18d4cb0bd4b909979920d489027c79097c7a087c7b0a7c7c0b979908d4a90997bb1097cc18d4cb0bd4b9097c7a0d7c7b0c7c7c0e7c780f97aa08d4ba0a97cc10978818d4c808d4a808978820d498037c78117c7a107c7b127c7c13978808d4a80897bb1097cc18d4cb0bd4b8087c7a157c7b147c7c167c791797aa08d4ba0a97cc10979918d4c909d4a909979920d4890a7c78197c79187c7b1a7c7c1b978808d4980897bb1097cc18d4cb0bd4b8087c791d7c7b1c7c7c1e7c771f979908d4b90997cc10977718d4c707d49707977720d487076f776fa86f396f2a7b5a187b59107b58087b57821008821595111032009511d87b10207b15187b161082897b19088289087b1982851082861833082050100416036f686f59821a6faa821b086fbb787b18787a10787908787898bc38787c1f98bc30787c1e98bc28787c1d98bc20787c1c98bc18787c1b98bc10787c1a98bb08787b1998ab38787b1798ab30787b1698ab28787b1598ab20787b1498ab18787b1398ab10787b1298aa08787a11989a38787a0f989a30787a0e989a28787a0d989a20787a0c989a18787a0b989a10787a0a98990878790998893878790798893078790698892878790598892078790498891878790398891078790298880878780182102082151882161095112832009511a07b10587b15507b16489515608411e06476828718828910828a0882886f776f996faa6f887b18187b1a107b19087b17491138491130491128491120481140208318831a20831b403309ff33070a05821738821830821928821a206f776f886f996faa7b6a187b69107b68087b67501206217c32009511a07b10587b15509515608411e08272827a08827b108277188283828908828c108288186f746fbb6faa6f276f826fcc6f996f387b17187b1a107b1b087b147b18387b19307b1c287b12208318831a203309ff330b2033070a0a9551a0821058821550951160320082bc7b1c4082bc087b1c4882bc107b1c5082bb187b1b5850120a437a7b183850100c44016f687b187882186f887b18708218086f887b18688218106f887b18608218186f887b1898008218206f887b1890008218286f887b1888008218306f887b1880008218406f887b18b8008218486f887b18b0008218506f887b18a8008218586f887b18a0008379811a388317603308030a04955120ff8210d8008215d0008216c8009511e00032007b1858501010b5006f687b18980082186f887b1890008218086f887b1888008218106f887b1880008218186f887b18b8008218206f887b18b0008218286f887b18a8008218306f887b18a0008218386f887b18d8008218406f887b18d0008218486f887b18c8008218506f887b18c0008218606f887b18f8008218686f887b18f0008218706f887b18e8008218786f887b18e0008379811a58831780003308040a049551e0fe8210180182151001821608019511200132008b7910520931c8780883881f8488e05638000001253309740002390a740002ae8a093d087400020133088000028377c887073200009511f07b10087b158475010a02013d0770000251050750101209501014a1009511a07b10587b15509515608411e049111849111049018000330740641849110850101656fc4911384911304911284911208317200a0b01821730821838821928821a20d49808d4a707d4870751071633088000028388330701330933001a0a08283b390874000256187f0c2003740002800001330780000283778000330833090a28a6fa33078000330850101821ff83783307330933001a0a0801951110fe7b10e8017b15e0017b16d8019515f0019511b0da8411e0641695697820492900014929f8004929e8008000330740956860214929f00050101ca1fb33077000027b67f8003907700002551704072893549567002083778001330833001e0a010195697820819724015247b9b7639c0a2808375247c293e7c00a281b11524761837ac30a28ab2b524719015a190a28371e514780fe9d2b4e015147d68bde59e20d51471471f45fcb085147bff4c46e0a2854154929c0034929b8034929b0034929a80395670020837720040a0b01956b782095bc000382c7b80082c8c00082c9b00082caa800d49808d4a707d487075107062813548267f800817856180307280d54492be003492bd803492bd003492bc803039567ff079577810695684024501020abfb9568ff07958879958900068297207b67f8008297187b67f0008297107b67e8008297087b67e0009567ff079577610633084050102248f9956aff0795aa7982a7000695ac000582c8f80082c9f00082cbe800d49707d48b09d47909989920d48707977720d497075107062883408267e00095a900057b97c8008267e8007b97d0008267f0007b97d8009568ff07958841068267f8007b97e0000164b77b6bf80050102414fa3308208267f8005010263dfd837833092033070a08014929c0024929b8024929b0024929a80295670020837720030a0b01956a782095ab000282b7b80082b8c00082b9b00082baa800d49808d4a707d4870751070628f5528267f80081775617230728ef5295670020837740033308043300280a0101956c782095ca000282a7e00082a8d80082a9d00050122a9675520b0628c65282cac802826bf80080b295ac04d8ac0ac8a90bd89b09daaa09c88909d88908c8870a9567ff079577794927a00149279801492790017b728801957800017b8ca8007b8bb0007b89b800647b9567ff07957741029568ff07958821029569ff07959901027bbac00150102c96569567ff07957779957900018298e0007b68f0008298d8007b68e8008298d0007b68f8008297c8007b67e0009567ff079577e10133084050102e9ef7501230b27351070628043f9567ff07957779957a000182a980007b69d00082a9787b69c80082a9707b69c00082a7687b67d8009567ff079577c1015010325ef7501234367351070628c43e501236057352080628b93e9567ff079577798272600195790001829c58829848829a50d4c807d42a09d49707987720d4c909979920d4970751070628863e83b7207b67e0008267d8007b68f8007b6af0007b62e8007b6cb80050103864fb7b67b0008267e0008268f80050103a53fb64788267b0008269f80050103c50f68264b8008263e8008262f0008267d8008268f800c88707d887088269c000c82909c88909d3290ad8290b50123e067251080628113e9569ff079599794929400149293801492930019568ff079588a10149292801501040b6f78267e8008268b800501242bf7452080628da3d8398207b68f8008267d800501044c8fa501246f1730a06826af00082a71882a81082a90882aa6f7c7b6ce8006f8b7b6bf0006f997b69e0006fa87b68f800956aff0795aa797ba800017ba9f8007babf0009567ff07957781019568ff07958861017bace8005010484f59956bff0795bb7995b800018287207b67c0008287187b67c8008287107b67d0008287087b67d8008267e8009577018878018269f000c89808d48709889901826ae000c8a909d8a90a826cf800c8ca0a7bb8b0007bb7a8007bb9b8009567ff07957741019568ff07958821017bbac00050104adb589568ff079588798287e0007b67a0008287d8007b67a8008287d0007b67b0008287c8007b67b8008268e80095870250124c2073826bf800c8b808956b78207bb8000395b800027b8af8007b89f0007b87e8009567ff07957701019568602350104e54f7956cff0795cc7980c798007b6798008268e800958703d88708826af000501250987282c890007b6890008268e000c88a0ad88a08826bf800c8b80882cb88007b6b8800956b782095bc00037bc8207bca187bc9107bc7089567ff079577e10095688023501052ecf69568ff07958879828780007b6780008287787b67788287707b67708287687b67689567ff079577c1003308405010548ff4956cff0795cc7982cb6082ca5882c85082c7487b68f000d4b809501256547251080628db3b491c40491c38491c307b6ae8009568ff079588a100491c2880007b67f8007b6be0005010587df58267f800957780008268f800d88708826af000c88a09d8a90ada880a8268e800c88a0a8268e800d88a08826be000c88b0b956800107b8948f8956800107b8740f88267c0009568ff079588797b878267c8007b87f88267d000956800107b8768f88267d800956800107b8760f8956700107b7a50f89567ff07957781009568ff079588619569ff07959941956a00107bab58f850105a155b826ae8008264e0008268f800d44a09140700000000010000007b67d8001407e0ffffff00000000d87807826cf00094c7949752070628e43a9567ff07957779827b087b6bd0008273108272207b62608277187b67c000d88b00826bf000d3b3087b68507b69c800d8b3097b635864bc826850da8009c9a708d8a70ac9420bc9ab0bd8980ac9ab0bc99808c9c309c909098267f800826ad000c97a0a8267f800837720956c00107bca20f8956a00107ba928f8956900107b9830f89568ff07958821956900107b9b38f850105c17f4826760956b00077bb7d8008267c0007bb7d0008267587bb7c8008267d0007bb7c0008267a0007bb7f8008267a8007bb7f0008267b0007bb7e8009567ff079577019568e0079569c007826ab8007bbae00050105ef1598269c8008268f8008267d8009577c0d87807826af00094a7949752070628d83995670010827718f87b67c00095670010827710f87b67b80095670010827708f87b67d00095670010827700f87b67d8008387404926b80782688800956a00077ba8a000826890007ba8a8009568a007826998007ba9b00050106045f38269f8001407a0ffffff00000000d879078268f00094878268c8009487520706285939839760826868956900077b9880008268707b9888008268787b98900095688007826a80007b9a9800501062f5f28262d8008260f800d80203826cf0008268d000d3c80ad8c809daa309826ae800826bb800c9ab07d8ab04826be000826ac000c9ba0bc94b0bd8970ac9ab0bc9970ac9c809c93909c9020701d4b909647bd4a707d49707d4a908987720978820d4870751070628c4388267f80064b87b6bf000501064b3f583788169f00033070a082876f849298003492978034929700349296803956700208377e0033300660a0b33026828f76f501268f46f82b77882b8800082b97082ba68d49808d4a707d48707510706287b4b8267f80081775617230728754b956700208377000433080433006a0a0101956b782082b8980382b7a00350126cf86e520a0628544b82b9900382ba8803956bff0795bb7995bc00057bcaa8007bc9b0007bc8b8009568ff07958821067bc7c000330750106ec6f19568ff079588794928a00549289805492888050264893307209568ff0795880106492990055010709cf19517e08477e07b67f80064713309740002390774000256173f0b200374000240017b69c0009517e08479e07b69f00064913307800002837783993308407b67b8000a06826af00082a71882a81082a90882aa6f776f8b6f996faa7b6a608268f8007b8a187b69a0007b89107b6ba8007b8b087b67b0007b879567ff079577e10550107209f2956bff0795bb7995bc000582c7800082c87882c97082ca687b6798007bc7407b6890007bc8387b6988007bc9309567ff079577c1059568ff079588a1057b6a80007bca28501074346a9568ff07958879958900058297487b67e0008297507b67d8008297587b67d0008297607b67c8009567ff07957781053308405010765def9567ff07957779827920057b69f800827818057b68f000827b10057b6be800827c08057b6c48826ac8007b7ae004826ad0007b7ad804826ad8007b7ad004826ae0007b7ac8047b7900057b78f8047b7bf00464799567ff07957761059568ff07958841057b9ce8045010786e4c8267488268f8008269e800d48909826af00050127abd6c510806284436956aff0795aa798268800095ab00047bb8a800826888007bb8b000826890007bb8b8009568ff0795882105826998007bb9c00050107cd5ef8268489587207b6778d887078269e800c879087b6870d89808da77088267f000c878087b6868d878077b67f0008267609568ff07958879958900047b97a0008267a0007b9798008267a8007b97900064899568ff07958801058267b0007b978804330750107e6def8269c000819756171f08480920018267f8008268f000c887077b67609517e08477e07b67f800647183793308208267b8000a0633023303330c826af80082a782a80882a91082aa186f777b67d0006f877b67c8006f906fa7330a7b67d8008267787b67e8008267707b67e0008267687b67f0008267607b67f8000182678000d8720782698800d39308d89309da8709826b9000d8ba0464a7826a9800d3ac08d8ac0ada840a7b67c000d3b707d48707da790a9569ff07959979520a062859307b6ca8007b63b0007b62b8008267d800959b00037bb7287b9030038267c8007bb7389567ff079577c1039568ff079588a103826ad0007bba407b60a0005020800082508269f0008267e800d4970b826af800826ce000d4ac08d48b0b98bb20d49808978820d4b808510806287734956bff0795bb7982b2600382b858037b69f00082b950037b6af80082ba48037bba08037bb910037bb818039568ff07958881037bb220037b67e8007b6ce00050208200fced8267e800957420d874098267e000c89708d8780ada990a8267f000c8a709d8790a8267f800c8a7077b67f8008267d800957701887a018260a000c8a0007b67d800d4070a88aa018267c800c87a0ad87a0b8267d000c8b7077b67d0008262b800952201882b018263b000c8b303d4320b88bb018267c000c87b0bd87b0c8267a800c87c0c7b64e8007b68e0007b69f0007b6ac80064ba2873fe49294003492938034929300349292803956700208377a003330084000a0b3302860028e66a50228600e36a50228800c66a510706288e468267f80080779569ff079599794929c0024929b8027b97a8029567ff07957741039568ff07958821034929b00233008a0033027c0328a96a9568ff07958879958900028297f8007b67b8008297f0007b67a8008297e8007b67b0008297e0007b67f0008297d8007b67e8008297d0007b67f8008297c8007b67e0009567ff079577010333084050208c0066eb50228e00796751070628ca329567ff07957779957a000282a9a0007b69d00082a998007b69c80082a990007b69c00082a788007b67d8009567ff079577e1025020900021eb50229200f86651070628853250229400c6665208062879329567ff079577798272800295790002829c78829868829a70d4c807d42a09d49707987720d4c909979920d4970751070628463283b7207b67e0008267d8007b68f8007b6af0007b62e8007b6ca0005020960024ef7b6798008267e0008268f8005020980012ef6478826798008269f80050209a000eea8264a0008263e8008262f0008267d8008268f800c88707d887088269c000c82909c88909d3290ad8290b50229c00c36551080628cd319569ff079599794929600249295802492950029568ff079588c1024929480250209e0072eb8267e8008268a0005022a0007a685208062894318398207b68f8008267d8005020a20082ee5022a400aa673300a6000a0601826af00082a782a80882a91082aa186f776f886f996faa95ab025022a8008f68c8870795687820958a00037bab487bac507ba9587ba7609567ff079577a1029568c0235020aa00e9eb9568ff07958879958900028297387b67f8008297307b67e8008297287b67f0009567ff07957781023308405020ac008ce9956aff0795aa7995ac000282c72082c81882c91082cb08d49707d48b09d47909989920d48707977720d4970751070628ca308267a8008268e800d387078268b0008269f000d398088269b800826cf800d3c909979920989920d48707d49707887701492a0002492af8017ba7e8019568ff0795886102492af001282cf04929200549291805492910054929080595670020837780050a0b01956a782095ab000582b71882b82082b91082ba08d49808d4a707d487075107062874438267f8008077956978184929a003492998037b9788039567201c9568001c492990033300ae0033027c032893673302b0009568781801958900038297d8007b67a8008297d0007b67b0008297c8007b67b8008297b8007b67f0008297a8007b67f8008297c0007b67e0008297b0007b67e8009567e01b3308405020b20052e88268f8008267e0008269e800d49707826af000d4a809d47909989920d4a707977720d4970751070628972f95677818957a000382a980007b69d00082a9787b69c80082a9707b69c00082a7687b67d8009567c01b5020b400f8e75022b600cf63510706285c2f8267f0008268e000d487071408e0ffffff00000000826af800d88a088269e8009498947852080628322f64a99567781882726003957a000382ac5882a84882ab50d4c807d42b0ad4a707987720d4ca0a97aa20d4a70751070628002f8397207b6780008267d8007b68a0007b6b98007b6290007b6c88005020b800deeb7b6778826780008268a0005020ba00cdeb64788267788269a0005020bc00cae68264880082639000826298008267d8008268a000c88707d887088269c000c82909c88909d3290ad8290b5022be007f6251080628892e3302c00095697818014929400349293803492930039568a01b492928035020c20030e89517e0847ae064a18267900082688800d487071408e0ffffff000000008269a000d88908826b980094b8947852080628342e8398207b68d0008267d8007b6ad8005020c4001eeb9518e08488e07b68c8006481837783898268d0000a06826ac80082a71882a81082a90882aa6f7c6f8b6f976fa87b68c8008269d8007b98187b67d0007b97107b6bc0007b9b087b6ca0007b9c64989567801b5020c60083e8956b781895bc000382c90882c71082c81882ca2095bc00027bcae0007bc8d8007bc7d0009567601b9568401b7bc9c8005020c800b848956a781895ab000282b7f80082a8000382b9f00082bae800d49808d4a707d48707510706286b2d956780153308405020ca00ede595697810959c000582ca2082cb1882c71082c8087b67f000d4a7077b68f800d4b808d47808988820d4b707977720d4870751070628262d4929f8044929f0044929e804140700000000a079c308956860157b9700058267f8007b6ae8007b6be0005020cc00c0e68267e8008269e000d47909140a00000000010000001407fcffffff000000008268f800d878078268f00094877b69e800949752070628be2c8267f800837704956978104929e0044929d8044929c80420956840154929d0047b6ae0005020ce005ee68267e0009577dc5022d000746152070628812c8267f800837724956978104929c0044929b8044929a8040e956820154929b0045020d20025e61407bcffffff000000005022d400386152070628452c8267f8008377443a0840000295697810492990047b98a00414080000646e756f66207b98980495680015492988043300860228d7e551477cca2c7b0a28d63e492900044929f8034929f0034929e80395670020837760043300d6000a0b3302d8002853635022d800506382b7f80082a8000482b9f00082bae800d49808d4a707d4870751070628f63e8267f80081775617230728f03e95670020837780043308043300da000a0101956c782095ca000482a72082a81882a9105022dc006161520b0628c83e82ca0804826bf80080b295ac04d8ac0ac8a90bd89b09daaa09c88909d88908c8870a95677810492700024927f8014927f0017b72e801957800027b8c087b8b107b8918647b9567a01295688012956960127bba20025020de00724295677810957900028298407b68f0008298387b68e8008298307b68f8008297287b67e000956740123308405020e00084e35022e200975f51070628e82a95677810957a000182a9e0007b69d00082a9d8007b69c80082a9d0007b69c00082a7c8007b67d800956720125020e40046e35022e6001d5f51070628aa2a5022e800eb5e520806289e2a956778108272c00195790001829cb8008298a800829ab000d4c807d42a09d49707987720d4c909979920d49707510706286b2a83b7207b67e0008267d8007b68f8007b6af0007b62e8007b6cb8005020ea0049e77b67b0008267e0008268f8005020ec0037e764788267b0008269f8005020ee0033e28264b8008263e8008262f0008267d8008268f800c88707d887088269c000c82909c88909d3290ad8290b5022f000e85d51080628f229956978104929a00149299801492990019568001249298801015020f2009de39517e0847ae064a18267e8008268b8005022f400bb6052080628b7298398207b68f0008267d8007b6af8005020f600a1e69518e08488e07b68e8006481837783898268f0003300f8000a06826ae8003302fa00280e5e826ae8005022fa00075e7b6aa800826bf8007bba187b69b0007bb9107b68b8007bb8087b67c0007bb764b89567e0115020fc0004e4956b781095bc000182c7800082c87882c97082ca687b67587bc7407b68507bc8387b69487bc9309567c0119568a0117b6a407bca285020fe003d5c330200019568781001958900018297487b67e0008297507b67d8008297587b67d0008297607b67c800956780113308405020020167e195677810827920017b69f800827818017b68f000827b10017b6be800827c08017b6c08826ac8007b7ae000826ad0007b7ad800826ad8007b7ad000826ae0007b7ac8007b7900017b78f8007b7bf000647995676011956840117b9ce80050200401823e8267088268f8008269e800d48909826af00050220601d05e510806285628956a78108268407ba8a8008268487ba8b0008268507ba8b800956820118269587ba9c00050200801f6e18268089587207b6710d887078269e800c879087b6828d89808da77088267f000c878087b6820d878077b67f0008267a800956878107b87a0008267b0007b8798008267b8007b8790006489956800118267c0007b978800330750200a0197e19517e08477e07b6790006471390874000256181f0b200374000220018267f8008268f000c887077b67181407ffffffff000000007b6798009517e08479e07b69f80064913307800002837783993308200a063309330a330c33028267f800827418827810827b0882736f446f806fbb6f38826790007b68d8007b78187b6bf0007b7b1064087b68c8007b780864487b68d0007b78140700000000010000007b67301407e0ffffff000000007b67388267107b67b0008267287b67a8008267207b67b8008267187b67c000018267407b6978d87907826948d39a087b6a70d89a09da8709826b50d8bc07826a58d3a2087b6268d8a20ada870a7b6c60d3bc07d48707da790a7b6a88009567e01033084050200c0148df95607810820480006407827878827a68827c70d48a07d44c0b826988007b6af8007b64a0007b6ce0007b68e80052090628f8347b6788009569ff07959979959700077b7a087b7c107b78189567ff07957781077b9420077b6b800033000e0133021c0328075c9567ff07957761078268900050201001fce08267880082698000d497079877208268e800d49808978820d48707510706281f26956aff0795aa7995ac000682c7f80082c8f00082c9e800826b9800d2b707330bffd2b808d2b909492ae0067bc9c8007bc8d0009568ff07958841077bc7d8008267f80050201201a0df8267d0009577018878018269c800c89808d48709889901826af000c8a9097b6af000d8a90a826bd800c8ba0a956b782095bc00047bc8307bc7287bc9387bca409567ff07957721079568a0245020140140e08267a0008269e800d47909826738826bf800d87b078268e00094879497520706286125956aff0795aa7982a7b80682a8b0067b69880082a9a806826c9800d2c7028488ff8499ff83b720492aa0067ba988067ba890069568ff07958801077ba2980650201601e6de8268d000958702d88708826ac800502218012a5b8268f000c88a0ad88a08826bd800c8b808956b782095bc00047bc9507bc7487bca587bc8609567ff079577e1069568c02450201a018ddf826cf8008267309577c0d87c078268e000948782688800948752070628b2249569ff079599798292800682987806829a7006829b680683c740959c00067bcb487bca507bc8589568ff079588c1067b92600650201c0143de826ab800826bb000d4ab078269c000826ca800d49c08d48707987720d4a808978820d48707510706284e249562ff079522798267f8007b2728068267e0007b2730068267e8007b2738069568ff079588a1068267a0007b27400664b77b69c0007b6ab8007b6bb0007b6ca80050201e01d1dd8268b0009587207b67f800d887098268a800c898077b67e800d8870ada990a8267b800c8a704d8740a8267c000c8a7077b67c0008267d000957003d8700b8267c800c8b703d8730cdabb0c8267f000c87c0cd87c0b8267d800c8b707826978959901889b01826a70c8ba0ad4a90b88bb01826860c88b0bd88b08826268c88202826890007b83087b807b8c107b67d8007b87188267f8007b67b0008267e8007b67a8007b64b8007b60d0007b63c8007b6cf00064bc2850fc49294001492938014929300149292801956700208377a001330020010a0b01956a782095ab000150222201805a510706286b368267f800817756174307286536956700208377c001330804330024010a0101956c782095ca000182a76082a85882a95050222601c158520b06283d3682ca4801826bf80080b295ac04d8ac0ac8a90bd89b09daaa09c88909d88908c8870a4926380749263007492628077b6220077b6c40077b6b48077b6950079567600795684007956920077b6a580750202801d939956800078287787b67d8008287707b67e0008287687b67e8008287607b67f000956700208377e00133082433002a010a0101956c782095ca000182a7800082a87882a97050222c011d58520b0628a03582ca6801826bf80080b295ac04d8ac0ac8a90bd89b09daaa09c88909d88908c8870a4926d8064926d0064926c8067b62c0067b6ce006956c00067bcbe8007bc9f000956700079568e0069569c0067bcaf80050202e013139956800078287187b67a0008287107b67a8008287087b67b00082877b67b8009567a0063308405020300148da8269e000826bf000d49b078268d800826ae80050223201cc5651070628992164b8956900068297b8007b67d0008297b0007b67c8008297a8007b67c0008297a0007b67f8009567800650203401f9d98269c8008267f800d497078268d000826ac000502236017d56510706284a218267e0008268d800d487071408e0ffffff00000000826af000d88a088269e8009498947852080628202164a98262980695670006827c900082788000827b8800d4c807d42b0ad4a707987720d4ca0a97aa20d4a70751070628ef208397207b67788267f8007b6898007b6b90007b6288007b6c800050203801cedd7b67708267788268980050203a01bedd64788267708269980050203c01bbd88264800082638800826290008267f80082689800c88707d887088269c000c82909c88909d3290ad8290b50223e017054510806287a204926780649267006492668069568600649266006502040012ada8267880082688000d487071408e0ffffff0000000082699800d88908826a900094a894785208062836208398207b68d0008267f8005020420124dd9518e08488e07b68f8006481837783898268d000330044010a06826af80033024601289154826af800502246018a54956b782095bc00017bcaa0007bc998007bc890007bc788009567400695680022502048018cda826940068267480682685006826a58067b6a18067b6810067b67080695672006956800067b69000650204a01c93a956b000682b73082b83882b92882ba20d49808d4a707d487077b67c8009567e00533084050204c0108d895680005828bf800828cf000828ae8008287e0007b67f8008268c80051080628c521956800057b87407b8a487b8c50956740057b8b587b6ad0007b6bc0007b6c980033004e0133020c0328e054826b9800826ac0008269f800d4b9078268d000d4a808d48707987720d4b808978820d4870751070628001f8267f000956a00057ba7208267e8007ba7288267e0007ba730956820058267d8007ba7386497502050019ed8826ad0008268f800826798008269c000d4790950225201d75552070628b51e7b69c8008389208267b800956a00057ba78267b0007ba7088267a8007ba710956800058267a0007ba7187b69880064977b6bc0005020540145d833078000037b67980083777b6790000a0301826bf8008267c0009577c0d87b078268d00094878268c800948752070628491e8269980082970881981082996f77977a206f88988820d48a0a9877206f98978920d4790998882083b7404926f804956b00047bb8f0007bb9e8009568e0047bbae0007b677050205601c8d795670020837720020a0701826bf8001407a0ffffff00000000d87b078268d00094878268c800948752070628d01d956a782095a70001827ca8008278b0008279b800827ac00083b7607b6ad8047b69d0047b68c8049568c0047b6cc0047b67605020580162d79567a00433084050205a011bd6956800048287b8007b67c8008287b0007b67c0008287a8007b6780008287a0007b67d000956780048268f00050205c01e9d58267c80082688000d487078269c0008268d00050225e01dd53510706283a1d956b000482b9980082ba900082b7800082b888007b6768d4a7077b68587b6950d49808d487079877207b6a48d4a808978820d4870751070628ff1c8267d00082686850206001f1d97b674082677882686850206201e2d9647882674082696850206401e0d48268688267d000c88707d88708826b588269800050226601a052826a488268c000c8a808d8a802826c50826ac800c8ac0cc82c0a50226801c25051080628951c492678044926700449266804956860044926600450206a0145d6826750826848d487071408e0ffffff00000000826968d889088269589498947852080628551c8267688378207b68c8008267d00050206c0140d99518e08488e07b68d0006481837783898268c8000a06826ad00082a71882a81082a90882aa6f777b67c0006f877b67c8006f977b6780006fa77b67d000956740048268f80050206e0186d4956b000482b74082b84882b95082ba587bba187bb9107bb8087bb78267d0007bb738826780007bb7308267c8007bb72895672004956800048269c0007bb920502070014c419567e003826888005020720133d48262e0038263e8038264f003826bf803826ac00095aa0188ac018267c800c87c0cd4ca0988990182678000c87909d879088267d000c878087b6bb8037b64b0037b63a8037b62a0037b68d8037b69d0037b6cc8039567c0039568a0037b6ac00350207401d8409567800382687050207601c0d3826780037b67f800826788037b678800806790037b67789517e0847ce064c18268c000958702d88708826ac800502278011f5182688000c88a0ad88a08826bd000c88b0b64c87b6c707bcb187bca107bc9087bc79567600350207a018ed58067740397772082687803826978d49707956a78208269880095ab00017bb9d0008269f8007bb9c8007bb8e0007bb7d8009568402282677050207c01c7d59567400382686050207e0117d382624003826348038267c000957903d8790a8267c800c8a70bd87b0cdaaa0c8264500382678000c87c0cd87c078268d000c8870782685803956a78207ba7000295a700017b7cf8007b7bf0007b79e8007ba820027ba418027ba310027ba208029567602295688022502080014cd582679000330082010a03826998003302840128944f82699800502284018d4f492638037b6830037b672803956820037b6a2003330750208601a8d3492618034926100349260003023307209568000349260803502088018ad333077400027b67d000390774000256173f0c8268d000480840019517e08479e07b69f80064913307800002837783993308407b67c80033008a010a06826af80033028c0128fe4f826af80050228c01f74f826ad8007b6ad802826ae0007b6ad002826ae8007b6ac802826af0007b6ac0027b69f8027b68f0027b67e8029567e0029568c0027b6be00250208e0154489567782049274002492738024927300249272802039567a0029568a02250209001cad3956900028297a000829ab8008298a800829bb000957701887901c89808d48709889901c8b909d8b90bc8ba0ad4a80bd4970cd4cb0b520b06286f2c956b7820492b6002492b5802492b5002492b48020395bc00027bc7687bc8707bc9787bca80009567c0229568e02250209201d2d38267d8007b6778028267e0007b6770028267e8007b67680295678002956860028269f0007b696002330094013302d60328eb4f826798027b67d800826790027b678800826788027b67c000826780027b67d0009567400233084050209601cfd0956b000282b95882ba5082b74882b8407b67f0007b69e800d497077b68f800d4a808d478089888207b6ae000d4a707977720d487075107062804184926380249263002492628029568200249262002408267f80050209801afd18268f80095874050229a01304e826be800c88b0b956c00017bc9c8007bc7c0008267a0007bc7f8008267a8007bc7f0008267b0007bc7e8008267b8007bc7e0007bcad000956700029568e0019569c0017bcbd80050209c018537956800028287187b67a8008287107b67a0008287087b67b00082877b67b80095670020837700030a07018267e0008268e800d487071408e0ffffff000000008269f800d889088269f0009498947852080628371795677820957c000282c9880082c8900082ca980082cba0008267f800837720956c00017bcbb8007bcab0007bc8a8009568a0017bc9a00050209e01c4d0826790000a03018262b8008260f800d80203826cf0008268b000d3c80ad8c809daa309826ae000826ba000c9ab07d8ab04826be800826aa800c9ba0bc94b0bd8970ac9ab0bc99709c9c808c93807c90208d4b707d4980ad47a0ad4970798aa20977720d4a707510706288e16826a980082a70881a91082aa6f7b97b7206f99989920d4790298bb206faa97a920d4b90398aa2049265801826788007b6770018267c0007b6768018267d0007b6760013a0b5000023a0c5800023a076000023a096800027b6b9801956b00017bbc90007bb788007bb980007bba508267d8007bb7787b63480195698001956a6001956b40017b6240018267f8003300a00133020828764d33078268c80033090a08330880000228c92849294006492938064929300649292806956700208377a0063300a2010a0b01956a782095ab00065022a401164d510706281e298267f800817756172307281929956700208377c0063308043300a6010a0101956c782095ca000682a76082a85882a9505022a801574b520b0628f22882ca4806826bf80080b264c395ac04d8ac0ac8a90bd89b09daaa09c88909d88908c8870a4923a00049239800492390007b3288007b3ca800643c7bcbb0007bc9b8009567402195682021956900217bcac0005020aa016b2c956878208287e0007b67c8008287d8007b67c0008287d0007b67d0008287c8007b67d8009567e0203308405020ac017dcd95677820827880007b68e8008279787b69e000827b707b6bf000827a687b6af8007b78607b79587b7b5064789567c0207b8a483300ae0133020c0328644a8267e8008268f000d487078269e0008268f8005022b001334b510706289014956778204917404917384917309568a020491728608267f8005020b2013bce8267e8008269e000d47909140a00000000010000001407e0ffffff000000008268f800d878078268f00094879497520706283d148267f800837720956878207b69e8006489330b49182049181849190860956880204919107b6ae0005020b401d9cd8269e8008267e0009577c08268f800d878078268f0009487949752070628ef138267f8008377409569782049094919f84919f0956860204919e85020b60199cd1407a0ffffff000000005022b801ac4852070628b9138267f8008377603302ba0195697818014929e0074929d8074929d007956840204929c8075020bc0159cd956720203308405020be0112cc8268d800826bc000d4b8078269d000826ac800d4a909d49707987720d4b909979920d4970751070628571395677818957a000782a9c0007b69f00082a9b8007b69e80082a9b0007b69e00082a7a8007b67f800956700205020c001b5cb8269e8008267f800d497078268f000826ae0005022c20139485107062806138267c8008268c000d487071408e0ffffff00000000826ad800d88a088269d0009498947852080628dc1264a9956778188272a007957a000782ac980082a8880082ab9000d4c807d42b0ad4a707987720d4ca0a97aa20d4a70751070628a7128397207b67b8008267f8007b68d8007b6bd0007b62c8007b6cc0005020c40185cf7b67b0008267b8008268d8005020c60173cf64788267b0008269d8005020c8016fca8264c0008263c8008262d0008267f8008268d800c88707d887088269e000c82909c88909d3290ad8290bdaa80b8268e800c84808d8480a826cf000c83c0cc8ca0a5022ca0144465108062817123302cc0195697818014929800749297807492970079568e01f492968075020ce01becb8267c8008268c000d487071408e0ffffff000000008269d800d88908826ad00094a8947852080628ca118398207b68f0008267f8005020d001b8ce9518e08488e07b68f8006481837783898268f0000a06826af80082a71882a81082a90882aa6f777b67d0006f877b67d8006f977b67e8006fa77b67e0009567c01f3308405020d201ffc9956a781895ac000782c7607b67c80082c8587b68c00082cb507b6bf00082c9487b69f8007bc7407bc8387bcb309567a01f7bc9283300d40133020c0328e5468267e000956878187b8700078267e8007b87f8068267d8007b87f006648a9567801f9568601f8269d0007ba9e8065020d601dc2c8267c8008268f000d487078269c0008268f8005022d801804751070628dd10956b781895bc000782c72082c81882c91082ca0895bc00067bcac8007bc9d0007bc8d8009568401f7bc7e0008267f8005020da0171ca8267d0009577018878018269d800c89808d48709889901826ae800c8a909d8a90a826be000c8ba0a956b781895bc00067bc998007bc890007bc788009567201f9568001f7bcaa0005020dc01392c8267c8008269c000d47909140700000000010000007b67c0001407e0ffffff000000008268f800d878078268f00094877b69c8009497520706281d10956b781882b2c00695bc000682c8b80082c9b00082caa8008267f8008377207bca687bc9707bc8789568e01e7bb280067b67b8005020de01adc98268d0009587025022e001d8447bc9707bc7687bca787bc880009567c01e9568e0265020e20177ca8267c0009577c08268f800d878078268f00094878268c8009487520706289b0f956a781895ac000682c75882c85082c948977720987b208267f800837740492a40067bc9287bc8309568a01e7bcb387b67c0005020e4012cc98268d0009587035022e60157447bca98007bc990007bc788007bc8a0009567801e956800275020e801f3c91407a0ffffff000000008268f800d878078268f00094878268c80094875107170f956c781882cb200682c8180682c9100682ca08068267f8008377607bcae8057bc9f0057bc8f8059568601e7bcb00067b67d0005020ea01a7c89567401e3308405020ec0160c73302ee019568781801958b000582b9e00082bad80082b7d00082b8c8007b67e8007b69e000d497077b68f000d4a808d478089888207b6ad800d4a707977720d4870752078b0e956978184929c0054929b8054929b0059568201e4929a805208267f0005020f00131c89567001e8268f8005020f201e9c68267e0008268d800d47809140700000000010000007b67c8001407e0ffffff000000008268f000d878078268e80094877b69f80094975107200e95697818959a000582a7a0007b67980082a798007b67a00082a790007b67a80082a788007b67b0008267f0008377204929800549297805491a6880009568e01d492970055020f4019fc78268f0009587a000d88708826ae8005022f601e2438268d800c88a0ad88a08826be000c88b0b95687818958c00057bc9107bc708826798007bc7408267a0007bc7388267a8007bc7308267b0007bc7287bca18648a9567c01d9568a01d9569801d7bab20055020f801642d3302fa019568781801958900058297607b6798008297587b67a0008297507b67a8008297487b67b0009567601d8268b8005020fc01c3c58267c8009577c05022fe0169435107230d95687818828700057b67b8008287f8047b67c8008267f0008268b000d878096474826ae800826ba800d3ab02d8ab07da29078263d8008262a000c93200c9ab0ac99a0bc9480a95a9e0d8a90cc8cb0a95aaffd3ba08d8ba0bda8c0bd83202826ce00082689800c9c80cc92c0cd87008c98c0c956278188228f0047b688800c97007887801c98c0c8228e8047b6890009577ffc87b0bd87b07c87c0c8347407b29c804952900047b9ad0007b9bd8009568401d7b9ce0005020000230c69567781882689800957900047b9880008268a0007b98788268a8007b98708268b0007b98688268b8007b98a0008268c8007b989800826888007b989000647b9567201d9568001d9569e01c826a90007bba880450200202072c330204029568781801958900048297c0007b67a8008297b8007b67a0008297b0007b67b0008297a8007b67b8009567c01c8268c0005020060262c4140700000000010000007b67c8001407a0ffffff0000000050220802f7415107b10b956c781882c8580482c9500482ca4804140bffffffff00000000d28b0b8499ff84aaff8267f000837760492c40047bca28047bc930049568a01c7bcb380450200a0236c59567801c8268d00050200c02eec38267c80095778050220e02944151074e0b956c781882c2200495c70004827818827a10827b088267f0008377800095c900037b9be8007b9af0007b98f8009568601c7bc2000450201002dcc48262b8008260f000d80203826ce8008268b000d3c80ad8c809daa309826ad800826ba000c9ab07d8ab04826be000826aa800c9ba0bc94b0bd8970ac9ab0bc9970ac9c809c93909c90207d4b909647bd4a707d49707d4a908987720978820d487075207ae0a8267f00064b87b6bf8003300fa022898c749298004492978044929700449296804956700208377e0040a0b01956a782095ab000482b77882b8800082b97082ba68d49808d4a707d4870751070628e11d8267f80081775617430728dc1d9567002083770005330804330012020a0101956c782095ca000482a7a00082a8980082a9900050221402ff3f520b0628b21d82ca8804826bf80080b295ac04d8ac0ac8a90bd89b09daaa09c88909d88908c8870a956778104927400449273804492730047b722804957800047b8c487b8b507b8958647b9567e0149568c0149569a0147bba60045020160210219568781095890004829780007b67f0008297787b67e8008297707b67f8008297687b67e00095670020837720053308240a0195687820958900048297c0007b67a0008297b8007b67a8008297b0007b67b0008297a8007b67b8009567801433084050201802ecc150221a02ff3d5207530995677810957a000482a9207b69d00082a9187b69c80082a9107b69c00082a7087b67d8009567601450201c02b4c150221e028b3d52071b09502220025b3d51081109956778108272000495790003829cf8008298e800829af000d4c807d42a09d49707987720d4c909979920d497075207e00883b7207b67e0008267d8007b68f8007b6af0007b62e8007b6c980050202202bdc57b6790008267e0008268f80050202402abc56478826790008269f80050202602a7c0826498008263e8008262f0008267d8008268f800c88707d887088269c000c82909c88909d3290ad8290b502228025c3c52086908956978104929e0034929d8034929d003956840144929c8030150202a0213c29517e0847ae064a18267e8008268980050222c02313f510830088398207b68f8008267d8007b6ad80050202e0219c550223002413e330032020a06826af0003302340228943c826af000502234028d3c7b6ae000826bd8007bba187b69e8007bb9107b68f0007bb8087b67f8007bb764b895672014502036028ac295607810950900038297b0008298a8008204b803829cc0008263b000d3730bd873078262b800d88208dbb708826aa000d3ca07d8ca09826ca800d84c0bdb790bd34c09d49707db7b08520806288a1b9517e08477e07b67d8006471950b00037bba407bbc387b0330037b0228038267e0007bb7608267e8007bb7588267f0007bb7509567e0139568c0139569a013826af8007bba4850203802b22a95677810827b78037b6be00095677810827880037b68f80095677810827968037b69e80095677810827770037b67f000826ad8007bab107ba8187ba97ba70864a89567801350203a02a4c195677810827718037b67c80095677810827710037b67d00095677810827708037b67d8008267e8009577018878018269f000c8980895697820959a00047ba8d000d478087ba7c8008887018268e000c887077ba7d800d887078268f800c887077ba7e000956760139568402550203c0232c1956778108077f8027b67c0008268e800958702d88708826af00050223e02783c956878108288f0027b68f0008268e000c88a0ad88a08826bf800c8b808956b781082bbe8027b6be800956b78207bb8000595b800047b8af8007b89f0007b87e800956740139568602550204002c3c0956778108277e0027b67b800956778108277d8027b67b000956778108277d0027b67a800956778108277c8027b67a00095672013330840502042025abe956a781095a80002828cc00082a2b802828bb0008287a800d4cb09d42708d49808988820d42909979920d4980852089a057b6be0001408ffffffff000000008269c800d289098268d0008488ff7b6cd000826cd80084cbff492aa00295ac00027bcb88007bc89000956800137bc998007b67f8007b62d8005020440216bf826ae0008268f8008267d0008269d800d47909502246024f3c51073005838720956878107b6bd800648b492880028268e80095ba00027ba8688268f0007ba8709568e0127b69f0008269c0007ba97850204802c1be826af8008267d8009577c0d87a078268e00094878268f00094875107da0483a7408268a000956b781095ba00027ba8488268a8007ba8508268b0007ba8589568c0128269b8007ba96050204a0272be3308608267f80050204c029ac1837833096033070a08285dc49567ff079577e10433084050204e020ebd9569ff079599798292800495980004828c78828b70828768d42b0ad4c708d4a808988820d4ca0a97aa20d4a80852084e049578207b68f000d87803c83b087b68f800d8b808da3308c8c8087b68e000d8c808c828087b68e8004929600449295804492950049568ff079588c10449294804207b67b8007b62587b6c507b6b800050205002c2bd9567ff079577a1048268485020520277bc8267f000826ae000d4a7098268f800826be800d4b808d48909989920d4a808978820d498085208bf03956cff0795cc7982cb40047b6b4082c938047b693882c830047b684882ca28047b6a307bca080495ca00047ba8107ba9189568ff07958881047bab205020540246bd3300330c4926b00033038267b800957a40d87a0282678000c8270b82683098893b7b69f8008269489799058264f800d44904978905c84b08c8a9097b6af8007b69e800d8a909c8980ad3ba087b6ae000d8ba0ada890a7b6bd000d87b08da2208826b3898b73b826940979905d4790282694898993b97bb05d49b04826bb000826750c88709d87908826758c87808c849077b68c800c882027b69c000d89708c88209c87a0a7b6ad800d87a08c898087b68f000018264b800826a80008267307b609800d87007826948d39c087b6c9000d89c09da8709826c38d8cb0064b7826b40d3b3087b638800d8b30bda800b7b67b000d3c707d48707da790b8262e800d84203826ce000d3ac077b67a80064a8d8ac04826ad800826750c97a09d87a077b67a000826af000826758c97a00c98c088267b800c9720c510b09028262c0008267f800d42707826ad000826bc800d4ab0bd4b70a98aa20d42b0b97bb20d4ba0a520a19028267a800da7304d8490a8267a000c9700bc9ab0bc94909c93807889801c98b0295c8c0d8c80ac8a70c95ccffd37c0bd87c07daba079599ffc89707d89709c82909956aff0795aa7995ab00037bb8e8007bbcf0007bb7f8009568ff07958861047ba900048267f8005020560274bb826878826b68d4b807826a70826c60d4ca09d49707987720d4b909979920d49707520786019567ff07957741047b68787b6a707b6b687b6c6050205802fbb9956cff0795cc7982cac80382c7d00382c8d80382c9e003826bf0007bcb8003826bd8007bcb7803826be0007bcb7003826be8007bcb680395cb00037bb9a0007bb898007bb790009567ff07957721049568ff07958801049569ff079599e1037bba880050205a02fc209563ff079533798237c0037b67f0008268789587207b67a800d88709826770c89702d8720ada990a826768c8a704d8740a826760c8a7077b67608267f800957a20d87a0c8267d000c8c70bd87b07dacc078238b8037b68d8008268c000c88707d8870c8268c800c8c8087b68c80082609800950001880c0182699000c8c909d4900c88cc018238b0037b68e0008238a8037b68e8008268b000c88c0cd88c0882638800c883038268a8007b68787b62707b64687b6af8007b6bd0007b67c00064cb649c2877fd826aa800daa304648a64c8d8490c826ba000c9b00bc9cb0bc94909c93a0ad4980cd4ba0ad4ac0c98cc20d4a909979920d4c909520906281614009517e08478e064818269a000959702d8970b826ac000c8ba09d8a90adabb0a826bd000c8ba0ad8ba0b826cc800c8cb0b7b89087b877b8a107b8b189567201b7b68980050205c0275ba956778188278b0027b68d0008278a8027b68c8008077b8027b67c00033078000037b67d80083777b67a00033005e020a033302600228bf3450226002bc348269c000d398088269c800d39707d487078268d000d3a808d487075207fb028267a8009777209877207b67c8008267a000330062020a0333026402287b345022640278348269c800d398088269b800d39707d487078268b000d3a808d487077b67c0009567601a330840502066029bb795677818827b000295780001828cf800828af0008289e8008267c0007b6ad0007b6b90007b6c88005207f503d4c907d4ba08d48707987720d4c808978820d487075207c7fe956a7810492a9805492a9005492a8805140700000000a079c308956800167ba7a00564977b69a8005020680262b88269a8008267900082688800d47808140700000000010000007b67f0001407fcffffff00000000d87907826ad00094a77b68f800948751075ffe839704956a7810492a8005492a7805492a6805209568e015492a700550206a0206b88267f0009577dc8268a800d878078268d00094878268f800948751071ffe8267a80083772495697810492960054929580549294805179568c0154929500550206c02c2b71407bcffffff000000008268a800d878078268d00094878268f80094875107d8fd8267a8008377443a082800023a093000023a0a380002956b781095bc00057bc8407bc9387bca309568a015492b280550206e026cb73308648267a800330088022890bad4c709d4ba08d48909989920d4c808978820d4980852087cfd4926d0054926c8054926c005140900000000a079c3089568c0057b69d8057b6ad0007b6bc0007b6c98005020700215b78269d0008268f80082679800826ac000d47a0a140b00000000010000001407fcffffff00000000d87807949794a751071afd8387044926b8054926b0054926a005209568a0054926a8057b6af0007b6be80050207202bdb68269f8008267e8009577dcd879078268d00094878268f00094875107d6fc8397244926980549269005492680050b95688005492688055020740281b61407bcffffff000000008268f800d878078268d00094878268f0009487510797fc8267f8008377443a08480002492668057b687805140800000000007374737b687005956860054926600533008602282cb69567001b33084050207602e8b495697818959c000282caa00082cb980082c7900082c888007b67f000d4a7077b68f800d4b808d47808988820d4b707977720d48707520720fc492978024929700249296802140700000000a079c3089568e01a7b9780028267f8007b6ae8007b6be00050207802b9b58267e8008269e000d47909140700000000010000007b67e0001407fcffffff000000008268f800d878078268f00094877b69e80094975107b6fb8267f80083770433027a029569781801492960024929580249294802209568c01a4929500250207c0254b58267e0009577dc50227e026a3051077afb8267f800837724330280029569781801492940024929380249292802099568a01a492930025020820218b51407bcffffff00000000502284022b3051073bfb8267f8008377443a0800000295697818492910027b982002140800000000000000727b9818029568801a4929080250208602d0b43308648267f80050208802f8b783783307013309640a08019567401a8268f8007b69a80050208a026cb3826b88008269a800d4b9078268d000826a9000d4a808d48707987720d4b808978820d487075207b4fa95677818827be001827cd8018278c801827ad001d4c8077b6a787b6b70d4ba0ad4a7079877207b6c68d4ca0a97aa20d4a70752077efa64977b68c00050208c0270b77b6760826780008268c00050208e025fb764788267608269c000502090025cb28268c0008267a800c88707d887088269d000826b78502292021b3082688800826a68c8a808d8a802826c9000826a70c8ac0cc82c0a502294023d2e520813fa3302960295697818014929c0014929b8014929b0019568201a4929a8010150209802b8b39517e08477e07b6790006471826770826868d487071408e0ffffff000000008269c000d88908826978949894785108bef98267c0008378207b68d0008267a80050209a02a7b69518e08488e07b68c0006481837783898268d0000a06826ac00082a71882a81082a90882aa6f7b6f886f996faa826790007b6a687b7a187b69707b79107b68787b78087b6b80007b7b9567001a33084050209c02e2b195687818958c000182c7a0007b67a80082c998007b69880082cb90007b6bc00082ca88007b6ad0007bc780007bc9787bcb709567e0197bca6833009e0233021c0328c32e8267a0003300a0020a03018267a8008268c000d48707826988008268d0005022a202872f5207e7f88269d8005022a4026f2e9569781849296001959b00017bb8587bb7509568c0197bba488267d0005020a60283b28267a80082688800d47809140700000000010000007b6788001407e0ffffff000000008268d000d878078268c00094877b69a8009497510780f88267d000837a2095677818492740018268b800957b00017bb8288268b0007bb8309568a0198269c8007bb9387b6a6064a75020a80212b2956700208377a0050a0701826788009577c08268d000d878078268c00094878268a8009487510720f8956a782095a70005827c28827830827938827a40826bd00083b740956b78187bba200195ba00017ba9187ba810956880197bac087b67585020aa02acb195676019826890005020ac0290b295677818827c0001827af8008279f0008ec78ea8dbc70864abd4ca07649a8e99db78095209d80b956778188277e8007b67a8009577018878017b6a8800c8a808d487098899017b6b50c8b909d8b90a7b6c48c8ca0a956b782095bc00057bc7487bc8507bc9587bca609568c025826790005020ae0290b29517e08477e07b67c0006471956878188267487b8780008267507b8778826788007b87708267a8007b87688267687b87a0008267707b8798008267787b879000648b95672019956800199569e018826a80007bba88005020b002801a95687818018282d8008283c8008284e0008289d000828bb800828cc0008287a8008288b0007b6ba800826ac0007bab107b6c90007bac187b6780007ba7d44909d42307d497077b6888007ba8085207520b1407ffffffff000000007b6778956780188268d0005020b20225af956978188297088298108299188477ff7b67d0008488ff7b6870826778d297077b6768956760188268c0005020b40220b1956778108077fc07977720956878188288826968d4970795697820826a70959b00057bba70826ad0007bba687bb880007bb7789568e0258267c0005020b60256b1956740188268605020b802a6ae95697810959a000782a7c80082a8d00082a9d8008477ff7b67d0008488ff7b68c000826778d297077b67789517e08472e064218267800095770188780182698800c8890cd4c709889901826aa800c8a909d8a90a826b9000c8ba0a6428642b7b6b707bba187bb9107bbc087bb7956720185020ba025bb0956878108087bc079777208288c007826978d4970795697820826ac000959b00057bba9000826ad0007bba88007bb8a0007bb79800956800268267705020bc0290b0956700188268585020be02e0ad95687810828288078283900782678000957902d8790a82678800c8a70bd87b0cdaaa0c828498078267a800c87c0cd87c07826a9000c8a7078280a00795687820958a00057ba7c0007bacb8007babb0007ba9a8007b80e0057b84d8057b83d0057b82c80595672026956840265020c00211b09567e017826898005020c2028caf9568781080877c07977720828880078269c800d4970795697820826ab000959b00057bbaf000826ab8007bbae8007b9800067bb7f80095686026826798005020c402bfaf95677810492760078268c800957a00077ba8588268b0007ba8509568c0178269b8007ba94833075020c60229ae3302c80295687810014928400749283807492828070264893307209568a017492930075020ca0200ae390874000256183f0b200374000240019517e08479e07b69d00064913307800002837783993308407b67c0003300cc020a06826ad0003302ce02287e2a826ad0005022ce02772a956a7810826ce0007bac0007826cf0007bacf806826ce8007bacf006826cf8007bace80695ac00077bc9207bc8187bc71095678017956860177bcb085020d002d022956a78108267e00095ab00067bb7c0008267f0007bb7b8008267e8007bb7b00095674017956820178269f8007bb9a8003300d2023302d60328f12a3302d4029568781001958900068297e0007b6790008297d8007b6798008297d0007b67a8008297c8007b67d000956700173308405020d602c8ab95677810957900068298a0007b68f000829898007b68e800829890007b68e000829788007b67f80095670020837780063300d8020a07018267f0008268e000d487078268f800648c8269e8005022da0283295207e3f2956a782095ab000682b70882b81082b91882ba20956b78107bba800695ba00067ba9787ba8709568e0167ba76864c75020dc0277ac8267a0000a038269d80082970881981082996f7a97a7206f88988820d4780298aa206f99979820d4a808989920826ac80095677810957b00057bbaf800826ab0007bbaf000826ab8007bbae800826a90007b7a40063a0a080002826b98007b7b3806826ba8007b7b3006826bd0007b7b28067b7a60063a0a1000023a0b1800023a0c2000027b7a580649270006957a00067bab507bac487ba9187ba8107b7208063308209569c016956aa016956b8016956c6016492720068267f8003300de029511e0fe7b1018017b1510017b160801951520018411e082c67b166082c6087b166882c6107b167082cc187b1c7882bc7b1c3882bc087b1c4082bc107b1c4882bb187b1b5033020e28952733078268c00033090a083308800002287404d4b7079877206482d4b808978820d4870752077cf195a7207b67d800d8a703c83c077b67f000d8c708da3308c828087b68c800d82807c847077b67d0004910604910584910509568c0104910482064a75020e00204ab9567a0108268085020e202bda98267d800826ac800d4a7098268f000826bd000d4b808d48909989920d4a808978820d49808520805f1956c781082cb4082c83882c93082ca287b6a487bca087b69507bc9107b68587bc818956880107b6b607bcb205020e4029caa3300330a330233038268f8009587407b67f000d887078269e000c879087b68d800d89808da77088267e800c878087b68c800d878078268a000c887077b67d000140700000000010000007b67401407e0ffffff000000007b67b00082681082641801826748d87007826950d39a0b7b6a8800d89a09dab709826c58d8c207826a60d3a30b7b638000d8a30adab70ad3c207d4b707da790a510abb027b62707b6078826a20d4a8077b6418826928d44909d49707987720d4a909979920d49707510706280df0956760107b68105020e60290a895677810827a957c00ff82cbf80082c9f00082c8e8007b69c0007b6aa800d4a907d4b809d479099899207b6b9000d4b707977720d4970751070628c3ef956740107b68b8005020e80245a8826cf000826ac800d4ac078268d0008269d800d49808d48707987720d4a808978820d48707510706288aef956aff0795aa7982a7d80782a8d00782a9c807826b9800d2b7078488ff8499ff492ac00795ab00077bb9a8007bb8b000956820107bb7b80064c77b6cf0005020ea0210a98267a800826a9000d47a0a8268b8008267b000d878078269c00094977b6aa80094a7520706281eef838820956700105020ec02a1a78267d0008268c800d47809826cf0008267b000d87c078268d80094877b699000949752070628e9ee956bff0795bb7982b7980782b8900782b98807826a9800d27a0a8488ff8499ff83c720492b800795bc00077bc9687bc8709568ff079588e1077bca785020ee0271a88267409577c08268b8007b6768d878078269c00094978269a80094975207062885ee8388409567ff079577c1075020f00204a78269f000826768d879078268d80094878268900094875207062858ee956cff0795cc7982c2600782c8580782ca500782cb480783974095c900077b9b287b9a307b98389568ff079588a1077bc240075020f202e9a78268f0009587607b67c000d887098267d800c897087b68b800d8780ada990a8267c800c8a702d8720a8267d000c8a7077b67d000826710957920d8790b826728c8b70cd87c07dabb07826820c88707d8870b826418c8b404826078950001880b01826a8800c8ba0ad4a00b88bb01826870c88b0bd88b0882638000c883038268c0007b68f0008268b8007b68d8007b62c80064987b6c287b672064b22813fd8262f8008264f000d82400826ce0008268d800d3c80ad8c809daa009826ae800826bc800c9ab07d8ab03826ba000826ad000c9ba0bc93b0bd8970ac9ab0bc9970ac9c809c90909c924072855b43308800002838833070133090a08330880000201838833070133090a08330880000228f2330880000228eb330880000228e4330880000228dd330880000228d6330880000228cf330880000228c8330880000228c1330880000228ba330880000228b3330880000228ac330880000228a53308800002289e330880000228973308800002289033088000022889330880000228823308800002287bff33088000022873ff3308800002286bff33088000022863ff3308800002285bff33088000022853ff3308800002284bff4926300149262801492620013302f402140700000000717b484e01956820017b67380133075020f60206a64926180149261001492600011133070495680001492608015020f802e8a58267d000817756173f0c8268d000480840013307013309248268c8000a08330880000228dcfe330880000228d4fe7b68f8005020fa02e5a883788169f80033070a0828a7ab956778104927d8054927d0054927c80564793302fc02140700000000717b484e01956840167b97e00533075020fe0272a53302000395687810014928c0054928b8054928a805416489330704956820164929b0055020020349a5390874000256183f11200374000240330880000228713308800002286a95677818491758491750491748647933020403140700000000717b484e019568c0187b9760330750200603ffa49567781849174049173849173064793307049568a01849192850200803e0a4390874000256183f1120037400024033088000022808330880000201838833070133092433000a030a0833020c03289a2050220c0397208e72883b8085bb01db720bd4a908db8c0b520b219538800050220e032b205020100385a4955190821068821560951170320050221203771f502014036ba4502216034c21502018035fa4390874000256183f0b200374000240013308800002838833070133092433001a030a0833021c0328202050221c031d208e72883ba085bb01db720bd4a908db8c0b520b2095386050221e03b21f502020030ca4955190821068821560951170320050222203fe1e50202403f2a350222603d32050202803e6a3390874000256183f0b200374000240013308800002838833070133092433002a030a0801951170ff7b1088007b1580007b1678951590008411f064728289827408828c088273959a1fd89a00c80c0984aae07b1308c8a303d8a30bc8490ac8ba0ad39a06d89a07da6b07822b18d8c90c828610822210828818da000cc86c0cd86c06c82c09c89707d8c90cd89709c8b808c86808c8c808c8980c8ec88e79dbc809d4c7088ea6db8906520657821808d88308d34a09d84a06da9806d82708d3bc09d8bc0bda980bd32708d49808da860b520b307b13507b1a587b17603307409518507b1c6850202c03fba2955170ff821088008215800082167895119000320049114049113849113033022e03140700000000717b484e019518307b1748330750203003c0a24911284911204911104133070495181049111850203203a7a2390874000256183f0b2003740002400133088000028388330701330924330034030a0801951140fe7b10b8017b15b0017b16a8019515c0018411e08280829b088284088296950a1fd80a02c8240c7b1630d86a03d3bc0a7b1b40d8bc0bdaa30b828610d84c0ada220a829c18828218829310c86a0ad86a08c82808d3c8097b1c20d9c808d83a0cda9c08d33a0ad4a909db980b510be1027b17187b1328d460077b14507b1238d42408d487079877207b1648d46808978820d487075207b8027b10608308831780017b18100a010182199801821a9001821b88018e978ea8db97087b1990007b1a8800d49a077b1b98008eb9db78095209860282168001951760013308405020360363a082127801821c70017b1c78821368017b138000821460017b147095671f7b1658d8670882199800c898088488018477e0957920d87907c8780ad88a0bda770b492138017b19200164267b1258017b1c50017b1348017b1440017b1a280195174001951820017b1b30015020380372fd8219707b166882188000d46807821a78d4a908d47808988820d4a707977720d487075207d8018216587b160001821798007b170801821788007b17100195180001821790007b171801649750203a03dda0821760c8670ad87a0982145082179800c84707c89707d3470bd84708dab90882104882198800c8090995ac20d8ac02c8270b821a30d8ca0c821a40d3ab06d8ba0adb6a0cd8090a82133882169000c83606c86a0ac89808d89809c8a909d87b07da2207c88707d88708c89808821a20d3a809d88a08821b28d87b0ada9a08d3b707d49707db780c821a9800520c9501d430071408e0ffffff00000000821960d88908944894785108030182198800821c58d49c078218900050223c03821b82167082198000821a78821b685207de00d4ba071408e0ffffff000000007b1860d88608949894785108c3008217108377207b175083672064c864c650203e0312a3837783688219500a01821270c86207d8270882199800821b8000c8b909c88909d3b90ad8b90bdaa80b82188800821a78c8a808d8a80a821c9000821668c86c0cc8ca0ac88b0bd88b08c8a808d4b808821a60d8a70a949a948a510a5064268377204921f8004921f0004921e8009518e0004921e00050204003629f8217188218687b78188218787b7810821880007b78087b76955140fe8210b8018215b0018216a8019511c001320000330880000228774921d0004921c8004921c00033024203140700000000717b484e019518c0007b17d800330750204403019f4921b8004921b0004921a000413307049518a0004921a80050204603e39e390874000256183f0b20037400024001330880000283883307013309240a083308800002280833088000020183883307013309330048030a08019511a07b10587b15507b16489515608411f0828910828c08828b82881897923f98ca01d42a02978a3f989901d49a0a97cc3f98b901d49c0c98830184bb019ab888b60184c97fd2a804d2280adbbc09d2380b88982094a8d4b40c94c8ab86167b797b7a087b74107b7b1850224a03bc1b320050224c03371950204e032b9e491118491110490122330704641849110850205003149e390874000256183f0b2003740002400133088000028388330701330924330052030a08019511a0fd951900027b90587b95507b9648951560028411e064167b6710828718828910828a0882887b67b0007b6738027b69a8007b6930027b6aa0007b6a28027b6898007b6820029567000233084050205403619c956800028287187b67188287107b67208287087b672882877b67309567e0019568200250205603649e956b000182b7f80082b8f00082b9e80082bae0007b6790007bb7b8007b6888007bb8b0007b6980007bb9a8009567c0019568a0017b6ab8007bbaa000502058038dfe826730826818826928d48909826a2050225a03c51952084403956c000182c9d80082cad00082c8c80082cbc0007b6b607bcb80007b68707bc888007b6a687bca9000956880017b69787bc9980050205c03dd9c826ab80084a70152070001826720826818d487071408e0ffffff00000000826b30d88b08826928949894785108db0284a800ff83b720826a8000956900017b9a087b98826888007b981095680001826a90007b9a1850205e03829c330433033302826768826860d48707826878826970d49808d487078e779777057b67b800018268b800958720d88708c88409d8490ada880ac83a0ad83a08c8820b8268307b68e0007b67c0008267287b67e8008267207b67f0007b69c8008267187b67f8007b6ad0009567e0009568c0007b6bd800502060034bf88267108268187b78188268207b78108268287b78088268307b789551a0fd9517000282705882755082764895116002320082679800956900017b97608267a0007b97688267a8007b9770956860018267b0007b9778330750206203aa9b9517e08477e07b67586471390874000256181f0b200374000220019517e08479e07b69b00064913307800002837783993308200a064926b800330433033302826cb00082c7188268309589207b6950d88908826928c8890a7b6a48d89a0bda880b82c81082c90882ca6f776f886f906fa9826c58649a7bc91864097b6980007bc9107b6890007bc80864797bc7826720c87b0b7b6b40d87b07826818c887077b6738017b6a88007b6998008267608268b800d87807826970d39408d89409da8709826b68d8b307826a78d3a208d8a20ada870ad3b307d48707da790a510a71fe9567400164c87b62b0007b63a8007b64a00050206403a49b8268508267b800c88707d88708826b488269a00050226603b316826a408268a800c8a808d8a802826c38826ab000c8ac0cc82c0a50226803d5145208a100956c000182c95882c85082ca4882cb407bcb207bca287bc830956820017bc93850206a034e9a826a980095aa0188a70182649000c87404d44a0788770182688000c87803d8830882678800c887078268b800958020d88009826ba000c89b08d8b80bda990b8269a800c89b0bd89b098262b000c8920264497b699000826c587bc90864a97bca7bc310647a7bc7187b6380007b60b800648464b328d3fe00951110ff7b10e8007b15e0007b16d8009515f0008411f0828c10828b18828a0882887b1a287b1b18d4ab0bd4c80ad4ba0a98aa207b1c20d4cb0b97bb20d4ba0a520aeb017b17088297187b17688296108297087b176082977b17589517b0007b181050206c033498821758d46709821868821a60d4a808d489099899207b1650d46808978820d498085208a2018219c800821ac000821bb8008218b0007b18307b1890007b1b387b1b98007b1a407b1aa000951890007b19487b19a800647650206e031199821768821850d478081407e0ffffff00000000d87609821a6094a9948951094901821820821918d49808821910d87907821a2894a7948751072f01646c821630821a40d4a607821848821b38d4b808d48707987720d4a808978820d487075207080183c7208398207b1828646850207003d39b7b1720821728646850207203c59b6478821720646950207403c496821758c86707d86708821960821b38502276038914821850821a40c8a808d8a80a821c68821648c86c0cc8ca0ac88b0bd88b08c8a808d4b808140ae0ffffff00000000d8a70a949a948a510a8e008377204921880049218000491178951870491170502078031b9882163095661f1407e0ffffff01000000d26707821858c88707d88708821a6050227a034e14821850c88a0ad88a08821b68c8b808957b20d87b07c8790cd89c09da7709c8a909d8a907c887078218087b8b7b8c087b89107b8718955110ff8210e8008215e0008216d8009511f0003200008289828618828c088288109592fc7b1910d89209c89c0a95aaffd3ca0b7b1cd8ca0cdab90c9589ffc89c0cd89c097b1808888b017b1618c9b60bc8b9098f9b8ec6db9b06d4c9098eab882840858801dbab08db96085108e20064768317800033080433007e030a0101821798008218900082198800502280034013510bc300821a800095ab04502282038d14c8870a8217107b172082177b17287b1b408217087b17308217187b17387b1c487b19509517609518409519207b1a58502084036cf48217787b17188217707b17108217687b17088217607b178317a000330824330086030a01018218b0008217b80050228803b013510a518219a000821aa8007b692082197b697b6a288219087b69087b68308218107b68107b67388217187b6718955120ff8210d8008215d0008216c8009511e00032003308800002280f330880000228083308800002018388330701330933008a030a08019511e0fe7b1018017b1510017b160801951520018411e064167b673882977b67408297087b67488297107b67508297187b6758828718828910828a0882887b67307b67f8007b69287b69f0007b6a207b6ae8007b68187b68e0009567c0009568e00050208c03db968267d8008262c0008269d000826ac800826858d3870bd87808826750d8970cdbb80c826848d38a03d8a80a826840d82808db3a08d39707d4b707db7c0851080a018267187b67608267207b67688267287b67709568608267307b6778330750208e038595390874000256181f0b200374000220019517e08479e07b693064913307800002837783993308200a068262308227188228106f7a6f88330b03826740977901c87903d6b70b826948979c01c89c0cc8cb0bc8a303d8a30ac8b807c8a700d38007d88008da7a08d8cb07330b03d6b90ac8a707826950979a01c89a04d6b90b822c826958979a01c89a0ac8ba0a6fcbc8ba0a822b08c87404d87407c8a7076fbac8a404d8a40ac8a707c84808d8480ac8a707826a387ba37ba0087ba8107ba7183307491a38491a30491a28491a209551e0fe8210180182151001821608019511200132004926b0004926a8004926a00033029003140700000000717b484e019568a0007b67b8003307502092037794492698004926900049268000323307049568800049268800502094035994390874000256183f0b2003740002400133088000028388330701330924330096030a08019511e0fc951900037b90187b95107b9608951520038411e06416828a108282828318828808827c18827910827b0882747b6c8000956700027b7c587b69787b79507b6b287b7b487b68687b6358d43807d4a208d478089888207b6a60d4a707977720d487077b64207b6440025207ae08956720027b62706428502098037c9295670002827a388279308278288ea78e9bdba70b7b68388e877b69407b6a30d4a9097b67187b6b507b699000db9b0752076d08826720027b6748956700029568400250209a036094956b000282b982b70882b81082ba187b6ad8017b68d0017b67c8019567e0019568c0017b69c00150209c039ef495670001827af800827bf000827ce8008262e0018ea78eb8dba7088ec7882920859901dbc709d4ab07db78098267488877207b678800510950027b62b0007b6cb8007b6bd0007b6ac000826720956900017b97a0008267287b97a8008267787b97b0009568a001826780007b97b800330750209e03ca92390874000256181f0b200374000220019517e08479e07b69c80064913307800002837783993308200a0682674895781fd87807826c38c87c09d8c90ada770a826b40c8ba0a7b6aa80097aa3b989b05d4ab0b8267c80082731897993b827a10988805d498076f346fa98268880094c8826a900094a8948b9487c87402d84207c8790cc8cb0b7b6bd800d39b0cd89b0adac70a7b6aa0008267b00095701fd8700b826ab800c8ba07d8a70cdabb0c8263d000c8c303973b3b987a05d4ba0a97773b980b05d4b707c847077b67b800d847076424c8790bc8ab0bd39b0a7b6bb000d89b09daa709826ba800826740d87b07826a30c8a70798ba05977b3bd4ba0a826bc80082b282bb08987705948a94876fb86f2bc8b707c88a0ad88a0cc8c7078260a000c8a000d8a00ac8a7028267d000d87307826ac000c8a707983a05977c3bd4ca0a987705c8b707826bd800c88a0ad88a08c88707c8a9097b69a800d8a908c887077b67a0009517e08473e064317b639800018267b800d874078269b000d39b08d89b09da8709826ca800d8c007826aa000d3a208d8a20ada870ad3c007d48707da790a7b347b3b087b30107b3218510a60492678024926700249266802492660029568600264377b64d0007b6bd8007b62c8007b60c0005020a0035592826398008262c800826bd8008264d000954401884701c87b0bd4b4078877018268c000c88707d88708c8820264702867ff82678800857701826a38826818dba80782685082699000db980751073f028267488477e07b6750826720956900017b97608267287b97688267787b977095686001826780007b977833075020a2036b909517e08477e07b67b800647133082033075020a40389939518e08488e07b68b0006481837783893308200a064926d000204926d8004926c800330b330233044926c000826ab00082a71882a81082a90882ac6f736f886f9a6fc9330c64908267b8007b79187b6a90007b7a107b68b0007b7808643a7b73017b60a80064a38267507b6ba000d87b07857b017b629800942b018267c000d47407947b018268708267d000c87808826a68c8ca0a8269608267d800c8790982675864c2826cc800c8c707642c520bb9017b648000826bd000d8b80bc8ba0ad3ca027b6c78d8ca0cda2b0cc89c0cd89c02826bd800d8b909c89707c82707d4c809d4a707d47909989920d4c707977720d497077b63880052074204956720015020a603158e956b000182b73882b83082b92882ba20956b00027bb798007bb890007bb988007bba8000956880028267b8005020a8038690826088009500018807018262b000c87202d4200788770182689000c87803d883088267a800c887078268d0009589207b69a800d8890a826878c8a8097b698800d8890bdaaa0b8268d800c8b804d8840b8268c800c8b8087b68c8008268a000958b20d88b0c82699800c8c908d89809dacc09826a8000c8a909d8a90c826ac000c8ca0a7b6ac000642a7b6ab000826cb8007bca08640a7bc07bc31064707bc7187b6390008267a8007b67d000826c88007b64d800648264942872fe826948826740d49707826830d4a808d48707826b705107fe01826760826858d487071408e0ffffff00000000d88b08826968949894785108110383b820956780015020aa03e18c95680001828798007b67d000828790007b67c800828788007b67b800828780007b67c000826948826a3828b30164c3826248826b50d32b0b826c40d4cb0b826438826c30d4c40cd4cb0b510b3801826bd000d8b80bc8ba0ad33a02d83a0cda2b0cc89c0cd89c02826bd800d8b909c89707c82707d4c809d4a707d47909989920d4c707977720d4970752077702956740015020ac034a8c956800018287587b67d0008287507b67c8008287487b67c0008287407b67b00082674897773b9878387b68d8009a8980003307ff3308ff5020ae033e0b7b67a8007b6890003307ff3308ff8269d8005020b003000b7b6798007b68a00082679000d487077b6790008267d8009579803307ff3308ff5020b203da0a826bd80088b98000826a9000db9a08826c9800826aa800d4ca0ada970a93b8ff93baff826ba000939b939c8267b000e0a7078269c000e089088269c800e0c909826ad000e0ba0a956b00027bbab8007bb9b0007bb8a8007bb7a0009568a0028267b8005020b403098e8262488264380182694098973f826830978801d4870798483f979901d4980898293f974a01d4a909972a0195aa01956b00027bbac0007bb9c8007bb8d0007bb7d8009568c002956740023300bc0328b58d4926c0004926b8004926c8004926d0000198a73f826b4097b801d487077b67b00098b73f826830978801d487077b67a80098973f97a801d487077b67a0009797017b6798009798037b68d8008d8980003307ff3308ff5020b603ea097b67787b6890008267488a79033307ff3308ff5020b803ab097b6788007b688000826878d487077b67788267d8008379803307ff3308ff5020ba038709826bd80088b98000826a78db9a07826c8000826a9000d4ca0ada980a93b7ff93baff939c826b8800939b8268b800e0a8088269c000e079078269c800e0b909826ad000e0ca0a826b9800d4b707826ba000d4b808826ba800d4ba0a826bb000d4b909956b00027bb9f0007bbaf8007bb8e8007bb7e0009568e002956740025020bc039b8c9551e0fc95170003827018827510827608951120033200004926100149260801492600013302be03140700000000717b484e01956800017b67180133075020c003ef8a4926f8004926f0004926e000413307049568e0004926e8005020c203d18a390874000256183f0b20037400024001330880000283883307013309243300c4030a08019511a0fe7b1058017b1550017b164801951560018411e064168289187b69408289107b69488289087b695082887b6858827a1882791082780882777b6a7b6a38017b69087b6930017b68107b6828017b67187b67200195670001956820015020c6033b8b95670001827c18827b10827a08d4cb0788a801947851083501826700019518e08488e064817b67209577018879017b6a28c8a909d4970a88aa01c8ba0a7b6b30d8ba0b7b6c38c8cb0b7b89087b877b8a107b8b18956720015020c803548b82677b67f8008267087b67f0008267107b67e8009568e0008267187b67e00033075020ca03c489390874000256181f0b200374000220019517e08479e07b691864913307800002837783993308200a06826a1882a782a80882a91882aa106f726f886f996faa826b28c8ab0b826320c89303d89309c89b0bd3ab07d8ab0ada790a826730c88707c87a0ad87a09826c38c8c202d88707c82707c879098267407b67b8008267487b67b0008267507b67a8008267587b67a0007b63c0007b6bc8007b6ad0009567c0009568a0007b69d8005020cc03e6f49551a0fe8210580182155001821648019511600132004926900049268800492680003302ce03140700000000717b484e01956880007b67980033075020d003d488491678491670491660413307049568604916685020d203bb88390874000256183f0b20037400024001330880000283883307013309243300d4030a083302d6032846065022d603430664168289107b694882897b69388289187b69408288087b68507b67189567a0003308405020d8032887826838826740826950d49707826a48d4a809d47909989920d4a707977720d497075207a0018267b8007b67288267b0007b67308267a8007b67208267a0007b6758956780005020da03dd86826758826a30d4a709826828826b20d4b808d48909989920d4a808978820d4980852085501826848826940d489091408e0ffffff00000000826238d88208826a5094a8949851083101826a9800826c900082688000826b8800d4c8097b6a407b6b10d4ab0bd4b9099899207b6c48d4cb0b97bb20d4b9095209ff008329207b69387b68505020dc03c28a7b67088267388268505020de03b38a64788267088269505020e003b185826250826758c82707d82708826920826b10c8b909c88909d3b90ad8b90bdaa80b826828826a40c8a808826a30826c48c8ca0ad8ca0cc8c808c8ab0bd8ab0ac8a808d49808d4b709d48909d4b808989920978820d4980852087883227b62504916784916704916689568604916605020e203fc868267588268505020e403258a9518e08488e07b68586481837783898268503300e6030a06826a583302e803289501826a585022e8038f01826b187bba187bb9107bb8087bb7955120ff8210d8008215d0008216c8009511e000320000828b18828a108283088eb28eacdbb20cd4ba028e39db2c09520948828898a93b97bb05d49b02983b3b97aa05d4ba0a988b3b973305d4b30b978805958c20d88c08c88b09d8b90bda880bc8ab0bd8ab08c828087b7c7b79087b7b107b781832009511b07b10487b15409515508411f05022ea0331015020ec0325865022ee0306035020f0031986390874000256183f0b20037400024001330880000283883307013309240a0833073300f20328588933075020f20353893307015020f4034a89daa80b8268c800c84808d8480a826cd000c83c0cc8ca0ac88b0bd88b08c8a808d49808d4b709d48909d4b808989920978820d498083202c88b0bd88b08c8a808d49808d4b709d48909d4b808989920978820d4980832028267f0008268e800d487071408e0ffffff00000000826be000d88b088269f8009498947832028269c8008267d800d497078268d000826ac000d4a808d48707987720d49808978820d48707320282a71882a81082a90882aa6f776f886f996faa32028268e0008267f0008269f800d49707826ae800d4a809d47909989920d4a707977720d497073202491130491128491120140700000000717b484e9518207b1738330732028268f800d878078268f00094878268e80094873202d88708826ad800c88a09d8a90ada880a8268e800c88a0ad88a08826be000c8b808956b782095bc00063202d4a808d48707987720d49808978820d4870732028269d80082970882988199106f77987a206f88978b20d4ba0a9777206f99989920d497079888203202d8380bc8b70cd87c07dabb07c89707d89709c8a9097b18407b1c487b1750330740c871087b1958320282970881981082996f77977a206f88988820d48a0a9877206f98978920d4970798882032029511907b10687b15609515708411f0827a1882791082738277088eab8e9cdbab0c3202d4780a889b0194ab3202c8b909c88909d3b90ad8b90bdaa80b320282ab7b1b1882ab087b1b2082ab107b1b2882aa187b1a308296829a087b1a829a107b1a088299187b19103202c88a09d8a90ada880a32029518e08488e07b68f0006481837783898268f80032028268f000d878078268e80094878268f80094873202d88708826af000c88a09d8a90ada880a8268e000c88a0ad88a083202d4a708d49808988820d4a909979920d49808320282a71882a81082a90882aa6f7b6f876f986fa93202d49808d47808988820d49707977720d4870732024911184911104901413307046418491108320214090000000001000000d38909d47909988a2088aa01947a939a3202d487071408e0ffffff000000008269f800d88908826af00094a894783202d487071408e0ffffff000000008269f800d88908826bf00094b894783202140b00000000010000001407e0ffffff00000000d8780794a794973202d8ab0ac8a90cd89c09daaa09c88909d8890832029551a0821058821550821648951160320282b73882b84082b93082ba28d49808d4a707d48707320233077820c8760a95ab00033202951120ff7b10d8007b15d0007b16c8009515e0008411e03202849a40520a195109148d9a409baaff9c98ff9c97ffd4a707320032009597c09c77ff33083200849a40520a195109148d9a409caaff9b97ff9b98ffd4a808320032009598c09b88ff3307320049922425494b2a252da9944c4949214225a952484992244992244992244992244992244992244992244992244992244992244992542529a524292949a84a494a922449922449922449922449922449922449922449929224294955494a922849254955924249929294a4aa2a494952924a924a922421a154525252a4489122458a14294a524444945054a4489122458a142952a4489122458a14255244449424094248184a93d29008499224524292a4499224a1940a1118a2260a551a1111912222484408112211a511810412482001010181444444342222224912452222444488442291484424442222224992241111111111b10889506a44444423222292245124226944448424a22449924844444444111111112211111111119110924844241289881092904422922449922411111121224211212222924892904422222242444812114291a4a2288a48444444448844229148441249228944444444844844444444244422222222224422228910114924222249222244229224894888244924244922224484884824894422111111291211111111118944848848001140a29248224922914452922449928844222222221121111189888888884844448888242a89888888888848444444448408205194241189444484884424894822922449a624499228425189888848494824499228129134224212118988888842242294880849144204238942258a2455251289441121129124128944444442241289442222211211111189888888888822222224221192484444444444842489248924914844444411118528322249a212555192a2a822914824462249a4481249224944442422111191082212912449128988888888888808228924914422924824914422924812492422a244444444912048a2484444444444221111111111111111912048221111111111110449904422922449922411111141440445041111914492044924222222880892440441344a5295201149121141241289444482482449922449221291882449222222121111d1882449924411111111918811111111111111110922229124491211914824220892880410894a8a8824499224494444449088a04410111149244990448c88882029220144a29244449044154592aa22128944451091241111111144444424492241449244224992242202888888202201041089a22412112122824890442222440401044924444400111109242222228a04111149922812916844922089284992242222224911114144229148448220898888888888204882242222224992248988880822222822888888249224482222220449114192880892a8228a4804118944a2228888244992442441c44824128948101111119188888888882822824424822412894424822489248924111111114544411285084624014412854a5591a4aa88448a1405900092482412932449922449924424882849121111494422494444442222884822491289888824898888882092481289442292242282882412954422222249222222824822882412912411114492284a2211118924111144242249922412111111115144441089442289241291449248224992244912299188888888121111118d089228129168449220892849922422222222228248241289884423220992889224492222222222228248241245248848449014111111111144242248221240242a29222292244992444444904450228888882492244822222288480091a82411411255441189202222222288888888880822499244248888888824924422222211914892248948241291828888044924a24824225104218a4624519444522949491211119120a21140a228898888484444248804111111111111442422482222224992244912099204254122490489249104494444044902485249121124514591a4a2288a882092244991482422124404111191449248221111111111412488888824451241249192a4082291444444444482481011492489482211111111111111441491082222a22022242208112232894225a28844101111111111111144448488202222922449922411112192444410111111111191888888884810491291481249928888104124884444444444444444049148248a8846248048541211111189888808a211894812914424499224499224924a494a1211111121841011118944444444525448444444342248a24844a211498224a29224492222a2888888202222222222414424128924452212918820892411114424800022514924a292884410914854128992481040904422464444100922129124491211111111114144228224220144a2922222229224499288888820228222828888482249124924411231222282880410894a121124514591a4a2288a4810914824124922118988888822228288440449449244444444104924892412111111114424800820124549444444244944049120494404914814251149924824910822414444441040248a2222222211111141248818111111892491242222224410114424800820124511111111111189081141442288241291442291488a88082246229148440491202222222245248948922449928824898824114992888888202222128944444414111141c488888888880802880082888808204924222282882012444424898888880822129124228948922449499244149188888846249224491489483422228224a224499288888824454404111189442222454444444444822022128944228220828888884892249188888820228222828888482249828888881024450491880882282211442412898a20222222924822892449924491444422918888041111111111119194228888888888482211914824128988202222892022228944444444444410111111111111092222229224494400914844222222228288880491882222918848109144512422128944244804a512912012912449924422892491444444844822884810918824492212894422114944828a2289249144924424892492244992449224914812498c482489242989249244225122494492484424224992882492244992244912898888880892244992444492049188888888888888888888880822114924499224892492444412894822494444249148121195482592244992249322892491445212114444444488228a04914822894822a24810892492880411111111119124492222228088228888041001248a221111228248248a2212112122082012451109214424890812912449121111404444041111092080542422444404114914452242441040248a2212220288884824888888884492241111014444441091002280481445246244880822414422468488208020222122028888201194342282884424491211119124499244112422281144249120924492202246448420899204104945242248a28a2249559124491409222222222222894424a2118908228288482211442480082012451189884824222988682412451191249188482209228288884aa944442491244912912411411245228944128944111111c4888888888844a2249108201141244924492282884449241289440491202222128924499144924822952445109148222222222241248888482249441289888888888888202288484422222222228288884422521031229488204430894225a2884410111111119124224144444444444444224644444444248888888888888846248a20229224229248411449a52425898888888808111111114288882489444444444444a42449529224498a0a494a12892492441249220a22414422922489489224492209aa22914824914824024800914c92489224922491244992244924882222229224922411414422922449221111492222228a20221189a22411442422519444222292242289489044124549228248a22889444424924444108944228924124992244992249224894444444989484492882422499224a154582a140a8542a15028140a8542a1502814121212121212121111c08882889088208ac8240a0989a0a8444414018c288818114a4410220885224911c048412429912044100a4ba248509224110449521004418860288922414992240892a420088210c150128d88442a29499224499224499224492a2949922449922449124444a22411c0a420892441886028894644444a4a922449922449922449224992244922451a11958844898804118988248924499288222222228224922449221111111105491249924492244992449224499224499288049054441241228904905424490595934424492249244992a4522222224892448a888886222202185110111211840886924261299a244952922449929424494a2949501024490942044349342249a42429222222221244922425228888888888888888204912444444241289480491481240928a48448a4424a89224498991244992884422121111419224491149a288442211294852886012854a514592244992549552245249926444224992244992882222482489209124922022499244824822492491482249249122a99488ca88884892922449924892a444822449922411119148242251902480a42249928a92244992449282a4a01424498224499224092015894812240124498224499224494a1211112d4992242549922495942451241a114144822425499224499024498a44238244a4922449121111854261291a111129254992242512894444101191244992244922499224052182490a959254922449922449922449495292a424495292922422228a88086044414448441022184aa2114922a5244911499224499224119182485249499248442282284944444410111195922449444444221289882808114ca250294992249124922415459524912422892491244912294924912449a2a42a492249249224892489249262249244224992922422228a88082222922491a44492241249124992881424510a92a85288a8229254559148a44689241249224922295244244992449224491211412449444444049144924822914812492491882492441289225229111151499224912480a42211444444444492922449129124492249922489082291482492442441441241442422491011894892a848241289888888209924499224898888884844c42489248924914844122492248848124982882422498a22914824128944222222228848128d88086044414448441022184aa2111191922429492a12894444104992229292244992242511148944240a420493142aa524554992244992244922914844444404111151444400230a92481284088692281294942449244892244912914824124192244992481240928a8888244992249204498292204992244992244992244992922409922049952891044952444434492525254992244992242529491204411022184a2a5290209144922449929424499214910022514524224992925455442492242949004945a2a84492482211254952a4949294a4244992244949a52425294992944a4925492a49929492a42425514591282a912492922429495525495292940248922a0144a24a0091a802082055922425494a922445a28888484992249554922449250500"
        },
        "methodIdentifiers": {
          "books(string)": "2b9dfe80",
          "getBook(string)": "c37a8361",
          "getBooksByOwner(address)": "5ff47114",
          "getTransferHistory(string)": "7b2cca7c",
          "registerBook(string,string)": "195a0119",
          "totalBooks()": "6ec4f4bf",
          "transferHistory(string,uint256)": "9c63b7b9",
          "transferOwnership(string,address)": "c0e793c2",
          "verifyOwnership(string,address)": "59de8bd6"
        }
      },
      "hash": "22a67e567b9c3028ca449a2c87c3faf0dc38034247430de9520649bed7248b72",
      "factoryDependencies": {}
    }
  }
}