{"contracts/BookTraceability.sol":{"BookTraceability":{"abi":[{"inputs":[],"stateMutability":"nonpayable","type":"constructor"},{"inputs":[],"name":"EnforcedPause","type":"error"},{"inputs":[],"name":"ExpectedPause","type":"error"},{"inputs":[{"internalType":"address","name":"owner","type":"address"}],"name":"OwnableInvalidOwner","type":"error"},{"inputs":[{"internalType":"address","name":"account","type":"address"}],"name":"OwnableUnauthorizedAccount","type":"error"},{"anonymous":false,"inputs":[{"indexed":true,"internalType":"bytes32","name":"bookIdHash","type":"bytes32"},{"indexed":false,"internalType":"string","name":"bookId","type":"string"},{"indexed":true,"internalType":"address","name":"updatedBy","type":"address"},{"indexed":false,"internalType":"uint256","name":"timestamp","type":"uint256"}],"name":"BookMetadataUpdated","type":"event"},{"anonymous":false,"inputs":[{"indexed":true,"internalType":"bytes32","name":"bookIdHash","type":"bytes32"},{"indexed":false,"internalType":"string","name":"bookId","type":"string"},{"indexed":true,"internalType":"address","name":"from","type":"address"},{"indexed":true,"internalType":"address","name":"to","type":"address"},{"indexed":false,"internalType":"uint256","name":"timestamp","type":"uint256"}],"name":"BookOwnershipTransferred","type":"event"},{"anonymous":false,"inputs":[{"indexed":true,"internalType":"bytes32","name":"bookIdHash","type":"bytes32"},{"indexed":false,"internalType":"string","name":"bookId","type":"string"},{"indexed":false,"internalType":"string","name":"title","type":"string"},{"indexed":true,"internalType":"address","name":"owner","type":"address"},{"indexed":false,"internalType":"uint256","name":"timestamp","type":"uint256"}],"name":"BookRegistered","type":"event"},{"anonymous":false,"inputs":[{"indexed":true,"internalType":"address","name":"previousOwner","type":"address"},{"indexed":true,"internalType":"address","name":"newOwner","type":"address"}],"name":"OwnershipTransferred","type":"event"},{"anonymous":false,"inputs":[{"indexed":false,"internalType":"address","name":"account","type":"address"}],"name":"Paused","type":"event"},{"anonymous":false,"inputs":[{"indexed":false,"internalType":"address","name":"account","type":"address"}],"name":"Unpaused","type":"event"},{"inputs":[{"internalType":"string","name":"_bookId","type":"string"}],"name":"getBook","outputs":[{"internalType":"string","name":"bookId","type":"string"},{"internalType":"string","name":"isbn","type":"string"},{"internalType":"string","name":"title","type":"string"},{"internalType":"string","name":"author","type":"string"},{"internalType":"address","name":"currentOwner","type":"address"},{"internalType":"uint256","name":"registeredAt","type":"uint256"},{"internalType":"uint256","name":"lastUpdated","type":"uint256"},{"internalType":"string","name":"metadata","type":"string"}],"stateMutability":"view","type":"function"},{"inputs":[{"internalType":"uint256","name":"_index","type":"uint256"}],"name":"getBookByIndex","outputs":[{"internalType":"string","name":"bookId","type":"string"},{"internalType":"string","name":"title","type":"string"},{"internalType":"string","name":"author","type":"string"},{"internalType":"address","name":"currentOwner","type":"address"}],"stateMutability":"view","type":"function"},{"inputs":[{"internalType":"address","name":"_owner","type":"address"}],"name":"getBooksByOwner","outputs":[{"internalType":"bytes32[]","name":"","type":"bytes32[]"}],"stateMutability":"view","type":"function"},{"inputs":[],"name":"getTotalBooks","outputs":[{"internalType":"uint256","name":"","type":"uint256"}],"stateMutability":"view","type":"function"},{"inputs":[{"internalType":"string","name":"_bookId","type":"string"}],"name":"getTransferHistory","outputs":[{"components":[{"internalType":"address","name":"from","type":"address"},{"internalType":"address","name":"to","type":"address"},{"internalType":"uint256","name":"timestamp","type":"uint256"},{"internalType":"string","name":"notes","type":"string"}],"internalType":"struct BookTraceability.Transfer[]","name":"","type":"tuple[]"}],"stateMutability":"view","type":"function"},{"inputs":[{"internalType":"string","name":"_bookId","type":"string"}],"name":"isBookRegistered","outputs":[{"internalType":"bool","name":"","type":"bool"}],"stateMutability":"view","type":"function"},{"inputs":[],"name":"owner","outputs":[{"internalType":"address","name":"","type":"address"}],"stateMutability":"view","type":"function"},{"inputs":[],"name":"pause","outputs":[],"stateMutability":"nonpayable","type":"function"},{"inputs":[],"name":"paused","outputs":[{"internalType":"bool","name":"","type":"bool"}],"stateMutability":"view","type":"function"},{"inputs":[{"internalType":"string","name":"_bookId","type":"string"},{"internalType":"string","name":"_isbn","type":"string"},{"internalType":"string","name":"_title","type":"string"},{"internalType":"string","name":"_author","type":"string"},{"internalType":"string","name":"_metadata","type":"string"}],"name":"registerBook","outputs":[{"internalType":"bytes32","name":"","type":"bytes32"}],"stateMutability":"nonpayable","type":"function"},{"inputs":[],"name":"renounceOwnership","outputs":[],"stateMutability":"nonpayable","type":"function"},{"inputs":[{"internalType":"string","name":"_bookId","type":"string"},{"internalType":"address","name":"_newOwner","type":"address"},{"internalType":"string","name":"_notes","type":"string"}],"name":"transferOwnership","outputs":[],"stateMutability":"nonpayable","type":"function"},{"inputs":[{"internalType":"address","name":"newOwner","type":"address"}],"name":"transferOwnership","outputs":[],"stateMutability":"nonpayable","type":"function"},{"inputs":[],"name":"unpause","outputs":[],"stateMutability":"nonpayable","type":"function"},{"inputs":[{"internalType":"string","name":"_bookId","type":"string"},{"internalType":"string","name":"_metadata","type":"string"}],"name":"updateMetadata","outputs":[],"stateMutability":"nonpayable","type":"function"},{"inputs":[{"internalType":"string","name":"_bookId","type":"string"},{"internalType":"address","name":"_address","type":"address"}],"name":"verifyOwnership","outputs":[{"internalType":"bool","name":"","type":"bool"}],"stateMutability":"view","type":"function"}],"evm":{"assembly":"// RO data = 0/0 bytes\n// RW data = 416/66000 bytes\n// Stack size = 32768 bytes\n\n// Instructions = 19160\n// Code size = 69130 bytes\n\n      : @0 (gas: 1)\n     0: jump @14 if a0 == a1\n      : @1 (gas: 9)\n     3: a3 = a1 << 0x20\n     6: a3 = a3 >> 0x20\n     9: a4 = a0 << 0x20\n    12: a4 = a4 >> 0x20\n    15: a4 = a4 + a2\n    18: a3 = a3 - a4\n    21: a4 = a2 << 0x1\n    24: a4 = -a4\n    26: jump @7 if a4 >=u a3\n      : @2 (gas: 1)\n    29: jump @11 if a0 >=u a1\n      : @3 (gas: 1)\n    32: jump @14 if a2 == 0\n      : @4 (gas: 3)\n    35: a2 = a2 + a0\n    38: a3 = a0\n    40: fallthrough\n      : @5 (gas: 6)\n    41: a4 = u8 [a1]\n    43: a1 = a1 + 0x1\n    46: a5 = a3 + 0x1\n    49: u8 [a3] = a4\n    51: a3 = a5\n    53: jump @5 if a5 != a2\n      : @6 (gas: 1)\n    56: jump @14\n      : @7 (gas: 1)\n    58: jump @14 if a2 == 0\n      : @8 (gas: 3)\n    61: a2 = a2 + a0\n    64: a3 = a0\n    66: fallthrough\n      : @9 (gas: 6)\n    67: a4 = u8 [a1]\n    69: a1 = a1 + 0x1\n    72: a5 = a3 + 0x1\n    75: u8 [a3] = a4\n    77: a3 = a5\n    79: jump @9 if a5 != a2\n      : @10 (gas: 1)\n    82: jump @14\n      : @11 (gas: 1)\n    84: jump @14 if a2 == 0\n      : @12 (gas: 2)\n    87: i32 a3 = a2 + 0xffffffffffffffff\n    90: fallthrough\n      : @13 (gas: 7)\n    91: a4 = a1 + a3\n    94: a4 = u8 [a4]\n    96: a2 = a2 + 0xffffffffffffffff\n    99: a5 = a0 + a3\n   102: u8 [a5] = a4\n   104: i32 a3 = a3 + 0xffffffffffffffff\n   107: jump @13 if a2 != 0\n      : @14 (gas: 1)\n   110: ret\n      : @15 (gas: 2)\n   112: a1 = i32 [0x201a8]\n   117: jump @54 if a1 == 0\n      : @16 (gas: 4)\n   121: a0 = 0x301d0\n   126: i32 a0 = a0 + 0\n   128: ecalli 9 // 'set_immutable_data'\n   130: jump @54\n      : @17 (gas: 8)\n   133: sp = sp + 0xfffffffffffffff0\n   136: u64 [sp + 0x8] = ra\n   139: u64 [sp] = s0\n   141: a2 = a1\n   143: s0 = a0\n   145: a1 = 0x20\n   148: a0 = a2\n   150: ra = 2, jump @32\n      : @18 [@dyn 1] (gas: 100)\n   155: a1 = u8 [a0 + 0x1]\n   158: a2 = u8 [a0]\n   160: a3 = u8 [a0 + 0x2]\n   163: a4 = u8 [a0 + 0x3]\n   166: a1 = a1 << 0x8\n   169: a1 = a1 | a2\n   172: a3 = a3 << 0x10\n   175: a4 = a4 << 0x18\n   178: a3 = a3 | a4\n   181: a1 = a1 | a3\n   184: a2 = u8 [a0 + 0x5]\n   187: a3 = u8 [a0 + 0x4]\n   190: a4 = u8 [a0 + 0x6]\n   193: a5 = u8 [a0 + 0x7]\n   196: a2 = a2 << 0x8\n   199: a2 = a2 | a3\n   202: a4 = a4 << 0x10\n   205: a5 = a5 << 0x18\n   208: a4 = a4 | a5\n   211: a2 = a2 | a4\n   214: a2 = a2 << 0x20\n   217: t0 = a2 | a1\n   220: a2 = u8 [a0 + 0x9]\n   223: a3 = u8 [a0 + 0x8]\n   226: a4 = u8 [a0 + 0xa]\n   229: a5 = u8 [a0 + 0xb]\n   232: a2 = a2 << 0x8\n   235: a2 = a2 | a3\n   238: a4 = a4 << 0x10\n   241: a5 = a5 << 0x18\n   244: a4 = a4 | a5\n   247: a2 = a2 | a4\n   250: a3 = u8 [a0 + 0xd]\n   253: a4 = u8 [a0 + 0xc]\n   256: a5 = u8 [a0 + 0xe]\n   259: a1 = u8 [a0 + 0xf]\n   262: a3 = a3 << 0x8\n   265: a3 = a3 | a4\n   268: a5 = a5 << 0x10\n   271: a1 = a1 << 0x18\n   274: a1 = a1 | a5\n   277: a1 = a1 | a3\n   280: a1 = a1 << 0x20\n   283: t1 = a1 | a2\n   286: a1 = u8 [a0 + 0x11]\n   289: a3 = u8 [a0 + 0x10]\n   292: a4 = u8 [a0 + 0x12]\n   295: a5 = u8 [a0 + 0x13]\n   298: a1 = a1 << 0x8\n   301: a1 = a1 | a3\n   304: a4 = a4 << 0x10\n   307: a5 = a5 << 0x18\n   310: a4 = a4 | a5\n   313: a1 = a1 | a4\n   316: a3 = u8 [a0 + 0x15]\n   319: a4 = u8 [a0 + 0x14]\n   322: a5 = u8 [a0 + 0x16]\n   325: a2 = u8 [a0 + 0x17]\n   328: a3 = a3 << 0x8\n   331: a3 = a3 | a4\n   334: a5 = a5 << 0x10\n   337: a2 = a2 << 0x18\n   340: a2 = a2 | a5\n   343: a2 = a2 | a3\n   346: a2 = a2 << 0x20\n   349: a3 = a2 | a1\n   352: a1 = u8 [a0 + 0x19]\n   355: a2 = u8 [a0 + 0x18]\n   358: a4 = u8 [a0 + 0x1a]\n   361: a5 = u8 [a0 + 0x1b]\n   364: a1 = a1 << 0x8\n   367: a1 = a1 | a2\n   370: a4 = a4 << 0x10\n   373: a5 = a5 << 0x18\n   376: a4 = a4 | a5\n   379: a1 = a1 | a4\n   382: a2 = u8 [a0 + 0x1d]\n   385: a4 = u8 [a0 + 0x1c]\n   388: a5 = u8 [a0 + 0x1e]\n   391: a0 = u8 [a0 + 0x1f]\n   394: a2 = a2 << 0x8\n   397: a2 = a2 | a4\n   400: a5 = a5 << 0x10\n   403: a0 = a0 << 0x18\n   406: a0 = a0 | a5\n   409: a0 = a0 | a2\n   412: a0 = a0 << 0x20\n   415: a0 = a0 | a1\n   418: a0 = reverse a0\n   420: a1 = reverse a3\n   422: a2 = reverse t1\n   424: a3 = reverse t0\n   426: u64 [s0 + 0x18] = a3\n   429: u64 [s0 + 0x10] = a2\n   432: u64 [s0 + 0x8] = a1\n   435: u64 [s0] = a0\n   437: ra = u64 [sp + 0x8]\n   440: s0 = u64 [sp]\n   442: sp = sp + 0x10\n   445: ret\n      : @19 (gas: 12)\n   447: sp = sp + 0xffffffffffffffd8\n   450: u64 [sp + 0x20] = ra\n   453: u64 [sp + 0x18] = s0\n   456: u64 [sp + 0x10] = s1\n   459: a2 = u64 [a1]\n   461: u64 [sp + 0x8] = a2\n   464: a2 = u64 [a1 + 0x8]\n   467: u64 [sp] = a2\n   469: s0 = u64 [a1 + 0x10]\n   472: s1 = u64 [a1 + 0x18]\n   475: a1 = 0x20\n   478: ra = 4, jump @32\n      : @20 [@dyn 2] (gas: 71)\n   483: a1 = reverse s1\n   485: a2 = reverse s0\n   487: a3 = u64 [sp]\n   489: a3 = reverse a3\n   491: a4 = u64 [sp + 0x8]\n   494: a4 = reverse a4\n   496: u8 [a0 + 0x18] = a4\n   499: u8 [a0 + 0x10] = a3\n   502: u8 [a0 + 0x8] = a2\n   505: u8 [a0] = a1\n   507: a5 = a4 >> 0x38\n   510: u8 [a0 + 0x1f] = a5\n   513: a5 = a4 >> 0x30\n   516: u8 [a0 + 0x1e] = a5\n   519: a5 = a4 >> 0x28\n   522: u8 [a0 + 0x1d] = a5\n   525: a5 = a4 >> 0x20\n   528: u8 [a0 + 0x1c] = a5\n   531: a5 = a4 >> 0x18\n   534: u8 [a0 + 0x1b] = a5\n   537: a5 = a4 >> 0x10\n   540: u8 [a0 + 0x1a] = a5\n   543: a4 = a4 >> 0x8\n   546: u8 [a0 + 0x19] = a4\n   549: a4 = a3 >> 0x38\n   552: u8 [a0 + 0x17] = a4\n   555: a4 = a3 >> 0x30\n   558: u8 [a0 + 0x16] = a4\n   561: a4 = a3 >> 0x28\n   564: u8 [a0 + 0x15] = a4\n   567: a4 = a3 >> 0x20\n   570: u8 [a0 + 0x14] = a4\n   573: a4 = a3 >> 0x18\n   576: u8 [a0 + 0x13] = a4\n   579: a4 = a3 >> 0x10\n   582: u8 [a0 + 0x12] = a4\n   585: a3 = a3 >> 0x8\n   588: u8 [a0 + 0x11] = a3\n   591: a3 = a2 >> 0x38\n   594: u8 [a0 + 0xf] = a3\n   597: a3 = a2 >> 0x30\n   600: u8 [a0 + 0xe] = a3\n   603: a3 = a2 >> 0x28\n   606: u8 [a0 + 0xd] = a3\n   609: a3 = a2 >> 0x20\n   612: u8 [a0 + 0xc] = a3\n   615: a3 = a2 >> 0x18\n   618: u8 [a0 + 0xb] = a3\n   621: a3 = a2 >> 0x10\n   624: u8 [a0 + 0xa] = a3\n   627: a2 = a2 >> 0x8\n   630: u8 [a0 + 0x9] = a2\n   633: a2 = a1 >> 0x38\n   636: u8 [a0 + 0x7] = a2\n   639: a2 = a1 >> 0x30\n   642: u8 [a0 + 0x6] = a2\n   645: a2 = a1 >> 0x28\n   648: u8 [a0 + 0x5] = a2\n   651: a2 = a1 >> 0x20\n   654: u8 [a0 + 0x4] = a2\n   657: a2 = a1 >> 0x18\n   660: u8 [a0 + 0x3] = a2\n   663: a2 = a1 >> 0x10\n   666: u8 [a0 + 0x2] = a2\n   669: a1 = a1 >> 0x8\n   672: u8 [a0 + 0x1] = a1\n   675: ra = u64 [sp + 0x20]\n   678: s0 = u64 [sp + 0x18]\n   681: s1 = u64 [sp + 0x10]\n   684: sp = sp + 0x28\n   687: ret\n      : @21 (gas: 43)\n   689: sp = sp + 0xffffffffffffffa0\n   692: u64 [sp + 0x58] = ra\n   695: u64 [sp + 0x50] = s0\n   698: u64 [sp + 0x48] = s1\n   701: s0 = sp + 0x60\n   704: sp = sp & 0xffffffffffffffe0\n   707: s1 = a0\n   709: a0 = u64 [a1 + 0x18]\n   712: a2 = u64 [a1 + 0x10]\n   715: a3 = u64 [a1 + 0x8]\n   718: a1 = u64 [a1]\n   720: a0 = reverse a0\n   722: a2 = reverse a2\n   724: a3 = reverse a3\n   726: a1 = reverse a1\n   728: u64 [sp + 0x18] = a1\n   731: u64 [sp + 0x10] = a3\n   734: u64 [sp + 0x8] = a2\n   737: u64 [sp] = a0\n   739: u64 [sp + 56] = 0\n   742: u64 [sp + 48] = 0\n   745: u64 [sp + 40] = 0\n   748: u64 [sp + 32] = 0\n   751: u32 [sp + 64] = 0x20\n   755: i32 a1 = sp + 0\n   757: i32 a3 = sp + 0x20\n   760: i32 a4 = sp + 0x40\n   763: a2 = 0xffffffffffffffff\n   766: a0 = 0\n   768: ecalli 5 // 'get_storage'\n   770: a0 = u64 [sp + 0x38]\n   773: a1 = u64 [sp + 0x30]\n   776: a2 = u64 [sp + 0x28]\n   779: a3 = u64 [sp + 0x20]\n   782: a0 = reverse a0\n   784: a1 = reverse a1\n   786: a2 = reverse a2\n   788: a3 = reverse a3\n   790: u64 [s1 + 0x18] = a3\n   793: u64 [s1 + 0x10] = a2\n   796: u64 [s1 + 0x8] = a1\n   799: u64 [s1] = a0\n   801: t0 = 6, jump @2382\n      : @22 [@dyn 3] (gas: 1)\n   807: ret\n      : @23 (gas: 40)\n   809: sp = sp + 0xffffffffffffffa0\n   812: u64 [sp + 0x58] = ra\n   815: u64 [sp + 0x50] = s0\n   818: s0 = sp + 0x60\n   821: sp = sp & 0xffffffffffffffe0\n   824: t0 = u64 [a0]\n   826: a3 = u64 [a0 + 0x8]\n   829: a4 = u64 [a0 + 0x10]\n   832: a0 = u64 [a0 + 0x18]\n   835: t1 = u64 [a1]\n   837: a2 = u64 [a1 + 0x8]\n   840: a5 = u64 [a1 + 0x10]\n   843: a1 = u64 [a1 + 0x18]\n   846: t2 = reverse a0\n   848: a4 = reverse a4\n   850: a3 = reverse a3\n   852: a0 = reverse t0\n   854: t0 = reverse a1\n   856: a5 = reverse a5\n   858: a2 = reverse a2\n   860: a1 = reverse t1\n   862: u64 [sp + 0x18] = a0\n   865: u64 [sp + 0x10] = a3\n   868: u64 [sp + 0x8] = a4\n   871: u64 [sp] = t2\n   873: u64 [sp + 0x38] = a1\n   876: u64 [sp + 0x30] = a2\n   879: u64 [sp + 0x28] = a5\n   882: u64 [sp + 0x20] = t0\n   885: i32 a1 = sp + 0\n   887: i32 a3 = sp + 0x20\n   890: a2 = 0xffffffffffffffff\n   893: a4 = 0x20\n   896: a0 = 0\n   898: ecalli 10 // 'set_storage'\n   900: sp = s0 + 0xffffffffffffffa0\n   903: ra = u64 [sp + 0x58]\n   906: s0 = u64 [sp + 0x50]\n   909: sp = sp + 0x60\n   912: ret\n      : @24 (gas: 16)\n   914: sp = sp + 0xffffffffffffffa0\n   917: u64 [sp + 0x58] = ra\n   920: u64 [sp + 0x50] = s0\n   923: u64 [sp + 0x48] = s1\n   926: s0 = sp + 0x60\n   929: sp = sp & 0xffffffffffffffe0\n   932: a3 = u64 [a2]\n   934: u64 [sp + 0x18] = a3\n   937: a3 = u64 [a2 + 0x8]\n   940: u64 [sp + 0x10] = a3\n   943: a3 = u64 [a2 + 0x10]\n   946: u64 [sp + 0x8] = a3\n   949: a2 = u64 [a2 + 0x18]\n   952: u64 [sp] = a2\n   954: s1 = a1\n   956: ra = 8, jump @32\n      : @25 [@dyn 4] (gas: 18)\n   961: a1 = u64 [sp]\n   963: a1 = reverse a1\n   965: a2 = u64 [sp + 0x8]\n   968: a2 = reverse a2\n   970: a3 = u64 [sp + 0x10]\n   973: a3 = reverse a3\n   975: a4 = u64 [sp + 0x18]\n   978: a4 = reverse a4\n   980: u64 [sp + 0x38] = a4\n   983: u64 [sp + 0x30] = a3\n   986: u64 [sp + 0x28] = a2\n   989: u64 [sp + 0x20] = a1\n   992: i32 a2 = a0 + 0\n   994: i32 a3 = s1 + 0\n   996: i32 a0 = sp + 0x20\n   999: a1 = 0x1\n  1002: ecalli 4 // 'deposit_event'\n  1004: t0 = 10, jump @2382\n      : @26 [@dyn 5] (gas: 1)\n  1010: ret\n      : @27 (gas: 15)\n  1012: sp = sp + 0xffffffffffffff20\n  1016: u64 [sp + 0xd8] = ra\n  1020: u64 [sp + 0xd0] = s0\n  1024: u64 [sp + 0xc8] = s1\n  1028: s0 = sp + 0xe0\n  1032: sp = sp & 0xffffffffffffffe0\n  1035: a5 = u64 [a4]\n  1037: u64 [sp + 0x40] = a5\n  1040: a5 = u64 [a4 + 0x8]\n  1043: u64 [sp + 0x48] = a5\n  1046: a5 = u64 [a4 + 0x10]\n  1049: u64 [sp + 0x50] = a5\n  1052: a4 = u64 [a4 + 0x18]\n  1055: u64 [sp + 0x58] = a4\n  1058: t0 = 12, jump @2342\n      : @28 [@dyn 6] (gas: 2)\n  1064: u64 [sp + 0x38] = a1\n  1067: ra = 14, jump @32\n      : @29 [@dyn 7] (gas: 46)\n  1072: a1 = reverse s1\n  1074: u64 [sp + 0x78] = a1\n  1077: a1 = u64 [sp]\n  1079: a1 = reverse a1\n  1081: u64 [sp + 0x70] = a1\n  1084: a1 = u64 [sp + 0x8]\n  1087: a1 = reverse a1\n  1089: u64 [sp + 0x68] = a1\n  1092: a1 = u64 [sp + 0x10]\n  1095: a1 = reverse a1\n  1097: u64 [sp + 0x60] = a1\n  1100: a1 = u64 [sp + 0x18]\n  1103: a1 = reverse a1\n  1105: u64 [sp + 0x98] = a1\n  1109: a1 = u64 [sp + 0x20]\n  1112: a1 = reverse a1\n  1114: u64 [sp + 0x90] = a1\n  1118: a1 = u64 [sp + 0x28]\n  1121: a1 = reverse a1\n  1123: u64 [sp + 0x88] = a1\n  1127: a1 = u64 [sp + 0x30]\n  1130: a1 = reverse a1\n  1132: u64 [sp + 0x80] = a1\n  1136: a1 = u64 [sp + 0x40]\n  1139: a1 = reverse a1\n  1141: u64 [sp + 0xb8] = a1\n  1145: a1 = u64 [sp + 0x48]\n  1148: a1 = reverse a1\n  1150: u64 [sp + 0xb0] = a1\n  1154: a1 = u64 [sp + 0x50]\n  1157: a1 = reverse a1\n  1159: u64 [sp + 0xa8] = a1\n  1163: a1 = u64 [sp + 0x58]\n  1166: a1 = reverse a1\n  1168: u64 [sp + 0xa0] = a1\n  1172: i32 a2 = a0 + 0\n  1174: a3 = i32 [sp + 0x38]\n  1177: i32 a0 = sp + 0x60\n  1180: a1 = 0x3\n  1183: ecalli 4 // 'deposit_event'\n  1185: sp = s0 + 0xffffffffffffff20\n  1189: ra = u64 [sp + 0xd8]\n  1193: s0 = u64 [sp + 0xd0]\n  1197: s1 = u64 [sp + 0xc8]\n  1201: sp = sp + 0xe0\n  1205: ret\n      : @30 [@dyn 8] (gas: 2)\n  1207: u64 [sp + 0x58] = a1\n  1210: ra = 18, jump @32\n      : @31 [@dyn 9] (gas: 58)\n  1215: a1 = reverse s1\n  1217: u64 [sp + 0x98] = a1\n  1221: a1 = u64 [sp]\n  1223: a1 = reverse a1\n  1225: u64 [sp + 0x90] = a1\n  1229: a1 = u64 [sp + 0x8]\n  1232: a1 = reverse a1\n  1234: u64 [sp + 0x88] = a1\n  1238: a1 = u64 [sp + 0x10]\n  1241: a1 = reverse a1\n  1243: u64 [sp + 0x80] = a1\n  1247: a1 = u64 [sp + 0x18]\n  1250: a1 = reverse a1\n  1252: u64 [sp + 0xb8] = a1\n  1256: a1 = u64 [sp + 0x20]\n  1259: a1 = reverse a1\n  1261: u64 [sp + 0xb0] = a1\n  1265: a1 = u64 [sp + 0x28]\n  1268: a1 = reverse a1\n  1270: u64 [sp + 0xa8] = a1\n  1274: a1 = u64 [sp + 0x30]\n  1277: a1 = reverse a1\n  1279: u64 [sp + 0xa0] = a1\n  1283: a1 = u64 [sp + 0x38]\n  1286: a1 = reverse a1\n  1288: u64 [sp + 0xd8] = a1\n  1292: a1 = u64 [sp + 0x40]\n  1295: a1 = reverse a1\n  1297: u64 [sp + 0xd0] = a1\n  1301: a1 = u64 [sp + 0x48]\n  1304: a1 = reverse a1\n  1306: u64 [sp + 0xc8] = a1\n  1310: a1 = u64 [sp + 0x50]\n  1313: a1 = reverse a1\n  1315: u64 [sp + 0xc0] = a1\n  1319: a1 = u64 [sp + 0x60]\n  1322: a1 = reverse a1\n  1324: u64 [sp + 0xf8] = a1\n  1328: a1 = u64 [sp + 0x68]\n  1331: a1 = reverse a1\n  1333: u64 [sp + 0xf0] = a1\n  1337: a1 = u64 [sp + 0x70]\n  1340: a1 = reverse a1\n  1342: u64 [sp + 0xe8] = a1\n  1346: a1 = u64 [sp + 0x78]\n  1349: a1 = reverse a1\n  1351: u64 [sp + 0xe0] = a1\n  1355: i32 a2 = a0 + 0\n  1357: a3 = i32 [sp + 0x58]\n  1360: i32 a0 = sp + 0x80\n  1364: a1 = 0x4\n  1367: ecalli 4 // 'deposit_event'\n  1369: sp = s0 + 0xfffffffffffffee0\n  1373: ra = u64 [sp + 0x118]\n  1377: s0 = u64 [sp + 0x110]\n  1381: s1 = u64 [sp + 0x108]\n  1385: sp = sp + 0x120\n  1389: ret\n      : @32 (gas: 2)\n  1391: i32 a2 = a0 >> 0x10\n  1394: jump @37 if a2 != 0\n      : @33 (gas: 4)\n  1397: a1 = a1 + a0\n  1400: i32 a1 = a1 + 0x1f\n  1403: a1 = a1 & 0xffffffffffffffe0\n  1406: jump @37 if a1 >u 65536\n      : @34 (gas: 3)\n  1412: a2 = 0x201a4\n  1417: a3 = i32 [0x201a4]\n  1422: jump @36 if a3 >=u a1\n      : @35 (gas: 2)\n  1425: u32 [0x201a4] = a1\n  1430: fallthrough\n      : @36 (gas: 4)\n  1431: a1 = 0x201b0\n  1436: i32 a0 = a0 + 0\n  1438: a0 = a0 + a1\n  1441: ret\n      : @37 (gas: 1)\n  1443: trap\n      : @38 (gas: 6)\n  1444: sp = sp + 0xfffffffffffffff0\n  1447: u64 [sp + 0x8] = ra\n  1450: u64 [sp] = s0\n  1452: s0 = a0 & 0x1\n  1455: ecalli 2 // 'call_data_size'\n  1457: fallthrough\n      : @39 (gas: 2)\n  1458: u32 [0x201a0] = a0\n  1463: jump @41 if s0 == 0\n      : @40 (gas: 1)\n  1466: ra = 20, jump @42\n      : @41 [@dyn 10] (gas: 1)\n  1470: ra = 22, jump @61\n      : @42 [@dyn 11] (gas: 13)\n  1475: sp = sp + 0xfffffffffffffe40\n  1479: u64 [sp + 0x1b8] = ra\n  1483: u64 [sp + 0x1b0] = s0\n  1487: u64 [sp + 0x1a8] = s1\n  1491: s0 = sp + 0x1c0\n  1495: sp = sp & 0xffffffffffffffe0\n  1498: u64 [sp + 280] = 0\n  1502: u64 [sp + 272] = 0\n  1506: u64 [sp + 256] = 0x80\n  1512: a0 = 0x40\n  1515: a1 = sp + 0x100\n  1519: u64 [sp + 264] = 0\n  1523: ra = 24, jump @19\n      : @43 [@dyn 12] (gas: 7)\n  1528: u64 [sp + 312] = 0\n  1532: u64 [sp + 304] = 0\n  1536: u64 [sp + 296] = 0\n  1540: u64 [sp + 288] = 0\n  1544: i32 a0 = sp + 0x120\n  1548: ecalli 11 // 'value_transferred'\n  1550: fallthrough\n      : @44 (gas: 8)\n  1551: a0 = u64 [sp + 0x130]\n  1555: a1 = u64 [sp + 0x138]\n  1559: a2 = u64 [sp + 0x128]\n  1563: a3 = u64 [sp + 0x120]\n  1567: a1 = a1 | a2\n  1570: a0 = a0 | a3\n  1573: a0 = a0 | a1\n  1576: jump @46 if a0 == 0\n      : @45 (gas: 6)\n  1579: a1 = 0x201b0\n  1584: i32 a1 = a1 + 0\n  1586: a0 = 0x1\n  1589: a2 = 0\n  1591: ecalli 8 // 'seal_return'\n  1593: jump @56\n      : @46 (gas: 5)\n  1596: s1 = 0x301b0\n  1601: i32 a0 = s1 + 0\n  1603: u64 [sp + 0x38] = a0\n  1606: ecalli 3 // 'caller'\n  1608: fallthrough\n      : @47 (gas: 6)\n  1609: a0 = u32 [0x301c0]\n  1614: a1 = u64 [0x301b0]\n  1619: a2 = u64 [0x301b8]\n  1624: a0 = a0 | a1\n  1627: a0 = a0 | a2\n  1630: jump @56 if a0 == 0\n      : @48 (gas: 7)\n  1634: u64 [sp + 344] = 0\n  1638: u64 [sp + 336] = 0\n  1642: u64 [sp + 328] = 0\n  1646: u64 [sp + 320] = 0\n  1650: a0 = sp + 0xe0\n  1654: a1 = sp + 0x140\n  1658: ra = 26, jump @21\n      : @49 [@dyn 13] (gas: 39)\n  1663: a0 = u64 [sp + 0xe0]\n  1667: u64 [sp + 0x28] = a0\n  1670: a0 = u64 [sp + 0xe8]\n  1674: u64 [sp + 0x20] = a0\n  1677: a0 = u64 [sp + 0xf8]\n  1681: u64 [sp + 0x18] = a0\n  1684: a0 = u64 [sp + 0xf0]\n  1688: u64 [sp + 0x30] = a0\n  1691: a0 = u64 [sp + 0x38]\n  1694: ecalli 3 // 'caller'\n  1696: a0 = u64 [s1 + 0x8]\n  1699: a1 = i32 [s1 + 0x10]\n  1702: a2 = u64 [s1]\n  1704: a0 = reverse a0\n  1706: a3 = a0 << 0x20\n  1709: a1 = reverse a1\n  1711: a1 = a1 >> 0x20\n  1714: a1 = a1 | a3\n  1717: a0 = a0 >> 0x20\n  1720: a2 = reverse a2\n  1722: a3 = a2 << 0x20\n  1725: a0 = a0 | a3\n  1728: a2 = a2 >> 0x20\n  1731: a3 = u64 [sp + 0x30]\n  1734: a3 = a3 >> 0x20\n  1737: a3 = a3 << 0x20\n  1740: a2 = a2 | a3\n  1743: u64 [sp + 376] = 0\n  1747: u64 [sp + 368] = 0\n  1751: u64 [sp + 360] = 0\n  1755: u64 [sp + 352] = 0\n  1759: a3 = u64 [sp + 0x18]\n  1762: u64 [sp + 0x198] = a3\n  1766: u64 [sp + 0x190] = a2\n  1770: u64 [sp + 0x188] = a0\n  1774: u64 [sp + 0x180] = a1\n  1778: a0 = sp + 0x160\n  1782: a1 = sp + 0x180\n  1786: ra = 28, jump @23\n      : @50 [@dyn 14] (gas: 42)\n  1791: a0 = u64 [sp + 0x38]\n  1794: ecalli 3 // 'caller'\n  1796: a0 = u64 [s1 + 0x8]\n  1799: a1 = i32 [s1 + 0x10]\n  1802: a2 = u64 [s1]\n  1804: a3 = reverse a0\n  1806: a0 = a3 << 0x20\n  1809: a1 = reverse a1\n  1811: a1 = a1 >> 0x20\n  1814: a0 = a0 | a1\n  1817: a3 = a3 >> 0x20\n  1820: a2 = reverse a2\n  1822: a1 = a2 << 0x20\n  1825: a1 = a1 | a3\n  1828: a2 = a2 >> 0x20\n  1831: a3 = u64 [sp + 0x30]\n  1834: a3 = a3 << 0x20\n  1837: a3 = a3 >> 0x20\n  1840: u64 [sp + 152] = 0\n  1844: u64 [sp + 184] = 0\n  1848: u64 [sp + 0xb0] = a3\n  1852: a3 = u64 [sp + 0x20]\n  1855: u64 [sp + 0xa8] = a3\n  1859: a3 = u64 [sp + 0x28]\n  1862: u64 [sp + 0xa0] = a3\n  1866: a3 = u64 [0x20000]\n  1871: a4 = u64 [0x20008]\n  1876: a5 = u64 [0x20010]\n  1881: s1 = u64 [0x20018]\n  1886: u64 [sp + 0xd8] = a3\n  1890: u64 [sp + 0xd0] = a4\n  1894: u64 [sp + 0xc8] = a5\n  1898: u64 [sp + 0xc0] = s1\n  1902: u64 [sp + 0x90] = a2\n  1906: u64 [sp + 0x88] = a1\n  1910: a2 = sp + 0xc0\n  1914: a3 = sp + 0xa0\n  1918: a4 = sp + 0x80\n  1922: u64 [sp + 0x80] = a0\n  1926: a0 = 0\n  1928: a1 = 0\n  1930: ra = 30, jump @27\n      : @51 [@dyn 15] (gas: 2)\n  1935: a1 = i32 [0x201a4]\n  1940: jump @53 if a1 >u 127\n      : @52 (gas: 2)\n  1944: u32 [0x201a4] = 0x80\n  1951: fallthrough\n      : @53 (gas: 6)\n  1952: a0 = 0x201b0\n  1957: i32 a0 = a0 + 0x80\n  1961: a1 = 0\n  1963: a2 = 0\n  1965: ecalli 0 // 'call_data_copy'\n  1966: jump @15\n      : @54 (gas: 3)\n  1969: a0 = 0x80\n  1973: a1 = 0\n  1975: ra = 32, jump @32\n      : @55 [@dyn 16] (gas: 5)\n  1980: i32 a1 = a0 + 0\n  1982: a0 = 0\n  1984: a2 = 0\n  1986: ecalli 8 // 'seal_return'\n  1988: fallthrough\n      : @56 (gas: 8)\n  1989: u64 [sp + 112] = 0\n  1992: u64 [sp + 104] = 0\n  1995: u64 [sp + 96] = 0\n  1998: a0 = 0x1e4fbdf700000000\n  2008: a1 = sp + 0x60\n  2011: u64 [sp + 0x78] = a0\n  2014: a0 = 0\n  2016: ra = 34, jump @19\n      : @57 [@dyn 17] (gas: 7)\n  2021: u64 [sp + 88] = 0\n  2024: u64 [sp + 80] = 0\n  2027: u64 [sp + 72] = 0\n  2030: a0 = 0x4\n  2033: a1 = sp + 0x40\n  2036: u64 [sp + 64] = 0\n  2039: ra = 36, jump @19\n      : @58 [@dyn 18] (gas: 2)\n  2044: a1 = i32 [0x201a4]\n  2049: jump @60 if a1 >u 63\n      : @59 (gas: 2)\n  2053: u32 [0x201a4] = 0x40\n  2059: fallthrough\n      : @60 (gas: 7)\n  2060: a1 = 0x201b0\n  2065: i32 a1 = a1 + 0\n  2067: a0 = 0x1\n  2070: a2 = 0x24\n  2073: ra = 0x26\n  2076: ecalli 8 // 'seal_return'\n  2078: fallthrough\n      : @61 [@dyn 19] (gas: 16)\n  2079: sp = sp + 0xfffffffffffffe10\n  2083: u64 [sp + 0x1e8] = ra\n  2087: u64 [sp + 0x1e0] = s0\n  2091: u64 [sp + 0x1d8] = s1\n  2095: s0 = sp + 0x1f0\n  2099: sp = sp + 0xffffffffffffac10\n  2103: sp = sp & 0xffffffffffffffe0\n  2106: s1 = sp\n  2108: a2 = s1 + 0x4158\n  2112: u64 [a2 + 1312] = 0\n  2116: u64 [a2 + 1304] = 0\n  2120: u64 [a2 + 1288] = 0x80\n  2126: a0 = 0x40\n  2129: a1 = s1 + 0x4660\n  2133: u64 [a2 + 1296] = 0\n  2137: ra = 40, jump @19\n      : @62 [@dyn 20] (gas: 4)\n  2142: a0 = 0x201a0\n  2147: u64 [s1 + 0x1d8] = a0\n  2151: a0 = i32 [0x201a0]\n  2156: jump @64 if a0 >=u 4\n      : @63 (gas: 1)\n  2160: jump @1726\n      : @64 (gas: 8)\n  2164: a0 = s1 + 0x4000\n  2168: i32 a0 = a0 + 0x680\n  2172: a1 = 0\n  2174: ra = 0x2a\n  2177: ecalli 1 // 'call_data_load'\n  2179: t0 = 0x2c\n  2182: a3 = s1 + 0x4158\n  2186: jump @66\n      : @65 [@dyn 21] (gas: 3)\n  2188: t0 = 0x2c\n  2191: a3 = s1 + 0x4158\n  2195: fallthrough\n      : @66 [@dyn 22] (gas: 2)\n  2196: a0 = i32 [a3 + 0x544]\n  2200: jump @68 if a0 != 2193828448\n      : @67 (gas: 1)\n  2207: jump @490\n      : @68 (gas: 1)\n  2210: jump @70 if a0 != 2220280665\n      : @69 (gas: 1)\n  2217: jump @218\n      : @70 (gas: 3)\n  2220: a1 = 0xffffffff8da5cb5b\n  2226: a2 = s1 + 0x5158\n  2230: jump @193 if a0 == a1\n      : @71 (gas: 1)\n  2234: jump @73 if a0 != 3279586145\n      : @72 (gas: 1)\n  2241: jump @643\n      : @73 (gas: 1)\n  2244: jump @75 if a0 != 732249522\n      : @74 (gas: 1)\n  2251: jump @238\n      : @75 (gas: 1)\n  2254: jump @77 if a0 != 896943442\n      : @76 (gas: 1)\n  2261: jump @819\n      : @77 (gas: 1)\n  2264: jump @79 if a0 != 1061922874\n      : @78 (gas: 1)\n  2271: jump @386\n      : @79 (gas: 2)\n  2274: a2 = s1 + 0x4958\n  2278: jump @81 if a0 != 1456344684\n      : @80 (gas: 1)\n  2285: jump @549\n      : @81 (gas: 1)\n  2288: jump @83 if a0 != 1507757014\n      : @82 (gas: 1)\n  2295: jump @470\n      : @83 (gas: 1)\n  2298: jump @207 if a0 == 1553423035\n      : @84 (gas: 1)\n  2306: jump @86 if a0 != 1609855252\n      : @85 (gas: 1)\n  2313: jump @356\n      : @86 (gas: 2)\n  2316: a1 = 0x68931b21\n  2322: jump @88 if a0 != a1\n      : @87 (gas: 1)\n  2325: jump @343\n      : @88 (gas: 1)\n  2328: jump @90 if a0 == 2066532988\n      : @89 (gas: 1)\n  2335: jump @406\n      : @90 (gas: 9)\n  2338: u64 [a2 + 928] = 0\n  2342: u64 [a2 + 920] = 0\n  2346: u64 [a2 + 912] = 0\n  2350: u64 [a2 + 904] = 0\n  2354: a0 = s1 + 0x5000\n  2358: i32 a0 = a0 + 0xfffffffffffffce0\n  2362: ra = 0x2e\n  2365: ecalli 11 // 'value_transferred'\n  2367: fallthrough\n      : @91 [@dyn 23] (gas: 3)\n  2368: a3 = s1 + 0x4958\n  2372: a4 = a3 + 0x300\n  2376: t0 = 48, jump @2386\n      : @92 [@dyn 24] (gas: 1)\n  2382: jump @94 if a0 == 0\n      : @93 (gas: 1)\n  2385: jump @1652\n      : @94 (gas: 3)\n  2389: a0 = u64 [s1 + 0x1d8]\n  2393: a0 = i32 [a0]\n  2395: jump @96 if a0 >u 35\n      : @95 (gas: 1)\n  2399: jump @1653\n      : @96 (gas: 6)\n  2403: a0 = s1 + 0x5000\n  2407: i32 a0 = a0 + 0xfffffffffffffd00\n  2411: a1 = 0x4\n  2414: ra = 0x32\n  2417: ecalli 1 // 'call_data_load'\n  2419: fallthrough\n      : @97 [@dyn 25] (gas: 6)\n  2420: a5 = s1 + 0x4958\n  2424: a3 = a5 + 0x300\n  2428: a0 = u64 [a3 + 0xc0]\n  2432: a1 = u64 [a3 + 0xb8]\n  2436: a2 = u64 [a3 + 0xb0]\n  2440: t0 = 52, jump @2297\n      : @98 [@dyn 26] (gas: 1)\n  2446: jump @100 if a4 != 0\n      : @99 (gas: 1)\n  2449: jump @1654\n      : @100 (gas: 26)\n  2453: a3 = u64 [a5 + 0x3a8]\n  2457: a4 = u64 [s1 + 0x1d8]\n  2461: t0 = u32 [a4]\n  2463: a5 = a3 + 0x4\n  2466: a3 = a5 <u a3\n  2469: a4 = a2 + a3\n  2472: a2 = a4 <u a2\n  2475: a2 = a3 if a3 == 0\n  2478: a2 = a2 + a1\n  2481: a1 = a2 <u a1\n  2484: a3 = a0 + a1\n  2487: a0 = s1 + 0x2158\n  2491: u64 [a0 + 832] = 0\n  2495: u64 [a0 + 824] = 0\n  2499: u64 [a0 + 816] = 0\n  2503: u64 [a0 + 0x328] = t0\n  2507: a1 = a0 + 0x300\n  2511: u64 [a1 + 0x48] = a5\n  2514: u64 [a1 + 0x50] = a4\n  2517: u64 [a1 + 0x58] = a2\n  2520: a4 = a0\n  2522: a0 = s1 + 0x24c0\n  2526: a1 = s1 + 0x24a0\n  2530: a2 = s1 + 0x2480\n  2534: u64 [a4 + 0x360] = a3\n  2538: ra = 54, jump @1956\n      : @101 [@dyn 27] (gas: 13)\n  2544: a0 = s1 + 0x2158\n  2548: a2 = a0 + 0x300\n  2552: a1 = u64 [a2 + 0x80]\n  2556: u64 [s1 + 0x1d0] = a1\n  2560: a1 = u64 [a2 + 0x78]\n  2563: u64 [s1 + 0x1c8] = a1\n  2567: a1 = u64 [a2 + 0x70]\n  2570: u64 [s1 + 0x1d8] = a1\n  2574: a0 = u64 [a2 + 0x68]\n  2577: u64 [s1 + 0x1c0] = a0\n  2581: a0 = s1 + 0x2460\n  2585: a1 = 0x40\n  2588: ra = 56, jump @17\n      : @102 [@dyn 28] (gas: 7)\n  2593: a4 = s1 + 0x100\n  2597: a1 = u64 [a4 + 0xc0]\n  2601: a0 = u64 [a4 + 0xd0]\n  2605: a2 = u64 [a4 + 0xd8]\n  2609: a0 = a0 | a2\n  2612: a3 = u64 [a4 + 0xc8]\n  2616: t0 = 58, jump @2290\n      : @103 [@dyn 29] (gas: 1)\n  2622: jump @105 if a0 == 0\n      : @104 (gas: 1)\n  2625: jump @1318\n      : @105 (gas: 7)\n  2629: a3 = s1 + 0x2158\n  2633: a5 = a3 + 0x300\n  2637: a0 = u64 [a5 + 0x8]\n  2640: a2 = u64 [a5 + 0x20]\n  2643: a4 = u64 [a5 + 0x10]\n  2646: a3 = u64 [a5 + 0x18]\n  2649: t0 = 60, jump @2289\n      : @106 [@dyn 30] (gas: 3)\n  2655: i32 a0 = a0 + 0x440\n  2659: a0 = a0 + s1\n  2662: ra = 62, jump @17\n      : @107 [@dyn 31] (gas: 1)\n  2667: t0 = 64, jump @2291\n      : @108 [@dyn 32] (gas: 1)\n  2673: jump @110 if a0 == 0\n      : @109 (gas: 1)\n  2676: jump @1318\n      : @110 (gas: 1)\n  2680: t0 = 66, jump @2360\n      : @111 [@dyn 33] (gas: 6)\n  2686: t0 = u64 [s1 + 0x1c0]\n  2690: a1 = t0 <u a1\n  2693: a2 = u64 [a3 + 0xd8]\n  2697: a1 = 0 if a2 != 0\n  2699: a1 = 0 if a0 != 0\n  2701: jump @113 if a1 != 0\n      : @112 (gas: 1)\n  2704: jump @1318\n      : @113 (gas: 14)\n  2708: a0 = s1 + 0x2158\n  2712: a2 = u64 [a0 + 0x300]\n  2716: a4 = a0 + 0x200\n  2720: a3 = u64 [a4 + 0xf8]\n  2724: a1 = u64 [a4 + 0xe8]\n  2728: a5 = u64 [a4 + 0xf0]\n  2732: a0 = a1 | a3\n  2735: a4 = a5 | a2\n  2738: a0 = a0 | a4\n  2741: a0 = a0 >> 0x20\n  2744: a4 = a4 | a3\n  2747: a4 = a4 << 0x20\n  2750: a0 = a0 | a4\n  2753: jump @115 if a0 == 0\n      : @114 (gas: 1)\n  2756: jump @1318\n      : @115 (gas: 2)\n  2760: i32 a0 = t0 + 0x20\n  2763: t0 = 68, jump @2313\n      : @116 [@dyn 34] (gas: 1)\n  2769: ra = 70, jump @32\n      : @117 [@dyn 35] (gas: 4)\n  2774: u64 [s1 + 0x170] = a0\n  2778: a0 = u64 [s1 + 0x178]\n  2782: a1 = u64 [s1 + 0x1d8]\n  2786: ra = 72, jump @32\n      : @118 [@dyn 36] (gas: 4)\n  2791: a1 = a0\n  2793: a0 = u64 [s1 + 0x170]\n  2797: a2 = u64 [s1 + 0x1d8]\n  2801: ra = 74, jump @0\n      : @119 [@dyn 37] (gas: 1)\n  2806: t0 = 76, jump @2274\n      : @120 [@dyn 38] (gas: 6)\n  2812: t0 = a1 <u a3\n  2815: a5 = u64 [s1 + 0x1d0]\n  2819: a3 = u64 [s1 + 0x1a8]\n  2823: a5 = a5 + a3\n  2826: a3 = a5 + t0\n  2829: t0 = 78, jump @2269\n      : @121 [@dyn 39] (gas: 1)\n  2835: jump @123 if a1 == 0\n      : @122 (gas: 1)\n  2838: jump @1318\n      : @123 (gas: 7)\n  2842: a2 = s1 + 0x2158\n  2846: u64 [a2 + 736] = 0\n  2850: u64 [a2 + 728] = 0\n  2854: u64 [a2 + 720] = 0\n  2858: a1 = s1 + 0x2420\n  2862: u64 [a2 + 712] = 0\n  2866: ra = 80, jump @19\n      : @124 [@dyn 40] (gas: 1)\n  2871: t0 = 82, jump @2292\n      : @125 [@dyn 41] (gas: 1)\n  2877: jump @127 if a1 == 0\n      : @126 (gas: 1)\n  2880: jump @1318\n      : @127 (gas: 10)\n  2884: ra = u64 [s1 + 0x1d8]\n  2888: a1 = ra + 0x20\n  2891: u64 [s1 + 0x1a8] = a1\n  2895: t0 = a1 <u ra\n  2898: a3 = u64 [s1 + 0x1c0]\n  2902: a1 = a3 + t0\n  2905: u64 [s1 + 0x1a0] = a1\n  2909: a1 = a1 <u a3\n  2912: a1 = t0 if t0 == 0\n  2915: t0 = 84, jump @2379\n      : @128 [@dyn 42] (gas: 10)\n  2921: t0 = u64 [s1 + 0x1d0]\n  2925: a1 = a1 + t0\n  2928: u64 [s1 + 0x1b0] = a1\n  2932: a4 = s1 + 0x2158\n  2936: u64 [a4 + 0x2a8] = ra\n  2940: u64 [a4 + 0x2b0] = a3\n  2944: u64 [a4 + 0x2b8] = a2\n  2948: a1 = s1 + 0x2400\n  2952: u64 [a4 + 0x2c0] = t0\n  2956: ra = 86, jump @19\n      : @129 [@dyn 43] (gas: 22)\n  2961: a0 = s1 + 0x2158\n  2965: a1 = u64 [s1 + 0x178]\n  2969: a2 = a0 + 0x200\n  2973: u64 [a2 + 0x78] = a1\n  2976: a1 = u64 [s1 + 0x1a0]\n  2980: u64 [a2 + 0x70] = a1\n  2983: a1 = u64 [s1 + 0x1a8]\n  2987: u64 [a2 + 0x68] = a1\n  2990: a1 = u64 [s1 + 0x188]\n  2994: u64 [a2 + 0xa0] = a1\n  2998: a1 = u64 [s1 + 0x180]\n  3002: u64 [a2 + 0x98] = a1\n  3006: a1 = u64 [s1 + 0x190]\n  3010: u64 [a2 + 0x90] = a1\n  3014: a1 = u64 [s1 + 0x198]\n  3018: u64 [a2 + 0x88] = a1\n  3022: a3 = a0\n  3024: a0 = s1 + 0x23e0\n  3028: a1 = s1 + 0x23c0\n  3032: a2 = u64 [s1 + 0x1b0]\n  3036: u64 [a3 + 0x280] = a2\n  3040: ra = 88, jump @1946\n      : @130 [@dyn 44] (gas: 3)\n  3046: a0 = s1 + 0x23a0\n  3050: a1 = u64 [s1 + 0x198]\n  3054: ra = 90, jump @17\n      : @131 [@dyn 45] (gas: 8)\n  3059: a1 = s1 + 0x2158\n  3063: a4 = a1 + 0x200\n  3067: a0 = u64 [a4 + 0x60]\n  3070: a3 = u64 [a4 + 0x58]\n  3073: a2 = u64 [a4 + 0x50]\n  3076: a1 = u64 [a4 + 0x48]\n  3079: a0 = a0 | a2\n  3082: t0 = 92, jump @2290\n      : @132 [@dyn 46] (gas: 1)\n  3088: jump @134 if a0 == 0\n      : @133 (gas: 1)\n  3091: jump @1318\n      : @134 (gas: 3)\n  3095: a0 = u64 [s1 + 0x1b8]\n  3099: u64 [s1 + 0x1d8] = a1\n  3103: ra = 94, jump @32\n      : @135 [@dyn 47] (gas: 1)\n  3108: t0 = 96, jump @2288\n      : @136 [@dyn 48] (gas: 3)\n  3114: ra = 0x62\n  3117: ecalli 6 // 'hash_keccak_256'\n  3119: fallthrough\n      : @137 [@dyn 49] (gas: 3)\n  3120: a5 = s1 + 0x100\n  3124: a3 = u64 [a5 + 0xd0]\n  3128: t0 = 100, jump @2298\n      : @138 [@dyn 50] (gas: 13)\n  3134: u64 [a5 + 0xb0] = a3\n  3138: a4 = s1 + 0x2158\n  3142: u64 [a4 + 0x240] = a3\n  3146: u64 [a5 + 0xb8] = a2\n  3150: a3 = a4 + 0x200\n  3154: u64 [a3 + 0x38] = a2\n  3157: u64 [a5 + 0xc0] = a1\n  3161: u64 [a3 + 0x30] = a1\n  3164: a1 = s1 + 0x2380\n  3168: u64 [a5 + 0xc8] = a0\n  3172: u64 [a3 + 0x28] = a0\n  3175: a0 = 0\n  3177: ra = 102, jump @19\n      : @139 [@dyn 51] (gas: 3)\n  3182: t0 = 0x68\n  3185: a1 = s1 + 0x2158\n  3189: fallthrough\n      : @140 [@dyn 52] (gas: 8)\n  3190: u64 [a1 + 544] = 0\n  3194: u64 [a1 + 536] = 0\n  3198: u64 [a1 + 520] = 0x1\n  3203: a2 = a1\n  3205: a0 = 0x20\n  3208: a1 = s1 + 0x2360\n  3212: u64 [a2 + 528] = 0\n  3216: ra = 106, jump @19\n      : @141 [@dyn 53] (gas: 3)\n  3221: a1 = 0x201a4\n  3226: a0 = i32 [0x201a4]\n  3231: jump @143 if a0 >u 63\n      : @142 (gas: 2)\n  3235: u32 [0x201a4] = 0x40\n  3241: fallthrough\n      : @143 (gas: 15)\n  3242: a0 = sp + 0xffffffffffffffe0\n  3245: a2 = a0 & 0xffffffffffffffe0\n  3248: u64 [s1 + 0x1a8] = a2\n  3252: sp = a2\n  3254: a0 = 0x201b0\n  3259: i32 a0 = a0 + 0\n  3261: u64 [s1 + 0x1d0] = a1\n  3265: i32 a2 = a2 + 0\n  3267: a1 = 0x40\n  3270: u64 [s1 + 0x1d8] = a0\n  3274: ra = 0x6c\n  3277: ecalli 6 // 'hash_keccak_256'\n  3279: a3 = u64 [s1 + 0x1a8]\n  3283: t0 = 0x6e\n  3286: jump @2266\n      : @144 [@dyn 54] (gas: 2)\n  3290: a3 = u64 [s1 + 0x1a8]\n  3294: t0 = 110, jump @2266\n      : @145 [@dyn 55] (gas: 8)\n  3300: a3 = a1 + 0x300\n  3304: u64 [a3 + 0xc8] = a4\n  3308: u64 [a3 + 0xd0] = a5\n  3312: u64 [a3 + 0xd8] = a2\n  3316: u64 [a3 + 0xe0] = a0\n  3320: a0 = s1 + 0x2340\n  3324: a1 = s1 + 0x4d20\n  3328: ra = 112, jump @21\n      : @146 [@dyn 56] (gas: 10)\n  3333: a1 = s1 + 0x2158\n  3337: a0 = u8 [a1 + 0x1e8]\n  3341: u64 [a1 + 480] = 0\n  3345: u64 [a1 + 472] = 0\n  3349: u64 [a1 + 0x1c8] = a0\n  3353: a0 = s1 + 0x2320\n  3357: u64 [a1 + 464] = 0\n  3361: ra = 0x72\n  3364: t0 = 0x91c\n  3368: jump @2351\n      : @147 [@dyn 57] (gas: 13)\n  3372: a0 = u64 [s1 + 0x1b0]\n  3376: a2 = s1 + 0x2158\n  3380: a3 = a2 + 0x100\n  3384: u64 [a3 + 0xc0] = a0\n  3388: a0 = u64 [s1 + 0x1b8]\n  3392: u64 [a3 + 0xb8] = a0\n  3396: a0 = u64 [s1 + 0x1c0]\n  3400: u64 [a3 + 0xb0] = a0\n  3404: a1 = s1 + 0x2300\n  3408: a0 = u64 [s1 + 0x1c8]\n  3412: u64 [a3 + 0xa8] = a0\n  3416: a0 = 0\n  3418: ra = 116, jump @19\n      : @148 [@dyn 58] (gas: 3)\n  3423: t0 = 0x76\n  3426: a1 = s1 + 0x2158\n  3430: fallthrough\n      : @149 [@dyn 59] (gas: 8)\n  3431: u64 [a1 + 416] = 0\n  3435: u64 [a1 + 408] = 0\n  3439: u64 [a1 + 392] = 0x2\n  3444: a2 = a1\n  3446: a0 = 0x20\n  3449: a1 = s1 + 0x22e0\n  3453: u64 [a2 + 400] = 0\n  3457: ra = 120, jump @19\n      : @150 [@dyn 60] (gas: 7)\n  3462: a1 = u64 [s1 + 0x1d0]\n  3466: a0 = sp + 0xffffffffffffffe0\n  3469: a0 = a0 & 0xffffffffffffffe0\n  3472: u64 [s1 + 0x1c8] = a0\n  3476: sp = a0\n  3478: a0 = i32 [a1]\n  3480: jump @152 if a0 >u 63\n      : @151 (gas: 2)\n  3484: u32 [a1 + 0] = 0x40\n  3487: fallthrough\n      : @152 (gas: 12)\n  3488: a0 = sp + 0xffffffffffffffe0\n  3491: a0 = a0 & 0xffffffffffffffe0\n  3494: u64 [s1 + 0x1c0] = a0\n  3498: sp = a0\n  3500: i32 a2 = a0 + 0\n  3502: a1 = 0x40\n  3505: a0 = u64 [s1 + 0x1d8]\n  3509: ra = 0x7a\n  3512: ecalli 6 // 'hash_keccak_256'\n  3514: a3 = u64 [s1 + 0x1c0]\n  3518: t0 = 0x7c\n  3521: jump @2368\n      : @153 [@dyn 61] (gas: 2)\n  3525: a3 = u64 [s1 + 0x1c0]\n  3529: t0 = 124, jump @2368\n      : @154 [@dyn 62] (gas: 11)\n  3535: u64 [s1 + 0x198] = a3\n  3539: a1 = u64 [s1 + 0x1c8]\n  3543: u64 [a1 + 0x18] = a3\n  3546: u64 [s1 + 0x1a0] = a2\n  3550: u64 [a1 + 0x10] = a2\n  3553: u64 [s1 + 0x1a8] = a4\n  3557: u64 [a1 + 0x8] = a4\n  3560: u64 [s1 + 0x1b0] = a0\n  3564: u64 [a1] = a0\n  3566: a0 = s1 + 0x22c0\n  3570: ra = 126, jump @21\n      : @155 [@dyn 63] (gas: 15)\n  3575: a3 = s1 + 0x2158\n  3579: a0 = a3 + 0x100\n  3583: a2 = u64 [a0 + 0x80]\n  3587: a4 = u64 [a0 + 0x78]\n  3590: a5 = u64 [a0 + 0x70]\n  3593: a0 = a2 >u 0\n  3595: a1 = a4 >u 0\n  3597: a1 = a0 if a2 != 0\n  3600: u64 [s1 + 0x128] = a2\n  3604: u64 [s1 + 0x120] = a4\n  3608: a0 = a4 | a2\n  3611: u64 [s1 + 0x118] = a5\n  3615: a2 = a5 >u 0\n  3617: a2 = a1 if a0 != 0\n  3620: jump @157 if a2 == 0\n      : @156 (gas: 1)\n  3623: jump @1854\n      : @157 (gas: 5)\n  3627: a0 = u64 [a3 + 0x168]\n  3631: u64 [s1 + 0x110] = a0\n  3635: a0 = s1 + 0x22a0\n  3639: a1 = 0x40\n  3642: ra = 128, jump @17\n      : @158 [@dyn 64] (gas: 45)\n  3648: ra = s1 + 0x2158\n  3652: t1 = u64 [ra + 0x160]\n  3656: u64 [s1 + 0x1c8] = t1\n  3660: t0 = u64 [ra + 0x158]\n  3664: u64 [s1 + 0x1c0] = t0\n  3668: t2 = u64 [ra + 0x150]\n  3672: u64 [s1 + 0x1b8] = t2\n  3676: a2 = u64 [s1 + 0x120]\n  3680: a0 = a2 >> 0x3b\n  3683: a1 = u64 [s1 + 0x128]\n  3687: a1 = a1 << 0x5\n  3690: a0 = a0 | a1\n  3693: a3 = u64 [s1 + 0x118]\n  3697: a1 = a3 >> 0x3b\n  3700: a2 = a2 << 0x5\n  3703: a1 = a1 | a2\n  3706: a4 = u64 [s1 + 0x110]\n  3710: a2 = a4 >> 0x3b\n  3713: a3 = a3 << 0x5\n  3716: a2 = a2 | a3\n  3719: a3 = a4 << 0x5\n  3722: a4 = a3 + 0x20\n  3725: a3 = a4 <u a3\n  3728: a5 = a2 + a3\n  3731: a2 = a5 <u a2\n  3734: a2 = a3 if a3 == 0\n  3737: a3 = u64 [ra + 0x148]\n  3741: u64 [s1 + 0xe0] = a3\n  3745: a2 = a2 + a1\n  3748: a1 = a2 <u a1\n  3751: ra = a0 + a1\n  3754: a0 = s1 + 0x2158\n  3758: a1 = a0 + 0x100\n  3762: u64 [a1 + 0x8] = a4\n  3765: u64 [a0 + 0x140] = t1\n  3769: u64 [a0 + 0x138] = t0\n  3773: u64 [a0 + 0x130] = t2\n  3777: u64 [a1 + 0x28] = a3\n  3780: u64 [a1 + 0x10] = a5\n  3783: u64 [a1 + 0x18] = a2\n  3786: a2 = a0\n  3788: a0 = s1 + 0x2280\n  3792: a1 = s1 + 0x2260\n  3796: u64 [a2 + 0x120] = ra\n  3800: ra = 130, jump @1946\n      : @159 [@dyn 65] (gas: 7)\n  3807: a0 = u64 [s1 + 0xe0]\n  3811: a4 = s1 + 0x100\n  3815: a1 = u64 [a4 + 0xc8]\n  3819: a2 = u64 [a4 + 0xb8]\n  3823: a2 = a2 | a1\n  3826: a3 = u64 [a4 + 0xc0]\n  3830: t0 = 132, jump @2394\n      : @160 [@dyn 66] (gas: 1)\n  3837: jump @162 if a1 == 0\n      : @161 (gas: 1)\n  3840: jump @1318\n      : @162 (gas: 11)\n  3844: a3 = s1 + 0x2158\n  3848: a1 = u64 [s1 + 0x110]\n  3852: u64 [a3 + 0xe8] = a1\n  3856: a1 = u64 [s1 + 0x118]\n  3860: u64 [a3 + 0xf0] = a1\n  3864: a1 = u64 [s1 + 0x120]\n  3868: u64 [a3 + 0xf8] = a1\n  3872: a1 = s1 + 0x2240\n  3876: a2 = u64 [s1 + 0x128]\n  3880: u64 [a3 + 0x100] = a2\n  3884: ra = 134, jump @19\n      : @163 [@dyn 67] (gas: 27)\n  3890: a1 = u64 [s1 + 0xe0]\n  3894: a0 = a1 + 0x20\n  3897: u64 [s1 + 0x100] = a0\n  3901: a0 = a0 <u a1\n  3904: a2 = u64 [s1 + 0x1b8]\n  3908: a1 = a2 + a0\n  3911: u64 [s1 + 0xf8] = a1\n  3915: a1 = a1 <u a2\n  3918: a1 = a0 if a0 == 0\n  3921: a0 = u64 [s1 + 0x1c0]\n  3925: a1 = a1 + a0\n  3928: u64 [s1 + 0xf0] = a1\n  3932: a0 = a1 <u a0\n  3935: u64 [s1 + 0x1c0] = a0\n  3939: a0 = u64 [s1 + 0x198]\n  3943: a1 = s1 + 0x2158\n  3947: u64 [a1 + 0xe0] = a0\n  3951: a0 = u64 [s1 + 0x1a0]\n  3955: u64 [a1 + 0xd8] = a0\n  3959: a0 = u64 [s1 + 0x1a8]\n  3963: u64 [a1 + 0xd0] = a0\n  3967: a2 = a1\n  3969: a1 = s1 + 0x2220\n  3973: a0 = u64 [s1 + 0x1b0]\n  3977: u64 [a2 + 0xc8] = a0\n  3981: a0 = 0\n  3983: ra = 136, jump @19\n      : @164 [@dyn 68] (gas: 7)\n  3989: a0 = sp + 0xffffffffffffffe0\n  3992: a0 = a0 & 0xffffffffffffffe0\n  3995: u64 [s1 + 0x168] = a0\n  3999: sp = a0\n  4001: a2 = u64 [s1 + 0x1d0]\n  4005: a0 = i32 [a2]\n  4007: jump @166 if a0 >u 31\n      : @165 (gas: 2)\n  4011: u32 [a2 + 0] = 0x20\n  4014: fallthrough\n      : @166 (gas: 50)\n  4015: a0 = u64 [s1 + 0x1c8]\n  4019: a1 = u64 [s1 + 0x1c0]\n  4023: a0 = a0 + a1\n  4026: u64 [s1 + 0xe8] = a0\n  4030: a0 = 0xffffffff\n  4040: u64 [s1 + 0x170] = a0\n  4044: a0 = sp + 0xffffffffffffffe0\n  4047: a0 = a0 & 0xffffffffffffffe0\n  4050: u64 [s1 + 0x1d0] = a0\n  4054: sp = a0\n  4056: i32 a2 = a0 + 0\n  4058: a1 = 0x20\n  4061: a0 = u64 [s1 + 0x1d8]\n  4065: ecalli 6 // 'hash_keccak_256'\n  4067: a2 = 0\n  4069: a3 = 0\n  4071: a5 = 0\n  4073: t0 = 0\n  4075: a0 = u64 [s1 + 0x1d0]\n  4079: t2 = u64 [a0 + 0x18]\n  4082: a1 = u64 [a0 + 0x10]\n  4085: a4 = u64 [a0 + 0x8]\n  4088: t1 = u64 [a0]\n  4090: t2 = reverse t2\n  4092: ra = reverse a1\n  4094: a4 = reverse a4\n  4096: a1 = reverse t1\n  4098: a0 = u64 [s1 + 0x168]\n  4102: u64 [s1 + 0x1c0] = a1\n  4106: u64 [a0 + 0x18] = a1\n  4109: a1 = s1 + 0x100\n  4113: u64 [a1 + 0xd0] = a4\n  4117: u64 [a0 + 0x10] = a4\n  4120: u64 [s1 + 0x1b0] = ra\n  4124: u64 [a0 + 0x8] = ra\n  4127: u64 [s1 + 0x1b8] = t2\n  4131: u64 [a0] = t2\n  4133: a0 = 0x100000000\n  4143: u64 [a1 + 0x50] = a0\n  4146: a0 = 0xffffffe0\n  4156: u64 [a1 + 0x8] = a0\n  4159: a0 = u64 [a1]\n  4161: u64 [a1 + 0x98] = a0\n  4165: a0 = u64 [s1 + 0xf8]\n  4169: u64 [a1 + 0x78] = a0\n  4172: a0 = u64 [s1 + 0xf0]\n  4176: u64 [a1 + 0xa0] = a0\n  4180: a0 = u64 [s1 + 0xe8]\n  4184: u64 [a1 + 0x80] = a0\n  4188: fallthrough\n      : @167 (gas: 23)\n  4189: a0 = u64 [s1 + 0x110]\n  4193: u64 [s1 + 0x148] = a2\n  4197: a0 = a2 <u a0\n  4200: a2 = u64 [s1 + 0x118]\n  4204: a1 = a3 ^ a2\n  4207: u64 [s1 + 0x140] = a3\n  4211: a2 = a3 <u a2\n  4214: a2 = a0 if a1 == 0\n  4217: a4 = u64 [s1 + 0x120]\n  4221: a0 = a5 <u a4\n  4224: a3 = u64 [s1 + 0x128]\n  4228: a1 = t0 ^ a3\n  4231: u64 [s1 + 0x138] = t0\n  4235: a3 = t0 <u a3\n  4238: a3 = a0 if a1 == 0\n  4241: u64 [s1 + 0x130] = a5\n  4245: a0 = a5 ^ a4\n  4248: a0 = a0 | a1\n  4251: a3 = a2 if a0 == 0\n  4254: u64 [s1 + 0x158] = a3\n  4258: a0 = s1 + 0x2200\n  4262: a1 = 0x40\n  4265: ra = 138, jump @17\n      : @168 [@dyn 69] (gas: 16)\n  4271: a0 = s1 + 0x2158\n  4275: a2 = u64 [a0 + 0xc0]\n  4279: a3 = u64 [a0 + 0xb8]\n  4283: a1 = u64 [a0 + 0xa8]\n  4287: a4 = u64 [a0 + 0xb0]\n  4291: a0 = a1 | a3\n  4294: a5 = s1 + 0x100\n  4298: u64 [a5 + 0x60] = a0\n  4301: a0 = a4 | a2\n  4304: u64 [a5 + 0x88] = a0\n  4308: u64 [a5 + 0xd8] = a1\n  4312: a0 = u64 [a5 + 0x58]\n  4315: u64 [a5 + 0x90] = a2\n  4319: u64 [a5 + 0xa8] = a3\n  4323: u64 [a5 + 0xc8] = a4\n  4327: jump @170 if a0 != 0\n      : @169 (gas: 1)\n  4330: jump @1267\n      : @170 (gas: 10)\n  4333: a5 = s1 + 0x1958\n  4337: u64 [a5 + 0x688] = a1\n  4341: a1 = a5 + 0x600\n  4345: u64 [a1 + 0x90] = a4\n  4349: u64 [a1 + 0x98] = a3\n  4353: a0 = s1 + 0x1fe0\n  4357: u64 [a1 + 0xa0] = a2\n  4361: ra = 0x8c\n  4365: t0 = 0x8b0\n  4369: jump @2330\n      : @171 [@dyn 70] (gas: 3)\n  4373: a0 = s1 + 0x1fc0\n  4377: a1 = u64 [s1 + 0x168]\n  4381: ra = 142, jump @21\n      : @172 [@dyn 71] (gas: 10)\n  4387: a3 = s1 + 0x100\n  4391: a1 = u64 [a3 + 0x88]\n  4395: a0 = u64 [a3 + 0x60]\n  4398: a0 = a0 | a1\n  4401: a0 = a0 >> 0x20\n  4404: a2 = u64 [a3 + 0xa8]\n  4408: a1 = a1 | a2\n  4411: a1 = a1 << 0x20\n  4414: a0 = a0 | a1\n  4417: jump @174 if a0 == 0\n      : @173 (gas: 1)\n  4420: jump @1318\n      : @174 (gas: 17)\n  4424: a3 = s1 + 0x1958\n  4428: a5 = a3 + 0x600\n  4432: a0 = u64 [a5 + 0x78]\n  4435: a1 = u64 [a5 + 0x70]\n  4438: a2 = u64 [a5 + 0x68]\n  4441: a4 = u64 [s1 + 0x170]\n  4445: a0 = a0 & a4\n  4448: a4 = 0xffffffffffffffff\n  4451: a1 = a1 & a4\n  4454: a2 = a2 & a4\n  4457: u64 [a3 + 1632] = 0\n  4461: u64 [a5 + 0x48] = a2\n  4464: u64 [a5 + 0x50] = a1\n  4467: a1 = s1 + 0x1fa0\n  4471: u64 [a5 + 0x58] = a0\n  4474: a0 = u64 [s1 + 0x1d8]\n  4478: ra = 144, jump @19\n      : @175 [@dyn 72] (gas: 22)\n  4484: a0 = u64 [s1 + 0x1b8]\n  4488: a0 = a0 + 0x1\n  4491: a1 = a0 <u 0x1\n  4494: a2 = u64 [s1 + 0x1b0]\n  4498: a1 = a1 + a2\n  4501: a2 = a0 | a1\n  4504: a2 = a2 <u 0x1\n  4507: a3 = u64 [s1 + 0x1d0]\n  4511: a2 = a2 + a3\n  4514: u64 [s1 + 0x1d0] = a3\n  4518: a3 = a2 <u a3\n  4521: a4 = u64 [s1 + 0x1c0]\n  4525: a3 = a3 + a4\n  4528: a4 = s1 + 0x4958\n  4532: a5 = a4 + 0x300\n  4536: u64 [a5 + 0xf0] = a1\n  4540: u64 [a5 + 0xe8] = a0\n  4544: u64 [a5 + 0xf8] = a2\n  4548: u64 [a4 + 0x400] = a3\n  4552: a0 = s1 + 0x1f80\n  4556: a1 = s1 + 0x4d40\n  4560: ra = 146, jump @21\n      : @176 [@dyn 73] (gas: 12)\n  4566: a3 = s1 + 0x100\n  4570: a0 = u64 [a3 + 0x90]\n  4574: a2 = u64 [a3 + 0xa8]\n  4578: a2 = a2 | a0\n  4581: a0 = u64 [a3 + 0x8]\n  4584: a4 = u64 [a3 + 0xd8]\n  4588: a0 = a4 <u a0\n  4591: a1 = u64 [a3 + 0xc8]\n  4595: a0 = 0 if a1 != 0\n  4597: u64 [a3 + 0x88] = a2\n  4601: a0 = 0 if a2 != 0\n  4603: jump @178 if a0 != 0\n      : @177 (gas: 1)\n  4606: jump @1318\n      : @178 (gas: 16)\n  4610: a5 = s1 + 0x1958\n  4614: a0 = u64 [a5 + 0x638]\n  4618: a1 = u64 [a5 + 0x630]\n  4622: a2 = u64 [a5 + 0x628]\n  4626: a3 = u64 [s1 + 0x170]\n  4630: a3 = a3 & a0\n  4633: a1 = a1 & 0xffffffffffffffff\n  4636: a2 = a2 & 0xffffffffffffffff\n  4639: i32 a0 = a4 + 0x20\n  4642: u64 [a5 + 1568] = 0\n  4646: a4 = a5 + 0x600\n  4650: u64 [a4 + 0x8] = a2\n  4653: u64 [a4 + 0x10] = a1\n  4656: a1 = s1 + 0x1f60\n  4660: u64 [a4 + 0x18] = a3\n  4663: ra = 148, jump @19\n      : @179 [@dyn 74] (gas: 3)\n  4669: a1 = u64 [s1 + 0x1b8]\n  4673: a0 = a1 + 0x2\n  4676: t0 = 150, jump @2329\n      : @180 [@dyn 75] (gas: 10)\n  4683: a1 = a1 + a4\n  4686: a4 = s1 + 0x4958\n  4690: a5 = a4 + 0x400\n  4694: u64 [a5 + 0x10] = a2\n  4697: u64 [a5 + 0x8] = a0\n  4700: u64 [a5 + 0x18] = a3\n  4703: u64 [a5 + 0x20] = a1\n  4706: a0 = s1 + 0x1f40\n  4710: a1 = s1 + 0x4d60\n  4714: ra = 152, jump @21\n      : @181 [@dyn 76] (gas: 10)\n  4720: a2 = s1 + 0x100\n  4724: a5 = u64 [a2 + 0xd8]\n  4728: a0 = u64 [a2 + 0x50]\n  4731: a0 = a0 + 0xffffffffffffffc0\n  4734: a0 = a5 <u a0\n  4737: a1 = u64 [a2 + 0xc8]\n  4741: a0 = 0 if a1 != 0\n  4743: a1 = u64 [a2 + 0x88]\n  4747: a0 = 0 if a1 != 0\n  4749: jump @183 if a0 != 0\n      : @182 (gas: 1)\n  4752: jump @1318\n      : @183 (gas: 13)\n  4756: a2 = s1 + 0x1958\n  4760: t0 = u64 [a2 + 0x600]\n  4764: a1 = u64 [a2 + 0x5f8]\n  4768: a3 = u64 [a2 + 0x5f0]\n  4772: a4 = u64 [a2 + 0x5e8]\n  4776: i32 a0 = a5 + 0x40\n  4779: a5 = a2 + 0x500\n  4783: u64 [a5 + 0xc8] = a4\n  4787: u64 [a5 + 0xd0] = a3\n  4791: u64 [a5 + 0xd8] = a1\n  4795: a1 = s1 + 0x1f20\n  4799: u64 [a2 + 0x5e0] = t0\n  4803: ra = 154, jump @19\n      : @184 [@dyn 77] (gas: 3)\n  4809: a1 = u64 [s1 + 0x1b8]\n  4813: a0 = a1 + 0x3\n  4816: t0 = 156, jump @2329\n      : @185 [@dyn 78] (gas: 11)\n  4823: a4 = a4 + a1\n  4826: a1 = s1 + 0x1958\n  4830: a5 = a1 + 0x500\n  4834: u64 [a5 + 0x98] = a3\n  4838: u64 [a5 + 0x90] = a2\n  4842: u64 [a5 + 0x88] = a0\n  4846: a2 = a1\n  4848: a0 = s1 + 0x1f00\n  4852: a1 = s1 + 0x1ee0\n  4856: u64 [a2 + 0x5a0] = a4\n  4860: ra = 158, jump @2018\n      : @186 [@dyn 79] (gas: 10)\n  4867: a2 = s1 + 0x100\n  4871: a5 = u64 [a2 + 0xd8]\n  4875: a0 = u64 [a2 + 0x50]\n  4878: a0 = a0 + 0xffffffffffffffa0\n  4881: a0 = a5 <u a0\n  4884: a1 = u64 [a2 + 0xc8]\n  4888: a0 = 0 if a1 != 0\n  4890: a1 = u64 [a2 + 0x88]\n  4894: a0 = 0 if a1 != 0\n  4896: jump @188 if a0 != 0\n      : @187 (gas: 1)\n  4899: jump @1318\n      : @188 (gas: 13)\n  4903: a2 = s1 + 0x1958\n  4907: t0 = u64 [a2 + 0x5c0]\n  4911: a1 = u64 [a2 + 0x5b8]\n  4915: a3 = u64 [a2 + 0x5b0]\n  4919: a4 = u64 [a2 + 0x5a8]\n  4923: i32 a0 = a5 + 0x60\n  4926: a5 = a2 + 0x500\n  4930: u64 [a5 + 0x68] = a4\n  4933: u64 [a5 + 0x70] = a3\n  4936: u64 [a5 + 0x78] = a1\n  4939: a1 = s1 + 0x1ec0\n  4943: u64 [a2 + 0x580] = t0\n  4947: ra = 160, jump @19\n      : @189 [@dyn 80] (gas: 14)\n  4953: a5 = s1 + 0x100\n  4957: a3 = u64 [a5 + 0xa0]\n  4961: a2 = u64 [a5 + 0x98]\n  4965: a0 = a2 | a3\n  4968: a1 = u64 [a5 + 0x80]\n  4972: a4 = u64 [a5 + 0x78]\n  4975: a1 = a1 | a4\n  4978: a0 = a0 | a1\n  4981: a0 = a0 >> 0x20\n  4984: u64 [a5 + 0xa0] = a3\n  4988: a1 = a1 | a3\n  4991: a1 = a1 << 0x20\n  4994: a0 = a0 | a1\n  4997: jump @191 if a0 == 0\n      : @190 (gas: 1)\n  5000: jump @1318\n      : @191 (gas: 14)\n  5004: a3 = s1 + 0x1958\n  5008: a0 = u64 [s1 + 0x1d8]\n  5012: a4 = a3 + 0x500\n  5016: u64 [a4 + 0x48] = a0\n  5019: a0 = u64 [s1 + 0x1c8]\n  5023: u64 [a4 + 0x50] = a0\n  5026: a0 = u64 [s1 + 0x1a8]\n  5030: u64 [a4 + 0x58] = a0\n  5033: a1 = s1 + 0x1ea0\n  5037: a0 = u64 [s1 + 0x190]\n  5041: u64 [a4 + 0x60] = a0\n  5044: a0 = a2\n  5046: u64 [s1 + 0x198] = a2\n  5050: ra = 162, jump @19\n      : @192 [@dyn 81] (gas: 56)\n  5056: a1 = u64 [s1 + 0x198]\n  5060: a0 = a1 + 0x20\n  5063: u64 [s1 + 0x1d8] = a0\n  5067: a2 = a0 <u a1\n  5070: a1 = u64 [s1 + 0x178]\n  5074: a0 = a1 + a2\n  5077: u64 [s1 + 0x1c8] = a0\n  5081: a3 = a0 <u a1\n  5084: a3 = a2 if a2 == 0\n  5087: a0 = u64 [s1 + 0x1a0]\n  5091: t2 = a0 + a3\n  5094: a3 = t2 <u a0\n  5097: a0 = u64 [s1 + 0x180]\n  5101: a0 = a0 + a3\n  5104: u64 [s1 + 0x180] = a0\n  5108: a0 = u64 [s1 + 0x1b8]\n  5112: ra = a0 + 0x4\n  5115: a4 = ra <u a0\n  5118: a0 = u64 [s1 + 0x1b0]\n  5122: t1 = a0 + a4\n  5125: a5 = t1 <u a0\n  5128: a5 = a4 if a4 == 0\n  5131: a0 = u64 [s1 + 0x1d0]\n  5135: a5 = a5 + a0\n  5138: a4 = a5 <u a0\n  5141: a0 = u64 [s1 + 0x1c0]\n  5145: a0 = a0 + a4\n  5148: a2 = u64 [s1 + 0x148]\n  5152: a2 = a2 + 0x1\n  5155: a4 = a2 <u 0x1\n  5158: a3 = u64 [s1 + 0x140]\n  5162: a3 = a3 + a4\n  5165: a4 = a2 | a3\n  5168: a4 = a4 <u 0x1\n  5171: a1 = u64 [s1 + 0x130]\n  5175: a4 = a4 + a1\n  5178: a1 = a4 <u a1\n  5181: t0 = u64 [s1 + 0x138]\n  5185: t0 = t0 + a1\n  5188: a1 = u64 [s1 + 0x168]\n  5192: u64 [a1 + 0x8] = t1\n  5195: u64 [a1] = ra\n  5197: u64 [a1 + 0x10] = a5\n  5200: u64 [s1 + 0x1c0] = a0\n  5204: u64 [a1 + 0x18] = a0\n  5207: a1 = s1 + 0x100\n  5211: a0 = u64 [a1 + 0xd8]\n  5215: u64 [a1 + 0x98] = a0\n  5219: a0 = u64 [a1 + 0xc8]\n  5223: u64 [a1 + 0x78] = a0\n  5226: u64 [s1 + 0x1a0] = t2\n  5230: u64 [s1 + 0x1b8] = ra\n  5234: u64 [s1 + 0x1b0] = t1\n  5238: u64 [a1 + 0xd0] = a5\n  5242: a5 = a4\n  5244: jump @167\n      : @193 (gas: 1)\n  5247: t0 = 164, jump @2381\n      : @194 [@dyn 82] (gas: 6)\n  5254: i32 a0 = a0 + 0x420\n  5258: ra = 0xa6\n  5262: ecalli 11 // 'value_transferred'\n  5264: a0 = 0x5158\n  5268: t0 = 0xa8\n  5272: jump @2371\n      : @195 [@dyn 83] (gas: 2)\n  5276: a0 = 0x5158\n  5280: t0 = 168, jump @2371\n      : @196 [@dyn 84] (gas: 1)\n  5287: jump @198 if a0 == 0\n      : @197 (gas: 1)\n  5290: jump @1655\n      : @198 (gas: 3)\n  5294: a0 = u64 [s1 + 0x1d8]\n  5298: a0 = i32 [a0]\n  5300: jump @200 if a0 >u 3\n      : @199 (gas: 1)\n  5304: jump @1656\n      : @200 (gas: 7)\n  5308: u64 [a4 + 768] = 0\n  5312: u64 [a4 + 760] = 0\n  5316: u64 [a4 + 752] = 0\n  5320: u64 [a4 + 744] = 0\n  5324: a0 = s1 + 0x3c60\n  5328: a1 = s1 + 0x5440\n  5332: ra = 170, jump @21\n      : @201 [@dyn 85] (gas: 3)\n  5338: t0 = 0xac\n  5342: a1 = s1 + 0x3958\n  5346: fallthrough\n      : @202 [@dyn 86] (gas: 11)\n  5347: a2 = a1 + 0x300\n  5351: a0 = u64 [a2 + 0x18]\n  5354: a1 = s1 + 0x100\n  5358: u64 [a1 + 0xc8] = a0\n  5362: a0 = u64 [a2 + 0x10]\n  5365: u64 [a1 + 0xd8] = a0\n  5369: a0 = u64 [a2 + 0x8]\n  5372: u64 [a1 + 0xd0] = a0\n  5376: a0 = s1 + 0x3c40\n  5380: a1 = 0x40\n  5383: ra = 174, jump @17\n      : @203 [@dyn 87] (gas: 7)\n  5389: a3 = s1 + 0x3958\n  5393: a4 = u64 [a3 + 0x300]\n  5397: a5 = a3 + 0x200\n  5401: a1 = u64 [a5 + 0xf8]\n  5405: a2 = u64 [a5 + 0xf0]\n  5409: a0 = u64 [a5 + 0xe8]\n  5413: t0 = 176, jump @2359\n      : @204 [@dyn 88] (gas: 1)\n  5420: jump @206 if a1 == 0\n      : @205 (gas: 1)\n  5423: jump @1318\n      : @206 (gas: 15)\n  5427: a4 = s1 + 0x100\n  5431: a1 = u64 [a4 + 0xc8]\n  5435: a1 = a1 << 0x20\n  5438: a2 = a1 >> 0x20\n  5441: u64 [a3 + 736] = 0\n  5445: a1 = u64 [a4 + 0xd0]\n  5449: a5 = a3 + 0x200\n  5453: u64 [a5 + 0xc8] = a1\n  5457: a1 = u64 [a4 + 0xd8]\n  5461: u64 [a5 + 0xd0] = a1\n  5465: a1 = s1 + 0x3c20\n  5469: u64 [a5 + 0xd8] = a2\n  5473: u64 [s1 + 0x1d8] = a0\n  5477: ra = 0x1e6\n  5481: jump @19\n      : @207 (gas: 8)\n  5484: u64 [a2 + 640] = 0\n  5488: u64 [a2 + 632] = 0\n  5492: u64 [a2 + 624] = 0\n  5496: u64 [a2 + 616] = 0\n  5500: a0 = s1 + 0x5000\n  5504: i32 a0 = a0 + 0xfffffffffffffbc0\n  5508: ecalli 11 // 'value_transferred'\n  5510: fallthrough\n      : @208 (gas: 10)\n  5511: a4 = s1 + 0x4958\n  5515: a5 = a4 + 0x200\n  5519: a0 = u64 [a5 + 0x78]\n  5522: a1 = u64 [a5 + 0x80]\n  5526: a2 = u64 [a5 + 0x70]\n  5529: a3 = u64 [a5 + 0x68]\n  5532: a1 = a1 | a2\n  5535: a0 = a0 | a3\n  5538: a0 = a0 | a1\n  5541: jump @210 if a0 == 0\n      : @209 (gas: 1)\n  5544: jump @1657\n      : @210 (gas: 3)\n  5548: a0 = u64 [s1 + 0x1d8]\n  5552: a0 = i32 [a0]\n  5554: jump @212 if a0 >u 3\n      : @211 (gas: 1)\n  5558: jump @1658\n      : @212 (gas: 7)\n  5562: u64 [a4 + 672] = 0\n  5566: u64 [a4 + 664] = 0\n  5570: u64 [a4 + 656] = 0\n  5574: u64 [a4 + 648] = 0\n  5578: a0 = s1 + 0x1b40\n  5582: a1 = s1 + 0x4be0\n  5586: ra = 178, jump @21\n      : @213 [@dyn 89] (gas: 6)\n  5592: a0 = s1 + 0x1958\n  5596: a0 = u64 [a0 + 0x1f8]\n  5600: u64 [s1 + 0x1d8] = a0\n  5604: a0 = s1 + 0x1b20\n  5608: a1 = 0x40\n  5611: ra = 180, jump @17\n      : @214 [@dyn 90] (gas: 7)\n  5617: a3 = s1 + 0x1958\n  5621: a5 = a3 + 0x100\n  5625: a4 = u64 [a5 + 0xe0]\n  5629: a1 = u64 [a5 + 0xd8]\n  5633: a2 = u64 [a5 + 0xd0]\n  5637: a0 = u64 [a5 + 0xc8]\n  5641: t0 = 182, jump @2359\n      : @215 [@dyn 91] (gas: 1)\n  5648: jump @217 if a1 == 0\n      : @216 (gas: 1)\n  5651: jump @1318\n      : @217 (gas: 12)\n  5655: a1 = 0xff00000000\n  5665: a2 = u64 [s1 + 0x1d8]\n  5669: a1 = a1 & a2\n  5672: a1 = a1 >u 0\n  5674: u64 [a3 + 448] = 0\n  5678: u64 [a3 + 440] = 0\n  5682: u64 [a3 + 0x1a8] = a1\n  5686: a1 = s1 + 0x1b00\n  5690: u64 [a3 + 432] = 0\n  5694: u64 [s1 + 0x1d8] = a0\n  5698: ra = 0x1e6\n  5702: jump @19\n      : @218 (gas: 10)\n  5705: a0 = s1 + 0x5158\n  5709: u64 [a0 + 608] = 0\n  5713: u64 [a0 + 600] = 0\n  5717: u64 [a0 + 592] = 0\n  5721: u64 [a0 + 584] = 0\n  5725: a0 = s1 + 0x5000\n  5729: i32 a0 = a0 + 0x3a0\n  5733: ra = 0xb8\n  5737: ecalli 11 // 'value_transferred'\n  5739: fallthrough\n      : @219 [@dyn 92] (gas: 3)\n  5740: a3 = s1 + 0x5158\n  5744: a4 = a3 + 0x200\n  5748: t0 = 186, jump @2403\n      : @220 [@dyn 93] (gas: 1)\n  5755: jump @222 if a0 == 0\n      : @221 (gas: 1)\n  5758: jump @1659\n      : @222 (gas: 3)\n  5762: a0 = u64 [s1 + 0x1d8]\n  5766: a0 = i32 [a0]\n  5768: jump @224 if a0 >u 3\n      : @223 (gas: 1)\n  5772: jump @1660\n      : @224 (gas: 1)\n  5776: ra = 188, jump @2249\n      : @225 [@dyn 94] (gas: 1)\n  5783: ra = 190, jump @2242\n      : @226 [@dyn 95] (gas: 8)\n  5790: a0 = s1 + 0x5158\n  5794: u64 [a0 + 640] = 0\n  5798: u64 [a0 + 632] = 0\n  5802: u64 [a0 + 624] = 0\n  5806: u64 [a0 + 616] = 0\n  5810: a0 = s1 + 0x3c00\n  5814: a1 = s1 + 0x53c0\n  5818: ra = 192, jump @21\n      : @227 [@dyn 96] (gas: 2)\n  5824: a0 = 0x4000\n  5828: t0 = 194, jump @2387\n      : @228 [@dyn 97] (gas: 21)\n  5835: a0 = u64 [a4 + 0xa8]\n  5839: a1 = u64 [a4 + 0xb0]\n  5843: a2 = u64 [a4 + 0xb8]\n  5847: a3 = u64 [a4 + 0xc0]\n  5851: a4 = 0xffffff00ffffffff\n  5861: a2 = a2 & a4\n  5864: a4 = 0x100000000\n  5874: a2 = a2 | a4\n  5877: a4 = s1 + 0x5158\n  5881: u64 [a4 + 672] = 0\n  5885: u64 [a4 + 664] = 0\n  5889: u64 [a4 + 656] = 0\n  5893: u64 [a4 + 648] = 0\n  5897: a5 = a4 + 0x200\n  5901: u64 [a5 + 0xc0] = a3\n  5905: u64 [a5 + 0xb0] = a1\n  5909: u64 [a5 + 0xa8] = a0\n  5913: u64 [a5 + 0xb8] = a2\n  5917: a0 = s1 + 0x53e0\n  5921: a1 = s1 + 0x5400\n  5925: ra = 196, jump @23\n      : @229 [@dyn 98] (gas: 3)\n  5931: a0 = s1 + 0x3be0\n  5935: a1 = 0x40\n  5938: ra = 198, jump @17\n      : @230 [@dyn 99] (gas: 16)\n  5944: a0 = s1 + 0x3958\n  5948: a2 = a0 + 0x200\n  5952: a1 = u64 [a2 + 0xa0]\n  5956: u64 [s1 + 0x1d0] = a1\n  5960: a1 = u64 [a2 + 0x98]\n  5964: u64 [s1 + 0x1c8] = a1\n  5968: a1 = u64 [a2 + 0x90]\n  5972: u64 [s1 + 0x1c0] = a1\n  5976: a0 = u64 [a2 + 0x88]\n  5980: u64 [s1 + 0x1d8] = a0\n  5984: a0 = 0x301b0\n  5989: u64 [s1 + 0x1b8] = a0\n  5993: i32 a0 = a0 + 0\n  5995: ra = 0xc8\n  5999: ecalli 3 // 'caller'\n  6001: fallthrough\n      : @231 [@dyn 100] (gas: 8)\n  6002: a3 = s1 + 0x100\n  6006: a0 = u64 [a3 + 0xd0]\n  6010: a1 = u64 [a3 + 0xc0]\n  6014: a0 = a0 | a1\n  6017: a1 = u64 [a3 + 0xd8]\n  6021: a4 = a1\n  6023: a2 = u64 [a3 + 0xc8]\n  6027: t0 = 202, jump @2335\n      : @232 [@dyn 101] (gas: 1)\n  6034: jump @234 if a0 == 0\n      : @233 (gas: 1)\n  6037: jump @1318\n      : @234 (gas: 5)\n  6040: a2 = u64 [s1 + 0x1b8]\n  6044: a0 = u64 [a2 + 0x8]\n  6047: a1 = i32 [a2 + 0x10]\n  6050: a2 = u64 [a2]\n  6052: t0 = 204, jump @2283\n      : @235 [@dyn 102] (gas: 9)\n  6059: a2 = s1 + 0x3958\n  6063: u64 [a2 + 640] = 0\n  6067: a5 = a2 + 0x200\n  6071: u64 [a5 + 0x78] = a1\n  6074: u64 [a5 + 0x70] = a0\n  6077: a1 = s1 + 0x3bc0\n  6081: u64 [a5 + 0x68] = a3\n  6084: a0 = a4\n  6086: ra = 206, jump @19\n      : @236 [@dyn 103] (gas: 15)\n  6092: a0 = u64 [0x20040]\n  6097: a1 = u64 [0x20048]\n  6102: a2 = s1 + 0x3958\n  6106: a4 = a2 + 0x200\n  6110: u64 [a4 + 0x60] = a0\n  6113: a0 = u64 [0x20050]\n  6118: u64 [a4 + 0x58] = a1\n  6121: a3 = u64 [0x20058]\n  6126: u64 [a4 + 0x50] = a0\n  6129: a0 = a2\n  6131: a1 = 0x20\n  6134: a2 = s1 + 0x3ba0\n  6138: u64 [a0 + 0x248] = a3\n  6142: a0 = u64 [s1 + 0x1d8]\n  6146: ra = 208, jump @24\n      : @237 [@dyn 104] (gas: 4)\n  6152: a1 = 0x201b0\n  6157: i32 a1 = a1 + 0\n  6159: a0 = 0\n  6161: jump @1728\n      : @238 (gas: 12)\n  6165: u64 [a3 + 1376] = 0\n  6169: u64 [a3 + 1368] = 0\n  6173: u64 [a3 + 1360] = 0\n  6177: u64 [a3 + 1352] = 0\n  6181: a0 = s1 + 0x4000\n  6185: i32 a0 = a0 + 0x6a0\n  6189: ra = 0xd2\n  6193: ecalli 11 // 'value_transferred'\n  6195: a3 = s1 + 0x4158\n  6199: a4 = a3 + 0x500\n  6203: t0 = 0xd4\n  6207: jump @2403\n      : @239 [@dyn 105] (gas: 3)\n  6211: a3 = s1 + 0x4158\n  6215: a4 = a3 + 0x500\n  6219: t0 = 212, jump @2403\n      : @240 [@dyn 106] (gas: 1)\n  6226: jump @242 if a0 == 0\n      : @241 (gas: 1)\n  6229: jump @1661\n      : @242 (gas: 3)\n  6233: a0 = u64 [s1 + 0x1d8]\n  6237: a0 = i32 [a0]\n  6239: jump @244 if a0 >u 35\n      : @243 (gas: 1)\n  6243: jump @1662\n      : @244 (gas: 22)\n  6247: a0 = s1 + 0x4000\n  6251: i32 a0 = a0 + 0x6c0\n  6255: a1 = 0x4\n  6258: ecalli 1 // 'call_data_load'\n  6260: a0 = s1 + 0x4158\n  6264: a2 = a0 + 0x500\n  6268: a1 = u64 [a2 + 0x80]\n  6272: u64 [s1 + 0x1d8] = a1\n  6276: a1 = u64 [a2 + 0x78]\n  6279: u64 [s1 + 0x1d0] = a1\n  6283: a1 = u64 [a2 + 0x70]\n  6286: u64 [s1 + 0x1c0] = a1\n  6290: a1 = u64 [a2 + 0x68]\n  6293: u64 [s1 + 0x1c8] = a1\n  6297: u64 [a0 + 1440] = 0\n  6301: u64 [a0 + 1432] = 0\n  6305: u64 [a0 + 1424] = 0\n  6309: u64 [a2 + 136] = 0x4\n  6314: a0 = s1 + 0x7ff\n  6318: a0 = a0 + 0xa1\n  6322: a1 = s1 + 0x46e0\n  6326: ra = 214, jump @21\n      : @245 [@dyn 107] (gas: 24)\n  6332: a0 = s1 + 0x1000\n  6336: a0 = u64 [a0 + 0xfffffffffffff8b8]\n  6340: a1 = s1 + 0x1000\n  6344: t0 = u64 [a1 + 0xfffffffffffff8a0]\n  6348: a1 = s1 + 0x1000\n  6352: a2 = u64 [a1 + 0xfffffffffffff8b0]\n  6356: a1 = s1 + 0x1000\n  6360: a3 = u64 [a1 + 0xfffffffffffff8a8]\n  6364: a1 = u64 [s1 + 0x1d8]\n  6368: a4 = a1 ^ a0\n  6371: a1 = a1 <u a0\n  6374: a0 = u64 [s1 + 0x1d0]\n  6378: a5 = a0 <u a2\n  6381: a5 = a1 if a4 != 0\n  6384: a1 = u64 [s1 + 0x1c0]\n  6388: t1 = a1 ^ a3\n  6391: a3 = a1 <u a3\n  6394: a1 = u64 [s1 + 0x1c8]\n  6398: a1 = a1 <u t0\n  6401: a1 = a3 if t1 != 0\n  6404: a0 = a0 ^ a2\n  6407: a0 = a0 | a4\n  6410: a1 = a5 if a0 != 0\n  6413: jump @247 if a1 != 0\n      : @246 (gas: 1)\n  6416: jump @1663\n      : @247 (gas: 13)\n  6420: a0 = sp + 0xffffffffffffffe0\n  6423: a0 = a0 & 0xffffffffffffffe0\n  6426: u64 [s1 + 0x1b8] = a0\n  6430: sp = a0\n  6432: a1 = s1 + 0x4158\n  6436: u64 [a1 + 1472] = 0\n  6440: u64 [a1 + 1464] = 0\n  6444: u64 [a1 + 1456] = 0\n  6448: u64 [a1 + 1448] = 0x4\n  6453: a0 = s1 + 0x7ff\n  6457: a0 = a0 + 0x1\n  6460: a1 = s1 + 0x4700\n  6464: ra = 216, jump @21\n      : @248 [@dyn 108] (gas: 24)\n  6470: a0 = s1 + 0x1000\n  6474: a0 = u64 [a0 + 0xfffffffffffff818]\n  6478: a1 = s1 + 0x1000\n  6482: t0 = u64 [a1 + 0xfffffffffffff800]\n  6486: a1 = s1 + 0x1000\n  6490: a2 = u64 [a1 + 0xfffffffffffff810]\n  6494: a1 = s1 + 0x1000\n  6498: a3 = u64 [a1 + 0xfffffffffffff808]\n  6502: a1 = u64 [s1 + 0x1d8]\n  6506: a4 = a1 ^ a0\n  6509: a1 = a1 <u a0\n  6512: a0 = u64 [s1 + 0x1d0]\n  6516: a5 = a0 <u a2\n  6519: a5 = a1 if a4 != 0\n  6522: a1 = u64 [s1 + 0x1c0]\n  6526: t1 = a1 ^ a3\n  6529: a3 = a1 <u a3\n  6532: a1 = u64 [s1 + 0x1c8]\n  6536: a1 = a1 <u t0\n  6539: a1 = a3 if t1 != 0\n  6542: a0 = a0 ^ a2\n  6545: a0 = a0 | a4\n  6548: a1 = a5 if a0 != 0\n  6551: jump @250 if a1 != 0\n      : @249 (gas: 1)\n  6554: jump @1671\n      : @250 (gas: 7)\n  6558: u64 [s1 + 1976] = 0\n  6562: u64 [s1 + 1968] = 0\n  6566: u64 [s1 + 1960] = 0\n  6570: a1 = s1 + 0x7a0\n  6574: u64 [s1 + 1952] = 0x4\n  6579: a0 = 0\n  6581: ra = 218, jump @19\n      : @251 [@dyn 109] (gas: 3)\n  6587: a2 = 0x201a4\n  6592: a0 = i32 [0x201a4]\n  6597: jump @253 if a0 >u 31\n      : @252 (gas: 2)\n  6601: u32 [0x201a4] = 0x20\n  6607: fallthrough\n      : @253 (gas: 45)\n  6608: a0 = sp + 0xffffffffffffffe0\n  6611: a1 = a0 & 0xffffffffffffffe0\n  6614: u64 [s1 + 0x1a0] = a1\n  6618: sp = a1\n  6620: a0 = 0x201b0\n  6625: i32 a0 = a0 + 0\n  6627: u64 [s1 + 0x1b0] = a2\n  6631: i32 a2 = a1 + 0\n  6633: a1 = 0x20\n  6636: u64 [s1 + 0x1a8] = a0\n  6640: ecalli 6 // 'hash_keccak_256'\n  6642: a3 = u64 [s1 + 0x1a0]\n  6646: a0 = u64 [a3]\n  6648: a1 = u64 [a3 + 0x8]\n  6651: a2 = u64 [a3 + 0x18]\n  6654: a3 = u64 [a3 + 0x10]\n  6657: t0 = reverse a0\n  6659: a1 = reverse a1\n  6661: a2 = reverse a2\n  6663: a3 = reverse a3\n  6665: a4 = u64 [s1 + 0x1c0]\n  6669: a4 = a4 + a3\n  6672: a5 = u64 [s1 + 0x1c8]\n  6676: a5 = a5 + a2\n  6679: a2 = a5 <u a2\n  6682: a4 = a4 + a2\n  6685: a0 = a4 ^ a3\n  6688: a3 = a4 <u a3\n  6691: a3 = a2 if a0 == 0\n  6694: a0 = u64 [s1 + 0x1d0]\n  6698: a0 = a0 + a1\n  6701: a3 = a3 + a0\n  6704: t1 = a3 <u a0\n  6707: a2 = u64 [s1 + 0x1d8]\n  6711: t0 = t0 + a2\n  6714: a0 = a0 <u a1\n  6717: a0 = a0 + t0\n  6720: a0 = a0 + t1\n  6723: a1 = u64 [s1 + 0x1b8]\n  6727: u64 [a1] = a5\n  6729: u64 [a1 + 0x8] = a4\n  6732: u64 [a1 + 0x10] = a3\n  6735: u64 [a1 + 0x18] = a0\n  6738: a0 = s1 + 0x780\n  6742: ra = 220, jump @21\n      : @254 [@dyn 110] (gas: 11)\n  6748: a0 = u64 [s1 + 0x780]\n  6752: a1 = u64 [s1 + 0x788]\n  6756: a2 = u64 [s1 + 0x790]\n  6760: a3 = u64 [s1 + 0x798]\n  6764: u64 [s1 + 0x778] = a3\n  6768: u64 [s1 + 0x770] = a2\n  6772: u64 [s1 + 0x768] = a1\n  6776: a1 = s1 + 0x760\n  6780: u64 [s1 + 0x760] = a0\n  6784: a0 = 0\n  6786: ra = 222, jump @19\n      : @255 [@dyn 111] (gas: 7)\n  6792: u64 [s1 + 1880] = 0\n  6796: u64 [s1 + 1872] = 0\n  6800: u64 [s1 + 1856] = 0x1\n  6805: a0 = 0x20\n  6808: a1 = s1 + 0x740\n  6812: u64 [s1 + 1864] = 0\n  6816: ra = 224, jump @19\n      : @256 [@dyn 112] (gas: 3)\n  6822: a2 = u64 [s1 + 0x1b0]\n  6826: a0 = i32 [a2]\n  6828: jump @258 if a0 >u 63\n      : @257 (gas: 3)\n  6832: u32 [a2 + 0] = 0x40\n  6835: t0 = 0xe2\n  6839: jump @2398\n      : @258 (gas: 1)\n  6843: t0 = 226, jump @2398\n      : @259 [@dyn 113] (gas: 5)\n  6850: a0 = u64 [s1 + 0x1a8]\n  6854: ra = 0xe4\n  6858: ecalli 6 // 'hash_keccak_256'\n  6860: t0 = 0xe6\n  6864: jump @2312\n      : @260 [@dyn 114] (gas: 1)\n  6868: t0 = 230, jump @2312\n      : @261 [@dyn 115] (gas: 3)\n  6875: a0 = s1 + 0x720\n  6879: a1 = 0x40\n  6882: ra = 232, jump @17\n      : @262 [@dyn 116] (gas: 17)\n  6888: a4 = s1 + 0x700\n  6892: a0 = u64 [a4 + 0x38]\n  6895: u64 [s1 + 0x1a8] = a0\n  6899: a1 = u64 [a4 + 0x30]\n  6902: u64 [s1 + 0x1a0] = a1\n  6906: a3 = u64 [a4 + 0x28]\n  6909: u64 [s1 + 0x1d0] = a3\n  6913: a2 = u64 [a4 + 0x20]\n  6916: u64 [s1 + 0x1d8] = a2\n  6920: u64 [a4 + 0x18] = a0\n  6923: u64 [a4 + 0x10] = a1\n  6926: u64 [a4 + 0x8] = a3\n  6929: a0 = s1 + 0x700\n  6933: u64 [a4] = a2\n  6935: ra = 0xea\n  6939: t0 = 0x8a2\n  6943: jump @2330\n      : @263 [@dyn 117] (gas: 12)\n  6947: a0 = u64 [s1 + 0x1c0]\n  6951: a3 = s1 + 0x600\n  6955: u64 [a3 + 0xd8] = a0\n  6959: a0 = u64 [s1 + 0x1c8]\n  6963: u64 [a3 + 0xd0] = a0\n  6967: a0 = u64 [s1 + 0x1b8]\n  6971: u64 [a3 + 0xc8] = a0\n  6975: a0 = s1 + 0x6e0\n  6979: a1 = s1 + 0x6c0\n  6983: a2 = u64 [s1 + 0x1b0]\n  6987: u64 [a3 + 0xc0] = a2\n  6991: ra = 236, jump @2018\n      : @264 [@dyn 118] (gas: 7)\n  6998: a3 = s1 + 0x100\n  7002: a0 = u64 [a3 + 0xa8]\n  7006: a1 = u64 [a3 + 0xd0]\n  7010: a0 = a0 | a1\n  7013: a2 = u64 [a3 + 0xa0]\n  7017: a1 = u64 [a3 + 0xd8]\n  7021: t0 = 238, jump @2335\n      : @265 [@dyn 119] (gas: 1)\n  7028: jump @267 if a0 == 0\n      : @266 (gas: 1)\n  7031: jump @1318\n      : @267 (gas: 11)\n  7034: a0 = u64 [s1 + 0x6f8]\n  7038: a1 = u64 [s1 + 0x6f0]\n  7042: a2 = u64 [s1 + 0x6e8]\n  7046: a3 = u64 [s1 + 0x6e0]\n  7050: u64 [s1 + 0x6a0] = a3\n  7054: u64 [s1 + 0x6a8] = a2\n  7058: u64 [s1 + 0x6b0] = a1\n  7062: a1 = s1 + 0x6a0\n  7066: u64 [s1 + 0x6b8] = a0\n  7070: a0 = u64 [s1 + 0x1d8]\n  7074: ra = 240, jump @19\n      : @268 [@dyn 120] (gas: 1)\n  7080: t0 = 242, jump @2314\n      : @269 [@dyn 121] (gas: 8)\n  7087: a4 = s1 + 0x600\n  7091: u64 [a4 + 0x70] = a2\n  7094: u64 [a4 + 0x68] = a1\n  7097: u64 [a4 + 0x60] = a0\n  7100: a0 = s1 + 0x680\n  7104: a1 = s1 + 0x660\n  7108: u64 [a4 + 0x78] = a3\n  7111: ra = 244, jump @2018\n      : @270 [@dyn 122] (gas: 1)\n  7118: t0 = 246, jump @2332\n      : @271 [@dyn 123] (gas: 2)\n  7125: a0 = 0 if a2 != 0\n  7127: jump @273 if a0 != 0\n      : @272 (gas: 1)\n  7130: jump @1318\n      : @273 (gas: 14)\n  7133: u64 [s1 + 0x1a8] = a2\n  7137: a2 = u64 [s1 + 0x698]\n  7141: a1 = u64 [s1 + 0x690]\n  7145: u64 [s1 + 0x1a0] = a3\n  7149: a3 = u64 [s1 + 0x688]\n  7153: a4 = u64 [s1 + 0x680]\n  7157: a0 = u64 [s1 + 0x1d8]\n  7161: i32 a0 = a0 + 0x20\n  7164: u64 [s1 + 0x640] = a4\n  7168: u64 [s1 + 0x648] = a3\n  7172: u64 [s1 + 0x650] = a1\n  7176: a1 = s1 + 0x640\n  7180: u64 [s1 + 0x658] = a2\n  7184: ra = 248, jump @19\n      : @274 [@dyn 124] (gas: 3)\n  7190: a1 = u64 [s1 + 0x1b0]\n  7194: a0 = a1 + 0x2\n  7197: t0 = 250, jump @2286\n      : @275 [@dyn 125] (gas: 8)\n  7204: a5 = s1 + 0x600\n  7208: u64 [a5 + 0x10] = a3\n  7211: u64 [a5 + 0x8] = a2\n  7214: u64 [a5] = a0\n  7216: a0 = s1 + 0x620\n  7220: a1 = s1 + 0x600\n  7224: u64 [a5 + 0x18] = a4\n  7227: ra = 252, jump @2018\n      : @276 [@dyn 126] (gas: 4)\n  7234: a2 = s1 + 0x100\n  7238: a0 = u64 [a2 + 0xa0]\n  7242: a0 = a0 + 0xffffffffffffffc0\n  7245: t0 = 254, jump @2270\n      : @277 [@dyn 127] (gas: 1)\n  7252: jump @279 if a0 != 0\n      : @278 (gas: 1)\n  7255: jump @1318\n      : @279 (gas: 14)\n  7258: a0 = s1 + 0x600\n  7262: a4 = u64 [a0 + 0x38]\n  7265: a1 = u64 [a0 + 0x30]\n  7268: a2 = u64 [a0 + 0x28]\n  7271: a3 = u64 [a0 + 0x20]\n  7274: a0 = u64 [s1 + 0x1d8]\n  7278: i32 a0 = a0 + 0x40\n  7281: u64 [s1 + 0x5e0] = a3\n  7285: u64 [s1 + 0x5e8] = a2\n  7289: u64 [s1 + 0x5f0] = a1\n  7293: a1 = s1 + 0x5e0\n  7297: u64 [s1 + 0x5f8] = a4\n  7301: u64 [s1 + 0x1a0] = a0\n  7305: ra = 256, jump @19\n      : @280 [@dyn 128] (gas: 3)\n  7311: a1 = u64 [s1 + 0x1b0]\n  7315: a0 = a1 + 0x3\n  7318: t0 = 258, jump @2286\n      : @281 [@dyn 129] (gas: 8)\n  7325: a5 = s1 + 0x500\n  7329: u64 [a5 + 0xb0] = a3\n  7333: u64 [a5 + 0xa8] = a2\n  7337: u64 [a5 + 0xa0] = a0\n  7341: a0 = s1 + 0x5c0\n  7345: a1 = s1 + 0x5a0\n  7349: u64 [a5 + 0xb8] = a4\n  7353: ra = 260, jump @2018\n      : @282 [@dyn 130] (gas: 3)\n  7360: a2 = 0x100000000\n  7370: a0 = 0xffffffa0\n  7380: t0 = 262, jump @2372\n      : @283 [@dyn 131] (gas: 1)\n  7387: jump @285 if a0 != 0\n      : @284 (gas: 1)\n  7390: jump @1318\n      : @285 (gas: 15)\n  7393: a5 = s1 + 0x500\n  7397: a4 = u64 [a5 + 0xd8]\n  7401: a1 = u64 [a5 + 0xd0]\n  7405: u64 [s1 + 0x198] = a2\n  7409: a2 = u64 [a5 + 0xc8]\n  7413: a3 = u64 [a5 + 0xc0]\n  7417: a0 = u64 [s1 + 0x1d8]\n  7421: i32 a0 = a0 + 0x60\n  7424: u64 [a5 + 0x80] = a3\n  7428: u64 [a5 + 0x88] = a2\n  7432: u64 [a5 + 0x90] = a1\n  7436: a1 = s1 + 0x580\n  7440: u64 [a5 + 0x98] = a4\n  7444: u64 [s1 + 0x190] = a0\n  7448: ra = 264, jump @19\n      : @286 [@dyn 132] (gas: 3)\n  7454: a1 = u64 [s1 + 0x1b0]\n  7458: a0 = a1 + 0x4\n  7461: t0 = 266, jump @2305\n      : @287 [@dyn 133] (gas: 7)\n  7468: u64 [a5 + 0xd0] = a2\n  7472: u64 [a5 + 0xc8] = a0\n  7476: u64 [a5 + 0xd8] = a3\n  7480: u64 [a5 + 0xe0] = a1\n  7484: a0 = s1 + 0x560\n  7488: a1 = s1 + 0x4720\n  7492: ra = 268, jump @21\n      : @288 [@dyn 134] (gas: 4)\n  7498: a2 = s1 + 0x100\n  7502: a0 = u64 [a2 + 0x98]\n  7506: a0 = a0 + 0xffffffffffffff80\n  7509: t0 = 270, jump @2270\n      : @289 [@dyn 135] (gas: 1)\n  7516: jump @291 if a0 != 0\n      : @290 (gas: 1)\n  7519: jump @1318\n      : @291 (gas: 15)\n  7522: a4 = s1 + 0x500\n  7526: a0 = u64 [a4 + 0x70]\n  7529: a1 = u64 [a4 + 0x68]\n  7532: a2 = u64 [a4 + 0x60]\n  7535: a0 = a0 << 0x20\n  7538: a3 = a0 >> 0x20\n  7541: a0 = u64 [s1 + 0x1d8]\n  7545: i32 a0 = a0 + 0x80\n  7549: u64 [s1 + 1368] = 0\n  7553: u64 [a4 + 0x40] = a2\n  7556: u64 [a4 + 0x48] = a1\n  7559: a1 = s1 + 0x540\n  7563: u64 [a4 + 0x50] = a3\n  7566: u64 [s1 + 0x198] = a0\n  7570: ra = 272, jump @19\n      : @292 [@dyn 136] (gas: 3)\n  7576: a1 = u64 [s1 + 0x1b0]\n  7580: a0 = a1 + 0x5\n  7583: t0 = 274, jump @2305\n      : @293 [@dyn 137] (gas: 7)\n  7590: u64 [a5 + 0xf8] = a3\n  7594: u64 [a5 + 0xf0] = a2\n  7598: u64 [a5 + 0xe8] = a0\n  7602: u64 [a4 + 0x600] = a1\n  7606: a0 = s1 + 0x520\n  7610: a1 = s1 + 0x4740\n  7614: ra = 276, jump @21\n      : @294 [@dyn 138] (gas: 3)\n  7620: a2 = 0x100000000\n  7630: a0 = 0xffffff60\n  7640: t0 = 278, jump @2372\n      : @295 [@dyn 139] (gas: 1)\n  7647: jump @297 if a0 != 0\n      : @296 (gas: 1)\n  7650: jump @1318\n      : @297 (gas: 14)\n  7653: u64 [s1 + 0x188] = a2\n  7657: a5 = s1 + 0x500\n  7661: a2 = u64 [a5 + 0x38]\n  7664: a1 = u64 [a5 + 0x30]\n  7667: a3 = u64 [a5 + 0x28]\n  7670: a4 = u64 [a5 + 0x20]\n  7673: a0 = u64 [s1 + 0x1d8]\n  7677: i32 a0 = a0 + 0xa0\n  7681: u64 [a5] = a4\n  7683: u64 [a5 + 0x8] = a3\n  7686: u64 [a5 + 0x10] = a1\n  7689: a1 = s1 + 0x500\n  7693: u64 [a5 + 0x18] = a2\n  7696: ra = 280, jump @19\n      : @298 [@dyn 140] (gas: 3)\n  7702: a1 = u64 [s1 + 0x1b0]\n  7706: a0 = a1 + 0x6\n  7709: t0 = 282, jump @2306\n      : @299 [@dyn 141] (gas: 7)\n  7716: u64 [a5 + 0x10] = a2\n  7719: u64 [a5 + 0x8] = a0\n  7722: u64 [a5 + 0x18] = a3\n  7725: u64 [a5 + 0x20] = a1\n  7728: a0 = s1 + 0x4e0\n  7732: a1 = s1 + 0x4760\n  7736: ra = 284, jump @21\n      : @300 [@dyn 142] (gas: 4)\n  7742: a2 = s1 + 0x100\n  7746: a0 = u64 [a2 + 0x88]\n  7750: a0 = a0 + 0xffffffffffffff40\n  7754: t0 = 286, jump @2270\n      : @301 [@dyn 143] (gas: 1)\n  7761: jump @303 if a0 != 0\n      : @302 (gas: 1)\n  7764: jump @1318\n      : @303 (gas: 13)\n  7767: a5 = s1 + 0x400\n  7771: a2 = u64 [a5 + 0xf8]\n  7775: a1 = u64 [a5 + 0xf0]\n  7779: a3 = u64 [a5 + 0xe8]\n  7783: a4 = u64 [a5 + 0xe0]\n  7787: a0 = u64 [s1 + 0x1d8]\n  7791: i32 a0 = a0 + 0xc0\n  7795: u64 [a5 + 0xc0] = a4\n  7799: u64 [a5 + 0xc8] = a3\n  7803: u64 [a5 + 0xd0] = a1\n  7807: a1 = s1 + 0x4c0\n  7811: u64 [a5 + 0xd8] = a2\n  7815: ra = 288, jump @19\n      : @304 [@dyn 144] (gas: 3)\n  7821: a1 = u64 [s1 + 0x1b0]\n  7825: a0 = a1 + 0x7\n  7828: t0 = 290, jump @2306\n      : @305 [@dyn 145] (gas: 7)\n  7835: u64 [a5 + 0x30] = a2\n  7838: u64 [a5 + 0x28] = a0\n  7841: u64 [a5 + 0x38] = a3\n  7844: u64 [a5 + 0x40] = a1\n  7847: a0 = s1 + 0x4a0\n  7851: a1 = s1 + 0x4780\n  7855: ra = 292, jump @21\n      : @306 [@dyn 146] (gas: 10)\n  7861: a4 = s1 + 0x100\n  7865: a2 = u64 [a4 + 0xa8]\n  7869: a3 = 0x100000000\n  7879: a0 = 0xffffff20\n  7889: a1 = u64 [a4 + 0xd8]\n  7893: a0 = a1 <u a0\n  7896: a1 = u64 [a4 + 0xd0]\n  7900: a0 = 0 if a1 != 0\n  7902: a0 = 0 if a2 != 0\n  7904: jump @308 if a0 != 0\n      : @307 (gas: 1)\n  7907: jump @1318\n      : @308 (gas: 12)\n  7910: a0 = u64 [s1 + 0x4a0]\n  7914: a0 = a0 & 0xff\n  7918: a1 = a0 >u 0\n  7920: a0 = u64 [s1 + 0x1d8]\n  7924: i32 a0 = a0 + 0xe0\n  7928: u64 [s1 + 1176] = 0\n  7932: u64 [s1 + 1168] = 0\n  7936: u64 [s1 + 0x480] = a1\n  7940: a1 = s1 + 0x480\n  7944: u64 [s1 + 1160] = 0\n  7948: u64 [s1 + 0x188] = a3\n  7952: ra = 294, jump @19\n      : @309 [@dyn 147] (gas: 3)\n  7958: a1 = u64 [s1 + 0x1b0]\n  7962: a0 = a1 + 0x8\n  7965: t0 = 296, jump @2286\n      : @310 [@dyn 148] (gas: 8)\n  7972: a5 = s1 + 0x400\n  7976: u64 [a5 + 0x48] = a2\n  7979: u64 [a5 + 0x40] = a0\n  7982: u64 [a5 + 0x50] = a3\n  7985: a0 = s1 + 0x460\n  7989: a1 = s1 + 0x440\n  7993: u64 [a5 + 0x58] = a4\n  7996: ra = 298, jump @2018\n      : @311 [@dyn 149] (gas: 4)\n  8003: a2 = s1 + 0x100\n  8007: a0 = u64 [a2 + 0x88]\n  8011: a0 = a0 + 0xffffffffffffff00\n  8015: t0 = 300, jump @2270\n      : @312 [@dyn 150] (gas: 1)\n  8022: jump @314 if a0 != 0\n      : @313 (gas: 1)\n  8025: jump @1318\n      : @314 (gas: 12)\n  8028: a2 = u64 [s1 + 0x478]\n  8032: a1 = u64 [s1 + 0x470]\n  8036: a3 = u64 [s1 + 0x468]\n  8040: a4 = u64 [s1 + 0x460]\n  8044: a0 = u64 [s1 + 0x1d8]\n  8048: i32 a0 = a0 + 0x100\n  8052: u64 [s1 + 0x420] = a4\n  8056: u64 [s1 + 0x428] = a3\n  8060: u64 [s1 + 0x430] = a1\n  8064: a1 = s1 + 0x420\n  8068: u64 [s1 + 0x438] = a2\n  8072: ra = 302, jump @19\n      : @315 [@dyn 151] (gas: 3)\n  8078: a0 = s1 + 0x400\n  8082: a1 = u64 [s1 + 0x1d8]\n  8086: ra = 304, jump @17\n      : @316 [@dyn 152] (gas: 12)\n  8092: a1 = s1 + 0x400\n  8096: a0 = u64 [a1 + 0x18]\n  8099: u64 [s1 + 0x188] = a0\n  8103: a0 = u64 [a1 + 0x10]\n  8106: u64 [s1 + 0x1a8] = a0\n  8110: a0 = u64 [a1 + 0x8]\n  8113: u64 [s1 + 0x1b0] = a0\n  8117: a0 = u64 [a1]\n  8119: u64 [s1 + 0x1b8] = a0\n  8123: a0 = s1 + 0x3e0\n  8127: a1 = u64 [s1 + 0x1a0]\n  8131: ra = 306, jump @17\n      : @317 [@dyn 153] (gas: 11)\n  8137: a0 = u64 [s1 + 0x3f8]\n  8141: u64 [s1 + 0x170] = a0\n  8145: a0 = u64 [s1 + 0x3f0]\n  8149: u64 [s1 + 0x178] = a0\n  8153: a0 = u64 [s1 + 0x3e8]\n  8157: u64 [s1 + 0x180] = a0\n  8161: a0 = u64 [s1 + 0x3e0]\n  8165: u64 [s1 + 0x1a0] = a0\n  8169: a0 = s1 + 0x3c0\n  8173: a1 = u64 [s1 + 0x190]\n  8177: ra = 308, jump @17\n      : @318 [@dyn 154] (gas: 11)\n  8183: a0 = u64 [s1 + 0x3d8]\n  8187: u64 [s1 + 0x158] = a0\n  8191: a0 = u64 [s1 + 0x3d0]\n  8195: u64 [s1 + 0x160] = a0\n  8199: a0 = u64 [s1 + 0x3c8]\n  8203: u64 [s1 + 0x168] = a0\n  8207: a0 = u64 [s1 + 0x3c0]\n  8211: u64 [s1 + 0x190] = a0\n  8215: a0 = s1 + 0x3a0\n  8219: a1 = u64 [s1 + 0x198]\n  8223: ra = 310, jump @17\n      : @319 [@dyn 155] (gas: 9)\n  8229: a0 = u64 [s1 + 0x3a0]\n  8233: u64 [s1 + 0x198] = a0\n  8237: a0 = u64 [s1 + 0x3a8]\n  8241: u64 [s1 + 0x150] = a0\n  8245: a0 = u64 [s1 + 0x3b0]\n  8249: u64 [s1 + 0x148] = a0\n  8253: a0 = s1 + 0x380\n  8257: a1 = 0x40\n  8260: ra = 312, jump @17\n      : @320 [@dyn 156] (gas: 6)\n  8266: a4 = s1 + 0x300\n  8270: a2 = u64 [a4 + 0x98]\n  8274: a3 = u64 [a4 + 0x90]\n  8278: a0 = u64 [a4 + 0x88]\n  8282: a1 = u64 [a4 + 0x80]\n  8286: t0 = 314, jump @2352\n      : @321 [@dyn 157] (gas: 1)\n  8293: jump @323 if a0 == 0\n      : @322 (gas: 1)\n  8296: jump @1318\n      : @323 (gas: 7)\n  8299: u64 [s1 + 888] = 0\n  8303: u64 [s1 + 880] = 0\n  8307: u64 [s1 + 872] = 0\n  8311: a1 = s1 + 0x360\n  8315: u64 [s1 + 864] = 0x80\n  8321: a0 = u64 [s1 + 0x1d8]\n  8325: ra = 316, jump @19\n      : @324 [@dyn 158] (gas: 3)\n  8331: a1 = u64 [s1 + 0x1d8]\n  8335: a0 = a1 + 0x80\n  8339: t0 = 318, jump @2320\n      : @325 [@dyn 159] (gas: 17)\n  8346: a5 = s1 + 0x300\n  8350: u64 [a5 + 0x8] = a2\n  8353: u64 [a5] = a0\n  8355: a0 = u64 [s1 + 0x188]\n  8359: u64 [a5 + 0x38] = a0\n  8362: a0 = u64 [s1 + 0x1a8]\n  8366: u64 [a5 + 0x30] = a0\n  8369: a0 = u64 [s1 + 0x1b0]\n  8373: u64 [a5 + 0x28] = a0\n  8376: a0 = u64 [s1 + 0x1b8]\n  8380: u64 [a5 + 0x20] = a0\n  8383: u64 [a5 + 0x10] = a3\n  8386: a0 = s1 + 0x340\n  8390: a1 = s1 + 0x320\n  8394: a2 = s1 + 0x300\n  8398: u64 [a5 + 0x18] = a4\n  8401: ra = 320, jump @1909\n      : @326 [@dyn 160] (gas: 1)\n  8408: t0 = 322, jump @2322\n      : @327 [@dyn 161] (gas: 1)\n  8415: jump @329 if a0 != 0\n      : @328 (gas: 1)\n  8418: jump @1318\n      : @329 (gas: 38)\n  8421: a2 = s1 + 0x300\n  8425: a0 = u64 [a2 + 0x40]\n  8428: a1 = u64 [a2 + 0x48]\n  8431: t2 = u64 [s1 + 0x358]\n  8435: u64 [s1 + 0x188] = t2\n  8439: a4 = u64 [a2 + 0x50]\n  8442: u64 [s1 + 0x1a8] = a4\n  8446: a5 = u64 [s1 + 0x1d8]\n  8450: t0 = a0 <u a5\n  8453: t1 = a0\n  8455: u64 [s1 + 0x138] = a0\n  8459: a3 = u64 [s1 + 0x1d0]\n  8463: a0 = a1\n  8465: a1 = a1 ^ a3\n  8468: a2 = a0 <u a3\n  8471: ra = a0\n  8473: u64 [s1 + 0x140] = a0\n  8477: a0 = a3\n  8479: a2 = t0 if a1 == 0\n  8482: a3 = u64 [s1 + 0x1c0]\n  8486: a1 = a4 - a3\n  8489: a3 = a4 <u a3\n  8492: a4 = u64 [s1 + 0x1c8]\n  8496: a4 = t2 - a4\n  8499: a4 = a4 - a3\n  8502: a3 = a1 <u a2\n  8505: a4 = a4 - a3\n  8508: a1 = a1 - a2\n  8511: a2 = ra - a0\n  8514: a2 = a2 - t0\n  8517: a3 = t1 - a5\n  8520: i32 a0 = a5 + 0x20\n  8523: u64 [s1 + 0x2e0] = a3\n  8527: u64 [s1 + 0x2e8] = a2\n  8531: u64 [s1 + 0x2f0] = a1\n  8535: a1 = s1 + 0x2e0\n  8539: u64 [s1 + 0x2f8] = a4\n  8543: ra = 324, jump @19\n      : @330 [@dyn 162] (gas: 21)\n  8549: a0 = u64 [s1 + 0x188]\n  8553: a4 = s1 + 0x200\n  8557: u64 [a4 + 0x98] = a0\n  8561: a0 = u64 [s1 + 0x1a8]\n  8565: u64 [a4 + 0x90] = a0\n  8569: a0 = u64 [s1 + 0x140]\n  8573: u64 [a4 + 0x88] = a0\n  8577: a0 = u64 [s1 + 0x138]\n  8581: u64 [a4 + 0x80] = a0\n  8585: a0 = u64 [s1 + 0x170]\n  8589: u64 [a4 + 0xb8] = a0\n  8593: a0 = u64 [s1 + 0x178]\n  8597: u64 [a4 + 0xb0] = a0\n  8601: a0 = u64 [s1 + 0x180]\n  8605: u64 [a4 + 0xa8] = a0\n  8609: a0 = s1 + 0x2c0\n  8613: a1 = s1 + 0x2a0\n  8617: a2 = s1 + 0x280\n  8621: a3 = u64 [s1 + 0x1a0]\n  8625: u64 [a4 + 0xa0] = a3\n  8629: ra = 326, jump @1909\n      : @331 [@dyn 163] (gas: 4)\n  8636: a2 = s1 + 0x100\n  8640: a0 = u64 [a2 + 0xb0]\n  8644: a0 = a0 + 0xffffffffffffffc0\n  8647: t0 = 328, jump @2280\n      : @332 [@dyn 164] (gas: 1)\n  8654: jump @334 if a0 != 0\n      : @333 (gas: 1)\n  8657: jump @1318\n      : @334 (gas: 37)\n  8660: a0 = u64 [s1 + 0x2c0]\n  8664: a1 = u64 [s1 + 0x2c8]\n  8668: t2 = u64 [s1 + 0x2d8]\n  8672: u64 [s1 + 0x1a8] = t2\n  8676: a4 = u64 [s1 + 0x2d0]\n  8680: u64 [s1 + 0x1b0] = a4\n  8684: a5 = u64 [s1 + 0x1d8]\n  8688: t0 = a0 <u a5\n  8691: t1 = a0\n  8693: u64 [s1 + 0x188] = a0\n  8697: a3 = u64 [s1 + 0x1d0]\n  8701: a0 = a1\n  8703: a1 = a1 ^ a3\n  8706: a2 = a0 <u a3\n  8709: ra = a0\n  8711: u64 [s1 + 0x1a0] = a0\n  8715: a0 = a3\n  8717: a2 = t0 if a1 == 0\n  8720: a3 = u64 [s1 + 0x1c0]\n  8724: a1 = a4 - a3\n  8727: a3 = a4 <u a3\n  8730: a4 = u64 [s1 + 0x1c8]\n  8734: a4 = t2 - a4\n  8737: a4 = a4 - a3\n  8740: a3 = a1 <u a2\n  8743: a4 = a4 - a3\n  8746: a1 = a1 - a2\n  8749: a2 = ra - a0\n  8752: a2 = a2 - t0\n  8755: a3 = t1 - a5\n  8758: i32 a0 = a5 + 0x40\n  8761: u64 [s1 + 0x260] = a3\n  8765: u64 [s1 + 0x268] = a2\n  8769: u64 [s1 + 0x270] = a1\n  8773: a1 = s1 + 0x260\n  8777: u64 [s1 + 0x278] = a4\n  8781: ra = 330, jump @19\n      : @335 [@dyn 165] (gas: 21)\n  8787: a0 = u64 [s1 + 0x1a8]\n  8791: a4 = s1 + 0x200\n  8795: u64 [a4 + 0x18] = a0\n  8798: a0 = u64 [s1 + 0x1b0]\n  8802: u64 [a4 + 0x10] = a0\n  8805: a0 = u64 [s1 + 0x1a0]\n  8809: u64 [a4 + 0x8] = a0\n  8812: a0 = u64 [s1 + 0x188]\n  8816: u64 [a4] = a0\n  8818: a0 = u64 [s1 + 0x158]\n  8822: u64 [a4 + 0x38] = a0\n  8825: a0 = u64 [s1 + 0x160]\n  8829: u64 [a4 + 0x30] = a0\n  8832: a0 = u64 [s1 + 0x168]\n  8836: u64 [a4 + 0x28] = a0\n  8839: a0 = s1 + 0x240\n  8843: a1 = s1 + 0x220\n  8847: a2 = s1 + 0x200\n  8851: a3 = u64 [s1 + 0x190]\n  8855: u64 [a4 + 0x20] = a3\n  8858: ra = 332, jump @1909\n      : @336 [@dyn 166] (gas: 3)\n  8865: a0 = 0xffffffa0\n  8875: a2 = s1 + 0x100\n  8879: t0 = 334, jump @2280\n      : @337 [@dyn 167] (gas: 1)\n  8886: jump @339 if a0 != 0\n      : @338 (gas: 1)\n  8889: jump @1318\n      : @339 (gas: 24)\n  8892: a1 = 0xffffffff\n  8902: a2 = u64 [s1 + 0x148]\n  8906: a2 = a2 & a1\n  8909: a3 = s1 + 0x200\n  8913: a1 = u64 [a3 + 0x58]\n  8916: u64 [s1 + 0x1b8] = a1\n  8920: a1 = u64 [a3 + 0x50]\n  8923: u64 [s1 + 0x1b0] = a1\n  8927: a1 = u64 [a3 + 0x48]\n  8930: u64 [s1 + 0x1a8] = a1\n  8934: a1 = u64 [a3 + 0x40]\n  8937: u64 [s1 + 0x1a0] = a1\n  8941: a1 = u64 [s1 + 0x150]\n  8945: a1 = a1 & 0xffffffffffffffff\n  8948: a3 = u64 [s1 + 0x198]\n  8952: a3 = a3 & 0xffffffffffffffff\n  8955: a0 = u64 [s1 + 0x1d8]\n  8959: i32 a0 = a0 + 0x60\n  8962: u64 [s1 + 504] = 0\n  8966: u64 [s1 + 0x1e0] = a3\n  8970: u64 [s1 + 0x1e8] = a1\n  8974: a1 = s1 + 0x1e0\n  8978: u64 [s1 + 0x1f0] = a2\n  8982: ra = 336, jump @19\n      : @340 [@dyn 168] (gas: 32)\n  8988: t0 = u64 [s1 + 0x1a0]\n  8992: t2 = u64 [s1 + 0x1d8]\n  8996: a0 = t0 <u t2\n  8999: a5 = u64 [s1 + 0x1d0]\n  9003: a3 = u64 [s1 + 0x1a8]\n  9007: a1 = a3 ^ a5\n  9010: a2 = a3 <u a5\n  9013: t1 = a3\n  9015: a2 = a0 if a1 == 0\n  9018: a3 = u64 [s1 + 0x1c0]\n  9022: a4 = u64 [s1 + 0x1b0]\n  9026: a1 = a4 - a3\n  9029: ra = a4 <u a3\n  9032: a4 = u64 [s1 + 0x1c8]\n  9036: a3 = u64 [s1 + 0x1b8]\n  9040: a4 = a3 - a4\n  9043: a4 = a4 - ra\n  9046: a3 = a1 <u a2\n  9049: a4 = a4 - a3\n  9052: a1 = a1 - a2\n  9055: a2 = t1 - a5\n  9058: a2 = a2 - a0\n  9061: a0 = t0 - t2\n  9064: a2 = a2 | a4\n  9067: a3 = a0\n  9069: a0 = a0 | a1\n  9072: a0 = a0 | a2\n  9075: a1 = a1 | a2\n  9078: a0 = a0 >> 0x20\n  9081: a1 = a1 << 0x20\n  9084: a0 = a0 | a1\n  9087: jump @342 if a0 == 0\n      : @341 (gas: 1)\n  9090: jump @1318\n      : @342 (gas: 5)\n  9093: a0 = u64 [s1 + 0x1d8]\n  9097: a1 = a3\n  9099: u64 [s1 + 0x1d0] = a3\n  9103: ra = 0x374\n  9107: jump @32\n      : @343 (gas: 1)\n  9110: t0 = 338, jump @2381\n      : @344 [@dyn 169] (gas: 6)\n  9117: i32 a0 = a0 + 0xfffffffffffffc20\n  9121: ra = 0x154\n  9125: ecalli 11 // 'value_transferred'\n  9127: a0 = 0x4958\n  9131: t0 = 0x156\n  9135: jump @2371\n      : @345 [@dyn 170] (gas: 2)\n  9139: a0 = 0x4958\n  9143: t0 = 342, jump @2371\n      : @346 [@dyn 171] (gas: 1)\n  9150: jump @348 if a0 == 0\n      : @347 (gas: 1)\n  9153: jump @1678\n      : @348 (gas: 3)\n  9157: a0 = u64 [s1 + 0x1d8]\n  9161: a0 = i32 [a0]\n  9163: jump @350 if a0 >u 3\n      : @349 (gas: 1)\n  9167: jump @1679\n      : @350 (gas: 7)\n  9171: u64 [a4 + 768] = 0\n  9175: u64 [a4 + 760] = 0\n  9179: u64 [a4 + 752] = 0\n  9183: u64 [a4 + 744] = 0x4\n  9188: a0 = s1 + 0x1dc0\n  9192: a1 = s1 + 0x4c40\n  9196: ra = 344, jump @21\n      : @351 [@dyn 172] (gas: 14)\n  9202: a1 = s1 + 0x1958\n  9206: a2 = a1 + 0x400\n  9210: a0 = u64 [a2 + 0x80]\n  9214: a1 = s1 + 0x100\n  9218: u64 [a1 + 0xd8] = a0\n  9222: a0 = u64 [a2 + 0x78]\n  9225: u64 [a1 + 0xd0] = a0\n  9229: a0 = u64 [a2 + 0x70]\n  9232: u64 [a1 + 0xc8] = a0\n  9236: a0 = u64 [a2 + 0x68]\n  9239: u64 [a1 + 0xc0] = a0\n  9243: a0 = s1 + 0x1da0\n  9247: a1 = 0x40\n  9250: ra = 346, jump @17\n      : @352 [@dyn 173] (gas: 7)\n  9256: a3 = s1 + 0x1958\n  9260: a5 = a3 + 0x400\n  9264: a0 = u64 [a5 + 0x60]\n  9267: a1 = u64 [a5 + 0x58]\n  9270: a2 = u64 [a5 + 0x50]\n  9273: a4 = u64 [a5 + 0x48]\n  9276: t0 = 348, jump @2337\n      : @353 [@dyn 174] (gas: 1)\n  9283: jump @355 if a0 == 0\n      : @354 (gas: 1)\n  9286: jump @1318\n      : @355 (gas: 15)\n  9289: a2 = s1 + 0x100\n  9293: a0 = u64 [a2 + 0xc0]\n  9297: a5 = a3 + 0x400\n  9301: u64 [a5 + 0x28] = a0\n  9304: a0 = u64 [a2 + 0xc8]\n  9308: u64 [a5 + 0x30] = a0\n  9311: a0 = u64 [a2 + 0xd0]\n  9315: u64 [a5 + 0x38] = a0\n  9318: a1 = s1 + 0x1d80\n  9322: a0 = u64 [a2 + 0xd8]\n  9326: u64 [a5 + 0x40] = a0\n  9329: a0 = a4\n  9331: u64 [s1 + 0x1d8] = a4\n  9335: ra = 0x1e6\n  9339: jump @19\n      : @356 (gas: 11)\n  9342: u64 [a2 + 704] = 0\n  9346: u64 [a2 + 696] = 0\n  9350: u64 [a2 + 688] = 0\n  9354: u64 [a2 + 680] = 0\n  9358: a0 = s1 + 0x5000\n  9362: i32 a0 = a0 + 0xfffffffffffffc00\n  9366: ra = 0x15e\n  9370: ecalli 11 // 'value_transferred'\n  9372: a0 = 0x5000\n  9376: t0 = 0x160\n  9380: jump @2387\n      : @357 [@dyn 175] (gas: 2)\n  9384: a0 = 0x5000\n  9388: t0 = 352, jump @2387\n      : @358 [@dyn 176] (gas: 8)\n  9395: a0 = u64 [a4 + 0xb8]\n  9399: a1 = u64 [a4 + 0xc0]\n  9403: a2 = u64 [a4 + 0xb0]\n  9407: a3 = u64 [a4 + 0xa8]\n  9411: a1 = a1 | a2\n  9414: a0 = a0 | a3\n  9417: a0 = a0 | a1\n  9420: jump @360 if a0 == 0\n      : @359 (gas: 1)\n  9423: jump @1680\n      : @360 (gas: 4)\n  9427: a0 = u64 [s1 + 0x1d8]\n  9431: a0 = i32 [a0]\n  9433: a1 = 0x23\n  9436: jump @362 if a1 <u a0\n      : @361 (gas: 1)\n  9439: jump @1681\n      : @362 (gas: 4)\n  9443: a0 = s1 + 0x1d60\n  9447: ra = 0x162\n  9451: t0 = 0x8e4\n  9455: jump @2396\n      : @363 [@dyn 177] (gas: 12)\n  9459: a3 = s1 + 0x1958\n  9463: a0 = u64 [a3 + 0x408]\n  9467: a1 = u64 [a3 + 0x410]\n  9471: a2 = u32 [a3 + 0x418]\n  9475: u64 [a3 + 1024] = 0\n  9479: a4 = a3 + 0x300\n  9483: u64 [a4 + 0xf8] = a2\n  9487: u64 [a4 + 0xf0] = a1\n  9491: a1 = s1 + 0x1d40\n  9495: u64 [a4 + 0xe8] = a0\n  9499: a0 = 0\n  9501: ra = 356, jump @19\n      : @364 [@dyn 178] (gas: 9)\n  9507: a1 = s1 + 0x1958\n  9511: u64 [a1 + 992] = 0\n  9515: u64 [a1 + 984] = 0\n  9519: u64 [a1 + 968] = 0x3\n  9524: a2 = a1\n  9526: a0 = 0x20\n  9529: a1 = s1 + 0x1d20\n  9533: u64 [a2 + 976] = 0\n  9537: ra = 358, jump @19\n      : @365 [@dyn 179] (gas: 7)\n  9543: a0 = sp + 0xffffffffffffffe0\n  9546: a0 = a0 & 0xffffffffffffffe0\n  9549: u64 [s1 + 0x1d8] = a0\n  9553: sp = a0\n  9555: a2 = 0x201a4\n  9560: a0 = i32 [0x201a4]\n  9565: jump @367 if a0 >u 63\n      : @366 (gas: 2)\n  9569: u32 [0x201a4] = 0x40\n  9575: fallthrough\n      : @367 (gas: 15)\n  9576: u64 [s1 + 0x1c8] = a2\n  9580: a0 = sp + 0xffffffffffffffe0\n  9583: a2 = a0 & 0xffffffffffffffe0\n  9586: u64 [s1 + 0x1d0] = a2\n  9590: sp = a2\n  9592: a0 = 0x201b0\n  9597: i32 a0 = a0 + 0\n  9599: i32 a2 = a2 + 0\n  9601: a1 = 0x40\n  9604: u64 [s1 + 0x1c0] = a0\n  9608: ra = 0x168\n  9612: ecalli 6 // 'hash_keccak_256'\n  9614: a3 = u64 [s1 + 0x1d0]\n  9618: t0 = 0x16a\n  9622: jump @2298\n      : @368 [@dyn 180] (gas: 2)\n  9626: a3 = u64 [s1 + 0x1d0]\n  9630: t0 = 362, jump @2298\n      : @369 [@dyn 181] (gas: 12)\n  9637: a4 = u64 [s1 + 0x1d8]\n  9641: u64 [s1 + 0x1a8] = a3\n  9645: u64 [a4 + 0x18] = a3\n  9648: u64 [s1 + 0x1b0] = a2\n  9652: u64 [a4 + 0x10] = a2\n  9655: u64 [s1 + 0x1b8] = a1\n  9659: u64 [a4 + 0x8] = a1\n  9662: u64 [s1 + 0x1d0] = a0\n  9666: u64 [a4] = a0\n  9668: a0 = s1 + 0x1d00\n  9672: a1 = 0x40\n  9675: ra = 364, jump @17\n      : @370 [@dyn 182] (gas: 13)\n  9681: a0 = s1 + 0x1958\n  9685: a2 = a0 + 0x300\n  9689: a1 = u64 [a2 + 0xc0]\n  9693: u64 [s1 + 0x118] = a1\n  9697: a1 = u64 [a2 + 0xb8]\n  9701: u64 [s1 + 0x110] = a1\n  9705: a1 = u64 [a2 + 0xb0]\n  9709: u64 [s1 + 0x108] = a1\n  9713: a0 = u64 [a2 + 0xa8]\n  9717: u64 [s1 + 0x120] = a0\n  9721: a0 = s1 + 0x1ce0\n  9725: a1 = u64 [s1 + 0x1d8]\n  9729: ra = 366, jump @21\n      : @371 [@dyn 183] (gas: 7)\n  9735: a1 = s1 + 0x100\n  9739: a4 = u64 [a1 + 0x8]\n  9742: a3 = u64 [a1 + 0x10]\n  9745: a0 = u64 [a1 + 0x20]\n  9748: a2 = u64 [a1 + 0x18]\n  9751: a2 = a2 | a4\n  9754: t0 = 368, jump @2394\n      : @372 [@dyn 184] (gas: 1)\n  9761: jump @374 if a1 == 0\n      : @373 (gas: 1)\n  9764: jump @1318\n      : @374 (gas: 17)\n  9767: a1 = s1 + 0x1958\n  9771: t0 = u64 [a1 + 0x3a0]\n  9775: t1 = u64 [a1 + 0x398]\n  9779: a3 = a1 + 0x300\n  9783: a5 = u64 [a3 + 0x90]\n  9787: a2 = u64 [a3 + 0x88]\n  9791: u64 [s1 + 0x148] = a2\n  9795: u64 [a3 + 0x68] = a2\n  9798: u64 [s1 + 0x150] = a5\n  9802: u64 [a3 + 0x70] = a5\n  9805: u64 [s1 + 0x158] = t1\n  9809: u64 [a1 + 0x378] = t1\n  9813: a2 = a1\n  9815: a1 = s1 + 0x1cc0\n  9819: u64 [s1 + 0x160] = t0\n  9823: u64 [a2 + 0x380] = t0\n  9827: ra = 370, jump @19\n      : @375 [@dyn 185] (gas: 28)\n  9833: a1 = u64 [s1 + 0x120]\n  9837: a0 = a1 + 0x20\n  9840: u64 [s1 + 0x130] = a0\n  9844: a0 = a0 <u a1\n  9847: a2 = u64 [s1 + 0x108]\n  9851: a1 = a2 + a0\n  9854: u64 [s1 + 0x140] = a1\n  9858: a1 = a1 <u a2\n  9861: a1 = a0 if a0 == 0\n  9864: a0 = u64 [s1 + 0x110]\n  9868: a1 = a1 + a0\n  9871: u64 [s1 + 0x128] = a1\n  9875: a0 = a1 <u a0\n  9878: u64 [s1 + 0x1d8] = a0\n  9882: a0 = u64 [s1 + 0x1a8]\n  9886: a1 = s1 + 0x1958\n  9890: a2 = a1 + 0x300\n  9894: u64 [a2 + 0x60] = a0\n  9897: a0 = u64 [s1 + 0x1b0]\n  9901: u64 [a2 + 0x58] = a0\n  9904: a0 = u64 [s1 + 0x1b8]\n  9908: u64 [a2 + 0x50] = a0\n  9911: a2 = a1\n  9913: a1 = s1 + 0x1ca0\n  9917: a0 = u64 [s1 + 0x1d0]\n  9921: u64 [a2 + 0x348] = a0\n  9925: a0 = 0\n  9927: ra = 372, jump @19\n      : @376 [@dyn 186] (gas: 7)\n  9933: a0 = sp + 0xffffffffffffffe0\n  9936: a0 = a0 & 0xffffffffffffffe0\n  9939: u64 [s1 + 0x168] = a0\n  9943: sp = a0\n  9945: a2 = u64 [s1 + 0x1c8]\n  9949: a0 = i32 [a2]\n  9951: jump @378 if a0 >u 31\n      : @377 (gas: 2)\n  9955: u32 [a2 + 0] = 0x20\n  9958: fallthrough\n      : @378 (gas: 44)\n  9959: a0 = u64 [s1 + 0x118]\n  9963: a1 = u64 [s1 + 0x1d8]\n  9967: a0 = a0 + a1\n  9970: u64 [s1 + 0x138] = a0\n  9974: a0 = sp + 0xffffffffffffffe0\n  9977: a0 = a0 & 0xffffffffffffffe0\n  9980: u64 [s1 + 0x1d8] = a0\n  9984: sp = a0\n  9986: i32 a2 = a0 + 0\n  9988: a1 = 0x20\n  9991: a0 = u64 [s1 + 0x1c0]\n  9995: ecalli 6 // 'hash_keccak_256'\n  9997: t0 = 0\n  9999: t1 = 0\n 10001: ra = 0\n 10003: u64 [s1 + 440] = 0\n 10007: a3 = u64 [s1 + 0x1d8]\n 10011: a0 = u64 [a3 + 0x18]\n 10014: a1 = u64 [a3 + 0x10]\n 10017: a2 = u64 [a3 + 0x8]\n 10020: a5 = u64 [a3]\n 10022: t2 = reverse a0\n 10024: a4 = reverse a1\n 10026: a3 = reverse a2\n 10028: a2 = reverse a5\n 10030: a1 = u64 [s1 + 0x168]\n 10034: a0 = a2\n 10036: u64 [a1 + 0x18] = a2\n 10039: u64 [s1 + 0x198] = a3\n 10043: u64 [a1 + 0x10] = a3\n 10046: a5 = a4\n 10048: u64 [a1 + 0x8] = a4\n 10051: u64 [s1 + 0x1a0] = t2\n 10055: u64 [a1] = t2\n 10057: a3 = s1 + 0x100\n 10061: a2 = u64 [a3 + 0x30]\n 10064: u64 [a3 + 0xd8] = a2\n 10068: a2 = u64 [a3 + 0x40]\n 10071: u64 [a3 + 0xc8] = a2\n 10075: a2 = u64 [a3 + 0x28]\n 10078: u64 [a3 + 0xc0] = a2\n 10082: a2 = u64 [a3 + 0x38]\n 10085: u64 [a3 + 0xd0] = a2\n 10089: fallthrough\n      : @379 (gas: 20)\n 10090: a4 = s1 + 0x100\n 10094: u64 [a4 + 0xa8] = a0\n 10098: u64 [a4 + 0xb0] = a5\n 10102: a0 = u64 [a4 + 0x48]\n 10105: a0 = t0 <u a0\n 10108: a2 = u64 [a4 + 0x50]\n 10111: a3 = t1 ^ a2\n 10114: a2 = t1 <u a2\n 10117: a2 = a0 if a3 == 0\n 10120: a0 = u64 [a4 + 0x58]\n 10123: t2 = ra <u a0\n 10126: a3 = u64 [a4 + 0x60]\n 10129: a5 = u64 [a4 + 0xb8]\n 10133: a4 = a5 ^ a3\n 10136: a3 = a5 <u a3\n 10139: a3 = t2 if a4 == 0\n 10142: a0 = ra ^ a0\n 10145: a0 = a0 | a4\n 10148: a3 = a2 if a0 == 0\n 10151: jump @381 if a3 != 0\n      : @380 (gas: 1)\n 10154: jump @921\n      : @381 (gas: 5)\n 10157: u64 [s1 + 0x180] = ra\n 10161: u64 [s1 + 0x188] = t1\n 10165: u64 [s1 + 0x190] = t0\n 10169: a0 = s1 + 0x1b80\n 10173: ra = 374, jump @21\n      : @382 [@dyn 187] (gas: 13)\n 10179: a1 = s1 + 0x100\n 10183: a5 = u64 [a1 + 0xd8]\n 10187: a4 = u64 [a1 + 0xc0]\n 10191: a0 = a5 | a4\n 10194: a3 = u64 [a1 + 0xd0]\n 10198: a2 = u64 [a1 + 0xc8]\n 10202: a1 = a2 | a3\n 10205: a0 = a0 | a1\n 10208: a0 = a0 >> 0x20\n 10211: a1 = a1 | a4\n 10214: a1 = a1 << 0x20\n 10217: a0 = a0 | a1\n 10220: jump @384 if a0 == 0\n      : @383 (gas: 1)\n 10223: jump @1318\n      : @384 (gas: 17)\n 10226: a0 = s1 + 0x1958\n 10230: u64 [s1 + 0x1c0] = a4\n 10234: a4 = a0\n 10236: t0 = u64 [a0 + 0x240]\n 10240: a1 = u64 [a0 + 0x238]\n 10244: a0 = u64 [a0 + 0x230]\n 10248: u64 [s1 + 0x1d0] = a3\n 10252: a3 = u64 [a4 + 0x228]\n 10256: u64 [a4 + 0x208] = a3\n 10260: u64 [a4 + 0x210] = a0\n 10264: u64 [a4 + 0x218] = a1\n 10268: a1 = s1 + 0x1b60\n 10272: u64 [a4 + 0x220] = t0\n 10276: a0 = a5\n 10278: u64 [s1 + 0x1d8] = a5\n 10282: u64 [s1 + 0x1c8] = a2\n 10286: ra = 376, jump @19\n      : @385 [@dyn 188] (gas: 57)\n 10292: a1 = u64 [s1 + 0x1d8]\n 10296: a0 = a1 + 0x20\n 10299: u64 [s1 + 0x178] = a0\n 10303: a2 = a0 <u a1\n 10306: a1 = u64 [s1 + 0x1c8]\n 10310: a0 = a1 + a2\n 10313: u64 [s1 + 0x170] = a0\n 10317: a3 = a0 <u a1\n 10320: a3 = a2 if a2 == 0\n 10323: a0 = u64 [s1 + 0x1c0]\n 10327: ra = a0 + a3\n 10330: a3 = ra <u a0\n 10333: a0 = u64 [s1 + 0x1d0]\n 10337: a0 = a0 + a3\n 10340: u64 [s1 + 0x1d0] = a0\n 10344: t2 = u64 [s1 + 0x1a0]\n 10348: t2 = t2 + 0x1\n 10351: u64 [s1 + 0x1a0] = t2\n 10355: a3 = t2 <u 0x1\n 10358: a0 = u64 [s1 + 0x1b0]\n 10362: a0 = a0 + a3\n 10365: a3 = t2 | a0\n 10368: a3 = a3 <u 0x1\n 10371: a1 = u64 [s1 + 0x198]\n 10375: a3 = a3 + a1\n 10378: a4 = a3 <u a1\n 10381: a2 = u64 [s1 + 0x1a8]\n 10385: a2 = a2 + a4\n 10388: t0 = u64 [s1 + 0x190]\n 10392: t0 = t0 + 0x1\n 10395: a4 = t0 <u 0x1\n 10398: t1 = u64 [s1 + 0x188]\n 10402: t1 = t1 + a4\n 10405: a4 = t0 | t1\n 10408: a4 = a4 <u 0x1\n 10411: a5 = u64 [s1 + 0x180]\n 10415: a4 = a4 + a5\n 10418: a5 = a4 <u a5\n 10421: a1 = u64 [s1 + 0x1b8]\n 10425: a1 = a1 + a5\n 10428: u64 [s1 + 0x1b8] = a1\n 10432: a5 = a0\n 10434: a1 = u64 [s1 + 0x168]\n 10438: u64 [a1 + 0x8] = a0\n 10441: u64 [a1] = t2\n 10443: u64 [a1 + 0x10] = a3\n 10446: a0 = a2\n 10448: u64 [a1 + 0x18] = a2\n 10451: u64 [s1 + 0x198] = a3\n 10455: a3 = s1 + 0x100\n 10459: a2 = u64 [a3 + 0x78]\n 10462: u64 [a3 + 0xd8] = a2\n 10466: a2 = u64 [a3 + 0x70]\n 10469: u64 [a3 + 0xc8] = a2\n 10473: u64 [s1 + 0x1c0] = ra\n 10477: ra = a4\n 10479: jump @379\n      : @386 (gas: 9)\n 10482: a0 = s1 + 0x4958\n 10486: u64 [a0 + 0] = 0\n 10488: u64 [a0 + 4294967288] = 0\n 10491: u64 [a0 + 4294967280] = 0\n 10494: u64 [a0 + 4294967272] = 0\n 10497: a0 = s1 + 0x5000\n 10501: i32 a0 = a0 + 0xfffffffffffff940\n 10505: ecalli 11 // 'value_transferred'\n 10507: fallthrough\n      : @387 (gas: 10)\n 10508: a3 = s1 + 0x4958\n 10512: a4 = a3 + 0xffffffffffffff00\n 10516: a0 = u64 [a4 + 0xf8]\n 10520: a1 = u64 [a3]\n 10522: a2 = u64 [a4 + 0xf0]\n 10526: a3 = u64 [a4 + 0xe8]\n 10530: a1 = a1 | a2\n 10533: a0 = a0 | a3\n 10536: a0 = a0 | a1\n 10539: jump @389 if a0 == 0\n      : @388 (gas: 1)\n 10542: jump @1682\n      : @389 (gas: 3)\n 10546: a0 = u64 [s1 + 0x1d8]\n 10550: a0 = i32 [a0]\n 10552: jump @391 if a0 >u 3\n      : @390 (gas: 1)\n 10556: jump @1683\n      : @391 (gas: 1)\n 10560: ra = 378, jump @2249\n      : @392 [@dyn 189] (gas: 8)\n 10567: a0 = s1 + 0x4958\n 10571: u64 [a0 + 32] = 0\n 10574: u64 [a0 + 24] = 0\n 10577: u64 [a0 + 16] = 0\n 10580: u64 [a0 + 8] = 0\n 10583: a0 = s1 + 0x1440\n 10587: a1 = s1 + 0x4960\n 10591: ra = 380, jump @21\n      : @393 [@dyn 190] (gas: 5)\n 10597: a3 = s1 + 0x1158\n 10601: a0 = u64 [a3 + 0x2f8]\n 10605: a1 = 0xff00000000\n 10615: a1 = a1 & a0\n 10618: jump @395 if a1 != 0\n      : @394 (gas: 1)\n 10621: jump @1684\n      : @395 (gas: 17)\n 10625: a1 = u64 [a3 + 0x300]\n 10629: a2 = u64 [a3 + 0x2f0]\n 10633: a3 = u64 [a3 + 0x2e8]\n 10637: a4 = 0xffffff00ffffffff\n 10647: a0 = a0 & a4\n 10650: a4 = s1 + 0x4958\n 10654: u64 [a4 + 64] = 0\n 10657: u64 [a4 + 56] = 0\n 10660: u64 [a4 + 48] = 0\n 10663: u64 [a4 + 40] = 0\n 10666: u64 [a4 + 0x48] = a3\n 10669: u64 [a4 + 0x50] = a2\n 10672: u64 [a4 + 0x60] = a1\n 10675: u64 [a4 + 0x58] = a0\n 10678: a0 = s1 + 0x4980\n 10682: a1 = s1 + 0x49a0\n 10686: ra = 382, jump @23\n      : @396 [@dyn 191] (gas: 3)\n 10692: a0 = s1 + 0x1420\n 10696: a1 = 0x40\n 10699: ra = 384, jump @17\n      : @397 [@dyn 192] (gas: 16)\n 10705: a0 = s1 + 0x1158\n 10709: a2 = a0 + 0x200\n 10713: a1 = u64 [a2 + 0xe0]\n 10717: u64 [s1 + 0x1d0] = a1\n 10721: a1 = u64 [a2 + 0xd8]\n 10725: u64 [s1 + 0x1c8] = a1\n 10729: a1 = u64 [a2 + 0xd0]\n 10733: u64 [s1 + 0x1c0] = a1\n 10737: a0 = u64 [a2 + 0xc8]\n 10741: u64 [s1 + 0x1d8] = a0\n 10745: a0 = 0x301b0\n 10750: u64 [s1 + 0x1b8] = a0\n 10754: i32 a0 = a0 + 0\n 10756: ra = 0x182\n 10760: ecalli 3 // 'caller'\n 10762: fallthrough\n      : @398 [@dyn 193] (gas: 8)\n 10763: a3 = s1 + 0x100\n 10767: a0 = u64 [a3 + 0xd0]\n 10771: a1 = u64 [a3 + 0xc0]\n 10775: a0 = a0 | a1\n 10778: a1 = u64 [a3 + 0xd8]\n 10782: a4 = a1\n 10784: a2 = u64 [a3 + 0xc8]\n 10788: t0 = 388, jump @2335\n      : @399 [@dyn 194] (gas: 1)\n 10795: jump @401 if a0 == 0\n      : @400 (gas: 1)\n 10798: jump @1318\n      : @401 (gas: 5)\n 10801: a2 = u64 [s1 + 0x1b8]\n 10805: a0 = u64 [a2 + 0x8]\n 10808: a1 = i32 [a2 + 0x10]\n 10811: a2 = u64 [a2]\n 10813: t0 = 390, jump @2283\n      : @402 [@dyn 195] (gas: 9)\n 10820: a2 = s1 + 0x1158\n 10824: u64 [a2 + 704] = 0\n 10828: a5 = a2 + 0x200\n 10832: u64 [a5 + 0xb8] = a1\n 10836: u64 [a5 + 0xb0] = a0\n 10840: a1 = s1 + 0x1400\n 10844: u64 [a5 + 0xa8] = a3\n 10848: a0 = a4\n 10850: ra = 392, jump @19\n      : @403 [@dyn 196] (gas: 15)\n 10856: a0 = u64 [0x20108]\n 10861: a1 = u64 [0x20110]\n 10866: a2 = s1 + 0x1158\n 10870: a4 = a2 + 0x200\n 10874: u64 [a4 + 0xa0] = a0\n 10878: a0 = u64 [0x20118]\n 10883: u64 [a4 + 0x98] = a1\n 10887: a3 = u64 [0x20120]\n 10892: u64 [a4 + 0x90] = a0\n 10896: a0 = a2\n 10898: a1 = 0x20\n 10901: a2 = s1 + 0x13e0\n 10905: u64 [a0 + 0x288] = a3\n 10909: a0 = u64 [s1 + 0x1d8]\n 10913: ra = 394, jump @24\n      : @404 [@dyn 197] (gas: 4)\n 10919: a1 = 0x201b0\n 10924: i32 a1 = a1 + 0\n 10926: a0 = 0\n 10928: jump @1728\n      : @405 (gas: 6)\n 10932: i32 a1 = a1 + 0\n 10934: a0 = 0\n 10936: a2 = 0\n 10938: ra = 0x7ac\n 10942: ecalli 8 // 'seal_return'\n 10944: jump @1729\n      : @406 (gas: 1)\n 10948: jump @408 if a0 == 2081813257\n      : @407 (gas: 1)\n 10955: jump @1688\n      : @408 (gas: 8)\n 10959: u64 [a2 + 1088] = 0\n 10963: u64 [a2 + 1080] = 0\n 10967: u64 [a2 + 1072] = 0\n 10971: u64 [a2 + 1064] = 0\n 10975: a0 = s1 + 0x5000\n 10979: i32 a0 = a0 + 0xfffffffffffffd80\n 10983: ecalli 11 // 'value_transferred'\n 10985: fallthrough\n      : @409 (gas: 10)\n 10986: a3 = s1 + 0x4958\n 10990: a4 = a3 + 0x400\n 10994: a0 = u64 [a4 + 0x38]\n 10997: a1 = u64 [a4 + 0x40]\n 11000: a2 = u64 [a4 + 0x30]\n 11003: a3 = u64 [a4 + 0x28]\n 11006: a1 = a1 | a2\n 11009: a0 = a0 | a3\n 11012: a0 = a0 | a1\n 11015: jump @411 if a0 == 0\n      : @410 (gas: 1)\n 11018: jump @1693\n      : @411 (gas: 3)\n 11022: a0 = u64 [s1 + 0x1d8]\n 11026: a0 = i32 [a0]\n 11028: jump @413 if a0 >u 35\n      : @412 (gas: 1)\n 11032: jump @1694\n      : @413 (gas: 7)\n 11036: a0 = s1 + 0x5000\n 11040: i32 a0 = a0 + 0xfffffffffffffda0\n 11044: a1 = 0x4\n 11047: ra = 0x18c\n 11051: ecalli 1 // 'call_data_load'\n 11053: t0 = 0x18e\n 11057: jump @2391\n      : @414 [@dyn 198] (gas: 1)\n 11061: t0 = 398, jump @2391\n      : @415 [@dyn 199] (gas: 4)\n 11068: a0 = u64 [a3 + 0x60]\n 11071: a1 = u64 [a3 + 0x58]\n 11074: a2 = u64 [a3 + 0x50]\n 11077: t0 = 400, jump @2297\n      : @416 [@dyn 200] (gas: 1)\n 11084: jump @418 if a4 != 0\n      : @417 (gas: 1)\n 11087: jump @1695\n      : @418 (gas: 26)\n 11091: a3 = u64 [a5 + 0x448]\n 11095: a4 = u64 [s1 + 0x1d8]\n 11099: t0 = u32 [a4]\n 11101: a5 = a3 + 0x4\n 11104: a3 = a5 <u a3\n 11107: a4 = a2 + a3\n 11110: a2 = a4 <u a2\n 11113: a2 = a3 if a3 == 0\n 11116: a2 = a2 + a1\n 11119: a1 = a2 <u a1\n 11122: a3 = a0 + a1\n 11125: a0 = s1 + 0x2158\n 11129: u64 [a0 + 1312] = 0\n 11133: u64 [a0 + 1304] = 0\n 11137: u64 [a0 + 1296] = 0\n 11141: u64 [a0 + 0x508] = t0\n 11145: a1 = a0 + 0x500\n 11149: u64 [a1 + 0x28] = a5\n 11152: u64 [a1 + 0x30] = a4\n 11155: u64 [a1 + 0x38] = a2\n 11158: a4 = a0\n 11160: a0 = s1 + 0x26a0\n 11164: a1 = s1 + 0x2680\n 11168: a2 = s1 + 0x2660\n 11172: u64 [a4 + 0x540] = a3\n 11176: ra = 402, jump @1956\n      : @419 [@dyn 201] (gas: 13)\n 11183: a0 = s1 + 0x2158\n 11187: a2 = a0 + 0x500\n 11191: a1 = u64 [a2 + 0x60]\n 11194: u64 [s1 + 0x1d0] = a1\n 11198: a1 = u64 [a2 + 0x58]\n 11201: u64 [s1 + 0x1c8] = a1\n 11205: a1 = u64 [a2 + 0x50]\n 11208: u64 [s1 + 0x1d8] = a1\n 11212: a0 = u64 [a2 + 0x48]\n 11215: u64 [s1 + 0x1c0] = a0\n 11219: a0 = s1 + 0x2640\n 11223: a1 = 0x40\n 11226: ra = 404, jump @17\n      : @420 [@dyn 202] (gas: 7)\n 11232: a4 = s1 + 0x100\n 11236: a1 = u64 [a4 + 0xc0]\n 11240: a0 = u64 [a4 + 0xd0]\n 11244: a2 = u64 [a4 + 0xd8]\n 11248: a0 = a0 | a2\n 11251: a3 = u64 [a4 + 0xc8]\n 11255: t0 = 406, jump @2290\n      : @421 [@dyn 203] (gas: 1)\n 11262: jump @423 if a0 == 0\n      : @422 (gas: 1)\n 11265: jump @1318\n      : @423 (gas: 7)\n 11268: a3 = s1 + 0x2158\n 11272: a5 = a3 + 0x400\n 11276: a0 = u64 [a5 + 0xe8]\n 11280: a2 = u64 [a3 + 0x500]\n 11284: a4 = u64 [a5 + 0xf0]\n 11288: a3 = u64 [a5 + 0xf8]\n 11292: t0 = 408, jump @2289\n      : @424 [@dyn 204] (gas: 3)\n 11299: i32 a0 = a0 + 0x620\n 11303: a0 = a0 + s1\n 11306: ra = 410, jump @17\n      : @425 [@dyn 205] (gas: 1)\n 11312: t0 = 412, jump @2291\n      : @426 [@dyn 206] (gas: 1)\n 11319: jump @428 if a0 == 0\n      : @427 (gas: 1)\n 11322: jump @1318\n      : @428 (gas: 1)\n 11325: t0 = 414, jump @2360\n      : @429 [@dyn 207] (gas: 6)\n 11332: t0 = u64 [s1 + 0x1c0]\n 11336: a1 = t0 <u a1\n 11339: a2 = u64 [a3 + 0xd8]\n 11343: a1 = 0 if a2 != 0\n 11345: a1 = 0 if a0 != 0\n 11347: jump @431 if a1 != 0\n      : @430 (gas: 1)\n 11350: jump @1318\n      : @431 (gas: 14)\n 11353: a0 = s1 + 0x2158\n 11357: a4 = a0 + 0x400\n 11361: a2 = u64 [a4 + 0xe0]\n 11365: a3 = u64 [a4 + 0xd8]\n 11369: a1 = u64 [a4 + 0xc8]\n 11373: a5 = u64 [a4 + 0xd0]\n 11377: a0 = a1 | a3\n 11380: a4 = a5 | a2\n 11383: a0 = a0 | a4\n 11386: a0 = a0 >> 0x20\n 11389: a4 = a4 | a3\n 11392: a4 = a4 << 0x20\n 11395: a0 = a0 | a4\n 11398: jump @433 if a0 == 0\n      : @432 (gas: 1)\n 11401: jump @1318\n      : @433 (gas: 2)\n 11404: i32 a0 = t0 + 0x20\n 11407: t0 = 416, jump @2313\n      : @434 [@dyn 208] (gas: 1)\n 11414: ra = 418, jump @32\n      : @435 [@dyn 209] (gas: 4)\n 11420: u64 [s1 + 0x170] = a0\n 11424: a0 = u64 [s1 + 0x178]\n 11428: a1 = u64 [s1 + 0x1d8]\n 11432: ra = 420, jump @32\n      : @436 [@dyn 210] (gas: 4)\n 11438: a1 = a0\n 11440: a0 = u64 [s1 + 0x170]\n 11444: a2 = u64 [s1 + 0x1d8]\n 11448: ra = 422, jump @0\n      : @437 [@dyn 211] (gas: 1)\n 11454: t0 = 424, jump @2274\n      : @438 [@dyn 212] (gas: 6)\n 11461: t0 = a1 <u a3\n 11464: a5 = u64 [s1 + 0x1d0]\n 11468: a3 = u64 [s1 + 0x1a8]\n 11472: a5 = a5 + a3\n 11475: a3 = a5 + t0\n 11478: t0 = 426, jump @2269\n      : @439 [@dyn 213] (gas: 1)\n 11485: jump @441 if a1 == 0\n      : @440 (gas: 1)\n 11488: jump @1318\n      : @441 (gas: 7)\n 11491: a2 = s1 + 0x2158\n 11495: u64 [a2 + 1216] = 0\n 11499: u64 [a2 + 1208] = 0\n 11503: u64 [a2 + 1200] = 0\n 11507: a1 = s1 + 0x2600\n 11511: u64 [a2 + 1192] = 0\n 11515: ra = 428, jump @19\n      : @442 [@dyn 214] (gas: 1)\n 11521: t0 = 430, jump @2292\n      : @443 [@dyn 215] (gas: 1)\n 11528: jump @445 if a1 == 0\n      : @444 (gas: 1)\n 11531: jump @1318\n      : @445 (gas: 10)\n 11534: ra = u64 [s1 + 0x1d8]\n 11538: a1 = ra + 0x20\n 11541: u64 [s1 + 0x1a8] = a1\n 11545: t0 = a1 <u ra\n 11548: a3 = u64 [s1 + 0x1c0]\n 11552: a1 = a3 + t0\n 11555: u64 [s1 + 0x1a0] = a1\n 11559: a1 = a1 <u a3\n 11562: a1 = t0 if t0 == 0\n 11565: t0 = 432, jump @2379\n      : @446 [@dyn 216] (gas: 10)\n 11572: t0 = u64 [s1 + 0x1d0]\n 11576: a1 = a1 + t0\n 11579: u64 [s1 + 0x1b0] = a1\n 11583: a4 = s1 + 0x2158\n 11587: u64 [a4 + 0x488] = ra\n 11591: u64 [a4 + 0x490] = a3\n 11595: u64 [a4 + 0x498] = a2\n 11599: a1 = s1 + 0x25e0\n 11603: u64 [a4 + 0x4a0] = t0\n 11607: ra = 434, jump @19\n      : @447 [@dyn 217] (gas: 22)\n 11613: a0 = s1 + 0x2158\n 11617: a1 = u64 [s1 + 0x178]\n 11621: a2 = a0 + 0x400\n 11625: u64 [a2 + 0x58] = a1\n 11628: a1 = u64 [s1 + 0x1a0]\n 11632: u64 [a2 + 0x50] = a1\n 11635: a1 = u64 [s1 + 0x1a8]\n 11639: u64 [a2 + 0x48] = a1\n 11642: a1 = u64 [s1 + 0x188]\n 11646: u64 [a2 + 0x80] = a1\n 11650: a1 = u64 [s1 + 0x180]\n 11654: u64 [a2 + 0x78] = a1\n 11657: a1 = u64 [s1 + 0x190]\n 11661: u64 [a2 + 0x70] = a1\n 11664: a1 = u64 [s1 + 0x198]\n 11668: u64 [a2 + 0x68] = a1\n 11671: a3 = a0\n 11673: a0 = s1 + 0x25c0\n 11677: a1 = s1 + 0x25a0\n 11681: a2 = u64 [s1 + 0x1b0]\n 11685: u64 [a3 + 0x460] = a2\n 11689: ra = 436, jump @1946\n      : @448 [@dyn 218] (gas: 3)\n 11696: a0 = s1 + 0x2580\n 11700: a1 = u64 [s1 + 0x198]\n 11704: ra = 438, jump @17\n      : @449 [@dyn 219] (gas: 8)\n 11710: a1 = s1 + 0x2158\n 11714: a4 = a1 + 0x400\n 11718: a0 = u64 [a4 + 0x40]\n 11721: a3 = u64 [a4 + 0x38]\n 11724: a2 = u64 [a4 + 0x30]\n 11727: a1 = u64 [a4 + 0x28]\n 11730: a0 = a0 | a2\n 11733: t0 = 440, jump @2290\n      : @450 [@dyn 220] (gas: 1)\n 11740: jump @452 if a0 == 0\n      : @451 (gas: 1)\n 11743: jump @1318\n      : @452 (gas: 3)\n 11746: a0 = u64 [s1 + 0x1b8]\n 11750: u64 [s1 + 0x1d8] = a1\n 11754: ra = 442, jump @32\n      : @453 [@dyn 221] (gas: 1)\n 11760: t0 = 444, jump @2288\n      : @454 [@dyn 222] (gas: 5)\n 11767: ra = 0x1be\n 11771: ecalli 6 // 'hash_keccak_256'\n 11773: a3 = u64 [s1 + 0x1d0]\n 11777: t0 = 0x1c0\n 11781: jump @2298\n      : @455 [@dyn 223] (gas: 2)\n 11785: a3 = u64 [s1 + 0x1d0]\n 11789: t0 = 448, jump @2298\n      : @456 [@dyn 224] (gas: 9)\n 11796: a4 = s1 + 0x2158\n 11800: a5 = a4 + 0x400\n 11804: u64 [a5 + 0x20] = a3\n 11807: u64 [a5 + 0x18] = a2\n 11810: u64 [a5 + 0x10] = a1\n 11813: a1 = s1 + 0x2560\n 11817: u64 [a5 + 0x8] = a0\n 11820: a0 = 0\n 11822: ra = 450, jump @19\n      : @457 [@dyn 225] (gas: 3)\n 11828: t0 = 0x1c4\n 11832: a1 = s1 + 0x2158\n 11836: fallthrough\n      : @458 [@dyn 226] (gas: 8)\n 11837: u64 [a1 + 1024] = 0\n 11841: u64 [a1 + 1016] = 0\n 11845: u64 [a1 + 1000] = 0x1\n 11850: a2 = a1\n 11852: a0 = 0x20\n 11855: a1 = s1 + 0x2540\n 11859: u64 [a2 + 1008] = 0\n 11863: ra = 454, jump @19\n      : @459 [@dyn 227] (gas: 2)\n 11869: a1 = i32 [0x201a4]\n 11874: jump @461 if a1 >u 63\n      : @460 (gas: 4)\n 11878: a1 = 0x40\n 11881: u32 [0x201a4] = a1\n 11886: t0 = 0x1c8\n 11890: jump @2400\n      : @461 (gas: 1)\n 11894: t0 = 456, jump @2400\n      : @462 [@dyn 228] (gas: 9)\n 11901: a0 = 0x201b0\n 11906: i32 a0 = a0 + 0\n 11908: i32 a2 = a2 + 0\n 11910: a1 = 0x40\n 11913: ra = 0x1ca\n 11917: ecalli 6 // 'hash_keccak_256'\n 11919: a3 = u64 [s1 + 0x1d8]\n 11923: t0 = 0x1cc\n 11927: jump @2266\n      : @463 [@dyn 229] (gas: 2)\n 11931: a3 = u64 [s1 + 0x1d8]\n 11935: t0 = 460, jump @2266\n      : @464 [@dyn 230] (gas: 8)\n 11942: a3 = a1 + 0x400\n 11946: u64 [a3 + 0x68] = a4\n 11949: u64 [a3 + 0x70] = a5\n 11952: u64 [a3 + 0x78] = a2\n 11955: u64 [a3 + 0x80] = a0\n 11959: a0 = s1 + 0x2520\n 11963: a1 = s1 + 0x4dc0\n 11967: ra = 462, jump @21\n      : @465 [@dyn 231] (gas: 6)\n 11973: a0 = s1 + 0x2158\n 11977: a0 = u64 [a0 + 0x3c8]\n 11981: u64 [s1 + 0x1d8] = a0\n 11985: a0 = s1 + 0x2500\n 11989: a1 = 0x40\n 11992: ra = 464, jump @17\n      : @466 [@dyn 232] (gas: 7)\n 11998: a3 = s1 + 0x2158\n 12002: a5 = a3 + 0x300\n 12006: a4 = u64 [a5 + 0xc0]\n 12010: a1 = u64 [a5 + 0xb8]\n 12014: a2 = u64 [a5 + 0xb0]\n 12018: a0 = u64 [a5 + 0xa8]\n 12022: t0 = 466, jump @2359\n      : @467 [@dyn 233] (gas: 1)\n 12029: jump @469 if a1 == 0\n      : @468 (gas: 1)\n 12032: jump @1318\n      : @469 (gas: 10)\n 12035: a1 = u8 [s1 + 0x1d8]\n 12039: a1 = a1 >u 0\n 12041: u64 [a3 + 928] = 0\n 12045: u64 [a3 + 920] = 0\n 12049: u64 [a3 + 0x388] = a1\n 12053: a1 = s1 + 0x24e0\n 12057: u64 [a3 + 912] = 0\n 12061: u64 [s1 + 0x1d8] = a0\n 12065: ra = 0x1e6\n 12069: jump @19\n      : @470 (gas: 11)\n 12072: u64 [a2 + 576] = 0\n 12076: u64 [a2 + 568] = 0\n 12080: u64 [a2 + 560] = 0\n 12084: u64 [a2 + 552] = 0\n 12088: a0 = s1 + 0x5000\n 12092: i32 a0 = a0 + 0xfffffffffffffb80\n 12096: ra = 0x1d4\n 12100: ecalli 11 // 'value_transferred'\n 12102: a0 = 0x5000\n 12106: t0 = 0x1d6\n 12110: jump @2387\n      : @471 [@dyn 234] (gas: 2)\n 12114: a0 = 0x5000\n 12118: t0 = 470, jump @2387\n      : @472 [@dyn 235] (gas: 8)\n 12125: a0 = u64 [a4 + 0x38]\n 12128: a1 = u64 [a4 + 0x40]\n 12131: a2 = u64 [a4 + 0x30]\n 12134: a3 = u64 [a4 + 0x28]\n 12137: a1 = a1 | a2\n 12140: a0 = a0 | a3\n 12143: a0 = a0 | a1\n 12146: jump @474 if a0 == 0\n      : @473 (gas: 1)\n 12149: jump @1696\n      : @474 (gas: 3)\n 12153: a0 = u64 [s1 + 0x1d8]\n 12157: a0 = i32 [a0]\n 12159: jump @476 if a0 >u 67\n      : @475 (gas: 1)\n 12163: jump @1697\n      : @476 (gas: 6)\n 12167: a0 = s1 + 0x5000\n 12171: i32 a0 = a0 + 0xfffffffffffffba0\n 12175: a1 = 0x4\n 12178: ra = 0x1d8\n 12182: ecalli 1 // 'call_data_load'\n 12184: fallthrough\n      : @477 [@dyn 236] (gas: 6)\n 12185: a5 = s1 + 0x4958\n 12189: a3 = a5 + 0x200\n 12193: a0 = u64 [a3 + 0x60]\n 12196: a1 = u64 [a3 + 0x58]\n 12199: a2 = u64 [a3 + 0x50]\n 12202: t0 = 474, jump @2297\n      : @478 [@dyn 237] (gas: 1)\n 12209: jump @480 if a4 != 0\n      : @479 (gas: 1)\n 12212: jump @1698\n      : @480 (gas: 26)\n 12216: a3 = u64 [a5 + 0x248]\n 12220: a4 = u64 [s1 + 0x1d8]\n 12224: t0 = u32 [a4]\n 12226: a5 = a3 + 0x4\n 12229: a3 = a5 <u a3\n 12232: a4 = a2 + a3\n 12235: a2 = a4 <u a2\n 12238: a2 = a3 if a3 == 0\n 12241: a2 = a2 + a1\n 12244: a1 = a2 <u a1\n 12247: a3 = a0 + a1\n 12250: a0 = s1 + 0x1958\n 12254: u64 [a0 + 352] = 0\n 12258: u64 [a0 + 344] = 0\n 12262: u64 [a0 + 336] = 0\n 12266: u64 [a0 + 0x148] = t0\n 12270: a1 = a0 + 0x100\n 12274: u64 [a1 + 0x68] = a5\n 12277: u64 [a1 + 0x70] = a4\n 12280: u64 [a1 + 0x78] = a2\n 12283: a4 = a0\n 12285: a0 = s1 + 0x1ae0\n 12289: a1 = s1 + 0x1ac0\n 12293: a2 = s1 + 0x1aa0\n 12297: u64 [a4 + 0x180] = a3\n 12301: ra = 476, jump @1956\n      : @481 [@dyn 238] (gas: 14)\n 12308: a1 = s1 + 0x1958\n 12312: a2 = a1 + 0x100\n 12316: a0 = u64 [a2 + 0x88]\n 12320: u64 [s1 + 0x1d8] = a0\n 12324: a0 = u64 [a2 + 0x90]\n 12328: u64 [s1 + 0x1d0] = a0\n 12332: a0 = u64 [a2 + 0x98]\n 12336: u64 [s1 + 0x1c8] = a0\n 12340: a0 = u64 [a2 + 0xa0]\n 12344: u64 [s1 + 0x1c0] = a0\n 12348: a0 = s1 + 0x1a80\n 12352: ra = 0x1de\n 12356: t0 = 0x8da\n 12360: jump @2396\n      : @482 [@dyn 239] (gas: 49)\n 12364: a4 = s1 + 0x1958\n 12368: a5 = a4 + 0x100\n 12372: a0 = u64 [a5 + 0x28]\n 12375: a1 = u64 [a5 + 0x30]\n 12378: a2 = u64 [a5 + 0x38]\n 12381: a3 = u64 [a5 + 0x40]\n 12384: u64 [a4 + 0xe0] = a3\n 12388: u64 [a4 + 0xd8] = a2\n 12392: u64 [a4 + 0xd0] = a1\n 12396: u64 [a4 + 0xc8] = a0\n 12400: a0 = u64 [s1 + 0x1c0]\n 12404: u64 [a5] = a0\n 12406: a0 = u64 [s1 + 0x1c8]\n 12410: u64 [a4 + 0xf8] = a0\n 12414: a0 = u64 [s1 + 0x1d0]\n 12418: u64 [a4 + 0xf0] = a0\n 12422: a0 = s1 + 0x1a60\n 12426: a1 = s1 + 0x1a40\n 12430: a2 = s1 + 0x1a20\n 12434: a3 = u64 [s1 + 0x1d8]\n 12438: u64 [a4 + 0xe8] = a3\n 12442: ra = 0x1e0\n 12446: sp = sp + 0xfffffffffffffd60\n 12450: a3 = sp + 0x200\n 12454: u64 [a3 + 0x98] = ra\n 12458: u64 [a3 + 0x90] = s0\n 12462: u64 [a3 + 0x88] = s1\n 12466: s0 = sp + 0x2a0\n 12470: sp = sp & 0xffffffffffffffe0\n 12473: s1 = sp\n 12475: a3 = u64 [a2 + 0x10]\n 12478: u64 [s1 + 0x18] = a3\n 12481: a3 = u64 [a2 + 0x8]\n 12484: u64 [s1 + 0x10] = a3\n 12487: a2 = u64 [a2]\n 12489: u64 [s1 + 0x20] = a2\n 12492: a2 = u64 [a1 + 0x10]\n 12495: u64 [s1 + 0x80] = a2\n 12499: a2 = u64 [a1]\n 12501: u64 [s1 + 0x70] = a2\n 12504: a2 = u64 [a1 + 0x18]\n 12507: u64 [s1 + 0x78] = a2\n 12510: a1 = u64 [a1 + 0x8]\n 12513: u64 [s1 + 0x90] = a1\n 12517: u64 [s1 + 0x30] = a0\n 12520: a0 = s1 + 0x220\n 12524: a1 = 0x40\n 12527: ra = 0x9e4\n 12531: jump @17\n      : @483 [@dyn 240] (gas: 14)\n 12534: a1 = s1 + 0x1958\n 12538: a2 = a1 + 0x100\n 12542: a0 = u64 [a2 + 0x20]\n 12545: a1 = s1 + 0x100\n 12549: u64 [a1 + 0xd8] = a0\n 12553: a0 = u64 [a2 + 0x18]\n 12556: u64 [a1 + 0xd0] = a0\n 12560: a0 = u64 [a2 + 0x10]\n 12563: u64 [a1 + 0xc8] = a0\n 12567: a0 = u64 [a2 + 0x8]\n 12570: u64 [a1 + 0xc0] = a0\n 12574: a0 = s1 + 0x1a00\n 12578: a1 = 0x40\n 12581: ra = 482, jump @17\n      : @484 [@dyn 241] (gas: 6)\n 12587: a3 = s1 + 0x1958\n 12591: a0 = u64 [a3 + 0xc0]\n 12595: a1 = u64 [a3 + 0xb8]\n 12599: a2 = u64 [a3 + 0xb0]\n 12603: a4 = u64 [a3 + 0xa8]\n 12607: t0 = 484, jump @2337\n      : @485 [@dyn 242] (gas: 1)\n 12614: jump @487 if a0 == 0\n      : @486 (gas: 1)\n 12617: jump @1318\n      : @487 (gas: 13)\n 12620: a2 = s1 + 0x100\n 12624: a0 = u64 [a2 + 0xc0]\n 12628: u64 [a3 + 0x88] = a0\n 12632: a0 = u64 [a2 + 0xc8]\n 12636: u64 [a3 + 0x90] = a0\n 12640: a0 = u64 [a2 + 0xd0]\n 12644: u64 [a3 + 0x98] = a0\n 12648: a1 = s1 + 0x19e0\n 12652: a0 = u64 [a2 + 0xd8]\n 12656: u64 [a3 + 0xa0] = a0\n 12660: a0 = a4\n 12662: u64 [s1 + 0x1d8] = a4\n 12666: ra = 486, jump @19\n      : @488 [@dyn 243] (gas: 3)\n 12672: a1 = 0x20\n 12675: a0 = u64 [s1 + 0x1d8]\n 12679: ra = 488, jump @32\n      : @489 [@dyn 244] (gas: 5)\n 12685: i32 a1 = a0 + 0\n 12687: a2 = 0x20\n 12690: a0 = 0\n 12692: ecalli 8 // 'seal_return'\n 12694: fallthrough\n      : @490 (gas: 10)\n 12695: a0 = s1 + 0x4958\n 12699: u64 [a0 + 1184] = 0\n 12703: u64 [a0 + 1176] = 0\n 12707: u64 [a0 + 1168] = 0\n 12711: u64 [a0 + 1160] = 0\n 12715: a0 = s1 + 0x5000\n 12719: i32 a0 = a0 + 0xfffffffffffffde0\n 12723: ra = 0x1ea\n 12727: ecalli 11 // 'value_transferred'\n 12729: fallthrough\n      : @491 [@dyn 245] (gas: 3)\n 12730: a3 = s1 + 0x4958\n 12734: a4 = a3 + 0x400\n 12738: t0 = 492, jump @2386\n      : @492 [@dyn 246] (gas: 1)\n 12745: jump @494 if a0 == 0\n      : @493 (gas: 1)\n 12748: jump @1699\n      : @494 (gas: 3)\n 12752: a0 = u64 [s1 + 0x1d8]\n 12756: a0 = i32 [a0]\n 12758: jump @496 if a0 >u 163\n      : @495 (gas: 1)\n 12763: jump @1700\n      : @496 (gas: 7)\n 12767: a0 = s1 + 0x5000\n 12771: i32 a0 = a0 + 0xfffffffffffffe00\n 12775: a1 = 0x4\n 12778: ra = 0x1ee\n 12782: ecalli 1 // 'call_data_load'\n 12784: t0 = 0x1f0\n 12788: jump @2391\n      : @497 [@dyn 247] (gas: 1)\n 12792: t0 = 496, jump @2391\n      : @498 [@dyn 248] (gas: 4)\n 12799: a0 = u64 [a3 + 0xc0]\n 12803: a1 = u64 [a3 + 0xb8]\n 12807: a2 = u64 [a3 + 0xb0]\n 12811: t0 = 498, jump @2297\n      : @499 [@dyn 249] (gas: 1)\n 12818: jump @501 if a4 != 0\n      : @500 (gas: 1)\n 12821: jump @1701\n      : @501 (gas: 26)\n 12825: a3 = u64 [a5 + 0x4a8]\n 12829: a4 = u64 [s1 + 0x1d8]\n 12833: t0 = u32 [a4]\n 12835: a5 = a3 + 0x4\n 12838: a3 = a5 <u a3\n 12841: a4 = a2 + a3\n 12844: a2 = a4 <u a2\n 12847: a2 = a3 if a3 == 0\n 12850: a2 = a2 + a1\n 12853: a1 = a2 <u a1\n 12856: a3 = a0 + a1\n 12859: a0 = s1 + 0x3958\n 12863: u64 [a0 + 512] = 0\n 12867: u64 [a0 + 504] = 0\n 12871: u64 [a0 + 496] = 0\n 12875: u64 [a0 + 0x1e8] = t0\n 12879: a1 = a0 + 0x200\n 12883: u64 [a1 + 0x8] = a5\n 12886: u64 [a1 + 0x10] = a4\n 12889: u64 [a1 + 0x18] = a2\n 12892: a4 = a0\n 12894: a0 = s1 + 0x3b80\n 12898: a1 = s1 + 0x3b60\n 12902: a2 = s1 + 0x3b40\n 12906: u64 [a4 + 0x220] = a3\n 12910: ra = 500, jump @1956\n      : @502 [@dyn 250] (gas: 18)\n 12917: a1 = s1 + 0x3958\n 12921: a2 = a1 + 0x200\n 12925: a0 = u64 [a2 + 0x40]\n 12928: a1 = s1 + 0x100\n 12932: u64 [a1 + 0xb8] = a0\n 12936: a0 = u64 [a2 + 0x38]\n 12939: u64 [a1 + 0xc0] = a0\n 12943: a0 = u64 [a2 + 0x30]\n 12946: u64 [a1 + 0xc8] = a0\n 12950: a0 = u64 [a2 + 0x28]\n 12953: u64 [a1 + 0xd0] = a0\n 12957: a0 = s1 + 0x5000\n 12961: i32 a0 = a0 + 0xfffffffffffffe20\n 12965: a1 = 0x24\n 12968: ra = 0x1f6\n 12972: ecalli 1 // 'call_data_load'\n 12974: t0 = 0x1f8\n 12978: jump @2391\n      : @503 [@dyn 251] (gas: 1)\n 12982: t0 = 504, jump @2391\n      : @504 [@dyn 252] (gas: 4)\n 12989: a0 = u64 [a3 + 0xe0]\n 12993: a1 = u64 [a3 + 0xd8]\n 12997: a2 = u64 [a3 + 0xd0]\n 13001: t0 = 506, jump @2297\n      : @505 [@dyn 253] (gas: 1)\n 13008: jump @507 if a4 != 0\n      : @506 (gas: 1)\n 13011: jump @1702\n      : @507 (gas: 26)\n 13015: a3 = u64 [a5 + 0x4c8]\n 13019: a4 = u64 [s1 + 0x1d8]\n 13023: t0 = u32 [a4]\n 13025: a5 = a3 + 0x4\n 13028: a3 = a5 <u a3\n 13031: a4 = a2 + a3\n 13034: a2 = a4 <u a2\n 13037: a2 = a3 if a3 == 0\n 13040: a2 = a2 + a1\n 13043: a1 = a2 <u a1\n 13046: a3 = a0 + a1\n 13049: a0 = s1 + 0x3958\n 13053: u64 [a0 + 416] = 0\n 13057: u64 [a0 + 408] = 0\n 13061: u64 [a0 + 400] = 0\n 13065: u64 [a0 + 0x188] = t0\n 13069: a1 = a0 + 0x100\n 13073: u64 [a1 + 0xa8] = a5\n 13077: u64 [a1 + 0xb0] = a4\n 13081: u64 [a1 + 0xb8] = a2\n 13085: a4 = a0\n 13087: a0 = s1 + 0x3b20\n 13091: a1 = s1 + 0x3b00\n 13095: a2 = s1 + 0x3ae0\n 13099: u64 [a4 + 0x1c0] = a3\n 13103: ra = 508, jump @1956\n      : @508 [@dyn 254] (gas: 1)\n 13110: t0 = 510, jump @2390\n      : @509 [@dyn 255] (gas: 15)\n 13117: a0 = u64 [a2 + 0xe0]\n 13121: a1 = s1 + 0x100\n 13125: u64 [a1 + 0x70] = a0\n 13128: a0 = u64 [a2 + 0xd8]\n 13132: u64 [a1 + 0x68] = a0\n 13135: a0 = u64 [a2 + 0xd0]\n 13139: u64 [a1 + 0x60] = a0\n 13142: a0 = u64 [a2 + 0xc8]\n 13146: u64 [a1 + 0x58] = a0\n 13149: a0 = s1 + 0x5000\n 13153: i32 a0 = a0 + 0xfffffffffffffe40\n 13157: a1 = 0x44\n 13160: ra = 0x200\n 13164: ecalli 1 // 'call_data_load'\n 13166: fallthrough\n      : @510 [@dyn 256] (gas: 5)\n 13167: a5 = s1 + 0x4958\n 13171: a0 = u64 [a5 + 0x500]\n 13175: a1 = u64 [a5 + 0x4f8]\n 13179: a2 = u64 [a5 + 0x4f0]\n 13183: t0 = 514, jump @2297\n      : @511 [@dyn 257] (gas: 1)\n 13190: jump @513 if a4 != 0\n      : @512 (gas: 1)\n 13193: jump @1703\n      : @513 (gas: 26)\n 13197: a3 = u64 [a5 + 0x4e8]\n 13201: a4 = u64 [s1 + 0x1d8]\n 13205: t0 = u32 [a4]\n 13207: a5 = a3 + 0x4\n 13210: a3 = a5 <u a3\n 13213: a4 = a2 + a3\n 13216: a2 = a4 <u a2\n 13219: a2 = a3 if a3 == 0\n 13222: a2 = a2 + a1\n 13225: a1 = a2 <u a1\n 13228: a3 = a0 + a1\n 13231: a0 = s1 + 0x3958\n 13235: u64 [a0 + 320] = 0\n 13239: u64 [a0 + 312] = 0\n 13243: u64 [a0 + 304] = 0\n 13247: u64 [a0 + 0x128] = t0\n 13251: a1 = a0 + 0x100\n 13255: u64 [a1 + 0x48] = a5\n 13258: u64 [a1 + 0x50] = a4\n 13261: u64 [a1 + 0x58] = a2\n 13264: a4 = a0\n 13266: a0 = s1 + 0x3ac0\n 13270: a1 = s1 + 0x3aa0\n 13274: a2 = s1 + 0x3a80\n 13278: u64 [a4 + 0x160] = a3\n 13282: ra = 516, jump @1956\n      : @514 [@dyn 258] (gas: 1)\n 13289: t0 = 518, jump @2390\n      : @515 [@dyn 259] (gas: 15)\n 13296: a0 = u64 [a2 + 0x80]\n 13300: a1 = s1 + 0x100\n 13304: u64 [a1 + 0x98] = a0\n 13308: a0 = u64 [a2 + 0x78]\n 13311: u64 [a1 + 0xa0] = a0\n 13315: a0 = u64 [a2 + 0x70]\n 13318: u64 [a1 + 0xa8] = a0\n 13322: a0 = u64 [a2 + 0x68]\n 13325: u64 [a1 + 0xb0] = a0\n 13329: a0 = s1 + 0x5000\n 13333: i32 a0 = a0 + 0xfffffffffffffe60\n 13337: a1 = 0x64\n 13340: ra = 0x208\n 13344: ecalli 1 // 'call_data_load'\n 13346: fallthrough\n      : @516 [@dyn 260] (gas: 6)\n 13347: a5 = s1 + 0x4958\n 13351: a3 = a5 + 0x500\n 13355: a0 = u64 [a3 + 0x20]\n 13358: a1 = u64 [a3 + 0x18]\n 13361: a2 = u64 [a3 + 0x10]\n 13364: t0 = 522, jump @2297\n      : @517 [@dyn 261] (gas: 1)\n 13371: jump @519 if a4 != 0\n      : @518 (gas: 1)\n 13374: jump @1704\n      : @519 (gas: 25)\n 13378: a3 = u64 [a5 + 0x508]\n 13382: a4 = u64 [s1 + 0x1d8]\n 13386: t0 = u32 [a4]\n 13388: a5 = a3 + 0x4\n 13391: a3 = a5 <u a3\n 13394: a4 = a2 + a3\n 13397: a2 = a4 <u a2\n 13400: a2 = a3 if a3 == 0\n 13403: a2 = a2 + a1\n 13406: a1 = a2 <u a1\n 13409: a3 = a0 + a1\n 13412: a0 = s1 + 0x3958\n 13416: u64 [a0 + 224] = 0\n 13420: u64 [a0 + 216] = 0\n 13424: u64 [a0 + 208] = 0\n 13428: u64 [a0 + 0xc8] = t0\n 13432: u64 [a0 + 0xe8] = a5\n 13436: u64 [a0 + 0xf0] = a4\n 13440: u64 [a0 + 0xf8] = a2\n 13444: a4 = a0\n 13446: a0 = s1 + 0x3a60\n 13450: a1 = s1 + 0x3a40\n 13454: a2 = s1 + 0x3a20\n 13458: u64 [a4 + 0x100] = a3\n 13462: ra = 524, jump @1956\n      : @520 [@dyn 262] (gas: 1)\n 13469: t0 = 526, jump @2390\n      : @521 [@dyn 263] (gas: 15)\n 13476: a0 = u64 [a2 + 0x20]\n 13479: a1 = s1 + 0x100\n 13483: u64 [a1 + 0x90] = a0\n 13487: a0 = u64 [a2 + 0x18]\n 13490: u64 [a1 + 0x88] = a0\n 13494: a0 = u64 [a2 + 0x10]\n 13497: u64 [a1 + 0x80] = a0\n 13501: a0 = u64 [a2 + 0x8]\n 13504: u64 [a1 + 0x78] = a0\n 13507: a0 = s1 + 0x5000\n 13511: i32 a0 = a0 + 0xfffffffffffffe80\n 13515: a1 = 0x84\n 13519: ra = 0x210\n 13523: ecalli 1 // 'call_data_load'\n 13525: fallthrough\n      : @522 [@dyn 264] (gas: 6)\n 13526: a5 = s1 + 0x4958\n 13530: a3 = a5 + 0x500\n 13534: a0 = u64 [a3 + 0x40]\n 13537: a1 = u64 [a3 + 0x38]\n 13540: a2 = u64 [a3 + 0x30]\n 13543: t0 = 530, jump @2297\n      : @523 [@dyn 265] (gas: 1)\n 13550: jump @525 if a4 != 0\n      : @524 (gas: 1)\n 13553: jump @1705\n      : @525 (gas: 25)\n 13557: a3 = u64 [a5 + 0x528]\n 13561: a4 = u64 [s1 + 0x1d8]\n 13565: t0 = u32 [a4]\n 13567: a5 = a3 + 0x4\n 13570: a3 = a5 <u a3\n 13573: a4 = a2 + a3\n 13576: a2 = a4 <u a2\n 13579: a2 = a3 if a3 == 0\n 13582: a2 = a2 + a1\n 13585: a1 = a2 <u a1\n 13588: a3 = a0 + a1\n 13591: a0 = s1 + 0x3958\n 13595: u64 [a0 + 128] = 0\n 13599: u64 [a0 + 120] = 0\n 13602: u64 [a0 + 112] = 0\n 13605: u64 [a0 + 0x68] = t0\n 13608: u64 [a0 + 0x88] = a5\n 13612: u64 [a0 + 0x90] = a4\n 13616: u64 [a0 + 0x98] = a2\n 13620: a4 = a0\n 13622: a0 = s1 + 0x3a00\n 13626: a1 = s1 + 0x39e0\n 13630: a2 = s1 + 0x39c0\n 13634: u64 [a4 + 0xa0] = a3\n 13638: ra = 532, jump @1956\n      : @526 [@dyn 266] (gas: 10)\n 13645: a1 = s1 + 0x3958\n 13649: a0 = u64 [a1 + 0xc0]\n 13653: u64 [s1 + 0x1d8] = a0\n 13657: a0 = u64 [a1 + 0xb8]\n 13661: u64 [s1 + 0x150] = a0\n 13665: a0 = u64 [a1 + 0xb0]\n 13669: u64 [s1 + 0x148] = a0\n 13673: a0 = u64 [a1 + 0xa8]\n 13677: u64 [s1 + 0x140] = a0\n 13681: ra = 534, jump @2242\n      : @527 [@dyn 267] (gas: 13)\n 13688: a5 = s1 + 0x100\n 13692: a1 = u64 [a5 + 0xd0]\n 13696: a3 = u64 [a5 + 0xc0]\n 13700: a0 = a1 | a3\n 13703: a2 = u64 [a5 + 0xc8]\n 13707: a4 = u64 [a5 + 0xb8]\n 13711: a2 = a2 | a4\n 13714: a0 = a0 | a2\n 13717: a0 = a0 >> 0x20\n 13720: a2 = a2 | a3\n 13723: a2 = a2 << 0x20\n 13726: a0 = a0 | a2\n 13729: jump @529 if a0 == 0\n      : @528 (gas: 1)\n 13732: jump @1318\n      : @529 (gas: 2)\n 13735: a0 = s1 + 0x39a0\n 13739: ra = 536, jump @17\n      : @530 [@dyn 268] (gas: 9)\n 13745: a3 = s1 + 0x3958\n 13749: a0 = u64 [a3 + 0x58]\n 13752: a1 = u64 [a3 + 0x60]\n 13755: a2 = u64 [a3 + 0x50]\n 13758: a3 = u64 [a3 + 0x48]\n 13761: a1 = a1 | a2\n 13764: a0 = a0 | a3\n 13767: a0 = a0 | a1\n 13770: jump @532 if a0 == 0\n      : @531 (gas: 1)\n 13773: jump @939\n      : @532 (gas: 3)\n 13776: a0 = s1 + 0x2740\n 13780: a1 = 0x40\n 13783: ra = 538, jump @17\n      : @533 [@dyn 269] (gas: 14)\n 13789: a2 = s1 + 0x2158\n 13793: t0 = u64 [a2 + 0x600]\n 13797: a1 = a2 + 0x500\n 13801: a5 = u64 [a1 + 0xf8]\n 13805: a4 = u64 [a1 + 0xf0]\n 13809: a0 = u64 [a1 + 0xe8]\n 13813: a3 = a4 | t0\n 13816: a1 = a0 | a5\n 13819: a1 = a1 | a3\n 13822: a1 = a1 >> 0x20\n 13825: a3 = a3 | a5\n 13828: a3 = a3 << 0x20\n 13831: a1 = a1 | a3\n 13834: jump @535 if a1 == 0\n      : @534 (gas: 1)\n 13837: jump @1318\n      : @535 (gas: 11)\n 13840: u64 [a2 + 1496] = 0\n 13844: u64 [a2 + 1488] = 0\n 13848: u64 [a2 + 1480] = 0\n 13852: a3 = 0x8c379a000000000\n 13862: a1 = s1 + 0x2720\n 13866: u64 [a2 + 0x5e0] = a3\n 13870: u64 [s1 + 0x1d8] = a0\n 13874: u64 [s1 + 0x1d0] = a4\n 13878: u64 [s1 + 0x1c0] = t0\n 13882: u64 [s1 + 0x1c8] = a5\n 13886: ra = 540, jump @19\n      : @536 [@dyn 270] (gas: 1)\n 13892: t0 = 542, jump @2326\n      : @537 [@dyn 271] (gas: 1)\n 13899: jump @539 if a0 != 0\n      : @538 (gas: 1)\n 13902: jump @1318\n      : @539 (gas: 1)\n 13905: t0 = 544, jump @2380\n      : @540 [@dyn 272] (gas: 8)\n 13912: u64 [a2 + 1472] = 0\n 13916: u64 [a2 + 1464] = 0\n 13920: u64 [a2 + 1448] = 0x20\n 13925: a1 = s1 + 0x2700\n 13929: u64 [a2 + 1456] = 0\n 13933: u64 [s1 + 0x1c8] = a3\n 13937: u64 [s1 + 0x1c0] = a4\n 13941: ra = 546, jump @19\n      : @541 [@dyn 273] (gas: 6)\n 13947: a4 = s1 + 0x100\n 13951: a3 = u64 [a4 + 0xc8]\n 13955: a2 = u64 [a4 + 0xd0]\n 13959: a1 = u64 [a4 + 0xd8]\n 13963: a0 = u64 [a4 + 0xc0]\n 13967: t0 = 548, jump @2358\n      : @542 [@dyn 274] (gas: 1)\n 13974: jump @544 if a0 != 0\n      : @543 (gas: 1)\n 13977: jump @1318\n      : @544 (gas: 8)\n 13980: i32 a0 = a1 + 0x24\n 13983: a3 = s1 + 0x2158\n 13987: u64 [a3 + 1440] = 0\n 13991: u64 [a3 + 1432] = 0\n 13995: u64 [a3 + 1416] = 0x17\n 14000: a1 = s1 + 0x26e0\n 14004: u64 [a3 + 1424] = 0\n 14008: ra = 550, jump @19\n      : @545 [@dyn 275] (gas: 1)\n 14014: t0 = 552, jump @2338\n      : @546 [@dyn 276] (gas: 1)\n 14021: jump @548 if a0 != 0\n      : @547 (gas: 1)\n 14024: jump @1318\n      : @548 (gas: 13)\n 14027: i32 a0 = a3 + 0x44\n 14030: a1 = u64 [0x200d0]\n 14035: a2 = u64 [0x200d8]\n 14040: a3 = u64 [0x200e0]\n 14045: a4 = s1 + 0x2158\n 14049: a5 = a4 + 0x500\n 14053: u64 [a5 + 0x80] = a1\n 14057: u64 [a5 + 0x78] = a2\n 14060: u64 [a5 + 0x70] = a3\n 14063: a1 = s1 + 0x26c0\n 14067: u64 [a4 + 1384] = 0\n 14071: ra = 0x402\n 14075: jump @19\n      : @549 (gas: 8)\n 14078: u64 [a2 + 128] = 0\n 14082: u64 [a2 + 120] = 0\n 14085: u64 [a2 + 112] = 0\n 14088: u64 [a2 + 104] = 0\n 14091: a0 = s1 + 0x5000\n 14095: i32 a0 = a0 + 0xfffffffffffff9c0\n 14099: ecalli 11 // 'value_transferred'\n 14101: fallthrough\n      : @550 (gas: 9)\n 14102: a3 = s1 + 0x4958\n 14106: a0 = u64 [a3 + 0x78]\n 14109: a1 = u64 [a3 + 0x80]\n 14113: a2 = u64 [a3 + 0x70]\n 14116: a3 = u64 [a3 + 0x68]\n 14119: a1 = a1 | a2\n 14122: a0 = a0 | a3\n 14125: a0 = a0 | a1\n 14128: jump @552 if a0 == 0\n      : @551 (gas: 1)\n 14131: jump @1706\n      : @552 (gas: 3)\n 14135: a0 = u64 [s1 + 0x1d8]\n 14139: a0 = i32 [a0]\n 14141: jump @554 if a0 >u 67\n      : @553 (gas: 1)\n 14145: jump @1707\n      : @554 (gas: 6)\n 14149: a0 = s1 + 0x5000\n 14153: i32 a0 = a0 + 0xfffffffffffff9e0\n 14157: a1 = 0x4\n 14160: ra = 0x22a\n 14164: ecalli 1 // 'call_data_load'\n 14166: fallthrough\n      : @555 [@dyn 277] (gas: 5)\n 14167: a5 = s1 + 0x4958\n 14171: a0 = u64 [a5 + 0xa0]\n 14175: a1 = u64 [a5 + 0x98]\n 14179: a2 = u64 [a5 + 0x90]\n 14183: t0 = 556, jump @2297\n      : @556 [@dyn 278] (gas: 1)\n 14190: jump @558 if a4 != 0\n      : @557 (gas: 1)\n 14193: jump @1708\n      : @558 (gas: 25)\n 14197: a3 = u64 [a5 + 0x88]\n 14201: a4 = u64 [s1 + 0x1d8]\n 14205: t0 = u32 [a4]\n 14207: a5 = a3 + 0x4\n 14210: a3 = a5 <u a3\n 14213: a4 = a2 + a3\n 14216: a2 = a4 <u a2\n 14219: a2 = a3 if a3 == 0\n 14222: a2 = a2 + a1\n 14225: a1 = a2 <u a1\n 14228: a3 = a0 + a1\n 14231: a0 = s1 + 0x1958\n 14235: u64 [a0 + 64] = 0\n 14238: u64 [a0 + 56] = 0\n 14241: u64 [a0 + 48] = 0\n 14244: u64 [a0 + 0x28] = t0\n 14247: u64 [a0 + 0x48] = a5\n 14250: u64 [a0 + 0x50] = a4\n 14253: u64 [a0 + 0x58] = a2\n 14256: a4 = a0\n 14258: a0 = s1 + 0x19c0\n 14262: a1 = s1 + 0x19a0\n 14266: a2 = s1 + 0x1980\n 14270: u64 [a4 + 0x60] = a3\n 14273: ra = 558, jump @1956\n      : @559 [@dyn 279] (gas: 16)\n 14280: a1 = s1 + 0x1958\n 14284: a0 = u64 [a1 + 0x80]\n 14288: a2 = s1 + 0x100\n 14292: u64 [a2 + 0x30] = a0\n 14295: a0 = u64 [a1 + 0x78]\n 14298: u64 [a2 + 0x38] = a0\n 14301: a0 = u64 [a1 + 0x70]\n 14304: u64 [a2 + 0x40] = a0\n 14307: a0 = u64 [a1 + 0x68]\n 14310: u64 [a2 + 0x48] = a0\n 14313: a0 = s1 + 0x5000\n 14317: i32 a0 = a0 + 0xfffffffffffffa00\n 14321: a1 = 0x24\n 14324: ra = 0x230\n 14328: ecalli 1 // 'call_data_load'\n 14330: fallthrough\n      : @560 [@dyn 280] (gas: 5)\n 14331: a5 = s1 + 0x4958\n 14335: a0 = u64 [a5 + 0xc0]\n 14339: a1 = u64 [a5 + 0xb8]\n 14343: a2 = u64 [a5 + 0xb0]\n 14347: t0 = 562, jump @2297\n      : @561 [@dyn 281] (gas: 1)\n 14354: jump @563 if a4 != 0\n      : @562 (gas: 1)\n 14357: jump @1709\n      : @563 (gas: 26)\n 14361: a3 = u64 [a5 + 0xa8]\n 14365: a4 = u64 [s1 + 0x1d8]\n 14369: t0 = u32 [a4]\n 14371: a5 = a3 + 0x4\n 14374: a3 = a5 <u a3\n 14377: a4 = a2 + a3\n 14380: a2 = a4 <u a2\n 14383: a2 = a3 if a3 == 0\n 14386: a2 = a2 + a1\n 14389: a1 = a2 <u a1\n 14392: a3 = a0 + a1\n 14395: a0 = s1 + 0x1158\n 14399: u64 [a0 + 2016] = 0\n 14403: u64 [a0 + 2008] = 0\n 14407: u64 [a0 + 2000] = 0\n 14411: u64 [a0 + 0x7c8] = t0\n 14415: a1 = a0 + 0x700\n 14419: u64 [a1 + 0xe8] = a5\n 14423: u64 [a1 + 0xf0] = a4\n 14427: u64 [a1 + 0xf8] = a2\n 14431: a0 = s1 + 0x1960\n 14435: a1 = s1 + 0x1940\n 14439: a2 = s1 + 0x1920\n 14443: a4 = s1 + 0x1958\n 14447: u64 [a4] = a3\n 14449: ra = 564, jump @1956\n      : @564 [@dyn 282] (gas: 10)\n 14456: a1 = s1 + 0x1958\n 14460: a0 = u64 [a1 + 0x20]\n 14463: u64 [s1 + 0x158] = a0\n 14467: a0 = u64 [a1 + 0x18]\n 14470: u64 [s1 + 0x160] = a0\n 14474: a0 = u64 [a1 + 0x10]\n 14477: u64 [s1 + 0x168] = a0\n 14481: a0 = u64 [a1 + 0x8]\n 14484: u64 [s1 + 0x170] = a0\n 14488: ra = 566, jump @2242\n      : @565 [@dyn 283] (gas: 3)\n 14495: a0 = s1 + 0x1900\n 14499: a1 = 0x40\n 14502: ra = 568, jump @17\n      : @566 [@dyn 284] (gas: 13)\n 14508: a5 = s1 + 0x100\n 14512: a2 = u64 [a5 + 0x38]\n 14515: a4 = u64 [a5 + 0x48]\n 14518: a0 = a4 | a2\n 14521: a1 = u64 [a5 + 0x30]\n 14524: a3 = u64 [a5 + 0x40]\n 14527: a1 = a1 | a3\n 14530: a0 = a0 | a1\n 14533: a0 = a0 >> 0x20\n 14536: a1 = a1 | a2\n 14539: a1 = a1 << 0x20\n 14542: a0 = a0 | a1\n 14545: jump @568 if a0 == 0\n      : @567 (gas: 1)\n 14548: jump @1318\n      : @568 (gas: 25)\n 14551: a1 = a4\n 14553: a4 = s1 + 0x1158\n 14557: a5 = a4 + 0x700\n 14561: a0 = u64 [a5 + 0xa8]\n 14565: a3 = u64 [a5 + 0xc0]\n 14569: a2 = u64 [a5 + 0xb0]\n 14573: a4 = u64 [a5 + 0xb8]\n 14577: a5 = a0 + 0x20\n 14580: u64 [s1 + 0x1d8] = a5\n 14584: u64 [s1 + 0x1b8] = a0\n 14588: a0 = a5 <u a0\n 14591: a5 = a2 + a0\n 14594: u64 [s1 + 0x1c0] = a5\n 14598: u64 [s1 + 0x1b0] = a2\n 14602: a2 = a5 <u a2\n 14605: a2 = a0 if a0 == 0\n 14608: a2 = a2 + a4\n 14611: u64 [s1 + 0x1d0] = a2\n 14615: u64 [s1 + 0x1a0] = a4\n 14619: a0 = a2 <u a4\n 14622: u64 [s1 + 0x1a8] = a3\n 14626: a0 = a0 + a3\n 14629: u64 [s1 + 0x1c8] = a0\n 14633: a0 = s1 + 0x18e0\n 14637: ra = 570, jump @17\n      : @569 [@dyn 285] (gas: 7)\n 14643: a4 = s1 + 0x100\n 14647: a2 = u64 [a4 + 0xd0]\n 14651: a0 = u64 [a4 + 0xd8]\n 14655: a0 = a0 | a2\n 14658: a1 = u64 [a4 + 0xc0]\n 14662: a3 = u64 [a4 + 0xc8]\n 14666: t0 = 572, jump @2324\n      : @570 [@dyn 286] (gas: 1)\n 14673: jump @572 if a0 == 0\n      : @571 (gas: 1)\n 14676: jump @1318\n      : @572 (gas: 11)\n 14679: a4 = s1 + 0x100\n 14683: a0 = u64 [a4 + 0x38]\n 14686: a1 = u64 [a4 + 0x30]\n 14689: a0 = a0 | a1\n 14692: a1 = 0xffffffe0\n 14702: a3 = u64 [a4 + 0x48]\n 14705: a1 = a3 <u a1\n 14708: a2 = u64 [a4 + 0x40]\n 14711: a1 = 0 if a2 != 0\n 14713: a1 = 0 if a0 != 0\n 14715: jump @574 if a1 != 0\n      : @573 (gas: 1)\n 14718: jump @1318\n      : @574 (gas: 15)\n 14721: a2 = a3\n 14723: a0 = s1 + 0x1158\n 14727: t0 = u64 [a0 + 0x7a0]\n 14731: a5 = a0 + 0x700\n 14735: a4 = u64 [a5 + 0x98]\n 14739: a1 = u64 [a5 + 0x88]\n 14743: a3 = u64 [a5 + 0x90]\n 14747: a0 = a1 | a4\n 14750: a5 = a3 | t0\n 14753: a0 = a0 | a5\n 14756: a0 = a0 >> 0x20\n 14759: a5 = a5 | a4\n 14762: a5 = a5 << 0x20\n 14765: a0 = a0 | a5\n 14768: jump @576 if a0 == 0\n      : @575 (gas: 1)\n 14771: jump @1318\n      : @576 (gas: 8)\n 14774: i32 a0 = a2 + 0x20\n 14777: u64 [s1 + 0x178] = a0\n 14781: a0 = u64 [s1 + 0x1d8]\n 14785: u64 [s1 + 0x190] = t0\n 14789: u64 [s1 + 0x188] = a4\n 14793: u64 [s1 + 0x198] = a1\n 14797: u64 [s1 + 0x180] = a3\n 14801: ra = 574, jump @32\n      : @577 [@dyn 287] (gas: 4)\n 14807: u64 [s1 + 0x150] = a0\n 14811: a0 = u64 [s1 + 0x178]\n 14815: a1 = u64 [s1 + 0x198]\n 14819: ra = 576, jump @32\n      : @578 [@dyn 288] (gas: 4)\n 14825: a1 = a0\n 14827: a0 = u64 [s1 + 0x150]\n 14831: a2 = u64 [s1 + 0x198]\n 14835: ra = 578, jump @0\n      : @579 [@dyn 289] (gas: 7)\n 14841: a1 = u64 [s1 + 0x1d8]\n 14845: a0 = u64 [s1 + 0x198]\n 14849: a0 = a0 + a1\n 14852: a1 = a0 <u a1\n 14855: a2 = u64 [s1 + 0x180]\n 14859: a4 = u64 [s1 + 0x1c0]\n 14863: t0 = 580, jump @2308\n      : @580 [@dyn 290] (gas: 9)\n 14870: a1 = u64 [s1 + 0x188]\n 14874: a3 = u64 [s1 + 0x1d0]\n 14878: a1 = a1 + a3\n 14881: t0 = a1 <u a3\n 14884: a5 = u64 [s1 + 0x190]\n 14888: a3 = u64 [s1 + 0x1c8]\n 14892: a5 = a5 + a3\n 14895: a3 = a5 + t0\n 14898: t0 = 582, jump @2269\n      : @581 [@dyn 291] (gas: 1)\n 14905: jump @583 if a1 == 0\n      : @582 (gas: 1)\n 14908: jump @1318\n      : @583 (gas: 7)\n 14911: a2 = s1 + 0x1158\n 14915: u64 [a2 + 1920] = 0\n 14919: u64 [a2 + 1912] = 0\n 14923: u64 [a2 + 1904] = 0\n 14927: a1 = s1 + 0x18c0\n 14931: u64 [a2 + 1896] = 0\n 14935: ra = 584, jump @19\n      : @584 [@dyn 292] (gas: 12)\n 14941: a0 = u64 [s1 + 0x1b8]\n 14945: a5 = u64 [s1 + 0x1a0]\n 14949: a2 = a0 | a5\n 14952: t2 = u64 [s1 + 0x1b0]\n 14956: t1 = u64 [s1 + 0x1a8]\n 14960: a1 = t2 | t1\n 14963: a2 = a2 | a1\n 14966: a2 = a2 >> 0x20\n 14969: a1 = a1 | a5\n 14972: a1 = a1 << 0x20\n 14975: a1 = a1 | a2\n 14978: jump @586 if a1 == 0\n      : @585 (gas: 1)\n 14981: jump @1318\n      : @586 (gas: 23)\n 14984: ra = u64 [s1 + 0x198]\n 14988: a1 = ra + 0x20\n 14991: u64 [s1 + 0x1c8] = a1\n 14995: t0 = a1 <u ra\n 14998: a3 = u64 [s1 + 0x180]\n 15002: a1 = a3 + t0\n 15005: u64 [s1 + 0x1c0] = a1\n 15009: a1 = a1 <u a3\n 15012: a1 = t0 if t0 == 0\n 15015: a2 = u64 [s1 + 0x188]\n 15019: a1 = a1 + a2\n 15022: u64 [s1 + 0x178] = a1\n 15026: a1 = a1 <u a2\n 15029: t0 = u64 [s1 + 0x190]\n 15033: a1 = a1 + t0\n 15036: u64 [s1 + 0x1d0] = a1\n 15040: a4 = s1 + 0x1158\n 15044: u64 [a4 + 0x748] = ra\n 15048: u64 [a4 + 0x750] = a3\n 15052: u64 [a4 + 0x758] = a2\n 15056: a1 = s1 + 0x18a0\n 15060: u64 [a4 + 0x760] = t0\n 15064: ra = 586, jump @19\n      : @587 [@dyn 293] (gas: 22)\n 15070: a0 = s1 + 0x1158\n 15074: a1 = u64 [s1 + 0x178]\n 15078: a2 = a0 + 0x700\n 15082: u64 [a2 + 0x18] = a1\n 15085: a1 = u64 [s1 + 0x1c0]\n 15089: u64 [a2 + 0x10] = a1\n 15092: a1 = u64 [s1 + 0x1c8]\n 15096: u64 [a2 + 0x8] = a1\n 15099: a1 = u64 [s1 + 0x1a8]\n 15103: u64 [a2 + 0x40] = a1\n 15106: a1 = u64 [s1 + 0x1a0]\n 15110: u64 [a2 + 0x38] = a1\n 15113: a1 = u64 [s1 + 0x1b0]\n 15117: u64 [a2 + 0x30] = a1\n 15120: a1 = u64 [s1 + 0x1b8]\n 15124: u64 [a2 + 0x28] = a1\n 15127: a3 = a0\n 15129: a0 = s1 + 0x1880\n 15133: a1 = s1 + 0x1860\n 15137: a2 = u64 [s1 + 0x1d0]\n 15141: u64 [a3 + 0x720] = a2\n 15145: ra = 588, jump @1946\n      : @588 [@dyn 294] (gas: 3)\n 15152: a0 = s1 + 0x1840\n 15156: a1 = u64 [s1 + 0x1b8]\n 15160: ra = 590, jump @17\n      : @589 [@dyn 295] (gas: 8)\n 15166: a1 = s1 + 0x1158\n 15170: a0 = u64 [a1 + 0x700]\n 15174: a4 = a1 + 0x600\n 15178: a3 = u64 [a4 + 0xf8]\n 15182: a2 = u64 [a4 + 0xf0]\n 15186: a1 = u64 [a4 + 0xe8]\n 15190: a0 = a0 | a2\n 15193: t0 = 592, jump @2290\n      : @590 [@dyn 296] (gas: 1)\n 15200: jump @592 if a0 == 0\n      : @591 (gas: 1)\n 15203: jump @1318\n      : @592 (gas: 3)\n 15206: a0 = u64 [s1 + 0x1d8]\n 15210: u64 [s1 + 0x1d8] = a1\n 15214: ra = 594, jump @32\n      : @593 [@dyn 297] (gas: 1)\n 15220: t0 = 596, jump @2288\n      : @594 [@dyn 298] (gas: 23)\n 15227: ecalli 6 // 'hash_keccak_256'\n 15229: a3 = u64 [s1 + 0x1d0]\n 15233: a0 = u64 [a3 + 0x18]\n 15236: a1 = u64 [a3 + 0x10]\n 15239: a2 = u64 [a3 + 0x8]\n 15242: a3 = u64 [a3]\n 15244: a4 = reverse a0\n 15246: a5 = reverse a1\n 15248: a0 = reverse a2\n 15250: a1 = reverse a3\n 15252: a3 = s1 + 0x100\n 15256: u64 [a3 + 0x10] = a1\n 15259: a2 = s1 + 0x1158\n 15263: u64 [a2 + 0x6e0] = a1\n 15267: u64 [a3 + 0x18] = a0\n 15270: u64 [a2 + 0x6d8] = a0\n 15274: u64 [a3] = a5\n 15276: u64 [a2 + 0x6d0] = a5\n 15280: a1 = s1 + 0x1820\n 15284: u64 [a3 + 0x8] = a4\n 15287: u64 [a2 + 0x6c8] = a4\n 15291: a0 = 0\n 15293: ra = 598, jump @19\n      : @595 [@dyn 299] (gas: 9)\n 15299: a0 = s1 + 0x1158\n 15303: u64 [a0 + 1728] = 0\n 15307: u64 [a0 + 1720] = 0\n 15311: u64 [a0 + 1712] = 0\n 15315: a3 = a0\n 15317: a0 = 0x20\n 15320: a1 = s1 + 0x1800\n 15324: u64 [a3 + 1704] = 0x1\n 15329: ra = 600, jump @19\n      : @596 [@dyn 300] (gas: 3)\n 15335: a1 = 0x201a4\n 15340: a0 = i32 [0x201a4]\n 15345: jump @598 if a0 >u 63\n      : @597 (gas: 3)\n 15349: u32 [0x201a4] = 0x40\n 15355: t0 = 0x25a\n 15359: jump @2400\n      : @598 (gas: 1)\n 15363: t0 = 602, jump @2400\n      : @599 [@dyn 301] (gas: 11)\n 15370: a0 = 0x201b0\n 15375: i32 a0 = a0 + 0\n 15377: u64 [s1 + 0x120] = a1\n 15381: i32 a2 = a2 + 0\n 15383: a1 = 0x40\n 15386: u64 [s1 + 0x128] = a0\n 15390: ra = 0x25c\n 15394: ecalli 6 // 'hash_keccak_256'\n 15396: a3 = u64 [s1 + 0x1d8]\n 15400: t0 = 0x25e\n 15404: jump @2266\n      : @600 [@dyn 302] (gas: 2)\n 15408: a3 = u64 [s1 + 0x1d8]\n 15412: t0 = 606, jump @2266\n      : @601 [@dyn 303] (gas: 7)\n 15419: u64 [a1 + 0xc8] = a4\n 15423: u64 [a1 + 0xd0] = a5\n 15427: u64 [a1 + 0xd8] = a2\n 15431: u64 [a1 + 0xe0] = a0\n 15435: a0 = s1 + 0x17e0\n 15439: a1 = s1 + 0x4a20\n 15443: ra = 608, jump @21\n      : @602 [@dyn 304] (gas: 10)\n 15449: a1 = s1 + 0x1158\n 15453: a0 = u8 [a1 + 0x688]\n 15457: u64 [a1 + 1664] = 0\n 15461: u64 [a1 + 1656] = 0\n 15465: u64 [a1 + 0x668] = a0\n 15469: a0 = s1 + 0x17c0\n 15473: u64 [a1 + 1648] = 0\n 15477: ra = 0x262\n 15481: t0 = 0x91c\n 15485: jump @2351\n      : @603 [@dyn 305] (gas: 13)\n 15489: a0 = u64 [s1 + 0x110]\n 15493: a2 = s1 + 0x1158\n 15497: a3 = a2 + 0x600\n 15501: u64 [a3 + 0x60] = a0\n 15504: a0 = u64 [s1 + 0x118]\n 15508: u64 [a3 + 0x58] = a0\n 15511: a0 = u64 [s1 + 0x100]\n 15515: u64 [a3 + 0x50] = a0\n 15518: a1 = s1 + 0x17a0\n 15522: a0 = u64 [s1 + 0x108]\n 15526: u64 [a3 + 0x48] = a0\n 15529: a0 = 0\n 15531: ra = 612, jump @19\n      : @604 [@dyn 306] (gas: 3)\n 15537: t0 = 0x266\n 15541: a1 = s1 + 0x1158\n 15545: fallthrough\n      : @605 [@dyn 307] (gas: 8)\n 15546: u64 [a1 + 1600] = 0\n 15550: u64 [a1 + 1592] = 0\n 15554: u64 [a1 + 1576] = 0x1\n 15559: a2 = a1\n 15561: a0 = 0x20\n 15564: a1 = s1 + 0x1780\n 15568: u64 [a2 + 1584] = 0\n 15572: ra = 616, jump @19\n      : @606 [@dyn 308] (gas: 3)\n 15578: a1 = u64 [s1 + 0x120]\n 15582: a0 = i32 [a1]\n 15584: jump @608 if a0 >u 63\n      : @607 (gas: 3)\n 15588: u32 [a1 + 0] = 0x40\n 15591: t0 = 0x26a\n 15595: jump @2367\n      : @608 (gas: 1)\n 15599: t0 = 618, jump @2367\n      : @609 [@dyn 309] (gas: 5)\n 15606: ra = 0x26c\n 15610: ecalli 6 // 'hash_keccak_256'\n 15612: a3 = u64 [s1 + 0x1d8]\n 15616: t0 = 0x26e\n 15620: jump @2273\n      : @610 [@dyn 310] (gas: 2)\n 15624: a3 = u64 [s1 + 0x1d8]\n 15628: t0 = 622, jump @2273\n      : @611 [@dyn 311] (gas: 8)\n 15635: a1 = s1 + 0x4958\n 15639: u64 [a1 + 0xe8] = a4\n 15643: u64 [a1 + 0xf0] = a5\n 15647: u64 [a1 + 0xf8] = a2\n 15651: u64 [a1 + 0x100] = a0\n 15655: a0 = s1 + 0x1760\n 15659: a1 = s1 + 0x4a40\n 15663: ra = 624, jump @21\n      : @612 [@dyn 312] (gas: 14)\n 15669: a0 = s1 + 0x1158\n 15673: a1 = u64 [a0 + 0x610]\n 15677: u64 [s1 + 0x1d8] = a1\n 15681: a1 = u64 [a0 + 0x608]\n 15685: u64 [s1 + 0x1d0] = a1\n 15689: a0 = u32 [a0 + 0x618]\n 15693: u64 [s1 + 0x1c8] = a0\n 15697: a0 = 0x301b0\n 15702: u64 [s1 + 0xe8] = a0\n 15706: i32 a0 = a0 + 0\n 15708: u64 [s1 + 0xc8] = a0\n 15712: ra = 0x272\n 15716: ecalli 3 // 'caller'\n 15718: fallthrough\n      : @613 [@dyn 313] (gas: 5)\n 15719: a2 = u64 [s1 + 0xe8]\n 15723: a0 = u64 [a2 + 0x8]\n 15726: a1 = u64 [a2]\n 15728: a2 = i32 [a2 + 0x10]\n 15731: t0 = 628, jump @2284\n      : @614 [@dyn 314] (gas: 18)\n 15738: a2 = u64 [s1 + 0x1c8]\n 15742: a1 = a1 ^ a2\n 15745: a2 = u64 [s1 + 0x1d0]\n 15749: a0 = a0 ^ a2\n 15752: a0 = a0 | a1\n 15755: a1 = u64 [s1 + 0x1d8]\n 15759: a1 = a1 ^ a3\n 15762: a0 = a0 | a1\n 15765: a0 = a0 <u 0x1\n 15768: a1 = s1 + 0x1158\n 15772: u64 [a1 + 1536] = 0\n 15776: u64 [a1 + 1528] = 0\n 15780: u64 [a1 + 0x5e8] = a0\n 15784: a0 = s1 + 0x1740\n 15788: u64 [a1 + 1520] = 0\n 15792: ra = 0x276\n 15796: t0 = 0x936\n 15800: jump @2351\n      : @615 [@dyn 315] (gas: 13)\n 15804: a0 = u64 [s1 + 0x110]\n 15808: a2 = s1 + 0x1158\n 15812: a3 = a2 + 0x500\n 15816: u64 [a3 + 0xe0] = a0\n 15820: a0 = u64 [s1 + 0x118]\n 15824: u64 [a3 + 0xd8] = a0\n 15828: a0 = u64 [s1 + 0x100]\n 15832: u64 [a3 + 0xd0] = a0\n 15836: a1 = s1 + 0x1720\n 15840: a0 = u64 [s1 + 0x108]\n 15844: u64 [a3 + 0xc8] = a0\n 15848: a0 = 0\n 15850: ra = 632, jump @19\n      : @616 [@dyn 316] (gas: 3)\n 15856: t0 = 0x27a\n 15860: a1 = s1 + 0x1158\n 15864: fallthrough\n      : @617 [@dyn 317] (gas: 8)\n 15865: u64 [a1 + 1472] = 0\n 15869: u64 [a1 + 1464] = 0\n 15873: u64 [a1 + 1448] = 0x1\n 15878: a2 = a1\n 15880: a0 = 0x20\n 15883: a1 = s1 + 0x1700\n 15887: u64 [a2 + 1456] = 0\n 15891: ra = 636, jump @19\n      : @618 [@dyn 318] (gas: 7)\n 15897: a1 = u64 [s1 + 0x120]\n 15901: a0 = sp + 0xffffffffffffffe0\n 15904: a0 = a0 & 0xffffffffffffffe0\n 15907: u64 [s1 + 0xf8] = a0\n 15911: sp = a0\n 15913: a0 = i32 [a1]\n 15915: jump @620 if a0 >=u 64\n      : @619 (gas: 3)\n 15919: u32 [a1 + 0] = 0x40\n 15922: t0 = 0x27e\n 15926: jump @2367\n      : @620 (gas: 1)\n 15930: t0 = 638, jump @2367\n      : @621 [@dyn 319] (gas: 2)\n 15937: ecalli 6 // 'hash_keccak_256'\n 15939: fallthrough\n      : @622 (gas: 34)\n 15940: a3 = u64 [s1 + 0x1d8]\n 15944: a0 = u64 [a3]\n 15946: a1 = u64 [a3 + 0x8]\n 15949: a2 = u64 [a3 + 0x10]\n 15952: a3 = u64 [a3 + 0x18]\n 15955: a0 = reverse a0\n 15957: a1 = reverse a1\n 15959: a2 = reverse a2\n 15961: a3 = reverse a3\n 15963: t0 = a3 + 0x8\n 15966: a3 = t0 <u a3\n 15969: t2 = a2 + a3\n 15972: a2 = t2 <u a2\n 15975: a2 = a3 if a3 == 0\n 15978: a5 = a1 + a2\n 15981: a1 = a5 <u a1\n 15984: t1 = a0 + a1\n 15987: a1 = u64 [s1 + 0x170]\n 15991: a3 = u64 [s1 + 0x160]\n 15995: a0 = a1 | a3\n 15998: a2 = u64 [s1 + 0x168]\n 16002: a4 = u64 [s1 + 0x158]\n 16006: a2 = a2 | a4\n 16009: a0 = a0 | a2\n 16012: a0 = a0 >> 0x20\n 16015: a2 = a2 | a3\n 16018: a2 = a2 << 0x20\n 16021: a0 = a0 | a2\n 16024: a2 = u64 [s1 + 0xf8]\n 16028: u64 [a2] = t0\n 16030: u64 [a2 + 0x8] = t2\n 16033: u64 [a2 + 0x10] = a5\n 16036: u64 [a2 + 0x18] = t1\n 16039: jump @624 if a0 == 0\n      : @623 (gas: 1)\n 16042: jump @1318\n      : @624 (gas: 6)\n 16045: u64 [s1 + 0xa8] = a5\n 16049: u64 [s1 + 0xb0] = t1\n 16053: u64 [s1 + 0xb8] = t2\n 16057: u64 [s1 + 0xc0] = t0\n 16061: a0 = s1 + 0x16e0\n 16065: ra = 640, jump @17\n      : @625 [@dyn 320] (gas: 19)\n 16071: a2 = s1 + 0x1158\n 16075: a0 = a2 + 0x500\n 16079: a4 = u64 [a0 + 0xa0]\n 16083: a3 = u64 [a0 + 0x98]\n 16087: a1 = u64 [a0 + 0x90]\n 16091: a0 = a4 >u 0\n 16093: a5 = a3 >u 0\n 16095: a5 = a0 if a4 != 0\n 16098: u64 [s1 + 0xd8] = a1\n 16102: a0 = a1 >u 0\n 16104: u64 [s1 + 0xe0] = a3\n 16108: u64 [s1 + 0xd0] = a4\n 16112: a3 = a3 | a4\n 16115: a1 = s1 + 0x100\n 16119: u64 [a1 + 0x78] = a0\n 16122: u64 [a1 + 0x80] = a5\n 16126: u64 [a1 + 0x90] = a3\n 16130: a0 = a5 if a3 != 0\n 16133: jump @627 if a0 == 0\n      : @626 (gas: 1)\n 16136: jump @1860\n      : @627 (gas: 5)\n 16140: a0 = u64 [a2 + 0x588]\n 16144: u64 [s1 + 0xf0] = a0\n 16148: a0 = s1 + 0x16c0\n 16152: a1 = u64 [s1 + 0xf8]\n 16156: ra = 642, jump @21\n      : @628 [@dyn 321] (gas: 13)\n 16162: a4 = s1 + 0x1158\n 16166: a5 = a4 + 0x500\n 16170: a2 = u64 [a5 + 0x68]\n 16173: a0 = u64 [a5 + 0x70]\n 16176: a1 = u64 [a5 + 0x78]\n 16179: a3 = u64 [a5 + 0x80]\n 16183: u64 [a5 + 0x40] = a3\n 16186: u64 [a5 + 0x38] = a1\n 16189: u64 [a5 + 0x30] = a0\n 16192: a0 = s1 + 0x16a0\n 16196: a1 = s1 + 0x1680\n 16200: u64 [a5 + 0x28] = a2\n 16203: ra = 644, jump @2009\n      : @629 [@dyn 322] (gas: 19)\n 16210: a0 = s1 + 0x1158\n 16214: a1 = a0 + 0x500\n 16218: a3 = u64 [a1 + 0x60]\n 16221: a4 = u64 [a1 + 0x58]\n 16224: a5 = u64 [a1 + 0x50]\n 16227: t0 = u64 [a0 + 0x548]\n 16231: a0 = a3 >u 0\n 16233: a1 = a4 >u 0\n 16235: a1 = a0 if a3 != 0\n 16238: a0 = a5 >u 0\n 16240: a2 = t0 <u 0x20\n 16243: a2 = a2 ^ 0x1\n 16246: a2 = a0 if a5 != 0\n 16249: a0 = a4 | a3\n 16252: a2 = a1 if a0 != 0\n 16255: a0 = u64 [s1 + 0xf0]\n 16259: a0 = a0 <u 0x20\n 16262: u64 [s1 + 0x188] = a0\n 16266: jump @631 if a2 != 0\n      : @630 (gas: 1)\n 16269: jump @1096\n      : @631 (gas: 17)\n 16272: u64 [s1 + 0x1b0] = t0\n 16276: u64 [s1 + 0x1b8] = a5\n 16280: u64 [s1 + 0x1d0] = a4\n 16284: u64 [s1 + 0x1c0] = a3\n 16288: a0 = s1 + 0x1158\n 16292: a1 = u64 [s1 + 0xc0]\n 16296: a3 = a0 + 0x500\n 16300: u64 [a3 + 0x8] = a1\n 16303: a1 = u64 [s1 + 0xb8]\n 16307: u64 [a3 + 0x10] = a1\n 16310: a1 = u64 [s1 + 0xa8]\n 16314: u64 [a3 + 0x18] = a1\n 16317: a1 = s1 + 0x1660\n 16321: a2 = u64 [s1 + 0xb0]\n 16325: u64 [a3 + 0x20] = a2\n 16328: a0 = 0\n 16330: ra = 646, jump @19\n      : @632 [@dyn 323] (gas: 3)\n 16336: a2 = u64 [s1 + 0x120]\n 16340: a0 = i32 [a2]\n 16342: jump @634 if a0 >u 31\n      : @633 (gas: 2)\n 16346: u32 [a2 + 0] = 0x20\n 16349: fallthrough\n      : @634 (gas: 10)\n 16350: a0 = sp + 0xffffffffffffffe0\n 16353: a0 = a0 & 0xffffffffffffffe0\n 16356: u64 [s1 + 0x1c8] = a0\n 16360: sp = a0\n 16362: i32 a2 = a0 + 0\n 16364: a1 = 0x20\n 16367: a0 = u64 [s1 + 0x128]\n 16371: ra = 0x288\n 16375: ecalli 6 // 'hash_keccak_256'\n 16377: fallthrough\n      : @635 [@dyn 324] (gas: 15)\n 16378: a0 = u64 [s1 + 0xf0]\n 16382: a1 = a0 + 0x1f\n 16385: a0 = a1 <u a0\n 16388: a5 = u64 [s1 + 0xd8]\n 16392: a2 = a5 + a0\n 16395: a3 = a2 <u a5\n 16398: a3 = a0 if a0 == 0\n 16401: a4 = u64 [s1 + 0xe0]\n 16405: a3 = a3 + a4\n 16408: u64 [s1 + 0x1a8] = a3\n 16412: a3 = a3 << 0x3b\n 16415: a4 = a2 >> 0x5\n 16418: a4 = a4 | a3\n 16421: a0 = u64 [s1 + 0x1c8]\n 16425: t0 = 650, jump @2301\n      : @636 [@dyn 325] (gas: 4)\n 16432: a1 = u64 [s1 + 0x188]\n 16436: a1 = 0 if a5 != 0\n 16438: a3 = u64 [s1 + 0x190]\n 16442: t0 = 652, jump @2389\n      : @637 [@dyn 326] (gas: 51)\n 16449: t0 = t2 + a0\n 16452: a0 = t0 <u t2\n 16455: a5 = a2 + a0\n 16458: a4 = a4 + a5\n 16461: u64 [s1 + 0x1d8] = a4\n 16465: a5 = a4 ^ a2\n 16468: a3 = a4 <u a2\n 16471: a3 = a0 if a5 == 0\n 16474: u64 [s1 + 0x1a0] = a3\n 16478: a0 = u64 [s1 + 0x1b0]\n 16482: ra = a0 + 0x1f\n 16485: a4 = ra <u a0\n 16488: a3 = u64 [s1 + 0x1b8]\n 16492: a0 = a3 + a4\n 16495: a5 = a0 <u a3\n 16498: a5 = a4 if a4 == 0\n 16501: t1 = u64 [s1 + 0x1d0]\n 16505: t1 = t1 + a5\n 16508: a4 = t1 << 0x3b\n 16511: a3 = a0 >> 0x5\n 16514: a3 = a3 | a4\n 16517: a0 = a0 << 0x3b\n 16520: a4 = ra >> 0x5\n 16523: a0 = a0 | a4\n 16526: a0 = a0 + t2\n 16529: u64 [s1 + 0x1b8] = a0\n 16533: a0 = a0 <u t2\n 16536: t2 = t0\n 16538: a4 = a2 + a0\n 16541: a4 = a4 + a3\n 16544: a3 = a4 ^ a2\n 16547: u64 [s1 + 0x1b0] = a4\n 16551: a2 = a4 <u a2\n 16554: a2 = a0 if a3 == 0\n 16557: a4 = u64 [s1 + 0x1a8]\n 16561: a0 = u64 [s1 + 0xe0]\n 16565: a0 = a4 <u a0\n 16568: a3 = u64 [s1 + 0xd0]\n 16572: a0 = a0 + a3\n 16575: a3 = a4 >> 0x5\n 16578: a4 = a0 << 0x3b\n 16581: a3 = a3 | a4\n 16584: a4 = u64 [s1 + 0x1c8]\n 16588: t0 = u64 [a4]\n 16590: a4 = u64 [a4 + 0x8]\n 16593: a0 = a0 >> 0x5\n 16596: a3 = 0 if a1 != 0\n 16598: a0 = 0 if a1 != 0\n 16600: a1 = reverse a4\n 16602: a4 = reverse t0\n 16604: t0 = 654, jump @2388\n      : @638 [@dyn 327] (gas: 28)\n 16611: ra = u64 [s1 + 0x1a0]\n 16615: ra = ra + a3\n 16618: a3 = ra <u a3\n 16621: t0 = a0 + a3\n 16624: a0 = u64 [s1 + 0x1d0]\n 16628: a0 = t1 <u a0\n 16631: a3 = u64 [s1 + 0x1c0]\n 16635: a0 = a0 + a3\n 16638: a3 = t1 >> 0x5\n 16641: a5 = a0 << 0x3b\n 16644: a3 = a3 | a5\n 16647: a0 = a0 >> 0x5\n 16650: a0 = a0 + a4\n 16653: a5 = s1 + 0x100\n 16657: a4 = u64 [a5 + 0xd8]\n 16661: a3 = a3 + a1\n 16664: a1 = a3 <u a1\n 16667: a0 = a0 + a1\n 16670: a2 = a2 + a3\n 16673: u64 [a5 + 0xa8] = a2\n 16677: a1 = a2 <u a3\n 16680: a0 = a0 + a1\n 16683: u64 [a5 + 0xa0] = a0\n 16687: a0 = sp + 0xffffffffffffffe0\n 16690: t1 = a0 & 0xffffffffffffffe0\n 16693: sp = t1\n 16695: u64 [s1 + 0x198] = t1\n 16699: fallthrough\n      : @639 (gas: 21)\n 16700: a0 = u64 [s1 + 0x1b8]\n 16704: a0 = t2 <u a0\n 16707: a2 = u64 [s1 + 0x1b0]\n 16711: a1 = a4 ^ a2\n 16714: a2 = a4 <u a2\n 16717: a2 = a0 if a1 == 0\n 16720: a5 = u64 [s1 + 0x1a8]\n 16724: a0 = ra <u a5\n 16727: a3 = u64 [s1 + 0x1a0]\n 16731: a1 = t0 ^ a3\n 16734: a3 = t0 <u a3\n 16737: a3 = a0 if a1 == 0\n 16740: a0 = ra ^ a5\n 16743: a0 = a0 | a1\n 16746: a3 = a2 if a0 == 0\n 16749: u64 [t1] = t2\n 16751: u64 [t1 + 0x8] = a4\n 16754: u64 [t1 + 0x10] = ra\n 16757: u64 [t1 + 0x18] = t0\n 16760: a0 = s1 + 0x4958\n 16764: jump @641 if a3 != 0\n      : @640 (gas: 1)\n 16767: jump @1096\n      : @641 (gas: 11)\n 16770: u64 [a0 + 288] = 0\n 16774: u64 [a0 + 280] = 0\n 16778: u64 [a0 + 272] = 0\n 16782: u64 [a0 + 264] = 0\n 16786: a1 = s1 + 0x4a60\n 16790: a0 = t1\n 16792: u64 [s1 + 0x1d0] = t2\n 16796: u64 [s1 + 0x1d8] = a4\n 16800: u64 [s1 + 0x1c8] = t0\n 16804: u64 [s1 + 0x1c0] = ra\n 16808: ra = 656, jump @23\n      : @642 [@dyn 328] (gas: 15)\n 16814: t1 = u64 [s1 + 0x198]\n 16818: t0 = u64 [s1 + 0x1c8]\n 16822: a4 = u64 [s1 + 0x1d8]\n 16826: t2 = u64 [s1 + 0x1d0]\n 16830: t2 = t2 + 0x1\n 16833: a0 = t2 <u 0x1\n 16836: a4 = a4 + a0\n 16839: a0 = t2 | a4\n 16842: a0 = a0 <u 0x1\n 16845: a1 = u64 [s1 + 0x1c0]\n 16849: a0 = a0 + a1\n 16852: a1 = a0 <u a1\n 16855: t0 = t0 + a1\n 16858: ra = a0\n 16860: jump @639\n      : @643 (gas: 11)\n 16863: u64 [a2 + 800] = 0\n 16867: u64 [a2 + 792] = 0\n 16871: u64 [a2 + 784] = 0\n 16875: u64 [a2 + 776] = 0\n 16879: a0 = s1 + 0x5000\n 16883: i32 a0 = a0 + 0x460\n 16887: ra = 0x292\n 16891: ecalli 11 // 'value_transferred'\n 16893: a0 = 0x5158\n 16897: t0 = 0x294\n 16901: jump @2375\n      : @644 [@dyn 329] (gas: 2)\n 16905: a0 = 0x5158\n 16909: t0 = 660, jump @2375\n      : @645 [@dyn 330] (gas: 1)\n 16916: jump @647 if a0 == 0\n      : @646 (gas: 1)\n 16919: jump @1710\n      : @647 (gas: 3)\n 16922: a0 = u64 [s1 + 0x1d8]\n 16926: a0 = i32 [a0]\n 16928: jump @649 if a0 >u 35\n      : @648 (gas: 1)\n 16932: jump @1711\n      : @649 (gas: 6)\n 16935: a0 = s1 + 0x5000\n 16939: i32 a0 = a0 + 0x480\n 16943: a1 = 0x4\n 16946: ra = 0x296\n 16950: ecalli 1 // 'call_data_load'\n 16952: fallthrough\n      : @650 [@dyn 331] (gas: 6)\n 16953: a5 = s1 + 0x5158\n 16957: a3 = a5 + 0x300\n 16961: a0 = u64 [a3 + 0x40]\n 16964: a1 = u64 [a3 + 0x38]\n 16967: a2 = u64 [a3 + 0x30]\n 16970: t0 = 664, jump @2297\n      : @651 [@dyn 332] (gas: 1)\n 16977: jump @653 if a4 != 0\n      : @652 (gas: 1)\n 16980: jump @1712\n      : @653 (gas: 26)\n 16983: a3 = u64 [a5 + 0x328]\n 16987: a4 = u64 [s1 + 0x1d8]\n 16991: t0 = u32 [a4]\n 16993: a5 = a3 + 0x4\n 16996: a3 = a5 <u a3\n 16999: a4 = a2 + a3\n 17002: a2 = a4 <u a2\n 17005: a2 = a3 if a3 == 0\n 17008: a2 = a2 + a1\n 17011: a1 = a2 <u a1\n 17014: a3 = a0 + a1\n 17017: a0 = s1 + 0x4158\n 17021: u64 [a0 + 992] = 0\n 17025: u64 [a0 + 984] = 0\n 17029: u64 [a0 + 976] = 0\n 17033: u64 [a0 + 0x3c8] = t0\n 17037: a1 = a0 + 0x300\n 17041: u64 [a1 + 0xe8] = a5\n 17045: u64 [a1 + 0xf0] = a4\n 17049: u64 [a1 + 0xf8] = a2\n 17053: a4 = a0\n 17055: a0 = s1 + 0x4560\n 17059: a1 = s1 + 0x4540\n 17063: a2 = s1 + 0x4520\n 17067: u64 [a4 + 0x400] = a3\n 17071: ra = 666, jump @1956\n      : @654 [@dyn 333] (gas: 13)\n 17078: a0 = s1 + 0x4158\n 17082: a2 = a0 + 0x400\n 17086: a1 = u64 [a2 + 0x20]\n 17089: u64 [s1 + 0x1d0] = a1\n 17093: a1 = u64 [a2 + 0x18]\n 17096: u64 [s1 + 0x1c8] = a1\n 17100: a1 = u64 [a2 + 0x10]\n 17103: u64 [s1 + 0x1d8] = a1\n 17107: a0 = u64 [a2 + 0x8]\n 17110: u64 [s1 + 0x1c0] = a0\n 17114: a0 = s1 + 0x4500\n 17118: a1 = 0x40\n 17121: ra = 668, jump @17\n      : @655 [@dyn 334] (gas: 7)\n 17127: a4 = s1 + 0x100\n 17131: a1 = u64 [a4 + 0xc0]\n 17135: a0 = u64 [a4 + 0xd0]\n 17139: a2 = u64 [a4 + 0xd8]\n 17143: a0 = a0 | a2\n 17146: a3 = u64 [a4 + 0xc8]\n 17150: t0 = 670, jump @2290\n      : @656 [@dyn 335] (gas: 1)\n 17157: jump @658 if a0 == 0\n      : @657 (gas: 1)\n 17160: jump @1318\n      : @658 (gas: 3)\n 17163: t0 = 0x2a0\n 17167: a3 = s1 + 0x4158\n 17171: fallthrough\n      : @659 [@dyn 336] (gas: 23)\n 17172: a5 = a3 + 0x300\n 17176: a0 = u64 [a5 + 0xa8]\n 17180: a2 = u64 [a5 + 0xc0]\n 17184: a4 = u64 [a5 + 0xb0]\n 17188: a3 = u64 [a5 + 0xb8]\n 17192: a5 = a0 + 0x20\n 17195: u64 [s1 + 0x1b8] = a5\n 17199: u64 [s1 + 0x198] = a0\n 17203: a0 = a5 <u a0\n 17206: a5 = a4 + a0\n 17209: u64 [s1 + 0x1a0] = a5\n 17213: u64 [s1 + 0x190] = a4\n 17217: a4 = a5 <u a4\n 17220: a4 = a0 if a0 == 0\n 17223: a4 = a4 + a3\n 17226: u64 [s1 + 0x1b0] = a4\n 17230: u64 [s1 + 0x180] = a3\n 17234: a0 = a4 <u a3\n 17237: u64 [s1 + 0x188] = a2\n 17241: a0 = a0 + a2\n 17244: u64 [s1 + 0x1a8] = a0\n 17248: a0 = s1 + 0x44e0\n 17252: ra = 674, jump @17\n      : @660 [@dyn 337] (gas: 1)\n 17258: t0 = 676, jump @2291\n      : @661 [@dyn 338] (gas: 1)\n 17265: jump @663 if a0 == 0\n      : @662 (gas: 1)\n 17268: jump @1318\n      : @663 (gas: 1)\n 17271: t0 = 678, jump @2360\n      : @664 [@dyn 339] (gas: 6)\n 17278: t0 = u64 [s1 + 0x1c0]\n 17282: a1 = t0 <u a1\n 17285: a2 = u64 [a3 + 0xd8]\n 17289: a1 = 0 if a2 != 0\n 17291: a1 = 0 if a0 != 0\n 17293: jump @666 if a1 != 0\n      : @665 (gas: 1)\n 17296: jump @1318\n      : @666 (gas: 14)\n 17299: a0 = s1 + 0x4158\n 17303: a4 = a0 + 0x300\n 17307: a2 = u64 [a4 + 0xa0]\n 17311: a3 = u64 [a4 + 0x98]\n 17315: a1 = u64 [a4 + 0x88]\n 17319: a5 = u64 [a4 + 0x90]\n 17323: a0 = a1 | a3\n 17326: a4 = a5 | a2\n 17329: a0 = a0 | a4\n 17332: a0 = a0 >> 0x20\n 17335: a4 = a4 | a3\n 17338: a4 = a4 << 0x20\n 17341: a0 = a0 | a4\n 17344: jump @668 if a0 == 0\n      : @667 (gas: 1)\n 17347: jump @1318\n      : @668 (gas: 2)\n 17350: i32 a0 = t0 + 0x20\n 17353: t0 = 680, jump @2313\n      : @669 [@dyn 340] (gas: 1)\n 17360: ra = 682, jump @32\n      : @670 [@dyn 341] (gas: 4)\n 17366: u64 [s1 + 0x170] = a0\n 17370: a0 = u64 [s1 + 0x178]\n 17374: a1 = u64 [s1 + 0x1d8]\n 17378: ra = 684, jump @32\n      : @671 [@dyn 342] (gas: 4)\n 17384: a1 = a0\n 17386: a0 = u64 [s1 + 0x170]\n 17390: a2 = u64 [s1 + 0x1d8]\n 17394: ra = 686, jump @0\n      : @672 [@dyn 343] (gas: 1)\n 17400: t0 = 688, jump @2274\n      : @673 [@dyn 344] (gas: 6)\n 17407: t0 = a1 <u a3\n 17410: a5 = u64 [s1 + 0x1d0]\n 17414: a3 = u64 [s1 + 0x1a8]\n 17418: a5 = a5 + a3\n 17421: a3 = a5 + t0\n 17424: t0 = 690, jump @2269\n      : @674 [@dyn 345] (gas: 1)\n 17431: jump @676 if a1 == 0\n      : @675 (gas: 1)\n 17434: jump @1318\n      : @676 (gas: 7)\n 17437: a2 = s1 + 0x4158\n 17441: u64 [a2 + 896] = 0\n 17445: u64 [a2 + 888] = 0\n 17449: u64 [a2 + 880] = 0\n 17453: a1 = s1 + 0x44c0\n 17457: u64 [a2 + 872] = 0\n 17461: ra = 692, jump @19\n      : @677 [@dyn 346] (gas: 1)\n 17467: t0 = 694, jump @2292\n      : @678 [@dyn 347] (gas: 1)\n 17474: jump @680 if a1 == 0\n      : @679 (gas: 1)\n 17477: jump @1318\n      : @680 (gas: 10)\n 17480: ra = u64 [s1 + 0x1d8]\n 17484: a1 = ra + 0x20\n 17487: u64 [s1 + 0x1a8] = a1\n 17491: t0 = a1 <u ra\n 17494: a3 = u64 [s1 + 0x1c0]\n 17498: a1 = a3 + t0\n 17501: u64 [s1 + 0x1a0] = a1\n 17505: a1 = a1 <u a3\n 17508: a1 = t0 if t0 == 0\n 17511: t0 = 696, jump @2379\n      : @681 [@dyn 348] (gas: 10)\n 17518: t0 = u64 [s1 + 0x1d0]\n 17522: a1 = a1 + t0\n 17525: u64 [s1 + 0x1b0] = a1\n 17529: a4 = s1 + 0x4158\n 17533: u64 [a4 + 0x348] = ra\n 17537: u64 [a4 + 0x350] = a3\n 17541: u64 [a4 + 0x358] = a2\n 17545: a1 = s1 + 0x44a0\n 17549: u64 [a4 + 0x360] = t0\n 17553: ra = 698, jump @19\n      : @682 [@dyn 349] (gas: 22)\n 17559: a0 = s1 + 0x4158\n 17563: a1 = u64 [s1 + 0x178]\n 17567: a2 = a0 + 0x300\n 17571: u64 [a2 + 0x18] = a1\n 17574: a1 = u64 [s1 + 0x1a0]\n 17578: u64 [a2 + 0x10] = a1\n 17581: a1 = u64 [s1 + 0x1a8]\n 17585: u64 [a2 + 0x8] = a1\n 17588: a1 = u64 [s1 + 0x188]\n 17592: u64 [a2 + 0x40] = a1\n 17595: a1 = u64 [s1 + 0x180]\n 17599: u64 [a2 + 0x38] = a1\n 17602: a1 = u64 [s1 + 0x190]\n 17606: u64 [a2 + 0x30] = a1\n 17609: a1 = u64 [s1 + 0x198]\n 17613: u64 [a2 + 0x28] = a1\n 17616: a3 = a0\n 17618: a0 = s1 + 0x4480\n 17622: a1 = s1 + 0x4460\n 17626: a2 = u64 [s1 + 0x1b0]\n 17630: u64 [a3 + 0x320] = a2\n 17634: ra = 700, jump @1946\n      : @683 [@dyn 350] (gas: 3)\n 17641: a0 = s1 + 0x4440\n 17645: a1 = u64 [s1 + 0x198]\n 17649: ra = 702, jump @17\n      : @684 [@dyn 351] (gas: 8)\n 17655: a1 = s1 + 0x4158\n 17659: a0 = u64 [a1 + 0x300]\n 17663: a4 = a1 + 0x200\n 17667: a3 = u64 [a4 + 0xf8]\n 17671: a2 = u64 [a4 + 0xf0]\n 17675: a1 = u64 [a4 + 0xe8]\n 17679: a0 = a0 | a2\n 17682: t0 = 704, jump @2290\n      : @685 [@dyn 352] (gas: 1)\n 17689: jump @687 if a0 == 0\n      : @686 (gas: 1)\n 17692: jump @1318\n      : @687 (gas: 3)\n 17695: a0 = u64 [s1 + 0x1b8]\n 17699: u64 [s1 + 0x1d8] = a1\n 17703: ra = 706, jump @32\n      : @688 [@dyn 353] (gas: 1)\n 17709: t0 = 708, jump @2288\n      : @689 [@dyn 354] (gas: 3)\n 17716: ra = 0x2c6\n 17720: ecalli 6 // 'hash_keccak_256'\n 17722: fallthrough\n      : @690 [@dyn 355] (gas: 3)\n 17723: a5 = s1 + 0x100\n 17727: a3 = u64 [a5 + 0xd0]\n 17731: t0 = 712, jump @2298\n      : @691 [@dyn 356] (gas: 13)\n 17738: u64 [a5 + 0xc0] = a3\n 17742: a4 = s1 + 0x4158\n 17746: u64 [a4 + 0x2e0] = a3\n 17750: u64 [a5 + 0xc8] = a2\n 17754: a3 = a4 + 0x200\n 17758: u64 [a3 + 0xd8] = a2\n 17762: u64 [a5 + 0xd0] = a1\n 17766: u64 [a3 + 0xd0] = a1\n 17770: a1 = s1 + 0x4420\n 17774: u64 [a5 + 0xd8] = a0\n 17778: u64 [a3 + 0xc8] = a0\n 17782: a0 = 0\n 17784: ra = 714, jump @19\n      : @692 [@dyn 357] (gas: 9)\n 17790: a0 = s1 + 0x4158\n 17794: u64 [a0 + 704] = 0\n 17798: u64 [a0 + 696] = 0\n 17802: u64 [a0 + 688] = 0\n 17806: a3 = a0\n 17808: a0 = 0x20\n 17811: a1 = s1 + 0x4400\n 17815: u64 [a3 + 680] = 0x1\n 17820: ra = 716, jump @19\n      : @693 [@dyn 358] (gas: 3)\n 17826: a1 = 0x201a4\n 17831: a0 = i32 [0x201a4]\n 17836: jump @695 if a0 >u 63\n      : @694 (gas: 2)\n 17840: u32 [0x201a4] = 0x40\n 17846: fallthrough\n      : @695 (gas: 37)\n 17847: a0 = sp + 0xffffffffffffffe0\n 17850: a2 = a0 & 0xffffffffffffffe0\n 17853: u64 [s1 + 0x1a8] = a2\n 17857: sp = a2\n 17859: a0 = 0x201b0\n 17864: i32 a0 = a0 + 0\n 17866: i32 a2 = a2 + 0\n 17868: u64 [s1 + 0x1b8] = a1\n 17872: a1 = 0x40\n 17875: u64 [s1 + 0x1b0] = a0\n 17879: ecalli 6 // 'hash_keccak_256'\n 17881: a3 = u64 [s1 + 0x1a8]\n 17885: a0 = u64 [a3]\n 17887: a1 = u64 [a3 + 0x8]\n 17890: a2 = u64 [a3 + 0x10]\n 17893: a3 = u64 [a3 + 0x18]\n 17896: a0 = reverse a0\n 17898: a1 = reverse a1\n 17900: a2 = reverse a2\n 17902: a3 = reverse a3\n 17904: a4 = a3 + 0x7\n 17907: a3 = a4 <u a3\n 17910: a5 = a2 + a3\n 17913: a2 = a5 <u a2\n 17916: a2 = a3 if a3 == 0\n 17919: a2 = a2 + a1\n 17922: a1 = a2 <u a1\n 17925: a0 = a0 + a1\n 17928: a1 = s1 + 0x5158\n 17932: a3 = a1 + 0x300\n 17936: u64 [a3 + 0x48] = a4\n 17939: u64 [a3 + 0x50] = a5\n 17942: u64 [a3 + 0x58] = a2\n 17945: u64 [a3 + 0x60] = a0\n 17948: a0 = s1 + 0x43e0\n 17952: a1 = s1 + 0x54a0\n 17956: ra = 718, jump @21\n      : @696 [@dyn 359] (gas: 10)\n 17962: a1 = s1 + 0x4158\n 17966: a0 = u8 [a1 + 0x288]\n 17970: u64 [a1 + 640] = 0\n 17974: u64 [a1 + 632] = 0\n 17978: u64 [a1 + 0x268] = a0\n 17982: a0 = s1 + 0x43c0\n 17986: u64 [a1 + 624] = 0\n 17990: ra = 0x2d0\n 17994: t0 = 0x91c\n 17998: jump @2351\n      : @697 [@dyn 360] (gas: 13)\n 18002: a0 = u64 [s1 + 0x1c0]\n 18006: a2 = s1 + 0x4158\n 18010: a3 = a2 + 0x200\n 18014: u64 [a3 + 0x60] = a0\n 18017: a0 = u64 [s1 + 0x1c8]\n 18021: u64 [a3 + 0x58] = a0\n 18024: a0 = u64 [s1 + 0x1d0]\n 18028: u64 [a3 + 0x50] = a0\n 18031: a1 = s1 + 0x43a0\n 18035: a0 = u64 [s1 + 0x1d8]\n 18039: u64 [a3 + 0x48] = a0\n 18042: a0 = 0\n 18044: ra = 722, jump @19\n      : @698 [@dyn 361] (gas: 9)\n 18050: a1 = s1 + 0x4158\n 18054: u64 [a1 + 576] = 0\n 18058: u64 [a1 + 568] = 0\n 18062: u64 [a1 + 552] = 0x1\n 18067: a2 = a1\n 18069: a0 = 0x20\n 18072: a1 = s1 + 0x4380\n 18076: u64 [a2 + 560] = 0\n 18080: ra = 724, jump @19\n      : @699 [@dyn 362] (gas: 3)\n 18086: a1 = u64 [s1 + 0x1b8]\n 18090: a0 = i32 [a1]\n 18092: jump @701 if a0 >u 63\n      : @700 (gas: 3)\n 18096: u32 [a1 + 0] = 0x40\n 18099: t0 = 0x2d6\n 18103: jump @2398\n      : @701 (gas: 1)\n 18107: t0 = 726, jump @2398\n      : @702 [@dyn 363] (gas: 5)\n 18114: a0 = u64 [s1 + 0x1b0]\n 18118: ra = 0x2d8\n 18122: ecalli 6 // 'hash_keccak_256'\n 18124: t0 = 0x2da\n 18128: jump @2312\n      : @703 [@dyn 364] (gas: 1)\n 18132: t0 = 730, jump @2312\n      : @704 [@dyn 365] (gas: 3)\n 18139: a0 = s1 + 0x4360\n 18143: a1 = 0x40\n 18146: ra = 732, jump @17\n      : @705 [@dyn 366] (gas: 19)\n 18152: a3 = s1 + 0x4158\n 18156: a5 = a3 + 0x200\n 18160: a0 = u64 [a5 + 0x20]\n 18163: u64 [s1 + 0x1a8] = a0\n 18167: a1 = u64 [a5 + 0x18]\n 18170: u64 [s1 + 0x1a0] = a1\n 18174: a4 = u64 [a5 + 0x10]\n 18177: u64 [s1 + 0x1d0] = a4\n 18181: a2 = u64 [a5 + 0x8]\n 18184: u64 [s1 + 0x1d8] = a2\n 18188: u64 [a5] = a0\n 18190: a5 = a3 + 0x100\n 18194: u64 [a5 + 0xf8] = a1\n 18198: u64 [a5 + 0xf0] = a4\n 18202: a0 = s1 + 0x4340\n 18206: u64 [a5 + 0xe8] = a2\n 18210: ra = 0x2de\n 18214: t0 = 0x8a2\n 18218: jump @2330\n      : @706 [@dyn 367] (gas: 14)\n 18222: a0 = u64 [s1 + 0x1c0]\n 18226: a1 = s1 + 0x4158\n 18230: a2 = a1 + 0x100\n 18234: u64 [a2 + 0xc0] = a0\n 18238: a0 = u64 [s1 + 0x1c8]\n 18242: u64 [a2 + 0xb8] = a0\n 18246: a0 = u64 [s1 + 0x1b8]\n 18250: u64 [a2 + 0xb0] = a0\n 18254: a3 = a1\n 18256: a0 = s1 + 0x4320\n 18260: a1 = s1 + 0x4300\n 18264: a2 = u64 [s1 + 0x1b0]\n 18268: u64 [a3 + 0x1a8] = a2\n 18272: ra = 736, jump @2018\n      : @707 [@dyn 368] (gas: 7)\n 18279: a3 = s1 + 0x100\n 18283: a0 = u64 [a3 + 0xa8]\n 18287: a1 = u64 [a3 + 0xd0]\n 18291: a0 = a0 | a1\n 18294: a2 = u64 [a3 + 0xa0]\n 18298: a1 = u64 [a3 + 0xd8]\n 18302: t0 = 738, jump @2335\n      : @708 [@dyn 369] (gas: 1)\n 18309: jump @710 if a0 == 0\n      : @709 (gas: 1)\n 18312: jump @1318\n      : @710 (gas: 13)\n 18315: a4 = s1 + 0x4158\n 18319: a5 = a4 + 0x100\n 18323: a0 = u64 [a5 + 0xe0]\n 18327: a1 = u64 [a5 + 0xd8]\n 18331: a2 = u64 [a5 + 0xd0]\n 18335: a3 = u64 [a5 + 0xc8]\n 18339: u64 [a5 + 0x88] = a3\n 18343: u64 [a5 + 0x90] = a2\n 18347: u64 [a5 + 0x98] = a1\n 18351: a1 = s1 + 0x42e0\n 18355: u64 [a5 + 0xa0] = a0\n 18359: a0 = u64 [s1 + 0x1d8]\n 18363: ra = 740, jump @19\n      : @711 [@dyn 370] (gas: 1)\n 18369: t0 = 742, jump @2314\n      : @712 [@dyn 371] (gas: 9)\n 18376: a4 = s1 + 0x4158\n 18380: a5 = a4 + 0x100\n 18384: u64 [a5 + 0x58] = a2\n 18387: u64 [a5 + 0x50] = a1\n 18390: u64 [a5 + 0x48] = a0\n 18393: a0 = s1 + 0x42c0\n 18397: a1 = s1 + 0x42a0\n 18401: u64 [a5 + 0x60] = a3\n 18404: ra = 744, jump @2018\n      : @713 [@dyn 372] (gas: 1)\n 18411: t0 = 746, jump @2332\n      : @714 [@dyn 373] (gas: 3)\n 18418: u64 [a4 + 0xa8] = a2\n 18422: a0 = 0 if a2 != 0\n 18424: jump @716 if a0 != 0\n      : @715 (gas: 1)\n 18427: jump @1318\n      : @716 (gas: 16)\n 18430: a4 = s1 + 0x4158\n 18434: t0 = u64 [a4 + 0x180]\n 18438: a5 = a4 + 0x100\n 18442: a1 = u64 [a5 + 0x78]\n 18445: a2 = u64 [a5 + 0x70]\n 18448: u64 [s1 + 0x1a0] = a3\n 18452: a3 = u64 [a5 + 0x68]\n 18455: a0 = u64 [s1 + 0x1d8]\n 18459: i32 a0 = a0 + 0x20\n 18462: u64 [a5 + 0x28] = a3\n 18465: u64 [a5 + 0x30] = a2\n 18468: u64 [a5 + 0x38] = a1\n 18471: a1 = s1 + 0x4280\n 18475: u64 [a4 + 0x140] = t0\n 18479: u64 [s1 + 0x198] = a0\n 18483: ra = 748, jump @19\n      : @717 [@dyn 374] (gas: 3)\n 18489: a1 = u64 [s1 + 0x1b0]\n 18493: a0 = a1 + 0x2\n 18496: t0 = 750, jump @2310\n      : @718 [@dyn 375] (gas: 8)\n 18503: u64 [a1 + 0xf8] = a3\n 18507: u64 [a1 + 0xf0] = a2\n 18511: u64 [a1 + 0xe8] = a0\n 18515: a2 = a1\n 18517: a0 = s1 + 0x4260\n 18521: a1 = s1 + 0x4240\n 18525: u64 [a2 + 0x100] = a4\n 18529: ra = 752, jump @2018\n      : @719 [@dyn 376] (gas: 4)\n 18536: a2 = s1 + 0x100\n 18540: a0 = u64 [a2 + 0xa0]\n 18544: a0 = a0 + 0xffffffffffffffc0\n 18547: t0 = 754, jump @2270\n      : @720 [@dyn 377] (gas: 1)\n 18554: jump @722 if a0 != 0\n      : @721 (gas: 1)\n 18557: jump @1318\n      : @722 (gas: 15)\n 18560: a5 = s1 + 0x4158\n 18564: a0 = a5 + 0x100\n 18568: a4 = u64 [a0 + 0x20]\n 18571: a1 = u64 [a0 + 0x18]\n 18574: a2 = u64 [a0 + 0x10]\n 18577: a3 = u64 [a0 + 0x8]\n 18580: a0 = u64 [s1 + 0x1d8]\n 18584: i32 a0 = a0 + 0x40\n 18587: u64 [a5 + 0xc8] = a3\n 18591: u64 [a5 + 0xd0] = a2\n 18595: u64 [a5 + 0xd8] = a1\n 18599: a1 = s1 + 0x4220\n 18603: u64 [a5 + 0xe0] = a4\n 18607: u64 [s1 + 0x190] = a0\n 18611: ra = 756, jump @19\n      : @723 [@dyn 378] (gas: 3)\n 18617: a1 = u64 [s1 + 0x1b0]\n 18621: a0 = a1 + 0x3\n 18624: t0 = 758, jump @2310\n      : @724 [@dyn 379] (gas: 8)\n 18631: u64 [a1 + 0x98] = a3\n 18635: u64 [a1 + 0x90] = a2\n 18639: u64 [a1 + 0x88] = a0\n 18643: a2 = a1\n 18645: a0 = s1 + 0x4200\n 18649: a1 = s1 + 0x41e0\n 18653: u64 [a2 + 0xa0] = a4\n 18657: ra = 760, jump @2018\n      : @725 [@dyn 380] (gas: 5)\n 18664: a0 = 0x100000000\n 18674: a2 = s1 + 0x100\n 18678: u64 [a2 + 0xa0] = a0\n 18682: a0 = 0xffffffa0\n 18692: t0 = 762, jump @2270\n      : @726 [@dyn 381] (gas: 1)\n 18699: jump @728 if a0 != 0\n      : @727 (gas: 1)\n 18702: jump @1318\n      : @728 (gas: 14)\n 18705: a4 = s1 + 0x4158\n 18709: t0 = u64 [a4 + 0xc0]\n 18713: a1 = u64 [a4 + 0xb8]\n 18717: a2 = u64 [a4 + 0xb0]\n 18721: a3 = u64 [a4 + 0xa8]\n 18725: a0 = u64 [s1 + 0x1d8]\n 18729: i32 a0 = a0 + 0x60\n 18732: u64 [a4 + 0x68] = a3\n 18735: u64 [a4 + 0x70] = a2\n 18738: u64 [a4 + 0x78] = a1\n 18741: a1 = s1 + 0x41c0\n 18745: u64 [a4 + 0x80] = t0\n 18749: u64 [s1 + 0x188] = a0\n 18753: ra = 764, jump @19\n      : @729 [@dyn 382] (gas: 3)\n 18759: a1 = u64 [s1 + 0x1b0]\n 18763: a0 = a1 + 0x4\n 18766: t0 = 766, jump @2268\n      : @730 [@dyn 383] (gas: 7)\n 18773: u64 [a5 + 0x70] = a2\n 18776: u64 [a5 + 0x68] = a0\n 18779: u64 [a5 + 0x78] = a3\n 18782: u64 [a5 + 0x80] = a1\n 18786: a0 = s1 + 0x41a0\n 18790: a1 = s1 + 0x54c0\n 18794: ra = 768, jump @21\n      : @731 [@dyn 384] (gas: 4)\n 18800: a2 = s1 + 0x100\n 18804: a0 = u64 [a2 + 0xa0]\n 18808: a0 = a0 + 0xffffffffffffff80\n 18811: t0 = 770, jump @2270\n      : @732 [@dyn 385] (gas: 1)\n 18818: jump @734 if a0 != 0\n      : @733 (gas: 1)\n 18821: jump @1318\n      : @734 (gas: 3)\n 18824: t0 = 0x304\n 18828: a3 = s1 + 0x4158\n 18832: fallthrough\n      : @735 [@dyn 386] (gas: 14)\n 18833: a0 = u64 [a3 + 0x58]\n 18836: a1 = u64 [a3 + 0x50]\n 18839: a2 = u64 [a3 + 0x48]\n 18842: a0 = a0 << 0x20\n 18845: a4 = a0 >> 0x20\n 18848: a0 = u64 [s1 + 0x1d8]\n 18852: i32 a0 = a0 + 0x80\n 18856: u64 [a3 + 64] = 0\n 18859: u64 [a3 + 0x28] = a2\n 18862: u64 [a3 + 0x30] = a1\n 18865: a1 = s1 + 0x4180\n 18869: u64 [a3 + 0x38] = a4\n 18872: u64 [s1 + 0x180] = a0\n 18876: ra = 774, jump @19\n      : @736 [@dyn 387] (gas: 3)\n 18882: a1 = u64 [s1 + 0x1b0]\n 18886: a0 = a1 + 0x5\n 18889: t0 = 776, jump @2268\n      : @737 [@dyn 388] (gas: 7)\n 18896: u64 [a5 + 0x98] = a3\n 18900: u64 [a5 + 0x90] = a2\n 18904: u64 [a5 + 0x88] = a0\n 18908: u64 [a5 + 0xa0] = a1\n 18912: a0 = s1 + 0x4160\n 18916: a1 = s1 + 0x54e0\n 18920: ra = 778, jump @21\n      : @738 [@dyn 389] (gas: 5)\n 18926: a0 = 0x100000000\n 18936: a2 = s1 + 0x100\n 18940: u64 [a2 + 0xa0] = a0\n 18944: a0 = 0xffffff60\n 18954: t0 = 780, jump @2270\n      : @739 [@dyn 390] (gas: 1)\n 18961: jump @741 if a0 != 0\n      : @740 (gas: 1)\n 18964: jump @1318\n      : @741 (gas: 15)\n 18967: a4 = s1 + 0x4158\n 18971: t0 = u64 [a4 + 0x20]\n 18974: a1 = u64 [a4 + 0x18]\n 18977: a2 = u64 [a4 + 0x10]\n 18980: a3 = u64 [a4 + 0x8]\n 18983: a0 = u64 [s1 + 0x1d8]\n 18987: i32 a0 = a0 + 0xa0\n 18991: a5 = s1 + 0x3958\n 18995: u64 [a5 + 0x7e8] = a3\n 18999: u64 [a5 + 0x7f0] = a2\n 19003: u64 [a5 + 0x7f8] = a1\n 19007: a1 = s1 + 0x4140\n 19011: u64 [a4] = t0\n 19013: u64 [s1 + 0x178] = a0\n 19017: ra = 782, jump @19\n      : @742 [@dyn 391] (gas: 3)\n 19023: a1 = u64 [s1 + 0x1b0]\n 19027: a0 = a1 + 0x6\n 19030: t0 = 784, jump @2268\n      : @743 [@dyn 392] (gas: 7)\n 19037: u64 [a5 + 0xb0] = a2\n 19041: u64 [a5 + 0xa8] = a0\n 19045: u64 [a5 + 0xb8] = a3\n 19049: u64 [a5 + 0xc0] = a1\n 19053: a0 = s1 + 0x4120\n 19057: a1 = s1 + 0x5500\n 19061: ra = 786, jump @21\n      : @744 [@dyn 393] (gas: 4)\n 19067: a2 = s1 + 0x100\n 19071: a0 = u64 [a2 + 0xa0]\n 19075: a0 = a0 + 0xffffffffffffff40\n 19079: t0 = 788, jump @2270\n      : @745 [@dyn 394] (gas: 1)\n 19086: jump @747 if a0 != 0\n      : @746 (gas: 1)\n 19089: jump @1318\n      : @747 (gas: 15)\n 19092: a4 = s1 + 0x3958\n 19096: t0 = u64 [a4 + 0x7e0]\n 19100: a5 = a4 + 0x700\n 19104: a1 = u64 [a5 + 0xd8]\n 19108: a2 = u64 [a5 + 0xd0]\n 19112: a3 = u64 [a5 + 0xc8]\n 19116: a0 = u64 [s1 + 0x1d8]\n 19120: i32 a0 = a0 + 0xc0\n 19124: u64 [a5 + 0xa8] = a3\n 19128: u64 [a5 + 0xb0] = a2\n 19132: u64 [a5 + 0xb8] = a1\n 19136: a1 = s1 + 0x4100\n 19140: u64 [a4 + 0x7c0] = t0\n 19144: u64 [s1 + 0x170] = a0\n 19148: ra = 790, jump @19\n      : @748 [@dyn 395] (gas: 3)\n 19154: a1 = u64 [s1 + 0x1b0]\n 19158: a0 = a1 + 0x7\n 19161: t0 = 792, jump @2268\n      : @749 [@dyn 396] (gas: 7)\n 19168: u64 [a5 + 0xd0] = a2\n 19172: u64 [a5 + 0xc8] = a0\n 19176: u64 [a5 + 0xd8] = a3\n 19180: u64 [a5 + 0xe0] = a1\n 19184: a0 = s1 + 0x40e0\n 19188: a1 = s1 + 0x5520\n 19192: ra = 794, jump @21\n      : @750 [@dyn 397] (gas: 5)\n 19198: a0 = 0x100000000\n 19208: a2 = s1 + 0x100\n 19212: u64 [a2 + 0xa0] = a0\n 19216: a0 = 0xffffff20\n 19226: t0 = 796, jump @2270\n      : @751 [@dyn 398] (gas: 1)\n 19233: jump @753 if a0 != 0\n      : @752 (gas: 1)\n 19236: jump @1318\n      : @753 (gas: 12)\n 19239: a2 = s1 + 0x3958\n 19243: a0 = u64 [a2 + 0x788]\n 19247: a0 = a0 & 0xff\n 19251: a1 = a0 >u 0\n 19253: a0 = u64 [s1 + 0x1d8]\n 19257: i32 a0 = a0 + 0xe0\n 19261: u64 [a2 + 1920] = 0\n 19265: u64 [a2 + 1912] = 0\n 19269: u64 [a2 + 0x768] = a1\n 19273: a1 = s1 + 0x40c0\n 19277: u64 [a2 + 1904] = 0\n 19281: ra = 798, jump @19\n      : @754 [@dyn 399] (gas: 22)\n 19287: a1 = u64 [s1 + 0x1b0]\n 19291: a0 = a1 + 0x8\n 19294: a1 = a0 <u a1\n 19297: a3 = u64 [s1 + 0x1b8]\n 19301: a2 = a3 + a1\n 19304: a3 = a2 <u a3\n 19307: a3 = a1 if a1 == 0\n 19310: a1 = u64 [s1 + 0x1c8]\n 19314: a3 = a3 + a1\n 19317: a1 = a3 <u a1\n 19320: a4 = u64 [s1 + 0x1c0]\n 19324: a4 = a4 + a1\n 19327: a1 = s1 + 0x3958\n 19331: a5 = a1 + 0x700\n 19335: u64 [a5 + 0x30] = a2\n 19338: u64 [a5 + 0x28] = a0\n 19341: u64 [a5 + 0x38] = a3\n 19344: a2 = a1\n 19346: a0 = s1 + 0x40a0\n 19350: a1 = s1 + 0x4080\n 19354: u64 [a2 + 0x740] = a4\n 19358: ra = 800, jump @2018\n      : @755 [@dyn 400] (gas: 4)\n 19365: a2 = s1 + 0x100\n 19369: a0 = u64 [a2 + 0xa0]\n 19373: a0 = a0 + 0xffffffffffffff00\n 19377: t0 = 802, jump @2270\n      : @756 [@dyn 401] (gas: 1)\n 19384: jump @758 if a0 != 0\n      : @757 (gas: 1)\n 19387: jump @1318\n      : @758 (gas: 18)\n 19390: a5 = s1 + 0x3958\n 19394: t0 = u64 [a5 + 0x760]\n 19398: a4 = a5 + 0x700\n 19402: a3 = u64 [a4 + 0x58]\n 19405: a2 = u64 [a4 + 0x50]\n 19408: a1 = u64 [a4 + 0x48]\n 19411: a0 = u64 [s1 + 0x1d8]\n 19415: i32 a0 = a0 + 0x100\n 19419: u64 [s1 + 0xe0] = a1\n 19423: u64 [a4 + 0x8] = a1\n 19426: u64 [s1 + 0xd8] = a2\n 19430: u64 [a4 + 0x10] = a2\n 19433: u64 [s1 + 0xd0] = a3\n 19437: u64 [a4 + 0x18] = a3\n 19440: a1 = s1 + 0x4060\n 19444: u64 [s1 + 0xc8] = t0\n 19448: u64 [a5 + 0x720] = t0\n 19452: ra = 804, jump @19\n      : @759 [@dyn 402] (gas: 3)\n 19458: a0 = s1 + 0x4040\n 19462: a1 = u64 [s1 + 0x1d8]\n 19466: ra = 806, jump @17\n      : @760 [@dyn 403] (gas: 3)\n 19472: t0 = 0x328\n 19476: a1 = s1 + 0x3958\n 19480: fallthrough\n      : @761 [@dyn 404] (gas: 12)\n 19481: a0 = u64 [a1 + 0x700]\n 19485: u64 [s1 + 0x1a0] = a0\n 19489: a2 = a1 + 0x600\n 19493: a0 = u64 [a2 + 0xf8]\n 19497: u64 [s1 + 0x1a8] = a0\n 19501: a0 = u64 [a2 + 0xf0]\n 19505: u64 [s1 + 0x1b0] = a0\n 19509: a0 = u64 [a2 + 0xe8]\n 19513: u64 [s1 + 0x1b8] = a0\n 19517: a0 = s1 + 0x4020\n 19521: a1 = u64 [s1 + 0x198]\n 19525: ra = 810, jump @17\n      : @762 [@dyn 405] (gas: 1)\n 19531: t0 = 812, jump @2316\n      : @763 [@dyn 406] (gas: 11)\n 19538: a0 = u64 [a2 + 0xe0]\n 19542: u64 [s1 + 0x158] = a0\n 19546: a0 = u64 [a2 + 0xd8]\n 19550: u64 [s1 + 0x160] = a0\n 19554: a0 = u64 [a2 + 0xd0]\n 19558: u64 [s1 + 0x168] = a0\n 19562: a0 = u64 [a2 + 0xc8]\n 19566: u64 [s1 + 0x198] = a0\n 19570: a0 = s1 + 0x4000\n 19574: a1 = u64 [s1 + 0x190]\n 19578: ra = 814, jump @17\n      : @764 [@dyn 407] (gas: 1)\n 19584: t0 = 816, jump @2316\n      : @765 [@dyn 408] (gas: 11)\n 19591: a0 = u64 [a2 + 0xc0]\n 19595: u64 [s1 + 0x140] = a0\n 19599: a0 = u64 [a2 + 0xb8]\n 19603: u64 [s1 + 0x148] = a0\n 19607: a0 = u64 [a2 + 0xb0]\n 19611: u64 [s1 + 0x150] = a0\n 19615: a0 = u64 [a2 + 0xa8]\n 19619: u64 [s1 + 0x190] = a0\n 19623: a0 = s1 + 0x3fe0\n 19627: a1 = u64 [s1 + 0x188]\n 19631: ra = 818, jump @17\n      : @766 [@dyn 409] (gas: 1)\n 19637: t0 = 820, jump @2316\n      : @767 [@dyn 410] (gas: 11)\n 19644: a0 = u64 [a2 + 0xa0]\n 19648: u64 [s1 + 0x128] = a0\n 19652: a0 = u64 [a2 + 0x98]\n 19656: u64 [s1 + 0x130] = a0\n 19660: a0 = u64 [a2 + 0x90]\n 19664: u64 [s1 + 0x138] = a0\n 19668: a0 = u64 [a2 + 0x88]\n 19672: u64 [s1 + 0x188] = a0\n 19676: a0 = s1 + 0x3fc0\n 19680: a1 = u64 [s1 + 0x180]\n 19684: ra = 822, jump @17\n      : @768 [@dyn 411] (gas: 1)\n 19690: t0 = 824, jump @2316\n      : @769 [@dyn 412] (gas: 9)\n 19697: a0 = u64 [a2 + 0x68]\n 19700: u64 [s1 + 0x180] = a0\n 19704: a0 = u64 [a2 + 0x70]\n 19707: u64 [s1 + 0x120] = a0\n 19711: a0 = u64 [a2 + 0x78]\n 19714: u64 [s1 + 0x118] = a0\n 19718: a0 = s1 + 0x3fa0\n 19722: a1 = u64 [s1 + 0x178]\n 19726: ra = 826, jump @17\n      : @770 [@dyn 413] (gas: 1)\n 19732: t0 = 828, jump @2316\n      : @771 [@dyn 414] (gas: 11)\n 19739: a0 = u64 [a2 + 0x60]\n 19742: u64 [s1 + 0x178] = a0\n 19746: a0 = u64 [a2 + 0x58]\n 19749: u64 [s1 + 0x110] = a0\n 19753: a0 = u64 [a2 + 0x50]\n 19756: u64 [s1 + 0x108] = a0\n 19760: a0 = u64 [a2 + 0x48]\n 19763: u64 [s1 + 0x100] = a0\n 19767: a0 = s1 + 0x3f80\n 19771: a1 = u64 [s1 + 0x170]\n 19775: ra = 830, jump @17\n      : @772 [@dyn 415] (gas: 1)\n 19781: t0 = 832, jump @2316\n      : @773 [@dyn 416] (gas: 11)\n 19788: a0 = u64 [a2 + 0x40]\n 19791: u64 [s1 + 0x170] = a0\n 19795: a0 = u64 [a2 + 0x38]\n 19798: u64 [s1 + 0xf8] = a0\n 19802: a0 = u64 [a2 + 0x30]\n 19805: u64 [s1 + 0xf0] = a0\n 19809: a0 = u64 [a2 + 0x28]\n 19812: u64 [s1 + 0xe8] = a0\n 19816: a0 = s1 + 0x3f60\n 19820: a1 = 0x40\n 19823: ra = 834, jump @17\n      : @774 [@dyn 417] (gas: 7)\n 19829: a1 = s1 + 0x3958\n 19833: a4 = a1 + 0x600\n 19837: a2 = u64 [a4 + 0x20]\n 19840: a3 = u64 [a4 + 0x18]\n 19843: a0 = u64 [a4 + 0x10]\n 19846: a1 = u64 [a4 + 0x8]\n 19849: t0 = 836, jump @2352\n      : @775 [@dyn 418] (gas: 1)\n 19856: jump @777 if a0 == 0\n      : @776 (gas: 1)\n 19859: jump @1318\n      : @777 (gas: 8)\n 19862: a2 = s1 + 0x3958\n 19866: u64 [a2 + 1536] = 0\n 19870: u64 [a2 + 1528] = 0\n 19874: u64 [a2 + 1520] = 0\n 19878: a1 = s1 + 0x3f40\n 19882: u64 [a2 + 1512] = 0x100\n 19888: a0 = u64 [s1 + 0x1d8]\n 19892: ra = 838, jump @19\n      : @778 [@dyn 419] (gas: 3)\n 19898: a1 = u64 [s1 + 0x1d8]\n 19902: a0 = a1 + 0x100\n 19906: t0 = 840, jump @2320\n      : @779 [@dyn 420] (gas: 19)\n 19913: a1 = s1 + 0x3958\n 19917: a5 = a1 + 0x500\n 19921: u64 [a5 + 0x90] = a2\n 19925: u64 [a5 + 0x88] = a0\n 19929: a0 = u64 [s1 + 0x1a0]\n 19933: u64 [a5 + 0xc0] = a0\n 19937: a0 = u64 [s1 + 0x1a8]\n 19941: u64 [a5 + 0xb8] = a0\n 19945: a0 = u64 [s1 + 0x1b0]\n 19949: u64 [a5 + 0xb0] = a0\n 19953: a0 = u64 [s1 + 0x1b8]\n 19957: u64 [a5 + 0xa8] = a0\n 19961: u64 [a5 + 0x98] = a3\n 19965: a3 = a1\n 19967: a0 = s1 + 0x3f20\n 19971: a1 = s1 + 0x3f00\n 19975: a2 = s1 + 0x3ee0\n 19979: u64 [a3 + 0x5a0] = a4\n 19983: ra = 842, jump @1909\n      : @780 [@dyn 421] (gas: 1)\n 19990: t0 = 844, jump @2322\n      : @781 [@dyn 422] (gas: 1)\n 19997: jump @783 if a0 != 0\n      : @782 (gas: 1)\n 20000: jump @1318\n      : @783 (gas: 37)\n 20003: a2 = s1 + 0x3958\n 20007: ra = u64 [a2 + 0x5c8]\n 20011: t0 = u64 [a2 + 0x5d0]\n 20015: t2 = u64 [a2 + 0x5e0]\n 20019: u64 [s1 + 0x1a0] = t2\n 20023: a4 = u64 [a2 + 0x5d8]\n 20027: u64 [s1 + 0x1a8] = a4\n 20031: a5 = u64 [s1 + 0x1d8]\n 20035: t1 = ra <u a5\n 20038: u64 [s1 + 0xb8] = ra\n 20042: a3 = u64 [s1 + 0x1d0]\n 20046: a1 = t0 ^ a3\n 20049: a2 = t0 <u a3\n 20052: u64 [s1 + 0xc0] = t0\n 20056: a0 = a3\n 20058: a2 = t1 if a1 == 0\n 20061: a3 = u64 [s1 + 0x1c0]\n 20065: a1 = a4 - a3\n 20068: a3 = a4 <u a3\n 20071: a4 = u64 [s1 + 0x1c8]\n 20075: a4 = t2 - a4\n 20078: a4 = a4 - a3\n 20081: a3 = a1 <u a2\n 20084: a4 = a4 - a3\n 20087: a1 = a1 - a2\n 20090: a2 = t0 - a0\n 20093: a2 = a2 - t1\n 20096: a3 = ra - a5\n 20099: i32 a0 = a5 + 0x20\n 20102: a5 = s1 + 0x3958\n 20106: u64 [a5 + 0x568] = a3\n 20110: a3 = a5 + 0x500\n 20114: u64 [a3 + 0x70] = a2\n 20117: u64 [a3 + 0x78] = a1\n 20120: a1 = s1 + 0x3ec0\n 20124: u64 [a3 + 0x80] = a4\n 20128: ra = 846, jump @19\n      : @784 [@dyn 423] (gas: 23)\n 20134: a1 = s1 + 0x3958\n 20138: a0 = u64 [s1 + 0x1a0]\n 20142: a2 = a1 + 0x500\n 20146: u64 [a2 + 0x20] = a0\n 20149: a0 = u64 [s1 + 0x1a8]\n 20153: u64 [a2 + 0x18] = a0\n 20156: a0 = u64 [s1 + 0xc0]\n 20160: u64 [a2 + 0x10] = a0\n 20163: a0 = u64 [s1 + 0xb8]\n 20167: u64 [a2 + 0x8] = a0\n 20170: a0 = u64 [s1 + 0x158]\n 20174: u64 [a2 + 0x40] = a0\n 20177: a0 = u64 [s1 + 0x160]\n 20181: u64 [a2 + 0x38] = a0\n 20184: a0 = u64 [s1 + 0x168]\n 20188: u64 [a2 + 0x30] = a0\n 20191: a4 = a1\n 20193: a0 = s1 + 0x3ea0\n 20197: a1 = s1 + 0x3e80\n 20201: a2 = s1 + 0x3e60\n 20205: a3 = u64 [s1 + 0x198]\n 20209: u64 [a4 + 0x528] = a3\n 20213: ra = 848, jump @1909\n      : @785 [@dyn 424] (gas: 4)\n 20220: a2 = s1 + 0x100\n 20224: a0 = u64 [a2 + 0xb0]\n 20228: a0 = a0 + 0xffffffffffffffc0\n 20231: t0 = 850, jump @2280\n      : @786 [@dyn 425] (gas: 1)\n 20238: jump @788 if a0 != 0\n      : @787 (gas: 1)\n 20241: jump @1318\n      : @788 (gas: 36)\n 20244: a2 = s1 + 0x3958\n 20248: ra = u64 [a2 + 0x548]\n 20252: t0 = u64 [a2 + 0x550]\n 20256: t2 = u64 [a2 + 0x560]\n 20260: u64 [s1 + 0x1a8] = t2\n 20264: a4 = u64 [a2 + 0x558]\n 20268: u64 [s1 + 0x1b0] = a4\n 20272: a5 = u64 [s1 + 0x1d8]\n 20276: t1 = ra <u a5\n 20279: u64 [s1 + 0x198] = ra\n 20283: a3 = u64 [s1 + 0x1d0]\n 20287: a1 = t0 ^ a3\n 20290: a2 = t0 <u a3\n 20293: u64 [s1 + 0x1a0] = t0\n 20297: a0 = a3\n 20299: a2 = t1 if a1 == 0\n 20302: a3 = u64 [s1 + 0x1c0]\n 20306: a1 = a4 - a3\n 20309: a3 = a4 <u a3\n 20312: a4 = u64 [s1 + 0x1c8]\n 20316: a4 = t2 - a4\n 20319: a4 = a4 - a3\n 20322: a3 = a1 <u a2\n 20325: a4 = a4 - a3\n 20328: a1 = a1 - a2\n 20331: a2 = t0 - a0\n 20334: a2 = a2 - t1\n 20337: a3 = ra - a5\n 20340: i32 a0 = a5 + 0x40\n 20343: a5 = s1 + 0x3958\n 20347: u64 [a5 + 0x4e8] = a3\n 20351: u64 [a5 + 0x4f0] = a2\n 20355: u64 [a5 + 0x4f8] = a1\n 20359: a1 = s1 + 0x3e40\n 20363: u64 [a5 + 0x500] = a4\n 20367: ra = 852, jump @19\n      : @789 [@dyn 426] (gas: 3)\n 20373: t0 = 0x356\n 20377: a1 = s1 + 0x3958\n 20381: fallthrough\n      : @790 [@dyn 427] (gas: 22)\n 20382: a0 = u64 [s1 + 0x1a8]\n 20386: a2 = a1 + 0x400\n 20390: u64 [a2 + 0xa0] = a0\n 20394: a0 = u64 [s1 + 0x1b0]\n 20398: u64 [a2 + 0x98] = a0\n 20402: a0 = u64 [s1 + 0x1a0]\n 20406: u64 [a2 + 0x90] = a0\n 20410: a0 = u64 [s1 + 0x198]\n 20414: u64 [a2 + 0x88] = a0\n 20418: a0 = u64 [s1 + 0x140]\n 20422: u64 [a2 + 0xc0] = a0\n 20426: a0 = u64 [s1 + 0x148]\n 20430: u64 [a2 + 0xb8] = a0\n 20434: a0 = u64 [s1 + 0x150]\n 20438: u64 [a2 + 0xb0] = a0\n 20442: a4 = a1\n 20444: a0 = s1 + 0x3e20\n 20448: a1 = s1 + 0x3e00\n 20452: a2 = s1 + 0x3de0\n 20456: a3 = u64 [s1 + 0x190]\n 20460: u64 [a4 + 0x4a8] = a3\n 20464: ra = 856, jump @1909\n      : @791 [@dyn 428] (gas: 5)\n 20470: a0 = 0x100000000\n 20480: a2 = s1 + 0x100\n 20484: u64 [a2 + 0xb0] = a0\n 20488: a0 = 0xffffffa0\n 20498: t0 = 858, jump @2280\n      : @792 [@dyn 429] (gas: 1)\n 20505: jump @794 if a0 != 0\n      : @793 (gas: 1)\n 20508: jump @1318\n      : @794 (gas: 37)\n 20511: a2 = s1 + 0x3958\n 20515: ra = u64 [a2 + 0x4c8]\n 20519: t0 = u64 [a2 + 0x4d0]\n 20523: t2 = u64 [a2 + 0x4e0]\n 20527: u64 [s1 + 0x1a0] = t2\n 20531: a4 = u64 [a2 + 0x4d8]\n 20535: u64 [s1 + 0x1a8] = a4\n 20539: a5 = u64 [s1 + 0x1d8]\n 20543: t1 = ra <u a5\n 20546: u64 [s1 + 0x190] = ra\n 20550: a3 = u64 [s1 + 0x1d0]\n 20554: a1 = t0 ^ a3\n 20557: a2 = t0 <u a3\n 20560: u64 [s1 + 0x198] = t0\n 20564: a0 = a3\n 20566: a2 = t1 if a1 == 0\n 20569: a3 = u64 [s1 + 0x1c0]\n 20573: a1 = a4 - a3\n 20576: a3 = a4 <u a3\n 20579: a4 = u64 [s1 + 0x1c8]\n 20583: a4 = t2 - a4\n 20586: a4 = a4 - a3\n 20589: a3 = a1 <u a2\n 20592: a4 = a4 - a3\n 20595: a1 = a1 - a2\n 20598: a2 = t0 - a0\n 20601: a2 = a2 - t1\n 20604: a3 = ra - a5\n 20607: i32 a0 = a5 + 0x60\n 20610: a5 = s1 + 0x3958\n 20614: u64 [a5 + 0x468] = a3\n 20618: a3 = a5 + 0x400\n 20622: u64 [a3 + 0x70] = a2\n 20625: u64 [a3 + 0x78] = a1\n 20628: a1 = s1 + 0x3dc0\n 20632: u64 [a3 + 0x80] = a4\n 20636: ra = 860, jump @19\n      : @795 [@dyn 430] (gas: 23)\n 20642: a1 = s1 + 0x3958\n 20646: a0 = u64 [s1 + 0x1a0]\n 20650: a2 = a1 + 0x400\n 20654: u64 [a2 + 0x20] = a0\n 20657: a0 = u64 [s1 + 0x1a8]\n 20661: u64 [a2 + 0x18] = a0\n 20664: a0 = u64 [s1 + 0x198]\n 20668: u64 [a2 + 0x10] = a0\n 20671: a0 = u64 [s1 + 0x190]\n 20675: u64 [a2 + 0x8] = a0\n 20678: a0 = u64 [s1 + 0x128]\n 20682: u64 [a2 + 0x40] = a0\n 20685: a0 = u64 [s1 + 0x130]\n 20689: u64 [a2 + 0x38] = a0\n 20692: a0 = u64 [s1 + 0x138]\n 20696: u64 [a2 + 0x30] = a0\n 20699: a4 = a1\n 20701: a0 = s1 + 0x3da0\n 20705: a1 = s1 + 0x3d80\n 20709: a2 = s1 + 0x3d60\n 20713: a3 = u64 [s1 + 0x188]\n 20717: u64 [a4 + 0x428] = a3\n 20721: ra = 862, jump @1909\n      : @796 [@dyn 431] (gas: 4)\n 20727: a2 = s1 + 0x100\n 20731: a0 = u64 [a2 + 0xb0]\n 20735: a0 = a0 + 0xffffffffffffff80\n 20738: t0 = 864, jump @2280\n      : @797 [@dyn 432] (gas: 1)\n 20745: jump @799 if a0 != 0\n      : @798 (gas: 1)\n 20748: jump @1318\n      : @799 (gas: 26)\n 20751: a1 = 0xffffffff\n 20761: a2 = u64 [s1 + 0x118]\n 20765: a2 = a2 & a1\n 20768: a4 = s1 + 0x3958\n 20772: a3 = a4 + 0x400\n 20776: a1 = u64 [a3 + 0x60]\n 20779: u64 [s1 + 0x190] = a1\n 20783: a1 = u64 [a3 + 0x58]\n 20786: u64 [s1 + 0x198] = a1\n 20790: a1 = u64 [a3 + 0x50]\n 20793: u64 [s1 + 0x1a0] = a1\n 20797: a1 = u64 [a3 + 0x48]\n 20800: u64 [s1 + 0x1a8] = a1\n 20804: a1 = u64 [s1 + 0x120]\n 20808: a1 = a1 & 0xffffffffffffffff\n 20811: a3 = u64 [s1 + 0x180]\n 20815: a3 = a3 & 0xffffffffffffffff\n 20818: a0 = u64 [s1 + 0x1d8]\n 20822: i32 a0 = a0 + 0x80\n 20826: u64 [a4 + 1024] = 0\n 20830: a5 = a4 + 0x300\n 20834: u64 [a5 + 0xe8] = a3\n 20838: u64 [a5 + 0xf0] = a1\n 20842: a1 = s1 + 0x3d40\n 20846: u64 [a5 + 0xf8] = a2\n 20850: ra = 866, jump @19\n      : @800 [@dyn 433] (gas: 5)\n 20856: a0 = 0x100000000\n 20866: a2 = s1 + 0x100\n 20870: u64 [a2 + 0xb0] = a0\n 20874: a0 = 0xffffff60\n 20884: t0 = 868, jump @2280\n      : @801 [@dyn 434] (gas: 1)\n 20891: jump @803 if a0 != 0\n      : @802 (gas: 1)\n 20894: jump @1318\n      : @803 (gas: 14)\n 20897: a0 = u64 [s1 + 0x1d8]\n 20901: i32 a0 = a0 + 0xa0\n 20905: a2 = s1 + 0x3958\n 20909: a1 = u64 [s1 + 0x100]\n 20913: a4 = a2 + 0x300\n 20917: u64 [a4 + 0xc8] = a1\n 20921: a1 = u64 [s1 + 0x108]\n 20925: u64 [a4 + 0xd0] = a1\n 20929: a1 = u64 [s1 + 0x110]\n 20933: u64 [a4 + 0xd8] = a1\n 20937: a1 = s1 + 0x3d20\n 20941: a3 = u64 [s1 + 0x178]\n 20945: u64 [a4 + 0xe0] = a3\n 20949: ra = 870, jump @19\n      : @804 [@dyn 435] (gas: 4)\n 20955: a2 = s1 + 0x100\n 20959: a0 = u64 [a2 + 0xb0]\n 20963: a0 = a0 + 0xffffffffffffff40\n 20967: t0 = 872, jump @2280\n      : @805 [@dyn 436] (gas: 1)\n 20974: jump @807 if a0 != 0\n      : @806 (gas: 1)\n 20977: jump @1318\n      : @807 (gas: 14)\n 20980: a0 = u64 [s1 + 0x1d8]\n 20984: i32 a0 = a0 + 0xc0\n 20988: a2 = s1 + 0x3958\n 20992: a1 = u64 [s1 + 0xe8]\n 20996: a4 = a2 + 0x300\n 21000: u64 [a4 + 0xa8] = a1\n 21004: a1 = u64 [s1 + 0xf0]\n 21008: u64 [a4 + 0xb0] = a1\n 21012: a1 = u64 [s1 + 0xf8]\n 21016: u64 [a4 + 0xb8] = a1\n 21020: a1 = s1 + 0x3d00\n 21024: a3 = u64 [s1 + 0x170]\n 21028: u64 [a4 + 0xc0] = a3\n 21032: ra = 874, jump @19\n      : @808 [@dyn 437] (gas: 3)\n 21038: a0 = 0xffffff20\n 21048: a2 = s1 + 0x100\n 21052: t0 = 876, jump @2280\n      : @809 [@dyn 438] (gas: 1)\n 21059: jump @811 if a0 != 0\n      : @810 (gas: 1)\n 21062: jump @1318\n      : @811 (gas: 33)\n 21065: a5 = u64 [s1 + 0x1d8]\n 21069: a0 = u64 [s1 + 0x1a8]\n 21073: t1 = a0 <u a5\n 21076: t0 = a0\n 21078: a3 = u64 [s1 + 0x1d0]\n 21082: a0 = u64 [s1 + 0x1a0]\n 21086: a1 = a0 ^ a3\n 21089: a2 = a0 <u a3\n 21092: ra = a3\n 21094: a2 = t1 if a1 == 0\n 21097: a3 = u64 [s1 + 0x1c0]\n 21101: a4 = u64 [s1 + 0x198]\n 21105: a1 = a4 - a3\n 21108: t2 = a4 <u a3\n 21111: a3 = u64 [s1 + 0x1c8]\n 21115: a4 = u64 [s1 + 0x190]\n 21119: a4 = a4 - a3\n 21122: a4 = a4 - t2\n 21125: a3 = a1 <u a2\n 21128: a4 = a4 - a3\n 21131: a1 = a1 - a2\n 21134: a2 = a0 - ra\n 21137: a2 = a2 - t1\n 21140: a3 = t0 - a5\n 21143: i32 a0 = a5 + 0xe0\n 21147: a5 = s1 + 0x3958\n 21151: u64 [a5 + 0x388] = a3\n 21155: a3 = a5 + 0x300\n 21159: u64 [a3 + 0x90] = a2\n 21163: u64 [a3 + 0x98] = a1\n 21167: a1 = s1 + 0x3ce0\n 21171: u64 [a3 + 0xa0] = a4\n 21175: ra = 878, jump @19\n      : @812 [@dyn 439] (gas: 3)\n 21181: t0 = 0x370\n 21185: a1 = s1 + 0x3958\n 21189: fallthrough\n      : @813 [@dyn 440] (gas: 22)\n 21190: a0 = u64 [s1 + 0x190]\n 21194: a2 = a1 + 0x300\n 21198: u64 [a2 + 0x40] = a0\n 21201: a0 = u64 [s1 + 0x198]\n 21205: u64 [a2 + 0x38] = a0\n 21208: a0 = u64 [s1 + 0x1a0]\n 21212: u64 [a2 + 0x30] = a0\n 21215: a0 = u64 [s1 + 0x1a8]\n 21219: u64 [a2 + 0x28] = a0\n 21222: a0 = u64 [s1 + 0xc8]\n 21226: u64 [a2 + 0x60] = a0\n 21229: a0 = u64 [s1 + 0xd0]\n 21233: u64 [a2 + 0x58] = a0\n 21236: a0 = u64 [s1 + 0xd8]\n 21240: u64 [a2 + 0x50] = a0\n 21243: a4 = a1\n 21245: a0 = s1 + 0x3cc0\n 21249: a1 = s1 + 0x3ca0\n 21253: a2 = s1 + 0x3c80\n 21257: a3 = u64 [s1 + 0xe0]\n 21261: u64 [a4 + 0x348] = a3\n 21265: ra = 882, jump @1909\n      : @814 [@dyn 441] (gas: 2)\n 21271: a1 = s1 + 0x3958\n 21275: fallthrough\n      : @815 (gas: 32)\n 21276: a0 = u64 [a1 + 0x370]\n 21280: t0 = u64 [a1 + 0x380]\n 21284: t1 = u64 [a1 + 0x368]\n 21288: a3 = u64 [a1 + 0x378]\n 21292: a1 = u64 [s1 + 0x1d0]\n 21296: a4 = a0 ^ a1\n 21299: a5 = a0 <u a1\n 21302: t2 = a1\n 21304: ra = u64 [s1 + 0x1d8]\n 21308: a1 = t1 <u ra\n 21311: a5 = a1 if a4 == 0\n 21314: a2 = u64 [s1 + 0x1c0]\n 21318: a4 = a3 - a2\n 21321: a3 = a3 <u a2\n 21324: a2 = u64 [s1 + 0x1c8]\n 21328: a2 = t0 - a2\n 21331: a2 = a2 - a3\n 21334: a3 = a4 <u a5\n 21337: a2 = a2 - a3\n 21340: a4 = a4 - a5\n 21343: a0 = a0 - t2\n 21346: a0 = a0 - a1\n 21349: a1 = t1 - ra\n 21352: a0 = a0 | a2\n 21355: a2 = a1\n 21357: a1 = a1 | a4\n 21360: a1 = a1 | a0\n 21363: a0 = a0 | a4\n 21366: a1 = a1 >> 0x20\n 21369: a0 = a0 << 0x20\n 21372: a0 = a0 | a1\n 21375: jump @817 if a0 == 0\n      : @816 (gas: 1)\n 21378: jump @1318\n      : @817 (gas: 4)\n 21381: a0 = u64 [s1 + 0x1d8]\n 21385: a1 = a2\n 21387: u64 [s1 + 0x1d0] = a2\n 21391: ra = 884, jump @32\n      : @818 [@dyn 442] (gas: 5)\n 21397: i32 a1 = a0 + 0\n 21399: a2 = i32 [s1 + 0x1d0]\n 21403: a0 = 0\n 21405: ecalli 8 // 'seal_return'\n 21407: jump @490\n      : @819 (gas: 12)\n 21410: u64 [a3 + 1632] = 0\n 21414: u64 [a3 + 1624] = 0\n 21418: u64 [a3 + 1616] = 0\n 21422: u64 [a3 + 1608] = 0\n 21426: a0 = s1 + 0x4000\n 21430: i32 a0 = a0 + 0x7a0\n 21434: ra = 0x376\n 21438: ecalli 11 // 'value_transferred'\n 21440: a3 = s1 + 0x4158\n 21444: a4 = a3 + 0x600\n 21448: t0 = 0x378\n 21452: jump @2403\n      : @820 [@dyn 443] (gas: 3)\n 21456: a3 = s1 + 0x4158\n 21460: a4 = a3 + 0x600\n 21464: t0 = 888, jump @2403\n      : @821 [@dyn 444] (gas: 1)\n 21471: jump @823 if a0 == 0\n      : @822 (gas: 1)\n 21474: jump @1713\n      : @823 (gas: 3)\n 21477: a0 = u64 [s1 + 0x1d8]\n 21481: a0 = i32 [a0]\n 21483: jump @825 if a0 >u 99\n      : @824 (gas: 1)\n 21487: jump @1714\n      : @825 (gas: 6)\n 21490: a0 = s1 + 0x4000\n 21494: i32 a0 = a0 + 0x7c0\n 21498: a1 = 0x4\n 21501: ra = 0x37a\n 21505: ecalli 1 // 'call_data_load'\n 21507: fallthrough\n      : @826 [@dyn 445] (gas: 6)\n 21508: a5 = s1 + 0x4158\n 21512: a3 = a5 + 0x600\n 21516: a0 = u64 [a3 + 0x80]\n 21520: a1 = u64 [a3 + 0x78]\n 21523: a2 = u64 [a3 + 0x70]\n 21526: t0 = 892, jump @2297\n      : @827 [@dyn 446] (gas: 1)\n 21533: jump @829 if a4 != 0\n      : @828 (gas: 1)\n 21536: jump @1715\n      : @829 (gas: 26)\n 21539: a3 = u64 [a5 + 0x668]\n 21543: a4 = u64 [s1 + 0x1d8]\n 21547: t0 = u32 [a4]\n 21549: a5 = a3 + 0x4\n 21552: a3 = a5 <u a3\n 21555: a4 = a2 + a3\n 21558: a2 = a4 <u a2\n 21561: a2 = a3 if a3 == 0\n 21564: a2 = a2 + a1\n 21567: a1 = a2 <u a1\n 21570: a3 = a0 + a1\n 21573: a0 = s1 + 0x1158\n 21577: u64 [a0 + 544] = 0\n 21581: u64 [a0 + 536] = 0\n 21585: u64 [a0 + 528] = 0\n 21589: u64 [a0 + 0x208] = t0\n 21593: a1 = a0 + 0x200\n 21597: u64 [a1 + 0x28] = a5\n 21600: u64 [a1 + 0x30] = a4\n 21603: u64 [a1 + 0x38] = a2\n 21606: a4 = a0\n 21608: a0 = s1 + 0x13a0\n 21612: a1 = s1 + 0x1380\n 21616: a2 = s1 + 0x1360\n 21620: u64 [a4 + 0x240] = a3\n 21624: ra = 894, jump @1956\n      : @830 [@dyn 447] (gas: 14)\n 21630: a1 = s1 + 0x1158\n 21634: a2 = a1 + 0x200\n 21638: a0 = u64 [a2 + 0x60]\n 21641: u64 [s1 + 0xd0] = a0\n 21645: a0 = u64 [a2 + 0x58]\n 21648: u64 [s1 + 0xd8] = a0\n 21652: a0 = u64 [a2 + 0x50]\n 21655: u64 [s1 + 0xe0] = a0\n 21659: a0 = u64 [a2 + 0x48]\n 21662: u64 [s1 + 0xe8] = a0\n 21666: a0 = s1 + 0x1340\n 21670: ra = 0x380\n 21674: t0 = 0x8da\n 21678: jump @2396\n      : @831 [@dyn 448] (gas: 14)\n 21682: a1 = s1 + 0x1158\n 21686: a2 = a1 + 0x100\n 21690: a0 = u64 [a2 + 0xf8]\n 21694: u64 [s1 + 0x1d0] = a0\n 21698: a0 = u64 [a2 + 0xf0]\n 21702: u64 [s1 + 0xf8] = a0\n 21706: a0 = u64 [a2 + 0xe8]\n 21710: u64 [s1 + 0xf0] = a0\n 21714: a0 = s1 + 0x4000\n 21718: i32 a0 = a0 + 0x7e0\n 21722: a1 = 0x44\n 21725: ra = 0x382\n 21729: ecalli 1 // 'call_data_load'\n 21731: fallthrough\n      : @832 [@dyn 449] (gas: 6)\n 21732: a5 = s1 + 0x4158\n 21736: a3 = a5 + 0x600\n 21740: a0 = u64 [a3 + 0xa0]\n 21744: a1 = u64 [a3 + 0x98]\n 21748: a2 = u64 [a3 + 0x90]\n 21752: t0 = 900, jump @2297\n      : @833 [@dyn 450] (gas: 1)\n 21759: jump @835 if a4 != 0\n      : @834 (gas: 1)\n 21762: jump @1716\n      : @835 (gas: 26)\n 21765: a3 = u64 [a5 + 0x688]\n 21769: a4 = u64 [s1 + 0x1d8]\n 21773: t0 = u32 [a4]\n 21775: a5 = a3 + 0x4\n 21778: a3 = a5 <u a3\n 21781: a4 = a2 + a3\n 21784: a2 = a4 <u a2\n 21787: a2 = a3 if a3 == 0\n 21790: a2 = a2 + a1\n 21793: a1 = a2 <u a1\n 21796: a3 = a0 + a1\n 21799: a0 = s1 + 0x1158\n 21803: u64 [a0 + 416] = 0\n 21807: u64 [a0 + 408] = 0\n 21811: u64 [a0 + 400] = 0\n 21815: u64 [a0 + 0x188] = t0\n 21819: a1 = a0 + 0x100\n 21823: u64 [a1 + 0xa8] = a5\n 21827: u64 [a1 + 0xb0] = a4\n 21831: u64 [a1 + 0xb8] = a2\n 21835: a4 = a0\n 21837: a0 = s1 + 0x1320\n 21841: a1 = s1 + 0x1300\n 21845: a2 = s1 + 0x12e0\n 21849: u64 [a4 + 0x1c0] = a3\n 21853: ra = 902, jump @1956\n      : @836 [@dyn 451] (gas: 11)\n 21859: a1 = s1 + 0x1158\n 21863: a2 = a1 + 0x100\n 21867: a0 = u64 [a2 + 0xe0]\n 21871: u64 [s1 + 0xc0] = a0\n 21875: a0 = u64 [a2 + 0xd8]\n 21879: u64 [s1 + 0xb8] = a0\n 21883: a0 = u64 [a2 + 0xd0]\n 21887: u64 [s1 + 0xb0] = a0\n 21891: a0 = u64 [a2 + 0xc8]\n 21895: u64 [s1 + 0xa8] = a0\n 21899: ra = 904, jump @2242\n      : @837 [@dyn 452] (gas: 12)\n 21906: a0 = u64 [s1 + 0x1d0]\n 21910: a0 = a0 << 0x20\n 21913: a1 = a0 >> 0x20\n 21916: a0 = u64 [s1 + 0xf8]\n 21920: a2 = u64 [s1 + 0xf0]\n 21924: a0 = a0 | a2\n 21927: u64 [s1 + 0xc8] = a1\n 21931: a0 = a0 | a1\n 21934: u64 [s1 + 0x1d8] = a0\n 21938: a0 = s1 + 0x12c0\n 21942: a1 = 0x40\n 21945: ra = 906, jump @17\n      : @838 [@dyn 453] (gas: 9)\n 21951: a0 = s1 + 0x1158\n 21955: t2 = u64 [a0 + 0x180]\n 21959: t1 = u64 [a0 + 0x178]\n 21963: ra = u64 [a0 + 0x168]\n 21967: t0 = u64 [a0 + 0x170]\n 21971: a0 = ra | t1\n 21974: a5 = t0 | t2\n 21977: a1 = u64 [s1 + 0x1d8]\n 21981: jump @853 if a1 != 0\n      : @839 (gas: 6)\n 21985: a0 = a0 | a5\n 21988: a0 = a0 >> 0x20\n 21991: a1 = a5 | t1\n 21994: a1 = a1 << 0x20\n 21997: a0 = a0 | a1\n 22000: jump @841 if a0 == 0\n      : @840 (gas: 1)\n 22003: jump @1318\n      : @841 (gas: 17)\n 22006: a0 = s1 + 0x1000\n 22010: u64 [a0 + 4294965552] = 0\n 22014: a0 = s1 + 0x1000\n 22018: u64 [a0 + 4294965544] = 0\n 22022: a0 = s1 + 0x1000\n 22026: u64 [a0 + 4294965536] = 0\n 22030: a0 = 0x8c379a000000000\n 22040: a1 = s1 + 0x7ff\n 22044: a1 = a1 + 0x121\n 22048: a2 = s1 + 0x1000\n 22052: u64 [a2 + 0xfffffffffffff938] = a0\n 22056: a0 = ra\n 22058: u64 [s1 + 0x1d0] = ra\n 22062: u64 [s1 + 0x1c8] = t0\n 22066: u64 [s1 + 0x1c0] = t1\n 22070: u64 [s1 + 0x1d8] = t2\n 22074: ra = 908, jump @19\n      : @842 [@dyn 454] (gas: 12)\n 22080: a5 = s1 + 0x100\n 22084: a1 = u64 [a5 + 0xd0]\n 22088: a0 = u64 [a5 + 0xc0]\n 22092: a3 = u64 [a5 + 0xd8]\n 22096: a3 = a3 | a0\n 22099: a4 = 0x100000000\n 22109: a0 = 0xfffffffc\n 22119: a0 = a1 <u a0\n 22122: a2 = u64 [a5 + 0xc8]\n 22126: a0 = 0 if a2 != 0\n 22128: a0 = 0 if a3 != 0\n 22130: jump @844 if a0 != 0\n      : @843 (gas: 1)\n 22133: jump @1318\n      : @844 (gas: 14)\n 22136: i32 a0 = a1 + 0x4\n 22139: a1 = s1 + 0x1000\n 22143: u64 [a1 + 4294965528] = 0\n 22147: a1 = s1 + 0x1000\n 22151: u64 [a1 + 4294965520] = 0\n 22155: a2 = s1 + 0x1000\n 22159: u64 [a2 + 4294965504] = 0x20\n 22164: a1 = s1 + 0x7ff\n 22168: a1 = a1 + 0x101\n 22172: a2 = s1 + 0x1000\n 22176: u64 [a2 + 4294965512] = 0\n 22180: u64 [s1 + 0x1d8] = a3\n 22184: u64 [s1 + 0x1c0] = a4\n 22188: ra = 910, jump @19\n      : @845 [@dyn 455] (gas: 6)\n 22194: a4 = s1 + 0x100\n 22198: a3 = u64 [a4 + 0xd8]\n 22202: a2 = u64 [a4 + 0xc8]\n 22206: a1 = u64 [a4 + 0xd0]\n 22210: a0 = u64 [a4 + 0xc0]\n 22214: t0 = 912, jump @2358\n      : @846 [@dyn 456] (gas: 1)\n 22221: jump @848 if a0 != 0\n      : @847 (gas: 1)\n 22224: jump @1318\n      : @848 (gas: 12)\n 22227: i32 a0 = a1 + 0x24\n 22230: a1 = s1 + 0x1000\n 22234: u64 [a1 + 4294965496] = 0\n 22238: a1 = s1 + 0x1000\n 22242: u64 [a1 + 4294965488] = 0\n 22246: a2 = s1 + 0x1000\n 22250: u64 [a2 + 4294965472] = 0x19\n 22255: a1 = s1 + 0x7ff\n 22259: a1 = a1 + 0xe1\n 22263: a2 = s1 + 0x1000\n 22267: u64 [a2 + 4294965480] = 0\n 22271: ra = 914, jump @19\n      : @849 [@dyn 457] (gas: 9)\n 22277: a2 = s1 + 0x100\n 22281: a4 = u64 [a2 + 0xd0]\n 22285: a0 = 0xffffffbc\n 22295: a0 = a4 <u a0\n 22298: a1 = u64 [a2 + 0xc8]\n 22302: a0 = 0 if a1 != 0\n 22304: a1 = u64 [a2 + 0xd8]\n 22308: a0 = 0 if a1 != 0\n 22310: jump @851 if a0 != 0\n      : @850 (gas: 1)\n 22313: jump @1318\n      : @851 (gas: 16)\n 22316: i32 a0 = a4 + 0x44\n 22319: a1 = u64 [0x20160]\n 22324: a2 = u64 [0x20168]\n 22329: a3 = u64 [0x20170]\n 22334: a4 = s1 + 0x1000\n 22338: u64 [a4 + 0xfffffffffffff8d8] = a1\n 22342: a1 = s1 + 0x1000\n 22346: u64 [a1 + 0xfffffffffffff8d0] = a2\n 22350: a1 = s1 + 0x1000\n 22354: u64 [a1 + 0xfffffffffffff8c8] = a3\n 22358: a2 = 0x7300000000000000\n 22368: a1 = s1 + 0x7ff\n 22372: a1 = a1 + 0xc1\n 22376: a3 = s1 + 0x1000\n 22380: u64 [a3 + 0xfffffffffffff8c0] = a2\n 22384: ra = 916, jump @19\n      : @852 [@dyn 458] (gas: 4)\n 22390: a1 = 0x64\n 22393: a0 = u64 [s1 + 0x1d0]\n 22397: ra = 0x5bc\n 22401: jump @32\n      : @853 (gas: 13)\n 22404: u64 [s1 + 0x198] = a0\n 22408: a1 = u64 [s1 + 0xe8]\n 22412: a3 = u64 [s1 + 0xd8]\n 22416: a0 = a1 | a3\n 22419: a2 = u64 [s1 + 0xe0]\n 22423: a4 = u64 [s1 + 0xd0]\n 22427: a2 = a2 | a4\n 22430: a0 = a0 | a2\n 22433: a0 = a0 >> 0x20\n 22436: a2 = a2 | a3\n 22439: a2 = a2 << 0x20\n 22442: a0 = a0 | a2\n 22445: jump @855 if a0 == 0\n      : @854 (gas: 1)\n 22448: jump @1318\n      : @855 (gas: 19)\n 22451: u64 [s1 + 0x190] = a5\n 22455: a0 = ra + 0x20\n 22458: u64 [s1 + 0x1b8] = a0\n 22462: u64 [s1 + 0x1d0] = ra\n 22466: a0 = a0 <u ra\n 22469: a2 = t0 + a0\n 22472: u64 [s1 + 0x1a0] = a2\n 22476: u64 [s1 + 0x1c8] = t0\n 22480: a2 = a2 <u t0\n 22483: a2 = a0 if a0 == 0\n 22486: a2 = a2 + t1\n 22489: u64 [s1 + 0x1b0] = a2\n 22493: u64 [s1 + 0x1c0] = t1\n 22497: a0 = a2 <u t1\n 22500: u64 [s1 + 0x1d8] = t2\n 22504: a0 = a0 + t2\n 22507: u64 [s1 + 0x1a8] = a0\n 22511: a0 = s1 + 0x12a0\n 22515: ra = 918, jump @17\n      : @856 [@dyn 459] (gas: 1)\n 22521: t0 = 920, jump @2291\n      : @857 [@dyn 460] (gas: 1)\n 22528: jump @859 if a0 == 0\n      : @858 (gas: 1)\n 22531: jump @1318\n      : @859 (gas: 10)\n 22534: a0 = u64 [s1 + 0xd8]\n 22538: a1 = u64 [s1 + 0xd0]\n 22542: a0 = a0 | a1\n 22545: a1 = 0xffffffe0\n 22555: t0 = u64 [s1 + 0xe8]\n 22559: a1 = t0 <u a1\n 22562: a2 = u64 [s1 + 0xe0]\n 22566: a1 = 0 if a2 != 0\n 22568: a1 = 0 if a0 != 0\n 22570: jump @861 if a1 != 0\n      : @860 (gas: 1)\n 22573: jump @1318\n      : @861 (gas: 14)\n 22576: a0 = s1 + 0x1158\n 22580: a5 = a0 + 0x100\n 22584: a3 = u64 [a5 + 0x60]\n 22587: a4 = u64 [a5 + 0x58]\n 22590: a1 = u64 [a5 + 0x48]\n 22593: a2 = u64 [a5 + 0x50]\n 22596: a0 = a1 | a4\n 22599: a5 = a2 | a3\n 22602: a0 = a0 | a5\n 22605: a0 = a0 >> 0x20\n 22608: a5 = a5 | a4\n 22611: a5 = a5 << 0x20\n 22614: a0 = a0 | a5\n 22617: jump @863 if a0 == 0\n      : @862 (gas: 1)\n 22620: jump @1318\n      : @863 (gas: 8)\n 22623: i32 a0 = t0 + 0x20\n 22626: u64 [s1 + 0x168] = a0\n 22630: a0 = u64 [s1 + 0x1b8]\n 22634: u64 [s1 + 0x180] = a3\n 22638: u64 [s1 + 0x178] = a4\n 22642: u64 [s1 + 0x188] = a1\n 22646: u64 [s1 + 0x170] = a2\n 22650: ra = 922, jump @32\n      : @864 [@dyn 461] (gas: 4)\n 22656: u64 [s1 + 0x160] = a0\n 22660: a0 = u64 [s1 + 0x168]\n 22664: a1 = u64 [s1 + 0x188]\n 22668: ra = 924, jump @32\n      : @865 [@dyn 462] (gas: 4)\n 22674: a1 = a0\n 22676: a0 = u64 [s1 + 0x160]\n 22680: a2 = u64 [s1 + 0x188]\n 22684: ra = 926, jump @0\n      : @866 [@dyn 463] (gas: 7)\n 22690: a1 = u64 [s1 + 0x1b8]\n 22694: a0 = u64 [s1 + 0x188]\n 22698: a0 = a0 + a1\n 22701: a1 = a0 <u a1\n 22704: a2 = u64 [s1 + 0x170]\n 22708: a4 = u64 [s1 + 0x1a0]\n 22712: t0 = 928, jump @2308\n      : @867 [@dyn 464] (gas: 9)\n 22719: a1 = u64 [s1 + 0x178]\n 22723: a3 = u64 [s1 + 0x1b0]\n 22727: a1 = a1 + a3\n 22730: t0 = a1 <u a3\n 22733: a5 = u64 [s1 + 0x180]\n 22737: a3 = u64 [s1 + 0x1a8]\n 22741: a5 = a5 + a3\n 22744: a3 = a5 + t0\n 22747: t0 = 930, jump @2269\n      : @868 [@dyn 465] (gas: 1)\n 22754: jump @870 if a1 == 0\n      : @869 (gas: 1)\n 22757: jump @1318\n      : @870 (gas: 7)\n 22760: a2 = s1 + 0x1158\n 22764: u64 [a2 + 320] = 0\n 22768: u64 [a2 + 312] = 0\n 22772: u64 [a2 + 304] = 0\n 22776: a1 = s1 + 0x1280\n 22780: u64 [a2 + 296] = 0\n 22784: ra = 932, jump @19\n      : @871 [@dyn 466] (gas: 10)\n 22790: a3 = s1 + 0x100\n 22794: a1 = u64 [a3 + 0x90]\n 22798: a0 = u64 [a3 + 0x98]\n 22802: a0 = a0 | a1\n 22805: a0 = a0 >> 0x20\n 22808: a2 = u64 [a3 + 0xc0]\n 22812: a1 = a1 | a2\n 22815: a1 = a1 << 0x20\n 22818: a0 = a0 | a1\n 22821: jump @873 if a0 == 0\n      : @872 (gas: 1)\n 22824: jump @1318\n      : @873 (gas: 25)\n 22827: a5 = u64 [s1 + 0x188]\n 22831: a0 = a5 + 0x20\n 22834: u64 [s1 + 0x1a8] = a0\n 22838: a0 = a0 <u a5\n 22841: a3 = u64 [s1 + 0x170]\n 22845: a1 = a3 + a0\n 22848: u64 [s1 + 0x1a0] = a1\n 22852: a1 = a1 <u a3\n 22855: a1 = a0 if a0 == 0\n 22858: a4 = u64 [s1 + 0x178]\n 22862: a1 = a1 + a4\n 22865: u64 [s1 + 0x198] = a1\n 22869: a0 = a1 <u a4\n 22872: t0 = u64 [s1 + 0x180]\n 22876: a0 = a0 + t0\n 22879: u64 [s1 + 0x1b0] = a0\n 22883: a0 = s1 + 0x1158\n 22887: a1 = a0 + 0x100\n 22891: u64 [a1 + 0x8] = a5\n 22894: u64 [a1 + 0x10] = a3\n 22897: u64 [a1 + 0x18] = a4\n 22900: a1 = s1 + 0x1260\n 22904: u64 [a0 + 0x120] = t0\n 22908: a0 = u64 [s1 + 0x1d0]\n 22912: ra = 934, jump @19\n      : @874 [@dyn 467] (gas: 21)\n 22918: a1 = s1 + 0x1158\n 22922: a0 = u64 [s1 + 0x198]\n 22926: u64 [a1 + 0xd8] = a0\n 22930: a0 = u64 [s1 + 0x1a0]\n 22934: u64 [a1 + 0xd0] = a0\n 22938: a0 = u64 [s1 + 0x1a8]\n 22942: u64 [a1 + 0xc8] = a0\n 22946: a0 = u64 [s1 + 0x1d8]\n 22950: u64 [a1 + 0x100] = a0\n 22954: a0 = u64 [s1 + 0x1c0]\n 22958: u64 [a1 + 0xf8] = a0\n 22962: a0 = u64 [s1 + 0x1c8]\n 22966: u64 [a1 + 0xf0] = a0\n 22970: a0 = u64 [s1 + 0x1d0]\n 22974: u64 [a1 + 0xe8] = a0\n 22978: a3 = a1\n 22980: a0 = s1 + 0x1240\n 22984: a1 = s1 + 0x1220\n 22988: a2 = u64 [s1 + 0x1b0]\n 22992: u64 [a3 + 0xe0] = a2\n 22996: ra = 936, jump @1946\n      : @875 [@dyn 468] (gas: 3)\n 23002: a0 = s1 + 0x1200\n 23006: a1 = u64 [s1 + 0x1d0]\n 23010: ra = 938, jump @17\n      : @876 [@dyn 469] (gas: 7)\n 23016: a1 = s1 + 0x1158\n 23020: a0 = u64 [a1 + 0xc0]\n 23024: a3 = u64 [a1 + 0xb8]\n 23028: a2 = u64 [a1 + 0xb0]\n 23032: a1 = u64 [a1 + 0xa8]\n 23036: a0 = a0 | a2\n 23039: t0 = 940, jump @2290\n      : @877 [@dyn 470] (gas: 1)\n 23046: jump @879 if a0 == 0\n      : @878 (gas: 1)\n 23049: jump @1318\n      : @879 (gas: 3)\n 23052: a0 = u64 [s1 + 0x1b8]\n 23056: u64 [s1 + 0x1d8] = a1\n 23060: ra = 942, jump @32\n      : @880 [@dyn 471] (gas: 1)\n 23066: t0 = 944, jump @2288\n      : @881 [@dyn 472] (gas: 5)\n 23073: ra = 0x3b2\n 23077: ecalli 6 // 'hash_keccak_256'\n 23079: a3 = u64 [s1 + 0x1d0]\n 23083: t0 = 0x3b4\n 23087: jump @2369\n      : @882 [@dyn 473] (gas: 2)\n 23091: a3 = u64 [s1 + 0x1d0]\n 23095: t0 = 948, jump @2369\n      : @883 [@dyn 474] (gas: 13)\n 23102: a3 = s1 + 0x100\n 23106: u64 [a3 + 0x58] = a1\n 23109: a2 = s1 + 0x1158\n 23113: u64 [a2 + 0xa0] = a1\n 23117: u64 [a3 + 0x60] = a0\n 23120: u64 [a2 + 0x98] = a0\n 23124: u64 [a3 + 0x50] = a4\n 23127: u64 [a2 + 0x90] = a4\n 23131: a1 = s1 + 0x11e0\n 23135: u64 [a3 + 0x48] = a5\n 23138: u64 [a2 + 0x88] = a5\n 23142: a0 = 0\n 23144: ra = 950, jump @19\n      : @884 [@dyn 475] (gas: 9)\n 23150: a0 = s1 + 0x1158\n 23154: u64 [a0 + 128] = 0\n 23158: u64 [a0 + 120] = 0\n 23161: u64 [a0 + 112] = 0\n 23164: a3 = a0\n 23166: a0 = 0x20\n 23169: a1 = s1 + 0x11c0\n 23173: u64 [a3 + 104] = 0x1\n 23177: ra = 952, jump @19\n      : @885 [@dyn 476] (gas: 3)\n 23183: a1 = 0x201a4\n 23188: a0 = i32 [0x201a4]\n 23193: jump @887 if a0 >u 63\n      : @886 (gas: 3)\n 23197: u32 [0x201a4] = 0x40\n 23203: t0 = 0x3ba\n 23207: jump @2400\n      : @887 (gas: 1)\n 23211: t0 = 954, jump @2400\n      : @888 [@dyn 477] (gas: 11)\n 23218: a0 = 0x201b0\n 23223: i32 a0 = a0 + 0\n 23225: u64 [s1 + 0x98] = a1\n 23229: i32 a2 = a2 + 0\n 23231: a1 = 0x40\n 23234: u64 [s1 + 0xa0] = a0\n 23238: ra = 0x3bc\n 23242: ecalli 6 // 'hash_keccak_256'\n 23244: a3 = u64 [s1 + 0x1d8]\n 23248: t0 = 0x3be\n 23252: jump @2300\n      : @889 [@dyn 478] (gas: 2)\n 23256: a3 = u64 [s1 + 0x1d8]\n 23260: t0 = 958, jump @2300\n      : @890 [@dyn 479] (gas: 9)\n 23267: a1 = s1 + 0x4158\n 23271: a3 = a1 + 0x600\n 23275: u64 [a3 + 0xa8] = a4\n 23279: u64 [a3 + 0xb0] = a5\n 23283: u64 [a3 + 0xb8] = a2\n 23287: u64 [a3 + 0xc0] = a0\n 23291: a0 = s1 + 0x11a0\n 23295: a1 = s1 + 0x4800\n 23299: ra = 960, jump @21\n      : @891 [@dyn 480] (gas: 10)\n 23305: a1 = s1 + 0x1158\n 23309: a0 = u8 [a1 + 0x48]\n 23312: u64 [a1 + 64] = 0\n 23315: u64 [a1 + 56] = 0\n 23318: u64 [a1 + 0x28] = a0\n 23321: a0 = s1 + 0x1180\n 23325: u64 [a1 + 48] = 0\n 23328: ra = 0x3c2\n 23332: t0 = 0x91c\n 23336: jump @2351\n      : @892 [@dyn 481] (gas: 13)\n 23340: a3 = s1 + 0x100\n 23344: a0 = u64 [a3 + 0x58]\n 23347: a2 = s1 + 0x1158\n 23351: u64 [a2 + 0x20] = a0\n 23354: a0 = u64 [a3 + 0x60]\n 23357: u64 [a2 + 0x18] = a0\n 23360: a0 = u64 [a3 + 0x50]\n 23363: u64 [a2 + 0x10] = a0\n 23366: a1 = s1 + 0x1160\n 23370: a0 = u64 [a3 + 0x48]\n 23373: u64 [a2 + 0x8] = a0\n 23376: a0 = 0\n 23378: ra = 964, jump @19\n      : @893 [@dyn 482] (gas: 3)\n 23384: t0 = 0x3c6\n 23388: a1 = s1 + 0x1158\n 23392: fallthrough\n      : @894 [@dyn 483] (gas: 8)\n 23393: u64 [a1 + 0] = 0\n 23395: u64 [a1 + 4294967288] = 0\n 23398: u64 [a1 + 4294967272] = 0x1\n 23402: a2 = a1\n 23404: a0 = 0x20\n 23407: a1 = s1 + 0x1140\n 23411: u64 [a2 + 4294967280] = 0\n 23414: ra = 968, jump @19\n      : @895 [@dyn 484] (gas: 3)\n 23420: a1 = u64 [s1 + 0x98]\n 23424: a0 = i32 [a1]\n 23426: jump @897 if a0 >u 63\n      : @896 (gas: 3)\n 23430: u32 [a1 + 0] = 0x40\n 23433: t0 = 0x3ca\n 23437: jump @2303\n      : @897 (gas: 1)\n 23441: t0 = 970, jump @2303\n      : @898 [@dyn 485] (gas: 4)\n 23448: ra = 0x3cc\n 23452: ecalli 6 // 'hash_keccak_256'\n 23454: t0 = 0x3ce\n 23458: jump @2285\n      : @899 [@dyn 486] (gas: 1)\n 23462: t0 = 974, jump @2285\n      : @900 [@dyn 487] (gas: 7)\n 23469: u64 [a3 + 0xc8] = a4\n 23473: u64 [a3 + 0xd0] = a5\n 23477: u64 [a3 + 0xd8] = a2\n 23481: u64 [a3 + 0xe0] = a0\n 23485: a0 = s1 + 0x1120\n 23489: a1 = s1 + 0x4820\n 23493: ra = 976, jump @21\n      : @901 [@dyn 488] (gas: 15)\n 23499: a0 = s1 + 0x7ff\n 23503: a0 = a0 + 0x159\n 23507: a1 = u64 [a0 + 0x7d0]\n 23511: u64 [s1 + 0x1c8] = a1\n 23515: a1 = u64 [a0 + 0x7c8]\n 23519: u64 [s1 + 0x1c0] = a1\n 23523: a0 = u32 [a0 + 0x7d8]\n 23527: u64 [s1 + 0x1b8] = a0\n 23531: a0 = 0x301b0\n 23536: u64 [s1 + 0x1d8] = a0\n 23540: i32 a0 = a0 + 0\n 23542: u64 [s1 + 0x1d0] = a0\n 23546: ra = 0x3d2\n 23550: ecalli 3 // 'caller'\n 23552: fallthrough\n      : @902 [@dyn 489] (gas: 5)\n 23553: a2 = u64 [s1 + 0x1d8]\n 23557: a0 = u64 [a2 + 0x8]\n 23560: a1 = u64 [a2]\n 23562: a2 = i32 [a2 + 0x10]\n 23565: t0 = 980, jump @2284\n      : @903 [@dyn 490] (gas: 19)\n 23572: a2 = u64 [s1 + 0x1b8]\n 23576: a1 = a1 ^ a2\n 23579: a2 = u64 [s1 + 0x1c0]\n 23583: a0 = a0 ^ a2\n 23586: a0 = a0 | a1\n 23589: a1 = u64 [s1 + 0x1c8]\n 23593: a1 = a1 ^ a3\n 23596: a0 = a0 | a1\n 23599: a0 = a0 <u 0x1\n 23602: a1 = s1 + 0x7ff\n 23606: a1 = a1 + 0x159\n 23610: u64 [a1 + 1984] = 0\n 23614: u64 [a1 + 1976] = 0\n 23618: u64 [a1 + 0x7a8] = a0\n 23622: a0 = s1 + 0x1100\n 23626: u64 [a1 + 1968] = 0\n 23630: ra = 0x3d6\n 23634: t0 = 0x936\n 23638: jump @2351\n      : @904 [@dyn 491] (gas: 4)\n 23642: a0 = u64 [s1 + 0x1d0]\n 23646: ra = 0x3d8\n 23650: ecalli 3 // 'caller'\n 23652: fallthrough\n      : @905 [@dyn 492] (gas: 5)\n 23653: a2 = u64 [s1 + 0x1d8]\n 23657: a0 = u64 [a2 + 0x8]\n 23660: a1 = u64 [a2]\n 23662: a2 = i32 [a2 + 0x10]\n 23665: t0 = 986, jump @2284\n      : @906 [@dyn 493] (gas: 9)\n 23672: a2 = u64 [s1 + 0xc8]\n 23676: a1 = a1 ^ a2\n 23679: a2 = u64 [s1 + 0xf0]\n 23683: a0 = a0 ^ a2\n 23686: a0 = a0 | a1\n 23689: a1 = u64 [s1 + 0xf8]\n 23693: a1 = a1 ^ a3\n 23696: a0 = a0 | a1\n 23699: jump @908 if a0 == 0\n      : @907 (gas: 1)\n 23702: jump @1107\n      : @908 (gas: 4)\n 23705: a0 = s1 + 0x7ff\n 23709: a0 = a0 + 0x1c1\n 23713: a1 = 0x40\n 23716: ra = 988, jump @17\n      : @909 [@dyn 494] (gas: 19)\n 23722: a2 = s1 + 0x7ff\n 23726: a2 = a2 + 0x159\n 23730: a3 = u64 [a2 + 0x80]\n 23734: a4 = u64 [a2 + 0x78]\n 23737: a0 = u64 [a2 + 0x70]\n 23740: a1 = u64 [a2 + 0x68]\n 23743: a5 = s1 + 0x100\n 23747: u64 [a5 + 0xd0] = a0\n 23751: u64 [a5 + 0xc8] = a3\n 23755: a0 = a0 | a3\n 23758: u64 [a5 + 0xd8] = a1\n 23762: a1 = a1 | a4\n 23765: a1 = a1 | a0\n 23768: a1 = a1 >> 0x20\n 23771: u64 [a5 + 0xc0] = a4\n 23775: a0 = a0 | a4\n 23778: a0 = a0 << 0x20\n 23781: a0 = a0 | a1\n 23784: jump @911 if a0 == 0\n      : @910 (gas: 1)\n 23787: jump @1318\n      : @911 (gas: 9)\n 23790: u64 [a2 + 88] = 0\n 23793: u64 [a2 + 80] = 0\n 23796: u64 [a2 + 72] = 0\n 23799: a0 = 0x8c379a000000000\n 23809: a1 = s1 + 0x7ff\n 23813: a1 = a1 + 0x1a1\n 23817: u64 [a2 + 0x60] = a0\n 23820: a0 = u64 [s1 + 0x1d8]\n 23824: ra = 990, jump @19\n      : @912 [@dyn 495] (gas: 14)\n 23830: a3 = s1 + 0x100\n 23834: a0 = u64 [a3 + 0xc8]\n 23838: a2 = u64 [a3 + 0xc0]\n 23842: a2 = a2 | a0\n 23845: a0 = 0x100000000\n 23855: u64 [a3 + 0xc0] = a0\n 23859: a0 = 0xfffffffc\n 23869: a1 = u64 [a3 + 0xd8]\n 23873: a0 = a1 <u a0\n 23876: a1 = u64 [a3 + 0xd0]\n 23880: a0 = 0 if a1 != 0\n 23882: u64 [a3 + 0xc8] = a2\n 23886: a0 = 0 if a2 != 0\n 23888: jump @914 if a0 != 0\n      : @913 (gas: 1)\n 23891: jump @1318\n      : @914 (gas: 11)\n 23894: a0 = u64 [s1 + 0x1d8]\n 23898: i32 a0 = a0 + 0x4\n 23901: a2 = s1 + 0x7ff\n 23905: a2 = a2 + 0x159\n 23909: u64 [a2 + 64] = 0\n 23912: u64 [a2 + 56] = 0\n 23915: u64 [a2 + 40] = 0x20\n 23919: a1 = s1 + 0x7ff\n 23923: a1 = a1 + 0x181\n 23927: u64 [a2 + 48] = 0\n 23930: ra = 992, jump @19\n      : @915 [@dyn 496] (gas: 10)\n 23936: a2 = s1 + 0x100\n 23940: a0 = u64 [a2 + 0xc0]\n 23944: a0 = a0 + 0xffffffffffffffdc\n 23947: a1 = u64 [a2 + 0xd8]\n 23951: a0 = a1 <u a0\n 23954: a1 = u64 [a2 + 0xd0]\n 23958: a0 = 0 if a1 != 0\n 23960: a1 = u64 [a2 + 0xc8]\n 23964: a0 = 0 if a1 != 0\n 23966: jump @917 if a0 != 0\n      : @916 (gas: 1)\n 23969: jump @1318\n      : @917 (gas: 11)\n 23972: a0 = u64 [s1 + 0x1d8]\n 23976: i32 a0 = a0 + 0x24\n 23979: a2 = s1 + 0x7ff\n 23983: a2 = a2 + 0x159\n 23987: u64 [a2 + 32] = 0\n 23990: u64 [a2 + 24] = 0\n 23993: u64 [a2 + 8] = 0x1b\n 23997: a1 = s1 + 0x7ff\n 24001: a1 = a1 + 0x161\n 24005: u64 [a2 + 16] = 0\n 24008: ra = 994, jump @19\n      : @918 [@dyn 497] (gas: 9)\n 24014: a0 = 0xffffffbc\n 24024: a2 = s1 + 0x100\n 24028: a1 = u64 [a2 + 0xd8]\n 24032: a0 = a1 <u a0\n 24035: a1 = u64 [a2 + 0xd0]\n 24039: a0 = 0 if a1 != 0\n 24041: a1 = u64 [a2 + 0xc8]\n 24045: a0 = 0 if a1 != 0\n 24047: jump @920 if a0 != 0\n      : @919 (gas: 1)\n 24050: jump @1318\n      : @920 (gas: 18)\n 24053: a0 = u64 [s1 + 0x1d8]\n 24057: i32 a0 = a0 + 0x44\n 24060: a1 = u64 [0x20148]\n 24065: a2 = u64 [0x20150]\n 24070: a3 = u64 [0x20158]\n 24075: a4 = s1 + 0x7ff\n 24079: a4 = a4 + 0x159\n 24083: u64 [a4] = a1\n 24085: u64 [a4 + 0xfffffffffffffff8] = a2\n 24088: a1 = s1 + 0x1000\n 24092: u64 [a1 + 0xfffffffffffff948] = a3\n 24096: a2 = 0x656c660000000000\n 24106: a1 = s1 + 0x7ff\n 24110: a1 = a1 + 0x141\n 24114: a3 = s1 + 0x1000\n 24118: u64 [a3 + 0xfffffffffffff940] = a2\n 24122: ra = 0x402\n 24126: jump @19\n      : @921 (gas: 38)\n 24129: a0 = u64 [s1 + 0x120]\n 24133: a1 = u64 [s1 + 0x1d8]\n 24137: t2 = a1 <u a0\n 24140: a1 = u64 [s1 + 0x108]\n 24144: a5 = u64 [s1 + 0x1c8]\n 24148: a3 = a5 ^ a1\n 24151: a2 = a5 <u a1\n 24154: a2 = t2 if a3 == 0\n 24157: t0 = u64 [s1 + 0x110]\n 24161: a3 = u64 [s1 + 0x1c0]\n 24165: t1 = a3 - t0\n 24168: a3 = a3 <u t0\n 24171: ra = u64 [s1 + 0x118]\n 24175: a4 = u64 [s1 + 0x1d0]\n 24179: a4 = a4 - ra\n 24182: a4 = a4 - a3\n 24185: a3 = t1 <u a2\n 24188: a4 = a4 - a3\n 24191: u64 [s1 + 0x1d0] = a4\n 24195: t1 = t1 - a2\n 24198: a2 = a5 - a1\n 24201: a2 = a2 - t2\n 24204: a4 = u64 [s1 + 0x1d8]\n 24208: a4 = a4 - a0\n 24211: a3 = s1 + 0x1958\n 24215: a5 = a3 + 0x300\n 24219: u64 [a5 + 0x28] = a0\n 24222: u64 [a5 + 0x8] = a4\n 24225: u64 [a5 + 0x30] = a1\n 24228: u64 [a3 + 0x338] = t0\n 24232: u64 [a5 + 0x10] = a2\n 24235: u64 [a3 + 0x340] = ra\n 24239: u64 [a3 + 0x318] = t1\n 24243: a0 = s1 + 0x1c80\n 24247: a1 = s1 + 0x1c60\n 24251: a2 = u64 [s1 + 0x1d0]\n 24255: u64 [a5 + 0x20] = a2\n 24258: ra = 996, jump @1946\n      : @922 [@dyn 498] (gas: 3)\n 24264: a0 = s1 + 0x1c40\n 24268: a1 = 0x40\n 24271: ra = 998, jump @17\n      : @923 [@dyn 499] (gas: 14)\n 24277: a2 = s1 + 0x1958\n 24281: t0 = u64 [a2 + 0x300]\n 24285: a1 = a2 + 0x200\n 24289: a5 = u64 [a1 + 0xf8]\n 24293: a4 = u64 [a1 + 0xf0]\n 24297: a0 = u64 [a1 + 0xe8]\n 24301: a3 = a4 | t0\n 24304: a1 = a0 | a5\n 24307: a1 = a1 | a3\n 24310: a1 = a1 >> 0x20\n 24313: a3 = a3 | a5\n 24316: a3 = a3 << 0x20\n 24319: a1 = a1 | a3\n 24322: jump @925 if a1 == 0\n      : @924 (gas: 1)\n 24325: jump @1318\n      : @925 (gas: 22)\n 24328: a1 = a0 + 0x20\n 24331: u64 [s1 + 0x1d0] = a1\n 24335: t1 = a1 <u a0\n 24338: a1 = a4 + t1\n 24341: u64 [s1 + 0x1d8] = a1\n 24345: a1 = a1 <u a4\n 24348: a1 = t1 if t1 == 0\n 24351: a1 = a1 + a5\n 24354: u64 [s1 + 0x1c0] = a1\n 24358: a1 = a1 <u a5\n 24361: a1 = a1 + t0\n 24364: u64 [s1 + 0x1c8] = a1\n 24368: u64 [a2 + 736] = 0\n 24372: u64 [a2 + 728] = 0\n 24376: u64 [a2 + 720] = 0\n 24380: a1 = s1 + 0x1c20\n 24384: u64 [a2 + 712] = 0x20\n 24389: u64 [s1 + 0x170] = a0\n 24393: u64 [s1 + 0x168] = a4\n 24397: u64 [s1 + 0x160] = t0\n 24401: u64 [s1 + 0x158] = a5\n 24405: ra = 1000, jump @19\n      : @926 [@dyn 500] (gas: 3)\n 24411: a0 = s1 + 0x1c00\n 24415: a1 = u64 [s1 + 0x120]\n 24419: ra = 1002, jump @17\n      : @927 [@dyn 501] (gas: 13)\n 24425: a5 = s1 + 0x100\n 24429: a0 = u64 [a5 + 0xd0]\n 24433: a3 = u64 [a5 + 0xc0]\n 24437: a2 = a0 | a3\n 24440: a1 = u64 [a5 + 0xd8]\n 24444: a4 = u64 [a5 + 0xc8]\n 24448: a1 = a1 | a4\n 24451: a2 = a2 | a1\n 24454: a2 = a2 >> 0x20\n 24457: a1 = a1 | a3\n 24460: a1 = a1 << 0x20\n 24463: a1 = a1 | a2\n 24466: jump @929 if a1 == 0\n      : @928 (gas: 1)\n 24469: jump @1318\n      : @929 (gas: 16)\n 24472: a5 = s1 + 0x1958\n 24476: a4 = u64 [a5 + 0x2c0]\n 24480: a1 = u64 [a5 + 0x2b8]\n 24484: a2 = u64 [a5 + 0x2b0]\n 24488: a3 = u64 [a5 + 0x2a8]\n 24492: u64 [s1 + 0x178] = a3\n 24496: u64 [a5 + 0x288] = a3\n 24500: u64 [s1 + 0x180] = a2\n 24504: a3 = a5 + 0x200\n 24508: u64 [a3 + 0x90] = a2\n 24512: u64 [s1 + 0x188] = a1\n 24516: u64 [a3 + 0x98] = a1\n 24520: a1 = s1 + 0x1be0\n 24524: u64 [s1 + 0x190] = a4\n 24528: u64 [a3 + 0xa0] = a4\n 24532: ra = 1004, jump @19\n      : @930 [@dyn 502] (gas: 24)\n 24538: ra = 0\n 24540: a4 = 0\n 24542: t0 = 0\n 24544: t2 = 0\n 24546: a3 = s1 + 0x100\n 24550: a1 = u64 [a3 + 0x70]\n 24553: a0 = a1 + 0x40\n 24556: u64 [a3 + 0xd0] = a0\n 24560: a0 = a0 <u a1\n 24563: a2 = u64 [a3 + 0x68]\n 24566: a1 = a2 + a0\n 24569: u64 [a3 + 0xc8] = a1\n 24573: a1 = a1 <u a2\n 24576: a1 = a0 if a0 == 0\n 24579: a0 = u64 [a3 + 0x58]\n 24582: a1 = a1 + a0\n 24585: u64 [a3 + 0xc0] = a1\n 24589: a0 = a1 <u a0\n 24592: a1 = u64 [a3 + 0x60]\n 24595: a0 = a0 + a1\n 24598: u64 [a3 + 0xd8] = a0\n 24602: a1 = u64 [a3 + 0x30]\n 24605: t1 = u64 [s1 + 0x128]\n 24609: fallthrough\n      : @931 (gas: 17)\n 24610: a0 = u64 [s1 + 0x178]\n 24614: a0 = ra <u a0\n 24617: a2 = u64 [s1 + 0x180]\n 24621: a3 = a4 ^ a2\n 24624: u64 [s1 + 0x1b8] = a4\n 24628: a2 = a4 <u a2\n 24631: a2 = a0 if a3 == 0\n 24634: a5 = u64 [s1 + 0x188]\n 24638: a0 = t0 <u a5\n 24641: a3 = u64 [s1 + 0x190]\n 24645: a4 = t2 ^ a3\n 24648: a3 = t2 <u a3\n 24651: a3 = a0 if a4 == 0\n 24654: a0 = t0 ^ a5\n 24657: a0 = a0 | a4\n 24660: a3 = a2 if a0 == 0\n 24663: jump @980 if a3 == 0\n      : @932 (gas: 10)\n 24667: a0 = a1 | t1\n 24670: a2 = u64 [s1 + 0x138]\n 24674: a3 = u64 [s1 + 0x140]\n 24678: a2 = a2 | a3\n 24681: a0 = a0 | a2\n 24684: a0 = a0 >> 0x20\n 24687: a2 = a2 | t1\n 24690: a2 = a2 << 0x20\n 24693: a0 = a0 | a2\n 24696: jump @934 if a0 == 0\n      : @933 (gas: 1)\n 24699: jump @1318\n      : @934 (gas: 7)\n 24702: u64 [s1 + 0x1a0] = t0\n 24706: u64 [s1 + 0x1a8] = t2\n 24710: u64 [s1 + 0x1b0] = ra\n 24714: u64 [s1 + 0x128] = t1\n 24718: a0 = s1 + 0x1bc0\n 24722: u64 [s1 + 0x130] = a1\n 24726: ra = 1006, jump @17\n      : @935 [@dyn 503] (gas: 13)\n 24732: a1 = s1 + 0x100\n 24736: a5 = u64 [a1 + 0xd0]\n 24740: a2 = u64 [a1 + 0xc0]\n 24744: a0 = a5 | a2\n 24747: a3 = u64 [a1 + 0xd8]\n 24751: t1 = u64 [s1 + 0x1c8]\n 24755: a1 = t1 | a3\n 24758: a0 = a0 | a1\n 24761: a0 = a0 >> 0x20\n 24764: a1 = a1 | a2\n 24767: a1 = a1 << 0x20\n 24770: a0 = a0 | a1\n 24773: jump @937 if a0 == 0\n      : @936 (gas: 1)\n 24776: jump @1318\n      : @937 (gas: 17)\n 24779: a4 = s1 + 0x1958\n 24783: u64 [s1 + 0x1c0] = a2\n 24787: t0 = u64 [a4 + 0x280]\n 24791: a2 = a4 + 0x200\n 24795: a1 = u64 [a2 + 0x78]\n 24798: a0 = u64 [a2 + 0x70]\n 24801: u64 [s1 + 0x1d8] = a3\n 24805: a3 = u64 [a2 + 0x68]\n 24808: u64 [a2 + 0x48] = a3\n 24811: u64 [a2 + 0x50] = a0\n 24814: u64 [a2 + 0x58] = a1\n 24817: a1 = s1 + 0x1ba0\n 24821: u64 [a4 + 0x260] = t0\n 24825: a0 = a5\n 24827: u64 [s1 + 0x1d0] = a5\n 24831: u64 [s1 + 0x1c8] = t1\n 24835: ra = 1008, jump @19\n      : @938 [@dyn 504] (gas: 50)\n 24841: a1 = u64 [s1 + 0x1d0]\n 24845: a0 = a1 + 0x20\n 24848: u64 [s1 + 0x198] = a0\n 24852: a2 = a0 <u a1\n 24855: a0 = u64 [s1 + 0x1c8]\n 24859: t1 = a0 + a2\n 24862: a3 = t1 <u a0\n 24865: a3 = a2 if a2 == 0\n 24868: a0 = u64 [s1 + 0x1c0]\n 24872: t0 = a0 + a3\n 24875: a3 = t0 <u a0\n 24878: a0 = u64 [s1 + 0x1d8]\n 24882: a0 = a0 + a3\n 24885: u64 [s1 + 0x1d8] = a0\n 24889: a0 = u64 [s1 + 0x130]\n 24893: a3 = a0 + 0x20\n 24896: a4 = a3 <u a0\n 24899: a0 = u64 [s1 + 0x140]\n 24903: a5 = a0 + a4\n 24906: a0 = a5 <u a0\n 24909: a0 = a4 if a4 == 0\n 24912: a1 = u64 [s1 + 0x128]\n 24916: a2 = a1 + a0\n 24919: a4 = a2 <u a1\n 24922: a0 = u64 [s1 + 0x138]\n 24926: a0 = a0 + a4\n 24929: u64 [s1 + 0x138] = a0\n 24933: ra = u64 [s1 + 0x1b0]\n 24937: ra = ra + 0x1\n 24940: a4 = ra <u 0x1\n 24943: t2 = u64 [s1 + 0x1b8]\n 24947: t2 = t2 + a4\n 24950: a4 = ra | t2\n 24953: a4 = a4 <u 0x1\n 24956: a0 = u64 [s1 + 0x1a0]\n 24960: a4 = a4 + a0\n 24963: a1 = a4 <u a0\n 24966: a0 = u64 [s1 + 0x1a8]\n 24970: a0 = a0 + a1\n 24973: a1 = u64 [s1 + 0x198]\n 24977: u64 [s1 + 0x1d0] = a1\n 24981: u64 [s1 + 0x1c8] = t1\n 24985: u64 [s1 + 0x1c0] = t0\n 24989: a1 = a3\n 24991: u64 [s1 + 0x140] = a5\n 24995: t1 = a2\n 24997: t0 = a4\n 24999: a4 = t2\n 25001: t2 = a0\n 25003: jump @931\n      : @939 (gas: 13)\n 25006: a5 = s1 + 0x100\n 25010: a1 = u64 [a5 + 0xb0]\n 25014: a3 = u64 [a5 + 0xa0]\n 25018: a0 = a1 | a3\n 25021: a2 = u64 [a5 + 0xa8]\n 25025: a4 = u64 [a5 + 0x98]\n 25029: a2 = a2 | a4\n 25032: a0 = a0 | a2\n 25035: a0 = a0 >> 0x20\n 25038: a2 = a2 | a3\n 25041: a2 = a2 << 0x20\n 25044: a0 = a0 | a2\n 25047: jump @941 if a0 == 0\n      : @940 (gas: 1)\n 25050: jump @1318\n      : @941 (gas: 2)\n 25053: a0 = s1 + 0x3980\n 25057: ra = 1010, jump @17\n      : @942 [@dyn 505] (gas: 9)\n 25063: a3 = s1 + 0x3958\n 25067: a0 = u64 [a3 + 0x38]\n 25070: a1 = u64 [a3 + 0x40]\n 25073: a2 = u64 [a3 + 0x30]\n 25076: a3 = u64 [a3 + 0x28]\n 25079: a1 = a1 | a2\n 25082: a0 = a0 | a3\n 25085: a0 = a0 | a1\n 25088: jump @960 if a0 != 0\n      : @943 (gas: 3)\n 25092: a0 = s1 + 0x27e0\n 25096: a1 = 0x40\n 25099: ra = 1012, jump @17\n      : @944 [@dyn 506] (gas: 14)\n 25105: a2 = s1 + 0x2158\n 25109: t0 = u64 [a2 + 0x6a0]\n 25113: a1 = a2 + 0x600\n 25117: a5 = u64 [a1 + 0x98]\n 25121: a4 = u64 [a1 + 0x90]\n 25125: a0 = u64 [a1 + 0x88]\n 25129: a3 = a4 | t0\n 25132: a1 = a0 | a5\n 25135: a1 = a1 | a3\n 25138: a1 = a1 >> 0x20\n 25141: a3 = a3 | a5\n 25144: a3 = a3 << 0x20\n 25147: a1 = a1 | a3\n 25150: jump @946 if a1 == 0\n      : @945 (gas: 1)\n 25153: jump @1318\n      : @946 (gas: 11)\n 25156: u64 [a2 + 1656] = 0\n 25160: u64 [a2 + 1648] = 0\n 25164: u64 [a2 + 1640] = 0\n 25168: a3 = 0x8c379a000000000\n 25178: a1 = s1 + 0x27c0\n 25182: u64 [a2 + 0x680] = a3\n 25186: u64 [s1 + 0x1d8] = a0\n 25190: u64 [s1 + 0x1d0] = a4\n 25194: u64 [s1 + 0x1c0] = t0\n 25198: u64 [s1 + 0x1c8] = a5\n 25202: ra = 1014, jump @19\n      : @947 [@dyn 507] (gas: 1)\n 25208: t0 = 1016, jump @2326\n      : @948 [@dyn 508] (gas: 1)\n 25215: jump @950 if a0 != 0\n      : @949 (gas: 1)\n 25218: jump @1318\n      : @950 (gas: 1)\n 25221: t0 = 1018, jump @2380\n      : @951 [@dyn 509] (gas: 8)\n 25228: u64 [a2 + 1632] = 0\n 25232: u64 [a2 + 1624] = 0\n 25236: u64 [a2 + 1608] = 0x20\n 25241: a1 = s1 + 0x27a0\n 25245: u64 [a2 + 1616] = 0\n 25249: u64 [s1 + 0x1c8] = a3\n 25253: u64 [s1 + 0x1c0] = a4\n 25257: ra = 1020, jump @19\n      : @952 [@dyn 510] (gas: 10)\n 25263: a2 = s1 + 0x100\n 25267: a4 = u64 [a2 + 0xc8]\n 25271: a3 = u64 [a2 + 0xd0]\n 25275: a1 = u64 [a2 + 0xd8]\n 25279: a0 = u64 [a2 + 0xc0]\n 25283: a0 = a0 + 0xffffffffffffffdc\n 25286: a0 = a1 <u a0\n 25289: a0 = 0 if a3 != 0\n 25291: a0 = 0 if a4 != 0\n 25293: jump @954 if a0 != 0\n      : @953 (gas: 1)\n 25296: jump @1318\n      : @954 (gas: 8)\n 25299: i32 a0 = a1 + 0x24\n 25302: a2 = s1 + 0x2158\n 25306: u64 [a2 + 1600] = 0\n 25310: u64 [a2 + 1592] = 0\n 25314: u64 [a2 + 1576] = 0x15\n 25319: a1 = s1 + 0x2780\n 25323: u64 [a2 + 1584] = 0\n 25327: ra = 1022, jump @19\n      : @955 [@dyn 511] (gas: 1)\n 25333: t0 = 1024, jump @2338\n      : @956 [@dyn 512] (gas: 1)\n 25340: jump @958 if a0 != 0\n      : @957 (gas: 1)\n 25343: jump @1318\n      : @958 (gas: 12)\n 25346: i32 a0 = a3 + 0x44\n 25349: a1 = u64 [0x200c0]\n 25354: a2 = u64 [0x200c8]\n 25359: a4 = s1 + 0x2158\n 25363: a3 = a4 + 0x600\n 25367: u64 [a3 + 0x20] = a1\n 25370: u64 [a3 + 0x18] = a2\n 25373: a1 = 0x656d707479000000\n 25383: u64 [a3 + 0x10] = a1\n 25386: a1 = s1 + 0x2760\n 25390: u64 [a4 + 1544] = 0\n 25394: ra = 1026, jump @19\n      : @959 [@dyn 513] (gas: 4)\n 25400: a1 = 0x64\n 25403: a0 = u64 [s1 + 0x1d8]\n 25407: ra = 0x5bc\n 25411: jump @32\n      : @960 (gas: 13)\n 25414: a4 = s1 + 0x100\n 25418: a2 = u64 [a4 + 0x88]\n 25422: a5 = u64 [a4 + 0x78]\n 25425: a0 = a5 | a2\n 25428: a1 = u64 [a4 + 0x90]\n 25432: a3 = u64 [a4 + 0x80]\n 25436: a1 = a1 | a3\n 25439: a0 = a0 | a1\n 25442: a0 = a0 >> 0x20\n 25445: a1 = a1 | a2\n 25448: a1 = a1 << 0x20\n 25451: a0 = a0 | a1\n 25454: jump @962 if a0 == 0\n      : @961 (gas: 1)\n 25457: jump @1318\n      : @962 (gas: 3)\n 25460: a0 = s1 + 0x3960\n 25464: a1 = a5\n 25466: ra = 1028, jump @17\n      : @963 [@dyn 514] (gas: 12)\n 25472: a3 = s1 + 0x3958\n 25476: a0 = u64 [a3 + 0x18]\n 25479: a1 = u64 [a3 + 0x20]\n 25482: a2 = u64 [a3 + 0x10]\n 25485: a3 = u64 [a3 + 0x8]\n 25488: a1 = a1 | a2\n 25491: a0 = a0 | a3\n 25494: a0 = a0 | a1\n 25497: u64 [s1 + 0x138] = a0\n 25501: a0 = s1 + 0x3940\n 25505: a1 = 0x40\n 25508: ra = 1030, jump @17\n      : @964 [@dyn 515] (gas: 10)\n 25514: a0 = s1 + 0x3958\n 25518: t1 = u64 [a0]\n 25520: a1 = a0 + 0xffffffffffffff00\n 25524: a4 = u64 [a1 + 0xf8]\n 25528: a2 = u64 [a1 + 0xe8]\n 25532: a3 = u64 [a1 + 0xf0]\n 25536: a0 = a2 | a4\n 25539: a1 = a3 | t1\n 25542: a5 = u64 [s1 + 0x138]\n 25546: jump @984 if a5 != 0\n      : @965 (gas: 6)\n 25550: a0 = a0 | a1\n 25553: a0 = a0 >> 0x20\n 25556: a1 = a1 | a4\n 25559: a1 = a1 << 0x20\n 25562: a0 = a0 | a1\n 25565: jump @967 if a0 == 0\n      : @966 (gas: 1)\n 25568: jump @1318\n      : @967 (gas: 13)\n 25571: t0 = s1 + 0x2158\n 25575: u64 [t0 + 1816] = 0\n 25579: u64 [t0 + 1808] = 0\n 25583: u64 [t0 + 1800] = 0\n 25587: a0 = 0x8c379a000000000\n 25597: a1 = s1 + 0x2860\n 25601: u64 [t0 + 0x720] = a0\n 25605: a0 = a2\n 25607: u64 [s1 + 0x130] = a2\n 25611: u64 [s1 + 0x128] = a3\n 25615: u64 [s1 + 0x108] = a4\n 25619: u64 [s1 + 0x100] = t1\n 25623: ra = 1032, jump @19\n      : @968 [@dyn 516] (gas: 12)\n 25629: a5 = s1 + 0x100\n 25633: a1 = u64 [a5 + 0x30]\n 25636: a0 = u64 [a5 + 0x8]\n 25639: a3 = u64 [a5]\n 25641: a3 = a3 | a0\n 25644: a4 = 0x100000000\n 25654: a0 = 0xfffffffc\n 25664: a0 = a1 <u a0\n 25667: a2 = u64 [a5 + 0x28]\n 25670: a0 = 0 if a2 != 0\n 25672: a0 = 0 if a3 != 0\n 25674: jump @970 if a0 != 0\n      : @969 (gas: 1)\n 25677: jump @1318\n      : @970 (gas: 1)\n 25680: t0 = 1034, jump @2380\n      : @971 [@dyn 517] (gas: 8)\n 25687: u64 [a2 + 1792] = 0\n 25691: u64 [a2 + 1784] = 0\n 25695: u64 [a2 + 1768] = 0x20\n 25700: a1 = s1 + 0x2840\n 25704: u64 [a2 + 1776] = 0\n 25708: u64 [s1 + 0x1d8] = a3\n 25712: u64 [s1 + 0x1d0] = a4\n 25716: ra = 1036, jump @19\n      : @972 [@dyn 518] (gas: 6)\n 25722: a4 = s1 + 0x100\n 25726: a3 = u64 [a4 + 0xd8]\n 25730: a2 = u64 [a4 + 0x28]\n 25733: a1 = u64 [a4 + 0x30]\n 25736: a0 = u64 [a4 + 0xd0]\n 25740: t0 = 1038, jump @2358\n      : @973 [@dyn 519] (gas: 1)\n 25747: jump @975 if a0 != 0\n      : @974 (gas: 1)\n 25750: jump @1318\n      : @975 (gas: 8)\n 25753: i32 a0 = a1 + 0x24\n 25756: a3 = s1 + 0x2158\n 25760: u64 [a3 + 1760] = 0\n 25764: u64 [a3 + 1752] = 0\n 25768: u64 [a3 + 1736] = 0x16\n 25773: a1 = s1 + 0x2820\n 25777: u64 [a3 + 1744] = 0\n 25781: ra = 1040, jump @19\n      : @976 [@dyn 520] (gas: 9)\n 25787: a3 = s1 + 0x100\n 25791: a2 = u64 [a3 + 0x30]\n 25794: a0 = 0xffffffbc\n 25804: a0 = a2 <u a0\n 25807: a1 = u64 [a3 + 0x28]\n 25810: a0 = 0 if a1 != 0\n 25812: a1 = u64 [a3 + 0xd8]\n 25816: a0 = 0 if a1 != 0\n 25818: jump @978 if a0 != 0\n      : @977 (gas: 1)\n 25821: jump @1318\n      : @978 (gas: 12)\n 25824: i32 a0 = a2 + 0x44\n 25827: a1 = u64 [0x200a8]\n 25832: a2 = u64 [0x200b0]\n 25837: a3 = u64 [0x200b8]\n 25842: a4 = s1 + 0x2158\n 25846: a5 = a4 + 0x600\n 25850: u64 [a5 + 0xc0] = a1\n 25854: u64 [a5 + 0xb8] = a2\n 25858: u64 [a5 + 0xb0] = a3\n 25862: a1 = s1 + 0x2800\n 25866: u64 [a4 + 1704] = 0\n 25870: ra = 1042, jump @19\n      : @979 [@dyn 521] (gas: 4)\n 25876: a1 = 0x64\n 25879: a0 = u64 [s1 + 0x130]\n 25883: ra = 0x5bc\n 25887: jump @32\n      : @980 (gas: 30)\n 25890: a0 = u64 [s1 + 0x170]\n 25894: t2 = u64 [s1 + 0x1d0]\n 25898: t0 = t2 <u a0\n 25901: a5 = u64 [s1 + 0x168]\n 25905: a1 = u64 [s1 + 0x1c8]\n 25909: a3 = a1 ^ a5\n 25912: a2 = a1 <u a5\n 25915: a2 = t0 if a3 == 0\n 25918: a3 = u64 [s1 + 0x158]\n 25922: a4 = u64 [s1 + 0x1c0]\n 25926: ra = a4 - a3\n 25929: t1 = a4 <u a3\n 25932: a4 = u64 [s1 + 0x160]\n 25936: a3 = u64 [s1 + 0x1d8]\n 25940: a4 = a3 - a4\n 25943: a4 = a4 - t1\n 25946: a3 = ra <u a2\n 25949: a3 = a4 - a3\n 25952: a4 = ra - a2\n 25955: a2 = a1 - a5\n 25958: a2 = a2 - t0\n 25961: a1 = t2 - a0\n 25964: a2 = a2 | a3\n 25967: a3 = a1 | a4\n 25970: a3 = a3 | a2\n 25973: a2 = a2 | a4\n 25976: a3 = a3 >> 0x20\n 25979: a2 = a2 << 0x20\n 25982: a2 = a2 | a3\n 25985: jump @982 if a2 == 0\n      : @981 (gas: 1)\n 25988: jump @1318\n      : @982 (gas: 2)\n 25991: u64 [s1 + 0x1d8] = a1\n 25995: ra = 1044, jump @32\n      : @983 [@dyn 522] (gas: 5)\n 26001: i32 a1 = a0 + 0\n 26003: a2 = i32 [s1 + 0x1d8]\n 26007: a0 = 0\n 26009: ecalli 8 // 'seal_return'\n 26011: jump @490\n      : @984 (gas: 21)\n 26014: u64 [s1 + 0xf0] = a0\n 26018: u64 [s1 + 0xf8] = a1\n 26022: a0 = a2 + 0x20\n 26025: u64 [s1 + 0x138] = a0\n 26029: u64 [s1 + 0x130] = a2\n 26033: a0 = a0 <u a2\n 26036: a1 = a3 + a0\n 26039: u64 [s1 + 0x110] = a1\n 26043: u64 [s1 + 0x128] = a3\n 26047: a1 = a1 <u a3\n 26050: a1 = a0 if a0 == 0\n 26053: a1 = a1 + a4\n 26056: u64 [s1 + 0x120] = a1\n 26060: u64 [s1 + 0x108] = a4\n 26064: a0 = a1 <u a4\n 26067: u64 [s1 + 0x100] = t1\n 26071: a0 = a0 + t1\n 26074: u64 [s1 + 0x118] = a0\n 26078: a0 = s1 + 0x3920\n 26082: a1 = u64 [s1 + 0x1d0]\n 26086: ra = 1046, jump @17\n      : @985 [@dyn 523] (gas: 7)\n 26092: a4 = s1 + 0x100\n 26096: a2 = u64 [a4 + 0x20]\n 26099: a0 = u64 [a4 + 0x38]\n 26102: a0 = a0 | a2\n 26105: a1 = u64 [a4 + 0x10]\n 26108: a3 = u64 [a4 + 0x18]\n 26111: t0 = 1048, jump @2324\n      : @986 [@dyn 524] (gas: 1)\n 26118: jump @988 if a0 == 0\n      : @987 (gas: 1)\n 26121: jump @1318\n      : @988 (gas: 11)\n 26124: a3 = s1 + 0x100\n 26128: a0 = u64 [a3 + 0xc0]\n 26132: a1 = u64 [a3 + 0xb8]\n 26136: a0 = a0 | a1\n 26139: a1 = 0xffffffe0\n 26149: t0 = u64 [s1 + 0x1d0]\n 26153: a1 = t0 <u a1\n 26156: a2 = u64 [a3 + 0xc8]\n 26160: a1 = 0 if a2 != 0\n 26162: a1 = 0 if a0 != 0\n 26164: jump @990 if a1 != 0\n      : @989 (gas: 1)\n 26167: jump @1318\n      : @990 (gas: 14)\n 26170: a0 = s1 + 0x3158\n 26174: a5 = a0 + 0x700\n 26178: a3 = u64 [a5 + 0xe0]\n 26182: a4 = u64 [a5 + 0xd8]\n 26186: a1 = u64 [a5 + 0xc8]\n 26190: a2 = u64 [a5 + 0xd0]\n 26194: a0 = a1 | a4\n 26197: a5 = a2 | a3\n 26200: a0 = a0 | a5\n 26203: a0 = a0 >> 0x20\n 26206: a5 = a5 | a4\n 26209: a5 = a5 << 0x20\n 26212: a0 = a0 | a5\n 26215: jump @992 if a0 == 0\n      : @991 (gas: 1)\n 26218: jump @1318\n      : @992 (gas: 8)\n 26221: i32 a0 = t0 + 0x20\n 26224: u64 [s1 + 0xc8] = a0\n 26228: a0 = u64 [s1 + 0x138]\n 26232: u64 [s1 + 0xe0] = a3\n 26236: u64 [s1 + 0xd8] = a4\n 26240: u64 [s1 + 0xe8] = a1\n 26244: u64 [s1 + 0xd0] = a2\n 26248: ra = 1050, jump @32\n      : @993 [@dyn 525] (gas: 4)\n 26254: u64 [s1 + 0xc0] = a0\n 26258: a0 = u64 [s1 + 0xc8]\n 26262: a1 = u64 [s1 + 0xe8]\n 26266: ra = 1052, jump @32\n      : @994 [@dyn 526] (gas: 4)\n 26272: a1 = a0\n 26274: a0 = u64 [s1 + 0xc0]\n 26278: a2 = u64 [s1 + 0xe8]\n 26282: ra = 1054, jump @0\n      : @995 [@dyn 527] (gas: 7)\n 26288: a1 = u64 [s1 + 0x138]\n 26292: a0 = u64 [s1 + 0xe8]\n 26296: a0 = a0 + a1\n 26299: a1 = a0 <u a1\n 26302: a4 = u64 [s1 + 0x110]\n 26306: a2 = u64 [s1 + 0xd0]\n 26310: t0 = 1056, jump @2308\n      : @996 [@dyn 528] (gas: 9)\n 26317: a3 = u64 [s1 + 0x120]\n 26321: a1 = u64 [s1 + 0xd8]\n 26325: a1 = a1 + a3\n 26328: t0 = a1 <u a3\n 26331: a5 = u64 [s1 + 0x118]\n 26335: a3 = u64 [s1 + 0xe0]\n 26339: a5 = a5 + a3\n 26342: a3 = a5 + t0\n 26345: t0 = 1058, jump @2269\n      : @997 [@dyn 529] (gas: 1)\n 26352: jump @999 if a1 == 0\n      : @998 (gas: 1)\n 26355: jump @1318\n      : @999 (gas: 3)\n 26358: t0 = 0x424\n 26362: a2 = s1 + 0x3158\n 26366: fallthrough\n      : @1000 [@dyn 530] (gas: 6)\n 26367: u64 [a2 + 1984] = 0\n 26371: u64 [a2 + 1976] = 0\n 26375: u64 [a2 + 1968] = 0\n 26379: a1 = s1 + 0x3900\n 26383: u64 [a2 + 1960] = 0\n 26387: ra = 1062, jump @19\n      : @1001 [@dyn 531] (gas: 9)\n 26393: a2 = u64 [s1 + 0xf8]\n 26397: a0 = u64 [s1 + 0xf0]\n 26401: a0 = a0 | a2\n 26404: a0 = a0 >> 0x20\n 26407: a1 = u64 [s1 + 0x108]\n 26411: a1 = a1 | a2\n 26414: a1 = a1 << 0x20\n 26417: a0 = a0 | a1\n 26420: jump @1003 if a0 == 0\n      : @1002 (gas: 1)\n 26423: jump @1318\n      : @1003 (gas: 25)\n 26426: a4 = u64 [s1 + 0xe8]\n 26430: a0 = a4 + 0x20\n 26433: u64 [s1 + 0x118] = a0\n 26437: a0 = a0 <u a4\n 26440: a5 = u64 [s1 + 0xd0]\n 26444: a1 = a5 + a0\n 26447: u64 [s1 + 0x110] = a1\n 26451: a1 = a1 <u a5\n 26454: a1 = a0 if a0 == 0\n 26457: a3 = u64 [s1 + 0xd8]\n 26461: a1 = a1 + a3\n 26464: u64 [s1 + 0xf8] = a1\n 26468: a0 = a1 <u a3\n 26471: a2 = u64 [s1 + 0xe0]\n 26475: a0 = a0 + a2\n 26478: u64 [s1 + 0x120] = a0\n 26482: a0 = s1 + 0x3158\n 26486: u64 [a0 + 0x788] = a4\n 26490: a4 = a0 + 0x700\n 26494: u64 [a4 + 0x90] = a5\n 26498: u64 [a4 + 0x98] = a3\n 26502: a1 = s1 + 0x38e0\n 26506: u64 [a4 + 0xa0] = a2\n 26510: a0 = u64 [s1 + 0x130]\n 26514: ra = 1064, jump @19\n      : @1004 [@dyn 532] (gas: 22)\n 26520: a1 = s1 + 0x3158\n 26524: a0 = u64 [s1 + 0xf8]\n 26528: a2 = a1 + 0x700\n 26532: u64 [a2 + 0x58] = a0\n 26535: a0 = u64 [s1 + 0x110]\n 26539: u64 [a2 + 0x50] = a0\n 26542: a0 = u64 [s1 + 0x118]\n 26546: u64 [a2 + 0x48] = a0\n 26549: a0 = u64 [s1 + 0x100]\n 26553: u64 [a2 + 0x80] = a0\n 26557: a0 = u64 [s1 + 0x108]\n 26561: u64 [a2 + 0x78] = a0\n 26564: a0 = u64 [s1 + 0x128]\n 26568: u64 [a2 + 0x70] = a0\n 26571: a0 = u64 [s1 + 0x130]\n 26575: u64 [a2 + 0x68] = a0\n 26578: a3 = a1\n 26580: a0 = s1 + 0x38c0\n 26584: a1 = s1 + 0x38a0\n 26588: a2 = u64 [s1 + 0x120]\n 26592: u64 [a3 + 0x760] = a2\n 26596: ra = 1066, jump @1946\n      : @1005 [@dyn 533] (gas: 3)\n 26602: a0 = s1 + 0x3880\n 26606: a1 = u64 [s1 + 0x130]\n 26610: ra = 1068, jump @17\n      : @1006 [@dyn 534] (gas: 7)\n 26616: a3 = s1 + 0x3158\n 26620: a5 = a3 + 0x700\n 26624: a0 = u64 [a5 + 0x40]\n 26627: a1 = u64 [a5 + 0x38]\n 26630: a2 = u64 [a5 + 0x30]\n 26633: a4 = u64 [a5 + 0x28]\n 26636: t0 = 1070, jump @2337\n      : @1007 [@dyn 535] (gas: 1)\n 26643: jump @1009 if a0 == 0\n      : @1008 (gas: 1)\n 26646: jump @1318\n      : @1009 (gas: 5)\n 26649: a3 = a4\n 26651: a0 = u64 [s1 + 0x138]\n 26655: a1 = a4\n 26657: u64 [s1 + 0x130] = a3\n 26661: ra = 1072, jump @32\n      : @1010 [@dyn 536] (gas: 12)\n 26667: a1 = sp + 0xffffffffffffffe0\n 26670: a2 = a1 & 0xffffffffffffffe0\n 26673: u64 [s1 + 0x138] = a2\n 26677: sp = a2\n 26679: i32 a0 = a0 + 0\n 26681: a1 = i32 [s1 + 0x130]\n 26685: i32 a2 = a2 + 0\n 26687: ra = 0x432\n 26691: ecalli 6 // 'hash_keccak_256'\n 26693: a3 = u64 [s1 + 0x138]\n 26697: t0 = 0x434\n 26701: jump @2370\n      : @1011 [@dyn 537] (gas: 2)\n 26705: a3 = u64 [s1 + 0x138]\n 26709: t0 = 1076, jump @2370\n      : @1012 [@dyn 538] (gas: 13)\n 26716: u64 [s1 + 0xd8] = a0\n 26720: a3 = s1 + 0x3158\n 26724: a5 = a3 + 0x700\n 26728: u64 [a5 + 0x20] = a0\n 26731: u64 [s1 + 0xd0] = a2\n 26735: u64 [a5 + 0x18] = a2\n 26738: u64 [s1 + 0xe0] = a1\n 26742: u64 [a5 + 0x10] = a1\n 26745: a1 = s1 + 0x3860\n 26749: u64 [s1 + 0xe8] = a4\n 26753: u64 [a5 + 0x8] = a4\n 26756: a0 = 0\n 26758: ra = 1078, jump @19\n      : @1013 [@dyn 539] (gas: 9)\n 26764: a1 = s1 + 0x3158\n 26768: u64 [a1 + 1792] = 0\n 26772: u64 [a1 + 1784] = 0\n 26776: u64 [a1 + 1768] = 0x1\n 26781: a2 = a1\n 26783: a0 = 0x20\n 26786: a1 = s1 + 0x3840\n 26790: u64 [a2 + 1776] = 0\n 26794: ra = 1080, jump @19\n      : @1014 [@dyn 540] (gas: 4)\n 26800: a0 = 0x201a4\n 26805: u64 [s1 + 0xf8] = a0\n 26809: a0 = i32 [0x201a4]\n 26814: jump @1016 if a0 >u 63\n      : @1015 (gas: 3)\n 26818: a1 = u64 [s1 + 0xf8]\n 26822: u32 [a1 + 0] = 0x40\n 26825: fallthrough\n      : @1016 (gas: 14)\n 26826: a0 = sp + 0xffffffffffffffe0\n 26829: a2 = a0 & 0xffffffffffffffe0\n 26832: u64 [s1 + 0x138] = a2\n 26836: sp = a2\n 26838: a0 = 0x201b0\n 26843: i32 a0 = a0 + 0\n 26845: i32 a2 = a2 + 0\n 26847: a1 = 0x40\n 26850: u64 [s1 + 0xf0] = a0\n 26854: ra = 0x43a\n 26858: ecalli 6 // 'hash_keccak_256'\n 26860: a3 = u64 [s1 + 0x138]\n 26864: t0 = 0x43c\n 26868: jump @2266\n      : @1017 [@dyn 541] (gas: 2)\n 26872: a3 = u64 [s1 + 0x138]\n 26876: t0 = 1084, jump @2266\n      : @1018 [@dyn 542] (gas: 8)\n 26883: a3 = a1 + 0x500\n 26887: u64 [a3 + 0x48] = a4\n 26890: u64 [a3 + 0x50] = a5\n 26893: u64 [a3 + 0x58] = a2\n 26896: u64 [a3 + 0x60] = a0\n 26899: a0 = s1 + 0x3820\n 26903: a1 = s1 + 0x4ea0\n 26907: ra = 1086, jump @21\n      : @1019 [@dyn 543] (gas: 6)\n 26913: a0 = s1 + 0x3158\n 26917: a0 = u8 [a0 + 0x6c8]\n 26921: u64 [s1 + 0x118] = a0\n 26925: a0 = s1 + 0x3800\n 26929: a1 = 0x40\n 26932: ra = 1088, jump @17\n      : @1020 [@dyn 544] (gas: 18)\n 26938: a2 = s1 + 0x3158\n 26942: a3 = a2 + 0x600\n 26946: a0 = u64 [a3 + 0xc0]\n 26950: a4 = u64 [a3 + 0xb8]\n 26954: a1 = u64 [a3 + 0xa8]\n 26958: a2 = u64 [a3 + 0xb0]\n 26962: a5 = s1 + 0x100\n 26966: u64 [a5 + 0x38] = a1\n 26969: a1 = a1 | a4\n 26972: u64 [a5 + 0x20] = a1\n 26975: u64 [a5 + 0x30] = a2\n 26978: a2 = a2 | a0\n 26981: u64 [a5 + 0x28] = a2\n 26984: a3 = a4\n 26986: a1 = a4 | a0\n 26989: u64 [a5 + 0x10] = a1\n 26992: a1 = u64 [a5 + 0x18]\n 26995: jump @1022 if a1 == 0\n      : @1021 (gas: 1)\n 26998: jump @1301\n      : @1022 (gas: 13)\n 27001: a1 = s1 + 0x3158\n 27005: a2 = u64 [s1 + 0x138]\n 27009: a4 = a1 + 0x600\n 27013: u64 [a4 + 0x8] = a2\n 27016: a2 = u64 [s1 + 0x130]\n 27020: u64 [a4 + 0x10] = a2\n 27023: u64 [a4 + 0x20] = a0\n 27026: a0 = s1 + 0x3760\n 27030: u64 [s1 + 0x108] = a3\n 27034: u64 [a4 + 0x18] = a3\n 27037: ra = 0x442\n 27041: t0 = 0x8a2\n 27045: jump @2330\n      : @1023 [@dyn 545] (gas: 10)\n 27049: a3 = s1 + 0x100\n 27053: a1 = u64 [a3 + 0x28]\n 27056: a0 = u64 [a3 + 0x20]\n 27059: a0 = a0 | a1\n 27062: a0 = a0 >> 0x20\n 27065: a2 = u64 [a3 + 0x8]\n 27068: a1 = a1 | a2\n 27071: a1 = a1 << 0x20\n 27074: a0 = a0 | a1\n 27077: jump @1025 if a0 == 0\n      : @1024 (gas: 1)\n 27080: jump @1318\n      : @1025 (gas: 4)\n 27083: a0 = u64 [s1 + 0x1d0]\n 27087: t0 = 0x444\n 27091: a2 = s1 + 0x3158\n 27095: fallthrough\n      : @1026 [@dyn 546] (gas: 11)\n 27096: a1 = a2 + 0x500\n 27100: u64 [a1 + 0xe8] = a0\n 27104: a0 = u64 [s1 + 0x1c8]\n 27108: u64 [a1 + 0xf0] = a0\n 27112: a0 = u64 [s1 + 0x1c0]\n 27116: u64 [a1 + 0xf8] = a0\n 27120: a1 = s1 + 0x3740\n 27124: a0 = u64 [s1 + 0x1b8]\n 27128: u64 [a2 + 0x600] = a0\n 27132: a0 = u64 [s1 + 0x138]\n 27136: ra = 1094, jump @19\n      : @1027 [@dyn 547] (gas: 5)\n 27142: a0 = 0x100000000\n 27152: a2 = s1 + 0x100\n 27156: u64 [a2 + 0x28] = a0\n 27159: a0 = 0xffffffe0\n 27169: t0 = 1096, jump @2271\n      : @1028 [@dyn 548] (gas: 1)\n 27176: jump @1030 if a0 != 0\n      : @1029 (gas: 1)\n 27179: jump @1318\n      : @1030 (gas: 16)\n 27182: a0 = u64 [s1 + 0x138]\n 27186: i32 a2 = a0 + 0x20\n 27189: a0 = s1 + 0x3158\n 27193: a1 = u64 [s1 + 0x158]\n 27197: a4 = a0 + 0x500\n 27201: u64 [a4 + 0xc8] = a1\n 27205: a1 = u64 [s1 + 0x160]\n 27209: u64 [a4 + 0xd0] = a1\n 27213: a1 = u64 [s1 + 0x168]\n 27217: u64 [a4 + 0xd8] = a1\n 27221: a1 = s1 + 0x3720\n 27225: a3 = u64 [s1 + 0x170]\n 27229: u64 [a4 + 0xe0] = a3\n 27233: u64 [s1 + 0x108] = a2\n 27237: a0 = a2\n 27239: ra = 1098, jump @19\n      : @1031 [@dyn 549] (gas: 4)\n 27245: a2 = s1 + 0x100\n 27249: a0 = u64 [a2 + 0x28]\n 27252: a0 = a0 + 0xffffffffffffffc0\n 27255: t0 = 1100, jump @2271\n      : @1032 [@dyn 550] (gas: 1)\n 27262: jump @1034 if a0 != 0\n      : @1033 (gas: 1)\n 27265: jump @1318\n      : @1034 (gas: 6)\n 27268: a0 = u64 [s1 + 0x138]\n 27272: i32 a3 = a0 + 0x40\n 27275: a0 = u64 [s1 + 0x1b0]\n 27279: t0 = 0x44e\n 27283: a2 = s1 + 0x3158\n 27287: fallthrough\n      : @1035 [@dyn 551] (gas: 12)\n 27288: a4 = a2 + 0x500\n 27292: u64 [a4 + 0xa8] = a0\n 27296: a0 = u64 [s1 + 0x1a8]\n 27300: u64 [a4 + 0xb0] = a0\n 27304: a0 = u64 [s1 + 0x1a0]\n 27308: u64 [a4 + 0xb8] = a0\n 27312: a1 = s1 + 0x3700\n 27316: a0 = u64 [s1 + 0x198]\n 27320: u64 [a4 + 0xc0] = a0\n 27324: u64 [s1 + 0x100] = a3\n 27328: a0 = a3\n 27330: ra = 1104, jump @19\n      : @1036 [@dyn 552] (gas: 5)\n 27336: a0 = 0x100000000\n 27346: a2 = s1 + 0x100\n 27350: u64 [a2 + 0x70] = a0\n 27353: a0 = 0xffffffa0\n 27363: t0 = 1106, jump @2271\n      : @1037 [@dyn 553] (gas: 1)\n 27370: jump @1039 if a0 != 0\n      : @1038 (gas: 1)\n 27373: jump @1318\n      : @1039 (gas: 16)\n 27376: a0 = u64 [s1 + 0x138]\n 27380: i32 a2 = a0 + 0x60\n 27383: a0 = s1 + 0x3158\n 27387: a1 = u64 [s1 + 0x178]\n 27391: a4 = a0 + 0x500\n 27395: u64 [a4 + 0x88] = a1\n 27399: a1 = u64 [s1 + 0x180]\n 27403: u64 [a4 + 0x90] = a1\n 27407: a1 = u64 [s1 + 0x188]\n 27411: u64 [a4 + 0x98] = a1\n 27415: a1 = s1 + 0x36e0\n 27419: a3 = u64 [s1 + 0x190]\n 27423: u64 [a4 + 0xa0] = a3\n 27427: u64 [s1 + 0xc0] = a2\n 27431: a0 = a2\n 27433: ra = 1108, jump @19\n      : @1040 [@dyn 554] (gas: 7)\n 27439: a0 = 0x301b0\n 27444: u64 [s1 + 0xc8] = a0\n 27448: i32 a0 = a0 + 0\n 27450: u64 [s1 + 0xb8] = a0\n 27454: ra = 0x456\n 27458: ecalli 3 // 'caller'\n 27460: fallthrough\n      : @1041 [@dyn 555] (gas: 4)\n 27461: a2 = s1 + 0x100\n 27465: a0 = u64 [a2 + 0x70]\n 27468: a0 = a0 + 0xffffffffffffff80\n 27471: t0 = 1112, jump @2271\n      : @1042 [@dyn 556] (gas: 1)\n 27478: jump @1044 if a0 != 0\n      : @1043 (gas: 1)\n 27481: jump @1318\n      : @1044 (gas: 1)\n 27484: t0 = 1114, jump @2293\n      : @1045 [@dyn 557] (gas: 13)\n 27491: a4 = a2 | a0\n 27494: a1 = a1 >> 0x20\n 27497: a0 = u64 [s1 + 0x138]\n 27501: i32 a0 = a0 + 0x80\n 27505: a2 = s1 + 0x3158\n 27509: u64 [a2 + 1408] = 0\n 27513: a5 = a2 + 0x500\n 27517: u64 [a5 + 0x78] = a1\n 27520: u64 [a5 + 0x70] = a4\n 27523: a1 = s1 + 0x36c0\n 27527: u64 [a5 + 0x68] = a3\n 27530: u64 [s1 + 0xb0] = a0\n 27534: ra = 1116, jump @19\n      : @1046 [@dyn 558] (gas: 5)\n 27540: a0 = s1 + 0x5000\n 27544: i32 a0 = a0 + 0xfffffffffffffec0\n 27548: ra = 0x45e\n 27552: ecalli 7 // 'now'\n 27554: fallthrough\n      : @1047 [@dyn 559] (gas: 5)\n 27555: a0 = 0x100000000\n 27565: a2 = s1 + 0x100\n 27569: u64 [a2 + 0x90] = a0\n 27573: a0 = 0xffffff60\n 27583: t0 = 1120, jump @2271\n      : @1048 [@dyn 560] (gas: 1)\n 27590: jump @1050 if a0 != 0\n      : @1049 (gas: 1)\n 27593: jump @1318\n      : @1050 (gas: 17)\n 27596: a3 = s1 + 0x4958\n 27600: a0 = a3 + 0x500\n 27604: a5 = u64 [a0 + 0x68]\n 27607: a1 = u64 [a0 + 0x70]\n 27610: a2 = u64 [a0 + 0x78]\n 27613: a3 = u64 [a0 + 0x80]\n 27617: a0 = u64 [s1 + 0x138]\n 27621: i32 a0 = a0 + 0xa0\n 27625: a4 = s1 + 0x3158\n 27629: u64 [a4 + 0x560] = a3\n 27633: a3 = a4 + 0x500\n 27637: u64 [a3 + 0x58] = a2\n 27640: u64 [a3 + 0x50] = a1\n 27643: a1 = s1 + 0x36a0\n 27647: u64 [a3 + 0x48] = a5\n 27650: u64 [s1 + 0xa8] = a0\n 27654: ra = 1122, jump @19\n      : @1051 [@dyn 561] (gas: 5)\n 27660: a0 = s1 + 0x5000\n 27664: i32 a0 = a0 + 0xfffffffffffffee0\n 27668: ra = 0x464\n 27672: ecalli 7 // 'now'\n 27674: fallthrough\n      : @1052 [@dyn 562] (gas: 4)\n 27675: a2 = s1 + 0x100\n 27679: a0 = u64 [a2 + 0x90]\n 27683: a0 = a0 + 0xffffffffffffff40\n 27687: t0 = 1126, jump @2271\n      : @1053 [@dyn 563] (gas: 1)\n 27694: jump @1055 if a0 != 0\n      : @1054 (gas: 1)\n 27697: jump @1318\n      : @1055 (gas: 17)\n 27700: a3 = s1 + 0x4958\n 27704: a0 = a3 + 0x500\n 27708: a5 = u64 [a0 + 0x88]\n 27712: a1 = u64 [a0 + 0x90]\n 27716: a2 = u64 [a0 + 0x98]\n 27720: a3 = u64 [a0 + 0xa0]\n 27724: a0 = u64 [s1 + 0x138]\n 27728: i32 a0 = a0 + 0xc0\n 27732: a4 = s1 + 0x3158\n 27736: u64 [a4 + 0x540] = a3\n 27740: a3 = a4 + 0x500\n 27744: u64 [a3 + 0x38] = a2\n 27747: u64 [a3 + 0x30] = a1\n 27750: a1 = s1 + 0x3680\n 27754: u64 [a3 + 0x28] = a5\n 27757: u64 [s1 + 0xa0] = a0\n 27761: ra = 1128, jump @19\n      : @1056 [@dyn 564] (gas: 12)\n 27767: a3 = 0x1\n 27770: a0 = 0x100000000\n 27780: a2 = s1 + 0x100\n 27784: u64 [a2 + 0x90] = a0\n 27788: a1 = 0xffffff20\n 27798: a0 = u64 [a2 + 0x38]\n 27801: a1 = a0 <u a1\n 27804: a0 = u64 [a2 + 0x30]\n 27807: a1 = 0 if a0 != 0\n 27809: a0 = u64 [a2 + 0x10]\n 27812: a1 = 0 if a0 != 0\n 27814: jump @1058 if a1 != 0\n      : @1057 (gas: 1)\n 27817: jump @1318\n      : @1058 (gas: 5)\n 27820: a0 = u64 [s1 + 0x138]\n 27824: i32 a0 = a0 + 0xe0\n 27828: t0 = 0x46a\n 27832: a2 = s1 + 0x3158\n 27836: fallthrough\n      : @1059 [@dyn 565] (gas: 7)\n 27837: u64 [a2 + 1312] = 0\n 27841: u64 [a2 + 1304] = 0\n 27845: u64 [a2 + 1296] = 0\n 27849: a1 = s1 + 0x3660\n 27853: u64 [a2 + 0x508] = a3\n 27857: u64 [s1 + 0x88] = a0\n 27861: ra = 1132, jump @19\n      : @1060 [@dyn 566] (gas: 4)\n 27867: a2 = s1 + 0x100\n 27871: a0 = u64 [a2 + 0x90]\n 27875: a0 = a0 + 0xffffffffffffff00\n 27879: t0 = 1134, jump @2271\n      : @1061 [@dyn 567] (gas: 1)\n 27886: jump @1063 if a0 != 0\n      : @1062 (gas: 1)\n 27889: jump @1318\n      : @1063 (gas: 17)\n 27892: a4 = s1 + 0x100\n 27896: a0 = u64 [a4 + 0x38]\n 27899: i32 a2 = a0 + 0x100\n 27903: a3 = s1 + 0x3158\n 27907: a0 = u64 [a4 + 0x40]\n 27910: a1 = a3 + 0x400\n 27914: u64 [a1 + 0xe8] = a0\n 27918: a0 = u64 [a4 + 0x48]\n 27921: u64 [a1 + 0xf0] = a0\n 27925: a0 = u64 [a4 + 0x50]\n 27928: u64 [a1 + 0xf8] = a0\n 27932: a1 = s1 + 0x3640\n 27936: a0 = u64 [a4 + 0xd8]\n 27940: u64 [a3 + 0x500] = a0\n 27944: u64 [s1 + 0x58] = a2\n 27947: a0 = a2\n 27949: ra = 1136, jump @19\n      : @1064 [@dyn 568] (gas: 4)\n 27955: a0 = u64 [s1 + 0xd8]\n 27959: t0 = 0x472\n 27963: a2 = s1 + 0x3158\n 27967: fallthrough\n      : @1065 [@dyn 569] (gas: 11)\n 27968: a3 = a2 + 0x400\n 27972: u64 [a3 + 0xe0] = a0\n 27976: a0 = u64 [s1 + 0xd0]\n 27980: u64 [a3 + 0xd8] = a0\n 27984: a0 = u64 [s1 + 0xe0]\n 27988: u64 [a3 + 0xd0] = a0\n 27992: a1 = s1 + 0x3620\n 27996: a0 = u64 [s1 + 0xe8]\n 28000: u64 [a3 + 0xc8] = a0\n 28004: a0 = 0\n 28006: ra = 1140, jump @19\n      : @1066 [@dyn 570] (gas: 9)\n 28012: a1 = s1 + 0x3158\n 28016: u64 [a1 + 1216] = 0\n 28020: u64 [a1 + 1208] = 0\n 28024: u64 [a1 + 1192] = 0x1\n 28029: a2 = a1\n 28031: a0 = 0x20\n 28034: a1 = s1 + 0x3600\n 28038: u64 [a2 + 1200] = 0\n 28042: ra = 1142, jump @19\n      : @1067 [@dyn 571] (gas: 7)\n 28048: a0 = sp + 0xffffffffffffffe0\n 28051: a0 = a0 & 0xffffffffffffffe0\n 28054: u64 [s1 + 0x98] = a0\n 28058: sp = a0\n 28060: a0 = u64 [s1 + 0xf8]\n 28064: a0 = i32 [a0]\n 28066: jump @1069 if a0 >u 63\n      : @1068 (gas: 4)\n 28070: a1 = u64 [s1 + 0xf8]\n 28074: u32 [a1 + 0] = 0x40\n 28077: t0 = 0x478\n 28081: jump @2325\n      : @1069 (gas: 1)\n 28085: t0 = 1144, jump @2325\n      : @1070 [@dyn 572] (gas: 5)\n 28092: ra = 0x47a\n 28096: ecalli 6 // 'hash_keccak_256'\n 28098: a3 = u64 [s1 + 0x1d8]\n 28102: t0 = 0x47c\n 28106: jump @2369\n      : @1071 [@dyn 573] (gas: 2)\n 28110: a3 = u64 [s1 + 0x1d8]\n 28114: t0 = 1148, jump @2369\n      : @1072 [@dyn 574] (gas: 12)\n 28121: u64 [s1 + 0x78] = a1\n 28124: a2 = u64 [s1 + 0x98]\n 28128: u64 [a2 + 0x18] = a1\n 28131: u64 [s1 + 0x80] = a0\n 28135: u64 [a2 + 0x10] = a0\n 28138: u64 [s1 + 0x70] = a4\n 28141: u64 [a2 + 0x8] = a4\n 28144: u64 [s1 + 0x68] = a5\n 28147: u64 [a2] = a5\n 28149: a0 = s1 + 0x35e0\n 28153: a1 = u64 [s1 + 0x138]\n 28157: ra = 1150, jump @17\n      : @1073 [@dyn 575] (gas: 7)\n 28163: a0 = s1 + 0x3158\n 28167: a5 = a0 + 0x400\n 28171: a3 = u64 [a5 + 0xa0]\n 28175: a4 = u64 [a5 + 0x98]\n 28179: a2 = u64 [a5 + 0x90]\n 28183: a1 = u64 [a5 + 0x88]\n 28187: t0 = 1152, jump @2309\n      : @1074 [@dyn 576] (gas: 1)\n 28194: jump @1076 if a0 == 0\n      : @1075 (gas: 1)\n 28197: jump @1318\n      : @1076 (gas: 3)\n 28200: a0 = s1 + 0x35c0\n 28204: a1 = u64 [s1 + 0x130]\n 28208: ra = 1154, jump @17\n      : @1077 [@dyn 577] (gas: 19)\n 28214: a0 = s1 + 0x3158\n 28218: a4 = a0 + 0x400\n 28222: a3 = u64 [a4 + 0x80]\n 28226: a1 = u64 [a4 + 0x78]\n 28229: a2 = u64 [a4 + 0x70]\n 28232: a0 = a3 >u 0\n 28234: a4 = a1 >u 0\n 28236: a4 = a0 if a3 != 0\n 28239: a5 = s1 + 0x100\n 28243: u64 [a5 + 0x50] = a2\n 28246: a0 = a2 >u 0\n 28248: u64 [s1 + 0x60] = a1\n 28251: u64 [a5 + 0x48] = a3\n 28254: a1 = a1 | a3\n 28257: u64 [s1 + 0x50] = a0\n 28260: u64 [a5 + 0x10] = a4\n 28263: u64 [a5 + 0x40] = a1\n 28266: a0 = a4 if a1 != 0\n 28269: jump @1079 if a0 == 0\n      : @1078 (gas: 1)\n 28272: jump @1867\n      : @1079 (gas: 6)\n 28275: a0 = s1 + 0x3158\n 28279: a0 = u64 [a0 + 0x468]\n 28283: u64 [s1 + 0x90] = a0\n 28287: a0 = s1 + 0x35a0\n 28291: a1 = u64 [s1 + 0x98]\n 28295: ra = 1156, jump @21\n      : @1080 [@dyn 578] (gas: 13)\n 28301: a4 = s1 + 0x3158\n 28305: a5 = a4 + 0x400\n 28309: a2 = u64 [a5 + 0x48]\n 28312: a0 = u64 [a5 + 0x50]\n 28315: a1 = u64 [a5 + 0x58]\n 28318: a3 = u64 [a5 + 0x60]\n 28321: u64 [a5 + 0x20] = a3\n 28324: u64 [a5 + 0x18] = a1\n 28327: u64 [a5 + 0x10] = a0\n 28330: a0 = s1 + 0x3580\n 28334: a1 = s1 + 0x3560\n 28338: u64 [a5 + 0x8] = a2\n 28341: ra = 1158, jump @2009\n      : @1081 [@dyn 579] (gas: 24)\n 28347: a0 = s1 + 0x3158\n 28351: a1 = a0 + 0x400\n 28355: a3 = u64 [a1 + 0x40]\n 28358: a4 = u64 [a1 + 0x38]\n 28361: a5 = u64 [a1 + 0x30]\n 28364: a2 = u64 [a1 + 0x28]\n 28367: a0 = a3 >u 0\n 28369: a1 = a4 >u 0\n 28371: a1 = a0 if a3 != 0\n 28374: a0 = a5 >u 0\n 28376: u64 [s1 + 0x178] = a2\n 28380: a2 = a2 <u 0x20\n 28383: a2 = a2 ^ 0x1\n 28386: u64 [s1 + 0x180] = a5\n 28390: a2 = a0 if a5 != 0\n 28393: a5 = s1 + 0x100\n 28397: u64 [a5 + 0x88] = a3\n 28401: u64 [a5 + 0x90] = a4\n 28405: a0 = a4 | a3\n 28408: a2 = a1 if a0 != 0\n 28411: a0 = u64 [s1 + 0x90]\n 28415: a0 = a0 <u 0x20\n 28418: u64 [a5 + 0x38] = a0\n 28421: jump @1083 if a2 != 0\n      : @1082 (gas: 1)\n 28424: jump @1319\n      : @1083 (gas: 13)\n 28427: a0 = s1 + 0x3158\n 28431: a1 = u64 [s1 + 0x68]\n 28434: a2 = a0 + 0x300\n 28438: u64 [a2 + 0xe8] = a1\n 28442: a1 = u64 [s1 + 0x70]\n 28445: u64 [a2 + 0xf0] = a1\n 28449: a1 = u64 [s1 + 0x80]\n 28453: u64 [a2 + 0xf8] = a1\n 28457: a1 = s1 + 0x3540\n 28461: a2 = u64 [s1 + 0x78]\n 28464: u64 [a0 + 0x400] = a2\n 28468: a0 = 0\n 28470: ra = 1160, jump @19\n      : @1084 [@dyn 580] (gas: 3)\n 28476: a0 = u64 [s1 + 0xf8]\n 28480: a0 = i32 [a0]\n 28482: jump @1086 if a0 >u 31\n      : @1085 (gas: 4)\n 28486: a1 = u64 [s1 + 0xf8]\n 28490: u32 [a1 + 0] = 0x20\n 28493: t0 = 0x48a\n 28497: jump @2304\n      : @1086 (gas: 1)\n 28501: t0 = 1162, jump @2304\n      : @1087 [@dyn 581] (gas: 57)\n 28508: ecalli 6 // 'hash_keccak_256'\n 28510: a0 = u64 [s1 + 0x90]\n 28514: a1 = a0 + 0x1f\n 28517: a0 = a1 <u a0\n 28520: a5 = u64 [s1 + 0x150]\n 28524: a2 = a5 + a0\n 28527: a3 = a2 <u a5\n 28530: a3 = a0 if a0 == 0\n 28533: a4 = u64 [s1 + 0x60]\n 28536: a3 = a3 + a4\n 28539: u64 [s1 + 0x158] = a3\n 28543: a3 = a3 << 0x3b\n 28546: a4 = a2 >> 0x5\n 28549: a4 = a4 | a3\n 28552: a0 = u64 [s1 + 0x160]\n 28556: t0 = u64 [a0 + 0x18]\n 28559: a2 = a2 << 0x3b\n 28562: a0 = u64 [a0 + 0x10]\n 28565: a1 = a1 >> 0x5\n 28568: a2 = a2 | a1\n 28571: t2 = reverse t0\n 28573: a0 = reverse a0\n 28575: a1 = u64 [s1 + 0x138]\n 28579: a1 = 0 if a5 != 0\n 28581: a3 = u64 [s1 + 0x140]\n 28585: a1 = 0 if a3 != 0\n 28587: a4 = 0 if a1 != 0\n 28589: a2 = 0 if a1 != 0\n 28591: t0 = t2 + a2\n 28594: a2 = t0 <u t2\n 28597: a5 = a0 + a2\n 28600: a4 = a4 + a5\n 28603: u64 [s1 + 0x1d8] = a4\n 28607: a5 = a4 ^ a0\n 28610: a3 = a4 <u a0\n 28613: a3 = a2 if a5 == 0\n 28616: u64 [s1 + 0x48] = a3\n 28619: a2 = u64 [s1 + 0x178]\n 28623: ra = a2 + 0x1f\n 28626: a4 = ra <u a2\n 28629: a3 = u64 [s1 + 0x180]\n 28633: a2 = a3 + a4\n 28636: a5 = a2 <u a3\n 28639: a5 = a4 if a4 == 0\n 28642: t1 = u64 [s1 + 0x190]\n 28646: t1 = t1 + a5\n 28649: a4 = t1 << 0x3b\n 28652: a3 = a2 >> 0x5\n 28655: a3 = a3 | a4\n 28658: a2 = a2 << 0x3b\n 28661: a4 = ra >> 0x5\n 28664: a2 = a2 | a4\n 28667: a2 = a2 + t2\n 28670: u64 [s1 + 0x170] = a2\n 28674: a4 = a2 <u t2\n 28677: t2 = t0\n 28679: t0 = 1164, jump @2355\n      : @1088 [@dyn 582] (gas: 4)\n 28686: a0 = u64 [s1 + 0x60]\n 28689: a0 = a4 <u a0\n 28692: a3 = u64 [s1 + 0x148]\n 28696: t0 = 1166, jump @2333\n      : @1089 [@dyn 583] (gas: 8)\n 28703: t0 = u64 [a4]\n 28705: a4 = u64 [a4 + 0x8]\n 28708: a0 = a0 >> 0x5\n 28711: a3 = 0 if a1 != 0\n 28713: a0 = 0 if a1 != 0\n 28715: a1 = reverse a4\n 28717: a4 = reverse t0\n 28719: t0 = 1168, jump @2388\n      : @1090 [@dyn 584] (gas: 28)\n 28726: ra = u64 [s1 + 0x48]\n 28729: ra = ra + a3\n 28732: a3 = ra <u a3\n 28735: t0 = a0 + a3\n 28738: a0 = u64 [s1 + 0x190]\n 28742: a0 = t1 <u a0\n 28745: a3 = u64 [s1 + 0x188]\n 28749: a0 = a0 + a3\n 28752: a3 = t1 >> 0x5\n 28755: a5 = a0 << 0x3b\n 28758: a3 = a3 | a5\n 28761: a0 = a0 >> 0x5\n 28764: a0 = a0 + a4\n 28767: a5 = s1 + 0x100\n 28771: a4 = u64 [a5 + 0xd8]\n 28775: a3 = a3 + a1\n 28778: a1 = a3 <u a1\n 28781: a0 = a0 + a1\n 28784: a2 = a2 + a3\n 28787: u64 [a5 + 0x60] = a2\n 28790: a1 = a2 <u a3\n 28793: a0 = a0 + a1\n 28796: u64 [a5 + 0x58] = a0\n 28799: a0 = sp + 0xffffffffffffffe0\n 28802: a0 = a0 & 0xffffffffffffffe0\n 28805: u64 [a5 + 0x90] = a0\n 28809: sp = a0\n 28811: fallthrough\n      : @1091 (gas: 26)\n 28812: a0 = u64 [s1 + 0x170]\n 28816: a0 = t2 <u a0\n 28819: a2 = u64 [s1 + 0x168]\n 28823: a1 = a4 ^ a2\n 28826: a2 = a4 <u a2\n 28829: a2 = a0 if a1 == 0\n 28832: a5 = u64 [s1 + 0x160]\n 28836: a0 = ra <u a5\n 28839: a3 = u64 [s1 + 0x158]\n 28843: a1 = t0 ^ a3\n 28846: a3 = t0 <u a3\n 28849: a3 = a0 if a1 == 0\n 28852: a0 = ra ^ a5\n 28855: a0 = a0 | a1\n 28858: a3 = a2 if a0 == 0\n 28861: u64 [s1 + 0x188] = t2\n 28865: a0 = u64 [s1 + 0x190]\n 28869: u64 [a0] = t2\n 28871: u64 [s1 + 0x1d8] = a4\n 28875: u64 [a0 + 0x8] = a4\n 28878: u64 [s1 + 0x178] = ra\n 28882: u64 [a0 + 0x10] = ra\n 28885: u64 [s1 + 0x180] = t0\n 28889: u64 [a0 + 0x18] = t0\n 28892: a0 = s1 + 0x4958\n 28896: jump @1093 if a3 != 0\n      : @1092 (gas: 1)\n 28899: jump @1319\n      : @1093 (gas: 7)\n 28902: u64 [a0 + 1472] = 0\n 28906: u64 [a0 + 1464] = 0\n 28910: u64 [a0 + 1456] = 0\n 28914: u64 [a0 + 1448] = 0\n 28918: a1 = s1 + 0x4f00\n 28922: a0 = u64 [s1 + 0x190]\n 28926: ra = 1170, jump @23\n      : @1094 [@dyn 585] (gas: 1)\n 28932: t0 = 1172, jump @2276\n      : @1095 [@dyn 586] (gas: 4)\n 28939: t0 = u64 [s1 + 0x180]\n 28943: t0 = t0 + a1\n 28946: ra = a0\n 28948: jump @1091\n      : @1096 (gas: 10)\n 28951: a4 = s1 + 0x100\n 28955: a0 = u64 [a4 + 0x88]\n 28959: a0 = a0 ^ 0x1\n 28962: a2 = u64 [s1 + 0xd8]\n 28966: a1 = u64 [a4 + 0x78]\n 28969: a0 = a1 if a2 != 0\n 28972: a1 = u64 [a4 + 0x80]\n 28976: a3 = u64 [a4 + 0x90]\n 28980: a0 = a1 if a3 != 0\n 28983: jump @1162 if a0 == 0\n      : @1097 (gas: 16)\n 28987: a0 = u64 [s1 + 0xf0]\n 28991: a0 = a0 & 0xffffffffffffffe0\n 28994: u64 [s1 + 0x150] = a0\n 28998: a0 = s1 + 0x1158\n 29002: a1 = u64 [s1 + 0xc0]\n 29006: a3 = a0 + 0x400\n 29010: u64 [a3 + 0xc8] = a1\n 29014: a1 = u64 [s1 + 0xb8]\n 29018: u64 [a3 + 0xd0] = a1\n 29022: a1 = u64 [s1 + 0xa8]\n 29026: u64 [a3 + 0xd8] = a1\n 29030: a1 = s1 + 0x1620\n 29034: a2 = u64 [s1 + 0xb0]\n 29038: u64 [a3 + 0xe0] = a2\n 29042: a0 = 0\n 29044: ra = 1174, jump @19\n      : @1098 [@dyn 587] (gas: 7)\n 29050: a0 = sp + 0xffffffffffffffe0\n 29053: a0 = a0 & 0xffffffffffffffe0\n 29056: u64 [s1 + 0x1b8] = a0\n 29060: sp = a0\n 29062: a1 = 0x20\n 29065: a0 = 0\n 29067: ra = 1176, jump @32\n      : @1099 [@dyn 588] (gas: 4)\n 29073: a1 = sp + 0xffffffffffffffe0\n 29076: a1 = a1 & 0xffffffffffffffe0\n 29079: u64 [s1 + 0x1c0] = a1\n 29083: t0 = 1178, jump @2336\n      : @1100 [@dyn 589] (gas: 30)\n 29090: ecalli 6 // 'hash_keccak_256'\n 29092: u64 [s1 + 472] = 0x20\n 29097: t1 = 0\n 29099: t2 = 0\n 29101: u64 [s1 + 464] = 0\n 29105: a4 = 0\n 29107: a5 = 0\n 29109: a2 = 0\n 29111: u64 [s1 + 456] = 0\n 29115: a3 = u64 [s1 + 0x1c0]\n 29119: a0 = u64 [a3 + 0x18]\n 29122: a1 = u64 [a3 + 0x10]\n 29125: t0 = u64 [a3 + 0x8]\n 29128: a3 = u64 [a3]\n 29130: a0 = reverse a0\n 29132: u64 [s1 + 0x1c0] = a0\n 29136: ra = reverse a1\n 29138: a1 = reverse t0\n 29140: a3 = reverse a3\n 29142: t0 = a3\n 29144: a0 = u64 [s1 + 0x1b8]\n 29148: u64 [a0 + 0x18] = a3\n 29151: u64 [s1 + 0x178] = a1\n 29155: u64 [a0 + 0x10] = a1\n 29158: u64 [s1 + 0x1b0] = ra\n 29162: u64 [a0 + 0x8] = ra\n 29165: a1 = u64 [s1 + 0x1c0]\n 29169: a3 = a1\n 29171: u64 [a0] = a1\n 29173: fallthrough\n      : @1101 (gas: 25)\n 29174: u64 [s1 + 0x1a8] = t0\n 29178: u64 [s1 + 0x1c0] = a3\n 29182: a0 = u64 [s1 + 0x150]\n 29186: u64 [s1 + 0x190] = a4\n 29190: a0 = a4 <u a0\n 29193: a4 = a0 ^ 0x1\n 29196: u64 [s1 + 0x188] = a5\n 29200: a4 = 0x1 if a5 != 0\n 29203: u64 [s1 + 0x1a0] = a2\n 29207: a0 = u64 [s1 + 0x1c8]\n 29211: a0 = a0 | a2\n 29214: a4 = 0x1 if a0 != 0\n 29217: a5 = u64 [s1 + 0x170]\n 29221: a1 = u64 [s1 + 0x1d8]\n 29225: a1 = a1 + a5\n 29228: a3 = u64 [s1 + 0x168]\n 29232: u64 [s1 + 0x180] = t1\n 29236: t0 = a3 + t1\n 29239: a2 = u64 [s1 + 0x160]\n 29243: u64 [s1 + 0x198] = t2\n 29247: ra = a2 + t2\n 29250: t1 = u64 [s1 + 0x158]\n 29254: a0 = u64 [s1 + 0x1d0]\n 29258: t1 = t1 + a0\n 29261: jump @1164 if a4 != 0\n      : @1102 (gas: 18)\n 29265: t2 = a1 <u a5\n 29268: a4 = t0 + t2\n 29271: t0 = a4 ^ a3\n 29274: a5 = a4 <u a3\n 29277: a5 = t2 if t0 == 0\n 29280: a5 = a5 + ra\n 29283: a3 = a5 <u ra\n 29286: a2 = ra <u a2\n 29289: a0 = t1 + a2\n 29292: a0 = a0 + a3\n 29295: a2 = a1 | a5\n 29298: a0 = a0 | a4\n 29301: a2 = a2 | a0\n 29304: a2 = a2 >> 0x20\n 29307: a0 = a0 | a5\n 29310: a0 = a0 << 0x20\n 29313: a0 = a0 | a2\n 29316: jump @1104 if a0 == 0\n      : @1103 (gas: 1)\n 29319: jump @1318\n      : @1104 (gas: 2)\n 29322: a0 = s1 + 0x14a0\n 29326: ra = 1180, jump @17\n      : @1105 [@dyn 590] (gas: 15)\n 29332: a3 = s1 + 0x1158\n 29336: a4 = a3 + 0x300\n 29340: a0 = u64 [a4 + 0x60]\n 29343: a1 = u64 [a4 + 0x58]\n 29346: a2 = u64 [a4 + 0x50]\n 29349: a3 = u64 [a4 + 0x48]\n 29352: a4 = s1 + 0x4958\n 29356: a5 = a4 + 0x100\n 29360: u64 [a5 + 0x40] = a0\n 29363: u64 [a5 + 0x38] = a1\n 29366: u64 [a5 + 0x30] = a2\n 29369: u64 [a5 + 0x28] = a3\n 29372: a1 = s1 + 0x4a80\n 29376: a0 = u64 [s1 + 0x1b8]\n 29380: ra = 1182, jump @23\n      : @1106 [@dyn 591] (gas: 54)\n 29386: ra = u64 [s1 + 0x1c0]\n 29390: ra = ra + 0x1\n 29393: a0 = ra <u 0x1\n 29396: t0 = u64 [s1 + 0x1b0]\n 29400: t0 = t0 + a0\n 29403: a0 = ra | t0\n 29406: a0 = a0 <u 0x1\n 29409: a1 = u64 [s1 + 0x178]\n 29413: t1 = a1 + a0\n 29416: a1 = t1 <u a1\n 29419: a0 = u64 [s1 + 0x1a8]\n 29423: a0 = a0 + a1\n 29426: a1 = u64 [s1 + 0x1d8]\n 29430: a2 = a1 + 0x20\n 29433: u64 [s1 + 0x1c0] = a2\n 29437: a3 = a2 <u a1\n 29440: a1 = u64 [s1 + 0x180]\n 29444: a2 = a1 + a3\n 29447: u64 [s1 + 0x1a8] = a2\n 29451: a4 = a2 <u a1\n 29454: a4 = a3 if a3 == 0\n 29457: a1 = u64 [s1 + 0x198]\n 29461: t2 = a1 + a4\n 29464: a4 = t2 <u a1\n 29467: a1 = u64 [s1 + 0x1d0]\n 29471: a1 = a1 + a4\n 29474: u64 [s1 + 0x1d0] = a1\n 29478: a1 = u64 [s1 + 0x190]\n 29482: a4 = a1 + 0x20\n 29485: a5 = a4 <u a1\n 29488: a2 = u64 [s1 + 0x188]\n 29492: a1 = a2 + a5\n 29495: a2 = a1 <u a2\n 29498: a2 = a5 if a5 == 0\n 29501: a3 = u64 [s1 + 0x1a0]\n 29505: a2 = a2 + a3\n 29508: a5 = a2 <u a3\n 29511: a3 = u64 [s1 + 0x1c8]\n 29515: a3 = a3 + a5\n 29518: u64 [s1 + 0x1c8] = a3\n 29522: u64 [s1 + 0x1b0] = t0\n 29526: a5 = u64 [s1 + 0x1b8]\n 29530: u64 [a5 + 0x8] = t0\n 29533: a3 = ra\n 29535: u64 [a5] = ra\n 29537: u64 [a5 + 0x10] = t1\n 29540: t0 = a0\n 29542: u64 [a5 + 0x18] = a0\n 29545: u64 [s1 + 0x178] = t1\n 29549: a0 = u64 [s1 + 0x1c0]\n 29553: u64 [s1 + 0x1d8] = a0\n 29557: t1 = u64 [s1 + 0x1a8]\n 29561: a5 = a1\n 29563: jump @1101\n      : @1107 (gas: 15)\n 29566: a3 = s1 + 0x100\n 29570: a0 = u64 [a3 + 0x48]\n 29573: a2 = s1 + 0x7ff\n 29577: a2 = a2 + 0x159\n 29581: a4 = a2 + 0x700\n 29585: u64 [a4 + 0x88] = a0\n 29589: a0 = u64 [a3 + 0x50]\n 29592: u64 [a4 + 0x90] = a0\n 29596: a0 = u64 [a3 + 0x60]\n 29599: u64 [a4 + 0x98] = a0\n 29603: a1 = s1 + 0x10e0\n 29607: a0 = u64 [a3 + 0x58]\n 29610: u64 [a4 + 0xa0] = a0\n 29614: a0 = 0\n 29616: ra = 1184, jump @19\n      : @1108 [@dyn 592] (gas: 10)\n 29622: a0 = s1 + 0x7ff\n 29626: a0 = a0 + 0x159\n 29630: u64 [a0 + 1920] = 0\n 29634: u64 [a0 + 1912] = 0\n 29638: u64 [a0 + 1904] = 0\n 29642: a3 = a0\n 29644: a0 = 0x20\n 29647: a1 = s1 + 0x10c0\n 29651: u64 [a3 + 1896] = 0x1\n 29656: ra = 1186, jump @19\n      : @1109 [@dyn 593] (gas: 3)\n 29662: a1 = u64 [s1 + 0x98]\n 29666: a0 = i32 [a1]\n 29668: jump @1111 if a0 >u 63\n      : @1110 (gas: 3)\n 29672: u32 [a1 + 0] = 0x40\n 29675: t0 = 0x4a4\n 29679: jump @2303\n      : @1111 (gas: 1)\n 29683: t0 = 1188, jump @2303\n      : @1112 [@dyn 594] (gas: 4)\n 29690: ra = 0x4a6\n 29694: ecalli 6 // 'hash_keccak_256'\n 29696: t0 = 0x4a8\n 29700: jump @2285\n      : @1113 [@dyn 595] (gas: 1)\n 29704: t0 = 1192, jump @2285\n      : @1114 [@dyn 596] (gas: 7)\n 29711: u64 [a3 + 0xe8] = a4\n 29715: u64 [a3 + 0xf0] = a5\n 29719: u64 [a3 + 0xf8] = a2\n 29723: u64 [a1 + 0x700] = a0\n 29727: a0 = s1 + 0x10a0\n 29731: a1 = s1 + 0x4840\n 29735: ra = 1194, jump @21\n      : @1115 [@dyn 597] (gas: 21)\n 29741: a1 = s1 + 0x7ff\n 29745: a1 = a1 + 0x159\n 29749: a2 = a1 + 0x700\n 29753: a0 = u64 [a2 + 0x48]\n 29756: u64 [s1 + 0x1d0] = a0\n 29760: a0 = u64 [a2 + 0x50]\n 29763: u64 [s1 + 0x1c8] = a0\n 29767: a0 = u64 [a2 + 0x58]\n 29770: u64 [s1 + 0x1c0] = a0\n 29774: a0 = u64 [s1 + 0x158]\n 29778: u64 [a2 + 0x40] = a0\n 29781: a0 = u64 [s1 + 0x160]\n 29785: u64 [a2 + 0x38] = a0\n 29788: a0 = u64 [s1 + 0x150]\n 29792: u64 [a2 + 0x30] = a0\n 29795: a2 = a1\n 29797: a1 = s1 + 0x1080\n 29801: a0 = u64 [s1 + 0x148]\n 29805: u64 [a2 + 0x728] = a0\n 29809: a0 = 0\n 29811: ra = 1196, jump @19\n      : @1116 [@dyn 598] (gas: 10)\n 29817: a1 = s1 + 0x7ff\n 29821: a1 = a1 + 0x159\n 29825: u64 [a1 + 1824] = 0\n 29829: u64 [a1 + 1816] = 0\n 29833: u64 [a1 + 1800] = 0x1\n 29838: a2 = a1\n 29840: a0 = 0x20\n 29843: a1 = s1 + 0x1060\n 29847: u64 [a2 + 1808] = 0\n 29851: ra = 1198, jump @19\n      : @1117 [@dyn 599] (gas: 7)\n 29857: a1 = u64 [s1 + 0x98]\n 29861: a0 = sp + 0xffffffffffffffe0\n 29864: a0 = a0 & 0xffffffffffffffe0\n 29867: u64 [s1 + 0x1d8] = a0\n 29871: sp = a0\n 29873: a0 = i32 [a1]\n 29875: jump @1119 if a0 >u 63\n      : @1118 (gas: 2)\n 29879: u32 [a1 + 0] = 0x40\n 29882: fallthrough\n      : @1119 (gas: 14)\n 29883: a0 = 0xffffffff\n 29893: u64 [s1 + 0x1b8] = a0\n 29897: a0 = sp + 0xffffffffffffffe0\n 29900: a0 = a0 & 0xffffffffffffffe0\n 29903: u64 [s1 + 0x1b0] = a0\n 29907: sp = a0\n 29909: i32 a2 = a0 + 0\n 29911: a1 = 0x40\n 29914: a0 = u64 [s1 + 0xa0]\n 29918: ra = 0x4b0\n 29922: ecalli 6 // 'hash_keccak_256'\n 29924: a3 = u64 [s1 + 0x1b0]\n 29928: t0 = 0x4b2\n 29932: jump @2273\n      : @1120 [@dyn 600] (gas: 2)\n 29936: a3 = u64 [s1 + 0x1b0]\n 29940: t0 = 1202, jump @2273\n      : @1121 [@dyn 601] (gas: 7)\n 29947: a1 = u64 [s1 + 0x1d8]\n 29951: u64 [a1] = a4\n 29953: u64 [a1 + 0x8] = a5\n 29956: u64 [a1 + 0x10] = a2\n 29959: u64 [a1 + 0x18] = a0\n 29962: a0 = s1 + 0x1040\n 29966: ra = 1204, jump @21\n      : @1122 [@dyn 602] (gas: 18)\n 29972: a1 = s1 + 0x7ff\n 29976: a1 = a1 + 0x159\n 29980: a0 = u32 [a1 + 0x6fc]\n 29984: a0 = a0 << 0x20\n 29987: a1 = u64 [a1 + 0x700]\n 29991: a2 = u64 [s1 + 0xc8]\n 29995: a0 = a0 | a2\n 29998: a3 = s1 + 0x4158\n 30002: a2 = u64 [s1 + 0xf8]\n 30006: a4 = a3 + 0x700\n 30010: u64 [a4 + 0x10] = a2\n 30013: a2 = u64 [s1 + 0xf0]\n 30017: u64 [a4 + 0x8] = a2\n 30020: u64 [a4 + 0x20] = a1\n 30023: u64 [a4 + 0x18] = a0\n 30026: a1 = s1 + 0x4860\n 30030: a0 = u64 [s1 + 0x1d8]\n 30034: ra = 1206, jump @23\n      : @1123 [@dyn 603] (gas: 14)\n 30040: a0 = u64 [s1 + 0x158]\n 30044: a2 = s1 + 0x7ff\n 30048: a2 = a2 + 0x159\n 30052: a3 = a2 + 0x600\n 30056: u64 [a3 + 0xe0] = a0\n 30060: a0 = u64 [s1 + 0x160]\n 30064: u64 [a3 + 0xd8] = a0\n 30068: a0 = u64 [s1 + 0x150]\n 30072: u64 [a3 + 0xd0] = a0\n 30076: a1 = s1 + 0x1020\n 30080: a0 = u64 [s1 + 0x148]\n 30084: u64 [a3 + 0xc8] = a0\n 30088: a0 = 0\n 30090: ra = 1208, jump @19\n      : @1124 [@dyn 604] (gas: 10)\n 30096: a1 = s1 + 0x7ff\n 30100: a1 = a1 + 0x159\n 30104: u64 [a1 + 1728] = 0\n 30108: u64 [a1 + 1720] = 0\n 30112: u64 [a1 + 1704] = 0x1\n 30117: a2 = a1\n 30119: a0 = 0x20\n 30122: a1 = s1 + 0x1000\n 30126: u64 [a2 + 1712] = 0\n 30130: ra = 1210, jump @19\n      : @1125 [@dyn 605] (gas: 4)\n 30136: a0 = s1 + 0x5000\n 30140: i32 a0 = a0 + 0xfffffffffffff880\n 30144: ecalli 7 // 'now'\n 30146: fallthrough\n      : @1126 (gas: 14)\n 30147: a1 = u64 [s1 + 0x98]\n 30151: a2 = s1 + 0x4158\n 30155: a3 = a2 + 0x700\n 30159: a0 = u64 [a3 + 0x40]\n 30162: a4 = s1 + 0x100\n 30166: u64 [a4 + 0xa8] = a0\n 30170: a0 = u64 [a3 + 0x38]\n 30173: u64 [a4 + 0xb0] = a0\n 30177: a0 = u64 [a3 + 0x30]\n 30180: u64 [a4 + 0xd8] = a0\n 30184: a0 = i32 [a1]\n 30186: a2 = u64 [a3 + 0x28]\n 30189: u64 [a4 + 0xa0] = a2\n 30193: jump @1128 if a0 >u 63\n      : @1127 (gas: 2)\n 30197: u32 [a1 + 0] = 0x40\n 30200: fallthrough\n      : @1128 (gas: 22)\n 30201: a0 = u64 [s1 + 0x1c0]\n 30205: a1 = u64 [s1 + 0x1b8]\n 30209: a0 = a0 & a1\n 30212: u64 [s1 + 0x90] = a0\n 30216: a0 = u64 [s1 + 0x1c8]\n 30220: a0 = a0 & 0xffffffffffffffff\n 30223: u64 [s1 + 0x88] = a0\n 30227: a0 = u64 [s1 + 0x1d0]\n 30231: a0 = a0 & 0xffffffffffffffff\n 30234: u64 [s1 + 0x80] = a0\n 30238: a0 = sp + 0xffffffffffffffe0\n 30241: a0 = a0 & 0xffffffffffffffe0\n 30244: u64 [s1 + 0x1d0] = a0\n 30248: sp = a0\n 30250: i32 a2 = a0 + 0\n 30252: a1 = 0x40\n 30255: a0 = u64 [s1 + 0xa0]\n 30259: ra = 0x4bc\n 30263: ecalli 6 // 'hash_keccak_256'\n 30265: a3 = u64 [s1 + 0x1d0]\n 30269: t0 = 0x4be\n 30273: jump @2299\n      : @1129 [@dyn 606] (gas: 2)\n 30277: a3 = u64 [s1 + 0x1d0]\n 30281: t0 = 1214, jump @2299\n      : @1130 [@dyn 607] (gas: 18)\n 30288: a2 = s1 + 0x4158\n 30292: a3 = a2 + 0x700\n 30296: u64 [a3 + 0x48] = a4\n 30299: u64 [a3 + 0x50] = a5\n 30302: u64 [a3 + 0x58] = a0\n 30305: u64 [a3 + 0x60] = a1\n 30308: a1 = s1 + 0x100\n 30312: a0 = u64 [a1 + 0xa8]\n 30316: u64 [a3 + 0x80] = a0\n 30320: a0 = u64 [a1 + 0xb0]\n 30324: u64 [a3 + 0x78] = a0\n 30327: a0 = u64 [a1 + 0xd8]\n 30331: u64 [a3 + 0x70] = a0\n 30334: a0 = u64 [a1 + 0xa0]\n 30338: u64 [a3 + 0x68] = a0\n 30341: a0 = s1 + 0x48a0\n 30345: a1 = s1 + 0x48c0\n 30349: ra = 1216, jump @23\n      : @1131 [@dyn 608] (gas: 14)\n 30355: a2 = s1 + 0x7ff\n 30359: a2 = a2 + 0x159\n 30363: u64 [a2 + 1696] = 0\n 30367: a0 = u64 [s1 + 0xc8]\n 30371: a3 = a2 + 0x600\n 30375: u64 [a3 + 0x98] = a0\n 30379: a0 = u64 [s1 + 0xf8]\n 30383: u64 [a3 + 0x90] = a0\n 30387: a1 = s1 + 0x7ff\n 30391: a1 = a1 + 0x7e1\n 30395: a0 = u64 [s1 + 0xf0]\n 30399: u64 [a3 + 0x88] = a0\n 30403: a0 = 0\n 30405: ra = 1218, jump @19\n      : @1132 [@dyn 609] (gas: 11)\n 30411: a0 = s1 + 0x7ff\n 30415: a0 = a0 + 0x159\n 30419: u64 [a0 + 1664] = 0\n 30423: u64 [a0 + 1656] = 0\n 30427: u64 [a0 + 1648] = 0\n 30431: a3 = a0\n 30433: a0 = 0x20\n 30436: a1 = s1 + 0x7ff\n 30440: a1 = a1 + 0x7c1\n 30444: u64 [a3 + 1640] = 0x3\n 30449: ra = 1220, jump @19\n      : @1133 [@dyn 610] (gas: 3)\n 30455: a1 = u64 [s1 + 0x98]\n 30459: a0 = i32 [a1]\n 30461: jump @1135 if a0 >u 63\n      : @1134 (gas: 3)\n 30465: u32 [a1 + 0] = 0x40\n 30468: t0 = 0x4c6\n 30472: jump @2303\n      : @1135 (gas: 1)\n 30476: t0 = 1222, jump @2303\n      : @1136 [@dyn 611] (gas: 4)\n 30483: ra = 0x4c8\n 30487: ecalli 6 // 'hash_keccak_256'\n 30489: t0 = 0x4ca\n 30493: jump @2349\n      : @1137 [@dyn 612] (gas: 1)\n 30497: t0 = 1226, jump @2349\n      : @1138 [@dyn 613] (gas: 20)\n 30504: a5 = s1 + 0x7ff\n 30508: a5 = a5 + 0x159\n 30512: a3 = u64 [s1 + 0x158]\n 30516: u64 [a5 + 0x640] = a3\n 30520: a3 = u64 [s1 + 0x160]\n 30524: u64 [a5 + 0x638] = a3\n 30528: a3 = u64 [s1 + 0x150]\n 30532: u64 [a5 + 0x630] = a3\n 30536: a3 = u64 [s1 + 0x148]\n 30540: u64 [a5 + 0x628] = a3\n 30544: a3 = a5 + 0x600\n 30548: u64 [a3 + 0x60] = a2\n 30551: u64 [a3 + 0x58] = a1\n 30554: u64 [a3 + 0x50] = a0\n 30557: a0 = s1 + 0x7ff\n 30561: a0 = a0 + 0x7a1\n 30565: a1 = s1 + 0x7ff\n 30569: a1 = a1 + 0x781\n 30573: u64 [a3 + 0x48] = a4\n 30576: ra = 1228, jump @2089\n      : @1139 [@dyn 614] (gas: 14)\n 30582: a2 = s1 + 0x7ff\n 30586: a2 = a2 + 0x159\n 30590: u64 [a2 + 1568] = 0\n 30594: a0 = u64 [s1 + 0x90]\n 30598: a3 = a2 + 0x600\n 30602: u64 [a3 + 0x18] = a0\n 30605: a0 = u64 [s1 + 0x88]\n 30609: u64 [a3 + 0x10] = a0\n 30612: a1 = s1 + 0x7ff\n 30616: a1 = a1 + 0x761\n 30620: a0 = u64 [s1 + 0x80]\n 30624: u64 [a3 + 0x8] = a0\n 30627: a0 = 0\n 30629: ra = 1230, jump @19\n      : @1140 [@dyn 615] (gas: 11)\n 30635: a1 = s1 + 0x7ff\n 30639: a1 = a1 + 0x159\n 30643: u64 [a1 + 1536] = 0\n 30647: u64 [a1 + 1528] = 0\n 30651: u64 [a1 + 1512] = 0x3\n 30656: a2 = a1\n 30658: a0 = 0x20\n 30661: a1 = s1 + 0x7ff\n 30665: a1 = a1 + 0x741\n 30669: u64 [a2 + 1520] = 0\n 30673: ra = 1232, jump @19\n      : @1141 [@dyn 616] (gas: 7)\n 30679: a1 = u64 [s1 + 0x98]\n 30683: a0 = sp + 0xffffffffffffffe0\n 30686: a0 = a0 & 0xffffffffffffffe0\n 30689: u64 [s1 + 0x140] = a0\n 30693: sp = a0\n 30695: a0 = i32 [a1]\n 30697: jump @1143 if a0 >=u 64\n      : @1142 (gas: 3)\n 30701: u32 [a1 + 0] = 0x40\n 30704: t0 = 0x4d2\n 30708: jump @2399\n      : @1143 (gas: 1)\n 30712: t0 = 1234, jump @2399\n      : @1144 [@dyn 617] (gas: 4)\n 30719: a0 = u64 [s1 + 0xa0]\n 30723: ra = 0x4d4\n 30727: ecalli 6 // 'hash_keccak_256'\n 30729: fallthrough\n      : @1145 [@dyn 618] (gas: 7)\n 30730: u64 [s1 + 472] = 0\n 30734: u64 [s1 + 464] = 0\n 30738: u64 [s1 + 448] = 0\n 30742: u64 [s1 + 456] = 0\n 30746: a5 = s1 + 0x100\n 30750: a3 = u64 [a5 + 0xb8]\n 30754: t0 = 1238, jump @2368\n      : @1146 [@dyn 619] (gas: 10)\n 30761: a1 = u64 [a5 + 0x40]\n 30764: u64 [a5 + 0x20] = a3\n 30767: u64 [a1 + 0x18] = a3\n 30770: u64 [a5 + 0x28] = a2\n 30773: u64 [a1 + 0x10] = a2\n 30776: u64 [a5 + 0x30] = a4\n 30779: u64 [a1 + 0x8] = a4\n 30782: u64 [a5 + 0x38] = a0\n 30785: u64 [a1] = a0\n 30787: fallthrough\n      : @1147 (gas: 3)\n 30788: a0 = s1 + 0x7ff\n 30792: a0 = a0 + 0x721\n 30796: ra = 1240, jump @21\n      : @1148 [@dyn 620] (gas: 27)\n 30802: a4 = s1 + 0x7ff\n 30806: a4 = a4 + 0x159\n 30810: a2 = a4 + 0x500\n 30814: a5 = u64 [a2 + 0xd0]\n 30818: a1 = u64 [a2 + 0xe0]\n 30822: a3 = u64 [a2 + 0xc8]\n 30826: a0 = u64 [a2 + 0xd8]\n 30830: a2 = u64 [s1 + 0x1d0]\n 30834: t0 = a2 ^ a5\n 30837: u64 [s1 + 0x108] = a5\n 30841: a5 = a2 <u a5\n 30844: a2 = u64 [s1 + 0x1d8]\n 30848: u64 [s1 + 0x118] = a3\n 30852: a2 = a2 <u a3\n 30855: a2 = a5 if t0 != 0\n 30858: t1 = u64 [s1 + 0x1c0]\n 30862: t0 = t1 <u a0\n 30865: a3 = u64 [s1 + 0x1c8]\n 30869: a5 = a3 ^ a1\n 30872: u64 [s1 + 0x110] = a1\n 30876: a3 = a3 <u a1\n 30879: a3 = t0 if a5 == 0\n 30882: u64 [s1 + 0x100] = a0\n 30886: a0 = t1 ^ a0\n 30889: a0 = a0 | a5\n 30892: a3 = a2 if a0 == 0\n 30895: jump @1150 if a3 != 0\n      : @1149 (gas: 1)\n 30898: jump @1241\n      : @1150 (gas: 14)\n 30901: a0 = sp + 0xffffffffffffffe0\n 30904: a0 = a0 & 0xffffffffffffffe0\n 30907: u64 [s1 + 0x1b8] = a0\n 30911: sp = a0\n 30913: a0 = u64 [s1 + 0x1c8]\n 30917: a5 = a4 + 0x500\n 30921: u64 [a5 + 0x60] = a0\n 30924: a0 = u64 [s1 + 0x1c0]\n 30928: u64 [a5 + 0x58] = a0\n 30931: a0 = u64 [s1 + 0x1d0]\n 30935: u64 [a5 + 0x50] = a0\n 30938: a0 = u64 [s1 + 0x1d8]\n 30942: u64 [a5 + 0x48] = a0\n 30945: t0 = 1242, jump @2373\n      : @1151 [@dyn 621] (gas: 8)\n 30952: a0 = a0 + 0x6e1\n 30956: a1 = s1 + 0x7ff\n 30960: a1 = a1 + 0x6c1\n 30964: a2 = s1 + 0x7ff\n 30968: a2 = a2 + 0x6a1\n 30972: a3 = u64 [s1 + 0x138]\n 30976: u64 [a5 + 0x68] = a3\n 30979: ra = 1244, jump @1997\n      : @1152 [@dyn 622] (gas: 24)\n 30985: a3 = s1 + 0x7ff\n 30989: a3 = a3 + 0x159\n 30993: a4 = a3 + 0x500\n 30997: a0 = u64 [a4 + 0xc0]\n 31001: u64 [s1 + 0x198] = a0\n 31005: a0 = u64 [a4 + 0xb8]\n 31009: u64 [s1 + 0x188] = a0\n 31013: a0 = u64 [a4 + 0xb0]\n 31017: u64 [s1 + 0x180] = a0\n 31021: a0 = u64 [a4 + 0xa8]\n 31025: u64 [s1 + 0x190] = a0\n 31029: a0 = u64 [a4 + 0x98]\n 31033: a1 = u64 [a4 + 0xa0]\n 31037: a2 = u64 [a4 + 0x88]\n 31041: a3 = u64 [a4 + 0x90]\n 31045: a4 = u64 [s1 + 0x1b8]\n 31049: u64 [a4 + 0x10] = a0\n 31052: u64 [a4 + 0x18] = a1\n 31055: u64 [a4] = a2\n 31057: u64 [a4 + 0x8] = a3\n 31060: a1 = a4\n 31062: a0 = s1 + 0x7ff\n 31066: a0 = a0 + 0x681\n 31070: ra = 1246, jump @21\n      : @1153 [@dyn 623] (gas: 11)\n 31076: a1 = s1 + 0x7ff\n 31080: a1 = a1 + 0x159\n 31084: a2 = a1 + 0x500\n 31088: a0 = u64 [a2 + 0x28]\n 31091: u64 [s1 + 0x1b8] = a0\n 31095: a0 = u64 [a2 + 0x30]\n 31098: u64 [s1 + 0x1b0] = a0\n 31102: a0 = u64 [a2 + 0x38]\n 31105: u64 [s1 + 0x1a8] = a0\n 31109: a1 = u64 [a2 + 0x40]\n 31112: t0 = 1248, jump @2328\n      : @1154 [@dyn 624] (gas: 19)\n 31119: t0 = a2 | a3\n 31122: a2 = a5 >> 0x3d\n 31125: a3 = u64 [s1 + 0x198]\n 31129: a3 = a3 << 0x3\n 31132: a2 = a2 | a3\n 31135: t2 = t2 << 0x3\n 31138: u64 [s1 + 0x198] = t2\n 31142: a3 = t1 >u 0\n 31144: a4 = t2 <u 0x100\n 31148: a5 = a4 ^ 0x1\n 31151: a5 = a3 if t1 != 0\n 31154: a4 = a2 >u 0\n 31156: a3 = t0 >u 0\n 31158: a3 = a4 if a2 != 0\n 31161: a2 = t0 | a2\n 31164: a5 = a3 if a2 != 0\n 31167: u64 [s1 + 0x188] = a5\n 31171: i32 a2 = t2 + 0xffffffffffffff80\n 31174: ra = 1250, jump @2404\n      : @1155 [@dyn 625] (gas: 1)\n 31181: t0 = 1252, jump @2383\n      : @1156 [@dyn 626] (gas: 3)\n 31188: a0 = u64 [s1 + 0x1b8]\n 31192: a1 = u64 [s1 + 0x1b0]\n 31196: ra = 1254, jump @2404\n      : @1157 [@dyn 627] (gas: 1)\n 31203: t0 = 1256, jump @2344\n      : @1158 [@dyn 628] (gas: 1)\n 31210: ra = 1258, jump @2409\n      : @1159 [@dyn 629] (gas: 21)\n 31217: a3 = u64 [s1 + 0x168]\n 31221: a3 = a3 | a1\n 31224: a2 = u64 [s1 + 0x198]\n 31228: a4 = a2 <u 0x80\n 31232: u64 [s1 + 0x168] = a4\n 31236: a1 = u64 [s1 + 0x178]\n 31240: a3 = a1 if a4 == 0\n 31243: a1 = u64 [s1 + 0x1b0]\n 31247: a3 = a1 if a2 == 0\n 31250: u64 [s1 + 0x1b0] = a3\n 31254: a1 = u64 [s1 + 0x170]\n 31258: a1 = a1 | a0\n 31261: a0 = u64 [s1 + 0x180]\n 31265: a1 = a0 if a4 == 0\n 31268: a0 = u64 [s1 + 0x1b8]\n 31272: a1 = a0 if a2 == 0\n 31275: u64 [s1 + 0x1b8] = a1\n 31279: a0 = u64 [s1 + 0x1a8]\n 31283: a1 = u64 [s1 + 0x1a0]\n 31287: a2 = u64 [s1 + 0x190]\n 31291: ra = 1260, jump @2404\n      : @1160 [@dyn 630] (gas: 23)\n 31298: a5 = s1 + 0x100\n 31302: a2 = u64 [a5 + 0x68]\n 31305: a1 = 0 if a2 == 0\n 31307: a0 = 0 if a2 == 0\n 31309: a2 = u64 [a5 + 0x88]\n 31313: a4 = u64 [a5 + 0xb8]\n 31317: a4 = 0 if a2 != 0\n 31319: a3 = u64 [a5 + 0xb0]\n 31323: a3 = 0 if a2 != 0\n 31325: a0 = 0 if a2 != 0\n 31327: a1 = 0 if a2 != 0\n 31329: a2 = u64 [a5 + 0x50]\n 31332: a2 = a2 ^ a3\n 31335: a3 = u64 [a5 + 0x58]\n 31338: a1 = a1 ^ a3\n 31341: a1 = a1 | a2\n 31344: a2 = u64 [a5 + 0x48]\n 31347: a2 = a2 ^ a4\n 31350: a3 = u64 [a5 + 0x60]\n 31353: a0 = a0 ^ a3\n 31356: a0 = a0 | a2\n 31359: a0 = a0 | a1\n 31362: jump @1208 if a0 == 0\n      : @1161 (gas: 19)\n 31366: a3 = s1 + 0x100\n 31370: a1 = u64 [a3 + 0xd8]\n 31374: a1 = a1 + 0x1\n 31377: a0 = a1 <u 0x1\n 31380: a2 = u64 [a3 + 0xd0]\n 31384: a2 = a2 + a0\n 31387: u64 [a3 + 0xd8] = a1\n 31391: u64 [a3 + 0xd0] = a2\n 31395: a0 = a1 | a2\n 31398: a0 = a0 <u 0x1\n 31401: a1 = u64 [a3 + 0xc0]\n 31405: a0 = a0 + a1\n 31408: a1 = a0 <u a1\n 31411: a2 = u64 [a3 + 0xc8]\n 31415: a2 = a2 + a1\n 31418: u64 [a3 + 0xc8] = a2\n 31422: u64 [a3 + 0xc0] = a0\n 31426: a1 = u64 [a3 + 0x40]\n 31429: jump @1147\n      : @1162 (gas: 7)\n 31432: a0 = u64 [s1 + 0xf0]\n 31436: a1 = u64 [s1 + 0xe0]\n 31440: a0 = a0 | a1\n 31443: a1 = u64 [s1 + 0xd0]\n 31447: a1 = a1 | a2\n 31450: a0 = a0 | a1\n 31453: jump @1175 if a0 != 0\n      : @1163 (gas: 5)\n 31457: u64 [s1 + 384] = 0\n 31461: u64 [s1 + 376] = 0\n 31465: u64 [s1 + 392] = 0\n 31469: u64 [s1 + 400] = 0\n 31473: jump @1179\n      : @1164 (gas: 10)\n 31476: a2 = u64 [s1 + 0xf0]\n 31480: a4 = u64 [s1 + 0x150]\n 31484: a4 = a4 ^ a2\n 31487: a2 = u64 [s1 + 0xe0]\n 31491: a4 = a4 | a2\n 31494: a2 = u64 [s1 + 0xd8]\n 31498: a5 = u64 [s1 + 0xd0]\n 31502: a5 = a5 | a2\n 31505: a4 = a4 | a5\n 31508: jump @1174 if a4 == 0\n      : @1165 (gas: 15)\n 31512: a0 = s1 + 0x100\n 31516: a4 = u64 [a0 + 0x70]\n 31519: a4 = a1 <u a4\n 31522: a3 = t0 + a4\n 31525: a2 = u64 [a0 + 0x68]\n 31528: t0 = a3 ^ a2\n 31531: a5 = a3 <u a2\n 31534: a5 = a4 if t0 == 0\n 31537: a5 = a5 + ra\n 31540: a4 = a5 <u ra\n 31543: a2 = u64 [a0 + 0x60]\n 31546: a2 = ra <u a2\n 31549: a0 = t1 + a2\n 31552: a0 = a0 + a4\n 31555: t0 = 1262, jump @2277\n      : @1166 [@dyn 631] (gas: 1)\n 31562: jump @1168 if a0 == 0\n      : @1167 (gas: 1)\n 31565: jump @1318\n      : @1168 (gas: 2)\n 31568: a0 = s1 + 0x1600\n 31572: ra = 1264, jump @17\n      : @1169 [@dyn 632] (gas: 12)\n 31578: a0 = s1 + 0x1158\n 31582: a2 = a0 + 0x400\n 31586: a1 = u64 [a2 + 0xc0]\n 31590: u64 [s1 + 0x1d0] = a1\n 31594: a1 = u64 [a2 + 0xb8]\n 31598: u64 [s1 + 0x1c8] = a1\n 31602: a1 = u64 [a2 + 0xb0]\n 31606: u64 [s1 + 0x1c0] = a1\n 31610: a0 = u64 [a2 + 0xa8]\n 31614: u64 [s1 + 0x1b0] = a0\n 31618: a0 = u64 [s1 + 0xf0]\n 31622: t0 = 1266, jump @2279\n      : @1170 [@dyn 633] (gas: 1)\n 31629: ra = 1268, jump @2409\n      : @1171 [@dyn 634] (gas: 6)\n 31636: u64 [s1 + 0x1a8] = a0\n 31640: u64 [s1 + 0x190] = a1\n 31644: a0 = 0xffffffffffffffff\n 31647: a1 = 0xffffffffffffffff\n 31650: a2 = u64 [s1 + 0x1d8]\n 31654: ra = 1270, jump @2404\n      : @1172 [@dyn 635] (gas: 10)\n 31661: u64 [s1 + 0x198] = a0\n 31665: u64 [s1 + 0x1a0] = a1\n 31669: a0 = u64 [s1 + 0x190]\n 31673: a0 = a0 | a1\n 31676: u64 [s1 + 0x190] = a0\n 31680: a0 = u64 [s1 + 0x1d8]\n 31684: a2 = a0 + 0xffffffffffffff80\n 31687: a0 = 0xffffffffffffffff\n 31690: a1 = 0xffffffffffffffff\n 31693: ra = 1272, jump @2404\n      : @1173 [@dyn 636] (gas: 30)\n 31700: a4 = u64 [s1 + 0x1d8]\n 31704: a2 = a4 <u 0x80\n 31708: a3 = u64 [s1 + 0x190]\n 31712: a1 = a3 if a2 != 0\n 31715: a5 = u64 [s1 + 0x198]\n 31719: a3 = u64 [s1 + 0x1a8]\n 31723: a3 = a3 | a5\n 31726: a3 = a0 if a2 == 0\n 31729: a1 = 0xffffffffffffffff if a4 == 0\n 31732: a3 = 0xffffffffffffffff if a4 == 0\n 31735: a4 = u64 [s1 + 0x1a0]\n 31739: a4 = 0 if a2 == 0\n 31741: a5 = 0 if a2 == 0\n 31743: a0 = u64 [s1 + 0x1b0]\n 31747: a0 = a0 & ~a3\n 31750: a2 = u64 [s1 + 0x1c0]\n 31754: a1 = a2 & ~a1\n 31757: a2 = u64 [s1 + 0x1c8]\n 31761: a2 = a2 & ~a5\n 31764: a3 = u64 [s1 + 0x1d0]\n 31768: a3 = a3 & ~a4\n 31771: a4 = s1 + 0x4958\n 31775: a5 = a4 + 0x100\n 31779: u64 [a5 + 0x60] = a3\n 31782: u64 [a5 + 0x58] = a2\n 31785: u64 [a5 + 0x50] = a1\n 31788: u64 [a5 + 0x48] = a0\n 31791: a1 = s1 + 0x4aa0\n 31795: a0 = u64 [s1 + 0x1b8]\n 31799: ra = 1274, jump @23\n      : @1174 [@dyn 637] (gas: 23)\n 31805: a2 = u64 [s1 + 0xe0]\n 31809: a0 = a2 >> 0x3f\n 31812: a1 = u64 [s1 + 0xd0]\n 31816: a1 = a1 << 0x1\n 31819: a0 = a0 | a1\n 31822: a3 = u64 [s1 + 0xd8]\n 31826: a1 = a3 >> 0x3f\n 31829: a2 = a2 << 0x1\n 31832: a1 = a1 | a2\n 31835: a4 = u64 [s1 + 0xf0]\n 31839: a2 = a4 >> 0x3f\n 31842: a3 = a3 << 0x1\n 31845: a2 = a2 | a3\n 31848: a3 = a4 << 0x1\n 31851: a3 = a3 + 0x1\n 31854: a4 = s1 + 0x4958\n 31858: a5 = a4 + 0x100\n 31862: u64 [a5 + 0x68] = a3\n 31865: u64 [a5 + 0x70] = a2\n 31868: u64 [a5 + 0x78] = a1\n 31871: u64 [a5 + 0x80] = a0\n 31875: a0 = 0x4ac0\n 31879: jump @1185\n      : @1175 (gas: 11)\n 31882: a3 = s1 + 0x100\n 31886: a0 = u64 [a3 + 0x60]\n 31889: a1 = u64 [a3 + 0x58]\n 31892: a0 = a0 | a1\n 31895: a1 = 0xffffffe0\n 31905: a2 = u64 [a3 + 0x70]\n 31908: a1 = a2 <u a1\n 31911: a2 = u64 [a3 + 0x68]\n 31914: a1 = 0 if a2 != 0\n 31916: a1 = 0 if a0 != 0\n 31918: jump @1177 if a1 != 0\n      : @1176 (gas: 1)\n 31921: jump @1318\n      : @1177 (gas: 4)\n 31924: a0 = u64 [s1 + 0x170]\n 31928: i32 a1 = a0 + 0x20\n 31931: a0 = s1 + 0x1640\n 31935: ra = 1276, jump @17\n      : @1178 [@dyn 638] (gas: 13)\n 31941: a0 = s1 + 0x1158\n 31945: a1 = u64 [a0 + 0x500]\n 31949: a2 = s1 + 0x100\n 31953: u64 [a2 + 0x90] = a1\n 31957: a3 = a0 + 0x400\n 31961: a1 = u64 [a3 + 0xf8]\n 31965: u64 [a2 + 0x88] = a1\n 31969: a1 = u64 [a3 + 0xf0]\n 31973: u64 [a2 + 0x78] = a1\n 31976: a0 = u64 [a3 + 0xe8]\n 31980: u64 [a2 + 0x80] = a0\n 31984: a2 = u64 [s1 + 0xd8]\n 31988: fallthrough\n      : @1179 (gas: 19)\n 31989: a0 = a2 >> 0x3f\n 31992: a3 = u64 [s1 + 0xe0]\n 31996: a1 = a3 << 0x1\n 31999: a0 = a0 | a1\n 32002: u64 [s1 + 0x1d0] = a0\n 32006: a0 = a3 >> 0x3f\n 32009: a1 = u64 [s1 + 0xd0]\n 32013: a1 = a1 << 0x1\n 32016: a0 = a0 | a1\n 32019: u64 [s1 + 0x1c8] = a0\n 32023: a3 = u64 [s1 + 0xf0]\n 32027: a0 = a3 >> 0x3f\n 32030: a1 = a2 << 0x1\n 32033: a0 = a0 | a1\n 32036: u64 [s1 + 0x1c0] = a0\n 32040: a0 = a3 << 0x1\n 32043: u64 [s1 + 0x1b8] = a0\n 32047: a1 = a3 << 0x3\n 32050: t0 = 1278, jump @2307\n      : @1180 [@dyn 639] (gas: 1)\n 32057: ra = 1280, jump @2409\n      : @1181 [@dyn 640] (gas: 7)\n 32064: u64 [s1 + 0x198] = a0\n 32068: u64 [s1 + 0x1b0] = a1\n 32072: a0 = u64 [s1 + 0xf0]\n 32076: i32 a2 = a0 << 0x3\n 32079: a0 = 0xffffffffffffffff\n 32082: a1 = 0xffffffffffffffff\n 32085: ra = 1282, jump @2404\n      : @1182 [@dyn 641] (gas: 10)\n 32092: u64 [s1 + 0x1a8] = a0\n 32096: u64 [s1 + 0x1a0] = a1\n 32100: a1 = u64 [s1 + 0x198]\n 32104: a0 = a0 | a1\n 32107: u64 [s1 + 0x198] = a0\n 32111: a0 = u64 [s1 + 0x1d8]\n 32115: i32 a2 = a0 + 0xffffffffffffff80\n 32118: a0 = 0xffffffffffffffff\n 32121: a1 = 0xffffffffffffffff\n 32124: ra = 1284, jump @2404\n      : @1183 [@dyn 642] (gas: 7)\n 32131: a4 = u64 [s1 + 0x1d8]\n 32135: a2 = a4 <u 0x80\n 32139: a3 = u64 [s1 + 0x198]\n 32143: a0 = a3 if a2 != 0\n 32146: a5 = u64 [s1 + 0x1a0]\n 32150: a3 = u64 [s1 + 0x1b0]\n 32154: t0 = 1286, jump @2393\n      : @1184 [@dyn 643] (gas: 27)\n 32161: a4 = u64 [s1 + 0x1a8]\n 32165: a4 = 0 if a2 == 0\n 32167: a1 = u64 [s1 + 0x178]\n 32171: a1 = a1 & ~a3\n 32174: a2 = u64 [s1 + 0x180]\n 32178: a0 = a2 & ~a0\n 32181: a2 = u64 [s1 + 0x188]\n 32185: a2 = a2 & ~a4\n 32188: a3 = u64 [s1 + 0x190]\n 32192: a3 = a3 & ~a5\n 32195: a5 = s1 + 0x100\n 32199: a4 = u64 [a5 + 0xb8]\n 32203: a0 = a0 | a4\n 32206: a4 = u64 [a5 + 0xc0]\n 32210: a1 = a1 | a4\n 32213: a4 = u64 [a5 + 0xc8]\n 32217: a3 = a3 | a4\n 32220: a4 = u64 [a5 + 0xd0]\n 32224: a2 = a2 | a4\n 32227: a4 = s1 + 0x4958\n 32231: a5 = a4 + 0x100\n 32235: u64 [a5 + 0x98] = a2\n 32239: u64 [a5 + 0xa0] = a3\n 32243: u64 [a5 + 0x90] = a1\n 32247: u64 [a5 + 0x88] = a0\n 32251: a0 = 0x4ae0\n 32255: fallthrough\n      : @1185 (gas: 3)\n 32256: a1 = s1 + a0\n 32259: a0 = u64 [s1 + 0xf8]\n 32263: ra = 1288, jump @23\n      : @1186 [@dyn 644] (gas: 13)\n 32269: a2 = s1 + 0x1158\n 32273: a0 = u64 [s1 + 0x118]\n 32277: a3 = a2 + 0x400\n 32281: u64 [a3 + 0x98] = a0\n 32285: a0 = u64 [s1 + 0x100]\n 32289: u64 [a3 + 0x90] = a0\n 32293: a0 = u64 [s1 + 0x108]\n 32297: u64 [a3 + 0x88] = a0\n 32301: a1 = s1 + 0x15e0\n 32305: a0 = u64 [s1 + 0x110]\n 32309: u64 [a3 + 0xa0] = a0\n 32313: a0 = 0\n 32315: ra = 1290, jump @19\n      : @1187 [@dyn 645] (gas: 3)\n 32321: t0 = 0x50c\n 32325: a1 = s1 + 0x1158\n 32329: fallthrough\n      : @1188 [@dyn 646] (gas: 8)\n 32330: u64 [a1 + 1152] = 0\n 32334: u64 [a1 + 1144] = 0\n 32338: u64 [a1 + 1128] = 0x1\n 32343: a2 = a1\n 32345: a0 = 0x20\n 32348: a1 = s1 + 0x15c0\n 32352: u64 [a2 + 1136] = 0\n 32356: ra = 1294, jump @19\n      : @1189 [@dyn 647] (gas: 5)\n 32362: a0 = s1 + 0x5000\n 32366: i32 a0 = a0 + 0xfffffffffffffb00\n 32370: ra = 0x510\n 32374: ecalli 7 // 'now'\n 32376: fallthrough\n      : @1190 [@dyn 648] (gas: 14)\n 32377: a1 = s1 + 0x4958\n 32381: a3 = a1 + 0x100\n 32385: a0 = u64 [a3 + 0xc0]\n 32389: a4 = s1 + 0x100\n 32393: u64 [a4 + 0xc8] = a0\n 32397: a0 = u64 [a3 + 0xb8]\n 32401: u64 [a4 + 0xd0] = a0\n 32405: a0 = u64 [a3 + 0xb0]\n 32409: u64 [a4 + 0xd8] = a0\n 32413: a2 = u64 [a4 + 0x20]\n 32416: a0 = i32 [a2]\n 32418: a1 = u64 [a3 + 0xa8]\n 32422: u64 [a4 + 0xc0] = a1\n 32426: jump @1192 if a0 >u 63\n      : @1191 (gas: 3)\n 32430: u32 [a2 + 0] = 0x40\n 32433: t0 = 0x512\n 32437: jump @2399\n      : @1192 (gas: 1)\n 32441: t0 = 1298, jump @2399\n      : @1193 [@dyn 649] (gas: 6)\n 32448: a0 = u64 [s1 + 0x128]\n 32452: ra = 0x514\n 32456: ecalli 6 // 'hash_keccak_256'\n 32458: a3 = u64 [s1 + 0x1b8]\n 32462: t0 = 0x516\n 32466: jump @2299\n      : @1194 [@dyn 650] (gas: 2)\n 32470: a3 = u64 [s1 + 0x1b8]\n 32474: t0 = 1302, jump @2299\n      : @1195 [@dyn 651] (gas: 17)\n 32481: a2 = s1 + 0x4958\n 32485: a3 = a2 + 0x100\n 32489: u64 [a3 + 0xc8] = a4\n 32493: u64 [a3 + 0xd0] = a5\n 32497: u64 [a3 + 0xd8] = a0\n 32501: u64 [a3 + 0xe0] = a1\n 32505: a0 = u64 [s1 + 0x1c8]\n 32509: u64 [a2 + 0x200] = a0\n 32513: a0 = u64 [s1 + 0x1d0]\n 32517: u64 [a3 + 0xf8] = a0\n 32521: a0 = u64 [s1 + 0x1d8]\n 32525: u64 [a3 + 0xf0] = a0\n 32529: a0 = u64 [s1 + 0x1c0]\n 32533: u64 [a3 + 0xe8] = a0\n 32537: a0 = s1 + 0x4b20\n 32541: a1 = s1 + 0x4b40\n 32545: ra = 1304, jump @23\n      : @1196 [@dyn 652] (gas: 3)\n 32551: a0 = s1 + 0x15a0\n 32555: a1 = 0x40\n 32558: ra = 1306, jump @17\n      : @1197 [@dyn 653] (gas: 26)\n 32564: a1 = s1 + 0x1158\n 32568: a2 = a1 + 0x400\n 32572: a0 = u64 [a2 + 0x60]\n 32575: u64 [s1 + 0x1d0] = a0\n 32579: a0 = u64 [a2 + 0x58]\n 32582: u64 [s1 + 0x1c8] = a0\n 32586: a0 = u64 [a2 + 0x50]\n 32589: u64 [s1 + 0x1c0] = a0\n 32593: a0 = u64 [a2 + 0x48]\n 32596: u64 [s1 + 0x1d8] = a0\n 32600: a0 = u64 [s1 + 0xc8]\n 32604: ecalli 3 // 'caller'\n 32606: a0 = u64 [s1 + 0xe8]\n 32610: a1 = u32 [a0 + 0x10]\n 32613: u64 [s1 + 0x1b0] = a1\n 32617: a1 = u64 [a0 + 0x8]\n 32620: u64 [s1 + 0x1a8] = a1\n 32624: a0 = u64 [a0]\n 32626: u64 [s1 + 0x1b8] = a0\n 32630: a0 = s1 + 0x5000\n 32634: i32 a0 = a0 + 0xfffffffffffffb60\n 32638: ra = 0x51c\n 32642: ecalli 7 // 'now'\n 32644: a0 = 0x5000\n 32648: t0 = 0x51e\n 32652: jump @2387\n      : @1198 [@dyn 654] (gas: 2)\n 32656: a0 = 0x5000\n 32660: t0 = 1310, jump @2387\n      : @1199 [@dyn 655] (gas: 33)\n 32667: a0 = u64 [a4 + 0x8]\n 32670: a1 = u64 [a4 + 0x10]\n 32673: a2 = u64 [a4 + 0x18]\n 32676: a3 = u64 [a4 + 0x20]\n 32679: a4 = s1 + 0x1158\n 32683: a5 = a4 + 0x300\n 32687: u64 [a5 + 0xe0] = a3\n 32691: u64 [a5 + 0xd8] = a2\n 32695: u64 [a5 + 0xd0] = a1\n 32699: u64 [a5 + 0xc8] = a0\n 32703: a0 = u64 [s1 + 0x130]\n 32707: a1 = a4 + 0x400\n 32711: u64 [a1] = a0\n 32713: a0 = u64 [s1 + 0x138]\n 32717: u64 [a5 + 0xf8] = a0\n 32721: a0 = u64 [s1 + 0x140]\n 32725: u64 [a5 + 0xf0] = a0\n 32729: a0 = u64 [s1 + 0x148]\n 32733: u64 [a5 + 0xe8] = a0\n 32737: a0 = u64 [s1 + 0x1d0]\n 32741: u64 [a1 + 0x20] = a0\n 32744: a0 = u64 [s1 + 0x1c8]\n 32748: u64 [a1 + 0x18] = a0\n 32751: a0 = u64 [s1 + 0x1c0]\n 32755: u64 [a1 + 0x10] = a0\n 32758: a5 = a4\n 32760: a0 = s1 + 0x1580\n 32764: a1 = s1 + 0x1560\n 32768: a2 = s1 + 0x1540\n 32772: a3 = s1 + 0x1520\n 32776: a4 = u64 [s1 + 0x1d8]\n 32780: u64 [a5 + 0x408] = a4\n 32784: ra = 1312, jump @2192\n      : @1200 [@dyn 656] (gas: 1)\n 32790: t0 = 1314, jump @2345\n      : @1201 [@dyn 657] (gas: 1)\n 32797: jump @1203 if a0 == 0\n      : @1202 (gas: 1)\n 32800: jump @1318\n      : @1203 (gas: 24)\n 32803: t0 = a3\n 32805: a1 = s1 + 0x1158\n 32809: a4 = a1 + 0x400\n 32813: a0 = u64 [a4 + 0x30]\n 32816: a3 = u64 [a4 + 0x40]\n 32819: u64 [s1 + 0x1a0] = a3\n 32823: t1 = u64 [a1 + 0x428]\n 32827: a3 = u64 [a4 + 0x38]\n 32830: ra = a0 ^ a2\n 32833: a5 = a0 <u a2\n 32836: t2 = u64 [s1 + 0x1d8]\n 32840: a1 = t1 <u t2\n 32843: a5 = a1 if ra == 0\n 32846: a4 = a3 - t0\n 32849: ra = a4 - a5\n 32852: a4 = a4 <u a5\n 32855: u64 [s1 + 0x198] = a4\n 32859: a3 = a3 <u t0\n 32862: a5 = u64 [s1 + 0x1d0]\n 32866: a4 = u64 [s1 + 0x1a0]\n 32870: a5 = a4 - a5\n 32873: a5 = a5 - a3\n 32876: a3 = u64 [s1 + 0x198]\n 32880: t0 = 1316, jump @2347\n      : @1204 [@dyn 658] (gas: 1)\n 32887: jump @1206 if a0 == 0\n      : @1205 (gas: 1)\n 32890: jump @1318\n      : @1206 (gas: 40)\n 32893: a0 = u64 [s1 + 0x1a8]\n 32897: a2 = reverse a0\n 32899: a0 = a2 << 0x20\n 32902: a3 = u64 [s1 + 0x1b0]\n 32906: a3 = reverse a3\n 32908: a3 = a3 >> 0x20\n 32911: t0 = a3 | a0\n 32914: a0 = u64 [s1 + 0x1b8]\n 32918: a3 = reverse a0\n 32920: a4 = a3 << 0x20\n 32923: a2 = a2 >> 0x20\n 32926: a2 = a2 | a4\n 32929: a3 = a3 >> 0x20\n 32932: a4 = u64 [0x200e8]\n 32937: t1 = s1 + 0x1158\n 32941: a0 = u64 [s1 + 0x108]\n 32945: u64 [t1 + 0x388] = a0\n 32949: a0 = u64 [s1 + 0x100]\n 32953: u64 [t1 + 0x390] = a0\n 32957: u64 [t1 + 0x3c0] = a4\n 32961: a4 = u64 [0x200f0]\n 32966: a5 = u64 [0x200f8]\n 32971: a0 = u64 [0x20100]\n 32976: u64 [t1 + 0x3b8] = a4\n 32980: u64 [t1 + 896] = 0\n 32984: a4 = t1 + 0x300\n 32988: u64 [a4 + 0xb0] = a5\n 32992: u64 [a4 + 0xa8] = a0\n 32996: u64 [a4 + 0x78] = a3\n 32999: a0 = u64 [s1 + 0x118]\n 33003: u64 [a4 + 0x98] = a0\n 33007: a0 = u64 [s1 + 0x110]\n 33011: u64 [a4 + 0xa0] = a0\n 33015: u64 [a4 + 0x70] = a2\n 33018: a2 = s1 + 0x1500\n 33022: a3 = s1 + 0x14e0\n 33026: a4 = s1 + 0x14c0\n 33030: u64 [t1 + 0x368] = t0\n 33034: a0 = u64 [s1 + 0x1d8]\n 33038: ra = 1318, jump @27\n      : @1207 [@dyn 659] (gas: 6)\n 33044: a0 = 0\n 33046: a1 = u64 [s1 + 0x128]\n 33050: a2 = 0\n 33052: ra = 0x7ac\n 33056: ecalli 8 // 'seal_return'\n 33058: jump @1729\n      : @1208 (gas: 38)\n 33061: a3 = u64 [s1 + 0x118]\n 33065: a0 = a3 <u 0x1\n 33068: a1 = u64 [s1 + 0x108]\n 33072: a0 = a1 - a0\n 33075: a1 = a1 | a3\n 33078: a1 = a1 <u 0x1\n 33081: a4 = u64 [s1 + 0x100]\n 33085: a2 = a4 - a1\n 33088: a1 = a4 <u a1\n 33091: a4 = u64 [s1 + 0x110]\n 33095: a1 = a4 - a1\n 33098: a3 = a3 + 0xffffffffffffffff\n 33101: a4 = sp + 0xffffffffffffffe0\n 33104: a4 = a4 & 0xffffffffffffffe0\n 33107: u64 [s1 + 0x1b8] = a4\n 33111: sp = a4\n 33113: a4 = s1 + 0x7ff\n 33117: a4 = a4 + 0x159\n 33121: a5 = a4 + 0x400\n 33125: u64 [a5 + 0xc0] = a1\n 33129: u64 [a5 + 0xb8] = a2\n 33133: u64 [a5 + 0xb0] = a0\n 33137: u64 [a5 + 0xa8] = a3\n 33141: a0 = u64 [s1 + 0x120]\n 33145: u64 [a5 + 0xe0] = a0\n 33149: a0 = u64 [s1 + 0x128]\n 33153: u64 [a5 + 0xd8] = a0\n 33157: a0 = u64 [s1 + 0x130]\n 33161: u64 [a5 + 0xd0] = a0\n 33165: a0 = s1 + 0x7ff\n 33169: a0 = a0 + 0x641\n 33173: a1 = s1 + 0x7ff\n 33177: a1 = a1 + 0x621\n 33181: a2 = s1 + 0x7ff\n 33185: a2 = a2 + 0x601\n 33189: a3 = u64 [s1 + 0x138]\n 33193: u64 [a5 + 0xc8] = a3\n 33197: ra = 1320, jump @1997\n      : @1209 [@dyn 660] (gas: 25)\n 33203: a3 = s1 + 0x7ff\n 33207: a3 = a3 + 0x159\n 33211: a2 = a3 + 0x500\n 33215: a0 = u64 [a2 + 0x20]\n 33218: u64 [s1 + 0x198] = a0\n 33222: a0 = u64 [a2 + 0x18]\n 33225: u64 [s1 + 0x188] = a0\n 33229: a0 = u64 [a2 + 0x10]\n 33232: u64 [s1 + 0x180] = a0\n 33236: a0 = u64 [a2 + 0x8]\n 33239: u64 [s1 + 0x190] = a0\n 33243: a4 = a3 + 0x400\n 33247: a0 = u64 [a4 + 0xf8]\n 33251: a1 = u64 [a2]\n 33253: a2 = u64 [a4 + 0xe8]\n 33257: a3 = u64 [a4 + 0xf0]\n 33261: a4 = u64 [s1 + 0x1b8]\n 33265: u64 [a4 + 0x10] = a0\n 33268: u64 [a4 + 0x18] = a1\n 33271: u64 [a4] = a2\n 33273: u64 [a4 + 0x8] = a3\n 33276: a1 = a4\n 33278: a0 = s1 + 0x7ff\n 33282: a0 = a0 + 0x5e1\n 33286: ra = 1322, jump @21\n      : @1210 [@dyn 661] (gas: 11)\n 33292: a2 = s1 + 0x7ff\n 33296: a2 = a2 + 0x159\n 33300: a3 = a2 + 0x400\n 33304: a1 = u64 [a3 + 0x88]\n 33308: u64 [s1 + 0x1b0] = a1\n 33312: a0 = u64 [a3 + 0x90]\n 33316: u64 [s1 + 0x1b8] = a0\n 33320: a0 = u64 [a3 + 0x98]\n 33324: u64 [s1 + 0x1a8] = a0\n 33328: a1 = u64 [a3 + 0xa0]\n 33332: t0 = 1324, jump @2328\n      : @1211 [@dyn 662] (gas: 19)\n 33339: t0 = a2 | a3\n 33342: a2 = a5 >> 0x3d\n 33345: a3 = u64 [s1 + 0x198]\n 33349: a3 = a3 << 0x3\n 33352: a2 = a2 | a3\n 33355: t2 = t2 << 0x3\n 33358: u64 [s1 + 0x198] = t2\n 33362: a3 = t1 >u 0\n 33364: a4 = t2 <u 0x100\n 33368: a5 = a4 ^ 0x1\n 33371: a5 = a3 if t1 != 0\n 33374: a4 = a2 >u 0\n 33376: a3 = t0 >u 0\n 33378: a3 = a4 if a2 != 0\n 33381: a2 = t0 | a2\n 33384: a5 = a3 if a2 != 0\n 33387: u64 [s1 + 0x188] = a5\n 33391: i32 a2 = t2 + 0xffffffffffffff80\n 33394: ra = 1326, jump @2404\n      : @1212 [@dyn 663] (gas: 1)\n 33401: t0 = 1328, jump @2383\n      : @1213 [@dyn 664] (gas: 3)\n 33408: a0 = u64 [s1 + 0x1b0]\n 33412: a1 = u64 [s1 + 0x1b8]\n 33416: ra = 1330, jump @2404\n      : @1214 [@dyn 665] (gas: 1)\n 33423: t0 = 1332, jump @2344\n      : @1215 [@dyn 666] (gas: 1)\n 33430: ra = 1334, jump @2409\n      : @1216 [@dyn 667] (gas: 21)\n 33437: a2 = u64 [s1 + 0x168]\n 33441: a1 = a1 | a2\n 33444: a3 = u64 [s1 + 0x198]\n 33448: a4 = a3 <u 0x80\n 33452: u64 [s1 + 0x168] = a4\n 33456: a2 = u64 [s1 + 0x178]\n 33460: a1 = a2 if a4 == 0\n 33463: a2 = u64 [s1 + 0x1b8]\n 33467: a1 = a2 if a3 == 0\n 33470: u64 [s1 + 0x1b8] = a1\n 33474: a1 = u64 [s1 + 0x170]\n 33478: a0 = a0 | a1\n 33481: a1 = u64 [s1 + 0x180]\n 33485: a0 = a1 if a4 == 0\n 33488: a1 = u64 [s1 + 0x1b0]\n 33492: a0 = a1 if a3 == 0\n 33495: u64 [s1 + 0x1b0] = a0\n 33499: a0 = u64 [s1 + 0x1a8]\n 33503: a1 = u64 [s1 + 0x1a0]\n 33507: a2 = u64 [s1 + 0x190]\n 33511: ra = 1336, jump @2404\n      : @1217 [@dyn 668] (gas: 46)\n 33518: a2 = a0\n 33520: a0 = u64 [s1 + 0x168]\n 33524: a1 = 0 if a0 == 0\n 33526: a2 = 0 if a0 == 0\n 33528: a0 = u64 [s1 + 0x1b0]\n 33532: a3 = u64 [s1 + 0x188]\n 33536: a0 = 0 if a3 != 0\n 33538: u64 [s1 + 0x1b0] = a0\n 33542: a0 = u64 [s1 + 0x1b8]\n 33546: a0 = 0 if a3 != 0\n 33548: u64 [s1 + 0x1b8] = a0\n 33552: a2 = 0 if a3 != 0\n 33554: u64 [s1 + 0x198] = a2\n 33558: a1 = 0 if a3 != 0\n 33560: u64 [s1 + 0x1a0] = a1\n 33564: a0 = sp + 0xffffffffffffffe0\n 33567: a0 = a0 & 0xffffffffffffffe0\n 33570: u64 [s1 + 0x1a8] = a0\n 33574: sp = a0\n 33576: a0 = u64 [s1 + 0x1c8]\n 33580: a1 = s1 + 0x7ff\n 33584: a1 = a1 + 0x159\n 33588: a2 = a1 + 0x400\n 33592: u64 [a2 + 0x20] = a0\n 33595: a0 = u64 [s1 + 0x1c0]\n 33599: u64 [a2 + 0x18] = a0\n 33602: a0 = u64 [s1 + 0x1d0]\n 33606: u64 [a2 + 0x10] = a0\n 33609: a0 = u64 [s1 + 0x1d8]\n 33613: u64 [a2 + 0x8] = a0\n 33616: a0 = u64 [s1 + 0x120]\n 33620: u64 [a2 + 0x40] = a0\n 33623: a0 = u64 [s1 + 0x128]\n 33627: u64 [a2 + 0x38] = a0\n 33630: a0 = u64 [s1 + 0x130]\n 33634: u64 [a2 + 0x30] = a0\n 33637: a4 = a1\n 33639: a0 = s1 + 0x7ff\n 33643: a0 = a0 + 0x5a1\n 33647: a1 = s1 + 0x7ff\n 33651: a1 = a1 + 0x581\n 33655: a2 = s1 + 0x7ff\n 33659: a2 = a2 + 0x561\n 33663: a3 = u64 [s1 + 0x138]\n 33667: u64 [a4 + 0x428] = a3\n 33671: ra = 1338, jump @1997\n      : @1218 [@dyn 669] (gas: 23)\n 33677: a1 = s1 + 0x7ff\n 33681: a1 = a1 + 0x159\n 33685: a4 = a1 + 0x400\n 33689: a0 = u64 [a4 + 0x80]\n 33693: u64 [s1 + 0x1d0] = a0\n 33697: a0 = u64 [a4 + 0x78]\n 33700: u64 [s1 + 0x1c8] = a0\n 33704: a0 = u64 [a4 + 0x70]\n 33707: u64 [s1 + 0x1c0] = a0\n 33711: a0 = u64 [a4 + 0x68]\n 33714: u64 [s1 + 0x1d8] = a0\n 33718: a0 = u64 [a4 + 0x58]\n 33721: a5 = u64 [a4 + 0x60]\n 33724: a2 = u64 [a4 + 0x48]\n 33727: a3 = u64 [a4 + 0x50]\n 33730: a1 = u64 [s1 + 0x1a8]\n 33734: u64 [a1 + 0x10] = a0\n 33737: u64 [a1 + 0x18] = a5\n 33740: u64 [a1] = a2\n 33742: u64 [a1 + 0x8] = a3\n 33745: a0 = s1 + 0x7ff\n 33749: a0 = a0 + 0x541\n 33753: ra = 1340, jump @21\n      : @1219 [@dyn 670] (gas: 27)\n 33760: a0 = s1 + 0x7ff\n 33764: a0 = a0 + 0x159\n 33768: a2 = a0 + 0x300\n 33772: a1 = u64 [a2 + 0xf8]\n 33776: u64 [s1 + 0x180] = a1\n 33780: a1 = u64 [a0 + 0x400]\n 33784: u64 [s1 + 0x178] = a1\n 33788: a1 = u64 [a2 + 0xe8]\n 33792: u64 [s1 + 0x170] = a1\n 33796: a0 = u64 [a2 + 0xf0]\n 33800: u64 [s1 + 0x168] = a0\n 33804: a5 = u64 [s1 + 0x1d8]\n 33808: a0 = a5 >> 0x3d\n 33811: a2 = u64 [s1 + 0x1c0]\n 33815: a1 = a2 << 0x3\n 33818: a0 = a0 | a1\n 33821: a1 = a2 >> 0x3d\n 33824: a3 = u64 [s1 + 0x1c8]\n 33828: a2 = a3 << 0x3\n 33831: a1 = a1 | a2\n 33834: a2 = a3 >> 0x3d\n 33837: a3 = u64 [s1 + 0x1d0]\n 33841: a3 = a3 << 0x3\n 33844: a2 = a2 | a3\n 33847: a5 = a5 << 0x3\n 33850: u64 [s1 + 0x1c8] = a5\n 33854: t0 = 1342, jump @2294\n      : @1220 [@dyn 671] (gas: 6)\n 33860: u64 [s1 + 0x1c0] = a4\n 33864: i32 a2 = a5 + 0xffffffffffffff80\n 33867: u64 [s1 + 0x118] = a2\n 33871: a0 = u64 [s1 + 0x1b0]\n 33875: a1 = u64 [s1 + 0x1b8]\n 33879: ra = 1344, jump @2409\n      : @1221 [@dyn 672] (gas: 8)\n 33886: u64 [s1 + 0x108] = a0\n 33890: u64 [s1 + 0x1d0] = a1\n 33894: a1 = u64 [s1 + 0x1c8]\n 33898: i32 a2 = 0x80 - a1\n 33902: u64 [s1 + 0x110] = a2\n 33906: a0 = u64 [s1 + 0x1b0]\n 33910: a1 = u64 [s1 + 0x1b8]\n 33914: ra = 1346, jump @2404\n      : @1222 [@dyn 673] (gas: 8)\n 33921: u64 [s1 + 0x188] = a0\n 33925: u64 [s1 + 0x100] = a1\n 33929: a0 = u64 [s1 + 0x1d8]\n 33933: i32 a2 = a0 << 0x3\n 33936: u64 [s1 + 0x190] = a2\n 33940: a0 = u64 [s1 + 0x198]\n 33944: a1 = u64 [s1 + 0x1a0]\n 33948: ra = 1348, jump @2409\n      : @1223 [@dyn 674] (gas: 21)\n 33955: a3 = u64 [s1 + 0x188]\n 33959: a3 = a3 | a0\n 33962: a2 = u64 [s1 + 0x1c8]\n 33966: a4 = a2 <u 0x80\n 33970: u64 [s1 + 0x188] = a4\n 33974: a0 = u64 [s1 + 0x108]\n 33978: a3 = a0 if a4 == 0\n 33981: a0 = u64 [s1 + 0x198]\n 33985: a3 = a0 if a2 == 0\n 33988: u64 [s1 + 0x1d8] = a3\n 33992: a0 = u64 [s1 + 0x100]\n 33996: a1 = a1 | a0\n 33999: a0 = u64 [s1 + 0x1d0]\n 34003: a1 = a0 if a4 == 0\n 34006: a0 = u64 [s1 + 0x1a0]\n 34010: a1 = a0 if a2 == 0\n 34013: u64 [s1 + 0x1d0] = a1\n 34017: a0 = u64 [s1 + 0x1b0]\n 34021: a1 = u64 [s1 + 0x1b8]\n 34025: a2 = u64 [s1 + 0x190]\n 34029: ra = 1350, jump @2409\n      : @1224 [@dyn 675] (gas: 19)\n 34036: a2 = a1\n 34038: a1 = u64 [s1 + 0x188]\n 34042: a0 = 0 if a1 == 0\n 34044: a2 = 0 if a1 == 0\n 34046: a3 = u64 [s1 + 0x1c0]\n 34050: a1 = u64 [s1 + 0x1d0]\n 34054: a1 = 0 if a3 != 0\n 34056: u64 [s1 + 0x1d0] = a1\n 34060: a1 = u64 [s1 + 0x1d8]\n 34064: a1 = 0 if a3 != 0\n 34066: u64 [s1 + 0x1d8] = a1\n 34070: a2 = 0 if a3 != 0\n 34072: u64 [s1 + 0x1b8] = a2\n 34076: a0 = 0 if a3 != 0\n 34078: u64 [s1 + 0x1b0] = a0\n 34082: a0 = 0xffffffffffffffff\n 34085: a1 = 0xffffffffffffffff\n 34088: a2 = u64 [s1 + 0x110]\n 34092: ra = 1352, jump @2404\n      : @1225 [@dyn 676] (gas: 6)\n 34099: u64 [s1 + 0x110] = a0\n 34103: u64 [s1 + 0x1a0] = a1\n 34107: a0 = 0xffffffffffffffff\n 34110: a1 = 0xffffffffffffffff\n 34113: a2 = u64 [s1 + 0x190]\n 34117: ra = 1354, jump @2409\n      : @1226 [@dyn 677] (gas: 9)\n 34124: u64 [s1 + 0x198] = a0\n 34128: u64 [s1 + 0x190] = a1\n 34132: a1 = u64 [s1 + 0x110]\n 34136: a0 = a0 | a1\n 34139: u64 [s1 + 0x110] = a0\n 34143: a0 = 0xffffffffffffffff\n 34146: a1 = 0xffffffffffffffff\n 34149: a2 = u64 [s1 + 0x118]\n 34153: ra = 1356, jump @2409\n      : @1227 [@dyn 678] (gas: 47)\n 34160: a3 = u64 [s1 + 0x188]\n 34164: a2 = u64 [s1 + 0x110]\n 34168: a0 = a2 if a3 != 0\n 34171: a5 = u64 [s1 + 0x190]\n 34175: a2 = u64 [s1 + 0x1a0]\n 34179: a2 = a2 | a5\n 34182: a2 = a1 if a3 == 0\n 34185: a1 = u64 [s1 + 0x1c8]\n 34189: a0 = 0xffffffffffffffff if a1 == 0\n 34192: a2 = 0xffffffffffffffff if a1 == 0\n 34195: a4 = u64 [s1 + 0x198]\n 34199: a4 = 0 if a3 == 0\n 34201: a5 = 0 if a3 == 0\n 34203: a1 = a2 ^ 0xffffffffffffffff\n 34206: a0 = a0 ^ 0xffffffffffffffff\n 34209: a2 = a5 ^ 0xffffffffffffffff\n 34212: a3 = a4 ^ 0xffffffffffffffff\n 34215: a5 = u64 [s1 + 0x1c0]\n 34219: a0 = 0xffffffffffffffff if a5 != 0\n 34222: a1 = 0xffffffffffffffff if a5 != 0\n 34225: a3 = 0xffffffffffffffff if a5 != 0\n 34228: a2 = 0xffffffffffffffff if a5 != 0\n 34231: a4 = u64 [s1 + 0x168]\n 34235: a2 = a2 & a4\n 34238: a4 = u64 [s1 + 0x170]\n 34242: a3 = a3 & a4\n 34245: a4 = u64 [s1 + 0x178]\n 34249: a1 = a1 & a4\n 34252: a4 = u64 [s1 + 0x180]\n 34256: a0 = a0 & a4\n 34259: a4 = u64 [s1 + 0x1d8]\n 34263: a0 = a0 | a4\n 34266: a4 = u64 [s1 + 0x1d0]\n 34270: a1 = a1 | a4\n 34273: a4 = u64 [s1 + 0x1b0]\n 34277: a3 = a3 | a4\n 34280: a4 = u64 [s1 + 0x1b8]\n 34284: a2 = a2 | a4\n 34287: a4 = s1 + 0x4158\n 34291: a5 = a4 + 0x700\n 34295: u64 [a5 + 0x90] = a2\n 34299: u64 [a5 + 0x88] = a3\n 34303: u64 [a5 + 0xa0] = a1\n 34307: u64 [a5 + 0x98] = a0\n 34311: a1 = s1 + 0x48e0\n 34315: a0 = u64 [s1 + 0x1a8]\n 34319: ra = 1358, jump @23\n      : @1228 [@dyn 679] (gas: 4)\n 34326: a0 = s1 + 0x7ff\n 34330: a0 = a0 + 0x521\n 34334: a1 = u64 [s1 + 0x140]\n 34338: ra = 1360, jump @21\n      : @1229 [@dyn 680] (gas: 12)\n 34345: a1 = s1 + 0x7ff\n 34349: a1 = a1 + 0x159\n 34353: a4 = a1 + 0x300\n 34357: a0 = u64 [a4 + 0xe0]\n 34361: a2 = u64 [a4 + 0xd8]\n 34365: a3 = u64 [a4 + 0xd0]\n 34369: t0 = a1\n 34371: a1 = u64 [a4 + 0xc8]\n 34375: a4 = a3 | a0\n 34378: a5 = a1 | a2\n 34381: a4 = a4 | a5\n 34384: jump @1231 if a4 != 0\n      : @1230 (gas: 1)\n 34387: jump @1871\n      : @1231 (gas: 26)\n 34390: a4 = sp + 0xffffffffffffffe0\n 34393: a5 = a4 & 0xffffffffffffffe0\n 34396: sp = a5\n 34398: a4 = a1 <u 0x1\n 34401: t1 = a3 - a4\n 34404: a3 = a3 | a1\n 34407: a3 = a3 <u 0x1\n 34410: a4 = a2 - a3\n 34413: a2 = a2 <u a3\n 34416: a0 = a0 - a2\n 34419: a1 = a1 + 0xffffffffffffffff\n 34422: u64 [s1 + 0x1c0] = a5\n 34426: u64 [a5 + 0x18] = a0\n 34429: u64 [a5 + 0x10] = a4\n 34432: u64 [a5 + 0x8] = t1\n 34435: u64 [a5] = a1\n 34437: a2 = sp + 0xffffffffffffffe0\n 34440: a2 = a2 & 0xffffffffffffffe0\n 34443: u64 [s1 + 0x1d8] = a2\n 34447: sp = a2\n 34449: a5 = t0 + 0x300\n 34453: u64 [a5 + 0x60] = a0\n 34456: u64 [a5 + 0x58] = a4\n 34459: u64 [t0 + 0x350] = t1\n 34463: u64 [a5 + 0x48] = a1\n 34466: t0 = 1362, jump @2373\n      : @1232 [@dyn 681] (gas: 8)\n 34473: a0 = a0 + 0x4e1\n 34477: a1 = s1 + 0x7ff\n 34481: a1 = a1 + 0x4c1\n 34485: a2 = s1 + 0x7ff\n 34489: a2 = a2 + 0x4a1\n 34493: a3 = u64 [s1 + 0x138]\n 34497: u64 [a5 + 0x68] = a3\n 34500: ra = 1364, jump @1997\n      : @1233 [@dyn 682] (gas: 23)\n 34506: a1 = s1 + 0x7ff\n 34510: a1 = a1 + 0x159\n 34514: a5 = a1 + 0x300\n 34518: a0 = u64 [a5 + 0xc0]\n 34522: u64 [s1 + 0x1c8] = a0\n 34526: a0 = u64 [a5 + 0xb8]\n 34530: u64 [s1 + 0x190] = a0\n 34534: a0 = u64 [a5 + 0xb0]\n 34538: u64 [s1 + 0x188] = a0\n 34542: a0 = u64 [a5 + 0xa8]\n 34546: u64 [s1 + 0x1d0] = a0\n 34550: a0 = u64 [a5 + 0x98]\n 34554: a4 = u64 [a5 + 0xa0]\n 34558: a2 = u64 [a5 + 0x88]\n 34562: a3 = u64 [a5 + 0x90]\n 34566: a1 = u64 [s1 + 0x1d8]\n 34570: u64 [a1 + 0x10] = a0\n 34573: u64 [a1 + 0x18] = a4\n 34576: u64 [a1] = a2\n 34578: u64 [a1 + 0x8] = a3\n 34581: a0 = s1 + 0x7ff\n 34585: a0 = a0 + 0x481\n 34589: ra = 1366, jump @21\n      : @1234 [@dyn 683] (gas: 44)\n 34596: a0 = s1 + 0x7ff\n 34600: a0 = a0 + 0x159\n 34604: a2 = a0 + 0x300\n 34608: a1 = u64 [a2 + 0x30]\n 34611: u64 [s1 + 0x1b8] = a1\n 34615: a1 = u64 [a2 + 0x28]\n 34618: u64 [s1 + 0x1b0] = a1\n 34622: a1 = u64 [a2 + 0x40]\n 34625: u64 [s1 + 0x1a8] = a1\n 34629: a0 = u64 [a2 + 0x38]\n 34632: u64 [s1 + 0x1a0] = a0\n 34636: a0 = sp + 0xffffffffffffffe0\n 34639: a0 = a0 & 0xffffffffffffffe0\n 34642: u64 [s1 + 0x198] = a0\n 34646: sp = a0\n 34648: a4 = u64 [s1 + 0x1d0]\n 34652: a0 = a4 >> 0x3d\n 34655: a2 = u64 [s1 + 0x188]\n 34659: a1 = a2 << 0x3\n 34662: a0 = a0 | a1\n 34665: a1 = a2 >> 0x3d\n 34668: a3 = u64 [s1 + 0x190]\n 34672: a2 = a3 << 0x3\n 34675: a1 = a1 | a2\n 34678: a2 = a3 >> 0x3d\n 34681: a3 = u64 [s1 + 0x1c8]\n 34685: a3 = a3 << 0x3\n 34688: a2 = a2 | a3\n 34691: a3 = a4 << 0x3\n 34694: u64 [s1 + 0x1c8] = a3\n 34698: a5 = a2 >u 0\n 34700: a4 = a1 >u 0\n 34702: a4 = a5 if a2 != 0\n 34705: t0 = a0 >u 0\n 34707: a5 = a3 <u 0x100\n 34711: a5 = a5 ^ 0x1\n 34714: a5 = t0 if a0 != 0\n 34717: a1 = a1 | a2\n 34720: a5 = a4 if a1 != 0\n 34723: u64 [s1 + 0x190] = a5\n 34727: i32 a2 = a3 + 0xffffffffffffff80\n 34730: a0 = 0xffffffffffffffff\n 34733: a1 = 0xffffffffffffffff\n 34736: ra = 1368, jump @2409\n      : @1235 [@dyn 684] (gas: 8)\n 34743: u64 [s1 + 0x188] = a0\n 34747: u64 [s1 + 0x180] = a1\n 34751: a0 = u64 [s1 + 0x1d0]\n 34755: i32 a2 = a0 << 0x3\n 34758: u64 [s1 + 0x1d0] = a2\n 34762: a0 = 0xffffffffffffffff\n 34765: a1 = 0xffffffffffffffff\n 34768: ra = 1370, jump @2409\n      : @1236 [@dyn 685] (gas: 7)\n 34775: u64 [s1 + 0x178] = a0\n 34779: u64 [s1 + 0x170] = a1\n 34783: a1 = u64 [s1 + 0x1c8]\n 34787: i32 a2 = 0x80 - a1\n 34791: a0 = 0xffffffffffffffff\n 34794: a1 = 0xffffffffffffffff\n 34797: ra = 1372, jump @2404\n      : @1237 [@dyn 686] (gas: 19)\n 34804: a3 = u64 [s1 + 0x170]\n 34808: a3 = a3 | a1\n 34811: a1 = u64 [s1 + 0x1c8]\n 34815: a4 = a1 <u 0x80\n 34819: u64 [s1 + 0x170] = a4\n 34823: a2 = u64 [s1 + 0x180]\n 34827: a3 = a2 if a4 == 0\n 34830: a3 = 0xffffffffffffffff if a1 == 0\n 34833: u64 [s1 + 0x180] = a3\n 34837: a3 = u64 [s1 + 0x178]\n 34841: a3 = a3 | a0\n 34844: a0 = u64 [s1 + 0x188]\n 34848: a3 = a0 if a4 == 0\n 34851: a3 = 0xffffffffffffffff if a1 == 0\n 34854: u64 [s1 + 0x1c8] = a3\n 34858: a0 = 0xffffffffffffffff\n 34861: a1 = 0xffffffffffffffff\n 34864: a2 = u64 [s1 + 0x1d0]\n 34868: ra = 1374, jump @2409\n      : @1238 [@dyn 687] (gas: 30)\n 34875: a2 = u64 [s1 + 0x170]\n 34879: a1 = 0 if a2 == 0\n 34881: a0 = 0 if a2 == 0\n 34883: a2 = u64 [s1 + 0x1c8]\n 34887: a2 = a2 ^ 0xffffffffffffffff\n 34890: a3 = u64 [s1 + 0x180]\n 34894: a3 = a3 ^ 0xffffffffffffffff\n 34897: a0 = a0 ^ 0xffffffffffffffff\n 34900: a1 = a1 ^ 0xffffffffffffffff\n 34903: a4 = u64 [s1 + 0x190]\n 34907: a3 = 0xffffffffffffffff if a4 != 0\n 34910: a2 = 0xffffffffffffffff if a4 != 0\n 34913: a1 = 0xffffffffffffffff if a4 != 0\n 34916: a0 = 0xffffffffffffffff if a4 != 0\n 34919: a4 = u64 [s1 + 0x1a0]\n 34923: a2 = a2 & a4\n 34926: a4 = u64 [s1 + 0x1a8]\n 34930: a3 = a3 & a4\n 34933: a4 = u64 [s1 + 0x1b0]\n 34937: a0 = a0 & a4\n 34940: a4 = u64 [s1 + 0x1b8]\n 34944: a1 = a1 & a4\n 34947: a4 = u64 [s1 + 0x198]\n 34951: u64 [a4 + 0x18] = a3\n 34954: u64 [a4 + 0x10] = a2\n 34957: u64 [a4 + 0x8] = a1\n 34960: u64 [a4] = a0\n 34962: a1 = a4\n 34964: a0 = u64 [s1 + 0x1d8]\n 34968: ra = 1376, jump @23\n      : @1239 [@dyn 688] (gas: 3)\n 34975: a0 = u64 [s1 + 0x140]\n 34979: a1 = u64 [s1 + 0x1c0]\n 34983: ra = 1378, jump @23\n      : @1240 [@dyn 689] (gas: 3)\n 34990: a4 = s1 + 0x7ff\n 34994: a4 = a4 + 0x159\n 34998: fallthrough\n      : @1241 (gas: 14)\n 34999: a2 = s1 + 0x100\n 35003: a0 = u64 [a2 + 0x48]\n 35006: a3 = a4 + 0x300\n 35010: u64 [a3 + 0x8] = a0\n 35013: a0 = u64 [a2 + 0x50]\n 35016: u64 [a3 + 0x10] = a0\n 35019: a0 = u64 [a2 + 0x60]\n 35022: u64 [a3 + 0x18] = a0\n 35025: a1 = s1 + 0x7ff\n 35029: a1 = a1 + 0x461\n 35033: a0 = u64 [a2 + 0x58]\n 35036: u64 [a3 + 0x20] = a0\n 35039: a0 = 0\n 35041: ra = 1380, jump @19\n      : @1242 [@dyn 690] (gas: 11)\n 35048: a1 = s1 + 0x7ff\n 35052: a1 = a1 + 0x159\n 35056: u64 [a1 + 768] = 0\n 35060: u64 [a1 + 760] = 0\n 35064: u64 [a1 + 744] = 0x2\n 35069: a2 = a1\n 35071: a0 = 0x20\n 35074: a1 = s1 + 0x7ff\n 35078: a1 = a1 + 0x441\n 35082: u64 [a2 + 752] = 0\n 35086: ra = 1382, jump @19\n      : @1243 [@dyn 691] (gas: 3)\n 35093: a2 = u64 [s1 + 0x98]\n 35097: a0 = i32 [a2]\n 35099: jump @1245 if a0 >u 63\n      : @1244 (gas: 3)\n 35103: u32 [a2 + 0] = 0x40\n 35106: t0 = 0x568\n 35110: jump @2303\n      : @1245 (gas: 1)\n 35113: t0 = 1384, jump @2303\n      : @1246 [@dyn 692] (gas: 14)\n 35119: ecalli 6 // 'hash_keccak_256'\n 35121: a1 = u64 [s1 + 0x1d8]\n 35125: a0 = u64 [a1 + 0x18]\n 35128: u64 [s1 + 0x1b8] = a0\n 35132: a0 = u64 [a1 + 0x10]\n 35135: u64 [s1 + 0x1b0] = a0\n 35139: a0 = u64 [a1 + 0x8]\n 35142: u64 [s1 + 0x1a8] = a0\n 35146: a0 = u64 [a1]\n 35148: u64 [s1 + 0x1a0] = a0\n 35152: a0 = s1 + 0x7ff\n 35156: a0 = a0 + 0x421\n 35160: a1 = 0x40\n 35163: ra = 1386, jump @17\n      : @1247 [@dyn 693] (gas: 20)\n 35170: a1 = s1 + 0x7ff\n 35174: a1 = a1 + 0x159\n 35178: a5 = a1 + 0x200\n 35182: a0 = u64 [a5 + 0xe0]\n 35186: u64 [s1 + 0x1c0] = a0\n 35190: a2 = u64 [a5 + 0xd8]\n 35194: u64 [s1 + 0x1c8] = a2\n 35198: a4 = u64 [a5 + 0xd0]\n 35202: u64 [s1 + 0x1d0] = a4\n 35206: a3 = u64 [a5 + 0xc8]\n 35210: u64 [s1 + 0x1d8] = a3\n 35214: u64 [a5 + 0xc0] = a0\n 35218: u64 [a5 + 0xb8] = a2\n 35222: u64 [a5 + 0xb0] = a4\n 35226: a0 = s1 + 0x7ff\n 35230: a0 = a0 + 0x401\n 35234: u64 [a5 + 0xa8] = a3\n 35238: ra = 0x56c\n 35242: t0 = 0x8b0\n 35246: jump @2330\n      : @1248 [@dyn 694] (gas: 7)\n 35249: a3 = s1 + 0x100\n 35253: a0 = u64 [a3 + 0xc0]\n 35257: a1 = u64 [a3 + 0xd0]\n 35261: a0 = a0 | a1\n 35264: a2 = u64 [a3 + 0xc8]\n 35268: a1 = u64 [a3 + 0xd8]\n 35272: t0 = 1390, jump @2335\n      : @1249 [@dyn 695] (gas: 1)\n 35278: jump @1318 if a0 != 0\n      : @1250 (gas: 14)\n 35282: a2 = s1 + 0x7ff\n 35286: a2 = a2 + 0x159\n 35290: u64 [a2 + 672] = 0\n 35294: a0 = u64 [s1 + 0x80]\n 35298: a3 = a2 + 0x200\n 35302: u64 [a3 + 0x88] = a0\n 35306: a0 = u64 [s1 + 0x88]\n 35310: u64 [a3 + 0x90] = a0\n 35314: a1 = s1 + 0x7ff\n 35318: a1 = a1 + 0x3e1\n 35322: a0 = u64 [s1 + 0x90]\n 35326: u64 [a3 + 0x98] = a0\n 35330: a0 = u64 [s1 + 0x1d8]\n 35334: ra = 1392, jump @19\n      : @1251 [@dyn 696] (gas: 14)\n 35341: a3 = s1 + 0x100\n 35345: a0 = u64 [a3 + 0xc0]\n 35349: a2 = u64 [a3 + 0xc8]\n 35353: a2 = a2 | a0\n 35356: a0 = 0x100000000\n 35366: u64 [a3 + 0x90] = a0\n 35370: a0 = 0xffffffe0\n 35380: a1 = u64 [a3 + 0xd8]\n 35384: a0 = a1 <u a0\n 35387: a1 = u64 [a3 + 0xd0]\n 35391: a0 = 0 if a1 != 0\n 35393: u64 [a3 + 0x98] = a2\n 35397: a0 = 0 if a2 != 0\n 35399: jump @1318 if a0 == 0\n      : @1252 (gas: 15)\n 35403: a0 = u64 [s1 + 0x1d8]\n 35407: i32 a0 = a0 + 0x20\n 35410: a3 = s1 + 0x7ff\n 35414: a3 = a3 + 0x159\n 35418: u64 [a3 + 640] = 0\n 35422: a1 = u64 [s1 + 0xf0]\n 35426: a4 = a3 + 0x200\n 35430: u64 [a4 + 0x68] = a1\n 35433: a1 = u64 [s1 + 0xf8]\n 35437: u64 [a4 + 0x70] = a1\n 35440: a1 = s1 + 0x7ff\n 35444: a1 = a1 + 0x3c1\n 35448: a2 = u64 [s1 + 0xc8]\n 35452: u64 [a4 + 0x78] = a2\n 35455: ra = 1394, jump @19\n      : @1253 [@dyn 697] (gas: 4)\n 35462: a0 = s1 + 0x5000\n 35466: i32 a0 = a0 + 0xfffffffffffff900\n 35470: ecalli 7 // 'now'\n 35472: fallthrough\n      : @1254 (gas: 10)\n 35473: a2 = s1 + 0x100\n 35477: a0 = u64 [a2 + 0x90]\n 35481: a0 = a0 + 0xffffffffffffffc0\n 35484: a1 = u64 [a2 + 0xd8]\n 35488: a0 = a1 <u a0\n 35491: a1 = u64 [a2 + 0xd0]\n 35495: a0 = 0 if a1 != 0\n 35497: a1 = u64 [a2 + 0x98]\n 35501: a0 = 0 if a1 != 0\n 35503: jump @1318 if a0 == 0\n      : @1255 (gas: 18)\n 35507: a0 = s1 + 0x4158\n 35511: a5 = a0 + 0x700\n 35515: a2 = u64 [a5 + 0xa8]\n 35519: a1 = u64 [a5 + 0xb0]\n 35523: a3 = u64 [a5 + 0xb8]\n 35527: a4 = u64 [a5 + 0xc0]\n 35531: a0 = u64 [s1 + 0x1d8]\n 35535: i32 a0 = a0 + 0x40\n 35538: a5 = s1 + 0x7ff\n 35542: a5 = a5 + 0x159\n 35546: u64 [a5 + 0x260] = a4\n 35550: a4 = a5 + 0x200\n 35554: u64 [a4 + 0x58] = a3\n 35557: u64 [a4 + 0x50] = a1\n 35560: a1 = s1 + 0x7ff\n 35564: a1 = a1 + 0x3a1\n 35568: u64 [a4 + 0x48] = a2\n 35571: ra = 1396, jump @19\n      : @1256 [@dyn 698] (gas: 9)\n 35578: a0 = 0xffffffa0\n 35588: a2 = s1 + 0x100\n 35592: a1 = u64 [a2 + 0xd8]\n 35596: a0 = a1 <u a0\n 35599: a1 = u64 [a2 + 0xd0]\n 35603: a0 = 0 if a1 != 0\n 35605: a1 = u64 [a2 + 0x98]\n 35609: a0 = 0 if a1 != 0\n 35611: jump @1318 if a0 == 0\n      : @1257 (gas: 28)\n 35615: a0 = u64 [s1 + 0x1a0]\n 35619: a0 = reverse a0\n 35621: u64 [s1 + 0x1a0] = a0\n 35625: a0 = u64 [s1 + 0x1a8]\n 35629: a0 = reverse a0\n 35631: u64 [s1 + 0x1a8] = a0\n 35635: a0 = u64 [s1 + 0x1b0]\n 35639: a0 = reverse a0\n 35641: u64 [s1 + 0x1b0] = a0\n 35645: a0 = u64 [s1 + 0x1b8]\n 35649: a0 = reverse a0\n 35651: u64 [s1 + 0x1b8] = a0\n 35655: a0 = u64 [s1 + 0x1d8]\n 35659: i32 a0 = a0 + 0x60\n 35662: a3 = s1 + 0x7ff\n 35666: a3 = a3 + 0x159\n 35670: a1 = u64 [s1 + 0xa8]\n 35674: a4 = a3 + 0x200\n 35678: u64 [a4 + 0x28] = a1\n 35681: a1 = u64 [s1 + 0xb0]\n 35685: u64 [a4 + 0x30] = a1\n 35688: a1 = u64 [s1 + 0xb8]\n 35692: u64 [a4 + 0x38] = a1\n 35695: a1 = s1 + 0x7ff\n 35699: a1 = a1 + 0x381\n 35703: a2 = u64 [s1 + 0xc0]\n 35707: u64 [a4 + 0x40] = a2\n 35710: ra = 1398, jump @19\n      : @1258 [@dyn 699] (gas: 26)\n 35717: a0 = u64 [s1 + 0x1c0]\n 35721: a1 = s1 + 0x7ff\n 35725: a1 = a1 + 0x159\n 35729: a2 = a1 + 0x200\n 35733: u64 [a2] = a0\n 35735: a0 = u64 [s1 + 0x1c8]\n 35739: a3 = a1 + 0x100\n 35743: u64 [a3 + 0xf8] = a0\n 35747: a0 = u64 [s1 + 0x1d0]\n 35751: u64 [a3 + 0xf0] = a0\n 35755: a0 = u64 [s1 + 0x1d8]\n 35759: u64 [a3 + 0xe8] = a0\n 35763: a0 = u64 [s1 + 0x1a0]\n 35767: u64 [a2 + 0x20] = a0\n 35770: a0 = u64 [s1 + 0x1a8]\n 35774: u64 [a2 + 0x18] = a0\n 35777: a0 = u64 [s1 + 0x1b0]\n 35781: u64 [a2 + 0x10] = a0\n 35784: a3 = a1\n 35786: a0 = s1 + 0x7ff\n 35790: a0 = a0 + 0x361\n 35794: a1 = s1 + 0x7ff\n 35798: a1 = a1 + 0x341\n 35802: a2 = u64 [s1 + 0x1b8]\n 35806: u64 [a3 + 0x208] = a2\n 35810: ra = 1400, jump @2110\n      : @1259 [@dyn 700] (gas: 4)\n 35816: a0 = s1 + 0x7ff\n 35820: a0 = a0 + 0x321\n 35824: a1 = 0x40\n 35827: ra = 1402, jump @17\n      : @1260 [@dyn 701] (gas: 51)\n 35834: a1 = s1 + 0x7ff\n 35838: a1 = a1 + 0x159\n 35842: a2 = a1 + 0x100\n 35846: a0 = u64 [a2 + 0xe0]\n 35850: u64 [s1 + 0x1d0] = a0\n 35854: a0 = u64 [a2 + 0xd8]\n 35858: u64 [s1 + 0x1c8] = a0\n 35862: a0 = u64 [a2 + 0xd0]\n 35866: u64 [s1 + 0x1c0] = a0\n 35870: a0 = u64 [a2 + 0xc8]\n 35874: u64 [s1 + 0x1d8] = a0\n 35878: a0 = s1 + 0x5000\n 35882: i32 a0 = a0 + 0xfffffffffffff920\n 35886: ecalli 7 // 'now'\n 35888: a3 = s1 + 0x4158\n 35892: a4 = a3 + 0x700\n 35896: a0 = u64 [a4 + 0xc8]\n 35900: a1 = u64 [a4 + 0xd0]\n 35904: a2 = u64 [a4 + 0xd8]\n 35908: a3 = u64 [a4 + 0xe0]\n 35912: a4 = s1 + 0x7ff\n 35916: a4 = a4 + 0x159\n 35920: u64 [a4 + 0x160] = a3\n 35924: u64 [a4 + 0x158] = a2\n 35928: u64 [a4 + 0x150] = a1\n 35932: u64 [a4 + 0x148] = a0\n 35936: a0 = u64 [s1 + 0xd0]\n 35940: u64 [a4 + 0x180] = a0\n 35944: a0 = u64 [s1 + 0xd8]\n 35948: u64 [a4 + 0x178] = a0\n 35952: a0 = u64 [s1 + 0xe0]\n 35956: u64 [a4 + 0x170] = a0\n 35960: a0 = u64 [s1 + 0xe8]\n 35964: u64 [a4 + 0x168] = a0\n 35968: a0 = u64 [s1 + 0x1d0]\n 35972: u64 [a4 + 0x1a0] = a0\n 35976: a0 = u64 [s1 + 0x1c8]\n 35980: u64 [a4 + 0x198] = a0\n 35984: a0 = u64 [s1 + 0x1c0]\n 35988: u64 [a4 + 0x190] = a0\n 35992: a0 = s1 + 0x7ff\n 35996: a0 = a0 + 0x301\n 36000: a1 = s1 + 0x7ff\n 36004: a1 = a1 + 0x2e1\n 36008: a2 = s1 + 0x7ff\n 36012: a2 = a2 + 0x2c1\n 36016: a3 = s1 + 0x7ff\n 36020: a3 = a3 + 0x2a1\n 36024: a5 = u64 [s1 + 0x1d8]\n 36028: u64 [a4 + 0x188] = a5\n 36032: ra = 1404, jump @2192\n      : @1261 [@dyn 702] (gas: 1)\n 36038: t0 = 1406, jump @2345\n      : @1262 [@dyn 703] (gas: 1)\n 36044: jump @1318 if a0 != 0\n      : @1263 (gas: 25)\n 36048: t0 = a3\n 36050: a1 = s1 + 0x7ff\n 36054: a1 = a1 + 0x159\n 36058: a4 = a1 + 0x100\n 36062: a0 = u64 [a4 + 0xb0]\n 36066: a3 = u64 [a4 + 0xc0]\n 36070: u64 [s1 + 0x1b8] = a3\n 36074: t1 = u64 [a1 + 0x1a8]\n 36078: a3 = u64 [a4 + 0xb8]\n 36082: ra = a0 ^ a2\n 36085: a5 = a0 <u a2\n 36088: t2 = u64 [s1 + 0x1d8]\n 36092: a1 = t1 <u t2\n 36095: a5 = a1 if ra == 0\n 36098: a4 = a3 - t0\n 36101: ra = a4 - a5\n 36104: a4 = a4 <u a5\n 36107: u64 [s1 + 0x1b0] = a4\n 36111: a3 = a3 <u t0\n 36114: a5 = u64 [s1 + 0x1d0]\n 36118: a4 = u64 [s1 + 0x1b8]\n 36122: a5 = a4 - a5\n 36125: a5 = a5 - a3\n 36128: a3 = u64 [s1 + 0x1b0]\n 36132: t0 = 1408, jump @2347\n      : @1264 [@dyn 704] (gas: 1)\n 36138: jump @1318 if a0 != 0\n      : @1265 (gas: 68)\n 36142: a0 = u64 [s1 + 0xf0]\n 36146: t0 = s1 + 0x7ff\n 36150: t0 = t0 + 0x159\n 36154: a5 = t0\n 36156: u64 [a5 + 0xc8] = a0\n 36160: a0 = u64 [s1 + 0x80]\n 36164: u64 [a5 + 0xe8] = a0\n 36168: a0 = u64 [s1 + 0x148]\n 36172: u64 [t0 + 0x108] = a0\n 36176: a0 = u64 [s1 + 0xf8]\n 36180: u64 [a5 + 0xd0] = a0\n 36184: a0 = u64 [s1 + 0x88]\n 36188: u64 [a5 + 0xf0] = a0\n 36192: a0 = u64 [s1 + 0x150]\n 36196: u64 [t0 + 0x110] = a0\n 36200: a0 = u64 [0x20128]\n 36205: a2 = u64 [0x20130]\n 36210: a3 = u64 [0x20138]\n 36215: a4 = u64 [0x20140]\n 36220: u64 [t0 + 0x140] = a0\n 36224: u64 [t0 + 0x138] = a2\n 36228: a2 = t0 + 0x100\n 36232: u64 [a2 + 0x30] = a3\n 36235: u64 [a2 + 0x28] = a4\n 36238: u64 [t0 + 224] = 0\n 36242: a0 = u64 [s1 + 0xc8]\n 36246: u64 [a5 + 0xd8] = a0\n 36250: a0 = u64 [s1 + 0x90]\n 36254: u64 [a5 + 0xf8] = a0\n 36258: a0 = u64 [s1 + 0x160]\n 36262: u64 [a2 + 0x18] = a0\n 36265: a0 = u64 [s1 + 0x158]\n 36269: u64 [a2 + 0x20] = a0\n 36272: a2 = s1 + 0x7ff\n 36276: a2 = a2 + 0x281\n 36280: a3 = s1 + 0x7ff\n 36284: a3 = a3 + 0x261\n 36288: a4 = s1 + 0x7ff\n 36292: a4 = a4 + 0x241\n 36296: a5 = s1 + 0x7ff\n 36300: a5 = a5 + 0x221\n 36304: u64 [t0 + 256] = 0\n 36308: a0 = u64 [s1 + 0x1d8]\n 36312: ra = 0x582\n 36316: sp = sp + 0xfffffffffffffee0\n 36320: u64 [sp + 0x118] = ra\n 36324: u64 [sp + 0x110] = s0\n 36328: u64 [sp + 0x108] = s1\n 36332: s0 = sp + 0x120\n 36336: sp = sp & 0xffffffffffffffe0\n 36339: s1 = u64 [a5]\n 36341: u64 [sp + 0x60] = s1\n 36344: s1 = u64 [a5 + 0x8]\n 36347: u64 [sp + 0x68] = s1\n 36350: s1 = u64 [a5 + 0x10]\n 36353: u64 [sp + 0x70] = s1\n 36356: a5 = u64 [a5 + 0x18]\n 36359: u64 [sp + 0x78] = a5\n 36362: a5 = u64 [a4]\n 36364: u64 [sp + 0x38] = a5\n 36367: a5 = u64 [a4 + 0x8]\n 36370: u64 [sp + 0x40] = a5\n 36373: a5 = u64 [a4 + 0x10]\n 36376: u64 [sp + 0x48] = a5\n 36379: a4 = u64 [a4 + 0x18]\n 36382: u64 [sp + 0x50] = a4\n 36385: t0 = 0x10\n 36388: jump @2342\n      : @1266 [@dyn 705] (gas: 6)\n 36391: a0 = 0\n 36393: a1 = u64 [s1 + 0xa0]\n 36397: a2 = 0\n 36399: ra = 0x7ac\n 36403: ecalli 8 // 'seal_return'\n 36405: jump @1729\n      : @1267 (gas: 8)\n 36408: a1 = u64 [s1 + 0x188]\n 36412: a0 = u64 [s1 + 0x160]\n 36416: a0 = a0 | a1\n 36419: a0 = a0 >> 0x20\n 36422: a1 = a1 | a3\n 36425: a1 = a1 << 0x20\n 36428: a0 = a0 | a1\n 36431: jump @1318 if a0 != 0\n      : @1268 (gas: 24)\n 36435: a3 = u64 [s1 + 0x1d8]\n 36439: a0 = a3 + 0x20\n 36442: u64 [s1 + 0x1d0] = a0\n 36446: a0 = a0 <u a3\n 36449: a1 = u64 [s1 + 0x1c8]\n 36453: a2 = a1 + a0\n 36456: u64 [s1 + 0x1c0] = a2\n 36460: a1 = a2 <u a1\n 36463: a1 = a0 if a0 == 0\n 36466: a0 = u64 [s1 + 0x1a8]\n 36470: a1 = a1 + a0\n 36473: u64 [s1 + 0x1b0] = a1\n 36477: a0 = a1 <u a0\n 36480: a1 = u64 [s1 + 0x190]\n 36484: a0 = a0 + a1\n 36487: u64 [s1 + 0x1b8] = a0\n 36491: a2 = s1 + 0x2158\n 36495: u64 [a2 + 160] = 0\n 36499: u64 [a2 + 152] = 0\n 36503: u64 [a2 + 144] = 0\n 36507: a1 = s1 + 0x21e0\n 36511: u64 [a2 + 136] = 0x20\n 36516: a0 = a3\n 36518: ra = 1412, jump @19\n      : @1269 [@dyn 706] (gas: 3)\n 36525: a0 = s1 + 0x21c0\n 36529: a1 = u64 [s1 + 0xe0]\n 36533: ra = 1414, jump @17\n      : @1270 [@dyn 707] (gas: 8)\n 36540: a4 = s1 + 0x100\n 36544: a0 = u64 [a4 + 0xd0]\n 36548: a5 = a0\n 36550: a2 = u64 [a4 + 0xb0]\n 36554: a0 = a0 | a2\n 36557: a1 = u64 [a4 + 0xc0]\n 36561: a3 = u64 [a4 + 0xb8]\n 36565: t0 = 1416, jump @2324\n      : @1271 [@dyn 708] (gas: 1)\n 36571: jump @1318 if a0 != 0\n      : @1272 (gas: 16)\n 36575: a0 = s1 + 0x2158\n 36579: a2 = u64 [a0 + 0x80]\n 36583: u64 [s1 + 0x110] = a2\n 36587: a3 = u64 [a0 + 0x78]\n 36590: u64 [s1 + 0x108] = a3\n 36594: a1 = u64 [a0 + 0x70]\n 36597: u64 [s1 + 0x118] = a1\n 36601: a4 = u64 [a0 + 0x68]\n 36604: u64 [s1 + 0xe0] = a4\n 36608: u64 [a0 + 0x48] = a4\n 36611: u64 [a0 + 0x50] = a1\n 36614: u64 [a0 + 0x58] = a3\n 36617: a1 = s1 + 0x21a0\n 36621: u64 [a0 + 0x60] = a2\n 36624: a0 = a5\n 36626: ra = 1418, jump @19\n      : @1273 [@dyn 709] (gas: 63)\n 36633: ra = 0\n 36635: a3 = 0\n 36637: t1 = 0\n 36639: t0 = 0\n 36641: a0 = u64 [s1 + 0x1d8]\n 36645: a5 = a0 + 0x40\n 36648: a0 = a5 <u a0\n 36651: u64 [s1 + 0x1b8] = a0\n 36655: a4 = u64 [s1 + 0x1c8]\n 36659: a0 = a0 + a4\n 36662: a1 = u64 [s1 + 0xe0]\n 36666: a2 = a1 >> 0x3b\n 36669: u64 [s1 + 0x1d0] = a2\n 36673: a2 = u64 [s1 + 0x118]\n 36677: a2 = a2 << 0x5\n 36680: t2 = u64 [s1 + 0x1d0]\n 36684: t2 = a2 | t2\n 36687: a2 = a1 << 0x5\n 36690: a1 = a0 + t2\n 36693: a2 = a2 + a5\n 36696: u64 [s1 + 0x188] = a5\n 36700: u64 [s1 + 0x1d0] = a2\n 36704: a2 = a2 <u a5\n 36707: a5 = a1 + a2\n 36710: a1 = a5 ^ a0\n 36713: u64 [s1 + 0x1c0] = a5\n 36717: a5 = a5 <u a0\n 36720: a5 = a2 if a1 == 0\n 36723: u64 [s1 + 0x180] = a0\n 36727: a1 = a0 <u a4\n 36730: a0 = u64 [s1 + 0x1b8]\n 36734: a1 = a0 if a0 == 0\n 36737: a4 = u64 [s1 + 0x108]\n 36741: a0 = a4 >> 0x3b\n 36744: a2 = u64 [s1 + 0x110]\n 36748: a2 = a2 << 0x5\n 36751: t2 = a2 | a0\n 36754: a2 = u64 [s1 + 0x118]\n 36758: a2 = a2 >> 0x3b\n 36761: a4 = a4 << 0x5\n 36764: a0 = a4 | a2\n 36767: a4 = u64 [s1 + 0x1a8]\n 36771: a2 = a4 + a1\n 36774: a1 = a2 <u a4\n 36777: a4 = u64 [s1 + 0x190]\n 36781: a1 = a1 + a4\n 36784: a4 = a2 + a0\n 36787: u64 [s1 + 0x178] = a1\n 36791: a0 = a1 + t2\n 36794: u64 [s1 + 0x168] = a2\n 36798: a1 = a4 <u a2\n 36801: a0 = a0 + a1\n 36804: a5 = a5 + a4\n 36807: a2 = s1 + 0x100\n 36811: u64 [a2 + 0xb0] = a5\n 36815: a1 = a5 <u a4\n 36818: a0 = a0 + a1\n 36821: u64 [a2 + 0xb8] = a0\n 36825: a0 = 0x100000000\n 36835: u64 [a2 + 0x48] = a0\n 36838: a0 = 0xffffffe0\n 36848: u64 [a2 + 0x50] = a0\n 36851: fallthrough\n      : @1274 (gas: 39)\n 36852: a0 = u64 [s1 + 0xe0]\n 36856: u64 [s1 + 0x140] = ra\n 36860: a0 = ra <u a0\n 36863: a2 = u64 [s1 + 0x118]\n 36867: a1 = a3 ^ a2\n 36870: u64 [s1 + 0x138] = a3\n 36874: a2 = a3 <u a2\n 36877: a2 = a0 if a1 == 0\n 36880: a5 = u64 [s1 + 0x108]\n 36884: a0 = t1 <u a5\n 36887: a3 = u64 [s1 + 0x110]\n 36891: a1 = t0 ^ a3\n 36894: u64 [s1 + 0x130] = t0\n 36898: a4 = t0 <u a3\n 36901: a4 = a0 if a1 == 0\n 36904: u64 [s1 + 0x128] = t1\n 36908: a0 = t1 ^ a5\n 36911: a0 = a0 | a1\n 36914: a4 = a2 if a0 == 0\n 36917: a3 = u64 [s1 + 0x1d8]\n 36921: t2 = u64 [s1 + 0x1d0]\n 36925: t0 = t2 <u a3\n 36928: a0 = u64 [s1 + 0x1c8]\n 36932: ra = u64 [s1 + 0x1c0]\n 36936: a1 = ra ^ a0\n 36939: u64 [s1 + 0x198] = a1\n 36943: a1 = ra <u a0\n 36946: a5 = u64 [s1 + 0x1a8]\n 36950: a2 = u64 [s1 + 0x1b0]\n 36954: t1 = a2 - a5\n 36957: a2 = a2 <u a5\n 36960: u64 [s1 + 0x1a0] = a2\n 36964: a5 = u64 [s1 + 0x190]\n 36968: a2 = u64 [s1 + 0x1b8]\n 36972: a2 = a2 - a5\n 36975: u64 [s1 + 0x160] = a2\n 36979: ra = ra - a0\n 36982: t2 = t2 - a3\n 36985: jump @1316 if a4 == 0\n      : @1275 (gas: 12)\n 36989: a0 = u64 [s1 + 0x188]\n 36993: a2 = u64 [s1 + 0x168]\n 36997: a3 = a0 | a2\n 37000: a4 = u64 [s1 + 0x180]\n 37004: a5 = u64 [s1 + 0x178]\n 37008: a4 = a4 | a5\n 37011: a3 = a3 | a4\n 37014: a3 = a3 >> 0x20\n 37017: a4 = a4 | a2\n 37020: a4 = a4 << 0x20\n 37023: a3 = a3 | a4\n 37026: jump @1318 if a3 != 0\n      : @1276 (gas: 29)\n 37030: a2 = u64 [s1 + 0x198]\n 37034: a1 = t0 if a2 == 0\n 37037: a3 = t1 <u a1\n 37040: a2 = u64 [s1 + 0x1a0]\n 37044: a4 = u64 [s1 + 0x160]\n 37048: a4 = a4 - a2\n 37051: a3 = a4 - a3\n 37054: a4 = t1 - a1\n 37057: a2 = ra - t0\n 37060: a1 = a4 <u 0x1\n 37063: t0 = a3 - a1\n 37066: ra = t2 + 0xffffffffffffffc0\n 37069: a3 = ra <u t2\n 37072: a5 = a2 + a3\n 37075: a5 = a5 + 0xffffffffffffffff\n 37078: t1 = a5 ^ a2\n 37081: a1 = a5 <u a2\n 37084: a1 = a3 if t1 == 0\n 37087: a2 = a4 + 0xffffffffffffffff\n 37090: a1 = a1 + a2\n 37093: a2 = a1 <u a2\n 37096: a2 = a2 + t0\n 37099: a3 = s1 + 0x2158\n 37103: u64 [a3 + 0x28] = ra\n 37106: u64 [a3 + 0x30] = a5\n 37109: u64 [a3 + 0x38] = a1\n 37112: a1 = s1 + 0x2180\n 37116: u64 [a3 + 0x40] = a2\n 37119: ra = 1420, jump @19\n      : @1277 [@dyn 710] (gas: 12)\n 37126: a1 = u64 [s1 + 0x100]\n 37130: a3 = u64 [s1 + 0xf0]\n 37134: a0 = a1 | a3\n 37137: a2 = u64 [s1 + 0xf8]\n 37141: a4 = u64 [s1 + 0xe8]\n 37145: a2 = a2 | a4\n 37148: a0 = a0 | a2\n 37151: a0 = a0 >> 0x20\n 37154: a2 = a2 | a3\n 37157: a2 = a2 << 0x20\n 37160: a0 = a0 | a2\n 37163: jump @1318 if a0 != 0\n      : @1278 (gas: 2)\n 37167: a0 = s1 + 0x2160\n 37171: ra = 1422, jump @17\n      : @1279 [@dyn 711] (gas: 3)\n 37178: t0 = 0x590\n 37182: a1 = s1 + 0x2158\n 37186: fallthrough\n      : @1280 [@dyn 712] (gas: 16)\n 37187: a2 = u64 [a1 + 0x20]\n 37190: a3 = u64 [a1 + 0x18]\n 37193: a0 = u64 [a1 + 0x10]\n 37196: a1 = u64 [a1 + 0x8]\n 37199: a4 = s1 + 0x100\n 37203: u64 [a4 + 0xa0] = a0\n 37207: u64 [a4 + 0x60] = a2\n 37210: a0 = a0 | a2\n 37213: a2 = a1 | a3\n 37216: a2 = a2 | a0\n 37219: a2 = a2 >> 0x20\n 37222: u64 [a4 + 0x58] = a3\n 37225: a0 = a0 | a3\n 37228: a0 = a0 << 0x20\n 37231: a0 = a0 | a2\n 37234: jump @1318 if a0 != 0\n      : @1281 (gas: 3)\n 37238: a0 = s1 + 0x2140\n 37242: u64 [s1 + 0x198] = a1\n 37246: ra = 1426, jump @17\n      : @1282 [@dyn 713] (gas: 13)\n 37253: a5 = s1 + 0x100\n 37257: a4 = u64 [a5 + 0xd0]\n 37261: a3 = u64 [a5 + 0xb0]\n 37265: a0 = a4 | a3\n 37268: a1 = u64 [a5 + 0xb8]\n 37272: a2 = u64 [a5 + 0xc0]\n 37276: a1 = a1 | a2\n 37279: a0 = a0 | a1\n 37282: a0 = a0 >> 0x20\n 37285: a1 = a1 | a3\n 37288: a1 = a1 << 0x20\n 37291: a0 = a0 | a1\n 37294: jump @1318 if a0 != 0\n      : @1283 (gas: 19)\n 37298: a2 = s1 + 0x2158\n 37302: a3 = a2 + 0xffffffffffffff00\n 37306: a0 = u64 [a3 + 0xf8]\n 37310: a1 = u64 [a3 + 0xf0]\n 37314: a2 = u64 [a3 + 0xe8]\n 37318: a3 = u64 [s1 + 0x170]\n 37322: a0 = a0 & a3\n 37325: a1 = a1 & 0xffffffffffffffff\n 37328: a2 = a2 & 0xffffffffffffffff\n 37331: a3 = s1 + 0x1958\n 37335: u64 [a3 + 2016] = 0\n 37339: a5 = a3 + 0x700\n 37343: u64 [a5 + 0xc8] = a2\n 37347: u64 [a5 + 0xd0] = a1\n 37351: a1 = s1 + 0x2120\n 37355: u64 [a5 + 0xd8] = a0\n 37359: a0 = a4\n 37361: u64 [s1 + 0x1d0] = a4\n 37365: ra = 1428, jump @19\n      : @1284 [@dyn 714] (gas: 12)\n 37372: a4 = s1 + 0x100\n 37376: a0 = u64 [a4 + 0x60]\n 37379: a3 = u64 [a4 + 0x58]\n 37382: a3 = a3 | a0\n 37385: a1 = u64 [a4 + 0x98]\n 37389: a0 = u64 [a4 + 0x50]\n 37392: a0 = a1 <u a0\n 37395: a2 = u64 [a4 + 0xa0]\n 37399: a0 = 0 if a2 != 0\n 37401: u64 [a4 + 0x60] = a3\n 37404: a0 = 0 if a3 != 0\n 37406: jump @1318 if a0 == 0\n      : @1285 (gas: 3)\n 37410: i32 a1 = a1 + 0x20\n 37413: a0 = s1 + 0x2100\n 37417: ra = 1430, jump @17\n      : @1286 [@dyn 715] (gas: 12)\n 37424: a3 = s1 + 0x100\n 37428: a0 = u64 [a3 + 0xb8]\n 37432: a1 = u64 [a3 + 0xb0]\n 37436: a2 = a1 | a0\n 37439: a5 = u64 [a3 + 0xd0]\n 37443: a0 = u64 [a3 + 0x50]\n 37446: a0 = a5 <u a0\n 37449: a1 = u64 [a3 + 0xc0]\n 37453: a0 = 0 if a1 != 0\n 37455: u64 [a3 + 0x58] = a2\n 37458: a0 = 0 if a2 != 0\n 37460: jump @1318 if a0 == 0\n      : @1287 (gas: 16)\n 37464: a4 = s1 + 0x1958\n 37468: a0 = u64 [a4 + 0x7b8]\n 37472: a1 = u64 [a4 + 0x7b0]\n 37476: a2 = u64 [a4 + 0x7a8]\n 37480: a3 = u64 [s1 + 0x170]\n 37484: a3 = a3 & a0\n 37487: a1 = a1 & 0xffffffffffffffff\n 37490: a2 = a2 & 0xffffffffffffffff\n 37493: i32 a0 = a5 + 0x20\n 37496: u64 [a4 + 1952] = 0\n 37500: a5 = a4 + 0x700\n 37504: u64 [a5 + 0x88] = a2\n 37508: u64 [a5 + 0x90] = a1\n 37512: a1 = s1 + 0x20e0\n 37516: u64 [a5 + 0x98] = a3\n 37520: ra = 1432, jump @19\n      : @1288 [@dyn 716] (gas: 4)\n 37527: a3 = s1 + 0x100\n 37531: a0 = u64 [a3 + 0x48]\n 37534: a0 = a0 + 0xffffffffffffffc0\n 37537: t0 = 1434, jump @2395\n      : @1289 [@dyn 717] (gas: 1)\n 37543: jump @1318 if a0 == 0\n      : @1290 (gas: 3)\n 37547: i32 a1 = a1 + 0x40\n 37550: a0 = s1 + 0x20c0\n 37554: ra = 1436, jump @17\n      : @1291 [@dyn 718] (gas: 9)\n 37561: a3 = s1 + 0x100\n 37565: a2 = u64 [a3 + 0xd0]\n 37569: a0 = u64 [a3 + 0x20]\n 37572: a0 = a2 <u a0\n 37575: a1 = u64 [a3 + 0xc0]\n 37579: a0 = 0 if a1 != 0\n 37581: a1 = u64 [a3 + 0x58]\n 37584: a0 = 0 if a1 != 0\n 37586: jump @1318 if a0 == 0\n      : @1292 (gas: 13)\n 37590: a5 = s1 + 0x1958\n 37594: t0 = u64 [a5 + 0x780]\n 37598: a1 = u64 [a5 + 0x778]\n 37602: a3 = u64 [a5 + 0x770]\n 37606: a4 = u64 [a5 + 0x768]\n 37610: i32 a0 = a2 + 0x40\n 37613: a2 = a5 + 0x700\n 37617: u64 [a2 + 0x48] = a4\n 37620: u64 [a2 + 0x50] = a3\n 37623: u64 [a2 + 0x58] = a1\n 37626: a1 = s1 + 0x20a0\n 37630: u64 [a5 + 0x760] = t0\n 37634: ra = 1438, jump @19\n      : @1293 [@dyn 719] (gas: 4)\n 37641: a3 = s1 + 0x100\n 37645: a0 = u64 [a3 + 0x48]\n 37648: a0 = a0 + 0xffffffffffffffa0\n 37651: t0 = 1440, jump @2395\n      : @1294 [@dyn 720] (gas: 1)\n 37657: jump @1318 if a0 == 0\n      : @1295 (gas: 3)\n 37661: i32 a1 = a1 + 0x60\n 37664: a0 = s1 + 0x2080\n 37668: ra = 1442, jump @17\n      : @1296 [@dyn 721] (gas: 9)\n 37675: a2 = s1 + 0x100\n 37679: a3 = u64 [a2 + 0xd0]\n 37683: a0 = u64 [a2 + 0x20]\n 37686: a0 = a3 <u a0\n 37689: a1 = u64 [a2 + 0xc0]\n 37693: a0 = 0 if a1 != 0\n 37695: a1 = u64 [a2 + 0x58]\n 37698: a0 = 0 if a1 != 0\n 37700: jump @1318 if a0 == 0\n      : @1297 (gas: 17)\n 37704: a4 = s1 + 0x1958\n 37708: a5 = a4 + 0x700\n 37712: a0 = u64 [a5 + 0x40]\n 37715: u64 [s1 + 0x158] = a0\n 37719: a0 = u64 [a5 + 0x38]\n 37722: u64 [s1 + 0x160] = a0\n 37726: a0 = u64 [a5 + 0x30]\n 37729: u64 [s1 + 0x198] = a0\n 37733: a0 = u64 [a5 + 0x28]\n 37736: u64 [s1 + 0x1a0] = a0\n 37740: i32 a0 = a3 + 0x60\n 37743: u64 [a4 + 1824] = 0\n 37747: u64 [a4 + 1816] = 0\n 37751: u64 [a4 + 1808] = 0\n 37755: a1 = s1 + 0x2060\n 37759: u64 [a5 + 8] = 0x80\n 37764: ra = 1444, jump @19\n      : @1298 [@dyn 722] (gas: 5)\n 37771: a1 = u64 [s1 + 0x1d0]\n 37775: a0 = a1 + 0x80\n 37779: a1 = a0 <u a1\n 37782: a3 = u64 [s1 + 0x1c0]\n 37786: t0 = 1446, jump @2385\n      : @1299 [@dyn 723] (gas: 24)\n 37792: a1 = u64 [s1 + 0x1b0]\n 37796: a3 = a3 + a1\n 37799: a1 = a3 <u a1\n 37802: a4 = u64 [s1 + 0x1b8]\n 37806: a4 = a4 + a1\n 37809: a1 = s1 + 0x1958\n 37813: a5 = a1 + 0x600\n 37817: u64 [a5 + 0xb0] = a2\n 37821: u64 [a5 + 0xa8] = a0\n 37825: a0 = u64 [s1 + 0x158]\n 37829: u64 [a5 + 0xe0] = a0\n 37833: a0 = u64 [s1 + 0x160]\n 37837: u64 [a5 + 0xd8] = a0\n 37841: a0 = u64 [s1 + 0x198]\n 37845: u64 [a5 + 0xd0] = a0\n 37849: a0 = u64 [s1 + 0x1a0]\n 37853: u64 [a5 + 0xc8] = a0\n 37857: u64 [a5 + 0xb8] = a3\n 37861: a3 = a1\n 37863: a0 = s1 + 0x2040\n 37867: a1 = s1 + 0x2020\n 37871: a2 = s1 + 0x2000\n 37875: u64 [a3 + 0x6c0] = a4\n 37879: ra = 1448, jump @1909\n      : @1300 [@dyn 724] (gas: 58)\n 37885: t0 = s1 + 0x1958\n 37889: a0 = u64 [t0 + 0x700]\n 37893: u64 [s1 + 0x1b8] = a0\n 37897: a0 = u64 [s1 + 0x100]\n 37901: a1 = a0 + 0x20\n 37904: u64 [s1 + 0x1a0] = a1\n 37908: a2 = a1 <u a0\n 37911: a0 = u64 [s1 + 0xf8]\n 37915: t1 = a0 + a2\n 37918: a3 = t1 <u a0\n 37921: a3 = a2 if a2 == 0\n 37924: a0 = u64 [s1 + 0xf0]\n 37928: t2 = a0 + a3\n 37931: a3 = t2 <u a0\n 37934: a0 = u64 [s1 + 0xe8]\n 37938: a0 = a0 + a3\n 37941: u64 [s1 + 0xe8] = a0\n 37945: a0 = u64 [s1 + 0x188]\n 37949: a2 = a0 + 0x20\n 37952: a5 = a2 <u a0\n 37955: a0 = u64 [s1 + 0x180]\n 37959: a4 = a0 + a5\n 37962: a0 = a4 <u a0\n 37965: a0 = a5 if a5 == 0\n 37968: a1 = u64 [t0 + 0x6f8]\n 37972: u64 [s1 + 0x1b0] = a1\n 37976: a1 = u64 [s1 + 0x168]\n 37980: a0 = a0 + a1\n 37983: a5 = a0 <u a1\n 37986: a1 = u64 [s1 + 0x178]\n 37990: a1 = a1 + a5\n 37993: u64 [s1 + 0x178] = a1\n 37997: ra = u64 [s1 + 0x140]\n 38001: ra = ra + 0x1\n 38004: a5 = ra <u 0x1\n 38007: a3 = u64 [s1 + 0x138]\n 38011: a3 = a3 + a5\n 38014: a5 = ra | a3\n 38017: a5 = a5 <u 0x1\n 38020: a1 = u64 [t0 + 0x6f0]\n 38024: u64 [s1 + 0x1c0] = a1\n 38028: a1 = u64 [t0 + 0x6e8]\n 38032: u64 [s1 + 0x1d0] = a1\n 38036: a1 = u64 [s1 + 0x128]\n 38040: a5 = a5 + a1\n 38043: a1 = a5 <u a1\n 38046: t0 = u64 [s1 + 0x130]\n 38050: t0 = t0 + a1\n 38053: a1 = u64 [s1 + 0x1a0]\n 38057: u64 [s1 + 0x100] = a1\n 38061: u64 [s1 + 0xf8] = t1\n 38065: u64 [s1 + 0xf0] = t2\n 38069: a1 = s1 + 0x100\n 38073: u64 [a1 + 0x88] = a2\n 38077: u64 [a1 + 0x80] = a4\n 38081: u64 [a1 + 0x68] = a0\n 38084: t1 = a5\n 38086: jump @1274\n      : @1301 (gas: 8)\n 38089: a1 = u64 [s1 + 0x128]\n 38093: a0 = u64 [s1 + 0x120]\n 38097: a0 = a0 | a1\n 38100: a0 = a0 >> 0x20\n 38103: a1 = a1 | a3\n 38106: a1 = a1 << 0x20\n 38109: a0 = a0 | a1\n 38112: jump @1318 if a0 != 0\n      : @1302 (gas: 9)\n 38116: a2 = s1 + 0x3158\n 38120: u64 [a2 + 1688] = 0\n 38124: u64 [a2 + 1680] = 0\n 38128: u64 [a2 + 1672] = 0\n 38132: a0 = 0x8c379a000000000\n 38142: a1 = s1 + 0x37e0\n 38146: u64 [a2 + 0x6a0] = a0\n 38150: a0 = u64 [s1 + 0x138]\n 38154: ra = 1450, jump @19\n      : @1303 [@dyn 725] (gas: 5)\n 38161: a0 = 0x100000000\n 38171: a2 = s1 + 0x100\n 38175: u64 [a2 + 0xd8] = a0\n 38179: a0 = 0xfffffffc\n 38189: t0 = 1452, jump @2271\n      : @1304 [@dyn 726] (gas: 1)\n 38195: jump @1318 if a0 == 0\n      : @1305 (gas: 5)\n 38199: a0 = u64 [s1 + 0x138]\n 38203: i32 a0 = a0 + 0x4\n 38206: t0 = 0x5ae\n 38210: a2 = s1 + 0x3158\n 38214: fallthrough\n      : @1306 [@dyn 727] (gas: 6)\n 38215: u64 [a2 + 1664] = 0\n 38219: u64 [a2 + 1656] = 0\n 38223: u64 [a2 + 1640] = 0x20\n 38228: a1 = s1 + 0x37c0\n 38232: u64 [a2 + 1648] = 0\n 38236: ra = 1456, jump @19\n      : @1307 [@dyn 728] (gas: 4)\n 38243: a2 = s1 + 0x100\n 38247: a0 = u64 [a2 + 0xd8]\n 38251: a0 = a0 + 0xffffffffffffffdc\n 38254: t0 = 1458, jump @2271\n      : @1308 [@dyn 729] (gas: 1)\n 38260: jump @1318 if a0 == 0\n      : @1309 (gas: 5)\n 38264: a0 = u64 [s1 + 0x138]\n 38268: i32 a0 = a0 + 0x24\n 38271: t0 = 0x5b4\n 38275: a2 = s1 + 0x3158\n 38279: fallthrough\n      : @1310 [@dyn 730] (gas: 6)\n 38280: u64 [a2 + 1632] = 0\n 38284: u64 [a2 + 1624] = 0\n 38288: u64 [a2 + 1608] = 0x17\n 38293: a1 = s1 + 0x37a0\n 38297: u64 [a2 + 1616] = 0\n 38301: ra = 1462, jump @19\n      : @1311 [@dyn 731] (gas: 3)\n 38308: a0 = 0xffffffbc\n 38318: a2 = s1 + 0x100\n 38322: t0 = 1464, jump @2271\n      : @1312 [@dyn 732] (gas: 1)\n 38328: jump @1318 if a0 == 0\n      : @1313 (gas: 13)\n 38332: a0 = u64 [s1 + 0x138]\n 38336: i32 a0 = a0 + 0x44\n 38339: a1 = u64 [0x20060]\n 38344: a2 = u64 [0x20068]\n 38349: a3 = u64 [0x20070]\n 38354: a4 = s1 + 0x3158\n 38358: a5 = a4 + 0x600\n 38362: u64 [a5 + 0x40] = a1\n 38365: u64 [a5 + 0x38] = a2\n 38368: u64 [a5 + 0x30] = a3\n 38371: a1 = s1 + 0x3780\n 38375: u64 [a4 + 1576] = 0\n 38379: ra = 1466, jump @19\n      : @1314 [@dyn 733] (gas: 3)\n 38386: a1 = 0x64\n 38389: a0 = u64 [s1 + 0x138]\n 38393: ra = 1468, jump @32\n      : @1315 [@dyn 734] (gas: 2)\n 38400: i32 a1 = a0 + 0\n 38402: jump @1670\n      : @1316 (gas: 18)\n 38405: a2 = s1 + 0x100\n 38409: a0 = u64 [a2 + 0x98]\n 38413: a1 = t0 if a0 == 0\n 38416: a3 = t1 <u a1\n 38419: a0 = u64 [a2 + 0xa0]\n 38423: a4 = u64 [a2 + 0x60]\n 38426: a4 = a4 - a0\n 38429: a4 = a4 - a3\n 38432: a5 = t1 - a1\n 38435: a0 = ra - t0\n 38438: a1 = t2 | a5\n 38441: a0 = a0 | a4\n 38444: a1 = a1 | a0\n 38447: a1 = a1 >> 0x20\n 38450: a0 = a0 | a5\n 38453: a0 = a0 << 0x20\n 38456: a0 = a0 | a1\n 38459: jump @1318 if a0 != 0\n      : @1317 (gas: 1)\n 38462: jump @1876\n      : @1318 (gas: 1)\n 38465: trap\n      : @1319 (gas: 29)\n 38466: a5 = s1 + 0x100\n 38470: a0 = u64 [a5 + 0x38]\n 38473: a0 = a0 ^ 0x1\n 38476: a3 = u64 [a5 + 0x50]\n 38479: a1 = u64 [s1 + 0x50]\n 38482: a0 = a1 if a3 != 0\n 38485: a1 = u64 [a5 + 0x10]\n 38488: a2 = u64 [a5 + 0x40]\n 38491: a0 = a1 if a2 != 0\n 38494: a4 = u64 [a5 + 0x48]\n 38497: a1 = a3 | a4\n 38500: u64 [s1 + 0x50] = a1\n 38503: a1 = u64 [s1 + 0x60]\n 38506: a2 = a1 >> 0x3f\n 38509: u64 [s1 + 0x40] = a2\n 38512: a2 = a4 << 0x1\n 38515: u64 [s1 + 0x38] = a2\n 38518: a2 = a3 >> 0x3f\n 38521: u64 [s1 + 0x28] = a2\n 38524: a1 = a1 << 0x1\n 38527: u64 [s1 + 0x18] = a1\n 38530: a1 = u64 [s1 + 0x90]\n 38534: a2 = a1 >> 0x3f\n 38537: u64 [s1 + 0x30] = a2\n 38540: a2 = a3 << 0x1\n 38543: u64 [s1 + 0x20] = a2\n 38546: a1 = a1 << 0x1\n 38549: u64 [s1 + 0x48] = a1\n 38552: jump @1336 if a0 == 0\n      : @1320 (gas: 16)\n 38556: a0 = u64 [s1 + 0x90]\n 38560: a0 = a0 & 0xffffffffffffffe0\n 38563: u64 [s1 + 0x110] = a0\n 38567: a0 = s1 + 0x3158\n 38571: a1 = u64 [s1 + 0x68]\n 38574: a3 = a0 + 0x300\n 38578: u64 [a3 + 0xa8] = a1\n 38582: a1 = u64 [s1 + 0x70]\n 38585: u64 [a3 + 0xb0] = a1\n 38589: a1 = u64 [s1 + 0x80]\n 38593: u64 [a3 + 0xb8] = a1\n 38597: a1 = s1 + 0x3500\n 38601: a2 = u64 [s1 + 0x78]\n 38604: u64 [a3 + 0xc0] = a2\n 38608: a0 = 0\n 38610: ra = 1470, jump @19\n      : @1321 [@dyn 735] (gas: 1)\n 38617: t0 = 1472, jump @2350\n      : @1322 [@dyn 736] (gas: 1)\n 38623: ra = 1474, jump @32\n      : @1323 [@dyn 737] (gas: 1)\n 38630: t0 = 1476, jump @2327\n      : @1324 [@dyn 738] (gas: 4)\n 38636: ra = 0x5c6\n 38640: ecalli 6 // 'hash_keccak_256'\n 38642: t0 = 0x5c8\n 38646: jump @2321\n      : @1325 [@dyn 739] (gas: 1)\n 38649: t0 = 1480, jump @2321\n      : @1326 [@dyn 740] (gas: 1)\n 38655: t0 = 1482, jump @2281\n      : @1327 [@dyn 741] (gas: 9)\n 38661: t0 = a0\n 38663: a1 = u64 [s1 + 0x170]\n 38667: u64 [a1 + 0x18] = a0\n 38670: u64 [s1 + 0x150] = ra\n 38674: u64 [a1 + 0x10] = ra\n 38677: u64 [a1 + 0x8] = t2\n 38680: u64 [a1] = t1\n 38682: u64 [s1 + 0x168] = t0\n 38686: t0 = 1484, jump @2267\n      : @1328 [@dyn 742] (gas: 1)\n 38692: jump @1339 if a4 != 0\n      : @1329 (gas: 14)\n 38696: a4 = u64 [s1 + 0x1d8]\n 38700: a4 = a1 <u a4\n 38703: ra = ra + a4\n 38706: t0 = ra ^ a3\n 38709: u64 [s1 + 0x138] = a3\n 38713: a5 = ra <u a3\n 38716: a5 = a4 if t0 == 0\n 38719: a5 = a5 + a2\n 38722: t0 = a5 <u a2\n 38725: a3 = u64 [s1 + 0x190]\n 38729: a2 = a2 <u a3\n 38732: a0 = a0 + a2\n 38735: a0 = a0 + t0\n 38738: t0 = 1486, jump @2311\n      : @1330 [@dyn 743] (gas: 1)\n 38744: jump @1318 if a0 != 0\n      : @1331 (gas: 2)\n 38748: a0 = s1 + 0x28c0\n 38752: ra = 1488, jump @17\n      : @1332 [@dyn 744] (gas: 15)\n 38759: a3 = s1 + 0x2158\n 38763: a4 = a3 + 0x700\n 38767: a0 = u64 [a4 + 0x80]\n 38771: a1 = u64 [a4 + 0x78]\n 38774: a2 = u64 [a4 + 0x70]\n 38777: a3 = u64 [a4 + 0x68]\n 38780: a4 = s1 + 0x4958\n 38784: a5 = a4 + 0x500\n 38788: u64 [a5 + 0xe0] = a0\n 38792: u64 [a5 + 0xd8] = a1\n 38796: u64 [a5 + 0xd0] = a2\n 38800: u64 [a5 + 0xc8] = a3\n 38804: a1 = s1 + 0x4f20\n 38808: a0 = u64 [s1 + 0x170]\n 38812: ra = 1490, jump @23\n      : @1333 [@dyn 745] (gas: 1)\n 38819: t0 = 1492, jump @2264\n      : @1334 [@dyn 746] (gas: 4)\n 38825: t0 = u64 [s1 + 0x180]\n 38829: t0 = t0 + a5\n 38832: u64 [s1 + 0x180] = t0\n 38836: t0 = 1494, jump @2362\n      : @1335 [@dyn 747] (gas: 11)\n 38842: t0 = a0\n 38844: u64 [a5 + 0x18] = a0\n 38847: u64 [s1 + 0x150] = ra\n 38851: a0 = u64 [s1 + 0x168]\n 38855: u64 [s1 + 0x1d8] = a0\n 38859: a5 = u64 [s1 + 0x148]\n 38863: u64 [s1 + 0x190] = a3\n 38867: a3 = a1\n 38869: u64 [s1 + 0x168] = t0\n 38873: t0 = 0x5cc\n 38877: jump @2267\n      : @1336 (gas: 6)\n 38880: a0 = u64 [s1 + 0x90]\n 38884: a1 = u64 [s1 + 0x60]\n 38887: a0 = a0 | a1\n 38890: a1 = u64 [s1 + 0x50]\n 38893: a0 = a0 | a1\n 38896: jump @1352 if a0 != 0\n      : @1337 (gas: 1)\n 38900: t0 = 1496, jump @2315\n      : @1338 [@dyn 748] (gas: 1)\n 38906: jump @1356\n      : @1339 (gas: 10)\n 38909: t1 = u64 [s1 + 0x190]\n 38913: t0 = u64 [s1 + 0x1d8]\n 38917: a4 = u64 [s1 + 0x90]\n 38921: a5 = u64 [s1 + 0x110]\n 38925: a4 = a4 ^ a5\n 38928: a5 = u64 [s1 + 0x60]\n 38931: a4 = a4 | a5\n 38934: a5 = u64 [s1 + 0x50]\n 38937: a4 = a4 | a5\n 38940: jump @1351 if a4 == 0\n      : @1340 (gas: 12)\n 38944: t2 = a3\n 38946: a4 = a1 <u t0\n 38949: a3 = ra + a4\n 38952: t0 = a3 ^ t2\n 38955: a5 = a3 <u t2\n 38958: a5 = a4 if t0 == 0\n 38961: a5 = a5 + a2\n 38964: a4 = a5 <u a2\n 38967: a2 = a2 <u t1\n 38970: a0 = a0 + a2\n 38973: a0 = a0 + a4\n 38976: t0 = 1498, jump @2277\n      : @1341 [@dyn 749] (gas: 1)\n 38982: jump @1318 if a0 != 0\n      : @1342 (gas: 2)\n 38986: a0 = s1 + 0x34e0\n 38990: ra = 1500, jump @17\n      : @1343 [@dyn 750] (gas: 12)\n 38997: a0 = s1 + 0x3158\n 39001: a2 = a0 + 0x300\n 39005: a1 = u64 [a2 + 0xa0]\n 39009: u64 [s1 + 0x190] = a1\n 39013: a1 = u64 [a2 + 0x98]\n 39017: u64 [s1 + 0x188] = a1\n 39021: a1 = u64 [a2 + 0x90]\n 39025: u64 [s1 + 0x180] = a1\n 39029: a0 = u64 [a2 + 0x88]\n 39033: u64 [s1 + 0x178] = a0\n 39037: a0 = u64 [s1 + 0x90]\n 39041: t0 = 1502, jump @2279\n      : @1344 [@dyn 751] (gas: 1)\n 39047: ra = 1504, jump @2409\n      : @1345 [@dyn 752] (gas: 1)\n 39053: t0 = 1506, jump @2365\n      : @1346 [@dyn 753] (gas: 1)\n 39059: ra = 1508, jump @2404\n      : @1347 [@dyn 754] (gas: 3)\n 39065: u64 [s1 + 0x158] = a0\n 39069: u64 [s1 + 0x160] = a1\n 39073: t0 = 1510, jump @2287\n      : @1348 [@dyn 755] (gas: 1)\n 39079: ra = 1512, jump @2404\n      : @1349 [@dyn 756] (gas: 1)\n 39085: t0 = 1514, jump @2265\n      : @1350 [@dyn 757] (gas: 8)\n 39091: u64 [a4 + 0x600] = a3\n 39095: a3 = a4 + 0x500\n 39099: u64 [a3 + 0xf8] = a2\n 39103: u64 [a3 + 0xf0] = a1\n 39107: u64 [a3 + 0xe8] = a0\n 39111: a1 = s1 + 0x4f40\n 39115: a0 = u64 [s1 + 0x170]\n 39119: ra = 1516, jump @23\n      : @1351 [@dyn 758] (gas: 19)\n 39126: a0 = u64 [s1 + 0x40]\n 39129: a1 = u64 [s1 + 0x38]\n 39132: a0 = a0 | a1\n 39135: a1 = u64 [s1 + 0x28]\n 39138: a2 = u64 [s1 + 0x18]\n 39141: a1 = a1 | a2\n 39144: a2 = u64 [s1 + 0x30]\n 39147: a3 = u64 [s1 + 0x20]\n 39150: a2 = a2 | a3\n 39153: a3 = u64 [s1 + 0x48]\n 39156: a3 = a3 + 0x1\n 39159: a4 = s1 + 0x4958\n 39163: a5 = a4 + 0x600\n 39167: u64 [a5 + 0x8] = a3\n 39170: u64 [a5 + 0x10] = a2\n 39173: u64 [a5 + 0x18] = a1\n 39176: u64 [a5 + 0x20] = a0\n 39179: a0 = 0x4f60\n 39183: jump @1364\n      : @1352 (gas: 1)\n 39186: t0 = 1518, jump @2296\n      : @1353 [@dyn 759] (gas: 1)\n 39192: jump @1318 if a1 == 0\n      : @1354 (gas: 4)\n 39196: a0 = u64 [s1 + 0x130]\n 39200: i32 a1 = a0 + 0x20\n 39203: a0 = s1 + 0x3520\n 39207: ra = 1520, jump @17\n      : @1355 [@dyn 760] (gas: 12)\n 39214: a0 = s1 + 0x3158\n 39218: a2 = a0 + 0x300\n 39222: a1 = u64 [a2 + 0xe0]\n 39226: a3 = s1 + 0x100\n 39230: u64 [a3 + 0x58] = a1\n 39233: a1 = u64 [a2 + 0xd8]\n 39237: u64 [a3 + 0x50] = a1\n 39240: a1 = u64 [a2 + 0xd0]\n 39244: u64 [a3 + 0x40] = a1\n 39247: a0 = u64 [a2 + 0xc8]\n 39251: u64 [a3 + 0x48] = a0\n 39254: fallthrough\n      : @1356 (gas: 15)\n 39255: a0 = u64 [s1 + 0x28]\n 39258: a1 = u64 [s1 + 0x18]\n 39261: a0 = a0 | a1\n 39264: u64 [s1 + 0x190] = a0\n 39268: a0 = u64 [s1 + 0x40]\n 39271: a1 = u64 [s1 + 0x38]\n 39274: a0 = a0 | a1\n 39277: u64 [s1 + 0x188] = a0\n 39281: a0 = u64 [s1 + 0x30]\n 39284: a1 = u64 [s1 + 0x20]\n 39287: a0 = a0 | a1\n 39290: u64 [s1 + 0x180] = a0\n 39294: a1 = u64 [s1 + 0x90]\n 39298: a1 = a1 << 0x3\n 39301: t0 = 1522, jump @2307\n      : @1357 [@dyn 761] (gas: 1)\n 39307: ra = 1524, jump @2409\n      : @1358 [@dyn 762] (gas: 7)\n 39313: u64 [s1 + 0x160] = a0\n 39317: u64 [s1 + 0x178] = a1\n 39321: a0 = u64 [s1 + 0x90]\n 39325: i32 a2 = a0 << 0x3\n 39328: a0 = 0xffffffffffffffff\n 39331: a1 = 0xffffffffffffffff\n 39334: ra = 1526, jump @2404\n      : @1359 [@dyn 763] (gas: 1)\n 39340: t0 = 1528, jump @2272\n      : @1360 [@dyn 764] (gas: 1)\n 39346: ra = 1530, jump @2404\n      : @1361 [@dyn 765] (gas: 1)\n 39352: t0 = 1532, jump @2263\n      : @1362 [@dyn 766] (gas: 2)\n 39358: a4 = u64 [s1 + 0x48]\n 39361: t0 = 1534, jump @2339\n      : @1363 [@dyn 767] (gas: 6)\n 39367: u64 [a5 + 0x38] = a2\n 39370: u64 [a5 + 0x40] = a3\n 39373: u64 [a5 + 0x30] = a1\n 39376: u64 [a5 + 0x28] = a0\n 39379: a0 = 0x4f80\n 39383: fallthrough\n      : @1364 (gas: 3)\n 39384: a1 = s1 + a0\n 39387: a0 = u64 [s1 + 0x98]\n 39391: ra = 1536, jump @23\n      : @1365 [@dyn 768] (gas: 1)\n 39398: t0 = 1538, jump @2401\n      : @1366 [@dyn 769] (gas: 23)\n 39404: a3 = a0 + 0x1\n 39407: a0 = a3 <u 0x1\n 39410: a1 = u64 [s1 + 0x70]\n 39413: a4 = a1 + a0\n 39416: a0 = a3 | a4\n 39419: a0 = a0 <u 0x1\n 39422: a1 = u64 [s1 + 0x80]\n 39426: a5 = a1 + a0\n 39429: a0 = a5 <u a1\n 39432: a1 = u64 [s1 + 0x78]\n 39435: a0 = a0 + a1\n 39438: u64 [s1 + 0x138] = a5\n 39442: u64 [a2 + 0x10] = a5\n 39445: u64 [s1 + 0x140] = a4\n 39449: u64 [a2 + 0x8] = a4\n 39452: u64 [s1 + 0x150] = a3\n 39456: u64 [a2] = a3\n 39458: u64 [s1 + 0x90] = a2\n 39462: u64 [s1 + 0x148] = a0\n 39466: u64 [a2 + 0x18] = a0\n 39469: a0 = s1 + 0x34c0\n 39473: a1 = u64 [s1 + 0x108]\n 39477: ra = 1540, jump @17\n      : @1367 [@dyn 770] (gas: 7)\n 39484: a0 = s1 + 0x3158\n 39488: a5 = a0 + 0x300\n 39492: a3 = u64 [a5 + 0x80]\n 39496: a4 = u64 [a5 + 0x78]\n 39499: a2 = u64 [a5 + 0x70]\n 39502: a1 = u64 [a5 + 0x68]\n 39505: t0 = 1542, jump @2309\n      : @1368 [@dyn 771] (gas: 1)\n 39511: jump @1318 if a0 != 0\n      : @1369 (gas: 3)\n 39515: a0 = s1 + 0x34a0\n 39519: a1 = u64 [s1 + 0x130]\n 39523: ra = 1544, jump @17\n      : @1370 [@dyn 772] (gas: 6)\n 39530: a0 = s1 + 0x3158\n 39534: a4 = a0 + 0x300\n 39538: a3 = u64 [a4 + 0x60]\n 39541: a1 = u64 [a4 + 0x58]\n 39544: a2 = u64 [a4 + 0x50]\n 39547: t0 = 1546, jump @2392\n      : @1371 [@dyn 773] (gas: 8)\n 39553: u64 [s1 + 0x98] = a1\n 39557: u64 [s1 + 0x60] = a3\n 39560: a1 = a1 | a3\n 39563: u64 [s1 + 0x38] = a0\n 39566: u64 [s1 + 0x40] = a4\n 39569: u64 [s1 + 0x50] = a1\n 39572: a0 = a4 if a1 != 0\n 39575: jump @1373 if a0 == 0\n      : @1372 (gas: 1)\n 39578: jump @1878\n      : @1373 (gas: 6)\n 39581: a0 = s1 + 0x3158\n 39585: a0 = u64 [a0 + 0x348]\n 39589: u64 [s1 + 0x108] = a0\n 39593: a0 = s1 + 0x3480\n 39597: a1 = u64 [s1 + 0x90]\n 39601: ra = 1548, jump @21\n      : @1374 [@dyn 774] (gas: 14)\n 39608: a4 = s1 + 0x3158\n 39612: a5 = a4 + 0x300\n 39616: a2 = u64 [a5 + 0x28]\n 39619: a0 = u64 [a5 + 0x30]\n 39622: a1 = u64 [a5 + 0x38]\n 39625: a3 = u64 [a5 + 0x40]\n 39628: u64 [a5] = a3\n 39630: a3 = a4 + 0x200\n 39634: u64 [a3 + 0xf8] = a1\n 39638: u64 [a3 + 0xf0] = a0\n 39642: a0 = s1 + 0x3460\n 39646: a1 = s1 + 0x3440\n 39650: u64 [a3 + 0xe8] = a2\n 39654: ra = 1550, jump @2009\n      : @1375 [@dyn 775] (gas: 7)\n 39660: a0 = s1 + 0x3158\n 39664: a1 = a0 + 0x300\n 39668: a3 = u64 [a1 + 0x20]\n 39671: a4 = u64 [a1 + 0x18]\n 39674: a5 = u64 [a1 + 0x10]\n 39677: a2 = u64 [a1 + 0x8]\n 39680: t0 = 1552, jump @2295\n      : @1376 [@dyn 776] (gas: 2)\n 39686: u64 [s1 + 0x48] = a0\n 39689: jump @1392 if a2 == 0\n      : @1377 (gas: 1)\n 39693: t0 = 1554, jump @2397\n      : @1378 [@dyn 777] (gas: 11)\n 39699: a4 = a0 + 0x200\n 39703: u64 [a4 + 0xc8] = a1\n 39707: a1 = u64 [a3 + 0x40]\n 39710: u64 [a4 + 0xd0] = a1\n 39714: a1 = u64 [a3 + 0x38]\n 39717: u64 [a4 + 0xd8] = a1\n 39721: a1 = s1 + 0x3420\n 39725: a2 = u64 [a3 + 0x48]\n 39728: u64 [a4 + 0xe0] = a2\n 39732: a0 = 0\n 39734: ra = 1556, jump @19\n      : @1379 [@dyn 778] (gas: 3)\n 39741: a0 = u64 [s1 + 0xf8]\n 39745: a0 = i32 [a0]\n 39747: jump @1381 if a0 >u 31\n      : @1380 (gas: 4)\n 39751: a1 = u64 [s1 + 0xf8]\n 39755: u32 [a1 + 0] = 0x20\n 39758: t0 = 0x616\n 39762: jump @2304\n      : @1381 (gas: 1)\n 39765: t0 = 1558, jump @2304\n      : @1382 [@dyn 779] (gas: 3)\n 39771: ra = 0x618\n 39775: ecalli 6 // 'hash_keccak_256'\n 39777: fallthrough\n      : @1383 [@dyn 780] (gas: 5)\n 39778: a0 = u64 [s1 + 0x108]\n 39782: a1 = a0 + 0x1f\n 39785: a0 = a1 <u a0\n 39788: a5 = u64 [s1 + 0x110]\n 39792: t0 = 1562, jump @2334\n      : @1384 [@dyn 781] (gas: 42)\n 39798: t0 = u64 [a0 + 0x18]\n 39801: a2 = a2 << 0x3b\n 39804: a0 = u64 [a0 + 0x10]\n 39807: a1 = a1 >> 0x5\n 39810: a2 = a2 | a1\n 39813: t2 = reverse t0\n 39815: a0 = reverse a0\n 39817: a1 = u64 [s1 + 0x48]\n 39820: a1 = 0 if a5 != 0\n 39822: a3 = u64 [s1 + 0x50]\n 39825: a1 = 0 if a3 != 0\n 39827: a4 = 0 if a1 != 0\n 39829: a2 = 0 if a1 != 0\n 39831: t0 = t2 + a2\n 39834: a2 = t0 <u t2\n 39837: a5 = a0 + a2\n 39840: a4 = a4 + a5\n 39843: u64 [s1 + 0x1d8] = a4\n 39847: a5 = a4 ^ a0\n 39850: a3 = a4 <u a0\n 39853: a3 = a2 if a5 == 0\n 39856: u64 [s1 + 0x30] = a3\n 39859: a2 = u64 [s1 + 0x178]\n 39863: ra = a2 + 0x1f\n 39866: a4 = ra <u a2\n 39869: a3 = u64 [s1 + 0x180]\n 39873: a2 = a3 + a4\n 39876: a5 = a2 <u a3\n 39879: a5 = a4 if a4 == 0\n 39882: t1 = u64 [s1 + 0x190]\n 39886: t1 = t1 + a5\n 39889: a4 = t1 << 0x3b\n 39892: a3 = a2 >> 0x5\n 39895: a3 = a3 | a4\n 39898: a2 = a2 << 0x3b\n 39901: a4 = ra >> 0x5\n 39904: a2 = a2 | a4\n 39907: a2 = a2 + t2\n 39910: u64 [s1 + 0x170] = a2\n 39914: a4 = a2 <u t2\n 39917: t2 = t0\n 39919: t0 = 1564, jump @2355\n      : @1385 [@dyn 782] (gas: 4)\n 39925: a0 = u64 [s1 + 0x98]\n 39929: a0 = a4 <u a0\n 39932: a3 = u64 [s1 + 0x60]\n 39935: t0 = 1566, jump @2333\n      : @1386 [@dyn 783] (gas: 8)\n 39941: t0 = u64 [a4]\n 39943: a4 = u64 [a4 + 0x8]\n 39946: a0 = a0 >> 0x5\n 39949: a3 = 0 if a1 != 0\n 39951: a0 = 0 if a1 != 0\n 39953: a1 = reverse a4\n 39955: a4 = reverse t0\n 39957: t0 = 1568, jump @2388\n      : @1387 [@dyn 784] (gas: 28)\n 39963: ra = u64 [s1 + 0x30]\n 39966: ra = ra + a3\n 39969: a3 = ra <u a3\n 39972: t0 = a0 + a3\n 39975: a0 = u64 [s1 + 0x190]\n 39979: a0 = t1 <u a0\n 39982: a3 = u64 [s1 + 0x188]\n 39986: a0 = a0 + a3\n 39989: a3 = t1 >> 0x5\n 39992: a5 = a0 << 0x3b\n 39995: a3 = a3 | a5\n 39998: a0 = a0 >> 0x5\n 40001: a0 = a0 + a4\n 40004: a5 = s1 + 0x100\n 40008: a4 = u64 [a5 + 0xd8]\n 40012: a3 = a3 + a1\n 40015: a1 = a3 <u a1\n 40018: a0 = a0 + a1\n 40021: a2 = a2 + a3\n 40024: u64 [a5 + 0x60] = a2\n 40027: a1 = a2 <u a3\n 40030: a0 = a0 + a1\n 40033: u64 [a5 + 0x58] = a0\n 40036: a0 = sp + 0xffffffffffffffe0\n 40039: a0 = a0 & 0xffffffffffffffe0\n 40042: u64 [a5 + 0x90] = a0\n 40046: sp = a0\n 40048: fallthrough\n      : @1388 (gas: 26)\n 40049: a0 = u64 [s1 + 0x170]\n 40053: a0 = t2 <u a0\n 40056: a2 = u64 [s1 + 0x168]\n 40060: a1 = a4 ^ a2\n 40063: a2 = a4 <u a2\n 40066: a2 = a0 if a1 == 0\n 40069: a5 = u64 [s1 + 0x160]\n 40073: a0 = ra <u a5\n 40076: a3 = u64 [s1 + 0x158]\n 40080: a1 = t0 ^ a3\n 40083: a3 = t0 <u a3\n 40086: a3 = a0 if a1 == 0\n 40089: a0 = ra ^ a5\n 40092: a0 = a0 | a1\n 40095: a3 = a2 if a0 == 0\n 40098: u64 [s1 + 0x188] = t2\n 40102: a0 = u64 [s1 + 0x190]\n 40106: u64 [a0] = t2\n 40108: u64 [s1 + 0x1d8] = a4\n 40112: u64 [a0 + 0x8] = a4\n 40115: u64 [s1 + 0x178] = ra\n 40119: u64 [a0 + 0x10] = ra\n 40122: u64 [s1 + 0x180] = t0\n 40126: u64 [a0 + 0x18] = t0\n 40129: a0 = s1 + 0x4958\n 40133: jump @1392 if a3 == 0\n      : @1389 (gas: 7)\n 40136: u64 [a0 + 1632] = 0\n 40140: u64 [a0 + 1624] = 0\n 40144: u64 [a0 + 1616] = 0\n 40148: u64 [a0 + 1608] = 0\n 40152: a1 = s1 + 0x4fa0\n 40156: a0 = u64 [s1 + 0x190]\n 40160: ra = 1570, jump @23\n      : @1390 [@dyn 785] (gas: 1)\n 40167: t0 = 1572, jump @2276\n      : @1391 [@dyn 786] (gas: 4)\n 40173: t0 = u64 [s1 + 0x180]\n 40177: t0 = t0 + a1\n 40180: ra = a0\n 40182: jump @1388\n      : @1392 (gas: 12)\n 40185: a0 = u64 [s1 + 0x48]\n 40188: a0 = a0 ^ 0x1\n 40191: a3 = u64 [s1 + 0x110]\n 40195: a1 = u64 [s1 + 0x38]\n 40198: a0 = a1 if a3 != 0\n 40201: a1 = u64 [s1 + 0x40]\n 40204: a2 = u64 [s1 + 0x50]\n 40207: a0 = a1 if a2 != 0\n 40210: a4 = u64 [s1 + 0x60]\n 40213: a1 = a3 | a4\n 40216: u64 [s1 + 0x50] = a1\n 40219: t0 = 1574, jump @2361\n      : @1393 [@dyn 787] (gas: 8)\n 40225: a1 = u64 [s1 + 0x108]\n 40229: a2 = a1 >> 0x3f\n 40232: u64 [s1 + 0x38] = a2\n 40235: a2 = a3 << 0x1\n 40238: u64 [s1 + 0x28] = a2\n 40241: a1 = a1 << 0x1\n 40244: u64 [s1 + 0x60] = a1\n 40247: jump @1411 if a0 == 0\n      : @1394 (gas: 1)\n 40251: t0 = 1576, jump @2378\n      : @1395 [@dyn 788] (gas: 11)\n 40257: a3 = a0 + 0x200\n 40261: u64 [a3 + 0x88] = a1\n 40265: a1 = u64 [s1 + 0x140]\n 40269: u64 [a3 + 0x90] = a1\n 40273: a1 = u64 [s1 + 0x138]\n 40277: u64 [a3 + 0x98] = a1\n 40281: a1 = s1 + 0x33e0\n 40285: a2 = u64 [s1 + 0x148]\n 40289: u64 [a3 + 0xa0] = a2\n 40293: a0 = 0\n 40295: ra = 1578, jump @19\n      : @1396 [@dyn 789] (gas: 1)\n 40302: t0 = 1580, jump @2350\n      : @1397 [@dyn 790] (gas: 1)\n 40308: ra = 1582, jump @32\n      : @1398 [@dyn 791] (gas: 1)\n 40315: t0 = 1584, jump @2327\n      : @1399 [@dyn 792] (gas: 4)\n 40321: ra = 0x632\n 40325: ecalli 6 // 'hash_keccak_256'\n 40327: t0 = 0x634\n 40331: jump @2321\n      : @1400 [@dyn 793] (gas: 1)\n 40334: t0 = 1588, jump @2321\n      : @1401 [@dyn 794] (gas: 1)\n 40340: t0 = 1590, jump @2281\n      : @1402 [@dyn 795] (gas: 9)\n 40346: t0 = a0\n 40348: a1 = u64 [s1 + 0x170]\n 40352: u64 [a1 + 0x18] = a0\n 40355: u64 [s1 + 0x150] = ra\n 40359: u64 [a1 + 0x10] = ra\n 40362: u64 [a1 + 0x8] = t2\n 40365: u64 [a1] = t1\n 40367: u64 [s1 + 0x168] = t0\n 40371: t0 = 1592, jump @2267\n      : @1403 [@dyn 796] (gas: 1)\n 40377: jump @1414 if a4 != 0\n      : @1404 (gas: 14)\n 40381: a4 = u64 [s1 + 0x1d8]\n 40385: a4 = a1 <u a4\n 40388: ra = ra + a4\n 40391: t0 = ra ^ a3\n 40394: u64 [s1 + 0x138] = a3\n 40398: a5 = ra <u a3\n 40401: a5 = a4 if t0 == 0\n 40404: a5 = a5 + a2\n 40407: t0 = a5 <u a2\n 40410: a3 = u64 [s1 + 0x190]\n 40414: a2 = a2 <u a3\n 40417: a0 = a0 + a2\n 40420: a0 = a0 + t0\n 40423: t0 = 1594, jump @2311\n      : @1405 [@dyn 797] (gas: 1)\n 40429: jump @1318 if a0 != 0\n      : @1406 (gas: 2)\n 40433: a0 = s1 + 0x2920\n 40437: ra = 1596, jump @17\n      : @1407 [@dyn 798] (gas: 15)\n 40444: a3 = s1 + 0x2158\n 40448: a4 = a3 + 0x700\n 40452: a0 = u64 [a4 + 0xe0]\n 40456: a1 = u64 [a4 + 0xd8]\n 40460: a2 = u64 [a4 + 0xd0]\n 40464: a3 = u64 [a4 + 0xc8]\n 40468: a4 = s1 + 0x4958\n 40472: a5 = a4 + 0x600\n 40476: u64 [a5 + 0x80] = a0\n 40480: u64 [a5 + 0x78] = a1\n 40483: u64 [a5 + 0x70] = a2\n 40486: u64 [a5 + 0x68] = a3\n 40489: a1 = s1 + 0x4fc0\n 40493: a0 = u64 [s1 + 0x170]\n 40497: ra = 1598, jump @23\n      : @1408 [@dyn 799] (gas: 1)\n 40504: t0 = 1600, jump @2264\n      : @1409 [@dyn 800] (gas: 4)\n 40510: t0 = u64 [s1 + 0x180]\n 40514: t0 = t0 + a5\n 40517: u64 [s1 + 0x180] = t0\n 40521: t0 = 1602, jump @2362\n      : @1410 [@dyn 801] (gas: 11)\n 40527: t0 = a0\n 40529: u64 [a5 + 0x18] = a0\n 40532: u64 [s1 + 0x150] = ra\n 40536: a0 = u64 [s1 + 0x168]\n 40540: u64 [s1 + 0x1d8] = a0\n 40544: a5 = u64 [s1 + 0x148]\n 40548: u64 [s1 + 0x190] = a3\n 40552: a3 = a1\n 40554: u64 [s1 + 0x168] = t0\n 40558: t0 = 0x638\n 40562: jump @2267\n      : @1411 (gas: 6)\n 40565: a0 = u64 [s1 + 0x108]\n 40569: a1 = u64 [s1 + 0x98]\n 40573: a0 = a0 | a1\n 40576: a1 = u64 [s1 + 0x50]\n 40579: a0 = a0 | a1\n 40582: jump @1427 if a0 != 0\n      : @1412 (gas: 1)\n 40586: t0 = 1604, jump @2315\n      : @1413 [@dyn 802] (gas: 1)\n 40592: jump @1431\n      : @1414 (gas: 10)\n 40595: t1 = u64 [s1 + 0x190]\n 40599: t0 = u64 [s1 + 0x1d8]\n 40603: a4 = u64 [s1 + 0x108]\n 40607: a5 = u64 [s1 + 0x110]\n 40611: a4 = a4 ^ a5\n 40614: a5 = u64 [s1 + 0x98]\n 40618: a4 = a4 | a5\n 40621: a5 = u64 [s1 + 0x50]\n 40624: a4 = a4 | a5\n 40627: jump @1426 if a4 == 0\n      : @1415 (gas: 12)\n 40631: t2 = a3\n 40633: a4 = a1 <u t0\n 40636: a3 = ra + a4\n 40639: t0 = a3 ^ t2\n 40642: a5 = a3 <u t2\n 40645: a5 = a4 if t0 == 0\n 40648: a5 = a5 + a2\n 40651: a4 = a5 <u a2\n 40654: a2 = a2 <u t1\n 40657: a0 = a0 + a2\n 40660: a0 = a0 + a4\n 40663: t0 = 1606, jump @2277\n      : @1416 [@dyn 803] (gas: 1)\n 40669: jump @1318 if a0 != 0\n      : @1417 (gas: 2)\n 40673: a0 = s1 + 0x33c0\n 40677: ra = 1608, jump @17\n      : @1418 [@dyn 804] (gas: 12)\n 40684: a0 = s1 + 0x3158\n 40688: a2 = a0 + 0x200\n 40692: a1 = u64 [a2 + 0x80]\n 40696: u64 [s1 + 0x190] = a1\n 40700: a1 = u64 [a2 + 0x78]\n 40703: u64 [s1 + 0x188] = a1\n 40707: a1 = u64 [a2 + 0x70]\n 40710: u64 [s1 + 0x180] = a1\n 40714: a0 = u64 [a2 + 0x68]\n 40717: u64 [s1 + 0x178] = a0\n 40721: a0 = u64 [s1 + 0x108]\n 40725: t0 = 1610, jump @2279\n      : @1419 [@dyn 805] (gas: 1)\n 40731: ra = 1612, jump @2409\n      : @1420 [@dyn 806] (gas: 1)\n 40737: t0 = 1614, jump @2365\n      : @1421 [@dyn 807] (gas: 1)\n 40743: ra = 1616, jump @2404\n      : @1422 [@dyn 808] (gas: 3)\n 40749: u64 [s1 + 0x158] = a0\n 40753: u64 [s1 + 0x160] = a1\n 40757: t0 = 1618, jump @2287\n      : @1423 [@dyn 809] (gas: 1)\n 40763: ra = 1620, jump @2404\n      : @1424 [@dyn 810] (gas: 1)\n 40769: t0 = 1622, jump @2265\n      : @1425 [@dyn 811] (gas: 8)\n 40775: a5 = a4 + 0x600\n 40779: u64 [a5 + 0xa0] = a3\n 40783: u64 [a5 + 0x98] = a2\n 40787: u64 [a5 + 0x90] = a1\n 40791: u64 [a5 + 0x88] = a0\n 40795: a1 = s1 + 0x4fe0\n 40799: a0 = u64 [s1 + 0x170]\n 40803: ra = 1624, jump @23\n      : @1426 [@dyn 812] (gas: 19)\n 40810: a0 = u64 [s1 + 0x48]\n 40813: a1 = u64 [s1 + 0x40]\n 40816: a0 = a0 | a1\n 40819: a1 = u64 [s1 + 0x30]\n 40822: a2 = u64 [s1 + 0x20]\n 40825: a1 = a1 | a2\n 40828: a2 = u64 [s1 + 0x38]\n 40831: a3 = u64 [s1 + 0x28]\n 40834: a2 = a2 | a3\n 40837: a3 = u64 [s1 + 0x60]\n 40840: a3 = a3 + 0x1\n 40843: a4 = s1 + 0x4958\n 40847: a5 = a4 + 0x600\n 40851: u64 [a5 + 0xa8] = a3\n 40855: u64 [a5 + 0xb0] = a2\n 40859: u64 [a5 + 0xb8] = a1\n 40863: u64 [a5 + 0xc0] = a0\n 40867: a0 = 0x5000\n 40871: jump @1441\n      : @1427 (gas: 1)\n 40874: t0 = 1626, jump @2296\n      : @1428 [@dyn 813] (gas: 1)\n 40880: jump @1318 if a1 == 0\n      : @1429 (gas: 4)\n 40884: a0 = u64 [s1 + 0x130]\n 40888: i32 a1 = a0 + 0x20\n 40891: a0 = s1 + 0x3400\n 40895: ra = 1628, jump @17\n      : @1430 [@dyn 814] (gas: 13)\n 40902: a0 = s1 + 0x3158\n 40906: a2 = a0 + 0x200\n 40910: a1 = u64 [a2 + 0xc0]\n 40914: a3 = s1 + 0x100\n 40918: u64 [a3 + 0x58] = a1\n 40921: a1 = u64 [a2 + 0xb8]\n 40925: u64 [a3 + 0x50] = a1\n 40928: a1 = u64 [a2 + 0xb0]\n 40932: u64 [a3 + 0x40] = a1\n 40935: a0 = u64 [a2 + 0xa8]\n 40939: u64 [a3 + 0x48] = a0\n 40942: t0 = 0x65e\n 40946: jump @2340\n      : @1431 (gas: 1)\n 40949: t0 = 1630, jump @2340\n      : @1432 [@dyn 815] (gas: 3)\n 40955: a1 = u64 [s1 + 0x108]\n 40959: a1 = a1 << 0x3\n 40962: t0 = 1632, jump @2307\n      : @1433 [@dyn 816] (gas: 1)\n 40968: ra = 1634, jump @2409\n      : @1434 [@dyn 817] (gas: 1)\n 40974: t0 = 1636, jump @2384\n      : @1435 [@dyn 818] (gas: 1)\n 40980: ra = 1638, jump @2404\n      : @1436 [@dyn 819] (gas: 1)\n 40986: t0 = 1640, jump @2272\n      : @1437 [@dyn 820] (gas: 1)\n 40992: ra = 1642, jump @2404\n      : @1438 [@dyn 821] (gas: 1)\n 40998: t0 = 1644, jump @2263\n      : @1439 [@dyn 822] (gas: 2)\n 41004: a4 = u64 [s1 + 0x60]\n 41007: t0 = 1646, jump @2339\n      : @1440 [@dyn 823] (gas: 6)\n 41013: u64 [a5 + 0xd8] = a2\n 41017: u64 [a5 + 0xe0] = a3\n 41021: u64 [a5 + 0xd0] = a1\n 41025: u64 [a5 + 0xc8] = a0\n 41029: a0 = 0x5020\n 41033: fallthrough\n      : @1441 (gas: 3)\n 41034: a1 = s1 + a0\n 41037: a0 = u64 [s1 + 0x90]\n 41041: ra = 1648, jump @23\n      : @1442 [@dyn 824] (gas: 1)\n 41048: t0 = 1650, jump @2401\n      : @1443 [@dyn 825] (gas: 2)\n 41054: a3 = a0 + 0x2\n 41057: t0 = 1652, jump @2302\n      : @1444 [@dyn 826] (gas: 6)\n 41063: u64 [s1 + 0x98] = a2\n 41067: u64 [s1 + 0x140] = a0\n 41071: u64 [a2 + 0x18] = a0\n 41074: a0 = s1 + 0x33a0\n 41078: a1 = u64 [s1 + 0x100]\n 41082: ra = 1654, jump @17\n      : @1445 [@dyn 827] (gas: 7)\n 41089: a0 = s1 + 0x3158\n 41093: a5 = a0 + 0x200\n 41097: a3 = u64 [a5 + 0x60]\n 41100: a4 = u64 [a5 + 0x58]\n 41103: a2 = u64 [a5 + 0x50]\n 41106: a1 = u64 [a5 + 0x48]\n 41109: t0 = 1656, jump @2309\n      : @1446 [@dyn 828] (gas: 1)\n 41115: jump @1448 if a0 == 0\n      : @1447 (gas: 1)\n 41118: jump @1318\n      : @1448 (gas: 3)\n 41121: a0 = s1 + 0x3380\n 41125: a1 = u64 [s1 + 0x130]\n 41129: ra = 1658, jump @17\n      : @1449 [@dyn 829] (gas: 6)\n 41136: a0 = s1 + 0x3158\n 41140: a4 = a0 + 0x200\n 41144: a3 = u64 [a4 + 0x40]\n 41147: a1 = u64 [a4 + 0x38]\n 41150: a2 = u64 [a4 + 0x30]\n 41153: t0 = 1660, jump @2392\n      : @1450 [@dyn 830] (gas: 8)\n 41159: u64 [s1 + 0x100] = a1\n 41163: u64 [s1 + 0x90] = a3\n 41167: a1 = a1 | a3\n 41170: u64 [s1 + 0x40] = a0\n 41173: u64 [s1 + 0x48] = a4\n 41176: u64 [s1 + 0x60] = a1\n 41179: a0 = a4 if a1 != 0\n 41182: jump @1452 if a0 == 0\n      : @1451 (gas: 1)\n 41185: jump @1882\n      : @1452 (gas: 6)\n 41188: a0 = s1 + 0x3158\n 41192: a0 = u64 [a0 + 0x228]\n 41196: u64 [s1 + 0x108] = a0\n 41200: a0 = s1 + 0x3360\n 41204: a1 = u64 [s1 + 0x98]\n 41208: ra = 1662, jump @21\n      : @1453 [@dyn 831] (gas: 14)\n 41215: a4 = s1 + 0x3158\n 41219: a5 = a4 + 0x200\n 41223: a2 = u64 [a5 + 0x8]\n 41226: a0 = u64 [a5 + 0x10]\n 41229: a1 = u64 [a5 + 0x18]\n 41232: a3 = u64 [a5 + 0x20]\n 41235: a5 = a4 + 0x100\n 41239: u64 [a5 + 0xe0] = a3\n 41243: u64 [a5 + 0xd8] = a1\n 41247: u64 [a5 + 0xd0] = a0\n 41251: a0 = s1 + 0x3340\n 41255: a1 = s1 + 0x3320\n 41259: u64 [a5 + 0xc8] = a2\n 41263: ra = 1664, jump @2009\n      : @1454 [@dyn 832] (gas: 7)\n 41269: a0 = s1 + 0x3158\n 41273: a3 = u64 [a0 + 0x200]\n 41277: a1 = a0 + 0x100\n 41281: a4 = u64 [a1 + 0xf8]\n 41285: a5 = u64 [a1 + 0xf0]\n 41289: a2 = u64 [a1 + 0xe8]\n 41293: t0 = 1666, jump @2295\n      : @1455 [@dyn 833] (gas: 2)\n 41299: u64 [s1 + 0x50] = a0\n 41302: jump @1472 if a2 == 0\n      : @1456 (gas: 1)\n 41306: t0 = 1668, jump @2397\n      : @1457 [@dyn 834] (gas: 11)\n 41312: a4 = a0 + 0x100\n 41316: u64 [a4 + 0xa8] = a1\n 41320: a1 = u64 [a3 + 0x48]\n 41323: u64 [a4 + 0xb0] = a1\n 41327: a1 = u64 [a3 + 0x38]\n 41330: u64 [a4 + 0xb8] = a1\n 41334: a1 = s1 + 0x3300\n 41338: a2 = u64 [a3 + 0x40]\n 41341: u64 [a4 + 0xc0] = a2\n 41345: a0 = 0\n 41347: ra = 1670, jump @19\n      : @1458 [@dyn 835] (gas: 3)\n 41354: a0 = u64 [s1 + 0xf8]\n 41358: a0 = i32 [a0]\n 41360: jump @1460 if a0 >u 31\n      : @1459 (gas: 4)\n 41364: a1 = u64 [s1 + 0xf8]\n 41368: u32 [a1 + 0] = 0x20\n 41371: t0 = 0x688\n 41375: jump @2304\n      : @1460 (gas: 1)\n 41378: t0 = 1672, jump @2304\n      : @1461 [@dyn 836] (gas: 3)\n 41384: ra = 0x68a\n 41388: ecalli 6 // 'hash_keccak_256'\n 41390: fallthrough\n      : @1462 [@dyn 837] (gas: 15)\n 41391: a0 = u64 [s1 + 0x108]\n 41395: a1 = a0 + 0x1f\n 41398: a0 = a1 <u a0\n 41401: a5 = u64 [s1 + 0x110]\n 41405: a2 = a5 + a0\n 41408: a3 = a2 <u a5\n 41411: a3 = a0 if a0 == 0\n 41414: a4 = u64 [s1 + 0x100]\n 41418: a3 = a3 + a4\n 41421: u64 [s1 + 0x158] = a3\n 41425: a3 = a3 << 0x3b\n 41428: a4 = a2 >> 0x5\n 41431: a4 = a4 | a3\n 41434: a0 = u64 [s1 + 0x160]\n 41438: t0 = 1676, jump @2301\n      : @1463 [@dyn 838] (gas: 4)\n 41444: a1 = u64 [s1 + 0x50]\n 41447: a1 = 0 if a5 != 0\n 41449: a3 = u64 [s1 + 0x60]\n 41452: t0 = 1678, jump @2389\n      : @1464 [@dyn 839] (gas: 29)\n 41458: t0 = t2 + a0\n 41461: a0 = t0 <u t2\n 41464: a5 = a2 + a0\n 41467: a4 = a4 + a5\n 41470: u64 [s1 + 0x1d8] = a4\n 41474: a5 = a4 ^ a2\n 41477: a3 = a4 <u a2\n 41480: a3 = a0 if a5 == 0\n 41483: u64 [s1 + 0x38] = a3\n 41486: a0 = u64 [s1 + 0x178]\n 41490: ra = a0 + 0x1f\n 41493: a4 = ra <u a0\n 41496: a3 = u64 [s1 + 0x180]\n 41500: a0 = a3 + a4\n 41503: a5 = a0 <u a3\n 41506: a5 = a4 if a4 == 0\n 41509: t1 = u64 [s1 + 0x190]\n 41513: t1 = t1 + a5\n 41516: a4 = t1 << 0x3b\n 41519: a3 = a0 >> 0x5\n 41522: a3 = a3 | a4\n 41525: a0 = a0 << 0x3b\n 41528: a4 = ra >> 0x5\n 41531: a0 = a0 | a4\n 41534: a0 = a0 + t2\n 41537: u64 [s1 + 0x170] = a0\n 41541: a0 = a0 <u t2\n 41544: t2 = t0\n 41546: t0 = 1680, jump @2354\n      : @1465 [@dyn 840] (gas: 4)\n 41552: a0 = u64 [s1 + 0x100]\n 41556: a0 = a4 <u a0\n 41559: a3 = u64 [s1 + 0x90]\n 41563: t0 = 1682, jump @2333\n      : @1466 [@dyn 841] (gas: 8)\n 41569: t0 = u64 [a4]\n 41571: a4 = u64 [a4 + 0x8]\n 41574: a0 = a0 >> 0x5\n 41577: a3 = 0 if a1 != 0\n 41579: a0 = 0 if a1 != 0\n 41581: a1 = reverse a4\n 41583: a4 = reverse t0\n 41585: t0 = 1684, jump @2388\n      : @1467 [@dyn 842] (gas: 28)\n 41591: ra = u64 [s1 + 0x38]\n 41594: ra = ra + a3\n 41597: a3 = ra <u a3\n 41600: t0 = a0 + a3\n 41603: a0 = u64 [s1 + 0x190]\n 41607: a0 = t1 <u a0\n 41610: a3 = u64 [s1 + 0x188]\n 41614: a0 = a0 + a3\n 41617: a3 = t1 >> 0x5\n 41620: a5 = a0 << 0x3b\n 41623: a3 = a3 | a5\n 41626: a0 = a0 >> 0x5\n 41629: a0 = a0 + a4\n 41632: a5 = s1 + 0x100\n 41636: a4 = u64 [a5 + 0xd8]\n 41640: a3 = a3 + a1\n 41643: a1 = a3 <u a1\n 41646: a0 = a0 + a1\n 41649: a2 = a2 + a3\n 41652: u64 [a5 + 0x60] = a2\n 41655: a1 = a2 <u a3\n 41658: a0 = a0 + a1\n 41661: u64 [a5 + 0x58] = a0\n 41664: a0 = sp + 0xffffffffffffffe0\n 41667: a0 = a0 & 0xffffffffffffffe0\n 41670: u64 [a5 + 0x90] = a0\n 41674: sp = a0\n 41676: fallthrough\n      : @1468 (gas: 26)\n 41677: a0 = u64 [s1 + 0x170]\n 41681: a0 = t2 <u a0\n 41684: a2 = u64 [s1 + 0x168]\n 41688: a1 = a4 ^ a2\n 41691: a2 = a4 <u a2\n 41694: a2 = a0 if a1 == 0\n 41697: a5 = u64 [s1 + 0x160]\n 41701: a0 = ra <u a5\n 41704: a3 = u64 [s1 + 0x158]\n 41708: a1 = t0 ^ a3\n 41711: a3 = t0 <u a3\n 41714: a3 = a0 if a1 == 0\n 41717: a0 = ra ^ a5\n 41720: a0 = a0 | a1\n 41723: a3 = a2 if a0 == 0\n 41726: u64 [s1 + 0x188] = t2\n 41730: a0 = u64 [s1 + 0x190]\n 41734: u64 [a0] = t2\n 41736: u64 [s1 + 0x1d8] = a4\n 41740: u64 [a0 + 0x8] = a4\n 41743: u64 [s1 + 0x178] = ra\n 41747: u64 [a0 + 0x10] = ra\n 41750: u64 [s1 + 0x180] = t0\n 41754: u64 [a0 + 0x18] = t0\n 41757: a0 = s1 + 0x4958\n 41761: jump @1472 if a3 == 0\n      : @1469 (gas: 7)\n 41764: u64 [a0 + 1792] = 0\n 41768: u64 [a0 + 1784] = 0\n 41772: u64 [a0 + 1776] = 0\n 41776: u64 [a0 + 1768] = 0\n 41780: a1 = s1 + 0x5040\n 41784: a0 = u64 [s1 + 0x190]\n 41788: ra = 1686, jump @23\n      : @1470 [@dyn 843] (gas: 1)\n 41795: t0 = 1688, jump @2276\n      : @1471 [@dyn 844] (gas: 4)\n 41801: t0 = u64 [s1 + 0x180]\n 41805: t0 = t0 + a1\n 41808: ra = a0\n 41810: jump @1468\n      : @1472 (gas: 29)\n 41813: a0 = u64 [s1 + 0x50]\n 41816: a0 = a0 ^ 0x1\n 41819: a5 = s1 + 0x100\n 41823: a3 = u64 [a5 + 0x10]\n 41826: a1 = u64 [s1 + 0x40]\n 41829: a0 = a1 if a3 != 0\n 41832: a1 = u64 [s1 + 0x48]\n 41835: a2 = u64 [s1 + 0x60]\n 41838: a0 = a1 if a2 != 0\n 41841: a4 = u64 [s1 + 0x90]\n 41845: a1 = a3 | a4\n 41848: u64 [s1 + 0x60] = a1\n 41851: a1 = u64 [a5]\n 41853: a2 = a1 >> 0x3f\n 41856: u64 [s1 + 0x50] = a2\n 41859: a2 = a4 << 0x1\n 41862: u64 [s1 + 0x48] = a2\n 41865: a2 = a3 >> 0x3f\n 41868: u64 [s1 + 0x38] = a2\n 41871: a1 = a1 << 0x1\n 41874: u64 [s1 + 0x28] = a1\n 41877: a1 = u64 [a5 + 0x8]\n 41880: a2 = a1 >> 0x3f\n 41883: u64 [s1 + 0x40] = a2\n 41886: a2 = a3 << 0x1\n 41889: u64 [s1 + 0x30] = a2\n 41892: a1 = a1 << 0x1\n 41895: u64 [s1 + 0x90] = a1\n 41899: jump @1491 if a0 == 0\n      : @1473 (gas: 1)\n 41903: t0 = 1690, jump @2378\n      : @1474 [@dyn 845] (gas: 11)\n 41909: a3 = a0 + 0x100\n 41913: u64 [a3 + 0x68] = a1\n 41916: a1 = u64 [s1 + 0x148]\n 41920: u64 [a3 + 0x70] = a1\n 41923: a1 = u64 [s1 + 0x138]\n 41927: u64 [a3 + 0x78] = a1\n 41930: a1 = s1 + 0x32c0\n 41934: a2 = u64 [s1 + 0x140]\n 41938: u64 [a3 + 0x80] = a2\n 41942: a0 = 0\n 41944: ra = 1692, jump @19\n      : @1475 [@dyn 846] (gas: 1)\n 41951: t0 = 1694, jump @2350\n      : @1476 [@dyn 847] (gas: 1)\n 41957: ra = 1696, jump @32\n      : @1477 [@dyn 848] (gas: 1)\n 41964: t0 = 1698, jump @2327\n      : @1478 [@dyn 849] (gas: 4)\n 41970: ra = 0x6a4\n 41974: ecalli 6 // 'hash_keccak_256'\n 41976: t0 = 0x6a6\n 41980: jump @2321\n      : @1479 [@dyn 850] (gas: 1)\n 41983: t0 = 1702, jump @2321\n      : @1480 [@dyn 851] (gas: 1)\n 41989: t0 = 1704, jump @2281\n      : @1481 [@dyn 852] (gas: 9)\n 41995: t0 = a0\n 41997: a1 = u64 [s1 + 0x170]\n 42001: u64 [a1 + 0x18] = a0\n 42004: u64 [s1 + 0x150] = ra\n 42008: u64 [a1 + 0x10] = ra\n 42011: u64 [a1 + 0x8] = t2\n 42014: u64 [a1] = t1\n 42016: u64 [s1 + 0x168] = t0\n 42020: t0 = 1706, jump @2267\n      : @1482 [@dyn 853] (gas: 1)\n 42026: jump @1494 if a4 != 0\n      : @1483 (gas: 14)\n 42030: a4 = u64 [s1 + 0x1d8]\n 42034: a4 = a1 <u a4\n 42037: ra = ra + a4\n 42040: t0 = ra ^ a3\n 42043: u64 [s1 + 0x138] = a3\n 42047: a5 = ra <u a3\n 42050: a5 = a4 if t0 == 0\n 42053: a5 = a5 + a2\n 42056: t0 = a5 <u a2\n 42059: a3 = u64 [s1 + 0x190]\n 42063: a2 = a2 <u a3\n 42066: a0 = a0 + a2\n 42069: a0 = a0 + t0\n 42072: t0 = 1708, jump @2311\n      : @1484 [@dyn 854] (gas: 1)\n 42078: jump @1486 if a0 == 0\n      : @1485 (gas: 1)\n 42081: jump @1318\n      : @1486 (gas: 2)\n 42084: a0 = s1 + 0x2980\n 42088: ra = 1710, jump @17\n      : @1487 [@dyn 855] (gas: 14)\n 42095: a3 = s1 + 0x2958\n 42099: a0 = u64 [a3 + 0x40]\n 42102: a1 = u64 [a3 + 0x38]\n 42105: a2 = u64 [a3 + 0x30]\n 42108: a3 = u64 [a3 + 0x28]\n 42111: a4 = s1 + 0x4958\n 42115: a5 = a4 + 0x700\n 42119: u64 [a5 + 0x20] = a0\n 42122: u64 [a5 + 0x18] = a1\n 42125: u64 [a5 + 0x10] = a2\n 42128: u64 [a5 + 0x8] = a3\n 42131: a1 = s1 + 0x5060\n 42135: a0 = u64 [s1 + 0x170]\n 42139: ra = 1712, jump @23\n      : @1488 [@dyn 856] (gas: 1)\n 42146: t0 = 1714, jump @2264\n      : @1489 [@dyn 857] (gas: 4)\n 42152: t0 = u64 [s1 + 0x180]\n 42156: t0 = t0 + a5\n 42159: u64 [s1 + 0x180] = t0\n 42163: t0 = 1716, jump @2362\n      : @1490 [@dyn 858] (gas: 11)\n 42169: t0 = a0\n 42171: u64 [a5 + 0x18] = a0\n 42174: u64 [s1 + 0x150] = ra\n 42178: a0 = u64 [s1 + 0x168]\n 42182: u64 [s1 + 0x1d8] = a0\n 42186: a5 = u64 [s1 + 0x148]\n 42190: u64 [s1 + 0x190] = a3\n 42194: a3 = a1\n 42196: u64 [s1 + 0x168] = t0\n 42200: t0 = 0x6aa\n 42204: jump @2267\n      : @1491 (gas: 6)\n 42207: a0 = u64 [s1 + 0x108]\n 42211: a1 = u64 [s1 + 0x100]\n 42215: a0 = a0 | a1\n 42218: a1 = u64 [s1 + 0x60]\n 42221: a0 = a0 | a1\n 42224: jump @1509 if a0 != 0\n      : @1492 (gas: 1)\n 42228: t0 = 1718, jump @2315\n      : @1493 [@dyn 859] (gas: 1)\n 42234: jump @1514\n      : @1494 (gas: 10)\n 42237: t1 = u64 [s1 + 0x190]\n 42241: t0 = u64 [s1 + 0x1d8]\n 42245: a4 = u64 [s1 + 0x108]\n 42249: a5 = u64 [s1 + 0x110]\n 42253: a4 = a4 ^ a5\n 42256: a5 = u64 [s1 + 0x100]\n 42260: a4 = a4 | a5\n 42263: a5 = u64 [s1 + 0x60]\n 42266: a4 = a4 | a5\n 42269: jump @1508 if a4 == 0\n      : @1495 (gas: 12)\n 42273: t2 = a3\n 42275: a4 = a1 <u t0\n 42278: a3 = ra + a4\n 42281: t0 = a3 ^ t2\n 42284: a5 = a3 <u t2\n 42287: a5 = a4 if t0 == 0\n 42290: a5 = a5 + a2\n 42293: a4 = a5 <u a2\n 42296: a2 = a2 <u t1\n 42299: a0 = a0 + a2\n 42302: a0 = a0 + a4\n 42305: t0 = 1720, jump @2277\n      : @1496 [@dyn 860] (gas: 1)\n 42311: jump @1498 if a0 == 0\n      : @1497 (gas: 1)\n 42314: jump @1318\n      : @1498 (gas: 2)\n 42317: a0 = s1 + 0x32a0\n 42321: ra = 1722, jump @17\n      : @1499 [@dyn 861] (gas: 3)\n 42328: a0 = s1 + 0x3158\n 42332: a2 = a0 + 0x100\n 42336: t0 = 1724, jump @2363\n      : @1500 [@dyn 862] (gas: 2)\n 42342: a0 = u64 [s1 + 0x108]\n 42346: t0 = 1726, jump @2279\n      : @1501 [@dyn 863] (gas: 1)\n 42352: ra = 1728, jump @2409\n      : @1502 [@dyn 864] (gas: 1)\n 42358: t0 = 1730, jump @2365\n      : @1503 [@dyn 865] (gas: 1)\n 42364: ra = 1732, jump @2404\n      : @1504 [@dyn 866] (gas: 3)\n 42370: u64 [s1 + 0x158] = a0\n 42374: u64 [s1 + 0x160] = a1\n 42378: t0 = 1734, jump @2287\n      : @1505 [@dyn 867] (gas: 1)\n 42384: ra = 1736, jump @2404\n      : @1506 [@dyn 868] (gas: 1)\n 42390: t0 = 1738, jump @2265\n      : @1507 [@dyn 869] (gas: 8)\n 42396: a5 = a4 + 0x700\n 42400: u64 [a5 + 0x40] = a3\n 42403: u64 [a5 + 0x38] = a2\n 42406: u64 [a5 + 0x30] = a1\n 42409: u64 [a5 + 0x28] = a0\n 42412: a1 = s1 + 0x5080\n 42416: a0 = u64 [s1 + 0x170]\n 42420: ra = 1740, jump @23\n      : @1508 [@dyn 870] (gas: 19)\n 42427: a0 = u64 [s1 + 0x50]\n 42430: a1 = u64 [s1 + 0x48]\n 42433: a0 = a0 | a1\n 42436: a1 = u64 [s1 + 0x38]\n 42439: a2 = u64 [s1 + 0x28]\n 42442: a1 = a1 | a2\n 42445: a2 = u64 [s1 + 0x40]\n 42448: a3 = u64 [s1 + 0x30]\n 42451: a2 = a2 | a3\n 42454: a3 = u64 [s1 + 0x90]\n 42458: a3 = a3 + 0x1\n 42461: a4 = s1 + 0x4958\n 42465: a5 = a4 + 0x700\n 42469: u64 [a5 + 0x48] = a3\n 42472: u64 [a5 + 0x50] = a2\n 42475: u64 [a5 + 0x58] = a1\n 42478: u64 [a5 + 0x60] = a0\n 42481: a0 = 0x50a0\n 42485: jump @1522\n      : @1509 (gas: 1)\n 42488: t0 = 1742, jump @2296\n      : @1510 [@dyn 871] (gas: 1)\n 42494: jump @1512 if a1 != 0\n      : @1511 (gas: 1)\n 42497: jump @1318\n      : @1512 (gas: 4)\n 42500: a0 = u64 [s1 + 0x130]\n 42504: i32 a1 = a0 + 0x20\n 42507: a0 = s1 + 0x32e0\n 42511: ra = 1744, jump @17\n      : @1513 [@dyn 872] (gas: 3)\n 42518: a0 = s1 + 0x3158\n 42522: a2 = a0 + 0x100\n 42526: t0 = 1746, jump @2402\n      : @1514 [@dyn 873] (gas: 15)\n 42532: a0 = u64 [s1 + 0x38]\n 42535: a1 = u64 [s1 + 0x28]\n 42538: a0 = a0 | a1\n 42541: u64 [s1 + 0x190] = a0\n 42545: a0 = u64 [s1 + 0x50]\n 42548: a1 = u64 [s1 + 0x48]\n 42551: a0 = a0 | a1\n 42554: u64 [s1 + 0x188] = a0\n 42558: a0 = u64 [s1 + 0x40]\n 42561: a1 = u64 [s1 + 0x30]\n 42564: a0 = a0 | a1\n 42567: u64 [s1 + 0x180] = a0\n 42571: a1 = u64 [s1 + 0x108]\n 42575: a1 = a1 << 0x3\n 42578: t0 = 1748, jump @2307\n      : @1515 [@dyn 874] (gas: 1)\n 42584: ra = 1750, jump @2409\n      : @1516 [@dyn 875] (gas: 1)\n 42590: t0 = 1752, jump @2384\n      : @1517 [@dyn 876] (gas: 1)\n 42596: ra = 1754, jump @2404\n      : @1518 [@dyn 877] (gas: 1)\n 42602: t0 = 1756, jump @2272\n      : @1519 [@dyn 878] (gas: 1)\n 42608: ra = 1758, jump @2404\n      : @1520 [@dyn 879] (gas: 1)\n 42614: t0 = 1760, jump @2263\n      : @1521 [@dyn 880] (gas: 17)\n 42620: a4 = u64 [s1 + 0x90]\n 42624: a0 = a0 | a4\n 42627: a5 = s1 + 0x100\n 42631: a4 = u64 [a5 + 0x80]\n 42635: a1 = a1 | a4\n 42638: a4 = u64 [a5 + 0x88]\n 42642: a3 = a3 | a4\n 42645: a4 = u64 [a5 + 0x90]\n 42649: a2 = a2 | a4\n 42652: a4 = s1 + 0x4958\n 42656: a5 = a4 + 0x700\n 42660: u64 [a5 + 0x78] = a2\n 42663: u64 [a5 + 0x80] = a3\n 42667: u64 [a5 + 0x70] = a1\n 42670: u64 [a5 + 0x68] = a0\n 42673: a0 = 0x50c0\n 42677: fallthrough\n      : @1522 (gas: 3)\n 42678: a1 = s1 + a0\n 42681: a0 = u64 [s1 + 0x98]\n 42685: ra = 1762, jump @23\n      : @1523 [@dyn 881] (gas: 1)\n 42692: t0 = 1764, jump @2401\n      : @1524 [@dyn 882] (gas: 2)\n 42698: a3 = a0 + 0x3\n 42701: t0 = 1766, jump @2302\n      : @1525 [@dyn 883] (gas: 6)\n 42707: u64 [s1 + 0x90] = a2\n 42711: u64 [s1 + 0x140] = a0\n 42715: u64 [a2 + 0x18] = a0\n 42718: a0 = s1 + 0x3280\n 42722: a1 = u64 [s1 + 0xc0]\n 42726: ra = 1768, jump @17\n      : @1526 [@dyn 884] (gas: 19)\n 42733: a0 = s1 + 0x3158\n 42737: a5 = a0 + 0x100\n 42741: a3 = u64 [a5 + 0x40]\n 42744: a4 = u64 [a5 + 0x38]\n 42747: a2 = u64 [a5 + 0x30]\n 42750: a1 = u64 [a5 + 0x28]\n 42753: a5 = s1 + 0x100\n 42757: u64 [a5 + 0x18] = a2\n 42760: u64 [a5 + 0x10] = a3\n 42763: a0 = a2 | a3\n 42766: u64 [a5 + 0x20] = a1\n 42769: a1 = a1 | a4\n 42772: a1 = a1 | a0\n 42775: a1 = a1 >> 0x20\n 42778: u64 [a5 + 0x8] = a4\n 42781: a0 = a0 | a4\n 42784: a0 = a0 << 0x20\n 42787: a0 = a0 | a1\n 42790: jump @1528 if a0 == 0\n      : @1527 (gas: 1)\n 42793: jump @1318\n      : @1528 (gas: 3)\n 42796: a0 = s1 + 0x3260\n 42800: a1 = u64 [s1 + 0x120]\n 42804: ra = 1770, jump @17\n      : @1529 [@dyn 885] (gas: 6)\n 42811: a0 = s1 + 0x3158\n 42815: a4 = a0 + 0x100\n 42819: a3 = u64 [a4 + 0x20]\n 42822: a1 = u64 [a4 + 0x18]\n 42825: a2 = u64 [a4 + 0x10]\n 42828: t0 = 1772, jump @2377\n      : @1530 [@dyn 886] (gas: 8)\n 42834: u64 [s1 + 0x98] = a1\n 42838: u64 [a5 + 0x28] = a3\n 42841: a1 = a1 | a3\n 42844: u64 [s1 + 0x48] = a0\n 42847: u64 [s1 + 0x50] = a4\n 42850: u64 [a5] = a1\n 42852: a0 = a4 if a1 != 0\n 42855: jump @1532 if a0 == 0\n      : @1531 (gas: 1)\n 42858: jump @1886\n      : @1532 (gas: 6)\n 42861: a0 = s1 + 0x3158\n 42865: a0 = u64 [a0 + 0x108]\n 42869: u64 [s1 + 0xc0] = a0\n 42873: a0 = s1 + 0x3240\n 42877: a1 = u64 [s1 + 0x90]\n 42881: ra = 1774, jump @21\n      : @1533 [@dyn 887] (gas: 12)\n 42888: a4 = s1 + 0x3158\n 42892: a2 = u64 [a4 + 0xe8]\n 42896: a0 = u64 [a4 + 0xf0]\n 42900: a1 = u64 [a4 + 0xf8]\n 42904: a3 = u64 [a4 + 0x100]\n 42908: u64 [a4 + 0xc0] = a3\n 42912: u64 [a4 + 0xb8] = a1\n 42916: u64 [a4 + 0xb0] = a0\n 42920: a0 = s1 + 0x3220\n 42924: a1 = s1 + 0x3200\n 42928: u64 [a4 + 0xa8] = a2\n 42932: ra = 1776, jump @2009\n      : @1534 [@dyn 888] (gas: 22)\n 42938: a0 = s1 + 0x3158\n 42942: a3 = u64 [a0 + 0xe0]\n 42946: a4 = u64 [a0 + 0xd8]\n 42950: a5 = u64 [a0 + 0xd0]\n 42954: a2 = u64 [a0 + 0xc8]\n 42958: a0 = a3 >u 0\n 42960: a1 = a4 >u 0\n 42962: a1 = a0 if a3 != 0\n 42965: a0 = a5 >u 0\n 42967: u64 [s1 + 0x178] = a2\n 42971: a2 = a2 <u 0x20\n 42974: a2 = a2 ^ 0x1\n 42977: u64 [s1 + 0x180] = a5\n 42981: a2 = a0 if a5 != 0\n 42984: u64 [s1 + 0x188] = a3\n 42988: u64 [s1 + 0x190] = a4\n 42992: a0 = a4 | a3\n 42995: a2 = a1 if a0 != 0\n 42998: a0 = u64 [s1 + 0xc0]\n 43002: a0 = a0 <u 0x20\n 43005: u64 [s1 + 0x60] = a0\n 43008: jump @1552 if a2 == 0\n      : @1535 (gas: 1)\n 43012: t0 = 1778, jump @2397\n      : @1536 [@dyn 889] (gas: 10)\n 43018: u64 [a0 + 0x88] = a1\n 43022: a1 = u64 [a3 + 0x48]\n 43025: u64 [a0 + 0x90] = a1\n 43029: a1 = u64 [a3 + 0x38]\n 43032: u64 [a0 + 0x98] = a1\n 43036: a1 = s1 + 0x31e0\n 43040: a2 = u64 [a3 + 0x40]\n 43043: u64 [a0 + 0xa0] = a2\n 43047: a0 = 0\n 43049: ra = 1780, jump @19\n      : @1537 [@dyn 890] (gas: 3)\n 43056: a0 = u64 [s1 + 0xf8]\n 43060: a0 = i32 [a0]\n 43062: jump @1539 if a0 >u 31\n      : @1538 (gas: 4)\n 43066: a1 = u64 [s1 + 0xf8]\n 43070: u32 [a1 + 0] = 0x20\n 43073: t0 = 0x6f6\n 43077: jump @2304\n      : @1539 (gas: 1)\n 43080: t0 = 1782, jump @2304\n      : @1540 [@dyn 891] (gas: 3)\n 43086: ra = 0x6f8\n 43090: ecalli 6 // 'hash_keccak_256'\n 43092: fallthrough\n      : @1541 [@dyn 892] (gas: 5)\n 43093: a0 = u64 [s1 + 0xc0]\n 43097: a1 = a0 + 0x1f\n 43100: a0 = a1 <u a0\n 43103: a5 = u64 [s1 + 0x130]\n 43107: t0 = 1786, jump @2334\n      : @1542 [@dyn 893] (gas: 1)\n 43113: t0 = 1788, jump @2301\n      : @1543 [@dyn 894] (gas: 4)\n 43119: a1 = u64 [s1 + 0x60]\n 43122: a1 = 0 if a5 != 0\n 43124: a3 = u64 [s1 + 0x100]\n 43128: t0 = 1790, jump @2389\n      : @1544 [@dyn 895] (gas: 29)\n 43134: t0 = t2 + a0\n 43137: a0 = t0 <u t2\n 43140: a5 = a2 + a0\n 43143: a4 = a4 + a5\n 43146: u64 [s1 + 0x1d8] = a4\n 43150: a5 = a4 ^ a2\n 43153: a3 = a4 <u a2\n 43156: a3 = a0 if a5 == 0\n 43159: u64 [s1 + 0x40] = a3\n 43162: a0 = u64 [s1 + 0x178]\n 43166: ra = a0 + 0x1f\n 43169: a4 = ra <u a0\n 43172: a3 = u64 [s1 + 0x180]\n 43176: a0 = a3 + a4\n 43179: a5 = a0 <u a3\n 43182: a5 = a4 if a4 == 0\n 43185: t1 = u64 [s1 + 0x190]\n 43189: t1 = t1 + a5\n 43192: a4 = t1 << 0x3b\n 43195: a3 = a0 >> 0x5\n 43198: a3 = a3 | a4\n 43201: a0 = a0 << 0x3b\n 43204: a4 = ra >> 0x5\n 43207: a0 = a0 | a4\n 43210: a0 = a0 + t2\n 43213: u64 [s1 + 0x170] = a0\n 43217: a0 = a0 <u t2\n 43220: t2 = t0\n 43222: t0 = 1792, jump @2354\n      : @1545 [@dyn 896] (gas: 4)\n 43228: a0 = u64 [s1 + 0x98]\n 43232: a0 = a4 <u a0\n 43235: a3 = u64 [s1 + 0x128]\n 43239: t0 = 1794, jump @2333\n      : @1546 [@dyn 897] (gas: 8)\n 43245: t0 = u64 [a4]\n 43247: a4 = u64 [a4 + 0x8]\n 43250: a0 = a0 >> 0x5\n 43253: a3 = 0 if a1 != 0\n 43255: a0 = 0 if a1 != 0\n 43257: a1 = reverse a4\n 43259: a4 = reverse t0\n 43261: t0 = 1796, jump @2388\n      : @1547 [@dyn 898] (gas: 28)\n 43267: ra = u64 [s1 + 0x40]\n 43270: ra = ra + a3\n 43273: a3 = ra <u a3\n 43276: t0 = a0 + a3\n 43279: a0 = u64 [s1 + 0x190]\n 43283: a0 = t1 <u a0\n 43286: a3 = u64 [s1 + 0x188]\n 43290: a0 = a0 + a3\n 43293: a3 = t1 >> 0x5\n 43296: a5 = a0 << 0x3b\n 43299: a3 = a3 | a5\n 43302: a0 = a0 >> 0x5\n 43305: a0 = a0 + a4\n 43308: a5 = s1 + 0x100\n 43312: a4 = u64 [a5 + 0xd8]\n 43316: a3 = a3 + a1\n 43319: a1 = a3 <u a1\n 43322: a0 = a0 + a1\n 43325: a2 = a2 + a3\n 43328: u64 [a5 + 0x60] = a2\n 43331: a1 = a2 <u a3\n 43334: a0 = a0 + a1\n 43337: u64 [a5 + 0x58] = a0\n 43340: a0 = sp + 0xffffffffffffffe0\n 43343: a0 = a0 & 0xffffffffffffffe0\n 43346: u64 [a5 + 0x90] = a0\n 43350: sp = a0\n 43352: fallthrough\n      : @1548 (gas: 25)\n 43353: a0 = u64 [s1 + 0x170]\n 43357: a0 = t2 <u a0\n 43360: a2 = u64 [s1 + 0x168]\n 43364: a1 = a4 ^ a2\n 43367: a2 = a4 <u a2\n 43370: a2 = a0 if a1 == 0\n 43373: a5 = u64 [s1 + 0x160]\n 43377: a0 = ra <u a5\n 43380: a3 = u64 [s1 + 0x158]\n 43384: a1 = t0 ^ a3\n 43387: a3 = t0 <u a3\n 43390: a3 = a0 if a1 == 0\n 43393: a0 = ra ^ a5\n 43396: a0 = a0 | a1\n 43399: a3 = a2 if a0 == 0\n 43402: u64 [s1 + 0x188] = t2\n 43406: a0 = u64 [s1 + 0x190]\n 43410: u64 [a0] = t2\n 43412: u64 [s1 + 0x1d8] = a4\n 43416: u64 [a0 + 0x8] = a4\n 43419: u64 [s1 + 0x178] = ra\n 43423: u64 [a0 + 0x10] = ra\n 43426: u64 [s1 + 0x180] = t0\n 43430: u64 [a0 + 0x18] = t0\n 43433: jump @1552 if a3 == 0\n      : @1549 (gas: 8)\n 43436: a0 = s1 + 0x4958\n 43440: u64 [a0 + 1952] = 0\n 43444: u64 [a0 + 1944] = 0\n 43448: u64 [a0 + 1936] = 0\n 43452: u64 [a0 + 1928] = 0\n 43456: a1 = s1 + 0x50e0\n 43460: a0 = u64 [s1 + 0x190]\n 43464: ra = 1798, jump @23\n      : @1550 [@dyn 899] (gas: 1)\n 43471: t0 = 1800, jump @2276\n      : @1551 [@dyn 900] (gas: 4)\n 43477: t0 = u64 [s1 + 0x180]\n 43481: t0 = t0 + a1\n 43484: ra = a0\n 43486: jump @1548\n      : @1552 (gas: 13)\n 43489: a0 = u64 [s1 + 0x60]\n 43492: a0 = a0 ^ 0x1\n 43495: a5 = s1 + 0x100\n 43499: a3 = u64 [a5 + 0x30]\n 43502: a1 = u64 [s1 + 0x48]\n 43505: a0 = a1 if a3 != 0\n 43508: a1 = u64 [s1 + 0x50]\n 43511: a2 = u64 [a5]\n 43513: a0 = a1 if a2 != 0\n 43516: a4 = u64 [a5 + 0x28]\n 43519: a1 = a3 | a4\n 43522: u64 [s1 + 0x60] = a1\n 43525: t0 = 1802, jump @2361\n      : @1553 [@dyn 901] (gas: 8)\n 43531: a1 = u64 [s1 + 0xc0]\n 43535: a2 = a1 >> 0x3f\n 43538: u64 [s1 + 0x38] = a2\n 43541: a2 = a3 << 0x1\n 43544: u64 [s1 + 0x28] = a2\n 43547: a1 = a1 << 0x1\n 43550: u64 [s1 + 0x50] = a1\n 43553: jump @1570 if a0 == 0\n      : @1554 (gas: 15)\n 43557: a0 = u64 [s1 + 0xc0]\n 43561: a0 = a0 & 0xffffffffffffffe0\n 43564: u64 [s1 + 0x100] = a0\n 43568: a0 = s1 + 0x3158\n 43572: a1 = u64 [s1 + 0x150]\n 43576: u64 [a0 + 0x48] = a1\n 43579: a1 = u64 [s1 + 0x148]\n 43583: u64 [a0 + 0x50] = a1\n 43586: a1 = u64 [s1 + 0x138]\n 43590: u64 [a0 + 0x58] = a1\n 43593: a1 = s1 + 0x31a0\n 43597: a2 = u64 [s1 + 0x140]\n 43601: u64 [a0 + 0x60] = a2\n 43604: a0 = 0\n 43606: ra = 1804, jump @19\n      : @1555 [@dyn 902] (gas: 1)\n 43613: t0 = 1806, jump @2357\n      : @1556 [@dyn 903] (gas: 1)\n 43619: ra = 1808, jump @32\n      : @1557 [@dyn 904] (gas: 4)\n 43626: a1 = sp + 0xffffffffffffffe0\n 43629: a1 = a1 & 0xffffffffffffffe0\n 43632: u64 [s1 + 0x150] = a1\n 43636: t0 = 1810, jump @2336\n      : @1558 [@dyn 905] (gas: 4)\n 43642: ra = 0x714\n 43646: ecalli 6 // 'hash_keccak_256'\n 43648: t0 = 0x716\n 43652: jump @2282\n      : @1559 [@dyn 906] (gas: 1)\n 43655: t0 = 1814, jump @2282\n      : @1560 [@dyn 907] (gas: 1)\n 43661: t0 = 1816, jump @2278\n      : @1561 [@dyn 908] (gas: 1)\n 43667: jump @1573 if a4 != 0\n      : @1562 (gas: 1)\n 43671: t0 = 1818, jump @2353\n      : @1563 [@dyn 909] (gas: 10)\n 43677: t0 = a3 ^ a5\n 43680: a5 = a3 <u a5\n 43683: a5 = a4 if t0 == 0\n 43686: a5 = a5 + a2\n 43689: t0 = a5 <u a2\n 43692: a4 = u64 [s1 + 0x190]\n 43696: a2 = a2 <u a4\n 43699: a0 = a0 + a2\n 43702: a0 = a0 + t0\n 43705: t0 = 1820, jump @2277\n      : @1564 [@dyn 910] (gas: 1)\n 43711: jump @1566 if a0 == 0\n      : @1565 (gas: 1)\n 43714: jump @1318\n      : @1566 (gas: 2)\n 43717: a0 = s1 + 0x29e0\n 43721: ra = 1822, jump @17\n      : @1567 [@dyn 911] (gas: 14)\n 43728: a3 = s1 + 0x2958\n 43732: a0 = u64 [a3 + 0xa0]\n 43736: a1 = u64 [a3 + 0x98]\n 43740: a2 = u64 [a3 + 0x90]\n 43744: a3 = u64 [a3 + 0x88]\n 43748: a4 = s1 + 0x4958\n 43752: a5 = a4 + 0x700\n 43756: u64 [a5 + 0xc0] = a0\n 43760: u64 [a5 + 0xb8] = a1\n 43764: u64 [a5 + 0xb0] = a2\n 43768: u64 [a5 + 0xa8] = a3\n 43772: a1 = s1 + 0x5100\n 43776: a0 = u64 [s1 + 0x158]\n 43780: ra = 1824, jump @23\n      : @1568 [@dyn 912] (gas: 45)\n 43787: ra = u64 [s1 + 0x150]\n 43791: ra = ra + 0x1\n 43794: a0 = ra <u 0x1\n 43797: t0 = u64 [s1 + 0x148]\n 43801: t0 = t0 + a0\n 43804: a0 = ra | t0\n 43807: a0 = a0 <u 0x1\n 43810: a1 = u64 [s1 + 0x138]\n 43814: t1 = a1 + a0\n 43817: a1 = t1 <u a1\n 43820: a0 = u64 [s1 + 0x140]\n 43824: a0 = a0 + a1\n 43827: a1 = u64 [s1 + 0x1d8]\n 43831: a2 = a1 + 0x20\n 43834: u64 [s1 + 0x130] = a2\n 43838: a3 = a2 <u a1\n 43841: a1 = u64 [s1 + 0x188]\n 43845: a2 = a1 + a3\n 43848: u64 [s1 + 0x128] = a2\n 43852: a4 = a2 <u a1\n 43855: a4 = a3 if a3 == 0\n 43858: a1 = u64 [s1 + 0x190]\n 43862: t2 = a1 + a4\n 43865: a4 = t2 <u a1\n 43868: a1 = u64 [s1 + 0x180]\n 43872: a1 = a1 + a4\n 43875: u64 [s1 + 0x180] = a1\n 43879: a1 = u64 [s1 + 0x168]\n 43883: a4 = a1 + 0x20\n 43886: a5 = a4 <u a1\n 43889: a2 = u64 [s1 + 0x160]\n 43893: a1 = a2 + a5\n 43896: a2 = a1 <u a2\n 43899: a2 = a5 if a5 == 0\n 43902: a3 = u64 [s1 + 0x170]\n 43906: a2 = a2 + a3\n 43909: a5 = a2 <u a3\n 43912: a3 = u64 [s1 + 0x178]\n 43916: a3 = a3 + a5\n 43919: a5 = s1 + 0x100\n 43923: u64 [a5 + 0x78] = a3\n 43926: u64 [s1 + 0x148] = t0\n 43930: a3 = u64 [a5 + 0x58]\n 43933: u64 [a3 + 0x8] = t0\n 43936: t0 = 1826, jump @2318\n      : @1569 [@dyn 913] (gas: 1)\n 43942: jump @1560\n      : @1570 (gas: 6)\n 43945: a0 = u64 [s1 + 0xc0]\n 43949: a1 = u64 [s1 + 0x98]\n 43953: a0 = a0 | a1\n 43956: a1 = u64 [s1 + 0x60]\n 43959: a0 = a0 | a1\n 43962: jump @1587 if a0 != 0\n      : @1571 (gas: 1)\n 43966: t0 = 1828, jump @2315\n      : @1572 [@dyn 914] (gas: 1)\n 43972: jump @1592\n      : @1573 (gas: 8)\n 43975: a4 = u64 [s1 + 0xc0]\n 43979: a5 = u64 [s1 + 0x100]\n 43983: a4 = a4 ^ a5\n 43986: a5 = u64 [s1 + 0x98]\n 43990: a4 = a4 | a5\n 43993: a5 = u64 [s1 + 0x60]\n 43996: a4 = a4 | a5\n 43999: jump @1586 if a4 == 0\n      : @1574 (gas: 1)\n 44003: t0 = 1830, jump @2353\n      : @1575 [@dyn 915] (gas: 10)\n 44009: t0 = a3 ^ a5\n 44012: a5 = a3 <u a5\n 44015: a5 = a4 if t0 == 0\n 44018: a5 = a5 + a2\n 44021: t0 = a5 <u a2\n 44024: a4 = u64 [s1 + 0x190]\n 44028: a2 = a2 <u a4\n 44031: a0 = a0 + a2\n 44034: a0 = a0 + t0\n 44037: t0 = 1832, jump @2277\n      : @1576 [@dyn 916] (gas: 1)\n 44043: jump @1578 if a0 == 0\n      : @1577 (gas: 1)\n 44046: jump @1318\n      : @1578 (gas: 2)\n 44049: a0 = s1 + 0x3180\n 44053: ra = 1834, jump @17\n      : @1579 [@dyn 917] (gas: 11)\n 44060: a0 = s1 + 0x3158\n 44064: a1 = u64 [a0 + 0x40]\n 44067: u64 [s1 + 0x190] = a1\n 44071: a1 = u64 [a0 + 0x38]\n 44074: u64 [s1 + 0x188] = a1\n 44078: a1 = u64 [a0 + 0x30]\n 44081: u64 [s1 + 0x180] = a1\n 44085: a0 = u64 [a0 + 0x28]\n 44088: u64 [s1 + 0x178] = a0\n 44092: a0 = u64 [s1 + 0xc0]\n 44096: t0 = 1836, jump @2279\n      : @1580 [@dyn 918] (gas: 1)\n 44102: ra = 1838, jump @2409\n      : @1581 [@dyn 919] (gas: 6)\n 44108: u64 [s1 + 0x170] = a0\n 44112: u64 [s1 + 0x150] = a1\n 44116: a0 = 0xffffffffffffffff\n 44119: a1 = 0xffffffffffffffff\n 44122: a2 = u64 [s1 + 0x1d8]\n 44126: ra = 1840, jump @2404\n      : @1582 [@dyn 920] (gas: 3)\n 44132: u64 [s1 + 0x160] = a0\n 44136: u64 [s1 + 0x168] = a1\n 44140: t0 = 1842, jump @2287\n      : @1583 [@dyn 921] (gas: 1)\n 44146: ra = 1844, jump @2404\n      : @1584 [@dyn 922] (gas: 1)\n 44152: t0 = 1846, jump @2275\n      : @1585 [@dyn 923] (gas: 10)\n 44158: i32 a4 = a4 + 0xfffffffffffff958\n 44162: a4 = a4 + s1\n 44165: a5 = a4 + 0x700\n 44169: u64 [a5 + 0xe0] = a3\n 44173: u64 [a5 + 0xd8] = a2\n 44177: u64 [a5 + 0xd0] = a1\n 44181: u64 [a5 + 0xc8] = a0\n 44185: a1 = s1 + 0x5120\n 44189: a0 = u64 [s1 + 0x158]\n 44193: ra = 1848, jump @23\n      : @1586 [@dyn 924] (gas: 20)\n 44200: a0 = u64 [s1 + 0x48]\n 44203: a1 = u64 [s1 + 0x40]\n 44206: a0 = a0 | a1\n 44209: a1 = u64 [s1 + 0x30]\n 44212: a2 = u64 [s1 + 0x20]\n 44215: a1 = a1 | a2\n 44218: a2 = u64 [s1 + 0x38]\n 44221: a3 = u64 [s1 + 0x28]\n 44224: a2 = a2 | a3\n 44227: a3 = u64 [s1 + 0x50]\n 44230: a3 = a3 + 0x1\n 44233: a4 = s1 + 0x4958\n 44237: a5 = a4 + 0x700\n 44241: u64 [a5 + 0xe8] = a3\n 44245: u64 [a5 + 0xf0] = a2\n 44249: u64 [a5 + 0xf8] = a1\n 44253: a1 = s1 + 0x5158\n 44257: u64 [a1] = a0\n 44259: a0 = 0x5140\n 44263: jump @1601\n      : @1587 (gas: 1)\n 44266: t0 = 1850, jump @2331\n      : @1588 [@dyn 925] (gas: 1)\n 44272: jump @1590 if a1 != 0\n      : @1589 (gas: 1)\n 44275: jump @1318\n      : @1590 (gas: 4)\n 44278: a0 = u64 [s1 + 0x120]\n 44282: i32 a1 = a0 + 0x20\n 44285: a0 = s1 + 0x31c0\n 44289: ra = 1852, jump @17\n      : @1591 [@dyn 926] (gas: 12)\n 44296: a0 = s1 + 0x3158\n 44300: a1 = u64 [a0 + 0x80]\n 44304: a2 = s1 + 0x100\n 44308: u64 [a2 + 0x58] = a1\n 44311: a1 = u64 [a0 + 0x78]\n 44314: u64 [a2 + 0x50] = a1\n 44317: a1 = u64 [a0 + 0x70]\n 44320: u64 [a2 + 0x40] = a1\n 44323: a0 = u64 [a0 + 0x68]\n 44326: u64 [a2 + 0x48] = a0\n 44329: t0 = 0x73e\n 44333: jump @2340\n      : @1592 (gas: 1)\n 44336: t0 = 1854, jump @2340\n      : @1593 [@dyn 927] (gas: 3)\n 44342: a1 = u64 [s1 + 0xc0]\n 44346: a1 = a1 << 0x3\n 44349: t0 = 1856, jump @2307\n      : @1594 [@dyn 928] (gas: 1)\n 44355: ra = 1858, jump @2409\n      : @1595 [@dyn 929] (gas: 7)\n 44361: u64 [s1 + 0x160] = a0\n 44365: u64 [s1 + 0x178] = a1\n 44369: a0 = u64 [s1 + 0xc0]\n 44373: i32 a2 = a0 << 0x3\n 44376: a0 = 0xffffffffffffffff\n 44379: a1 = 0xffffffffffffffff\n 44382: ra = 1860, jump @2404\n      : @1596 [@dyn 930] (gas: 1)\n 44388: t0 = 1862, jump @2272\n      : @1597 [@dyn 931] (gas: 1)\n 44394: ra = 1864, jump @2404\n      : @1598 [@dyn 932] (gas: 1)\n 44400: t0 = 1866, jump @2263\n      : @1599 [@dyn 933] (gas: 2)\n 44406: a4 = u64 [s1 + 0x50]\n 44409: t0 = 1868, jump @2356\n      : @1600 [@dyn 934] (gas: 6)\n 44415: u64 [a4 + 0x18] = a2\n 44418: u64 [a4 + 0x20] = a3\n 44421: u64 [a4 + 0x10] = a1\n 44424: u64 [a4 + 0x8] = a0\n 44427: a0 = 0x5160\n 44431: fallthrough\n      : @1601 (gas: 3)\n 44432: a1 = s1 + a0\n 44435: a0 = u64 [s1 + 0x90]\n 44439: ra = 1870, jump @23\n      : @1602 [@dyn 935] (gas: 3)\n 44446: a0 = s1 + 0x3160\n 44450: a1 = u64 [s1 + 0xb0]\n 44454: ra = 1872, jump @17\n      : @1603 [@dyn 936] (gas: 13)\n 44461: a1 = s1 + 0x3158\n 44465: a0 = u64 [a1 + 0x8]\n 44468: u64 [s1 + 0x1d8] = a0\n 44472: a0 = u64 [a1 + 0x10]\n 44475: u64 [s1 + 0x190] = a0\n 44479: a0 = u32 [a1 + 0x18]\n 44482: u64 [s1 + 0x188] = a0\n 44486: a0 = sp + 0xffffffffffffffe0\n 44489: a5 = a0 & 0xffffffffffffffe0\n 44492: sp = a5\n 44494: a1 = u64 [s1 + 0x68]\n 44497: a0 = a1 + 0x4\n 44500: t0 = 1874, jump @2343\n      : @1604 [@dyn 937] (gas: 9)\n 44506: a4 = a4 + a1\n 44509: a1 = a5\n 44511: u64 [s1 + 0x180] = a5\n 44515: u64 [a5 + 0x18] = a4\n 44518: u64 [a5 + 0x10] = a3\n 44521: u64 [a5 + 0x8] = a2\n 44524: u64 [a5] = a0\n 44526: a0 = s1 + 0x3140\n 44530: ra = 1876, jump @21\n      : @1605 [@dyn 938] (gas: 17)\n 44537: a0 = s1 + 0x2958\n 44541: a0 = u32 [a0 + 0x7fc]\n 44545: a0 = a0 << 0x20\n 44548: a1 = s1 + 0x3158\n 44552: a1 = u64 [a1]\n 44554: a2 = u64 [s1 + 0x188]\n 44558: a0 = a0 | a2\n 44561: a3 = s1 + 0x5158\n 44565: a2 = u64 [s1 + 0x190]\n 44569: u64 [a3 + 0x30] = a2\n 44572: a2 = u64 [s1 + 0x1d8]\n 44576: u64 [a3 + 0x28] = a2\n 44579: u64 [a3 + 0x40] = a1\n 44582: u64 [a3 + 0x38] = a0\n 44585: a1 = s1 + 0x5180\n 44589: a0 = u64 [s1 + 0x180]\n 44593: ra = 1878, jump @23\n      : @1606 [@dyn 939] (gas: 3)\n 44600: a0 = s1 + 0x3120\n 44604: a1 = u64 [s1 + 0xa8]\n 44608: ra = 1880, jump @17\n      : @1607 [@dyn 940] (gas: 29)\n 44615: a0 = s1 + 0x2958\n 44619: t0 = u64 [a0 + 0x7c8]\n 44623: t1 = u64 [a0 + 0x7d0]\n 44627: t2 = u64 [a0 + 0x7d8]\n 44631: a3 = u64 [a0 + 0x7e0]\n 44635: a0 = u64 [s1 + 0x68]\n 44638: a4 = a0 + 0x5\n 44641: a5 = a4 <u a0\n 44644: a1 = u64 [s1 + 0x70]\n 44647: a0 = a1 + a5\n 44650: a1 = a0 <u a1\n 44653: a1 = a5 if a5 == 0\n 44656: a2 = u64 [s1 + 0x80]\n 44660: a1 = a1 + a2\n 44663: a5 = a1 <u a2\n 44666: a2 = u64 [s1 + 0x78]\n 44669: a5 = a5 + a2\n 44672: a2 = s1 + 0x5158\n 44676: u64 [a2 + 0x60] = a5\n 44679: u64 [a2 + 0x58] = a1\n 44682: u64 [a2 + 0x50] = a0\n 44685: u64 [a2 + 0x48] = a4\n 44688: u64 [a2 + 0x80] = a3\n 44692: u64 [a2 + 0x78] = t2\n 44695: u64 [a2 + 0x70] = t1\n 44698: u64 [a2 + 0x68] = t0\n 44701: a0 = s1 + 0x51a0\n 44705: a1 = s1 + 0x51c0\n 44709: ra = 1882, jump @23\n      : @1608 [@dyn 941] (gas: 3)\n 44716: a0 = s1 + 0x3100\n 44720: a1 = u64 [s1 + 0xa0]\n 44724: ra = 1884, jump @17\n      : @1609 [@dyn 942] (gas: 29)\n 44731: a0 = s1 + 0x2958\n 44735: t0 = u64 [a0 + 0x7a8]\n 44739: t1 = u64 [a0 + 0x7b0]\n 44743: t2 = u64 [a0 + 0x7b8]\n 44747: a3 = u64 [a0 + 0x7c0]\n 44751: a0 = u64 [s1 + 0x68]\n 44754: a4 = a0 + 0x6\n 44757: a5 = a4 <u a0\n 44760: a1 = u64 [s1 + 0x70]\n 44763: a0 = a1 + a5\n 44766: a1 = a0 <u a1\n 44769: a1 = a5 if a5 == 0\n 44772: a2 = u64 [s1 + 0x80]\n 44776: a1 = a1 + a2\n 44779: a5 = a1 <u a2\n 44782: a2 = u64 [s1 + 0x78]\n 44785: a5 = a5 + a2\n 44788: a2 = s1 + 0x5158\n 44792: u64 [a2 + 0xa0] = a5\n 44796: u64 [a2 + 0x98] = a1\n 44800: u64 [a2 + 0x90] = a0\n 44804: u64 [a2 + 0x88] = a4\n 44808: u64 [a2 + 0xc0] = a3\n 44812: u64 [a2 + 0xb8] = t2\n 44816: u64 [a2 + 0xb0] = t1\n 44820: u64 [a2 + 0xa8] = t0\n 44824: a0 = s1 + 0x51e0\n 44828: a1 = s1 + 0x5200\n 44832: ra = 1886, jump @23\n      : @1610 [@dyn 943] (gas: 6)\n 44839: a0 = sp + 0xffffffffffffffe0\n 44842: a5 = a0 & 0xffffffffffffffe0\n 44845: sp = a5\n 44847: a1 = u64 [s1 + 0x68]\n 44850: a0 = a1 + 0x7\n 44853: t0 = 1888, jump @2343\n      : @1611 [@dyn 944] (gas: 9)\n 44859: a1 = a1 + a4\n 44862: u64 [s1 + 0x1d8] = a5\n 44866: u64 [a5 + 0x18] = a1\n 44869: u64 [a5 + 0x10] = a3\n 44872: u64 [a5 + 0x8] = a2\n 44875: u64 [a5] = a0\n 44877: a0 = s1 + 0x30e0\n 44881: a1 = u64 [s1 + 0x88]\n 44885: ra = 1890, jump @17\n      : @1612 [@dyn 945] (gas: 3)\n 44892: a3 = s1 + 0x2958\n 44896: a4 = a3 + 0x700\n 44900: t0 = 1892, jump @2386\n      : @1613 [@dyn 946] (gas: 5)\n 44906: a0 = a0 >u 0\n 44908: u64 [s1 + 0x190] = a0\n 44912: a0 = s1 + 0x30c0\n 44916: a1 = u64 [s1 + 0x1d8]\n 44920: ra = 1894, jump @21\n      : @1614 [@dyn 947] (gas: 17)\n 44927: a3 = s1 + 0x2958\n 44931: a4 = a3 + 0x700\n 44935: a0 = u64 [a4 + 0x68]\n 44938: a1 = u64 [a4 + 0x70]\n 44941: a2 = u64 [a4 + 0x80]\n 44945: a3 = u64 [a4 + 0x78]\n 44948: a0 = a0 & 0xffffffffffffff00\n 44952: a4 = u64 [s1 + 0x190]\n 44956: a0 = a0 | a4\n 44959: a4 = s1 + 0x5158\n 44963: u64 [a4 + 0xe0] = a2\n 44967: u64 [a4 + 0xd8] = a3\n 44971: u64 [a4 + 0xd0] = a1\n 44975: u64 [a4 + 0xc8] = a0\n 44979: a1 = s1 + 0x5220\n 44983: a0 = u64 [s1 + 0x1d8]\n 44987: ra = 1896, jump @23\n      : @1615 [@dyn 948] (gas: 1)\n 44994: t0 = 1898, jump @2401\n      : @1616 [@dyn 949] (gas: 23)\n 45000: a3 = a0 + 0x8\n 45003: a0 = a3 <u a0\n 45006: a1 = u64 [s1 + 0x70]\n 45009: a4 = a1 + a0\n 45012: a1 = a4 <u a1\n 45015: a1 = a0 if a0 == 0\n 45018: a0 = u64 [s1 + 0x80]\n 45022: a1 = a1 + a0\n 45025: a0 = a1 <u a0\n 45028: a5 = u64 [s1 + 0x78]\n 45031: a0 = a0 + a5\n 45034: u64 [s1 + 0x140] = a0\n 45038: u64 [a2 + 0x18] = a0\n 45041: u64 [s1 + 0x138] = a1\n 45045: u64 [a2 + 0x10] = a1\n 45048: u64 [s1 + 0x148] = a4\n 45052: u64 [a2 + 0x8] = a4\n 45055: u64 [s1 + 0xa8] = a2\n 45059: u64 [s1 + 0x150] = a3\n 45063: u64 [a2] = a3\n 45065: a0 = s1 + 0x30a0\n 45069: a1 = u64 [s1 + 0x58]\n 45072: ra = 1900, jump @17\n      : @1617 [@dyn 950] (gas: 3)\n 45079: t0 = 0x76e\n 45083: a1 = s1 + 0x2958\n 45087: fallthrough\n      : @1618 [@dyn 951] (gas: 18)\n 45088: a4 = a1 + 0x700\n 45092: a2 = u64 [a4 + 0x60]\n 45095: a3 = u64 [a4 + 0x58]\n 45098: a0 = u64 [a4 + 0x50]\n 45101: a1 = u64 [a4 + 0x48]\n 45104: a4 = s1 + 0x100\n 45108: u64 [a4 + 0x18] = a0\n 45111: u64 [a4 + 0x10] = a2\n 45114: a0 = a0 | a2\n 45117: u64 [a4 + 0x20] = a1\n 45120: a1 = a1 | a3\n 45123: a1 = a1 | a0\n 45126: a1 = a1 >> 0x20\n 45129: u64 [a4 + 0x8] = a3\n 45132: a0 = a0 | a3\n 45135: a0 = a0 << 0x20\n 45138: a0 = a0 | a1\n 45141: jump @1620 if a0 == 0\n      : @1619 (gas: 1)\n 45144: jump @1318\n      : @1620 (gas: 3)\n 45147: a0 = s1 + 0x3080\n 45151: a1 = u64 [s1 + 0x120]\n 45155: ra = 1904, jump @17\n      : @1621 [@dyn 952] (gas: 6)\n 45162: a0 = s1 + 0x2958\n 45166: a4 = a0 + 0x700\n 45170: a3 = u64 [a4 + 0x40]\n 45173: a1 = u64 [a4 + 0x38]\n 45176: a2 = u64 [a4 + 0x30]\n 45179: t0 = 1906, jump @2377\n      : @1622 [@dyn 953] (gas: 8)\n 45185: u64 [s1 + 0xb0] = a1\n 45189: u64 [a5 + 0x28] = a3\n 45192: a1 = a1 | a3\n 45195: u64 [s1 + 0x90] = a0\n 45199: u64 [s1 + 0x98] = a4\n 45203: u64 [a5] = a1\n 45205: a0 = a4 if a1 != 0\n 45208: jump @1624 if a0 == 0\n      : @1623 (gas: 1)\n 45211: jump @1889\n      : @1624 (gas: 6)\n 45214: a0 = s1 + 0x2958\n 45218: a0 = u64 [a0 + 0x728]\n 45222: u64 [s1 + 0xc0] = a0\n 45226: a0 = s1 + 0x3060\n 45230: a1 = u64 [s1 + 0xa8]\n 45234: ra = 1908, jump @21\n      : @1625 [@dyn 954] (gas: 14)\n 45241: a4 = s1 + 0x2958\n 45245: a5 = a4 + 0x700\n 45249: a2 = u64 [a5 + 0x8]\n 45252: a0 = u64 [a5 + 0x10]\n 45255: a1 = u64 [a5 + 0x18]\n 45258: a3 = u64 [a5 + 0x20]\n 45261: a5 = a4 + 0x600\n 45265: u64 [a5 + 0xe0] = a3\n 45269: u64 [a5 + 0xd8] = a1\n 45273: u64 [a5 + 0xd0] = a0\n 45277: a0 = s1 + 0x3040\n 45281: a1 = s1 + 0x3020\n 45285: u64 [a5 + 0xc8] = a2\n 45289: ra = 1910, jump @2009\n      : @1626 [@dyn 955] (gas: 23)\n 45295: a0 = s1 + 0x2958\n 45299: a3 = u64 [a0 + 0x700]\n 45303: a1 = a0 + 0x600\n 45307: a4 = u64 [a1 + 0xf8]\n 45311: a5 = u64 [a1 + 0xf0]\n 45315: a2 = u64 [a1 + 0xe8]\n 45319: a0 = a3 >u 0\n 45321: a1 = a4 >u 0\n 45323: a1 = a0 if a3 != 0\n 45326: a0 = a5 >u 0\n 45328: u64 [s1 + 0x180] = a2\n 45332: a2 = a2 <u 0x20\n 45335: a2 = a2 ^ 0x1\n 45338: u64 [s1 + 0x188] = a5\n 45342: a2 = a0 if a5 != 0\n 45345: u64 [s1 + 0x160] = a3\n 45349: u64 [s1 + 0x178] = a4\n 45353: a0 = a4 | a3\n 45356: a2 = a1 if a0 != 0\n 45359: a0 = u64 [s1 + 0xc0]\n 45363: a0 = a0 <u 0x20\n 45366: u64 [s1 + 0xa0] = a0\n 45370: jump @1635 if a2 == 0\n      : @1627 (gas: 14)\n 45374: a0 = s1 + 0x2958\n 45378: a3 = s1 + 0x100\n 45382: a1 = u64 [a3 + 0x50]\n 45385: a4 = a0 + 0x600\n 45389: u64 [a4 + 0xa8] = a1\n 45393: a1 = u64 [a3 + 0x48]\n 45396: u64 [a4 + 0xb0] = a1\n 45400: a1 = u64 [a3 + 0x38]\n 45403: u64 [a4 + 0xb8] = a1\n 45407: a1 = s1 + 0x3000\n 45411: a2 = u64 [a3 + 0x40]\n 45414: u64 [a4 + 0xc0] = a2\n 45418: a0 = 0\n 45420: ra = 1912, jump @19\n      : @1628 [@dyn 956] (gas: 3)\n 45427: a0 = u64 [s1 + 0xf8]\n 45431: a0 = i32 [a0]\n 45433: jump @1630 if a0 >u 31\n      : @1629 (gas: 3)\n 45437: a1 = u64 [s1 + 0xf8]\n 45441: u32 [a1 + 0] = 0x20\n 45444: fallthrough\n      : @1630 (gas: 84)\n 45445: a0 = sp + 0xffffffffffffffe0\n 45448: a0 = a0 & 0xffffffffffffffe0\n 45451: u64 [s1 + 0x158] = a0\n 45455: sp = a0\n 45457: i32 a2 = a0 + 0\n 45459: a1 = 0x20\n 45462: a0 = u64 [s1 + 0xf0]\n 45466: ecalli 6 // 'hash_keccak_256'\n 45468: a0 = u64 [s1 + 0xc0]\n 45472: a1 = a0 + 0x1f\n 45475: a0 = a1 <u a0\n 45478: a5 = u64 [s1 + 0x130]\n 45482: a2 = a5 + a0\n 45485: a3 = a2 <u a5\n 45488: a3 = a0 if a0 == 0\n 45491: t0 = u64 [s1 + 0xb0]\n 45495: t0 = t0 + a3\n 45498: a3 = t0 << 0x3b\n 45501: a4 = a2 >> 0x5\n 45504: a4 = a4 | a3\n 45507: a0 = u64 [s1 + 0x158]\n 45511: t1 = u64 [a0 + 0x18]\n 45514: a2 = a2 << 0x3b\n 45517: a3 = u64 [a0 + 0x10]\n 45520: a1 = a1 >> 0x5\n 45523: a0 = a1 | a2\n 45526: t2 = reverse t1\n 45528: a2 = reverse a3\n 45530: a1 = u64 [s1 + 0xa0]\n 45534: a1 = 0 if a5 != 0\n 45536: a3 = u64 [s1 + 0x100]\n 45540: a1 = 0 if a3 != 0\n 45542: a4 = 0 if a1 != 0\n 45544: a0 = 0 if a1 != 0\n 45546: a0 = a0 + t2\n 45549: u64 [s1 + 0x1d8] = a0\n 45553: a0 = a0 <u t2\n 45556: a5 = a2 + a0\n 45559: a4 = a4 + a5\n 45562: a5 = a4 ^ a2\n 45565: u64 [s1 + 0x190] = a4\n 45569: a3 = a4 <u a2\n 45572: a3 = a0 if a5 == 0\n 45575: u64 [s1 + 0x88] = a3\n 45579: a0 = u64 [s1 + 0x180]\n 45583: ra = a0 + 0x1f\n 45586: a4 = ra <u a0\n 45589: a3 = u64 [s1 + 0x188]\n 45593: a0 = a3 + a4\n 45596: a5 = a0 <u a3\n 45599: a5 = a4 if a4 == 0\n 45602: t1 = u64 [s1 + 0x178]\n 45606: t1 = t1 + a5\n 45609: a4 = t1 << 0x3b\n 45612: a3 = a0 >> 0x5\n 45615: a3 = a3 | a4\n 45618: a0 = a0 << 0x3b\n 45621: a4 = ra >> 0x5\n 45624: a0 = a0 | a4\n 45627: a0 = a0 + t2\n 45630: u64 [s1 + 0x170] = a0\n 45634: a0 = a0 <u t2\n 45637: a4 = a2 + a0\n 45640: a4 = a4 + a3\n 45643: a3 = a4 ^ a2\n 45646: u64 [s1 + 0x168] = a4\n 45650: a2 = a4 <u a2\n 45653: a2 = a0 if a3 == 0\n 45656: a0 = u64 [s1 + 0xb0]\n 45660: a0 = t0 <u a0\n 45663: a3 = u64 [s1 + 0x128]\n 45667: a0 = a0 + a3\n 45670: a3 = t0 >> 0x5\n 45673: a4 = a0 << 0x3b\n 45676: a3 = a3 | a4\n 45679: a4 = u64 [s1 + 0x158]\n 45683: t0 = u64 [a4]\n 45685: a4 = u64 [a4 + 0x8]\n 45688: a0 = a0 >> 0x5\n 45691: a3 = 0 if a1 != 0\n 45693: a0 = 0 if a1 != 0\n 45695: a1 = reverse a4\n 45697: a4 = reverse t0\n 45699: t0 = 1914, jump @2388\n      : @1631 [@dyn 957] (gas: 29)\n 45705: a5 = u64 [s1 + 0x88]\n 45709: a5 = a5 + a3\n 45712: u64 [s1 + 0x180] = a5\n 45716: a3 = a5 <u a3\n 45719: a0 = a0 + a3\n 45722: u64 [s1 + 0x188] = a0\n 45726: a0 = u64 [s1 + 0x178]\n 45730: a0 = t1 <u a0\n 45733: a3 = u64 [s1 + 0x160]\n 45737: a0 = a0 + a3\n 45740: a3 = t1 >> 0x5\n 45743: a5 = a0 << 0x3b\n 45746: a3 = a3 | a5\n 45749: a0 = a0 >> 0x5\n 45752: a0 = a0 + a4\n 45755: a3 = a3 + a1\n 45758: a1 = a3 <u a1\n 45761: a0 = a0 + a1\n 45764: a2 = a2 + a3\n 45767: a4 = s1 + 0x100\n 45771: u64 [a4 + 0x60] = a2\n 45774: a1 = a2 <u a3\n 45777: a0 = a0 + a1\n 45780: u64 [a4 + 0x58] = a0\n 45783: a0 = sp + 0xffffffffffffffe0\n 45786: a0 = a0 & 0xffffffffffffffe0\n 45789: u64 [a4 + 0x78] = a0\n 45792: sp = a0\n 45794: fallthrough\n      : @1632 (gas: 25)\n 45795: t0 = u64 [s1 + 0x1d8]\n 45799: a0 = u64 [s1 + 0x170]\n 45803: a0 = t0 <u a0\n 45806: a5 = u64 [s1 + 0x190]\n 45810: a2 = u64 [s1 + 0x168]\n 45814: a1 = a5 ^ a2\n 45817: a2 = a5 <u a2\n 45820: a2 = a0 if a1 == 0\n 45823: a1 = u64 [s1 + 0x180]\n 45827: a0 = u64 [s1 + 0x160]\n 45831: t2 = a1 <u a0\n 45834: a4 = u64 [s1 + 0x188]\n 45838: a3 = u64 [s1 + 0x158]\n 45842: t1 = a4 ^ a3\n 45845: a3 = a4 <u a3\n 45848: a3 = t2 if t1 == 0\n 45851: a0 = a0 ^ a1\n 45854: a0 = a0 | t1\n 45857: a3 = a2 if a0 == 0\n 45860: a0 = u64 [s1 + 0x178]\n 45864: u64 [a0] = t0\n 45866: u64 [a0 + 0x8] = a5\n 45869: u64 [a0 + 0x10] = a1\n 45872: u64 [a0 + 0x18] = a4\n 45875: jump @1635 if a3 == 0\n      : @1633 (gas: 8)\n 45878: a0 = s1 + 0x5158\n 45882: u64 [a0 + 256] = 0\n 45886: u64 [a0 + 248] = 0\n 45890: u64 [a0 + 240] = 0\n 45894: u64 [a0 + 232] = 0\n 45898: a1 = s1 + 0x5240\n 45902: a0 = u64 [s1 + 0x178]\n 45906: ra = 1916, jump @23\n      : @1634 [@dyn 958] (gas: 18)\n 45913: a3 = s1 + 0x100\n 45917: a1 = u64 [a3 + 0xd8]\n 45921: a1 = a1 + 0x1\n 45924: a0 = a1 <u 0x1\n 45927: a2 = u64 [a3 + 0x90]\n 45931: a2 = a2 + a0\n 45934: u64 [a3 + 0xd8] = a1\n 45938: u64 [a3 + 0x90] = a2\n 45942: a0 = a1 | a2\n 45945: a0 = a0 <u 0x1\n 45948: a1 = u64 [a3 + 0x80]\n 45952: a0 = a0 + a1\n 45955: a1 = a0 <u a1\n 45958: a2 = u64 [a3 + 0x88]\n 45962: a2 = a2 + a1\n 45965: u64 [a3 + 0x88] = a2\n 45969: u64 [a3 + 0x80] = a0\n 45973: jump @1632\n      : @1635 (gas: 29)\n 45976: a0 = u64 [s1 + 0xa0]\n 45980: a0 = a0 ^ 0x1\n 45983: a5 = s1 + 0x100\n 45987: a3 = u64 [a5 + 0x30]\n 45990: a1 = u64 [s1 + 0x90]\n 45994: a0 = a1 if a3 != 0\n 45997: a1 = u64 [s1 + 0x98]\n 46001: a2 = u64 [a5]\n 46003: a0 = a1 if a2 != 0\n 46006: a4 = u64 [a5 + 0x28]\n 46009: a1 = a3 | a4\n 46012: u64 [s1 + 0xa0] = a1\n 46016: a1 = u64 [s1 + 0xb0]\n 46020: a2 = a1 >> 0x3f\n 46023: u64 [s1 + 0x90] = a2\n 46027: a2 = a4 << 0x1\n 46030: u64 [s1 + 0x88] = a2\n 46034: a2 = a3 >> 0x3f\n 46037: u64 [s1 + 0x78] = a2\n 46040: a1 = a1 << 0x1\n 46043: u64 [s1 + 0x68] = a1\n 46046: a1 = u64 [s1 + 0xc0]\n 46050: a2 = a1 >> 0x3f\n 46053: u64 [s1 + 0x80] = a2\n 46057: a2 = a3 << 0x1\n 46060: u64 [s1 + 0x70] = a2\n 46063: a1 = a1 << 0x1\n 46066: u64 [s1 + 0x98] = a1\n 46070: jump @1717 if a0 == 0\n      : @1636 (gas: 16)\n 46074: a0 = u64 [s1 + 0xc0]\n 46078: a0 = a0 & 0xffffffffffffffe0\n 46081: u64 [s1 + 0x100] = a0\n 46085: a0 = s1 + 0x2958\n 46089: a1 = u64 [s1 + 0x150]\n 46093: a3 = a0 + 0x600\n 46097: u64 [a3 + 0x68] = a1\n 46100: a1 = u64 [s1 + 0x148]\n 46104: u64 [a3 + 0x70] = a1\n 46107: a1 = u64 [s1 + 0x138]\n 46111: u64 [a3 + 0x78] = a1\n 46114: a1 = s1 + 0x2fc0\n 46118: a2 = u64 [s1 + 0x140]\n 46122: u64 [a3 + 0x80] = a2\n 46126: a0 = 0\n 46128: ra = 1918, jump @19\n      : @1637 [@dyn 959] (gas: 1)\n 46135: t0 = 1920, jump @2357\n      : @1638 [@dyn 960] (gas: 1)\n 46141: ra = 1922, jump @32\n      : @1639 [@dyn 961] (gas: 4)\n 46148: a1 = sp + 0xffffffffffffffe0\n 46151: a1 = a1 & 0xffffffffffffffe0\n 46154: u64 [s1 + 0x150] = a1\n 46158: t0 = 1924, jump @2336\n      : @1640 [@dyn 962] (gas: 4)\n 46164: ra = 0x786\n 46168: ecalli 6 // 'hash_keccak_256'\n 46170: t0 = 0x788\n 46174: jump @2282\n      : @1641 [@dyn 963] (gas: 1)\n 46177: t0 = 1928, jump @2282\n      : @1642 [@dyn 964] (gas: 1)\n 46183: t0 = 1930, jump @2278\n      : @1643 [@dyn 965] (gas: 1)\n 46189: jump @1729 if a4 != 0\n      : @1644 (gas: 1)\n 46193: t0 = 1932, jump @2353\n      : @1645 [@dyn 966] (gas: 10)\n 46199: t0 = a3 ^ a5\n 46202: a5 = a3 <u a5\n 46205: a5 = a4 if t0 == 0\n 46208: a5 = a5 + a2\n 46211: t0 = a5 <u a2\n 46214: a4 = u64 [s1 + 0x190]\n 46218: a2 = a2 <u a4\n 46221: a0 = a0 + a2\n 46224: a0 = a0 + t0\n 46227: t0 = 1934, jump @2277\n      : @1646 [@dyn 967] (gas: 1)\n 46233: jump @1648 if a0 == 0\n      : @1647 (gas: 1)\n 46236: jump @1318\n      : @1648 (gas: 2)\n 46239: a0 = s1 + 0x2a40\n 46243: ra = 1936, jump @17\n      : @1649 [@dyn 968] (gas: 14)\n 46250: a3 = s1 + 0x2958\n 46254: a0 = u64 [a3 + 0x100]\n 46258: a1 = u64 [a3 + 0xf8]\n 46262: a2 = u64 [a3 + 0xf0]\n 46266: a3 = u64 [a3 + 0xe8]\n 46270: a4 = s1 + 0x5158\n 46274: a5 = a4 + 0x100\n 46278: u64 [a5 + 0x20] = a0\n 46281: u64 [a5 + 0x18] = a1\n 46284: u64 [a5 + 0x10] = a2\n 46287: u64 [a5 + 0x8] = a3\n 46290: a1 = s1 + 0x5260\n 46294: a0 = u64 [s1 + 0x158]\n 46298: ra = 1938, jump @23\n      : @1650 [@dyn 969] (gas: 45)\n 46305: ra = u64 [s1 + 0x150]\n 46309: ra = ra + 0x1\n 46312: a0 = ra <u 0x1\n 46315: t0 = u64 [s1 + 0x148]\n 46319: t0 = t0 + a0\n 46322: a0 = ra | t0\n 46325: a0 = a0 <u 0x1\n 46328: a1 = u64 [s1 + 0x138]\n 46332: t1 = a1 + a0\n 46335: a1 = t1 <u a1\n 46338: a0 = u64 [s1 + 0x140]\n 46342: a0 = a0 + a1\n 46345: a1 = u64 [s1 + 0x1d8]\n 46349: a2 = a1 + 0x20\n 46352: u64 [s1 + 0x130] = a2\n 46356: a3 = a2 <u a1\n 46359: a1 = u64 [s1 + 0x188]\n 46363: a2 = a1 + a3\n 46366: u64 [s1 + 0x128] = a2\n 46370: a4 = a2 <u a1\n 46373: a4 = a3 if a3 == 0\n 46376: a1 = u64 [s1 + 0x190]\n 46380: t2 = a1 + a4\n 46383: a4 = t2 <u a1\n 46386: a1 = u64 [s1 + 0x180]\n 46390: a1 = a1 + a4\n 46393: u64 [s1 + 0x180] = a1\n 46397: a1 = u64 [s1 + 0x168]\n 46401: a4 = a1 + 0x20\n 46404: a5 = a4 <u a1\n 46407: a2 = u64 [s1 + 0x160]\n 46411: a1 = a2 + a5\n 46414: a2 = a1 <u a2\n 46417: a2 = a5 if a5 == 0\n 46420: a3 = u64 [s1 + 0x170]\n 46424: a2 = a2 + a3\n 46427: a5 = a2 <u a3\n 46430: a3 = u64 [s1 + 0x178]\n 46434: a3 = a3 + a5\n 46437: a5 = s1 + 0x100\n 46441: u64 [a5 + 0x78] = a3\n 46444: u64 [s1 + 0x148] = t0\n 46448: a3 = u64 [a5 + 0x58]\n 46451: u64 [a3 + 0x8] = t0\n 46454: t0 = 1940, jump @2318\n      : @1651 [@dyn 970] (gas: 1)\n 46460: jump @1642\n      : @1652 (gas: 4)\n 46463: a1 = 0x201b0\n 46468: i32 a1 = a1 + 0\n 46470: a0 = 0x1\n 46473: jump @1728\n      : @1653 (gas: 4)\n 46476: a1 = 0x201b0\n 46481: i32 a1 = a1 + 0\n 46483: a0 = 0x1\n 46486: jump @1728\n      : @1654 (gas: 4)\n 46489: a1 = 0x201b0\n 46494: i32 a1 = a1 + 0\n 46496: a0 = 0x1\n 46499: jump @1728\n      : @1655 (gas: 4)\n 46502: a1 = 0x201b0\n 46507: i32 a1 = a1 + 0\n 46509: a0 = 0x1\n 46512: jump @1728\n      : @1656 (gas: 4)\n 46515: a1 = 0x201b0\n 46520: i32 a1 = a1 + 0\n 46522: a0 = 0x1\n 46525: jump @1728\n      : @1657 (gas: 4)\n 46528: a1 = 0x201b0\n 46533: i32 a1 = a1 + 0\n 46535: a0 = 0x1\n 46538: jump @1728\n      : @1658 (gas: 4)\n 46541: a1 = 0x201b0\n 46546: i32 a1 = a1 + 0\n 46548: a0 = 0x1\n 46551: jump @1728\n      : @1659 (gas: 4)\n 46554: a1 = 0x201b0\n 46559: i32 a1 = a1 + 0\n 46561: a0 = 0x1\n 46564: jump @1728\n      : @1660 (gas: 4)\n 46567: a1 = 0x201b0\n 46572: i32 a1 = a1 + 0\n 46574: a0 = 0x1\n 46577: jump @1728\n      : @1661 (gas: 4)\n 46580: a1 = 0x201b0\n 46585: i32 a1 = a1 + 0\n 46587: a0 = 0x1\n 46590: jump @1728\n      : @1662 (gas: 4)\n 46593: a1 = 0x201b0\n 46598: i32 a1 = a1 + 0\n 46600: a0 = 0x1\n 46603: jump @1728\n      : @1663 (gas: 13)\n 46606: a0 = s1 + 0x1000\n 46610: u64 [a0 + 4294965392] = 0\n 46614: a0 = s1 + 0x1000\n 46618: u64 [a0 + 4294965384] = 0\n 46622: a0 = 0x8c379a000000000\n 46632: a1 = s1 + 0x1000\n 46636: u64 [a1 + 0xfffffffffffff898] = a0\n 46640: a0 = 0x80\n 46644: a1 = s1 + 0x7ff\n 46648: a1 = a1 + 0x81\n 46652: a2 = s1 + 0x1000\n 46656: u64 [a2 + 4294965376] = 0\n 46660: ra = 1942, jump @19\n      : @1664 [@dyn 971] (gas: 12)\n 46667: a0 = s1 + 0x1000\n 46671: u64 [a0 + 4294965368] = 0\n 46675: a0 = s1 + 0x1000\n 46679: u64 [a0 + 4294965360] = 0\n 46683: a1 = s1 + 0x1000\n 46687: u64 [a1 + 4294965344] = 0x20\n 46692: a0 = 0x84\n 46696: a1 = s1 + 0x7ff\n 46700: a1 = a1 + 0x61\n 46703: a2 = s1 + 0x1000\n 46707: u64 [a2 + 4294965352] = 0\n 46711: ra = 1944, jump @19\n      : @1665 [@dyn 972] (gas: 12)\n 46718: a0 = s1 + 0x1000\n 46722: u64 [a0 + 4294965336] = 0\n 46726: a0 = s1 + 0x1000\n 46730: u64 [a0 + 4294965328] = 0\n 46734: a1 = s1 + 0x1000\n 46738: u64 [a1 + 4294965312] = 0x13\n 46743: a0 = 0xa4\n 46747: a1 = s1 + 0x7ff\n 46751: a1 = a1 + 0x41\n 46754: a2 = s1 + 0x1000\n 46758: u64 [a2 + 4294965320] = 0\n 46762: ra = 1946, jump @19\n      : @1666 [@dyn 973] (gas: 15)\n 46769: a0 = u64 [0x20178]\n 46774: a1 = u64 [0x20180]\n 46779: a2 = s1 + 0x1000\n 46783: u64 [a2 + 0xfffffffffffff838] = a0\n 46787: a0 = s1 + 0x1000\n 46791: u64 [a0 + 0xfffffffffffff830] = a1\n 46795: a0 = 0x6e64730000000000\n 46805: a1 = s1 + 0x1000\n 46809: u64 [a1 + 0xfffffffffffff828] = a0\n 46813: a0 = 0xc4\n 46817: a1 = s1 + 0x7ff\n 46821: a1 = a1 + 0x21\n 46824: a2 = s1 + 0x1000\n 46828: u64 [a2 + 4294965280] = 0\n 46832: ra = 1948, jump @19\n      : @1667 [@dyn 974] (gas: 2)\n 46839: a1 = i32 [0x201a4]\n 46844: jump @1669 if a1 >u 255\n      : @1668 (gas: 4)\n 46849: u32 [0x201a4] = 0x100\n 46856: a0 = 0x201b0\n 46861: i32 a1 = a0 + 0x80\n 46865: jump @1670\n      : @1669 (gas: 3)\n 46867: a0 = 0x201b0\n 46872: i32 a1 = a0 + 0x80\n 46876: fallthrough\n      : @1670 (gas: 4)\n 46877: a0 = 0x1\n 46880: a2 = 0x64\n 46883: ecalli 8 // 'seal_return'\n 46885: fallthrough\n      : @1671 (gas: 6)\n 46886: u64 [s1 + 2032] = 0\n 46890: u64 [s1 + 2024] = 0\n 46894: u64 [s1 + 2016] = 0\n 46898: t0 = 0x79e\n 46902: a0 = 0x4e487b7100000000\n 46912: fallthrough\n      : @1672 [@dyn 975] (gas: 4)\n 46913: a1 = s1 + 0x7e0\n 46917: u64 [s1 + 0x7f8] = a0\n 46921: a0 = 0\n 46923: ra = 1952, jump @19\n      : @1673 [@dyn 976] (gas: 7)\n 46930: u64 [s1 + 2008] = 0\n 46934: u64 [s1 + 2000] = 0\n 46938: u64 [s1 + 1984] = 0x32\n 46943: a0 = 0x4\n 46946: a1 = s1 + 0x7c0\n 46950: u64 [s1 + 1992] = 0\n 46954: ra = 1954, jump @19\n      : @1674 [@dyn 977] (gas: 2)\n 46961: a1 = i32 [0x201a4]\n 46966: jump @1676 if a1 >u 63\n      : @1675 (gas: 3)\n 46970: u32 [0x201a4] = 0x40\n 46976: a1 = 0x201b0\n 46981: jump @1677\n      : @1676 (gas: 2)\n 46983: a1 = 0x201b0\n 46988: fallthrough\n      : @1677 (gas: 5)\n 46989: i32 a1 = a1 + 0\n 46991: a0 = 0x1\n 46994: a2 = 0x24\n 46997: ecalli 8 // 'seal_return'\n 46999: fallthrough\n      : @1678 (gas: 4)\n 47000: a1 = 0x201b0\n 47005: i32 a1 = a1 + 0\n 47007: a0 = 0x1\n 47010: jump @1728\n      : @1679 (gas: 4)\n 47013: a1 = 0x201b0\n 47018: i32 a1 = a1 + 0\n 47020: a0 = 0x1\n 47023: jump @1728\n      : @1680 (gas: 4)\n 47026: a1 = 0x201b0\n 47031: i32 a1 = a1 + 0\n 47033: a0 = 0x1\n 47036: jump @1728\n      : @1681 (gas: 4)\n 47039: a1 = 0x201b0\n 47044: i32 a1 = a1 + 0\n 47046: a0 = 0x1\n 47049: jump @1728\n      : @1682 (gas: 4)\n 47052: a1 = 0x201b0\n 47057: i32 a1 = a1 + 0\n 47059: a0 = 0x1\n 47062: jump @1728\n      : @1683 (gas: 4)\n 47065: a1 = 0x201b0\n 47070: i32 a1 = a1 + 0\n 47072: a0 = 0x1\n 47075: jump @1728\n      : @1684 (gas: 8)\n 47078: u64 [a3 + 632] = 0\n 47082: u64 [a3 + 624] = 0\n 47086: a0 = 0x8dfc202b00000000\n 47096: u64 [a3 + 0x280] = a0\n 47100: a1 = s1 + 0x13c0\n 47104: u64 [a3 + 616] = 0\n 47108: a0 = 0\n 47110: ra = 1956, jump @19\n      : @1685 [@dyn 978] (gas: 2)\n 47117: a1 = i32 [0x201a4]\n 47122: jump @1687 if a1 >u 31\n      : @1686 (gas: 2)\n 47126: u32 [0x201a4] = 0x20\n 47132: fallthrough\n      : @1687 (gas: 6)\n 47133: a1 = 0x201b0\n 47138: i32 a1 = a1 + 0\n 47140: a0 = 0x1\n 47143: a2 = 0x4\n 47146: ecalli 8 // 'seal_return'\n 47148: fallthrough\n      : @1688 (gas: 1)\n 47149: jump @1720 if a0 != 4076725131\n      : @1689 (gas: 9)\n 47157: a0 = s1 + 0x5158\n 47161: u64 [a0 + 1024] = 0\n 47165: u64 [a0 + 1016] = 0\n 47169: u64 [a0 + 1008] = 0\n 47173: u64 [a0 + 1000] = 0\n 47177: a0 = s1 + 0x5000\n 47181: i32 a0 = a0 + 0x540\n 47185: ecalli 11 // 'value_transferred'\n 47187: fallthrough\n      : @1690 (gas: 10)\n 47188: a3 = s1 + 0x5158\n 47192: a4 = a3 + 0x300\n 47196: a0 = u64 [a4 + 0xf8]\n 47200: a1 = u64 [a3 + 0x400]\n 47204: a2 = u64 [a4 + 0xf0]\n 47208: a3 = u64 [a4 + 0xe8]\n 47212: a1 = a1 | a2\n 47215: a0 = a0 | a3\n 47218: a0 = a0 | a1\n 47221: jump @1692 if a0 != 0\n      : @1691 (gas: 1)\n 47224: jump @1843\n      : @1692 (gas: 4)\n 47227: a1 = 0x201b0\n 47232: i32 a1 = a1 + 0\n 47234: a0 = 0x1\n 47237: jump @1728\n      : @1693 (gas: 4)\n 47240: a1 = 0x201b0\n 47245: i32 a1 = a1 + 0\n 47247: a0 = 0x1\n 47250: jump @1728\n      : @1694 (gas: 4)\n 47253: a1 = 0x201b0\n 47258: i32 a1 = a1 + 0\n 47260: a0 = 0x1\n 47263: jump @1728\n      : @1695 (gas: 4)\n 47266: a1 = 0x201b0\n 47271: i32 a1 = a1 + 0\n 47273: a0 = 0x1\n 47276: jump @1728\n      : @1696 (gas: 4)\n 47279: a1 = 0x201b0\n 47284: i32 a1 = a1 + 0\n 47286: a0 = 0x1\n 47289: jump @1728\n      : @1697 (gas: 4)\n 47292: a1 = 0x201b0\n 47297: i32 a1 = a1 + 0\n 47299: a0 = 0x1\n 47302: jump @1728\n      : @1698 (gas: 4)\n 47305: a1 = 0x201b0\n 47310: i32 a1 = a1 + 0\n 47312: a0 = 0x1\n 47315: jump @1728\n      : @1699 (gas: 4)\n 47318: a1 = 0x201b0\n 47323: i32 a1 = a1 + 0\n 47325: a0 = 0x1\n 47328: jump @1728\n      : @1700 (gas: 4)\n 47331: a1 = 0x201b0\n 47336: i32 a1 = a1 + 0\n 47338: a0 = 0x1\n 47341: jump @1728\n      : @1701 (gas: 4)\n 47344: a1 = 0x201b0\n 47349: i32 a1 = a1 + 0\n 47351: a0 = 0x1\n 47354: jump @1728\n      : @1702 (gas: 4)\n 47357: a1 = 0x201b0\n 47362: i32 a1 = a1 + 0\n 47364: a0 = 0x1\n 47367: jump @1728\n      : @1703 (gas: 4)\n 47370: a1 = 0x201b0\n 47375: i32 a1 = a1 + 0\n 47377: a0 = 0x1\n 47380: jump @1728\n      : @1704 (gas: 4)\n 47383: a1 = 0x201b0\n 47388: i32 a1 = a1 + 0\n 47390: a0 = 0x1\n 47393: jump @1728\n      : @1705 (gas: 4)\n 47396: a1 = 0x201b0\n 47401: i32 a1 = a1 + 0\n 47403: a0 = 0x1\n 47406: jump @1728\n      : @1706 (gas: 4)\n 47409: a1 = 0x201b0\n 47414: i32 a1 = a1 + 0\n 47416: a0 = 0x1\n 47419: jump @1728\n      : @1707 (gas: 4)\n 47422: a1 = 0x201b0\n 47427: i32 a1 = a1 + 0\n 47429: a0 = 0x1\n 47432: jump @1728\n      : @1708 (gas: 4)\n 47435: a1 = 0x201b0\n 47440: i32 a1 = a1 + 0\n 47442: a0 = 0x1\n 47445: jump @1728\n      : @1709 (gas: 4)\n 47448: a1 = 0x201b0\n 47453: i32 a1 = a1 + 0\n 47455: a0 = 0x1\n 47458: jump @1728\n      : @1710 (gas: 4)\n 47461: a1 = 0x201b0\n 47466: i32 a1 = a1 + 0\n 47468: a0 = 0x1\n 47471: jump @1728\n      : @1711 (gas: 4)\n 47474: a1 = 0x201b0\n 47479: i32 a1 = a1 + 0\n 47481: a0 = 0x1\n 47484: jump @1728\n      : @1712 (gas: 4)\n 47487: a1 = 0x201b0\n 47492: i32 a1 = a1 + 0\n 47494: a0 = 0x1\n 47497: jump @1728\n      : @1713 (gas: 4)\n 47500: a1 = 0x201b0\n 47505: i32 a1 = a1 + 0\n 47507: a0 = 0x1\n 47510: jump @1728\n      : @1714 (gas: 4)\n 47513: a1 = 0x201b0\n 47518: i32 a1 = a1 + 0\n 47520: a0 = 0x1\n 47523: jump @1728\n      : @1715 (gas: 4)\n 47526: a1 = 0x201b0\n 47531: i32 a1 = a1 + 0\n 47533: a0 = 0x1\n 47536: jump @1728\n      : @1716 (gas: 4)\n 47539: a1 = 0x201b0\n 47544: i32 a1 = a1 + 0\n 47546: a0 = 0x1\n 47549: jump @1728\n      : @1717 (gas: 6)\n 47552: a0 = u64 [s1 + 0xc0]\n 47556: a1 = u64 [s1 + 0xb0]\n 47560: a0 = a0 | a1\n 47563: a1 = u64 [s1 + 0xa0]\n 47567: a0 = a0 | a1\n 47570: jump @1744 if a0 != 0\n      : @1718 (gas: 1)\n 47574: t0 = 1958, jump @2315\n      : @1719 [@dyn 979] (gas: 1)\n 47580: jump @1749\n      : @1720 (gas: 1)\n 47583: jump @1726 if a0 != 1901074598\n      : @1721 (gas: 12)\n 47590: a0 = s1 + 0x4958\n 47594: u64 [a0 + 800] = 0\n 47598: u64 [a0 + 792] = 0\n 47602: u64 [a0 + 784] = 0\n 47606: u64 [a0 + 776] = 0\n 47610: a0 = s1 + 0x5000\n 47614: i32 a0 = a0 + 0xfffffffffffffc60\n 47618: ra = 0x7a8\n 47622: ecalli 11 // 'value_transferred'\n 47624: a0 = 0x4958\n 47628: t0 = 0x7aa\n 47632: jump @2375\n      : @1722 [@dyn 980] (gas: 2)\n 47635: a0 = 0x4958\n 47639: t0 = 1962, jump @2375\n      : @1723 [@dyn 981] (gas: 1)\n 47645: jump @1725 if a0 != 0\n      : @1724 (gas: 1)\n 47648: jump @1845\n      : @1725 (gas: 4)\n 47651: a1 = 0x201b0\n 47656: i32 a1 = a1 + 0\n 47658: a0 = 0x1\n 47661: jump @1728\n      : @1726 (gas: 4)\n 47663: a1 = 0x201b0\n 47668: i32 a1 = a1 + 0\n 47670: a0 = 0x1\n 47673: jump @1728\n      : @1727 (gas: 6)\n 47675: i32 a1 = a1 + 0\n 47677: a0 = 0x1\n 47680: a2 = 0\n 47682: ra = 0x7ac\n 47686: ecalli 8 // 'seal_return'\n 47688: jump @1729\n      : @1728 (gas: 4)\n 47690: a2 = 0\n 47692: ra = 0x7ac\n 47696: ecalli 8 // 'seal_return'\n 47698: fallthrough\n      : @1729 [@dyn 982] (gas: 8)\n 47699: a4 = u64 [s1 + 0xc0]\n 47703: a5 = u64 [s1 + 0x100]\n 47707: a4 = a4 ^ a5\n 47710: a5 = u64 [s1 + 0xb0]\n 47714: a4 = a4 | a5\n 47717: a5 = u64 [s1 + 0xa0]\n 47721: a4 = a4 | a5\n 47724: jump @1743 if a4 == 0\n      : @1730 (gas: 1)\n 47728: t0 = 1966, jump @2353\n      : @1731 [@dyn 983] (gas: 10)\n 47734: t0 = a3 ^ a5\n 47737: a5 = a3 <u a5\n 47740: a5 = a4 if t0 == 0\n 47743: a5 = a5 + a2\n 47746: t0 = a5 <u a2\n 47749: a4 = u64 [s1 + 0x190]\n 47753: a2 = a2 <u a4\n 47756: a0 = a0 + a2\n 47759: a0 = a0 + t0\n 47762: t0 = 1968, jump @2277\n      : @1732 [@dyn 984] (gas: 1)\n 47768: jump @1734 if a0 == 0\n      : @1733 (gas: 1)\n 47771: jump @1318\n      : @1734 (gas: 2)\n 47774: a0 = s1 + 0x2fa0\n 47778: ra = 1970, jump @17\n      : @1735 [@dyn 985] (gas: 3)\n 47785: a0 = s1 + 0x2958\n 47789: a2 = a0 + 0x600\n 47793: t0 = 1972, jump @2363\n      : @1736 [@dyn 986] (gas: 2)\n 47799: a0 = u64 [s1 + 0xc0]\n 47803: t0 = 1974, jump @2279\n      : @1737 [@dyn 987] (gas: 1)\n 47809: ra = 1976, jump @2409\n      : @1738 [@dyn 988] (gas: 6)\n 47815: u64 [s1 + 0x170] = a0\n 47819: u64 [s1 + 0x150] = a1\n 47823: a0 = 0xffffffffffffffff\n 47826: a1 = 0xffffffffffffffff\n 47829: a2 = u64 [s1 + 0x1d8]\n 47833: ra = 1978, jump @2404\n      : @1739 [@dyn 989] (gas: 3)\n 47839: u64 [s1 + 0x160] = a0\n 47843: u64 [s1 + 0x168] = a1\n 47847: t0 = 1980, jump @2287\n      : @1740 [@dyn 990] (gas: 1)\n 47853: ra = 1982, jump @2404\n      : @1741 [@dyn 991] (gas: 1)\n 47859: t0 = 1984, jump @2275\n      : @1742 [@dyn 992] (gas: 10)\n 47865: i32 a4 = a4 + 0x158\n 47869: a4 = a4 + s1\n 47872: a5 = a4 + 0x100\n 47876: u64 [a5 + 0x40] = a3\n 47879: u64 [a5 + 0x38] = a2\n 47882: u64 [a5 + 0x30] = a1\n 47885: u64 [a5 + 0x28] = a0\n 47888: a1 = s1 + 0x5280\n 47892: a0 = u64 [s1 + 0x158]\n 47896: ra = 1986, jump @23\n      : @1743 [@dyn 993] (gas: 19)\n 47903: a0 = u64 [s1 + 0x90]\n 47907: a1 = u64 [s1 + 0x88]\n 47911: a0 = a0 | a1\n 47914: a1 = u64 [s1 + 0x78]\n 47917: a2 = u64 [s1 + 0x68]\n 47920: a1 = a1 | a2\n 47923: a2 = u64 [s1 + 0x80]\n 47927: a3 = u64 [s1 + 0x70]\n 47930: a2 = a2 | a3\n 47933: a3 = u64 [s1 + 0x98]\n 47937: a3 = a3 + 0x1\n 47940: a4 = s1 + 0x5158\n 47944: a5 = a4 + 0x100\n 47948: u64 [a5 + 0x48] = a3\n 47951: u64 [a5 + 0x50] = a2\n 47954: u64 [a5 + 0x58] = a1\n 47957: u64 [a5 + 0x60] = a0\n 47960: a0 = 0x52a0\n 47964: jump @1757\n      : @1744 (gas: 1)\n 47967: t0 = 1988, jump @2331\n      : @1745 [@dyn 994] (gas: 1)\n 47973: jump @1747 if a1 != 0\n      : @1746 (gas: 1)\n 47976: jump @1318\n      : @1747 (gas: 4)\n 47979: a0 = u64 [s1 + 0x120]\n 47983: i32 a1 = a0 + 0x20\n 47986: a0 = s1 + 0x2fe0\n 47990: ra = 1990, jump @17\n      : @1748 [@dyn 995] (gas: 3)\n 47997: a0 = s1 + 0x2958\n 48001: a2 = a0 + 0x600\n 48005: t0 = 1992, jump @2402\n      : @1749 [@dyn 996] (gas: 15)\n 48011: a0 = u64 [s1 + 0x78]\n 48014: a1 = u64 [s1 + 0x68]\n 48017: a0 = a0 | a1\n 48020: u64 [s1 + 0x190] = a0\n 48024: a0 = u64 [s1 + 0x90]\n 48028: a1 = u64 [s1 + 0x88]\n 48032: a0 = a0 | a1\n 48035: u64 [s1 + 0x188] = a0\n 48039: a0 = u64 [s1 + 0x80]\n 48043: a1 = u64 [s1 + 0x70]\n 48046: a0 = a0 | a1\n 48049: u64 [s1 + 0x180] = a0\n 48053: a1 = u64 [s1 + 0xc0]\n 48057: a1 = a1 << 0x3\n 48060: t0 = 1994, jump @2307\n      : @1750 [@dyn 997] (gas: 1)\n 48066: ra = 1996, jump @2409\n      : @1751 [@dyn 998] (gas: 7)\n 48072: u64 [s1 + 0x160] = a0\n 48076: u64 [s1 + 0x178] = a1\n 48080: a0 = u64 [s1 + 0xc0]\n 48084: i32 a2 = a0 << 0x3\n 48087: a0 = 0xffffffffffffffff\n 48090: a1 = 0xffffffffffffffff\n 48093: ra = 1998, jump @2404\n      : @1752 [@dyn 999] (gas: 1)\n 48099: t0 = 2000, jump @2272\n      : @1753 [@dyn 1000] (gas: 1)\n 48105: ra = 2002, jump @2404\n      : @1754 [@dyn 1001] (gas: 1)\n 48111: t0 = 2004, jump @2263\n      : @1755 [@dyn 1002] (gas: 2)\n 48117: a4 = u64 [s1 + 0x98]\n 48121: t0 = 2006, jump @2356\n      : @1756 [@dyn 1003] (gas: 7)\n 48127: a5 = a4 + 0x100\n 48131: u64 [a5 + 0x78] = a2\n 48134: u64 [a5 + 0x80] = a3\n 48138: u64 [a5 + 0x70] = a1\n 48141: u64 [a5 + 0x68] = a0\n 48144: a0 = 0x52c0\n 48148: fallthrough\n      : @1757 (gas: 3)\n 48149: a1 = s1 + a0\n 48152: a0 = u64 [s1 + 0xa8]\n 48156: ra = 2008, jump @23\n      : @1758 [@dyn 1004] (gas: 4)\n 48163: a0 = u64 [s1 + 0xb8]\n 48167: ra = 0x7da\n 48171: ecalli 3 // 'caller'\n 48173: fallthrough\n      : @1759 [@dyn 1005] (gas: 5)\n 48174: a2 = u64 [s1 + 0xc8]\n 48178: a0 = u64 [a2 + 0x8]\n 48181: a1 = i32 [a2 + 0x10]\n 48184: a2 = u64 [a2]\n 48186: t0 = 2012, jump @2283\n      : @1760 [@dyn 1006] (gas: 9)\n 48192: a2 = s1 + 0x2958\n 48196: u64 [a2 + 1600] = 0\n 48200: a4 = a2 + 0x600\n 48204: u64 [a4 + 0x38] = a1\n 48207: u64 [a4 + 0x30] = a0\n 48210: a1 = s1 + 0x2f80\n 48214: u64 [a4 + 0x28] = a3\n 48217: a0 = 0\n 48219: ra = 2014, jump @19\n      : @1761 [@dyn 1007] (gas: 3)\n 48226: t0 = 0x7e0\n 48230: a1 = s1 + 0x2958\n 48234: fallthrough\n      : @1762 [@dyn 1008] (gas: 8)\n 48235: u64 [a1 + 1568] = 0\n 48239: u64 [a1 + 1560] = 0\n 48243: u64 [a1 + 1544] = 0x3\n 48248: a2 = a1\n 48250: a0 = 0x20\n 48253: a1 = s1 + 0x2f60\n 48257: u64 [a2 + 1552] = 0\n 48261: ra = 2018, jump @19\n      : @1763 [@dyn 1009] (gas: 3)\n 48268: a0 = u64 [s1 + 0xf8]\n 48272: a0 = i32 [a0]\n 48274: jump @1765 if a0 >u 63\n      : @1764 (gas: 4)\n 48278: a1 = u64 [s1 + 0xf8]\n 48282: u32 [a1 + 0] = 0x40\n 48285: t0 = 0x7e4\n 48289: jump @2325\n      : @1765 (gas: 1)\n 48292: t0 = 2020, jump @2325\n      : @1766 [@dyn 1010] (gas: 4)\n 48298: ra = 0x7e6\n 48302: ecalli 6 // 'hash_keccak_256'\n 48304: t0 = 0x7e8\n 48308: jump @2349\n      : @1767 [@dyn 1011] (gas: 1)\n 48311: t0 = 2024, jump @2349\n      : @1768 [@dyn 1012] (gas: 17)\n 48317: a3 = u64 [s1 + 0xd8]\n 48321: a5 = s1 + 0x2958\n 48325: u64 [a5 + 0x5e0] = a3\n 48329: a3 = u64 [s1 + 0xd0]\n 48333: u64 [a5 + 0x5d8] = a3\n 48337: a3 = u64 [s1 + 0xe0]\n 48341: u64 [a5 + 0x5d0] = a3\n 48345: a3 = u64 [s1 + 0xe8]\n 48349: u64 [a5 + 0x5c8] = a3\n 48353: u64 [a5 + 0x600] = a2\n 48357: a2 = a5 + 0x500\n 48361: u64 [a2 + 0xf8] = a1\n 48365: u64 [a2 + 0xf0] = a0\n 48369: a0 = s1 + 0x2f40\n 48373: a1 = s1 + 0x2f20\n 48377: u64 [a2 + 0xe8] = a4\n 48381: ra = 2026, jump @2089\n      : @1769 [@dyn 1013] (gas: 8)\n 48387: a0 = s1 + 0x5158\n 48391: u64 [a0 + 416] = 0\n 48395: u64 [a0 + 408] = 0\n 48399: u64 [a0 + 400] = 0\n 48403: u64 [a0 + 392] = 0x4\n 48408: a0 = s1 + 0x2f00\n 48412: a1 = s1 + 0x52e0\n 48416: ra = 2028, jump @21\n      : @1770 [@dyn 1014] (gas: 14)\n 48423: a0 = s1 + 0x2958\n 48427: a1 = a0 + 0x500\n 48431: a5 = u64 [a1 + 0xc0]\n 48435: a3 = u64 [a1 + 0xb8]\n 48439: a2 = u64 [a1 + 0xb0]\n 48443: a0 = a5 >u 0\n 48445: a1 = a3 >u 0\n 48447: a1 = a0 if a5 != 0\n 48450: a4 = a3\n 48452: a0 = a3 | a5\n 48455: a3 = a2\n 48457: a2 = a2 >u 0\n 48459: a2 = a1 if a0 != 0\n 48462: jump @1772 if a2 == 0\n      : @1771 (gas: 1)\n 48465: jump @1892\n      : @1772 (gas: 27)\n 48468: a0 = s1 + 0x2958\n 48472: a0 = u64 [a0 + 0x5a8]\n 48476: u64 [s1 + 0x1d8] = a0\n 48480: a0 = a0 + 0x1\n 48483: a1 = a0 <u 0x1\n 48486: u64 [s1 + 0x190] = a3\n 48490: a1 = a1 + a3\n 48493: a2 = s1 + 0x5158\n 48497: a3 = a2 + 0x100\n 48501: u64 [a3 + 0xc8] = a0\n 48505: a0 = a0 | a1\n 48508: u64 [a3 + 0xd0] = a1\n 48512: a0 = a0 <u 0x1\n 48515: u64 [s1 + 0x188] = a4\n 48519: a0 = a0 + a4\n 48522: u64 [a3 + 0xd8] = a0\n 48526: a0 = a0 <u a4\n 48529: u64 [s1 + 0x178] = a5\n 48533: a0 = a0 + a5\n 48536: u64 [a3 + 0xe0] = a0\n 48540: u64 [a2 + 448] = 0\n 48544: u64 [a2 + 440] = 0\n 48548: u64 [a2 + 432] = 0\n 48552: u64 [a3 + 168] = 0x4\n 48557: a0 = s1 + 0x5300\n 48561: a1 = s1 + 0x5320\n 48565: ra = 2030, jump @23\n      : @1773 [@dyn 1015] (gas: 23)\n 48572: a0 = sp + 0xffffffffffffffe0\n 48575: a0 = a0 & 0xffffffffffffffe0\n 48578: u64 [s1 + 0x180] = a0\n 48582: sp = a0\n 48584: a0 = s1 + 0x2958\n 48588: a1 = u64 [s1 + 0x178]\n 48592: a2 = a0 + 0x500\n 48596: u64 [a2 + 0x40] = a1\n 48599: a1 = u64 [s1 + 0x188]\n 48603: u64 [a2 + 0x38] = a1\n 48606: a1 = u64 [s1 + 0x190]\n 48610: u64 [a2 + 0x30] = a1\n 48613: a1 = u64 [s1 + 0x1d8]\n 48617: u64 [a2 + 0x28] = a1\n 48620: u64 [a0 + 1376] = 0\n 48624: u64 [a0 + 1368] = 0\n 48628: u64 [a0 + 1360] = 0\n 48632: a4 = a0\n 48634: a0 = s1 + 0x2ec0\n 48638: a1 = s1 + 0x2ea0\n 48642: a2 = s1 + 0x2e80\n 48646: u64 [a4 + 1352] = 0x4\n 48651: ra = 2032, jump @1997\n      : @1774 [@dyn 1016] (gas: 21)\n 48657: a1 = s1 + 0x2958\n 48661: a4 = a1 + 0x500\n 48665: a0 = u64 [a4 + 0xa0]\n 48669: u64 [s1 + 0x190] = a0\n 48673: a0 = u64 [a4 + 0x98]\n 48677: u64 [s1 + 0x188] = a0\n 48681: a0 = u64 [a4 + 0x90]\n 48685: u64 [s1 + 0x178] = a0\n 48689: a0 = u64 [a4 + 0x88]\n 48693: u64 [s1 + 0x1d8] = a0\n 48697: a0 = u64 [a4 + 0x78]\n 48700: a5 = u64 [a4 + 0x80]\n 48704: a2 = u64 [a4 + 0x68]\n 48707: a3 = u64 [a4 + 0x70]\n 48710: a1 = u64 [s1 + 0x180]\n 48714: u64 [a1 + 0x10] = a0\n 48717: u64 [a1 + 0x18] = a5\n 48720: u64 [a1] = a2\n 48722: u64 [a1 + 0x8] = a3\n 48725: a0 = s1 + 0x2e60\n 48729: ra = 2034, jump @21\n      : @1775 [@dyn 1017] (gas: 26)\n 48736: a0 = s1 + 0x2958\n 48740: a2 = a0 + 0x500\n 48744: a1 = u64 [a2 + 0x18]\n 48747: u64 [s1 + 0x160] = a1\n 48751: a1 = u64 [a2 + 0x20]\n 48754: u64 [s1 + 0x158] = a1\n 48758: a1 = u64 [a2 + 0x8]\n 48761: u64 [s1 + 0x150] = a1\n 48765: a0 = u64 [a2 + 0x10]\n 48768: u64 [s1 + 0x148] = a0\n 48772: a5 = u64 [s1 + 0x1d8]\n 48776: a0 = a5 >> 0x3d\n 48779: a2 = u64 [s1 + 0x178]\n 48783: a1 = a2 << 0x3\n 48786: a0 = a0 | a1\n 48789: a1 = a2 >> 0x3d\n 48792: a3 = u64 [s1 + 0x188]\n 48796: a2 = a3 << 0x3\n 48799: a1 = a1 | a2\n 48802: a2 = a3 >> 0x3d\n 48805: a3 = u64 [s1 + 0x190]\n 48809: a3 = a3 << 0x3\n 48812: a2 = a2 | a3\n 48815: a5 = a5 << 0x3\n 48818: u64 [s1 + 0x188] = a5\n 48822: t0 = 2036, jump @2294\n      : @1776 [@dyn 1018] (gas: 6)\n 48828: u64 [s1 + 0x170] = a4\n 48832: i32 a2 = a5 + 0xffffffffffffff80\n 48835: u64 [s1 + 0x140] = a2\n 48839: a0 = u64 [s1 + 0xe8]\n 48843: a1 = u64 [s1 + 0xe0]\n 48847: ra = 2038, jump @2409\n      : @1777 [@dyn 1019] (gas: 8)\n 48853: u64 [s1 + 0x138] = a0\n 48857: u64 [s1 + 0x190] = a1\n 48861: a0 = u64 [s1 + 0x1d8]\n 48865: i32 a2 = a0 << 0x3\n 48868: u64 [s1 + 0x178] = a2\n 48872: a0 = u64 [s1 + 0xd0]\n 48876: a1 = u64 [s1 + 0xd8]\n 48880: ra = 2040, jump @2409\n      : @1778 [@dyn 1020] (gas: 8)\n 48886: u64 [s1 + 0x1d8] = a0\n 48890: u64 [s1 + 0x130] = a1\n 48894: a1 = u64 [s1 + 0x188]\n 48898: i32 a2 = 0x80 - a1\n 48902: u64 [s1 + 0x128] = a2\n 48906: a0 = u64 [s1 + 0xe8]\n 48910: a1 = u64 [s1 + 0xe0]\n 48914: ra = 2042, jump @2404\n      : @1779 [@dyn 1021] (gas: 21)\n 48920: a3 = u64 [s1 + 0x1d8]\n 48924: a3 = a3 | a0\n 48927: a2 = u64 [s1 + 0x188]\n 48931: a4 = a2 <u 0x80\n 48935: u64 [s1 + 0x168] = a4\n 48939: a0 = u64 [s1 + 0x138]\n 48943: a3 = a0 if a4 == 0\n 48946: a0 = u64 [s1 + 0xd0]\n 48950: a3 = a0 if a2 == 0\n 48953: u64 [s1 + 0x1d8] = a3\n 48957: a0 = u64 [s1 + 0x130]\n 48961: a1 = a1 | a0\n 48964: a0 = u64 [s1 + 0x190]\n 48968: a1 = a0 if a4 == 0\n 48971: a0 = u64 [s1 + 0xd8]\n 48975: a1 = a0 if a2 == 0\n 48978: u64 [s1 + 0x190] = a1\n 48982: a0 = u64 [s1 + 0xe8]\n 48986: a1 = u64 [s1 + 0xe0]\n 48990: a2 = u64 [s1 + 0x178]\n 48994: ra = 2044, jump @2409\n      : @1780 [@dyn 1022] (gas: 19)\n 49000: a2 = a1\n 49002: a1 = u64 [s1 + 0x168]\n 49006: a0 = 0 if a1 == 0\n 49008: a2 = 0 if a1 == 0\n 49010: a3 = u64 [s1 + 0x170]\n 49014: a1 = u64 [s1 + 0x190]\n 49018: a1 = 0 if a3 != 0\n 49020: u64 [s1 + 0x190] = a1\n 49024: a1 = u64 [s1 + 0x1d8]\n 49028: a1 = 0 if a3 != 0\n 49030: u64 [s1 + 0x1d8] = a1\n 49034: a2 = 0 if a3 != 0\n 49036: u64 [s1 + 0x138] = a2\n 49040: a0 = 0 if a3 != 0\n 49042: u64 [s1 + 0x130] = a0\n 49046: a0 = 0xffffffffffffffff\n 49049: a1 = 0xffffffffffffffff\n 49052: a2 = u64 [s1 + 0x128]\n 49056: ra = 2046, jump @2404\n      : @1781 [@dyn 1023] (gas: 6)\n 49062: u64 [s1 + 0x118] = a0\n 49066: u64 [s1 + 0x128] = a1\n 49070: a0 = 0xffffffffffffffff\n 49073: a1 = 0xffffffffffffffff\n 49076: a2 = u64 [s1 + 0x178]\n 49080: ra = 2048, jump @2409\n      : @1782 [@dyn 1024] (gas: 9)\n 49086: u64 [s1 + 0x178] = a0\n 49090: u64 [s1 + 0x120] = a1\n 49094: a1 = u64 [s1 + 0x118]\n 49098: a0 = a0 | a1\n 49101: u64 [s1 + 0x118] = a0\n 49105: a0 = 0xffffffffffffffff\n 49108: a1 = 0xffffffffffffffff\n 49111: a2 = u64 [s1 + 0x140]\n 49115: ra = 2050, jump @2409\n      : @1783 [@dyn 1025] (gas: 47)\n 49121: a3 = u64 [s1 + 0x168]\n 49125: a2 = u64 [s1 + 0x118]\n 49129: a0 = a2 if a3 != 0\n 49132: a4 = u64 [s1 + 0x120]\n 49136: a2 = u64 [s1 + 0x128]\n 49140: a2 = a2 | a4\n 49143: a2 = a1 if a3 == 0\n 49146: a1 = u64 [s1 + 0x188]\n 49150: a0 = 0xffffffffffffffff if a1 == 0\n 49153: a2 = 0xffffffffffffffff if a1 == 0\n 49156: a5 = u64 [s1 + 0x178]\n 49160: a5 = 0 if a3 == 0\n 49162: a4 = 0 if a3 == 0\n 49164: a1 = a2 ^ 0xffffffffffffffff\n 49167: a0 = a0 ^ 0xffffffffffffffff\n 49170: a2 = a4 ^ 0xffffffffffffffff\n 49173: a3 = a5 ^ 0xffffffffffffffff\n 49176: a4 = u64 [s1 + 0x170]\n 49180: a0 = 0xffffffffffffffff if a4 != 0\n 49183: a1 = 0xffffffffffffffff if a4 != 0\n 49186: a3 = 0xffffffffffffffff if a4 != 0\n 49189: a2 = 0xffffffffffffffff if a4 != 0\n 49192: a5 = s1 + 0x100\n 49196: a4 = u64 [a5 + 0x48]\n 49199: a2 = a2 & a4\n 49202: a4 = u64 [a5 + 0x50]\n 49205: a3 = a3 & a4\n 49208: a4 = u64 [a5 + 0x58]\n 49211: a1 = a1 & a4\n 49214: a4 = u64 [a5 + 0x60]\n 49217: a0 = a0 & a4\n 49220: a4 = u64 [a5 + 0xd8]\n 49224: a0 = a0 | a4\n 49227: a4 = u64 [a5 + 0x90]\n 49231: a1 = a1 | a4\n 49234: a4 = u64 [a5 + 0x30]\n 49237: a3 = a3 | a4\n 49240: a4 = u64 [a5 + 0x38]\n 49243: a2 = a2 | a4\n 49246: a4 = s1 + 0x5158\n 49250: u64 [a4 + 0x1f0] = a2\n 49254: u64 [a4 + 0x1e8] = a3\n 49258: u64 [a4 + 0x200] = a1\n 49262: u64 [a4 + 0x1f8] = a0\n 49266: a1 = s1 + 0x5340\n 49270: a0 = u64 [a5 + 0x80]\n 49274: ra = 2052, jump @23\n      : @1784 [@dyn 1026] (gas: 13)\n 49281: a0 = s1 + 0x2958\n 49285: a1 = u64 [s1 + 0xd8]\n 49289: u64 [a0 + 0x500] = a1\n 49293: a1 = u64 [s1 + 0xd0]\n 49297: a3 = a0 + 0x400\n 49301: u64 [a3 + 0xf8] = a1\n 49305: a1 = u64 [s1 + 0xe0]\n 49309: u64 [a3 + 0xf0] = a1\n 49313: a1 = s1 + 0x2e40\n 49317: a2 = u64 [s1 + 0xe8]\n 49321: u64 [a3 + 0xe8] = a2\n 49325: a0 = 0\n 49327: ra = 2054, jump @19\n      : @1785 [@dyn 1027] (gas: 3)\n 49334: t0 = 0x808\n 49338: a1 = s1 + 0x2958\n 49342: fallthrough\n      : @1786 [@dyn 1028] (gas: 8)\n 49343: u64 [a1 + 1248] = 0\n 49347: u64 [a1 + 1240] = 0\n 49351: u64 [a1 + 1224] = 0x2\n 49356: a2 = a1\n 49358: a0 = 0x20\n 49361: a1 = s1 + 0x2e20\n 49365: u64 [a2 + 1232] = 0\n 49369: ra = 2058, jump @19\n      : @1787 [@dyn 1029] (gas: 3)\n 49376: a0 = u64 [s1 + 0xf8]\n 49380: a0 = i32 [a0]\n 49382: jump @1789 if a0 >u 63\n      : @1788 (gas: 4)\n 49386: a1 = u64 [s1 + 0xf8]\n 49390: u32 [a1 + 0] = 0x40\n 49393: t0 = 0x80c\n 49397: jump @2325\n      : @1789 (gas: 1)\n 49400: t0 = 2060, jump @2325\n      : @1790 [@dyn 1030] (gas: 13)\n 49406: ecalli 6 // 'hash_keccak_256'\n 49408: a1 = u64 [s1 + 0x1d8]\n 49412: a0 = u64 [a1 + 0x18]\n 49415: u64 [s1 + 0x178] = a0\n 49419: a0 = u64 [a1 + 0x10]\n 49422: u64 [s1 + 0x170] = a0\n 49426: a0 = u64 [a1 + 0x8]\n 49429: u64 [s1 + 0x168] = a0\n 49433: a0 = u64 [a1]\n 49435: u64 [s1 + 0x160] = a0\n 49439: a0 = s1 + 0x2e00\n 49443: a1 = 0x40\n 49446: ra = 2062, jump @17\n      : @1791 [@dyn 1031] (gas: 18)\n 49453: a1 = s1 + 0x2958\n 49457: a5 = a1 + 0x400\n 49461: a0 = u64 [a5 + 0xc0]\n 49465: u64 [s1 + 0x180] = a0\n 49469: a2 = u64 [a5 + 0xb8]\n 49473: u64 [s1 + 0x188] = a2\n 49477: a4 = u64 [a5 + 0xb0]\n 49481: u64 [s1 + 0x190] = a4\n 49485: a3 = u64 [a5 + 0xa8]\n 49489: u64 [s1 + 0x1d8] = a3\n 49493: u64 [a5 + 0xa0] = a0\n 49497: u64 [a5 + 0x98] = a2\n 49501: u64 [a5 + 0x90] = a4\n 49505: a0 = s1 + 0x2de0\n 49509: u64 [a5 + 0x88] = a3\n 49513: ra = 0x810\n 49517: t0 = 0x8b0\n 49521: jump @2330\n      : @1792 [@dyn 1032] (gas: 7)\n 49524: a3 = s1 + 0x100\n 49528: a0 = u64 [a3 + 0x80]\n 49532: a1 = u64 [a3 + 0x90]\n 49536: a0 = a0 | a1\n 49539: a2 = u64 [a3 + 0x88]\n 49543: a1 = u64 [a3 + 0xd8]\n 49547: t0 = 2066, jump @2335\n      : @1793 [@dyn 1033] (gas: 1)\n 49553: jump @1795 if a0 == 0\n      : @1794 (gas: 1)\n 49556: jump @1318\n      : @1795 (gas: 8)\n 49559: a0 = s1 + 0x2958\n 49563: u64 [a0 + 1152] = 0\n 49567: u64 [a0 + 1144] = 0\n 49571: u64 [a0 + 1136] = 0\n 49575: a1 = s1 + 0x2dc0\n 49579: u64 [a0 + 1128] = 0\n 49583: a0 = u64 [s1 + 0x1d8]\n 49587: ra = 2068, jump @19\n      : @1796 [@dyn 1034] (gas: 4)\n 49594: a0 = u64 [s1 + 0xb8]\n 49598: ra = 0x816\n 49602: ecalli 3 // 'caller'\n 49604: fallthrough\n      : @1797 [@dyn 1035] (gas: 14)\n 49605: a3 = s1 + 0x100\n 49609: a0 = u64 [a3 + 0x88]\n 49613: a1 = u64 [a3 + 0x80]\n 49617: a2 = a0 | a1\n 49620: a0 = 0x100000000\n 49630: u64 [a3 + 0x50] = a0\n 49633: a0 = 0xffffffe0\n 49643: a1 = u64 [a3 + 0xd8]\n 49647: a0 = a1 <u a0\n 49650: a1 = u64 [a3 + 0x90]\n 49654: a0 = 0 if a1 != 0\n 49656: u64 [a3 + 0x58] = a2\n 49659: a0 = 0 if a2 != 0\n 49661: jump @1799 if a0 != 0\n      : @1798 (gas: 1)\n 49664: jump @1318\n      : @1799 (gas: 1)\n 49667: t0 = 2072, jump @2293\n      : @1800 [@dyn 1036] (gas: 12)\n 49673: a2 = a2 | a0\n 49676: a1 = a1 >> 0x20\n 49679: a0 = u64 [s1 + 0x1d8]\n 49683: i32 a0 = a0 + 0x20\n 49686: a4 = s1 + 0x2958\n 49690: u64 [a4 + 1120] = 0\n 49694: a5 = a4 + 0x400\n 49698: u64 [a5 + 0x58] = a1\n 49701: u64 [a5 + 0x50] = a2\n 49704: a1 = s1 + 0x2da0\n 49708: u64 [a5 + 0x48] = a3\n 49711: ra = 2074, jump @19\n      : @1801 [@dyn 1037] (gas: 4)\n 49718: a0 = s1 + 0x5000\n 49722: i32 a0 = a0 + 0x360\n 49726: ecalli 7 // 'now'\n 49728: fallthrough\n      : @1802 (gas: 10)\n 49729: a2 = s1 + 0x100\n 49733: a0 = u64 [a2 + 0x50]\n 49736: a0 = a0 + 0xffffffffffffffc0\n 49739: a1 = u64 [a2 + 0xd8]\n 49743: a0 = a1 <u a0\n 49746: a1 = u64 [a2 + 0x90]\n 49750: a0 = 0 if a1 != 0\n 49752: a1 = u64 [a2 + 0x58]\n 49755: a0 = 0 if a1 != 0\n 49757: jump @1804 if a0 != 0\n      : @1803 (gas: 1)\n 49760: jump @1318\n      : @1804 (gas: 16)\n 49763: a0 = s1 + 0x5158\n 49767: a5 = a0 + 0x200\n 49771: a2 = u64 [a5 + 0x8]\n 49774: a1 = u64 [a5 + 0x10]\n 49777: a3 = u64 [a5 + 0x18]\n 49780: a4 = u64 [a5 + 0x20]\n 49783: a0 = u64 [s1 + 0x1d8]\n 49787: i32 a0 = a0 + 0x40\n 49790: a5 = s1 + 0x2958\n 49794: u64 [a5 + 0x440] = a4\n 49798: a4 = a5 + 0x400\n 49802: u64 [a4 + 0x38] = a3\n 49805: u64 [a4 + 0x30] = a1\n 49808: a1 = s1 + 0x2d80\n 49812: u64 [a4 + 0x28] = a2\n 49815: ra = 2076, jump @19\n      : @1805 [@dyn 1038] (gas: 3)\n 49822: a0 = s1 + 0x2d60\n 49826: a1 = 0x40\n 49829: ra = 2078, jump @17\n      : @1806 [@dyn 1039] (gas: 21)\n 49836: a0 = s1 + 0x2958\n 49840: a2 = u64 [a0 + 0x420]\n 49844: u64 [s1 + 0x148] = a2\n 49848: a1 = u64 [a0 + 0x418]\n 49852: u64 [s1 + 0x140] = a1\n 49856: a4 = u64 [a0 + 0x410]\n 49860: u64 [s1 + 0x138] = a4\n 49864: a3 = u64 [a0 + 0x408]\n 49868: u64 [s1 + 0x150] = a3\n 49872: u64 [a0 + 992] = 0\n 49876: u64 [a0 + 984] = 0\n 49880: u64 [a0 + 976] = 0\n 49884: u64 [a0 + 968] = 0x40\n 49889: u64 [a0 + 0x400] = a2\n 49893: u64 [a0 + 0x3f8] = a1\n 49897: u64 [a0 + 0x3f0] = a4\n 49901: a2 = a0\n 49903: a0 = s1 + 0x2d40\n 49907: a1 = s1 + 0x2d20\n 49911: u64 [a2 + 0x3e8] = a3\n 49915: ra = 2080, jump @1946\n      : @1807 [@dyn 1040] (gas: 7)\n 49921: a3 = s1 + 0x100\n 49925: a0 = u64 [a3 + 0x48]\n 49928: a1 = u64 [a3 + 0x38]\n 49931: a0 = a0 | a1\n 49934: a2 = u64 [a3 + 0x40]\n 49937: a1 = u64 [a3 + 0x50]\n 49940: t0 = 2082, jump @2335\n      : @1808 [@dyn 1041] (gas: 1)\n 49946: jump @1810 if a0 == 0\n      : @1809 (gas: 1)\n 49949: jump @1318\n      : @1810 (gas: 8)\n 49952: a2 = s1 + 0x2958\n 49956: u64 [a2 + 960] = 0\n 49960: u64 [a2 + 952] = 0\n 49964: u64 [a2 + 944] = 0\n 49968: a1 = s1 + 0x2d00\n 49972: u64 [a2 + 936] = 0x14\n 49977: a0 = u64 [s1 + 0x150]\n 49981: ra = 2084, jump @19\n      : @1811 [@dyn 1042] (gas: 13)\n 49988: a3 = s1 + 0x100\n 49992: a0 = u64 [a3 + 0x48]\n 49995: a1 = u64 [a3 + 0x40]\n 49998: a0 = a0 | a1\n 50001: a1 = 0x100000000\n 50011: u64 [a3 + 0x30] = a1\n 50014: a1 = 0xffffffe0\n 50024: a2 = u64 [a3 + 0x50]\n 50027: a1 = a2 <u a1\n 50030: a2 = u64 [a3 + 0x38]\n 50033: a1 = 0 if a2 != 0\n 50035: a1 = 0 if a0 != 0\n 50037: jump @1813 if a1 != 0\n      : @1812 (gas: 1)\n 50040: jump @1318\n      : @1813 (gas: 13)\n 50043: a0 = u64 [s1 + 0x150]\n 50047: i32 a0 = a0 + 0x20\n 50050: a1 = u64 [0x20078]\n 50055: a2 = u64 [0x20080]\n 50060: a3 = s1 + 0x2958\n 50064: a4 = a3 + 0x300\n 50068: u64 [a4 + 0xa0] = a1\n 50072: u64 [a4 + 0x98] = a2\n 50076: a1 = 0x74696f6e00000000\n 50086: u64 [a4 + 0x90] = a1\n 50090: a1 = s1 + 0x2ce0\n 50094: u64 [a3 + 904] = 0\n 50098: ra = 2086, jump @19\n      : @1814 [@dyn 1043] (gas: 10)\n 50105: a2 = s1 + 0x100\n 50109: a0 = u64 [a2 + 0x30]\n 50112: a0 = a0 + 0xffffffffffffffa0\n 50115: a1 = u64 [a2 + 0xd8]\n 50119: a0 = a1 <u a0\n 50122: a1 = u64 [a2 + 0x90]\n 50126: a0 = 0 if a1 != 0\n 50128: a1 = u64 [a2 + 0x58]\n 50131: a0 = 0 if a1 != 0\n 50133: jump @1816 if a0 != 0\n      : @1815 (gas: 1)\n 50136: jump @1318\n      : @1816 (gas: 26)\n 50139: a0 = u64 [s1 + 0x160]\n 50143: a0 = reverse a0\n 50145: u64 [s1 + 0x160] = a0\n 50149: a0 = u64 [s1 + 0x168]\n 50153: a0 = reverse a0\n 50155: u64 [s1 + 0x168] = a0\n 50159: a0 = u64 [s1 + 0x170]\n 50163: a0 = reverse a0\n 50165: u64 [s1 + 0x170] = a0\n 50169: a0 = u64 [s1 + 0x178]\n 50173: a0 = reverse a0\n 50175: u64 [s1 + 0x178] = a0\n 50179: a0 = u64 [s1 + 0x1d8]\n 50183: i32 a0 = a0 + 0x60\n 50186: a3 = s1 + 0x2958\n 50190: a1 = u64 [s1 + 0x150]\n 50194: a4 = a3 + 0x300\n 50198: u64 [a4 + 0x68] = a1\n 50201: a1 = u64 [s1 + 0x138]\n 50205: u64 [a4 + 0x70] = a1\n 50208: a1 = u64 [s1 + 0x140]\n 50212: u64 [a4 + 0x78] = a1\n 50215: a1 = s1 + 0x2cc0\n 50219: a2 = u64 [s1 + 0x148]\n 50223: u64 [a4 + 0x80] = a2\n 50227: ra = 2088, jump @19\n      : @1817 [@dyn 1044] (gas: 22)\n 50234: a0 = u64 [s1 + 0x180]\n 50238: a1 = s1 + 0x2958\n 50242: a2 = a1 + 0x300\n 50246: u64 [a2 + 0x40] = a0\n 50249: a0 = u64 [s1 + 0x188]\n 50253: u64 [a2 + 0x38] = a0\n 50256: a0 = u64 [s1 + 0x190]\n 50260: u64 [a2 + 0x30] = a0\n 50263: a0 = u64 [s1 + 0x1d8]\n 50267: u64 [a2 + 0x28] = a0\n 50270: a0 = u64 [s1 + 0x160]\n 50274: u64 [a2 + 0x60] = a0\n 50277: a0 = u64 [s1 + 0x168]\n 50281: u64 [a2 + 0x58] = a0\n 50284: a0 = u64 [s1 + 0x170]\n 50288: u64 [a2 + 0x50] = a0\n 50291: a3 = a1\n 50293: a0 = s1 + 0x2ca0\n 50297: a1 = s1 + 0x2c80\n 50301: a2 = u64 [s1 + 0x178]\n 50305: u64 [a3 + 0x348] = a2\n 50309: ra = 2090, jump @2110\n      : @1818 [@dyn 1045] (gas: 3)\n 50315: a0 = s1 + 0x2c60\n 50319: a1 = 0x40\n 50322: ra = 2092, jump @17\n      : @1819 [@dyn 1046] (gas: 3)\n 50329: t0 = 0x82e\n 50333: a1 = s1 + 0x2958\n 50337: fallthrough\n      : @1820 [@dyn 1047] (gas: 18)\n 50338: a4 = a1 + 0x300\n 50342: a2 = u64 [a4 + 0x20]\n 50345: a3 = u64 [a4 + 0x18]\n 50348: a0 = u64 [a4 + 0x10]\n 50351: a1 = u64 [a4 + 0x8]\n 50354: a4 = s1 + 0x100\n 50358: u64 [a4 + 0x90] = a0\n 50362: u64 [a4 + 0x88] = a2\n 50366: a0 = a0 | a2\n 50369: u64 [a4 + 0xd8] = a1\n 50373: a1 = a1 | a3\n 50376: a1 = a1 | a0\n 50379: a1 = a1 >> 0x20\n 50382: u64 [a4 + 0x80] = a3\n 50386: a0 = a0 | a3\n 50389: a0 = a0 << 0x20\n 50392: a0 = a0 | a1\n 50395: jump @1822 if a0 == 0\n      : @1821 (gas: 1)\n 50398: jump @1318\n      : @1822 (gas: 8)\n 50401: a2 = s1 + 0x2958\n 50405: u64 [a2 + 768] = 0\n 50409: u64 [a2 + 760] = 0\n 50413: u64 [a2 + 752] = 0\n 50417: a1 = s1 + 0x2c40\n 50421: u64 [a2 + 744] = 0x60\n 50426: a0 = u64 [s1 + 0x1d8]\n 50430: ra = 2096, jump @19\n      : @1823 [@dyn 1048] (gas: 5)\n 50437: a1 = u64 [s1 + 0x1d8]\n 50441: a0 = a1 + 0x60\n 50444: a1 = a0 <u a1\n 50447: a3 = u64 [s1 + 0x190]\n 50451: t0 = 2098, jump @2385\n      : @1824 [@dyn 1049] (gas: 24)\n 50457: a1 = u64 [s1 + 0x180]\n 50461: a3 = a3 + a1\n 50464: a1 = a3 <u a1\n 50467: a4 = u64 [s1 + 0x188]\n 50471: a4 = a4 + a1\n 50474: a1 = s1 + 0x2958\n 50478: a5 = a1 + 0x200\n 50482: u64 [a5 + 0x90] = a2\n 50486: u64 [a5 + 0x88] = a0\n 50490: a0 = u64 [s1 + 0x1b8]\n 50494: u64 [a5 + 0xc0] = a0\n 50498: a0 = u64 [s1 + 0x1c0]\n 50502: u64 [a5 + 0xb8] = a0\n 50506: a0 = u64 [s1 + 0x1c8]\n 50510: u64 [a5 + 0xb0] = a0\n 50514: a0 = u64 [s1 + 0x1d0]\n 50518: u64 [a5 + 0xa8] = a0\n 50522: u64 [a5 + 0x98] = a3\n 50526: a3 = a1\n 50528: a0 = s1 + 0x2c20\n 50532: a1 = s1 + 0x2c00\n 50536: a2 = s1 + 0x2be0\n 50540: u64 [a3 + 0x2a0] = a4\n 50544: ra = 2100, jump @1909\n      : @1825 [@dyn 1050] (gas: 14)\n 50550: a3 = s1 + 0x100\n 50554: a0 = u64 [a3 + 0x80]\n 50558: a1 = u64 [a3 + 0x88]\n 50562: a1 = a1 | a0\n 50565: a0 = 0x100000000\n 50575: u64 [a3 + 0xc8] = a0\n 50579: a0 = 0xffffffe0\n 50589: a2 = u64 [a3 + 0xd8]\n 50593: a0 = a2 <u a0\n 50596: a2 = u64 [a3 + 0x90]\n 50600: a0 = 0 if a2 != 0\n 50602: u64 [a3 + 0xd0] = a1\n 50606: a0 = 0 if a1 != 0\n 50608: jump @1827 if a0 != 0\n      : @1826 (gas: 1)\n 50611: jump @1318\n      : @1827 (gas: 37)\n 50614: a2 = s1 + 0x2958\n 50618: ra = u64 [a2 + 0x2c8]\n 50622: t0 = u64 [a2 + 0x2d0]\n 50626: t2 = u64 [a2 + 0x2e0]\n 50630: u64 [s1 + 0x1b8] = t2\n 50634: a4 = u64 [a2 + 0x2d8]\n 50638: u64 [s1 + 0x1c0] = a4\n 50642: a5 = u64 [s1 + 0x1d8]\n 50646: t1 = ra <u a5\n 50649: u64 [s1 + 0x170] = ra\n 50653: a3 = u64 [s1 + 0x190]\n 50657: a1 = t0 ^ a3\n 50660: a2 = t0 <u a3\n 50663: u64 [s1 + 0x178] = t0\n 50667: a0 = a3\n 50669: a2 = t1 if a1 == 0\n 50672: a3 = u64 [s1 + 0x180]\n 50676: a1 = a4 - a3\n 50679: a3 = a4 <u a3\n 50682: a4 = u64 [s1 + 0x188]\n 50686: a4 = t2 - a4\n 50689: a4 = a4 - a3\n 50692: a3 = a1 <u a2\n 50695: a4 = a4 - a3\n 50698: a1 = a1 - a2\n 50701: a2 = t0 - a0\n 50704: a2 = a2 - t1\n 50707: a3 = ra - a5\n 50710: i32 a0 = a5 + 0x20\n 50713: a5 = s1 + 0x2958\n 50717: u64 [a5 + 0x268] = a3\n 50721: a3 = a5 + 0x200\n 50725: u64 [a3 + 0x70] = a2\n 50728: u64 [a3 + 0x78] = a1\n 50731: a1 = s1 + 0x2bc0\n 50735: u64 [a3 + 0x80] = a4\n 50739: ra = 2102, jump @19\n      : @1828 [@dyn 1051] (gas: 3)\n 50746: t0 = 0x838\n 50750: a1 = s1 + 0x2958\n 50754: fallthrough\n      : @1829 [@dyn 1052] (gas: 22)\n 50755: a0 = u64 [s1 + 0x1b8]\n 50759: a2 = a1 + 0x200\n 50763: u64 [a2 + 0x20] = a0\n 50766: a0 = u64 [s1 + 0x1c0]\n 50770: u64 [a2 + 0x18] = a0\n 50773: a0 = u64 [s1 + 0x178]\n 50777: u64 [a2 + 0x10] = a0\n 50780: a0 = u64 [s1 + 0x170]\n 50784: u64 [a2 + 0x8] = a0\n 50787: a0 = u64 [s1 + 0x198]\n 50791: u64 [a2 + 0x40] = a0\n 50794: a0 = u64 [s1 + 0x1a0]\n 50798: u64 [a2 + 0x38] = a0\n 50801: a0 = u64 [s1 + 0x1a8]\n 50805: u64 [a2 + 0x30] = a0\n 50808: a4 = a1\n 50810: a0 = s1 + 0x2ba0\n 50814: a1 = s1 + 0x2b80\n 50818: a2 = s1 + 0x2b60\n 50822: a3 = u64 [s1 + 0x1b0]\n 50826: u64 [a4 + 0x228] = a3\n 50830: ra = 2106, jump @1909\n      : @1830 [@dyn 1053] (gas: 14)\n 50836: a1 = s1 + 0x2958\n 50840: a2 = a1 + 0x200\n 50844: a0 = u64 [a2 + 0x60]\n 50847: u64 [s1 + 0x1b0] = a0\n 50851: a0 = u64 [a2 + 0x58]\n 50854: u64 [s1 + 0x1a8] = a0\n 50858: a0 = u64 [a2 + 0x50]\n 50861: u64 [s1 + 0x1b8] = a0\n 50865: a0 = u64 [a2 + 0x48]\n 50868: u64 [s1 + 0x1c0] = a0\n 50872: a0 = s1 + 0x5000\n 50876: i32 a0 = a0 + 0x380\n 50880: ecalli 7 // 'now'\n 50882: fallthrough\n      : @1831 (gas: 10)\n 50883: a2 = s1 + 0x100\n 50887: a0 = u64 [a2 + 0xc8]\n 50891: a0 = a0 + 0xffffffffffffffc0\n 50894: a1 = u64 [a2 + 0xd8]\n 50898: a0 = a1 <u a0\n 50901: a1 = u64 [a2 + 0x90]\n 50905: a0 = 0 if a1 != 0\n 50907: a1 = u64 [a2 + 0xd0]\n 50911: a0 = 0 if a1 != 0\n 50913: jump @1833 if a0 != 0\n      : @1832 (gas: 1)\n 50916: jump @1318\n      : @1833 (gas: 16)\n 50919: a0 = s1 + 0x5158\n 50923: a5 = a0 + 0x200\n 50927: a2 = u64 [a5 + 0x28]\n 50930: a1 = u64 [a5 + 0x30]\n 50933: a3 = u64 [a5 + 0x38]\n 50936: a4 = u64 [a5 + 0x40]\n 50939: a0 = u64 [s1 + 0x1d8]\n 50943: i32 a0 = a0 + 0x40\n 50946: a5 = s1 + 0x2958\n 50950: u64 [a5 + 0x200] = a4\n 50954: a4 = a5 + 0x100\n 50958: u64 [a4 + 0xf8] = a3\n 50962: u64 [a4 + 0xf0] = a1\n 50966: a1 = s1 + 0x2b40\n 50970: u64 [a4 + 0xe8] = a2\n 50974: ra = 2108, jump @19\n      : @1834 [@dyn 1054] (gas: 3)\n 50981: a0 = u64 [s1 + 0xb8]\n 50985: ecalli 3 // 'caller'\n 50987: fallthrough\n      : @1835 (gas: 30)\n 50988: t0 = u64 [s1 + 0x1c0]\n 50992: ra = u64 [s1 + 0x1d8]\n 50996: t1 = t0 <u ra\n 50999: a5 = u64 [s1 + 0x190]\n 51003: a1 = u64 [s1 + 0x1b8]\n 51007: a3 = a1 ^ a5\n 51010: a2 = a1 <u a5\n 51013: a2 = t1 if a3 == 0\n 51016: a3 = u64 [s1 + 0x180]\n 51020: a4 = u64 [s1 + 0x1a8]\n 51024: a0 = a4 - a3\n 51027: t2 = a4 <u a3\n 51030: a4 = u64 [s1 + 0x188]\n 51034: a3 = u64 [s1 + 0x1b0]\n 51038: a4 = a3 - a4\n 51041: a4 = a4 - t2\n 51044: a3 = a0 <u a2\n 51047: a4 = a4 - a3\n 51050: a2 = a0 - a2\n 51053: a1 = a1 - a5\n 51056: a0 = a1 - t1\n 51059: a1 = t0 - ra\n 51062: a0 = a0 | a4\n 51065: a3 = a1 | a2\n 51068: a3 = a3 | a0\n 51071: a0 = a0 | a2\n 51074: a3 = a3 >> 0x20\n 51077: a0 = a0 << 0x20\n 51080: a0 = a0 | a3\n 51083: jump @1837 if a0 == 0\n      : @1836 (gas: 1)\n 51086: jump @1318\n      : @1837 (gas: 42)\n 51089: a3 = u64 [s1 + 0xc8]\n 51093: a0 = u64 [a3 + 0x8]\n 51096: a2 = i32 [a3 + 0x10]\n 51099: a3 = u64 [a3]\n 51101: a4 = reverse a0\n 51103: a0 = a4 << 0x20\n 51106: a2 = reverse a2\n 51108: a2 = a2 >> 0x20\n 51111: t0 = a2 | a0\n 51114: a4 = a4 >> 0x20\n 51117: a3 = reverse a3\n 51119: a2 = a3 << 0x20\n 51122: t1 = a2 | a4\n 51125: t2 = a3 >> 0x20\n 51128: a4 = u64 [0x20088]\n 51133: a5 = u64 [0x20090]\n 51138: a0 = u64 [0x20098]\n 51143: a2 = u64 [0x200a0]\n 51148: a3 = s1 + 0x2958\n 51152: u64 [a3 + 0x1e0] = a4\n 51156: a4 = a3 + 0x100\n 51160: u64 [a4 + 0xd8] = a5\n 51164: u64 [a4 + 0xd0] = a0\n 51168: u64 [a4 + 0xc8] = a2\n 51172: u64 [a3 + 416] = 0\n 51176: a0 = u64 [s1 + 0xd0]\n 51180: u64 [a4 + 0xb8] = a0\n 51184: a0 = u64 [s1 + 0xe0]\n 51188: u64 [a4 + 0xb0] = a0\n 51192: a0 = u64 [s1 + 0xe8]\n 51196: u64 [a4 + 0xa8] = a0\n 51200: u64 [a3 + 0x198] = t2\n 51204: u64 [a3 + 0x190] = t1\n 51208: u64 [a3 + 0x188] = t0\n 51212: a5 = a3\n 51214: a2 = s1 + 0x2b20\n 51218: a3 = s1 + 0x2b00\n 51222: a4 = s1 + 0x2ae0\n 51226: a0 = u64 [s1 + 0xd8]\n 51230: u64 [a5 + 0x1c0] = a0\n 51234: a0 = u64 [s1 + 0x1d8]\n 51238: ra = 2110, jump @27\n      : @1838 [@dyn 1055] (gas: 3)\n 51245: a0 = s1 + 0x2ac0\n 51249: a1 = 0x40\n 51252: ra = 2112, jump @17\n      : @1839 [@dyn 1056] (gas: 7)\n 51259: a3 = s1 + 0x2958\n 51263: a5 = a3 + 0x100\n 51267: a0 = u64 [a5 + 0x80]\n 51271: a1 = u64 [a5 + 0x78]\n 51274: a2 = u64 [a5 + 0x70]\n 51277: a4 = u64 [a5 + 0x68]\n 51280: t0 = 2114, jump @2337\n      : @1840 [@dyn 1057] (gas: 1)\n 51286: jump @1842 if a0 == 0\n      : @1841 (gas: 1)\n 51289: jump @1318\n      : @1842 (gas: 16)\n 51292: a3 = a4\n 51294: a0 = u64 [s1 + 0xe8]\n 51298: a2 = s1 + 0x2958\n 51302: a5 = a2 + 0x100\n 51306: u64 [a5 + 0x48] = a0\n 51309: a0 = u64 [s1 + 0xe0]\n 51313: u64 [a5 + 0x50] = a0\n 51316: a0 = u64 [s1 + 0xd0]\n 51320: u64 [a5 + 0x58] = a0\n 51323: a1 = s1 + 0x2aa0\n 51327: a0 = u64 [s1 + 0xd8]\n 51331: u64 [a5 + 0x60] = a0\n 51334: a0 = a4\n 51336: u64 [s1 + 0x1d8] = a3\n 51340: ra = 0x1e6\n 51344: jump @19\n      : @1843 (gas: 4)\n 51348: a0 = u64 [s1 + 0x1d8]\n 51352: a0 = i32 [a0]\n 51354: a1 = 0x23\n 51357: jump @1847 if a1 <u a0\n      : @1844 (gas: 2)\n 51360: a1 = 0x201b0\n 51365: jump @1727\n      : @1845 (gas: 3)\n 51368: a0 = u64 [s1 + 0x1d8]\n 51372: a0 = i32 [a0]\n 51374: jump @1899 if a0 >u 3\n      : @1846 (gas: 2)\n 51379: a1 = 0x201b0\n 51384: jump @1727\n      : @1847 (gas: 4)\n 51387: a0 = s1 + 0x4640\n 51391: ra = 0x844\n 51395: t0 = 0x8e4\n 51399: jump @2396\n      : @1848 [@dyn 1058] (gas: 8)\n 51402: a0 = s1 + 0x4158\n 51406: a1 = u64 [a0 + 0x4f0]\n 51410: u64 [s1 + 0x1d0] = a1\n 51414: a1 = u64 [a0 + 0x4e8]\n 51418: u64 [s1 + 0x1d8] = a1\n 51422: a0 = u32 [a0 + 0x4f8]\n 51426: u64 [s1 + 0x1c8] = a0\n 51430: ra = 2118, jump @2249\n      : @1849 [@dyn 1059] (gas: 7)\n 51436: a2 = s1 + 0x100\n 51440: a0 = u64 [a2 + 0xd8]\n 51444: a1 = u64 [a2 + 0xc8]\n 51448: a0 = a0 | a1\n 51451: a1 = u64 [a2 + 0xd0]\n 51455: a0 = a0 | a1\n 51458: jump @1904 if a0 == 0\n      : @1850 (gas: 10)\n 51462: a0 = 0xffffffff\n 51472: u64 [s1 + 0x1c0] = a0\n 51476: a0 = s1 + 0x5158\n 51480: u64 [a0 + 1056] = 0\n 51484: u64 [a0 + 1048] = 0\n 51488: u64 [a0 + 1040] = 0\n 51492: u64 [a0 + 1032] = 0\n 51496: a0 = s1 + 0x4620\n 51500: a1 = s1 + 0x5560\n 51504: ra = 2120, jump @21\n      : @1851 [@dyn 1060] (gas: 28)\n 51511: a1 = s1 + 0x4158\n 51515: a3 = a1 + 0x400\n 51519: a2 = u64 [a3 + 0xd8]\n 51523: u64 [s1 + 0x1a8] = a2\n 51527: a0 = u64 [a3 + 0xd0]\n 51531: u64 [s1 + 0x1b8] = a0\n 51535: a0 = u64 [a3 + 0xc8]\n 51539: u64 [s1 + 0x1b0] = a0\n 51543: a0 = u64 [a3 + 0xe0]\n 51547: a1 = a2 >> 0x20\n 51550: a1 = a1 << 0x20\n 51553: a2 = u64 [s1 + 0x1c8]\n 51557: a1 = a1 | a2\n 51560: a2 = s1 + 0x5158\n 51564: u64 [a2 + 1088] = 0\n 51568: u64 [a2 + 1080] = 0\n 51572: u64 [a2 + 1072] = 0\n 51576: u64 [a2 + 1064] = 0\n 51580: a3 = u64 [s1 + 0x1d0]\n 51584: a4 = a2 + 0x400\n 51588: u64 [a4 + 0x50] = a3\n 51591: a3 = u64 [s1 + 0x1d8]\n 51595: u64 [a4 + 0x48] = a3\n 51598: u64 [a4 + 0x60] = a0\n 51601: u64 [a4 + 0x58] = a1\n 51604: a0 = s1 + 0x5580\n 51608: a1 = s1 + 0x55a0\n 51612: ra = 2122, jump @23\n      : @1852 [@dyn 1061] (gas: 36)\n 51619: a5 = s1 + 0x100\n 51623: a0 = u64 [a5 + 0xb0]\n 51627: a0 = a0 & 0xffffffffffffffff\n 51630: a2 = u64 [a5 + 0xb8]\n 51634: a1 = a2 & 0xffffffffffffffff\n 51637: a2 = u64 [a5 + 0xc0]\n 51641: a3 = u64 [a5 + 0xa8]\n 51645: a2 = a2 & a3\n 51648: a4 = s1 + 0x4158\n 51652: u64 [a4 + 1152] = 0\n 51656: a3 = u64 [a5 + 0xc8]\n 51660: u64 [a4 + 0x478] = a3\n 51664: a3 = u64 [a5 + 0xd0]\n 51668: u64 [a4 + 0x470] = a3\n 51672: a3 = u64 [a5 + 0xd8]\n 51676: a5 = a4 + 0x400\n 51680: u64 [a5 + 0x68] = a3\n 51683: u64 [a4 + 1184] = 0\n 51687: u64 [a5 + 0x98] = a2\n 51691: u64 [a5 + 0x90] = a1\n 51695: a1 = u64 [0x20020]\n 51700: a2 = u64 [0x20028]\n 51705: a3 = u64 [0x20030]\n 51710: u64 [a5 + 0x88] = a0\n 51714: u64 [a5 + 0xc0] = a1\n 51718: u64 [a5 + 0xb8] = a2\n 51722: u64 [a5 + 0xb0] = a3\n 51726: a1 = a4\n 51728: a0 = u64 [0x20038]\n 51733: a2 = s1 + 0x4600\n 51737: a3 = s1 + 0x45e0\n 51741: a4 = s1 + 0x45c0\n 51745: u64 [a1 + 0x4a8] = a0\n 51749: a0 = 0\n 51751: a1 = 0\n 51753: ra = 2124, jump @27\n      : @1853 [@dyn 1062] (gas: 2)\n 51760: a1 = 0x201b0\n 51765: jump @405\n      : @1854 (gas: 8)\n 51769: a0 = s1 + 0x1958\n 51773: u64 [a0 + 1336] = 0\n 51777: u64 [a0 + 1328] = 0\n 51781: u64 [a0 + 1320] = 0\n 51785: a2 = a0\n 51787: t0 = 0x84e\n 51791: a0 = 0x4e487b7100000000\n 51801: fallthrough\n      : @1855 [@dyn 1063] (gas: 4)\n 51802: a1 = s1 + 0x1e80\n 51806: u64 [a2 + 0x540] = a0\n 51810: a0 = 0\n 51812: ra = 2128, jump @19\n      : @1856 [@dyn 1064] (gas: 9)\n 51819: a1 = s1 + 0x1958\n 51823: u64 [a1 + 1312] = 0\n 51827: u64 [a1 + 1304] = 0\n 51831: u64 [a1 + 1288] = 0x41\n 51836: a2 = a1\n 51838: a0 = 0x4\n 51841: a1 = s1 + 0x1e60\n 51845: u64 [a2 + 1296] = 0\n 51849: ra = 2130, jump @19\n      : @1857 [@dyn 1065] (gas: 3)\n 51856: a0 = u64 [s1 + 0x1d0]\n 51860: a0 = i32 [a0]\n 51862: jump @1859 if a0 >u 63\n      : @1858 (gas: 3)\n 51866: a1 = u64 [s1 + 0x1d0]\n 51870: u32 [a1 + 0] = 0x40\n 51873: fallthrough\n      : @1859 (gas: 5)\n 51874: a0 = 0x1\n 51877: a2 = 0x24\n 51880: a1 = u64 [s1 + 0x1d8]\n 51884: ecalli 8 // 'seal_return'\n 51886: fallthrough\n      : @1860 (gas: 6)\n 51887: u64 [a2 + 824] = 0\n 51891: u64 [a2 + 816] = 0\n 51895: u64 [a2 + 808] = 0\n 51899: t0 = 0x854\n 51903: a0 = 0x4e487b7100000000\n 51913: fallthrough\n      : @1861 [@dyn 1066] (gas: 4)\n 51914: a1 = s1 + 0x1480\n 51918: u64 [a2 + 0x340] = a0\n 51922: a0 = 0\n 51924: ra = 2134, jump @19\n      : @1862 [@dyn 1067] (gas: 3)\n 51931: t0 = 0x858\n 51935: a1 = s1 + 0x1158\n 51939: fallthrough\n      : @1863 [@dyn 1068] (gas: 8)\n 51940: u64 [a1 + 800] = 0\n 51944: u64 [a1 + 792] = 0\n 51948: u64 [a1 + 776] = 0x41\n 51953: a2 = a1\n 51955: a0 = 0x4\n 51958: a1 = s1 + 0x1460\n 51962: u64 [a2 + 784] = 0\n 51966: ra = 2138, jump @19\n      : @1864 [@dyn 1069] (gas: 3)\n 51973: a0 = u64 [s1 + 0x120]\n 51977: a0 = i32 [a0]\n 51979: jump @1866 if a0 >u 63\n      : @1865 (gas: 3)\n 51983: a1 = u64 [s1 + 0x120]\n 51987: u32 [a1 + 0] = 0x40\n 51990: fallthrough\n      : @1866 (gas: 6)\n 51991: a0 = 0x1\n 51994: a2 = 0x24\n 51997: a1 = u64 [s1 + 0x128]\n 52001: ra = 0x85c\n 52005: ecalli 8 // 'seal_return'\n 52007: fallthrough\n      : @1867 [@dyn 1070] (gas: 5)\n 52008: a0 = s1 + 0x2158\n 52012: u64 [a0 + 1880] = 0\n 52016: u64 [a0 + 1872] = 0\n 52020: u64 [a0 + 1864] = 0\n 52024: t0 = 2142, jump @2317\n      : @1868 [@dyn 1071] (gas: 5)\n 52030: i32 a1 = a1 + 0xfffffffffffff8a0\n 52034: a1 = a1 + s1\n 52037: u64 [a2 + 0x760] = a0\n 52041: a0 = 0\n 52043: ra = 2144, jump @19\n      : @1869 [@dyn 1072] (gas: 3)\n 52050: t0 = 0x862\n 52054: a1 = s1 + 0x2158\n 52058: fallthrough\n      : @1870 [@dyn 1073] (gas: 9)\n 52059: u64 [a1 + 1856] = 0\n 52063: u64 [a1 + 1848] = 0\n 52067: u64 [a1 + 1832] = 0x41\n 52072: a2 = a1\n 52074: a0 = 0x4\n 52077: a1 = s1 + 0x2880\n 52081: u64 [a2 + 1840] = 0\n 52085: ra = 0x884\n 52089: jump @19\n      : @1871 (gas: 9)\n 52093: u64 [t0 + 184] = 0\n 52097: u64 [t0 + 176] = 0\n 52101: u64 [t0 + 168] = 0\n 52105: a0 = 0x4e487b7100000000\n 52115: a1 = s1 + 0x7ff\n 52119: a1 = a1 + 0x201\n 52123: u64 [t0 + 0xc0] = a0\n 52127: a0 = 0\n 52129: ra = 2148, jump @19\n      : @1872 [@dyn 1074] (gas: 11)\n 52136: a1 = s1 + 0x7ff\n 52140: a1 = a1 + 0x159\n 52144: u64 [a1 + 160] = 0\n 52148: u64 [a1 + 152] = 0\n 52152: u64 [a1 + 136] = 0x31\n 52157: a2 = a1\n 52159: a0 = 0x4\n 52162: a1 = s1 + 0x7ff\n 52166: a1 = a1 + 0x1e1\n 52170: u64 [a2 + 144] = 0\n 52174: ra = 2150, jump @19\n      : @1873 [@dyn 1075] (gas: 3)\n 52181: a0 = u64 [s1 + 0x98]\n 52185: a0 = i32 [a0]\n 52187: jump @1875 if a0 >u 63\n      : @1874 (gas: 3)\n 52191: a1 = u64 [s1 + 0x98]\n 52195: u32 [a1 + 0] = 0x40\n 52198: fallthrough\n      : @1875 (gas: 5)\n 52199: a0 = 0x1\n 52202: a2 = 0x24\n 52205: a1 = u64 [s1 + 0xa0]\n 52209: ecalli 8 // 'seal_return'\n 52211: fallthrough\n      : @1876 (gas: 5)\n 52212: a3 = t2\n 52214: a0 = u64 [s1 + 0x1d8]\n 52218: a1 = t2\n 52220: u64 [s1 + 0x158] = a3\n 52224: ra = 2152, jump @32\n      : @1877 [@dyn 1076] (gas: 5)\n 52231: i32 a1 = a0 + 0\n 52233: a2 = i32 [s1 + 0x158]\n 52237: a0 = 0\n 52239: ecalli 8 // 'seal_return'\n 52241: jump @490\n      : @1878 (gas: 5)\n 52245: a0 = s1 + 0x2158\n 52249: u64 [a0 + 1976] = 0\n 52253: u64 [a0 + 1968] = 0\n 52257: u64 [a0 + 1960] = 0\n 52261: t0 = 2154, jump @2317\n      : @1879 [@dyn 1077] (gas: 5)\n 52267: i32 a1 = a1 + 0xfffffffffffff900\n 52271: a1 = a1 + s1\n 52274: u64 [a2 + 0x7c0] = a0\n 52278: a0 = 0\n 52280: ra = 2156, jump @19\n      : @1880 [@dyn 1078] (gas: 3)\n 52287: t0 = 0x86e\n 52291: a1 = s1 + 0x2158\n 52295: fallthrough\n      : @1881 [@dyn 1079] (gas: 9)\n 52296: u64 [a1 + 1952] = 0\n 52300: u64 [a1 + 1944] = 0\n 52304: u64 [a1 + 1928] = 0x41\n 52309: a2 = a1\n 52311: a0 = 0x4\n 52314: a1 = s1 + 0x28e0\n 52318: u64 [a2 + 1936] = 0\n 52322: ra = 0x884\n 52326: jump @19\n      : @1882 (gas: 5)\n 52330: a0 = s1 + 0x2958\n 52334: u64 [a0 + 24] = 0\n 52337: u64 [a0 + 16] = 0\n 52340: u64 [a0 + 8] = 0\n 52343: t0 = 2160, jump @2317\n      : @1883 [@dyn 1080] (gas: 5)\n 52349: i32 a1 = a1 + 0xfffffffffffff960\n 52353: a1 = a1 + s1\n 52356: u64 [a2 + 0x20] = a0\n 52359: a0 = 0\n 52361: ra = 2162, jump @19\n      : @1884 [@dyn 1081] (gas: 3)\n 52368: t0 = 0x874\n 52372: a1 = s1 + 0x2958\n 52376: fallthrough\n      : @1885 [@dyn 1082] (gas: 9)\n 52377: u64 [a1 + 0] = 0\n 52379: u64 [a1 + 4294967288] = 0\n 52382: u64 [a1 + 4294967272] = 0x41\n 52386: a2 = a1\n 52388: a0 = 0x4\n 52391: a1 = s1 + 0x2940\n 52395: u64 [a2 + 4294967280] = 0\n 52398: ra = 0x884\n 52402: jump @19\n      : @1886 (gas: 5)\n 52406: a0 = s1 + 0x2958\n 52410: u64 [a0 + 120] = 0\n 52413: u64 [a0 + 112] = 0\n 52416: u64 [a0 + 104] = 0\n 52419: t0 = 2166, jump @2317\n      : @1887 [@dyn 1083] (gas: 5)\n 52425: i32 a1 = a1 + 0xfffffffffffff9c0\n 52429: a1 = a1 + s1\n 52432: u64 [a2 + 0x80] = a0\n 52436: a0 = 0\n 52438: ra = 2168, jump @19\n      : @1888 [@dyn 1084] (gas: 10)\n 52445: a1 = s1 + 0x2958\n 52449: u64 [a1 + 96] = 0\n 52452: u64 [a1 + 88] = 0\n 52455: u64 [a1 + 72] = 0x41\n 52459: a2 = a1\n 52461: a0 = 0x4\n 52464: a1 = s1 + 0x29a0\n 52468: u64 [a2 + 80] = 0\n 52471: ra = 0x884\n 52475: jump @19\n      : @1889 (gas: 5)\n 52479: a0 = s1 + 0x2958\n 52483: u64 [a0 + 216] = 0\n 52487: u64 [a0 + 208] = 0\n 52491: u64 [a0 + 200] = 0\n 52495: t0 = 2170, jump @2317\n      : @1890 [@dyn 1085] (gas: 5)\n 52501: i32 a1 = a1 + 0xfffffffffffffa20\n 52505: a1 = a1 + s1\n 52508: u64 [a2 + 0xe0] = a0\n 52512: a0 = 0\n 52514: ra = 2172, jump @19\n      : @1891 [@dyn 1086] (gas: 10)\n 52521: a1 = s1 + 0x2958\n 52525: u64 [a1 + 192] = 0\n 52529: u64 [a1 + 184] = 0\n 52533: u64 [a1 + 168] = 0x41\n 52538: a2 = a1\n 52540: a0 = 0x4\n 52543: a1 = s1 + 0x2a00\n 52547: u64 [a2 + 176] = 0\n 52551: ra = 0x884\n 52555: jump @19\n      : @1892 (gas: 5)\n 52559: a0 = s1 + 0x2958\n 52563: u64 [a0 + 312] = 0\n 52567: u64 [a0 + 304] = 0\n 52571: u64 [a0 + 296] = 0\n 52575: t0 = 2174, jump @2317\n      : @1893 [@dyn 1087] (gas: 5)\n 52581: i32 a1 = a1 + 0xfffffffffffffa80\n 52585: a1 = a1 + s1\n 52588: u64 [a2 + 0x140] = a0\n 52592: a0 = 0\n 52594: ra = 2176, jump @19\n      : @1894 [@dyn 1088] (gas: 3)\n 52601: t0 = 0x882\n 52605: a1 = s1 + 0x2958\n 52609: fallthrough\n      : @1895 [@dyn 1089] (gas: 8)\n 52610: u64 [a1 + 288] = 0\n 52614: u64 [a1 + 280] = 0\n 52618: u64 [a1 + 264] = 0x41\n 52623: a2 = a1\n 52625: a0 = 0x4\n 52628: a1 = s1 + 0x2a60\n 52632: u64 [a2 + 272] = 0\n 52636: ra = 2180, jump @19\n      : @1896 [@dyn 1090] (gas: 3)\n 52643: a0 = u64 [s1 + 0xf8]\n 52647: a0 = i32 [a0]\n 52649: jump @1898 if a0 >u 63\n      : @1897 (gas: 3)\n 52653: a1 = u64 [s1 + 0xf8]\n 52657: u32 [a1 + 0] = 0x40\n 52660: fallthrough\n      : @1898 (gas: 6)\n 52661: a0 = 0x1\n 52664: a2 = 0x24\n 52667: a1 = u64 [s1 + 0xf0]\n 52671: ecalli 8 // 'seal_return'\n 52673: ra = 0x886\n 52677: jump @2249\n      : @1899 (gas: 1)\n 52680: ra = 2182, jump @2249\n      : @1900 [@dyn 1091] (gas: 8)\n 52686: a0 = s1 + 0x4958\n 52690: u64 [a0 + 832] = 0\n 52694: u64 [a0 + 824] = 0\n 52698: u64 [a0 + 816] = 0\n 52702: u64 [a0 + 808] = 0\n 52706: a0 = s1 + 0x1e40\n 52710: a1 = s1 + 0x4c80\n 52714: ra = 2184, jump @21\n      : @1901 [@dyn 1092] (gas: 23)\n 52721: a1 = s1 + 0x1958\n 52725: a3 = a1 + 0x400\n 52729: a2 = u64 [a3 + 0xf8]\n 52733: u64 [s1 + 0x1c8] = a2\n 52737: a0 = u64 [a3 + 0xe8]\n 52741: u64 [s1 + 0x1d8] = a0\n 52745: a0 = u64 [a3 + 0xf0]\n 52749: u64 [s1 + 0x1d0] = a0\n 52753: a0 = u64 [a1 + 0x500]\n 52757: a1 = a2 >> 0x20\n 52760: a1 = a1 << 0x20\n 52763: a2 = s1 + 0x4958\n 52767: u64 [a2 + 864] = 0\n 52771: u64 [a2 + 856] = 0\n 52775: u64 [a2 + 848] = 0\n 52779: u64 [a2 + 840] = 0\n 52783: u64 [a2 + 880] = 0\n 52787: u64 [a2 + 872] = 0\n 52791: u64 [a2 + 0x380] = a0\n 52795: u64 [a2 + 0x378] = a1\n 52799: a0 = s1 + 0x4ca0\n 52803: a1 = s1 + 0x4cc0\n 52807: ra = 2186, jump @23\n      : @1902 [@dyn 1093] (gas: 31)\n 52814: a5 = s1 + 0x100\n 52818: a0 = u64 [a5 + 0xc8]\n 52822: a0 = a0 << 0x20\n 52825: a0 = a0 >> 0x20\n 52828: a3 = s1 + 0x1958\n 52832: u64 [a3 + 1184] = 0\n 52836: u64 [a3 + 1176] = 0\n 52840: u64 [a3 + 1168] = 0\n 52844: u64 [a3 + 1160] = 0\n 52848: u64 [a3 + 1216] = 0\n 52852: u64 [a3 + 0x4b8] = a0\n 52856: a0 = u64 [a5 + 0xd0]\n 52860: u64 [a3 + 0x4b0] = a0\n 52864: a0 = u64 [0x20020]\n 52869: a1 = u64 [0x20028]\n 52874: a2 = u64 [0x20030]\n 52879: a4 = u64 [a5 + 0xd8]\n 52883: a5 = a3 + 0x400\n 52887: u64 [a5 + 0xa8] = a4\n 52891: u64 [a5 + 0xe0] = a0\n 52895: u64 [a5 + 0xd8] = a1\n 52899: u64 [a5 + 0xd0] = a2\n 52903: a1 = a3\n 52905: a0 = u64 [0x20038]\n 52910: a2 = s1 + 0x1e20\n 52914: a3 = s1 + 0x1e00\n 52918: a4 = s1 + 0x1de0\n 52922: u64 [a1 + 0x4c8] = a0\n 52926: a0 = 0\n 52928: a1 = 0\n 52930: ra = 2188, jump @27\n      : @1903 [@dyn 1094] (gas: 2)\n 52937: a1 = 0x201b0\n 52942: jump @405\n      : @1904 (gas: 10)\n 52946: a0 = s1 + 0x4158\n 52950: u64 [a0 + 1112] = 0\n 52954: u64 [a0 + 1104] = 0\n 52958: u64 [a0 + 1096] = 0\n 52962: a2 = a0\n 52964: a0 = 0x1e4fbdf700000000\n 52974: a1 = s1 + 0x45a0\n 52978: u64 [a2 + 0x460] = a0\n 52982: a0 = 0\n 52984: ra = 2190, jump @19\n      : @1905 [@dyn 1095] (gas: 9)\n 52991: a0 = s1 + 0x4158\n 52995: u64 [a0 + 1088] = 0\n 52999: u64 [a0 + 1080] = 0\n 53003: u64 [a0 + 1072] = 0\n 53007: a2 = a0\n 53009: a0 = 0x4\n 53012: a1 = s1 + 0x4580\n 53016: u64 [a2 + 1064] = 0\n 53020: ra = 2192, jump @19\n      : @1906 [@dyn 1096] (gas: 2)\n 53027: a1 = i32 [0x201a4]\n 53032: jump @1908 if a1 >u 63\n      : @1907 (gas: 3)\n 53036: u32 [0x201a4] = 0x40\n 53042: a1 = 0x201b0\n 53047: jump @1677\n      : @1908 (gas: 2)\n 53050: a1 = 0x201b0\n 53055: jump @1677\n      : @1909 (gas: 21)\n 53058: sp = sp + 0xffffffffffffff10\n 53062: u64 [sp + 0xe8] = ra\n 53066: u64 [sp + 0xe0] = s0\n 53070: u64 [sp + 0xd8] = s1\n 53074: s0 = sp + 0xf0\n 53078: sp = sp & 0xfffffffffffffff0\n 53081: a5 = u64 [a1 + 0x10]\n 53084: a4 = u64 [a1 + 0x18]\n 53087: a3 = u64 [a1 + 0x8]\n 53090: a1 = u64 [a1]\n 53092: u64 [sp + 0x28] = a3\n 53095: u64 [sp + 0x18] = a4\n 53098: a4 = a4 | a3\n 53101: a3 = a1 | a5\n 53104: a3 = a3 | a4\n 53107: a3 = a3 >> 0x20\n 53110: u64 [sp + 0x20] = a5\n 53113: a4 = a4 | a5\n 53116: a4 = a4 << 0x20\n 53119: a3 = a3 | a4\n 53122: jump @1924 if a3 != 0\n      : @1910 (gas: 11)\n 53126: u64 [sp + 0x8] = a0\n 53129: a0 = u64 [a2 + 0x18]\n 53132: u64 [sp + 0x68] = a0\n 53135: s1 = u64 [a2 + 0x10]\n 53138: a0 = u64 [a2 + 0x8]\n 53141: u64 [sp + 0x60] = a0\n 53144: a0 = u64 [a2]\n 53146: u64 [sp + 0x58] = a0\n 53149: a0 = sp + 0xb0\n 53153: u64 [sp + 0x10] = a1\n 53156: ra = 2194, jump @17\n      : @1911 [@dyn 1097] (gas: 12)\n 53163: a0 = u64 [sp + 0x58]\n 53166: a2 = a0 | s1\n 53169: a1 = u64 [sp + 0x68]\n 53172: a3 = u64 [sp + 0x60]\n 53175: a1 = a1 | a3\n 53178: a2 = a2 | a1\n 53181: a2 = a2 >> 0x20\n 53184: u64 [sp + 0x50] = s1\n 53187: a1 = a1 | s1\n 53190: a1 = a1 << 0x20\n 53193: a1 = a1 | a2\n 53196: jump @1924 if a1 != 0\n      : @1912 (gas: 15)\n 53200: a2 = u64 [sp + 0xc8]\n 53204: a3 = u64 [sp + 0xc0]\n 53208: a4 = u64 [sp + 0xb8]\n 53212: a1 = u64 [sp + 0xb0]\n 53216: u64 [sp + 0x30] = a1\n 53219: u64 [sp + 0x90] = a1\n 53223: u64 [sp + 0x38] = a4\n 53226: u64 [sp + 0x98] = a4\n 53230: u64 [sp + 0x40] = a3\n 53233: u64 [sp + 0xa0] = a3\n 53237: a1 = sp + 0x90\n 53241: u64 [sp + 0x48] = a2\n 53244: u64 [sp + 0xa8] = a2\n 53248: s1 = a0\n 53250: ra = 2196, jump @19\n      : @1913 [@dyn 1098] (gas: 9)\n 53257: a0 = u64 [sp + 0x68]\n 53260: a1 = u64 [sp + 0x50]\n 53263: a1 = a1 | a0\n 53266: a0 = 0xffffffe0\n 53276: a2 = s1 <u a0\n 53279: a3 = u64 [sp + 0x60]\n 53282: a2 = 0 if a3 != 0\n 53284: a2 = 0 if a1 != 0\n 53286: jump @1924 if a2 == 0\n      : @1914 (gas: 9)\n 53290: a1 = u64 [sp + 0x20]\n 53293: a2 = u64 [sp + 0x18]\n 53296: a1 = a1 | a2\n 53299: a2 = u64 [sp + 0x10]\n 53302: a0 = a2 <u a0\n 53305: a3 = u64 [sp + 0x28]\n 53308: a0 = 0 if a3 != 0\n 53310: a0 = 0 if a1 != 0\n 53312: jump @1924 if a0 == 0\n      : @1915 (gas: 13)\n 53316: a5 = s1\n 53318: s1 = u64 [sp + 0x30]\n 53321: a3 = u64 [sp + 0x40]\n 53324: a0 = s1 | a3\n 53327: a1 = u64 [sp + 0x48]\n 53330: a4 = u64 [sp + 0x38]\n 53333: a1 = a1 | a4\n 53336: a0 = a0 | a1\n 53339: a0 = a0 >> 0x20\n 53342: a1 = a1 | a3\n 53345: a1 = a1 << 0x20\n 53348: a0 = a0 | a1\n 53351: jump @1924 if a0 != 0\n      : @1916 (gas: 5)\n 53355: i32 a0 = a5 + 0x20\n 53358: i32 a1 = a2 + 0x20\n 53361: u64 [sp + 0x28] = a1\n 53364: a1 = s1\n 53366: ra = 2198, jump @32\n      : @1917 [@dyn 1099] (gas: 4)\n 53373: u64 [sp + 0x20] = a0\n 53376: a0 = u64 [sp + 0x28]\n 53379: a1 = s1\n 53381: ra = 2200, jump @32\n      : @1918 [@dyn 1100] (gas: 4)\n 53388: a1 = a0\n 53390: a0 = u64 [sp + 0x20]\n 53393: a2 = s1\n 53395: ra = 2202, jump @0\n      : @1919 [@dyn 1101] (gas: 6)\n 53402: a0 = u64 [sp + 0x58]\n 53405: a0 = a0 + s1\n 53408: a1 = a0 <u s1\n 53411: a2 = u64 [sp + 0x60]\n 53414: a4 = u64 [sp + 0x38]\n 53417: t0 = 2204, jump @2308\n      : @1920 [@dyn 1102] (gas: 17)\n 53423: a1 = u64 [sp + 0x50]\n 53426: a3 = u64 [sp + 0x40]\n 53429: a1 = a1 + a3\n 53432: a3 = a1 <u a3\n 53435: a5 = u64 [sp + 0x68]\n 53438: s1 = u64 [sp + 0x48]\n 53441: a5 = a5 + s1\n 53444: a3 = a3 + a5\n 53447: a4 = a4 + a1\n 53450: a1 = a4 <u a1\n 53453: a1 = a1 + a3\n 53456: a1 = a1 | a4\n 53459: a3 = 0xffffffe0\n 53469: a3 = a0 <u a3\n 53472: a3 = 0 if a2 != 0\n 53474: a3 = 0 if a1 != 0\n 53476: jump @1924 if a3 == 0\n      : @1921 (gas: 7)\n 53480: i32 a0 = a0 + 0x20\n 53483: u64 [sp + 136] = 0\n 53487: u64 [sp + 128] = 0\n 53491: u64 [sp + 120] = 0\n 53494: a1 = sp + 0x70\n 53497: u64 [sp + 112] = 0\n 53500: ra = 2206, jump @19\n      : @1922 [@dyn 1103] (gas: 9)\n 53507: s1 = u64 [sp + 0x30]\n 53510: s1 = s1 + 0x1f\n 53513: a0 = 0x1ffffffe0\n 53523: a0 = a0 & s1\n 53526: a1 = u64 [sp + 0x58]\n 53529: a0 = a0 + a1\n 53532: a1 = a0 <u a1\n 53535: a3 = u64 [sp + 0x60]\n 53538: t0 = 2208, jump @2385\n      : @1923 [@dyn 1104] (gas: 24)\n 53544: a1 = u64 [sp + 0x50]\n 53547: a3 = a3 + a1\n 53550: a1 = a3 <u a1\n 53553: a4 = u64 [sp + 0x68]\n 53556: a1 = a1 + a4\n 53559: a4 = a0 + 0x20\n 53562: a0 = a4 <u a0\n 53565: a5 = a2 + a0\n 53568: a2 = a5 <u a2\n 53571: a2 = a0 if a0 == 0\n 53574: a2 = a2 + a3\n 53577: a0 = a2 <u a3\n 53580: a0 = a0 + a1\n 53583: a1 = u64 [sp + 0x8]\n 53586: u64 [a1] = a4\n 53588: u64 [a1 + 0x8] = a5\n 53591: u64 [a1 + 0x10] = a2\n 53594: u64 [a1 + 0x18] = a0\n 53597: sp = s0 + 0xffffffffffffff10\n 53601: ra = u64 [sp + 0xe8]\n 53605: s0 = u64 [sp + 0xe0]\n 53609: s1 = u64 [sp + 0xd8]\n 53613: sp = sp + 0xf0\n 53617: ret\n      : @1924 (gas: 1)\n 53619: trap\n      : @1925 [@dyn 1105] (gas: 7)\n 53620: t0 = a0 >u 0\n 53622: a4 = t1 <u 0xfffffffffffffee0\n 53626: a4 = a4 ^ 0x1\n 53629: a4 = t0 if a0 != 0\n 53632: a1 = a2 | a3\n 53635: a4 = a5 if a1 != 0\n 53638: jump @1929 if a4 != 0\n      : @1926 (gas: 2)\n 53641: a1 = t1 + 0x120\n 53645: t0 = 2212, jump @2319\n      : @1927 [@dyn 1106] (gas: 1)\n 53651: ra = 2214, jump @19\n      : @1928 [@dyn 1107] (gas: 5)\n 53658: sp = s0 + 0xffffffffffffff90\n 53661: ra = u64 [sp + 0x68]\n 53664: s0 = u64 [sp + 0x60]\n 53667: sp = sp + 0x70\n 53670: ret\n      : @1929 (gas: 1)\n 53672: t0 = 2216, jump @2323\n      : @1930 [@dyn 1108] (gas: 1)\n 53678: ra = 2218, jump @19\n      : @1931 [@dyn 1109] (gas: 7)\n 53685: u64 [sp + 24] = 0\n 53688: u64 [sp + 16] = 0\n 53691: u64 [sp + 0] = 0x41\n 53694: a0 = 0x4\n 53697: a1 = sp\n 53699: u64 [sp + 8] = 0\n 53702: ra = 2220, jump @19\n      : @1932 [@dyn 1110] (gas: 2)\n 53709: a1 = i32 [0x201a4]\n 53714: jump @1934 if a1 >u 63\n      : @1933 (gas: 2)\n 53718: u32 [0x201a4] = 0x40\n 53724: fallthrough\n      : @1934 (gas: 8)\n 53725: a1 = 0x201b0\n 53730: i32 a1 = a1 + 0\n 53732: a0 = 0x1\n 53735: a2 = 0x24\n 53738: ra = 0x8ae\n 53742: ecalli 8 // 'seal_return'\n 53744: t0 = 0x8b0\n 53748: jump @2330\n      : @1935 [@dyn 1111] (gas: 1)\n 53751: t0 = 2224, jump @2330\n      : @1936 [@dyn 1112] (gas: 7)\n 53757: t0 = a0 >u 0\n 53759: a4 = t1 <u 0xffffffffffffff80\n 53762: a4 = a4 ^ 0x1\n 53765: a4 = t0 if a0 != 0\n 53768: a1 = a2 | a3\n 53771: a4 = a5 if a1 != 0\n 53774: jump @1940 if a4 != 0\n      : @1937 (gas: 2)\n 53777: a1 = t1 + 0x80\n 53781: t0 = 2226, jump @2319\n      : @1938 [@dyn 1113] (gas: 1)\n 53787: ra = 2228, jump @19\n      : @1939 [@dyn 1114] (gas: 5)\n 53794: sp = s0 + 0xffffffffffffff90\n 53797: ra = u64 [sp + 0x68]\n 53800: s0 = u64 [sp + 0x60]\n 53803: sp = sp + 0x70\n 53806: ret\n      : @1940 (gas: 1)\n 53808: t0 = 2230, jump @2323\n      : @1941 [@dyn 1115] (gas: 1)\n 53814: ra = 2232, jump @19\n      : @1942 [@dyn 1116] (gas: 7)\n 53821: u64 [sp + 24] = 0\n 53824: u64 [sp + 16] = 0\n 53827: u64 [sp + 0] = 0x41\n 53830: a0 = 0x4\n 53833: a1 = sp\n 53835: u64 [sp + 8] = 0\n 53838: ra = 2234, jump @19\n      : @1943 [@dyn 1117] (gas: 2)\n 53845: a1 = i32 [0x201a4]\n 53850: jump @1945 if a1 >u 63\n      : @1944 (gas: 2)\n 53854: u32 [0x201a4] = 0x40\n 53860: fallthrough\n      : @1945 (gas: 7)\n 53861: a1 = 0x201b0\n 53866: i32 a1 = a1 + 0\n 53868: a0 = 0x1\n 53871: a2 = 0x24\n 53874: ra = 0x8bc\n 53878: ecalli 8 // 'seal_return'\n 53880: fallthrough\n      : @1946 [@dyn 1118] (gas: 46)\n 53881: sp = sp + 0xffffffffffffff70\n 53885: u64 [sp + 0x88] = ra\n 53889: u64 [sp + 0x80] = s0\n 53893: u64 [sp + 0x78] = s1\n 53896: s0 = sp + 0x90\n 53900: sp = sp & 0xfffffffffffffff0\n 53903: t0 = a0\n 53905: a2 = u64 [a1]\n 53907: t2 = u64 [a0 + 0x8]\n 53910: a5 = u64 [a1 + 0x8]\n 53913: t1 = u64 [a0]\n 53915: a3 = a2 + 0x1f\n 53918: ra = a3 <u a2\n 53921: a2 = a5 + ra\n 53924: a3 = a3 & 0xffffffffffffffe0\n 53927: u64 [sp + 0x8] = t1\n 53930: t1 = t1 + a3\n 53933: a4 = t1 <u a3\n 53936: a3 = a2 + t2\n 53939: a3 = a3 + a4\n 53942: s1 = a3 ^ a2\n 53945: a0 = a3 <u a2\n 53948: a0 = a4 if s1 == 0\n 53951: a4 = u64 [t0 + 0x18]\n 53954: a5 = a2 <u a5\n 53957: s1 = u64 [a1 + 0x10]\n 53960: t0 = u64 [t0 + 0x10]\n 53963: a1 = u64 [a1 + 0x18]\n 53966: a5 = ra if ra == 0\n 53969: a5 = a5 + s1\n 53972: s1 = a5 <u s1\n 53975: a2 = a5 + t0\n 53978: a0 = a0 + a2\n 53981: a5 = a2 <u a5\n 53984: a2 = a0 <u a2\n 53987: a1 = a1 + a4\n 53990: a1 = a1 + s1\n 53993: a1 = a1 + a5\n 53996: a5 = a1 + a2\n 53999: a1 = a5 >u 0\n 54001: a2 = a0 >u 0\n 54003: a2 = a1 if a5 != 0\n 54006: a1 = a0 | a5\n 54009: s1 = a3 >u 0\n 54011: s1 = a2 if a1 != 0\n 54014: jump @1950 if s1 != 0\n      : @1947 (gas: 13)\n 54017: a1 = u64 [sp + 0x8]\n 54020: a1 = t1 <u a1\n 54023: a2 = a3 ^ t2\n 54026: s1 = a3 <u t2\n 54029: s1 = a1 if a2 == 0\n 54032: a1 = a0 <u t0\n 54035: a2 = a5 ^ a4\n 54038: a4 = a5 <u a4\n 54041: a4 = a1 if a2 == 0\n 54044: a1 = a0 ^ t0\n 54047: a1 = a1 | a2\n 54050: a4 = s1 if a1 == 0\n 54053: jump @1950 if a4 != 0\n      : @1948 (gas: 7)\n 54056: u64 [sp + 0x50] = t1\n 54059: u64 [sp + 0x58] = a3\n 54062: u64 [sp + 0x60] = a0\n 54065: a0 = 0x40\n 54068: a1 = sp + 0x50\n 54071: u64 [sp + 0x68] = a5\n 54074: ra = 2238, jump @19\n      : @1949 [@dyn 1119] (gas: 6)\n 54081: sp = s0 + 0xffffffffffffff70\n 54085: ra = u64 [sp + 0x88]\n 54089: s0 = u64 [sp + 0x80]\n 54093: s1 = u64 [sp + 0x78]\n 54096: sp = sp + 0x90\n 54100: ret\n      : @1950 (gas: 6)\n 54102: u64 [sp + 64] = 0\n 54105: u64 [sp + 56] = 0\n 54108: u64 [sp + 48] = 0\n 54111: t0 = 0x8c0\n 54115: a0 = 0x4e487b7100000000\n 54125: fallthrough\n      : @1951 [@dyn 1120] (gas: 4)\n 54126: a1 = sp + 0x30\n 54129: u64 [sp + 0x48] = a0\n 54132: a0 = 0\n 54134: ra = 2242, jump @19\n      : @1952 [@dyn 1121] (gas: 7)\n 54141: u64 [sp + 40] = 0\n 54144: u64 [sp + 32] = 0\n 54147: u64 [sp + 16] = 0x41\n 54151: a0 = 0x4\n 54154: a1 = sp + 0x10\n 54157: u64 [sp + 24] = 0\n 54160: ra = 2244, jump @19\n      : @1953 [@dyn 1122] (gas: 2)\n 54167: a1 = i32 [0x201a4]\n 54172: jump @1955 if a1 >u 63\n      : @1954 (gas: 2)\n 54176: u32 [0x201a4] = 0x40\n 54182: fallthrough\n      : @1955 (gas: 7)\n 54183: a1 = 0x201b0\n 54188: i32 a1 = a1 + 0\n 54190: a0 = 0x1\n 54193: a2 = 0x24\n 54196: ra = 0x8c6\n 54200: ecalli 8 // 'seal_return'\n 54202: fallthrough\n      : @1956 [@dyn 1123] (gas: 37)\n 54203: sp = sp + 0xfffffffffffffe20\n 54207: u64 [sp + 0x1d8] = ra\n 54211: u64 [sp + 0x1d0] = s0\n 54215: u64 [sp + 0x1c8] = s1\n 54219: s0 = sp + 0x1e0\n 54223: sp = sp & 0xffffffffffffffe0\n 54226: ra = u64 [a1]\n 54228: a4 = u64 [a2 + 0x8]\n 54231: t2 = u64 [a1 + 0x8]\n 54234: s1 = u64 [a2]\n 54236: a3 = ra + 0x1f\n 54239: t0 = a3 <u ra\n 54242: a5 = t2 + t0\n 54245: u64 [sp + 0x50] = s1\n 54248: t1 = a3 <u s1\n 54251: a3 = a5 ^ a4\n 54254: u64 [sp + 0x60] = a4\n 54257: a4 = a5 <u a4\n 54260: a4 = t1 if a3 == 0\n 54263: s1 = u64 [a1 + 0x10]\n 54266: a3 = a5 <u t2\n 54269: a3 = t0 if t0 == 0\n 54272: a5 = u64 [a2 + 0x18]\n 54275: t0 = u64 [a1 + 0x18]\n 54278: t1 = u64 [a2 + 0x10]\n 54281: a3 = a3 + s1\n 54284: a1 = a3 <u s1\n 54287: a1 = a1 + t0\n 54290: a2 = a1 ^ a5\n 54293: u64 [sp + 0x40] = a5\n 54296: a1 = a1 <s a5\n 54299: a5 = a3 <u t1\n 54302: a1 = a5 if a2 == 0\n 54305: a3 = a3 ^ t1\n 54308: a2 = a2 | a3\n 54311: a4 = a1 if a2 != 0\n 54314: jump @1974 if a4 == 0\n      : @1957 (gas: 12)\n 54318: u64 [sp + 0x48] = t1\n 54321: a2 = ra | s1\n 54324: u64 [sp + 0x70] = t2\n 54327: u64 [sp + 0x58] = t0\n 54330: a1 = t2 | t0\n 54333: a2 = a2 | a1\n 54336: a2 = a2 >> 0x20\n 54339: u64 [sp + 0x68] = s1\n 54342: a1 = a1 | s1\n 54345: a1 = a1 << 0x20\n 54348: a1 = a1 | a2\n 54351: jump @1973 if a1 != 0\n      : @1958 (gas: 7)\n 54355: u64 [sp + 0x18] = a0\n 54358: u64 [sp + 0x78] = ra\n 54361: i32 a1 = ra + 0\n 54363: i32 a0 = sp + 0x1a0\n 54367: u64 [sp + 0x20] = a1\n 54370: ecalli 1 // 'call_data_load'\n 54372: fallthrough\n      : @1959 (gas: 12)\n 54373: a2 = u64 [sp + 0x1b8]\n 54377: a3 = u64 [sp + 0x1b0]\n 54381: a4 = u64 [sp + 0x1a8]\n 54385: a0 = a2 >u 0\n 54387: a1 = a3 >u 0\n 54389: a1 = a0 if a2 != 0\n 54392: u64 [sp + 0xb0] = a2\n 54396: u64 [sp + 0xa8] = a3\n 54400: a0 = a3 | a2\n 54403: a2 = a4 >u 0\n 54405: a2 = a1 if a0 != 0\n 54408: jump @1975 if a2 != 0\n      : @1960 (gas: 19)\n 54412: a1 = u64 [sp + 0x1a0]\n 54416: a0 = a1 + 0x1f\n 54419: u64 [sp + 0x98] = a1\n 54423: a1 = a0 <u a1\n 54426: a1 = a1 + a4\n 54429: a1 = a1 & 0x1\n 54432: a0 = a0 & 0xffffffffffffffe0\n 54435: a2 = a0 + 0x20\n 54438: u64 [sp + 0x28] = a2\n 54441: a0 = a2 <u a0\n 54444: a2 = a1 + a0\n 54447: u64 [sp + 0x30] = a2\n 54450: a1 = a2 <u a1\n 54453: a1 = a0 if a0 == 0\n 54456: u64 [sp + 0x38] = a1\n 54459: a0 = sp + 0x180\n 54463: a1 = 0x40\n 54466: u64 [sp + 0xb8] = a4\n 54470: ra = 2248, jump @17\n      : @1961 [@dyn 1124] (gas: 21)\n 54477: a0 = u64 [sp + 0x198]\n 54481: u64 [sp + 0xa0] = a0\n 54485: s1 = u64 [sp + 0x190]\n 54489: a2 = u64 [sp + 0x188]\n 54493: u64 [sp + 0x90] = a2\n 54497: a3 = u64 [sp + 0x180]\n 54501: u64 [sp + 0x88] = a3\n 54505: u64 [sp + 344] = 0\n 54509: a1 = u64 [sp + 0x28]\n 54512: u64 [sp + 0x140] = a1\n 54516: u64 [sp + 0x178] = a0\n 54520: u64 [sp + 0x170] = s1\n 54524: u64 [sp + 0x168] = a2\n 54528: u64 [sp + 0x160] = a3\n 54532: a0 = u64 [sp + 0x30]\n 54535: u64 [sp + 0x148] = a0\n 54539: a0 = sp + 0x160\n 54543: a1 = sp + 0x140\n 54547: a2 = u64 [sp + 0x38]\n 54550: u64 [sp + 0x150] = a2\n 54554: ra = 2250, jump @1946\n      : @1962 [@dyn 1125] (gas: 12)\n 54560: a0 = u64 [sp + 0x88]\n 54564: a1 = u64 [sp + 0xa0]\n 54568: a2 = u64 [sp + 0x90]\n 54572: a2 = a2 | a1\n 54575: a1 = a0 | s1\n 54578: a1 = a1 | a2\n 54581: a1 = a1 >> 0x20\n 54584: u64 [sp + 0x80] = s1\n 54588: a2 = a2 | s1\n 54591: a2 = a2 << 0x20\n 54594: a1 = a1 | a2\n 54597: jump @1973 if a1 != 0\n      : @1963 (gas: 10)\n 54601: s1 = u64 [sp + 0x98]\n 54605: u64 [sp + 0x120] = s1\n 54609: a1 = u64 [sp + 0xb8]\n 54613: u64 [sp + 0x128] = a1\n 54617: a1 = u64 [sp + 0xa8]\n 54621: u64 [sp + 0x130] = a1\n 54625: a1 = sp + 0x120\n 54629: a2 = u64 [sp + 0xb0]\n 54633: u64 [sp + 0x138] = a2\n 54637: ra = 2252, jump @19\n      : @1964 [@dyn 1126] (gas: 46)\n 54644: a0 = u64 [sp + 0x78]\n 54647: a3 = a0 + s1\n 54650: a2 = a3 <u a0\n 54653: t2 = u64 [sp + 0x70]\n 54656: a0 = u64 [sp + 0xb8]\n 54660: a0 = a0 + t2\n 54663: a0 = a0 + a2\n 54666: a4 = a0 ^ t2\n 54669: a1 = a0 <u t2\n 54672: a1 = a2 if a4 == 0\n 54675: ra = u64 [sp + 0x68]\n 54678: a2 = u64 [sp + 0xa8]\n 54682: a2 = a2 + ra\n 54685: a5 = a3 + 0x20\n 54688: t0 = a5 <u a3\n 54691: a4 = a0 + t0\n 54694: a3 = u64 [sp + 0x50]\n 54697: a5 = a3 <u a5\n 54700: a3 = u64 [sp + 0x60]\n 54703: s1 = a4 ^ a3\n 54706: a3 = a3 <u a4\n 54709: a5 = a3 if s1 != 0\n 54712: a3 = a2 <u ra\n 54715: t1 = u64 [sp + 0x58]\n 54718: s1 = u64 [sp + 0xb0]\n 54722: s1 = s1 + t1\n 54725: a3 = a3 + s1\n 54728: a1 = a1 + a2\n 54731: a2 = a1 <u a2\n 54734: a2 = a2 + a3\n 54737: a0 = a4 <u a0\n 54740: a0 = t0 if t0 == 0\n 54743: a0 = a0 + a1\n 54746: a1 = a0 <u a1\n 54749: a1 = a1 + a2\n 54752: a3 = u64 [sp + 0x40]\n 54755: a2 = a1 ^ a3\n 54758: a1 = a3 <u a1\n 54761: a4 = u64 [sp + 0x48]\n 54764: a3 = a4 <u a0\n 54767: a1 = a3 if a2 == 0\n 54770: a0 = a0 ^ a4\n 54773: a0 = a0 | a2\n 54776: a5 = a1 if a0 != 0\n 54779: a3 = u64 [sp + 0xb8]\n 54783: jump @1981 if a5 != 0\n      : @1965 (gas: 7)\n 54787: a0 = ra | t1\n 54790: a1 = 0xffffffe0\n 54800: a2 = u64 [sp + 0x78]\n 54803: a1 = a2 <u a1\n 54806: a1 = 0 if t2 != 0\n 54808: a1 = 0 if a0 != 0\n 54810: jump @1973 if a1 == 0\n      : @1966 (gas: 15)\n 54814: a2 = u64 [sp + 0xa8]\n 54818: a5 = u64 [sp + 0x98]\n 54822: a0 = a5 | a2\n 54825: a1 = u64 [sp + 0xb0]\n 54829: a1 = a1 | a3\n 54832: a0 = a0 | a1\n 54835: a0 = a0 >> 0x20\n 54838: a1 = a1 | a2\n 54841: a1 = a1 << 0x20\n 54844: a0 = a0 | a1\n 54847: a2 = u64 [sp + 0x88]\n 54851: s1 = u64 [sp + 0x90]\n 54855: a3 = u64 [sp + 0x80]\n 54859: a4 = u64 [sp + 0xa0]\n 54863: jump @1973 if a0 != 0\n      : @1967 (gas: 7)\n 54867: a0 = a3 | a4\n 54870: a1 = 0xffffffe0\n 54880: u64 [sp + 0x78] = a1\n 54883: a1 = a2 <u a1\n 54886: a1 = 0 if s1 != 0\n 54888: a1 = 0 if a0 != 0\n 54890: jump @1973 if a1 == 0\n      : @1968 (gas: 7)\n 54894: a0 = u64 [sp + 0x20]\n 54897: i32 a0 = a0 + 0x20\n 54900: u64 [sp + 0x70] = a0\n 54903: i32 a0 = a2 + 0x20\n 54906: a1 = a5\n 54908: s1 = a2\n 54910: ra = 2254, jump @32\n      : @1969 [@dyn 1127] (gas: 5)\n 54917: i32 a0 = a0 + 0\n 54919: a1 = i32 [sp + 0x98]\n 54923: a2 = u64 [sp + 0x70]\n 54926: ecalli 0 // 'call_data_copy'\n 54927: fallthrough\n      : @1970 (gas: 27)\n 54928: t0 = u64 [sp + 0x98]\n 54932: t0 = t0 + s1\n 54935: a1 = t0 <u s1\n 54938: a2 = u64 [sp + 0xb8]\n 54942: a0 = u64 [sp + 0x90]\n 54946: a2 = a2 + a0\n 54949: a2 = a2 + a1\n 54952: a3 = a2 ^ a0\n 54955: a4 = a2 <u a0\n 54958: a4 = a1 if a3 == 0\n 54961: a1 = u64 [sp + 0xa8]\n 54965: a3 = u64 [sp + 0x80]\n 54969: a1 = a1 + a3\n 54972: a3 = a1 <u a3\n 54975: a5 = u64 [sp + 0xb0]\n 54979: s1 = u64 [sp + 0xa0]\n 54983: a5 = a5 + s1\n 54986: a3 = a3 + a5\n 54989: a4 = a4 + a1\n 54992: a1 = a4 <u a1\n 54995: a1 = a1 + a3\n 54998: a1 = a1 | a4\n 55001: a3 = u64 [sp + 0x78]\n 55004: a3 = t0 <u a3\n 55007: a3 = 0 if a2 != 0\n 55009: a3 = 0 if a1 != 0\n 55011: jump @1973 if a3 == 0\n      : @1971 (gas: 8)\n 55014: s1 = a0\n 55016: i32 a0 = t0 + 0x20\n 55019: u64 [sp + 280] = 0\n 55023: u64 [sp + 272] = 0\n 55027: u64 [sp + 264] = 0\n 55031: a1 = sp + 0x100\n 55035: u64 [sp + 256] = 0\n 55039: ra = 2256, jump @19\n      : @1972 [@dyn 1128] (gas: 14)\n 55046: a0 = u64 [sp + 0x18]\n 55049: a1 = u64 [sp + 0xa0]\n 55053: u64 [a0 + 0x18] = a1\n 55056: a1 = u64 [sp + 0x80]\n 55060: u64 [a0 + 0x10] = a1\n 55063: u64 [a0 + 0x8] = s1\n 55066: a1 = u64 [sp + 0x88]\n 55070: u64 [a0] = a1\n 55072: sp = s0 + 0xfffffffffffffe20\n 55076: ra = u64 [sp + 0x1d8]\n 55080: s0 = u64 [sp + 0x1d0]\n 55084: s1 = u64 [sp + 0x1c8]\n 55088: sp = sp + 0x1e0\n 55092: ret\n      : @1973 (gas: 1)\n 55094: trap\n      : @1974 (gas: 2)\n 55095: a1 = 0x201b0\n 55100: jump @1982\n      : @1975 (gas: 6)\n 55102: u64 [sp + 240] = 0\n 55106: u64 [sp + 232] = 0\n 55110: u64 [sp + 224] = 0\n 55114: t0 = 0x8d2\n 55118: a0 = 0x4e487b7100000000\n 55128: fallthrough\n      : @1976 [@dyn 1129] (gas: 4)\n 55129: a1 = sp + 0xe0\n 55133: u64 [sp + 0xf8] = a0\n 55137: a0 = 0\n 55139: ra = 2260, jump @19\n      : @1977 [@dyn 1130] (gas: 7)\n 55146: u64 [sp + 216] = 0\n 55150: u64 [sp + 208] = 0\n 55154: u64 [sp + 192] = 0x41\n 55159: a0 = 0x4\n 55162: a1 = sp + 0xc0\n 55166: u64 [sp + 200] = 0\n 55170: ra = 2262, jump @19\n      : @1978 [@dyn 1131] (gas: 2)\n 55177: a1 = i32 [0x201a4]\n 55182: jump @1980 if a1 >u 63\n      : @1979 (gas: 2)\n 55186: u32 [0x201a4] = 0x40\n 55192: fallthrough\n      : @1980 (gas: 7)\n 55193: a1 = 0x201b0\n 55198: i32 a1 = a1 + 0\n 55200: a0 = 0x1\n 55203: a2 = 0x24\n 55206: ecalli 8 // 'seal_return'\n 55208: a1 = 0x201b0\n 55213: jump @1982\n      : @1981 (gas: 2)\n 55215: a1 = 0x201b0\n 55220: fallthrough\n      : @1982 (gas: 7)\n 55221: i32 a1 = a1 + 0\n 55223: a0 = 0x1\n 55226: a2 = 0\n 55228: ra = 0x8d8\n 55232: ecalli 8 // 'seal_return'\n 55234: t0 = 0x8da\n 55238: jump @2396\n      : @1983 [@dyn 1132] (gas: 1)\n 55241: t0 = 2266, jump @2396\n      : @1984 [@dyn 1133] (gas: 5)\n 55247: a1 = 0x24\n 55250: ra = 0x8dc\n 55254: ecalli 1 // 'call_data_load'\n 55256: t0 = 0x8de\n 55260: jump @2346\n      : @1985 [@dyn 1134] (gas: 1)\n 55263: t0 = 2270, jump @2346\n      : @1986 [@dyn 1135] (gas: 1)\n 55269: jump @1989 if a3 == 0\n      : @1987 (gas: 1)\n 55272: t0 = 2272, jump @2366\n      : @1988 [@dyn 1136] (gas: 1)\n 55278: ret\n      : @1989 (gas: 8)\n 55280: a1 = 0x201b0\n 55285: i32 a1 = a1 + 0\n 55287: a0 = 0x1\n 55290: a2 = 0\n 55292: ra = 0x8e2\n 55296: ecalli 8 // 'seal_return'\n 55298: t0 = 0x8e4\n 55302: jump @2396\n      : @1990 [@dyn 1137] (gas: 1)\n 55305: t0 = 2276, jump @2396\n      : @1991 [@dyn 1138] (gas: 5)\n 55311: a1 = 0x4\n 55314: ra = 0x8e6\n 55318: ecalli 1 // 'call_data_load'\n 55320: t0 = 0x8e8\n 55324: jump @2346\n      : @1992 [@dyn 1139] (gas: 1)\n 55327: t0 = 2280, jump @2346\n      : @1993 [@dyn 1140] (gas: 1)\n 55333: jump @1996 if a3 == 0\n      : @1994 (gas: 1)\n 55336: t0 = 2282, jump @2366\n      : @1995 [@dyn 1141] (gas: 1)\n 55342: ret\n      : @1996 (gas: 7)\n 55344: a1 = 0x201b0\n 55349: i32 a1 = a1 + 0\n 55351: a0 = 0x1\n 55354: a2 = 0\n 55356: ra = 0x8ec\n 55360: ecalli 8 // 'seal_return'\n 55362: fallthrough\n      : @1997 [@dyn 1142] (gas: 31)\n 55363: sp = sp + 0xfffffffffffffee0\n 55367: u64 [sp + 0x118] = ra\n 55371: u64 [sp + 0x110] = s0\n 55375: u64 [sp + 0x108] = s1\n 55379: s0 = sp + 0x120\n 55383: sp = sp & 0xffffffffffffffe0\n 55386: s1 = sp\n 55388: u64 [s1 + 0x38] = a0\n 55391: a0 = u64 [a2]\n 55393: u64 [s1 + 0x48] = a0\n 55396: a0 = u64 [a2 + 0x8]\n 55399: u64 [s1 + 0x40] = a0\n 55402: a0 = u64 [a2 + 0x10]\n 55405: u64 [s1 + 0x50] = a0\n 55408: a0 = u64 [a2 + 0x18]\n 55411: u64 [s1 + 0x58] = a0\n 55414: a0 = u64 [a1 + 0x18]\n 55417: a2 = u64 [a1 + 0x10]\n 55420: a3 = u64 [a1 + 0x8]\n 55423: a1 = u64 [a1]\n 55425: u64 [s1 + 0x30] = a0\n 55428: u64 [s1 + 0xf8] = a0\n 55432: u64 [s1 + 0x28] = a2\n 55435: u64 [s1 + 0xf0] = a2\n 55439: u64 [s1 + 0x20] = a3\n 55442: u64 [s1 + 0xe8] = a3\n 55446: u64 [s1 + 0x18] = a1\n 55449: u64 [s1 + 0xe0] = a1\n 55453: a0 = s1 + 0xc0\n 55457: a1 = s1 + 0xe0\n 55461: ra = 2286, jump @21\n      : @1998 [@dyn 1143] (gas: 20)\n 55468: a0 = u64 [s1 + 0xd8]\n 55472: t0 = u64 [s1 + 0xc0]\n 55476: a2 = u64 [s1 + 0xd0]\n 55480: a3 = u64 [s1 + 0xc8]\n 55484: a1 = u64 [s1 + 0x58]\n 55487: a4 = a0 ^ a1\n 55490: a1 = a1 <u a0\n 55493: a0 = u64 [s1 + 0x50]\n 55496: a5 = a0 <u a2\n 55499: a5 = a1 if a4 != 0\n 55502: a1 = u64 [s1 + 0x40]\n 55505: t1 = a3 ^ a1\n 55508: a3 = a1 <u a3\n 55511: a1 = u64 [s1 + 0x48]\n 55514: a1 = a1 <u t0\n 55517: a1 = a3 if t1 != 0\n 55520: a0 = a0 ^ a2\n 55523: a0 = a0 | a4\n 55526: a1 = a5 if a0 != 0\n 55529: jump @2003 if a1 == 0\n      : @1999 (gas: 11)\n 55533: a0 = u64 [s1 + 0x18]\n 55536: u64 [s1 + 0x60] = a0\n 55539: a0 = u64 [s1 + 0x20]\n 55542: u64 [s1 + 0x68] = a0\n 55545: a0 = u64 [s1 + 0x28]\n 55548: u64 [s1 + 0x70] = a0\n 55551: a1 = s1 + 0x60\n 55554: a0 = u64 [s1 + 0x30]\n 55557: u64 [s1 + 0x78] = a0\n 55560: a0 = 0\n 55562: ra = 2288, jump @19\n      : @2000 [@dyn 1144] (gas: 2)\n 55569: a1 = i32 [0x201a4]\n 55574: jump @2002 if a1 >u 31\n      : @2001 (gas: 2)\n 55578: u32 [0x201a4] = 0x20\n 55584: fallthrough\n      : @2002 (gas: 52)\n 55585: a0 = sp + 0xffffffffffffffe0\n 55588: a2 = a0 & 0xffffffffffffffe0\n 55591: u64 [s1 + 0x30] = a2\n 55594: sp = a2\n 55596: a0 = 0x201b0\n 55601: i32 a0 = a0 + 0\n 55603: i32 a2 = a2 + 0\n 55605: a1 = 0x20\n 55608: ecalli 6 // 'hash_keccak_256'\n 55610: a3 = u64 [s1 + 0x30]\n 55613: a0 = u64 [a3]\n 55615: a1 = u64 [a3 + 0x8]\n 55618: a2 = u64 [a3 + 0x18]\n 55621: a3 = u64 [a3 + 0x10]\n 55624: t0 = reverse a0\n 55626: a1 = reverse a1\n 55628: a2 = reverse a2\n 55630: a3 = reverse a3\n 55632: a4 = u64 [s1 + 0x40]\n 55635: a4 = a4 + a3\n 55638: t1 = u64 [s1 + 0x48]\n 55641: t1 = t1 + a2\n 55644: a2 = t1 <u a2\n 55647: a4 = a4 + a2\n 55650: a0 = a4 ^ a3\n 55653: a3 = a4 <u a3\n 55656: a3 = a2 if a0 == 0\n 55659: a0 = u64 [s1 + 0x50]\n 55662: a0 = a0 + a1\n 55665: a3 = a3 + a0\n 55668: a2 = a3 <u a0\n 55671: a5 = u64 [s1 + 0x58]\n 55674: t0 = t0 + a5\n 55677: a0 = a0 <u a1\n 55680: a0 = a0 + t0\n 55683: a0 = a0 + a2\n 55686: a1 = u64 [s1 + 0x38]\n 55689: a2 = 0\n 55691: u64 [a1 + 56] = 0\n 55694: u64 [a1 + 48] = 0\n 55697: u64 [a1 + 40] = 0\n 55700: u64 [a1 + 32] = 0\n 55703: u64 [a1] = t1\n 55705: u64 [a1 + 0x8] = a4\n 55708: u64 [a1 + 0x10] = a3\n 55711: u64 [a1 + 0x18] = a0\n 55714: sp = s0 + 0xfffffffffffffee0\n 55718: ra = u64 [sp + 0x118]\n 55722: s0 = u64 [sp + 0x110]\n 55726: s1 = u64 [sp + 0x108]\n 55730: sp = sp + 0x120\n 55734: ret\n      : @2003 (gas: 6)\n 55736: u64 [s1 + 176] = 0\n 55740: u64 [s1 + 168] = 0\n 55744: u64 [s1 + 160] = 0\n 55748: t0 = 0x8f2\n 55752: a0 = 0x4e487b7100000000\n 55762: fallthrough\n      : @2004 [@dyn 1145] (gas: 4)\n 55763: a1 = s1 + 0xa0\n 55767: u64 [s1 + 0xb8] = a0\n 55771: a0 = 0\n 55773: ra = 2292, jump @19\n      : @2005 [@dyn 1146] (gas: 7)\n 55780: u64 [s1 + 152] = 0\n 55784: u64 [s1 + 144] = 0\n 55788: u64 [s1 + 128] = 0x32\n 55793: a0 = 0x4\n 55796: a1 = s1 + 0x80\n 55800: u64 [s1 + 136] = 0\n 55804: ra = 2294, jump @19\n      : @2006 [@dyn 1147] (gas: 2)\n 55811: a1 = i32 [0x201a4]\n 55816: jump @2008 if a1 >u 63\n      : @2007 (gas: 2)\n 55820: u32 [0x201a4] = 0x40\n 55826: fallthrough\n      : @2008 (gas: 7)\n 55827: a1 = 0x201b0\n 55832: i32 a1 = a1 + 0\n 55834: a0 = 0x1\n 55837: a2 = 0x24\n 55840: ra = 0x8f8\n 55844: ecalli 8 // 'seal_return'\n 55846: fallthrough\n      : @2009 [@dyn 1148] (gas: 33)\n 55847: sp = sp + 0xffffffffffffffa0\n 55850: u64 [sp + 0x58] = ra\n 55853: u64 [sp + 0x50] = s0\n 55856: u64 [sp + 0x48] = s1\n 55859: s0 = sp + 0x60\n 55862: sp = sp & 0xfffffffffffffff0\n 55865: a2 = u64 [a1 + 0x10]\n 55868: a5 = u64 [a1 + 0x8]\n 55871: a4 = u64 [a1]\n 55873: a1 = u64 [a1 + 0x18]\n 55876: t0 = a2 << 0x3f\n 55879: a3 = a5 >> 0x1\n 55882: t0 = a3 | t0\n 55885: a3 = a1 << 0x3f\n 55888: a2 = a2 >> 0x1\n 55891: a3 = a3 | a2\n 55894: a5 = a5 << 0x3f\n 55897: a2 = a4 >> 0x1\n 55900: a5 = a5 | a2\n 55903: t1 = a1 >> 0x1\n 55906: a4 = a4 & 0x1\n 55909: a1 = -a4\n 55911: s1 = a4 <u 0x1\n 55914: a2 = a5 & 0x7f\n 55917: t2 = a1 & a3\n 55920: a3 = a1 & t0\n 55923: a2 = a5 if a4 != 0\n 55926: a4 = a1 & t1\n 55929: a1 = a2 <u 0x20\n 55932: a1 = 0 if a3 != 0\n 55934: a5 = t2 | a4\n 55937: a1 = 0 if a5 != 0\n 55939: jump @2012 if s1 != a1\n      : @2010 (gas: 5)\n 55942: u64 [a0] = a2\n 55944: u64 [a0 + 0x8] = a3\n 55947: u64 [a0 + 0x10] = t2\n 55950: u64 [a0 + 0x18] = a4\n 55953: t0 = 2298, jump @2382\n      : @2011 [@dyn 1149] (gas: 1)\n 55959: ret\n      : @2012 (gas: 1)\n 55961: t0 = 2300, jump @2323\n      : @2013 [@dyn 1150] (gas: 1)\n 55967: ra = 2302, jump @19\n      : @2014 [@dyn 1151] (gas: 7)\n 55974: u64 [sp + 24] = 0\n 55977: u64 [sp + 16] = 0\n 55980: u64 [sp + 0] = 0x22\n 55983: a0 = 0x4\n 55986: a1 = sp\n 55988: u64 [sp + 8] = 0\n 55991: ra = 2304, jump @19\n      : @2015 [@dyn 1152] (gas: 2)\n 55998: a1 = i32 [0x201a4]\n 56003: jump @2017 if a1 >u 63\n      : @2016 (gas: 2)\n 56007: u32 [0x201a4] = 0x40\n 56013: fallthrough\n      : @2017 (gas: 7)\n 56014: a1 = 0x201b0\n 56019: i32 a1 = a1 + 0\n 56021: a0 = 0x1\n 56024: a2 = 0x24\n 56027: ra = 0x902\n 56031: ecalli 8 // 'seal_return'\n 56033: fallthrough\n      : @2018 [@dyn 1153] (gas: 24)\n 56034: sp = sp + 0xfffffffffffffda0\n 56038: a2 = sp + 0x200\n 56042: u64 [a2 + 0x58] = ra\n 56045: u64 [a2 + 0x50] = s0\n 56048: u64 [a2 + 0x48] = s1\n 56051: s0 = sp + 0x260\n 56055: sp = sp & 0xffffffffffffffe0\n 56058: s1 = sp\n 56060: u64 [s1 + 0x10] = a0\n 56063: a0 = u64 [a1 + 0x18]\n 56066: a2 = u64 [a1 + 0x10]\n 56069: a3 = u64 [a1 + 0x8]\n 56072: a1 = u64 [a1]\n 56074: u64 [s1 + 0xb0] = a0\n 56078: u64 [s1 + 0x238] = a0\n 56082: u64 [s1 + 0xa8] = a2\n 56086: u64 [s1 + 0x230] = a2\n 56090: u64 [s1 + 0xa0] = a3\n 56094: u64 [s1 + 0x228] = a3\n 56098: u64 [s1 + 0x98] = a1\n 56102: u64 [s1 + 0x220] = a1\n 56106: a0 = s1 + 0x200\n 56110: a1 = 0x40\n 56113: ra = 2308, jump @17\n      : @2019 [@dyn 1154] (gas: 12)\n 56120: a1 = s1 + 0x200\n 56124: a0 = u64 [a1 + 0x18]\n 56127: u64 [s1 + 0x18] = a0\n 56130: a0 = u64 [a1 + 0x10]\n 56133: u64 [s1 + 0x20] = a0\n 56136: a0 = u64 [a1 + 0x8]\n 56139: u64 [s1 + 0x28] = a0\n 56142: a0 = u64 [a1]\n 56144: u64 [s1 + 0x30] = a0\n 56147: a0 = s1 + 0x1e0\n 56151: a1 = s1 + 0x220\n 56155: ra = 2310, jump @21\n      : @2020 [@dyn 1155] (gas: 16)\n 56162: a4 = s1 + 0x100\n 56166: a0 = u64 [a4 + 0xf8]\n 56170: a1 = u64 [a4 + 0xf0]\n 56174: a2 = u64 [a4 + 0xe8]\n 56178: a3 = u64 [a4 + 0xe0]\n 56182: u64 [s1 + 0x90] = a0\n 56186: u64 [a4 + 0xb8] = a0\n 56190: u64 [s1 + 0x88] = a1\n 56194: u64 [a4 + 0xb0] = a1\n 56198: u64 [s1 + 0x80] = a2\n 56202: u64 [a4 + 0xa8] = a2\n 56206: a0 = s1 + 0x1c0\n 56210: a1 = s1 + 0x1a0\n 56214: u64 [s1 + 0xb8] = a3\n 56218: u64 [a4 + 0xa0] = a3\n 56222: ra = 2312, jump @2009\n      : @2021 [@dyn 1156] (gas: 6)\n 56228: a0 = u64 [s1 + 0x30]\n 56231: a1 = u64 [s1 + 0x18]\n 56234: a2 = u64 [s1 + 0x28]\n 56237: a2 = a2 | a1\n 56240: a3 = u64 [s1 + 0x20]\n 56243: t0 = 2314, jump @2394\n      : @2022 [@dyn 1157] (gas: 1)\n 56249: jump @2041 if a1 != 0\n      : @2023 (gas: 15)\n 56253: a5 = s1 + 0x100\n 56257: a2 = u64 [a5 + 0xd8]\n 56261: a3 = u64 [a5 + 0xd0]\n 56265: a1 = u64 [a5 + 0xc8]\n 56269: a4 = u64 [a5 + 0xc0]\n 56273: u64 [s1 + 0x60] = a4\n 56276: u64 [a5 + 0x80] = a4\n 56280: u64 [s1 + 0x70] = a1\n 56283: u64 [a5 + 0x88] = a1\n 56287: u64 [s1 + 0x68] = a3\n 56290: u64 [a5 + 0x90] = a3\n 56294: a1 = s1 + 0x180\n 56298: u64 [s1 + 0x78] = a2\n 56301: u64 [a5 + 0x98] = a2\n 56305: ra = 2316, jump @19\n      : @2024 [@dyn 1158] (gas: 3)\n 56312: a3 = u64 [s1 + 0xb8]\n 56316: a0 = a3 & 0x1\n 56319: jump @2030 if a0 != 0\n      : @2025 (gas: 10)\n 56323: a0 = u64 [s1 + 0x20]\n 56326: a1 = u64 [s1 + 0x18]\n 56329: a0 = a0 | a1\n 56332: a1 = 0xffffffe0\n 56342: a4 = u64 [s1 + 0x30]\n 56345: a1 = a4 <u a1\n 56348: a2 = u64 [s1 + 0x28]\n 56351: a1 = 0 if a2 != 0\n 56353: a1 = 0 if a0 != 0\n 56355: jump @2041 if a1 == 0\n      : @2026 (gas: 12)\n 56359: a1 = a3 & 0xffffffffffffff00\n 56363: i32 a0 = a4 + 0x20\n 56366: a3 = u64 [s1 + 0x80]\n 56370: a2 = s1 + 0x100\n 56374: u64 [a2 + 0x8] = a3\n 56377: u64 [a2] = a1\n 56379: a1 = u64 [s1 + 0x88]\n 56383: u64 [a2 + 0x10] = a1\n 56386: a1 = s1 + 0x100\n 56390: a3 = u64 [s1 + 0x90]\n 56394: u64 [a2 + 0x18] = a3\n 56397: ra = 2318, jump @19\n      : @2027 [@dyn 1159] (gas: 14)\n 56404: t2 = 0\n 56406: t1 = 0\n 56408: t0 = 0\n 56410: a0 = u64 [s1 + 0x68]\n 56413: a1 = u64 [s1 + 0x60]\n 56416: a0 = a0 | a1\n 56419: a1 = u64 [s1 + 0x78]\n 56422: a2 = u64 [s1 + 0x70]\n 56425: a1 = a1 | a2\n 56428: a0 = a0 | a1\n 56431: a0 = a0 >u 0\n 56433: a0 = a0 << 0x5\n 56436: u64 [s1 + 0xb8] = a0\n 56440: fallthrough\n      : @2028 (gas: 24)\n 56441: a1 = u64 [s1 + 0xb8]\n 56445: a0 = a1 + 0x20\n 56448: a1 = a0 <u a1\n 56451: a2 = t2 + a1\n 56454: a3 = a2 <u t2\n 56457: a3 = a1 if a1 == 0\n 56460: a3 = a3 + t1\n 56463: a1 = a3 <u t1\n 56466: a4 = t0 + a1\n 56469: a1 = u64 [s1 + 0x30]\n 56472: u64 [s1 + 0xe0] = a1\n 56476: u64 [s1 + 0xc0] = a0\n 56480: a0 = u64 [s1 + 0x28]\n 56483: u64 [s1 + 0xe8] = a0\n 56487: a0 = u64 [s1 + 0x20]\n 56490: u64 [s1 + 0xf0] = a0\n 56494: u64 [s1 + 0xc8] = a2\n 56498: a0 = u64 [s1 + 0x18]\n 56501: u64 [s1 + 0xf8] = a0\n 56505: u64 [s1 + 0xd0] = a3\n 56509: a0 = s1 + 0xe0\n 56513: a1 = s1 + 0xc0\n 56517: u64 [s1 + 0xd8] = a4\n 56521: ra = 2320, jump @1946\n      : @2029 [@dyn 1160] (gas: 16)\n 56527: a0 = u64 [s1 + 0x10]\n 56530: a1 = u64 [s1 + 0x18]\n 56533: u64 [a0 + 0x18] = a1\n 56536: a1 = u64 [s1 + 0x20]\n 56539: u64 [a0 + 0x10] = a1\n 56542: a1 = u64 [s1 + 0x28]\n 56545: u64 [a0 + 0x8] = a1\n 56548: a1 = u64 [s1 + 0x30]\n 56551: u64 [a0] = a1\n 56553: sp = s0 + 0xfffffffffffffda0\n 56557: a0 = sp + 0x200\n 56561: ra = u64 [a0 + 0x58]\n 56564: s0 = u64 [a0 + 0x50]\n 56567: s1 = u64 [a0 + 0x48]\n 56570: sp = sp + 0x260\n 56574: ret\n      : @2030 (gas: 12)\n 56576: a0 = u64 [s1 + 0x98]\n 56580: a2 = s1 + 0x100\n 56584: u64 [a2 + 0x60] = a0\n 56587: a0 = u64 [s1 + 0xa0]\n 56591: u64 [a2 + 0x68] = a0\n 56594: a0 = u64 [s1 + 0xa8]\n 56598: u64 [a2 + 0x70] = a0\n 56601: a1 = s1 + 0x160\n 56605: a0 = u64 [s1 + 0xb0]\n 56609: u64 [a2 + 0x78] = a0\n 56612: a0 = 0\n 56614: ra = 2322, jump @19\n      : @2031 [@dyn 1161] (gas: 6)\n 56621: a0 = sp + 0xffffffffffffffe0\n 56624: a0 = a0 & 0xffffffffffffffe0\n 56627: u64 [s1 + 0x58] = a0\n 56630: sp = a0\n 56632: a1 = i32 [0x201a4]\n 56637: jump @2033 if a1 >u 31\n      : @2032 (gas: 2)\n 56641: u32 [0x201a4] = 0x20\n 56647: fallthrough\n      : @2033 (gas: 49)\n 56648: a0 = sp + 0xffffffffffffffe0\n 56651: a2 = a0 & 0xffffffffffffffe0\n 56654: u64 [s1 + 0xb0] = a2\n 56658: sp = a2\n 56660: a0 = 0x201b0\n 56665: i32 a0 = a0 + 0\n 56667: i32 a2 = a2 + 0\n 56669: a1 = 0x20\n 56672: ecalli 6 // 'hash_keccak_256'\n 56674: u64 [s1 + 184] = 0\n 56678: t2 = 0\n 56680: t1 = 0\n 56682: t0 = 0\n 56684: a5 = u64 [s1 + 0xb0]\n 56688: a0 = u64 [a5 + 0x18]\n 56691: a1 = u64 [s1 + 0x30]\n 56694: a2 = a1 + 0x20\n 56697: u64 [s1 + 0x50] = a2\n 56700: a1 = a2 <u a1\n 56703: a2 = u64 [s1 + 0x28]\n 56706: a3 = a2 + a1\n 56709: u64 [s1 + 0x48] = a3\n 56712: a4 = a3 <u a2\n 56715: a4 = a1 if a1 == 0\n 56718: a1 = u64 [a5 + 0x10]\n 56721: a2 = u64 [a5 + 0x8]\n 56724: a3 = u64 [a5]\n 56726: a0 = reverse a0\n 56728: a1 = reverse a1\n 56730: ra = reverse a2\n 56732: a2 = reverse a3\n 56734: a5 = u64 [s1 + 0x58]\n 56737: a3 = a2\n 56739: u64 [a5 + 0x18] = a2\n 56742: a2 = ra\n 56744: u64 [s1 + 0x80] = a2\n 56748: u64 [a5 + 0x10] = a2\n 56751: u64 [s1 + 0x90] = a1\n 56755: u64 [a5 + 0x8] = a1\n 56758: a2 = a0\n 56760: u64 [a5] = a0\n 56762: a0 = u64 [s1 + 0x20]\n 56765: a4 = a4 + a0\n 56768: u64 [s1 + 0x40] = a4\n 56771: a0 = a4 <u a0\n 56774: a1 = u64 [s1 + 0x18]\n 56777: a0 = a0 + a1\n 56780: u64 [s1 + 0x38] = a0\n 56783: fallthrough\n      : @2034 (gas: 19)\n 56784: u64 [s1 + 0x88] = a3\n 56788: u64 [s1 + 0x98] = a2\n 56792: a0 = u64 [s1 + 0x60]\n 56795: a1 = u64 [s1 + 0xb8]\n 56799: a0 = a1 <u a0\n 56802: a2 = u64 [s1 + 0x70]\n 56805: a1 = t2 ^ a2\n 56808: a2 = t2 <u a2\n 56811: a2 = a0 if a1 == 0\n 56814: a4 = u64 [s1 + 0x68]\n 56817: a0 = t1 <u a4\n 56820: a3 = u64 [s1 + 0x78]\n 56823: a1 = t0 ^ a3\n 56826: a3 = t0 <u a3\n 56829: a3 = a0 if a1 == 0\n 56832: a0 = t1 ^ a4\n 56835: a0 = a0 | a1\n 56838: a3 = a2 if a0 == 0\n 56841: jump @2028 if a3 == 0\n      : @2035 (gas: 6)\n 56845: a0 = s1 + 0x140\n 56849: a1 = a5\n 56851: u64 [s1 + 0xb0] = t0\n 56855: u64 [s1 + 0xa8] = t1\n 56859: u64 [s1 + 0xa0] = t2\n 56863: ra = 2324, jump @21\n      : @2036 [@dyn 1162] (gas: 7)\n 56870: a1 = u64 [s1 + 0x50]\n 56873: a0 = u64 [s1 + 0xb8]\n 56877: a0 = a0 + a1\n 56880: a1 = a0 <u a1\n 56883: a4 = u64 [s1 + 0x48]\n 56886: a2 = u64 [s1 + 0xa0]\n 56890: t0 = 2326, jump @2308\n      : @2037 [@dyn 1163] (gas: 9)\n 56896: a3 = u64 [s1 + 0x40]\n 56899: a1 = u64 [s1 + 0xa8]\n 56903: a1 = a1 + a3\n 56906: t0 = a1 <u a3\n 56909: a5 = u64 [s1 + 0x38]\n 56912: a3 = u64 [s1 + 0xb0]\n 56916: a5 = a5 + a3\n 56919: a3 = a5 + t0\n 56922: t0 = 2328, jump @2269\n      : @2038 [@dyn 1164] (gas: 1)\n 56928: jump @2041 if a1 != 0\n      : @2039 (gas: 11)\n 56932: a5 = s1 + 0x100\n 56936: a2 = u64 [a5 + 0x58]\n 56939: a1 = u64 [a5 + 0x50]\n 56942: a3 = u64 [a5 + 0x48]\n 56945: a4 = u64 [a5 + 0x40]\n 56948: u64 [a5 + 0x20] = a4\n 56951: u64 [a5 + 0x28] = a3\n 56954: u64 [a5 + 0x30] = a1\n 56957: a1 = s1 + 0x120\n 56961: u64 [a5 + 0x38] = a2\n 56964: ra = 2330, jump @19\n      : @2040 [@dyn 1165] (gas: 38)\n 56971: a3 = u64 [s1 + 0x98]\n 56975: a3 = a3 + 0x1\n 56978: a0 = a3 <u 0x1\n 56981: t2 = u64 [s1 + 0x90]\n 56985: t2 = t2 + a0\n 56988: a0 = a3 | t2\n 56991: a0 = a0 <u 0x1\n 56994: a1 = u64 [s1 + 0x80]\n 56998: t1 = a1 + a0\n 57001: a1 = t1 <u a1\n 57004: a0 = u64 [s1 + 0x88]\n 57008: a0 = a0 + a1\n 57011: a1 = u64 [s1 + 0xb8]\n 57015: ra = a1 + 0x20\n 57018: a2 = ra <u a1\n 57021: a4 = u64 [s1 + 0xa0]\n 57025: a1 = a4 + a2\n 57028: a4 = a1 <u a4\n 57031: a4 = a2 if a2 == 0\n 57034: a2 = u64 [s1 + 0xa8]\n 57038: a4 = a4 + a2\n 57041: a2 = a4 <u a2\n 57044: t0 = u64 [s1 + 0xb0]\n 57048: t0 = t0 + a2\n 57051: a2 = t2\n 57053: u64 [s1 + 0x90] = a2\n 57057: a5 = u64 [s1 + 0x58]\n 57060: u64 [a5 + 0x8] = a2\n 57063: a2 = a3\n 57065: u64 [a5] = a3\n 57067: u64 [a5 + 0x10] = t1\n 57070: a3 = a0\n 57072: u64 [a5 + 0x18] = a0\n 57075: u64 [s1 + 0x80] = t1\n 57079: u64 [s1 + 0xb8] = ra\n 57083: t2 = a1\n 57085: t1 = a4\n 57087: jump @2034\n      : @2041 (gas: 1)\n 57090: trap\n      : @2042 [@dyn 1166] (gas: 1)\n 57091: jump @2044 if a0 == 0\n      : @2043 (gas: 6)\n 57094: sp = s0 + 0xffffffffffffff20\n 57098: ra = u64 [sp + 0xd8]\n 57102: s0 = u64 [sp + 0xd0]\n 57106: s1 = u64 [sp + 0xc8]\n 57110: sp = sp + 0xe0\n 57114: ret\n      : @2044 (gas: 3)\n 57116: a0 = sp + 0xa0\n 57120: a1 = 0x40\n 57123: ra = 2334, jump @17\n      : @2045 [@dyn 1167] (gas: 1)\n 57130: t0 = 2336, jump @2348\n      : @2046 [@dyn 1168] (gas: 1)\n 57136: jump @2057 if a0 != 0\n      : @2047 (gas: 1)\n 57139: t0 = 2338, jump @2376\n      : @2048 [@dyn 1169] (gas: 1)\n 57145: ra = 2340, jump @19\n      : @2049 [@dyn 1170] (gas: 1)\n 57152: t0 = 2342, jump @2341\n      : @2050 [@dyn 1171] (gas: 1)\n 57158: jump @2057 if a0 == 0\n      : @2051 (gas: 8)\n 57161: a0 = u64 [sp + 0x18]\n 57164: i32 a0 = a0 + 0x4\n 57167: u64 [sp + 120] = 0\n 57170: u64 [sp + 112] = 0\n 57173: u64 [sp + 96] = 0x20\n 57177: a1 = sp + 0x60\n 57180: u64 [sp + 104] = 0\n 57183: ra = 2344, jump @19\n      : @2052 [@dyn 1172] (gas: 1)\n 57190: t0 = 2346, jump @2374\n      : @2053 [@dyn 1173] (gas: 1)\n 57196: jump @2057 if a0 == 0\n      : @2054 (gas: 8)\n 57199: s1 = u64 [sp + 0x18]\n 57202: i32 a0 = s1 + 0x24\n 57205: u64 [sp + 88] = 0\n 57208: u64 [sp + 80] = 0\n 57211: u64 [sp + 64] = 0xe\n 57215: a1 = sp + 0x40\n 57218: u64 [sp + 72] = 0\n 57221: ra = 2348, jump @19\n      : @2055 [@dyn 1174] (gas: 1)\n 57228: t0 = 2350, jump @2364\n      : @2056 [@dyn 1175] (gas: 1)\n 57234: jump @2058 if a0 != 0\n      : @2057 (gas: 1)\n 57237: trap\n      : @2058 (gas: 10)\n 57238: s1 = u64 [sp + 0x18]\n 57241: i32 a0 = s1 + 0x44\n 57244: a1 = u64 [0x20188]\n 57249: u64 [sp + 40] = 0\n 57252: u64 [sp + 0x38] = a1\n 57255: a1 = 0x20666f756e640000\n 57265: u64 [sp + 0x30] = a1\n 57268: a1 = sp + 0x20\n 57271: u64 [sp + 32] = 0\n 57274: ra = 2352, jump @19\n      : @2059 [@dyn 1176] (gas: 3)\n 57281: a1 = 0x64\n 57284: a0 = s1\n 57286: ra = 2354, jump @32\n      : @2060 [@dyn 1177] (gas: 7)\n 57293: i32 a1 = a0 + 0\n 57295: a0 = 0x1\n 57298: a2 = 0x64\n 57301: ra = 0x934\n 57305: ecalli 8 // 'seal_return'\n 57307: t0 = 0x936\n 57311: jump @2351\n      : @2061 [@dyn 1178] (gas: 1)\n 57314: t0 = 2358, jump @2351\n      : @2062 [@dyn 1179] (gas: 1)\n 57320: jump @2064 if a0 == 0\n      : @2063 (gas: 6)\n 57323: sp = s0 + 0xffffffffffffff20\n 57327: ra = u64 [sp + 0xd8]\n 57331: s0 = u64 [sp + 0xd0]\n 57335: s1 = u64 [sp + 0xc8]\n 57339: sp = sp + 0xe0\n 57343: ret\n      : @2064 (gas: 3)\n 57345: a0 = sp + 0xa0\n 57349: a1 = 0x40\n 57352: ra = 2360, jump @17\n      : @2065 [@dyn 1180] (gas: 1)\n 57359: t0 = 2362, jump @2348\n      : @2066 [@dyn 1181] (gas: 1)\n 57365: jump @2077 if a0 != 0\n      : @2067 (gas: 1)\n 57368: t0 = 2364, jump @2376\n      : @2068 [@dyn 1182] (gas: 1)\n 57374: ra = 2366, jump @19\n      : @2069 [@dyn 1183] (gas: 1)\n 57381: t0 = 2368, jump @2341\n      : @2070 [@dyn 1184] (gas: 1)\n 57387: jump @2077 if a0 == 0\n      : @2071 (gas: 8)\n 57390: a0 = u64 [sp + 0x18]\n 57393: i32 a0 = a0 + 0x4\n 57396: u64 [sp + 120] = 0\n 57399: u64 [sp + 112] = 0\n 57402: u64 [sp + 96] = 0x20\n 57406: a1 = sp + 0x60\n 57409: u64 [sp + 104] = 0\n 57412: ra = 2370, jump @19\n      : @2072 [@dyn 1185] (gas: 1)\n 57419: t0 = 2372, jump @2374\n      : @2073 [@dyn 1186] (gas: 1)\n 57425: jump @2077 if a0 == 0\n      : @2074 (gas: 8)\n 57428: s1 = u64 [sp + 0x18]\n 57431: i32 a0 = s1 + 0x24\n 57434: u64 [sp + 88] = 0\n 57437: u64 [sp + 80] = 0\n 57440: u64 [sp + 64] = 0x15\n 57444: a1 = sp + 0x40\n 57447: u64 [sp + 72] = 0\n 57450: ra = 2374, jump @19\n      : @2075 [@dyn 1187] (gas: 1)\n 57457: t0 = 2376, jump @2364\n      : @2076 [@dyn 1188] (gas: 1)\n 57463: jump @2078 if a0 != 0\n      : @2077 (gas: 1)\n 57466: trap\n      : @2078 (gas: 11)\n 57467: s1 = u64 [sp + 0x18]\n 57470: i32 a0 = s1 + 0x44\n 57473: a1 = u64 [0x20190]\n 57478: a2 = u64 [0x20198]\n 57483: u64 [sp + 0x38] = a1\n 57486: u64 [sp + 0x30] = a2\n 57489: a1 = 0x6f776e6572000000\n 57499: u64 [sp + 0x28] = a1\n 57502: a1 = sp + 0x20\n 57505: u64 [sp + 32] = 0\n 57508: ra = 2378, jump @19\n      : @2079 [@dyn 1189] (gas: 3)\n 57515: a1 = 0x64\n 57518: a0 = s1\n 57520: ra = 2380, jump @32\n      : @2080 [@dyn 1190] (gas: 6)\n 57527: i32 a1 = a0 + 0\n 57529: a0 = 0x1\n 57532: a2 = 0x64\n 57535: ra = 0x94e\n 57539: ecalli 8 // 'seal_return'\n 57541: fallthrough\n      : @2081 [@dyn 1191] (gas: 53)\n 57542: sp = sp + 0xffffffffffffff58\n 57546: u64 [sp + 0xa0] = ra\n 57550: u64 [sp + 0x98] = s0\n 57554: u64 [sp + 0x90] = s1\n 57558: u64 [sp + 0x68] = a0\n 57561: a5 = u64 [a2]\n 57563: u64 [sp + 0x78] = a5\n 57566: s1 = u64 [a2 + 0x8]\n 57569: a0 = u64 [a1 + 0x10]\n 57572: u64 [sp + 0x60] = a0\n 57575: t0 = u64 [a2 + 0x10]\n 57578: a0 = a5 >> 0x3d\n 57581: a4 = s1 << 0x3\n 57584: a4 = a4 | a0\n 57587: a0 = a5 << 0x3\n 57590: a5 = a4 >u 0\n 57592: s0 = a0 <u 0x100\n 57596: t1 = a0\n 57598: a0 = s0 ^ 0x1\n 57601: a0 = a5 if a4 != 0\n 57604: s0 = a0\n 57606: a4 = u64 [a1 + 0x18]\n 57609: u64 [sp + 0x58] = a4\n 57612: a2 = u64 [a2 + 0x18]\n 57615: s1 = s1 >> 0x3d\n 57618: a4 = t0 << 0x3\n 57621: a4 = a4 | s1\n 57624: a5 = u64 [a1]\n 57626: u64 [sp + 0x50] = a5\n 57629: a1 = u64 [a1 + 0x8]\n 57632: u64 [sp + 0x48] = a1\n 57635: a0 = t0 >> 0x3d\n 57638: a2 = a2 << 0x3\n 57641: a5 = a2 | a0\n 57644: a0 = u64 [a3 + 0x10]\n 57647: u64 [sp + 0x80] = a0\n 57651: a0 = u64 [a3 + 0x18]\n 57654: u64 [sp + 0x88] = a0\n 57658: a0 = u64 [a3]\n 57660: a1 = u64 [a3 + 0x8]\n 57663: u64 [sp + 0x8] = a1\n 57666: a3 = a5 >u 0\n 57668: a2 = a4 >u 0\n 57670: a2 = a3 if a5 != 0\n 57673: a4 = a4 | a5\n 57676: s0 = a2 if a4 != 0\n 57679: u64 [sp + 0x70] = s0\n 57682: s1 = t1\n 57684: i32 a2 = t1 + 0xffffffffffffff80\n 57687: u64 [sp + 0x40] = a2\n 57690: s0 = a0\n 57692: u64 [sp + 0x10] = a0\n 57695: ra = 2384, jump @2409\n      : @2082 [@dyn 1192] (gas: 8)\n 57701: u64 [sp + 0x30] = a0\n 57704: u64 [sp + 0x38] = a1\n 57707: a0 = u64 [sp + 0x78]\n 57710: i32 a2 = a0 << 0x3\n 57713: u64 [sp + 0x78] = a2\n 57716: a0 = u64 [sp + 0x80]\n 57720: a1 = u64 [sp + 0x88]\n 57724: ra = 2386, jump @2409\n      : @2083 [@dyn 1193] (gas: 8)\n 57730: u64 [sp + 0x18] = a0\n 57733: u64 [sp] = a1\n 57735: i32 a2 = 0x80 - s1\n 57739: u64 [sp + 0x20] = a2\n 57742: a0 = s0\n 57744: s0 = u64 [sp + 0x8]\n 57747: a1 = s0\n 57749: ra = 2388, jump @2404\n      : @2084 [@dyn 1194] (gas: 21)\n 57755: a2 = u64 [sp + 0x18]\n 57758: a2 = a2 | a0\n 57761: a0 = s1\n 57763: u64 [sp + 0x28] = s1\n 57766: s1 = s1 <u 0x80\n 57770: a3 = u64 [sp + 0x30]\n 57773: a2 = a3 if s1 == 0\n 57776: a3 = u64 [sp + 0x80]\n 57780: a2 = a3 if a0 == 0\n 57783: u64 [sp + 0x80] = a2\n 57787: a2 = u64 [sp]\n 57789: a1 = a1 | a2\n 57792: a2 = u64 [sp + 0x38]\n 57795: a1 = a2 if s1 == 0\n 57798: a2 = u64 [sp + 0x88]\n 57802: a1 = a2 if a0 == 0\n 57805: u64 [sp + 0x88] = a1\n 57809: a0 = u64 [sp + 0x10]\n 57812: a1 = s0\n 57814: a2 = u64 [sp + 0x78]\n 57817: ra = 2390, jump @2409\n      : @2085 [@dyn 1195] (gas: 19)\n 57823: a2 = a0\n 57825: u64 [sp + 0x18] = s1\n 57828: a2 = 0 if s1 == 0\n 57830: a1 = 0 if s1 == 0\n 57832: a3 = u64 [sp + 0x70]\n 57835: a0 = u64 [sp + 0x88]\n 57839: a0 = 0 if a3 != 0\n 57841: u64 [sp + 0x88] = a0\n 57845: a0 = u64 [sp + 0x80]\n 57849: a0 = 0 if a3 != 0\n 57851: u64 [sp + 0x80] = a0\n 57855: a1 = 0 if a3 != 0\n 57857: u64 [sp + 0x38] = a1\n 57860: a2 = 0 if a3 != 0\n 57862: u64 [sp + 0x30] = a2\n 57865: a0 = 0xffffffffffffffff\n 57868: a1 = 0xffffffffffffffff\n 57871: a2 = u64 [sp + 0x20]\n 57874: ra = 2392, jump @2404\n      : @2086 [@dyn 1196] (gas: 6)\n 57880: u64 [sp + 0x10] = a0\n 57883: u64 [sp + 0x20] = a1\n 57886: a0 = 0xffffffffffffffff\n 57889: a1 = 0xffffffffffffffff\n 57892: a2 = u64 [sp + 0x78]\n 57895: ra = 2394, jump @2409\n      : @2087 [@dyn 1197] (gas: 9)\n 57901: s0 = a0\n 57903: s1 = a1\n 57905: a0 = u64 [sp + 0x10]\n 57908: a0 = a0 | s0\n 57911: u64 [sp + 0x78] = a0\n 57914: a0 = 0xffffffffffffffff\n 57917: a1 = 0xffffffffffffffff\n 57920: a2 = u64 [sp + 0x40]\n 57923: ra = 2396, jump @2409\n      : @2088 [@dyn 1198] (gas: 47)\n 57929: a3 = u64 [sp + 0x18]\n 57932: a2 = u64 [sp + 0x78]\n 57935: a0 = a2 if a3 != 0\n 57938: a2 = u64 [sp + 0x20]\n 57941: a2 = a2 | s1\n 57944: a2 = a1 if a3 == 0\n 57947: a1 = u64 [sp + 0x28]\n 57950: a0 = 0xffffffffffffffff if a1 == 0\n 57953: a2 = 0xffffffffffffffff if a1 == 0\n 57956: s0 = 0 if a3 == 0\n 57958: s1 = 0 if a3 == 0\n 57960: a1 = a2 ^ 0xffffffffffffffff\n 57963: a0 = a0 ^ 0xffffffffffffffff\n 57966: a2 = s1 ^ 0xffffffffffffffff\n 57969: a3 = s0 ^ 0xffffffffffffffff\n 57972: a4 = u64 [sp + 0x70]\n 57975: a0 = 0xffffffffffffffff if a4 != 0\n 57978: a1 = 0xffffffffffffffff if a4 != 0\n 57981: a3 = 0xffffffffffffffff if a4 != 0\n 57984: a5 = 0xffffffffffffffff\n 57987: a2 = a5 if a4 != 0\n 57990: a4 = u64 [sp + 0x48]\n 57993: a2 = a2 & a4\n 57996: a4 = u64 [sp + 0x50]\n 57999: a3 = a3 & a4\n 58002: a4 = u64 [sp + 0x58]\n 58005: a1 = a1 & a4\n 58008: a4 = u64 [sp + 0x60]\n 58011: a0 = a0 & a4\n 58014: a4 = u64 [sp + 0x80]\n 58018: a0 = a0 | a4\n 58021: a4 = u64 [sp + 0x88]\n 58025: a1 = a1 | a4\n 58028: a4 = u64 [sp + 0x30]\n 58031: a3 = a3 | a4\n 58034: a4 = u64 [sp + 0x38]\n 58037: a2 = a2 | a4\n 58040: a4 = u64 [sp + 0x68]\n 58043: u64 [a4 + 0x8] = a2\n 58046: u64 [a4] = a3\n 58048: u64 [a4 + 0x18] = a1\n 58051: u64 [a4 + 0x10] = a0\n 58054: ra = u64 [sp + 0xa0]\n 58058: s0 = u64 [sp + 0x98]\n 58062: s1 = u64 [sp + 0x90]\n 58066: sp = sp + 0xa8\n 58070: ret\n      : @2089 (gas: 31)\n 58072: sp = sp + 0xfffffffffffffde0\n 58076: a2 = sp + 0x200\n 58080: u64 [a2 + 0x18] = ra\n 58083: u64 [a2 + 0x10] = s0\n 58086: u64 [a2 + 0x8] = s1\n 58089: s0 = sp + 0x220\n 58093: sp = sp & 0xffffffffffffffe0\n 58096: s1 = sp\n 58098: a2 = u64 [a1 + 0x18]\n 58101: u64 [s1 + 0x80] = a2\n 58105: a2 = u64 [a1 + 0x10]\n 58108: u64 [s1 + 0x88] = a2\n 58112: a2 = u64 [a1 + 0x8]\n 58115: u64 [s1 + 0x98] = a2\n 58119: a1 = u64 [a1]\n 58121: u64 [s1 + 0x90] = a1\n 58125: a3 = u64 [a0 + 0x18]\n 58128: a2 = u64 [a0 + 0x10]\n 58131: a1 = u64 [a0 + 0x8]\n 58134: a0 = u64 [a0]\n 58136: u64 [s1 + 0x58] = a3\n 58139: u64 [s1 + 0x1b8] = a3\n 58143: u64 [s1 + 0x60] = a2\n 58146: u64 [s1 + 0x1b0] = a2\n 58150: u64 [s1 + 0x68] = a1\n 58153: u64 [s1 + 0x1a8] = a1\n 58157: u64 [s1 + 0x78] = a0\n 58160: u64 [s1 + 0x1a0] = a0\n 58164: a0 = s1 + 0x180\n 58168: a1 = s1 + 0x1a0\n 58172: ra = 2398, jump @21\n      : @2090 [@dyn 1199] (gas: 11)\n 58179: a0 = s1 + 0x100\n 58183: a5 = u64 [a0 + 0x98]\n 58187: a4 = u64 [a0 + 0x90]\n 58191: a3 = u64 [a0 + 0x88]\n 58195: a0 = a5 >u 0\n 58197: a1 = a4 >u 0\n 58199: a1 = a0 if a5 != 0\n 58202: a0 = a4 | a5\n 58205: a2 = a3 >u 0\n 58207: a2 = a1 if a0 != 0\n 58210: jump @2104 if a2 != 0\n      : @2091 (gas: 20)\n 58214: a0 = u64 [s1 + 0x180]\n 58218: u64 [s1 + 0x50] = a0\n 58221: a0 = a0 + 0x1\n 58224: a1 = a0 <u 0x1\n 58227: a1 = a1 + a3\n 58230: a2 = a0 | a1\n 58233: a2 = a2 <u 0x1\n 58236: a2 = a2 + a4\n 58239: u64 [s1 + 0x48] = a3\n 58242: a3 = a2 <u a4\n 58245: a3 = a3 + a5\n 58248: u64 [s1 + 0x1c0] = a0\n 58252: u64 [s1 + 0x1c8] = a1\n 58256: u64 [s1 + 0x1d0] = a2\n 58260: u64 [s1 + 0x1d8] = a3\n 58264: a0 = s1 + 0x1a0\n 58268: a1 = s1 + 0x1c0\n 58272: u64 [s1 + 0x40] = a4\n 58275: u64 [s1 + 0x38] = a5\n 58278: ra = 2400, jump @23\n      : @2092 [@dyn 1200] (gas: 24)\n 58285: a0 = sp + 0xffffffffffffffe0\n 58288: a0 = a0 & 0xffffffffffffffe0\n 58291: u64 [s1 + 0x70] = a0\n 58294: sp = a0\n 58296: a0 = u64 [s1 + 0x38]\n 58299: u64 [s1 + 0x118] = a0\n 58303: a0 = u64 [s1 + 0x40]\n 58306: u64 [s1 + 0x110] = a0\n 58310: a0 = u64 [s1 + 0x48]\n 58313: u64 [s1 + 0x108] = a0\n 58317: a0 = u64 [s1 + 0x50]\n 58320: u64 [s1 + 0x100] = a0\n 58324: a0 = u64 [s1 + 0x58]\n 58327: u64 [s1 + 0x138] = a0\n 58331: a0 = u64 [s1 + 0x60]\n 58334: u64 [s1 + 0x130] = a0\n 58338: a0 = u64 [s1 + 0x68]\n 58341: u64 [s1 + 0x128] = a0\n 58345: a0 = s1 + 0x140\n 58349: a1 = s1 + 0x120\n 58353: a2 = s1 + 0x100\n 58357: a3 = u64 [s1 + 0x78]\n 58360: u64 [s1 + 0x120] = a3\n 58364: ra = 2402, jump @1997\n      : @2093 [@dyn 1201] (gas: 19)\n 58370: a0 = u64 [s1 + 0x178]\n 58374: u64 [s1 + 0x78] = a0\n 58377: a0 = u64 [s1 + 0x170]\n 58381: u64 [s1 + 0x60] = a0\n 58384: a0 = u64 [s1 + 0x168]\n 58388: u64 [s1 + 0x58] = a0\n 58391: a0 = u64 [s1 + 0x160]\n 58395: u64 [s1 + 0x68] = a0\n 58398: a0 = u64 [s1 + 0x150]\n 58402: a4 = u64 [s1 + 0x158]\n 58406: a2 = u64 [s1 + 0x140]\n 58410: a3 = u64 [s1 + 0x148]\n 58414: a1 = u64 [s1 + 0x70]\n 58417: u64 [a1 + 0x10] = a0\n 58420: u64 [a1 + 0x18] = a4\n 58423: u64 [a1] = a2\n 58425: u64 [a1 + 0x8] = a3\n 58428: a0 = s1 + 0xe0\n 58432: ra = 2404, jump @21\n      : @2094 [@dyn 1202] (gas: 24)\n 58439: a0 = u64 [s1 + 0xf0]\n 58443: u64 [s1 + 0x50] = a0\n 58446: a0 = u64 [s1 + 0xf8]\n 58450: u64 [s1 + 0x48] = a0\n 58453: a0 = u64 [s1 + 0xe0]\n 58457: u64 [s1 + 0x40] = a0\n 58460: a0 = u64 [s1 + 0xe8]\n 58464: u64 [s1 + 0x38] = a0\n 58467: a5 = u64 [s1 + 0x68]\n 58470: a0 = a5 >> 0x3d\n 58473: a2 = u64 [s1 + 0x58]\n 58476: a1 = a2 << 0x3\n 58479: a0 = a0 | a1\n 58482: a1 = a2 >> 0x3d\n 58485: a3 = u64 [s1 + 0x60]\n 58488: a2 = a3 << 0x3\n 58491: a1 = a1 | a2\n 58494: a2 = a3 >> 0x3d\n 58497: a3 = u64 [s1 + 0x78]\n 58500: a3 = a3 << 0x3\n 58503: a2 = a2 | a3\n 58506: a5 = a5 << 0x3\n 58509: u64 [s1 + 0x78] = a5\n 58512: t0 = 2406, jump @2294\n      : @2095 [@dyn 1203] (gas: 6)\n 58518: u64 [s1 + 0x60] = a4\n 58521: i32 a2 = a5 + 0xffffffffffffff80\n 58524: u64 [s1 + 0x30] = a2\n 58527: a0 = u64 [s1 + 0x90]\n 58531: a1 = u64 [s1 + 0x98]\n 58535: ra = 2408, jump @2409\n      : @2096 [@dyn 1204] (gas: 8)\n 58541: u64 [s1 + 0x18] = a0\n 58544: u64 [s1 + 0x20] = a1\n 58547: a0 = u64 [s1 + 0x68]\n 58550: i32 a2 = a0 << 0x3\n 58553: u64 [s1 + 0x68] = a2\n 58556: a0 = u64 [s1 + 0x88]\n 58560: a1 = u64 [s1 + 0x80]\n 58564: ra = 2410, jump @2409\n      : @2097 [@dyn 1205] (gas: 8)\n 58570: u64 [s1 + 0x58] = a0\n 58573: u64 [s1 + 0x10] = a1\n 58576: a1 = u64 [s1 + 0x78]\n 58579: i32 a2 = 0x80 - a1\n 58583: u64 [s1 + 0x28] = a2\n 58586: a0 = u64 [s1 + 0x90]\n 58590: a1 = u64 [s1 + 0x98]\n 58594: ra = 2412, jump @2404\n      : @2098 [@dyn 1206] (gas: 21)\n 58600: a2 = u64 [s1 + 0x58]\n 58603: a2 = a2 | a0\n 58606: a0 = u64 [s1 + 0x78]\n 58609: a4 = a0 <u 0x80\n 58613: u64 [s1 + 0x58] = a4\n 58616: a3 = u64 [s1 + 0x18]\n 58619: a2 = a3 if a4 == 0\n 58622: a3 = u64 [s1 + 0x88]\n 58626: a2 = a3 if a0 == 0\n 58629: u64 [s1 + 0x88] = a2\n 58633: a2 = u64 [s1 + 0x10]\n 58636: a1 = a1 | a2\n 58639: a2 = u64 [s1 + 0x20]\n 58642: a1 = a2 if a4 == 0\n 58645: a2 = u64 [s1 + 0x80]\n 58649: a1 = a2 if a0 == 0\n 58652: u64 [s1 + 0x80] = a1\n 58656: a0 = u64 [s1 + 0x90]\n 58660: a1 = u64 [s1 + 0x98]\n 58664: a2 = u64 [s1 + 0x68]\n 58667: ra = 2414, jump @2409\n      : @2099 [@dyn 1207] (gas: 19)\n 58673: a2 = a1\n 58675: a1 = u64 [s1 + 0x58]\n 58678: a0 = 0 if a1 == 0\n 58680: a2 = 0 if a1 == 0\n 58682: a3 = u64 [s1 + 0x60]\n 58685: a1 = u64 [s1 + 0x80]\n 58689: a1 = 0 if a3 != 0\n 58691: u64 [s1 + 0x80] = a1\n 58695: a1 = u64 [s1 + 0x88]\n 58699: a1 = 0 if a3 != 0\n 58701: u64 [s1 + 0x88] = a1\n 58705: a2 = 0 if a3 != 0\n 58707: u64 [s1 + 0x98] = a2\n 58711: a0 = 0 if a3 != 0\n 58713: u64 [s1 + 0x90] = a0\n 58717: a0 = 0xffffffffffffffff\n 58720: a1 = 0xffffffffffffffff\n 58723: a2 = u64 [s1 + 0x28]\n 58726: ra = 2416, jump @2404\n      : @2100 [@dyn 1208] (gas: 6)\n 58732: u64 [s1 + 0x18] = a0\n 58735: u64 [s1 + 0x28] = a1\n 58738: a0 = 0xffffffffffffffff\n 58741: a1 = 0xffffffffffffffff\n 58744: a2 = u64 [s1 + 0x68]\n 58747: ra = 2418, jump @2409\n      : @2101 [@dyn 1209] (gas: 9)\n 58753: u64 [s1 + 0x68] = a0\n 58756: u64 [s1 + 0x20] = a1\n 58759: a1 = u64 [s1 + 0x18]\n 58762: a0 = a0 | a1\n 58765: u64 [s1 + 0x18] = a0\n 58768: a0 = 0xffffffffffffffff\n 58771: a1 = 0xffffffffffffffff\n 58774: a2 = u64 [s1 + 0x30]\n 58777: ra = 2420, jump @2409\n      : @2102 [@dyn 1210] (gas: 46)\n 58783: a3 = u64 [s1 + 0x58]\n 58786: a2 = u64 [s1 + 0x18]\n 58789: a0 = a2 if a3 != 0\n 58792: a4 = u64 [s1 + 0x20]\n 58795: a2 = u64 [s1 + 0x28]\n 58798: a2 = a2 | a4\n 58801: a2 = a1 if a3 == 0\n 58804: a1 = u64 [s1 + 0x78]\n 58807: a0 = 0xffffffffffffffff if a1 == 0\n 58810: a2 = 0xffffffffffffffff if a1 == 0\n 58813: a5 = u64 [s1 + 0x68]\n 58816: a5 = 0 if a3 == 0\n 58818: a4 = 0 if a3 == 0\n 58820: a1 = a2 ^ 0xffffffffffffffff\n 58823: a0 = a0 ^ 0xffffffffffffffff\n 58826: a2 = a4 ^ 0xffffffffffffffff\n 58829: a3 = a5 ^ 0xffffffffffffffff\n 58832: a4 = u64 [s1 + 0x60]\n 58835: a0 = 0xffffffffffffffff if a4 != 0\n 58838: a1 = 0xffffffffffffffff if a4 != 0\n 58841: a3 = 0xffffffffffffffff if a4 != 0\n 58844: a2 = 0xffffffffffffffff if a4 != 0\n 58847: a4 = u64 [s1 + 0x38]\n 58850: a2 = a2 & a4\n 58853: a4 = u64 [s1 + 0x40]\n 58856: a3 = a3 & a4\n 58859: a4 = u64 [s1 + 0x48]\n 58862: a1 = a1 & a4\n 58865: a4 = u64 [s1 + 0x50]\n 58868: a0 = a0 & a4\n 58871: a4 = u64 [s1 + 0x88]\n 58875: a0 = a0 | a4\n 58878: a4 = u64 [s1 + 0x80]\n 58882: a1 = a1 | a4\n 58885: a4 = u64 [s1 + 0x90]\n 58889: a3 = a3 | a4\n 58892: a4 = u64 [s1 + 0x98]\n 58896: a2 = a2 | a4\n 58899: a4 = s1 + 0x100\n 58903: u64 [a4 + 0xe8] = a2\n 58907: u64 [a4 + 0xe0] = a3\n 58911: u64 [a4 + 0xf8] = a1\n 58915: u64 [a4 + 0xf0] = a0\n 58919: a1 = s1 + 0x1e0\n 58923: a0 = u64 [s1 + 0x70]\n 58926: ra = 2422, jump @23\n      : @2103 [@dyn 1211] (gas: 7)\n 58933: sp = s0 + 0xfffffffffffffde0\n 58937: a0 = sp + 0x200\n 58941: ra = u64 [a0 + 0x18]\n 58944: s0 = u64 [a0 + 0x10]\n 58947: s1 = u64 [a0 + 0x8]\n 58950: sp = sp + 0x220\n 58954: ret\n      : @2104 (gas: 6)\n 58956: u64 [s1 + 208] = 0\n 58960: u64 [s1 + 200] = 0\n 58964: u64 [s1 + 192] = 0\n 58968: t0 = 0x978\n 58972: a0 = 0x4e487b7100000000\n 58982: fallthrough\n      : @2105 [@dyn 1212] (gas: 4)\n 58983: a1 = s1 + 0xc0\n 58987: u64 [s1 + 0xd8] = a0\n 58991: a0 = 0\n 58993: ra = 2426, jump @19\n      : @2106 [@dyn 1213] (gas: 7)\n 59000: u64 [s1 + 184] = 0\n 59004: u64 [s1 + 176] = 0\n 59008: u64 [s1 + 160] = 0x41\n 59013: a0 = 0x4\n 59016: a1 = s1 + 0xa0\n 59020: u64 [s1 + 168] = 0\n 59024: ra = 2428, jump @19\n      : @2107 [@dyn 1214] (gas: 2)\n 59031: a1 = i32 [0x201a4]\n 59036: jump @2109 if a1 >u 63\n      : @2108 (gas: 2)\n 59040: u32 [0x201a4] = 0x40\n 59046: fallthrough\n      : @2109 (gas: 7)\n 59047: a1 = 0x201b0\n 59052: i32 a1 = a1 + 0\n 59054: a0 = 0x1\n 59057: a2 = 0x24\n 59060: ra = 0x97e\n 59064: ecalli 8 // 'seal_return'\n 59066: fallthrough\n      : @2110 [@dyn 1215] (gas: 31)\n 59067: sp = sp + 0xfffffffffffffb00\n 59071: a2 = sp + 0x400\n 59075: u64 [a2 + 0xf8] = ra\n 59079: u64 [a2 + 0xf0] = s0\n 59083: u64 [a2 + 0xe8] = s1\n 59087: s0 = sp + 0x500\n 59091: sp = sp & 0xffffffffffffffe0\n 59094: s1 = sp\n 59096: a2 = u64 [a1 + 0x18]\n 59099: u64 [s1 + 0xc8] = a2\n 59103: a2 = u64 [a1 + 0x10]\n 59106: u64 [s1 + 0xc0] = a2\n 59110: a2 = u64 [a1 + 0x8]\n 59113: u64 [s1 + 0xf0] = a2\n 59117: a1 = u64 [a1]\n 59119: u64 [s1 + 0xf8] = a1\n 59123: a3 = u64 [a0 + 0x18]\n 59126: a2 = u64 [a0 + 0x10]\n 59129: a1 = u64 [a0 + 0x8]\n 59132: a0 = u64 [a0]\n 59134: u64 [s1 + 0xa0] = a3\n 59138: u64 [s1 + 0x3b8] = a3\n 59142: u64 [s1 + 0xa8] = a2\n 59146: u64 [s1 + 0x3b0] = a2\n 59150: u64 [s1 + 0xb0] = a1\n 59154: u64 [s1 + 0x3a8] = a1\n 59158: u64 [s1 + 0xe0] = a0\n 59162: u64 [s1 + 0x3a0] = a0\n 59166: a0 = s1 + 0x380\n 59170: a1 = s1 + 0x3a0\n 59174: ra = 2432, jump @21\n      : @2111 [@dyn 1216] (gas: 8)\n 59181: a0 = s1 + 0x300\n 59185: a5 = u64 [a0 + 0x98]\n 59189: a4 = u64 [a0 + 0x90]\n 59193: a3 = u64 [a0 + 0x88]\n 59197: a0 = a4 | a5\n 59200: a1 = a3 <u 0x1\n 59203: a1 = 0 if a0 != 0\n 59205: jump @2180 if a1 == 0\n      : @2112 (gas: 22)\n 59209: a0 = u64 [s1 + 0x380]\n 59213: a1 = sp + 0xffffffffffffffe0\n 59216: a1 = a1 & 0xffffffffffffffe0\n 59219: sp = a1\n 59221: u64 [s1 + 0xe8] = a0\n 59225: a0 = a0 + 0x1\n 59228: a2 = a0 <u 0x1\n 59231: u64 [s1 + 0xd0] = a3\n 59235: a2 = a2 + a3\n 59238: a3 = a0 | a2\n 59241: a3 = a3 <u 0x1\n 59244: a3 = a3 + a4\n 59247: u64 [s1 + 0xd8] = a4\n 59251: a4 = a3 <u a4\n 59254: u64 [s1 + 0xb8] = a5\n 59258: a4 = a4 + a5\n 59261: u64 [a1 + 0x8] = a2\n 59264: u64 [a1] = a0\n 59266: u64 [a1 + 0x10] = a3\n 59269: u64 [a1 + 0x18] = a4\n 59272: a0 = s1 + 0x3a0\n 59276: ra = 2434, jump @23\n      : @2113 [@dyn 1217] (gas: 12)\n 59283: a0 = u64 [s1 + 0xa0]\n 59287: a2 = s1 + 0x300\n 59291: u64 [a2 + 0x78] = a0\n 59294: a0 = u64 [s1 + 0xa8]\n 59298: u64 [a2 + 0x70] = a0\n 59301: a0 = u64 [s1 + 0xb0]\n 59305: u64 [a2 + 0x68] = a0\n 59308: a1 = s1 + 0x360\n 59312: a0 = u64 [s1 + 0xe0]\n 59316: u64 [a2 + 0x60] = a0\n 59319: a0 = 0\n 59321: ra = 2436, jump @19\n      : @2114 [@dyn 1218] (gas: 3)\n 59328: a2 = 0x201a4\n 59333: a0 = i32 [0x201a4]\n 59338: jump @2116 if a0 >u 31\n      : @2115 (gas: 2)\n 59342: u32 [0x201a4] = 0x20\n 59348: fallthrough\n      : @2116 (gas: 12)\n 59349: u64 [s1 + 0x20] = a2\n 59352: a0 = sp + 0xffffffffffffffe0\n 59355: a2 = a0 & 0xffffffffffffffe0\n 59358: u64 [s1 + 0xe0] = a2\n 59362: sp = a2\n 59364: a0 = 0x201b0\n 59369: i32 a0 = a0 + 0\n 59371: i32 a2 = a2 + 0\n 59373: a1 = 0x20\n 59376: u64 [s1 + 0x28] = a0\n 59379: ecalli 6 // 'hash_keccak_256'\n 59381: fallthrough\n      : @2117 (gas: 62)\n 59382: a1 = u64 [s1 + 0xe0]\n 59386: a0 = u64 [a1]\n 59388: a2 = u64 [a1 + 0x8]\n 59391: a3 = u64 [a1 + 0x18]\n 59394: a4 = u64 [a1 + 0x10]\n 59397: t2 = reverse a0\n 59399: a1 = reverse a2\n 59401: t1 = reverse a3\n 59403: a2 = reverse a4\n 59405: a4 = sp + 0xffffffffffffffe0\n 59408: ra = a4 & 0xffffffffffffffe0\n 59411: sp = ra\n 59413: a4 = u64 [s1 + 0xe8]\n 59417: a3 = a4 >> 0x3e\n 59420: a0 = u64 [s1 + 0xd0]\n 59424: a5 = a0 << 0x2\n 59427: a3 = a3 | a5\n 59430: a5 = a4 << 0x2\n 59433: a4 = a2 + a3\n 59436: t0 = t1 + a5\n 59439: a3 = t0 <u t1\n 59442: t1 = a4 + a3\n 59445: a4 = t1 ^ a2\n 59448: a2 = t1 <u a2\n 59451: a2 = a3 if a4 == 0\n 59454: a5 = u64 [s1 + 0xd8]\n 59458: a3 = a5 >> 0x3e\n 59461: a4 = u64 [s1 + 0xb8]\n 59465: a4 = a4 << 0x2\n 59468: a3 = a3 | a4\n 59471: a4 = a0 >> 0x3e\n 59474: a5 = a5 << 0x2\n 59477: a4 = a4 | a5\n 59480: t2 = t2 + a3\n 59483: a4 = a4 + a1\n 59486: a3 = a4 + a2\n 59489: a0 = a4 <u a1\n 59492: a2 = a3 <u a4\n 59495: a0 = a0 + t2\n 59498: a4 = a0 + a2\n 59501: a1 = u64 [s1 + 0xf8]\n 59505: a5 = u64 [s1 + 0xc0]\n 59509: t2 = a1 | a5\n 59512: a2 = u64 [s1 + 0xf0]\n 59516: a0 = u64 [s1 + 0xc8]\n 59520: a2 = a2 | a0\n 59523: a0 = t2 | a2\n 59526: a0 = a0 >> 0x20\n 59529: a2 = a2 | a5\n 59532: a2 = a2 << 0x20\n 59535: a0 = a0 | a2\n 59538: u64 [s1 + 0xe0] = t1\n 59542: u64 [ra + 0x8] = t1\n 59545: u64 [s1 + 0xe8] = t0\n 59549: u64 [ra] = t0\n 59551: u64 [s1 + 0xd8] = a3\n 59555: a2 = ra\n 59557: u64 [a2 + 0x10] = a3\n 59560: u64 [s1 + 0xd0] = a4\n 59564: u64 [s1 + 0xb8] = a2\n 59568: u64 [a2 + 0x18] = a4\n 59571: jump @2179 if a0 != 0\n      : @2118 (gas: 2)\n 59575: a0 = s1 + 0x340\n 59579: ra = 2438, jump @17\n      : @2119 [@dyn 1219] (gas: 9)\n 59586: a0 = u64 [s1 + 0x340]\n 59590: u64 [s1 + 0xb0] = a0\n 59594: a0 = u64 [s1 + 0x348]\n 59598: u64 [s1 + 0xa8] = a0\n 59602: a0 = u32 [s1 + 0x350]\n 59606: u64 [s1 + 0xa0] = a0\n 59610: a0 = s1 + 0x320\n 59614: a1 = u64 [s1 + 0xb8]\n 59618: ra = 2440, jump @21\n      : @2120 [@dyn 1220] (gas: 15)\n 59625: a0 = u32 [s1 + 0x334]\n 59629: a0 = a0 << 0x20\n 59632: a3 = s1 + 0x300\n 59636: a1 = u64 [a3 + 0x38]\n 59639: a2 = u64 [s1 + 0xa0]\n 59643: a0 = a0 | a2\n 59646: a2 = u64 [s1 + 0xa8]\n 59650: u64 [a3 + 0xc8] = a2\n 59654: a2 = u64 [s1 + 0xb0]\n 59658: u64 [a3 + 0xc0] = a2\n 59662: u64 [a3 + 0xd8] = a1\n 59666: u64 [a3 + 0xd0] = a0\n 59670: a1 = s1 + 0x3c0\n 59674: a0 = u64 [s1 + 0xb8]\n 59678: ra = 2442, jump @23\n      : @2121 [@dyn 1221] (gas: 13)\n 59685: a1 = u64 [s1 + 0xf8]\n 59689: a0 = u64 [s1 + 0xc0]\n 59693: a3 = u64 [s1 + 0xc8]\n 59697: a3 = a3 | a0\n 59700: a0 = 0x100000000\n 59710: u64 [s1 + 0xc0] = a0\n 59714: a0 = 0xffffffe0\n 59724: a0 = a1 <u a0\n 59727: a2 = u64 [s1 + 0xf0]\n 59731: a0 = 0 if a2 != 0\n 59733: u64 [s1 + 0xc8] = a3\n 59737: a0 = 0 if a3 != 0\n 59739: jump @2179 if a0 == 0\n      : @2122 (gas: 7)\n 59743: a0 = 0xffffffff00000000\n 59753: u64 [s1 + 0xb8] = a0\n 59757: a2 = 0xffffffff\n 59767: u64 [s1 + 0xa0] = a2\n 59771: i32 a1 = a1 + 0x20\n 59774: a0 = s1 + 0x300\n 59778: ra = 2444, jump @17\n      : @2123 [@dyn 1222] (gas: 34)\n 59785: a0 = u64 [s1 + 0x300]\n 59789: a1 = u64 [s1 + 0x308]\n 59793: a2 = u64 [s1 + 0x310]\n 59797: a0 = a0 & 0xffffffffffffffff\n 59800: u64 [s1 + 0xb0] = a0\n 59804: a1 = a1 & 0xffffffffffffffff\n 59807: u64 [s1 + 0xa8] = a1\n 59811: a0 = u64 [s1 + 0xa0]\n 59815: a0 = a0 & a2\n 59818: u64 [s1 + 0xa0] = a0\n 59822: a0 = sp + 0xffffffffffffffe0\n 59825: t0 = a0 & 0xffffffffffffffe0\n 59828: sp = t0\n 59830: a0 = u64 [s1 + 0xe8]\n 59834: a0 = a0 + 0x1\n 59837: a1 = a0 <u 0x1\n 59840: a2 = u64 [s1 + 0xe0]\n 59844: a5 = a2 + a1\n 59847: a2 = a0 | a5\n 59850: a2 = a2 <u 0x1\n 59853: a3 = u64 [s1 + 0xd8]\n 59857: a2 = a2 + a3\n 59860: a3 = a2 <u a3\n 59863: a4 = u64 [s1 + 0xd0]\n 59867: a3 = a3 + a4\n 59870: a1 = t0\n 59872: a4 = t0\n 59874: u64 [s1 + 0x98] = a4\n 59878: u64 [a4 + 0x18] = a3\n 59881: u64 [a4 + 0x10] = a2\n 59884: u64 [a4 + 0x8] = a5\n 59887: u64 [a4] = a0\n 59889: a0 = s1 + 0x2e0\n 59893: ra = 2446, jump @21\n      : @2124 [@dyn 1223] (gas: 17)\n 59900: a0 = u64 [s1 + 0x2f8]\n 59904: a1 = u64 [s1 + 0x2f0]\n 59908: a0 = a0 & 0xffffffffffffffff\n 59911: a2 = u64 [s1 + 0xb8]\n 59915: a1 = a1 & a2\n 59918: a2 = u64 [s1 + 0xa0]\n 59922: a1 = a1 | a2\n 59925: a2 = u64 [s1 + 0xa8]\n 59929: a3 = s1 + 0x300\n 59933: u64 [a3 + 0xe8] = a2\n 59937: a2 = u64 [s1 + 0xb0]\n 59941: u64 [a3 + 0xe0] = a2\n 59945: u64 [a3 + 0xf8] = a0\n 59949: u64 [a3 + 0xf0] = a1\n 59953: a1 = s1 + 0x3e0\n 59957: a0 = u64 [s1 + 0x98]\n 59961: ra = 2448, jump @23\n      : @2125 [@dyn 1224] (gas: 9)\n 59968: a1 = u64 [s1 + 0xf8]\n 59972: a0 = u64 [s1 + 0xc0]\n 59976: a0 = a0 + 0xffffffffffffffc0\n 59979: a0 = a1 <u a0\n 59982: a2 = u64 [s1 + 0xf0]\n 59986: a0 = 0 if a2 != 0\n 59988: a2 = u64 [s1 + 0xc8]\n 59992: a0 = 0 if a2 != 0\n 59994: jump @2179 if a0 == 0\n      : @2126 (gas: 3)\n 59998: i32 a1 = a1 + 0x40\n 60001: a0 = s1 + 0x2c0\n 60005: ra = 2450, jump @17\n      : @2127 [@dyn 1225] (gas: 28)\n 60012: t0 = u64 [s1 + 0x2c0]\n 60016: t1 = u64 [s1 + 0x2c8]\n 60020: a2 = u64 [s1 + 0x2d0]\n 60024: a0 = u64 [s1 + 0xe8]\n 60028: a3 = a0 + 0x2\n 60031: a4 = a3 <u a0\n 60034: a0 = u64 [s1 + 0xe0]\n 60038: a1 = a0 + a4\n 60041: a0 = a1 <u a0\n 60044: a0 = a4 if a4 == 0\n 60047: a4 = u64 [s1 + 0x2d8]\n 60051: a5 = s1 + 0x400\n 60055: u64 [a5] = a3\n 60057: u64 [a5 + 0x8] = a1\n 60060: a1 = u64 [s1 + 0xd8]\n 60064: a0 = a0 + a1\n 60067: u64 [a5 + 0x10] = a0\n 60070: a0 = a0 <u a1\n 60073: a1 = u64 [s1 + 0xd0]\n 60077: a0 = a0 + a1\n 60080: u64 [a5 + 0x18] = a0\n 60083: u64 [a5 + 0x38] = a4\n 60086: u64 [a5 + 0x30] = a2\n 60089: u64 [s1 + 0x428] = t1\n 60093: u64 [s1 + 0x420] = t0\n 60097: a0 = s1 + 0x400\n 60101: a1 = s1 + 0x420\n 60105: ra = 2452, jump @23\n      : @2128 [@dyn 1226] (gas: 32)\n 60112: a0 = sp + 0xffffffffffffffe0\n 60115: a2 = a0 & 0xffffffffffffffe0\n 60118: sp = a2\n 60120: a0 = u64 [s1 + 0xe8]\n 60124: a3 = a0 + 0x3\n 60127: a0 = a3 <u a0\n 60130: a1 = u64 [s1 + 0xe0]\n 60134: a4 = a1 + a0\n 60137: a1 = a4 <u a1\n 60140: a1 = a0 if a0 == 0\n 60143: a0 = u64 [s1 + 0xd8]\n 60147: a1 = a1 + a0\n 60150: a0 = a1 <u a0\n 60153: a5 = u64 [s1 + 0xd0]\n 60157: a0 = a0 + a5\n 60160: u64 [s1 + 0x40] = a0\n 60163: u64 [a2 + 0x18] = a0\n 60166: u64 [s1 + 0x38] = a1\n 60169: u64 [a2 + 0x10] = a1\n 60172: u64 [s1 + 0x98] = a4\n 60176: u64 [a2 + 0x8] = a4\n 60179: a1 = u64 [s1 + 0xf8]\n 60183: a0 = 0xffffffa0\n 60193: a0 = a1 <u a0\n 60196: a4 = u64 [s1 + 0xf0]\n 60200: a0 = 0 if a4 != 0\n 60202: a4 = u64 [s1 + 0xc8]\n 60206: a0 = 0 if a4 != 0\n 60208: u64 [s1 + 0x48] = a2\n 60211: u64 [s1 + 0xa0] = a3\n 60215: u64 [a2] = a3\n 60217: jump @2179 if a0 == 0\n      : @2129 (gas: 3)\n 60221: i32 a1 = a1 + 0x60\n 60224: a0 = s1 + 0x2a0\n 60228: ra = 2454, jump @17\n      : @2130 [@dyn 1227] (gas: 16)\n 60235: a4 = s1 + 0x200\n 60239: a2 = u64 [a4 + 0xb8]\n 60243: a3 = u64 [a4 + 0xb0]\n 60247: a0 = u64 [a4 + 0xa8]\n 60251: a1 = u64 [a4 + 0xa0]\n 60255: u64 [s1 + 0x88] = a0\n 60259: u64 [s1 + 0x80] = a2\n 60263: a0 = a0 | a2\n 60266: a2 = a1 | a3\n 60269: a2 = a2 | a0\n 60272: a2 = a2 >> 0x20\n 60275: u64 [s1 + 0x78] = a3\n 60278: a0 = a0 | a3\n 60281: a0 = a0 << 0x20\n 60284: a0 = a0 | a2\n 60287: jump @2179 if a0 != 0\n      : @2131 (gas: 3)\n 60291: a0 = s1 + 0x280\n 60295: u64 [s1 + 0x90] = a1\n 60299: ra = 2456, jump @17\n      : @2132 [@dyn 1228] (gas: 17)\n 60306: a0 = s1 + 0x200\n 60310: a3 = u64 [a0 + 0x98]\n 60314: a2 = u64 [a0 + 0x90]\n 60318: a1 = u64 [a0 + 0x88]\n 60322: a0 = a3 >u 0\n 60324: a4 = a2 >u 0\n 60326: a4 = a0 if a3 != 0\n 60329: u64 [s1 + 0x58] = a1\n 60332: a0 = a1 >u 0\n 60334: u64 [s1 + 0x60] = a2\n 60337: u64 [s1 + 0x50] = a3\n 60340: a2 = a2 | a3\n 60343: u64 [s1 + 0x30] = a0\n 60346: u64 [s1 + 0x70] = a4\n 60349: u64 [s1 + 0xb0] = a2\n 60353: a0 = a4 if a2 != 0\n 60356: jump @2186 if a0 != 0\n      : @2133 (gas: 5)\n 60360: a0 = u64 [s1 + 0x280]\n 60364: u64 [s1 + 0x68] = a0\n 60367: a0 = s1 + 0x260\n 60371: a1 = u64 [s1 + 0x48]\n 60374: ra = 2458, jump @21\n      : @2134 [@dyn 1229] (gas: 11)\n 60381: a2 = u64 [s1 + 0x260]\n 60385: a0 = u64 [s1 + 0x268]\n 60389: a1 = u64 [s1 + 0x270]\n 60393: a3 = u64 [s1 + 0x278]\n 60397: u64 [s1 + 0x238] = a3\n 60401: u64 [s1 + 0x230] = a1\n 60405: u64 [s1 + 0x228] = a0\n 60409: a0 = s1 + 0x240\n 60413: a1 = s1 + 0x220\n 60417: u64 [s1 + 0x220] = a2\n 60421: ra = 2460, jump @2009\n      : @2135 [@dyn 1230] (gas: 18)\n 60427: a0 = s1 + 0x200\n 60431: a3 = u64 [a0 + 0x58]\n 60434: a4 = u64 [a0 + 0x50]\n 60437: a5 = u64 [a0 + 0x48]\n 60440: t0 = u64 [s1 + 0x240]\n 60444: a0 = a3 >u 0\n 60446: a1 = a4 >u 0\n 60448: a1 = a0 if a3 != 0\n 60451: a0 = a5 >u 0\n 60453: a2 = t0 <u 0x20\n 60456: a2 = a2 ^ 0x1\n 60459: a2 = a0 if a5 != 0\n 60462: a0 = a4 | a3\n 60465: a2 = a1 if a0 != 0\n 60468: a0 = u64 [s1 + 0x68]\n 60471: a0 = a0 <u 0x20\n 60474: u64 [s1 + 0xa8] = a0\n 60478: jump @2147 if a2 == 0\n      : @2136 (gas: 16)\n 60482: u64 [s1 + 0xd0] = t0\n 60486: u64 [s1 + 0xd8] = a5\n 60490: u64 [s1 + 0xf0] = a4\n 60494: u64 [s1 + 0xe0] = a3\n 60498: a0 = u64 [s1 + 0xa0]\n 60502: a2 = s1 + 0x200\n 60506: u64 [a2] = a0\n 60508: a0 = u64 [s1 + 0x98]\n 60512: u64 [a2 + 0x8] = a0\n 60515: a0 = u64 [s1 + 0x38]\n 60518: u64 [a2 + 0x10] = a0\n 60521: a1 = s1 + 0x200\n 60525: a0 = u64 [s1 + 0x40]\n 60528: u64 [a2 + 0x18] = a0\n 60531: a0 = 0\n 60533: ra = 2462, jump @19\n      : @2137 [@dyn 1231] (gas: 3)\n 60540: a2 = u64 [s1 + 0x20]\n 60543: a0 = i32 [a2]\n 60545: jump @2139 if a0 >u 31\n      : @2138 (gas: 2)\n 60549: u32 [a2 + 0] = 0x20\n 60552: fallthrough\n      : @2139 (gas: 10)\n 60553: a0 = sp + 0xffffffffffffffe0\n 60556: a0 = a0 & 0xffffffffffffffe0\n 60559: u64 [s1 + 0xe8] = a0\n 60563: sp = a0\n 60565: i32 a2 = a0 + 0\n 60567: a1 = 0x20\n 60570: a0 = u64 [s1 + 0x28]\n 60573: ra = 0x9a0\n 60577: ecalli 6 // 'hash_keccak_256'\n 60579: fallthrough\n      : @2140 [@dyn 1232] (gas: 15)\n 60580: a0 = u64 [s1 + 0x68]\n 60583: a1 = a0 + 0x1f\n 60586: a0 = a1 <u a0\n 60589: a5 = u64 [s1 + 0x58]\n 60592: a2 = a5 + a0\n 60595: a3 = a2 <u a5\n 60598: a3 = a0 if a0 == 0\n 60601: a4 = u64 [s1 + 0x60]\n 60604: a3 = a3 + a4\n 60607: u64 [s1 + 0xc8] = a3\n 60611: a3 = a3 << 0x3b\n 60614: a4 = a2 >> 0x5\n 60617: a4 = a4 | a3\n 60620: a0 = u64 [s1 + 0xe8]\n 60624: t0 = 2466, jump @2301\n      : @2141 [@dyn 1233] (gas: 4)\n 60630: a1 = u64 [s1 + 0xa8]\n 60634: a1 = 0 if a5 != 0\n 60636: a3 = u64 [s1 + 0xb0]\n 60640: t0 = 2468, jump @2389\n      : @2142 [@dyn 1234] (gas: 51)\n 60646: t0 = t2 + a0\n 60649: a0 = t0 <u t2\n 60652: a5 = a2 + a0\n 60655: a4 = a4 + a5\n 60658: u64 [s1 + 0xf8] = a4\n 60662: a5 = a4 ^ a2\n 60665: a3 = a4 <u a2\n 60668: a3 = a0 if a5 == 0\n 60671: u64 [s1 + 0xc0] = a3\n 60675: a0 = u64 [s1 + 0xd0]\n 60679: ra = a0 + 0x1f\n 60682: a4 = ra <u a0\n 60685: a3 = u64 [s1 + 0xd8]\n 60689: a0 = a3 + a4\n 60692: a5 = a0 <u a3\n 60695: a5 = a4 if a4 == 0\n 60698: t1 = u64 [s1 + 0xf0]\n 60702: t1 = t1 + a5\n 60705: a4 = t1 << 0x3b\n 60708: a3 = a0 >> 0x5\n 60711: a3 = a3 | a4\n 60714: a0 = a0 << 0x3b\n 60717: a4 = ra >> 0x5\n 60720: a0 = a0 | a4\n 60723: a0 = a0 + t2\n 60726: u64 [s1 + 0xd8] = a0\n 60730: a0 = a0 <u t2\n 60733: t2 = t0\n 60735: a4 = a2 + a0\n 60738: a4 = a4 + a3\n 60741: a3 = a4 ^ a2\n 60744: u64 [s1 + 0xd0] = a4\n 60748: a2 = a4 <u a2\n 60751: a2 = a0 if a3 == 0\n 60754: a4 = u64 [s1 + 0xc8]\n 60758: a0 = u64 [s1 + 0x60]\n 60761: a0 = a4 <u a0\n 60764: a3 = u64 [s1 + 0x50]\n 60767: a0 = a0 + a3\n 60770: a3 = a4 >> 0x5\n 60773: a4 = a0 << 0x3b\n 60776: a3 = a3 | a4\n 60779: a4 = u64 [s1 + 0xe8]\n 60783: t0 = u64 [a4]\n 60785: a4 = u64 [a4 + 0x8]\n 60788: a0 = a0 >> 0x5\n 60791: a3 = 0 if a1 != 0\n 60793: a0 = 0 if a1 != 0\n 60795: a1 = reverse a4\n 60797: a4 = reverse t0\n 60799: t0 = 2470, jump @2388\n      : @2143 [@dyn 1235] (gas: 27)\n 60805: ra = u64 [s1 + 0xc0]\n 60809: ra = ra + a3\n 60812: a3 = ra <u a3\n 60815: t0 = a0 + a3\n 60818: a0 = u64 [s1 + 0xf0]\n 60822: a0 = t1 <u a0\n 60825: a3 = u64 [s1 + 0xe0]\n 60829: a0 = a0 + a3\n 60832: a3 = t1 >> 0x5\n 60835: a5 = a0 << 0x3b\n 60838: a3 = a3 | a5\n 60841: a0 = a0 >> 0x5\n 60844: a0 = a0 + a4\n 60847: a4 = u64 [s1 + 0xf8]\n 60851: a3 = a3 + a1\n 60854: a1 = a3 <u a1\n 60857: a0 = a0 + a1\n 60860: a2 = a2 + a3\n 60863: u64 [s1 + 0xc8] = a2\n 60867: a1 = a2 <u a3\n 60870: a0 = a0 + a1\n 60873: u64 [s1 + 0xc0] = a0\n 60877: a0 = sp + 0xffffffffffffffe0\n 60880: t1 = a0 & 0xffffffffffffffe0\n 60883: sp = t1\n 60885: u64 [s1 + 0xb8] = t1\n 60889: fallthrough\n      : @2144 (gas: 20)\n 60890: a0 = u64 [s1 + 0xd8]\n 60894: a0 = t2 <u a0\n 60897: a2 = u64 [s1 + 0xd0]\n 60901: a1 = a4 ^ a2\n 60904: a2 = a4 <u a2\n 60907: a2 = a0 if a1 == 0\n 60910: a5 = u64 [s1 + 0xc8]\n 60914: a0 = ra <u a5\n 60917: a3 = u64 [s1 + 0xc0]\n 60921: a1 = t0 ^ a3\n 60924: a3 = t0 <u a3\n 60927: a3 = a0 if a1 == 0\n 60930: a0 = ra ^ a5\n 60933: a0 = a0 | a1\n 60936: a3 = a2 if a0 == 0\n 60939: u64 [t1] = t2\n 60941: u64 [t1 + 0x8] = a4\n 60944: u64 [t1 + 0x10] = ra\n 60947: u64 [t1 + 0x18] = t0\n 60950: jump @2147 if a3 == 0\n      : @2145 (gas: 11)\n 60953: u64 [s1 + 1112] = 0\n 60957: u64 [s1 + 1104] = 0\n 60961: u64 [s1 + 1096] = 0\n 60965: u64 [s1 + 1088] = 0\n 60969: a1 = s1 + 0x440\n 60973: a0 = t1\n 60975: u64 [s1 + 0xf0] = t2\n 60979: u64 [s1 + 0xf8] = a4\n 60983: u64 [s1 + 0xe8] = t0\n 60987: u64 [s1 + 0xe0] = ra\n 60991: ra = 2472, jump @23\n      : @2146 [@dyn 1236] (gas: 15)\n 60998: t1 = u64 [s1 + 0xb8]\n 61002: t0 = u64 [s1 + 0xe8]\n 61006: a4 = u64 [s1 + 0xf8]\n 61010: t2 = u64 [s1 + 0xf0]\n 61014: t2 = t2 + 0x1\n 61017: a0 = t2 <u 0x1\n 61020: a4 = a4 + a0\n 61023: a0 = t2 | a4\n 61026: a0 = a0 <u 0x1\n 61029: a1 = u64 [s1 + 0xe0]\n 61033: a0 = a0 + a1\n 61036: a1 = a0 <u a1\n 61039: t0 = t0 + a1\n 61042: ra = a0\n 61044: jump @2144\n      : @2147 (gas: 9)\n 61047: a0 = u64 [s1 + 0xa8]\n 61051: a0 = a0 ^ 0x1\n 61054: a3 = u64 [s1 + 0x58]\n 61057: a1 = u64 [s1 + 0x30]\n 61060: a0 = a1 if a3 != 0\n 61063: a1 = u64 [s1 + 0x70]\n 61066: a2 = u64 [s1 + 0xb0]\n 61070: a0 = a1 if a2 != 0\n 61073: jump @2158 if a0 == 0\n      : @2148 (gas: 15)\n 61077: a0 = u64 [s1 + 0x68]\n 61080: a0 = a0 & 0xffffffffffffffe0\n 61083: u64 [s1 + 0x70] = a0\n 61086: a0 = u64 [s1 + 0xa0]\n 61090: a2 = s1 + 0x100\n 61094: u64 [a2 + 0xc0] = a0\n 61098: a0 = u64 [s1 + 0x98]\n 61102: u64 [a2 + 0xc8] = a0\n 61106: a0 = u64 [s1 + 0x38]\n 61109: u64 [a2 + 0xd0] = a0\n 61113: a1 = s1 + 0x1c0\n 61117: a0 = u64 [s1 + 0x40]\n 61120: u64 [a2 + 0xd8] = a0\n 61124: a0 = 0\n 61126: ra = 2474, jump @19\n      : @2149 [@dyn 1237] (gas: 7)\n 61133: a0 = sp + 0xffffffffffffffe0\n 61136: a0 = a0 & 0xffffffffffffffe0\n 61139: u64 [s1 + 0xd8] = a0\n 61143: sp = a0\n 61145: a1 = 0x20\n 61148: a0 = 0\n 61150: ra = 2476, jump @32\n      : @2150 [@dyn 1238] (gas: 4)\n 61157: a1 = sp + 0xffffffffffffffe0\n 61160: a1 = a1 & 0xffffffffffffffe0\n 61163: u64 [s1 + 0xd0] = a1\n 61167: t0 = 2478, jump @2336\n      : @2151 [@dyn 1239] (gas: 28)\n 61173: ecalli 6 // 'hash_keccak_256'\n 61175: u64 [s1 + 240] = 0x20\n 61180: u64 [s1 + 248] = 0\n 61184: u64 [s1 + 232] = 0\n 61188: a4 = 0\n 61190: t0 = 0\n 61192: t2 = 0\n 61194: u64 [s1 + 224] = 0\n 61198: a3 = u64 [s1 + 0xd0]\n 61202: a0 = u64 [a3 + 0x18]\n 61205: a1 = u64 [a3 + 0x10]\n 61208: a2 = u64 [a3 + 0x8]\n 61211: a5 = u64 [a3]\n 61213: t1 = reverse a0\n 61215: a1 = reverse a1\n 61217: a3 = reverse a2\n 61219: a2 = reverse a5\n 61221: a5 = 0\n 61223: ra = a2\n 61225: a0 = u64 [s1 + 0xd8]\n 61229: u64 [a0 + 0x18] = a2\n 61232: u64 [s1 + 0xb0] = a3\n 61236: u64 [a0 + 0x10] = a3\n 61239: u64 [s1 + 0xd0] = a1\n 61243: u64 [a0 + 0x8] = a1\n 61246: a3 = t1\n 61248: u64 [a0] = t1\n 61250: fallthrough\n      : @2152 (gas: 25)\n 61251: u64 [s1 + 0xc8] = ra\n 61255: t1 = a3\n 61257: a0 = u64 [s1 + 0x70]\n 61260: u64 [s1 + 0xc0] = a4\n 61264: a0 = a4 <u a0\n 61267: a4 = a0 ^ 0x1\n 61270: u64 [s1 + 0xb8] = t0\n 61274: a4 = 0x1 if t0 != 0\n 61277: a0 = u64 [s1 + 0xe0]\n 61281: a0 = t2 | a0\n 61284: a4 = 0x1 if a0 != 0\n 61287: a1 = u64 [s1 + 0x90]\n 61291: a0 = u64 [s1 + 0xf0]\n 61295: a1 = a1 + a0\n 61298: a3 = u64 [s1 + 0x88]\n 61302: a3 = a3 + a5\n 61305: a2 = u64 [s1 + 0x78]\n 61308: a0 = u64 [s1 + 0xf8]\n 61312: a2 = a2 + a0\n 61315: a0 = u64 [s1 + 0x80]\n 61319: t0 = a5\n 61321: a5 = u64 [s1 + 0xe8]\n 61325: a0 = a0 + a5\n 61328: a5 = t0\n 61330: jump @2162 if a4 != 0\n      : @2153 (gas: 15)\n 61334: u64 [s1 + 0xa0] = t2\n 61338: a4 = u64 [s1 + 0xf0]\n 61342: a4 = a1 <u a4\n 61345: a3 = a3 + a4\n 61348: t0 = a3 ^ a5\n 61351: u64 [s1 + 0x98] = a5\n 61355: a5 = a3 <u a5\n 61358: a5 = a4 if t0 == 0\n 61361: a5 = a5 + a2\n 61364: t0 = a5 <u a2\n 61367: a4 = u64 [s1 + 0xf8]\n 61371: a2 = a2 <u a4\n 61374: a0 = a0 + a2\n 61377: a0 = a0 + t0\n 61380: t0 = 2480, jump @2277\n      : @2154 [@dyn 1240] (gas: 2)\n 61386: u64 [s1 + 0xa8] = t1\n 61390: jump @2179 if a0 != 0\n      : @2155 (gas: 2)\n 61394: a0 = s1 + 0x180\n 61398: ra = 2482, jump @17\n      : @2156 [@dyn 1241] (gas: 13)\n 61405: a4 = s1 + 0x100\n 61409: a0 = u64 [a4 + 0x98]\n 61413: a1 = u64 [a4 + 0x90]\n 61417: a2 = u64 [a4 + 0x88]\n 61421: a3 = u64 [a4 + 0x80]\n 61425: a4 = s1 + 0x400\n 61429: u64 [a4 + 0x78] = a0\n 61432: u64 [a4 + 0x70] = a1\n 61435: u64 [a4 + 0x68] = a2\n 61438: u64 [a4 + 0x60] = a3\n 61441: a1 = s1 + 0x460\n 61445: a0 = u64 [s1 + 0xd8]\n 61449: ra = 2484, jump @23\n      : @2157 [@dyn 1242] (gas: 57)\n 61456: ra = u64 [s1 + 0xa8]\n 61460: ra = ra + 0x1\n 61463: a0 = ra <u 0x1\n 61466: t0 = u64 [s1 + 0xd0]\n 61470: t0 = t0 + a0\n 61473: a0 = ra | t0\n 61476: a0 = a0 <u 0x1\n 61479: a1 = u64 [s1 + 0xb0]\n 61483: t1 = a1 + a0\n 61486: a1 = t1 <u a1\n 61489: a0 = u64 [s1 + 0xc8]\n 61493: a0 = a0 + a1\n 61496: a1 = u64 [s1 + 0xf0]\n 61500: a2 = a1 + 0x20\n 61503: u64 [s1 + 0xc8] = a2\n 61507: a3 = a2 <u a1\n 61510: a1 = u64 [s1 + 0x98]\n 61514: a2 = a1 + a3\n 61517: u64 [s1 + 0xa8] = a2\n 61521: a4 = a2 <u a1\n 61524: a4 = a3 if a3 == 0\n 61527: a1 = u64 [s1 + 0xf8]\n 61531: t2 = a1 + a4\n 61534: a4 = t2 <u a1\n 61537: a1 = u64 [s1 + 0xe8]\n 61541: a1 = a1 + a4\n 61544: u64 [s1 + 0xe8] = a1\n 61548: a1 = u64 [s1 + 0xc0]\n 61552: a4 = a1 + 0x20\n 61555: a5 = a4 <u a1\n 61558: a2 = u64 [s1 + 0xb8]\n 61562: a1 = a2 + a5\n 61565: a2 = a1 <u a2\n 61568: a2 = a5 if a5 == 0\n 61571: a3 = u64 [s1 + 0xa0]\n 61575: a2 = a2 + a3\n 61578: a5 = a2 <u a3\n 61581: a3 = u64 [s1 + 0xe0]\n 61585: a3 = a3 + a5\n 61588: u64 [s1 + 0xe0] = a3\n 61592: a3 = t0\n 61594: u64 [s1 + 0xd0] = a3\n 61598: a5 = u64 [s1 + 0xd8]\n 61602: u64 [a5 + 0x8] = a3\n 61605: a3 = ra\n 61607: u64 [a5] = ra\n 61609: u64 [a5 + 0x10] = t1\n 61612: ra = a0\n 61614: u64 [a5 + 0x18] = a0\n 61617: u64 [s1 + 0xb0] = t1\n 61621: a0 = u64 [s1 + 0xc8]\n 61625: u64 [s1 + 0xf0] = a0\n 61629: a5 = u64 [s1 + 0xa8]\n 61633: u64 [s1 + 0xf8] = t2\n 61637: t0 = a1\n 61639: t2 = a2\n 61641: jump @2152\n      : @2158 (gas: 8)\n 61644: a2 = u64 [s1 + 0x68]\n 61647: a0 = u64 [s1 + 0x60]\n 61650: a0 = a0 | a2\n 61653: a1 = u64 [s1 + 0x50]\n 61656: a1 = a1 | a3\n 61659: a0 = a0 | a1\n 61662: a4 = u64 [s1 + 0x90]\n 61666: jump @2172 if a0 == 0\n      : @2159 (gas: 9)\n 61670: a0 = u64 [s1 + 0x80]\n 61674: a1 = u64 [s1 + 0x78]\n 61677: a0 = a0 | a1\n 61680: a1 = 0xffffffe0\n 61690: a1 = a4 <u a1\n 61693: a2 = u64 [s1 + 0x88]\n 61697: a1 = 0 if a2 != 0\n 61699: a1 = 0 if a0 != 0\n 61701: jump @2179 if a1 == 0\n      : @2160 (gas: 3)\n 61705: i32 a1 = a4 + 0x20\n 61708: a0 = s1 + 0x1e0\n 61712: ra = 2486, jump @17\n      : @2161 [@dyn 1243] (gas: 12)\n 61719: a1 = s1 + 0x100\n 61723: a0 = u64 [a1 + 0xf8]\n 61727: u64 [s1 + 0xf0] = a0\n 61731: a0 = u64 [a1 + 0xf0]\n 61735: u64 [s1 + 0xe8] = a0\n 61739: a0 = u64 [a1 + 0xe8]\n 61743: u64 [s1 + 0xd8] = a0\n 61747: a0 = u64 [a1 + 0xe0]\n 61751: u64 [s1 + 0xe0] = a0\n 61755: a2 = u64 [s1 + 0x68]\n 61758: a3 = u64 [s1 + 0x58]\n 61761: jump @2173\n      : @2162 (gas: 11)\n 61764: t1 = a5\n 61766: t0 = u64 [s1 + 0x68]\n 61769: a4 = u64 [s1 + 0x70]\n 61772: a4 = a4 ^ t0\n 61775: a5 = u64 [s1 + 0x60]\n 61778: a4 = a4 | a5\n 61781: t2 = u64 [s1 + 0x58]\n 61784: a5 = u64 [s1 + 0x50]\n 61787: a5 = t2 | a5\n 61790: a4 = a4 | a5\n 61793: jump @2171 if a4 == 0\n      : @2163 (gas: 13)\n 61797: a4 = u64 [s1 + 0xf0]\n 61801: a4 = a1 <u a4\n 61804: a3 = a3 + a4\n 61807: t0 = a3 ^ t1\n 61810: a5 = a3 <u t1\n 61813: a5 = a4 if t0 == 0\n 61816: a5 = a5 + a2\n 61819: t0 = a5 <u a2\n 61822: a4 = u64 [s1 + 0xf8]\n 61826: a2 = a2 <u a4\n 61829: a0 = a0 + a2\n 61832: a0 = a0 + t0\n 61835: t0 = 2488, jump @2277\n      : @2164 [@dyn 1244] (gas: 1)\n 61841: jump @2179 if a0 != 0\n      : @2165 (gas: 2)\n 61845: a0 = s1 + 0x1a0\n 61849: ra = 2490, jump @17\n      : @2166 [@dyn 1245] (gas: 17)\n 61856: a1 = s1 + 0x100\n 61860: a0 = u64 [a1 + 0xb8]\n 61864: u64 [s1 + 0xf0] = a0\n 61868: a0 = u64 [a1 + 0xb0]\n 61872: u64 [s1 + 0xe8] = a0\n 61876: a0 = u64 [a1 + 0xa8]\n 61880: u64 [s1 + 0xe0] = a0\n 61884: a0 = u64 [a1 + 0xa0]\n 61888: u64 [s1 + 0xd0] = a0\n 61892: a0 = u64 [s1 + 0x68]\n 61895: a0 = a0 << 0x3b\n 61898: a1 = a0 >> 0x38\n 61901: u64 [s1 + 0xf8] = a1\n 61905: a2 = 0x80 - a1\n 61909: a0 = 0xffffffffffffffff\n 61912: a1 = 0xffffffffffffffff\n 61915: ra = 2492, jump @2409\n      : @2167 [@dyn 1246] (gas: 6)\n 61921: u64 [s1 + 0xc8] = a0\n 61925: u64 [s1 + 0xb0] = a1\n 61929: a0 = 0xffffffffffffffff\n 61932: a1 = 0xffffffffffffffff\n 61935: a2 = u64 [s1 + 0xf8]\n 61939: ra = 2494, jump @2404\n      : @2168 [@dyn 1247] (gas: 10)\n 61945: u64 [s1 + 0xb8] = a0\n 61949: u64 [s1 + 0xc0] = a1\n 61953: a0 = u64 [s1 + 0xb0]\n 61957: a0 = a0 | a1\n 61960: u64 [s1 + 0xb0] = a0\n 61964: a0 = u64 [s1 + 0xf8]\n 61968: a2 = a0 + 0xffffffffffffff80\n 61971: a0 = 0xffffffffffffffff\n 61974: a1 = 0xffffffffffffffff\n 61977: ra = 2496, jump @2404\n      : @2169 [@dyn 1248] (gas: 29)\n 61983: a4 = u64 [s1 + 0xf8]\n 61987: a2 = a4 <u 0x80\n 61991: a3 = u64 [s1 + 0xb0]\n 61995: a1 = a3 if a2 != 0\n 61998: a5 = u64 [s1 + 0xb8]\n 62002: a3 = u64 [s1 + 0xc8]\n 62006: a3 = a3 | a5\n 62009: a3 = a0 if a2 == 0\n 62012: a1 = 0xffffffffffffffff if a4 == 0\n 62015: a3 = 0xffffffffffffffff if a4 == 0\n 62018: a4 = u64 [s1 + 0xc0]\n 62022: a4 = 0 if a2 == 0\n 62024: a5 = 0 if a2 == 0\n 62026: a0 = u64 [s1 + 0xd0]\n 62030: a0 = a0 & ~a3\n 62033: a2 = u64 [s1 + 0xe0]\n 62037: a1 = a2 & ~a1\n 62040: a2 = u64 [s1 + 0xe8]\n 62044: a2 = a2 & ~a5\n 62047: a3 = u64 [s1 + 0xf0]\n 62051: a3 = a3 & ~a4\n 62054: a4 = s1 + 0x400\n 62058: u64 [a4 + 0x98] = a3\n 62062: u64 [a4 + 0x90] = a2\n 62066: u64 [a4 + 0x88] = a1\n 62070: u64 [a4 + 0x80] = a0\n 62074: a1 = s1 + 0x480\n 62078: a0 = u64 [s1 + 0xd8]\n 62082: ra = 2498, jump @23\n      : @2170 [@dyn 1249] (gas: 3)\n 62089: t0 = u64 [s1 + 0x68]\n 62092: t2 = u64 [s1 + 0x58]\n 62095: fallthrough\n      : @2171 (gas: 22)\n 62096: a2 = u64 [s1 + 0x60]\n 62099: a0 = a2 >> 0x3f\n 62102: a1 = u64 [s1 + 0x50]\n 62105: a1 = a1 << 0x1\n 62108: a0 = a0 | a1\n 62111: a1 = t2 >> 0x3f\n 62114: a2 = a2 << 0x1\n 62117: a1 = a1 | a2\n 62120: a2 = t0 >> 0x3f\n 62123: a3 = t2 << 0x1\n 62126: a2 = a2 | a3\n 62129: a3 = t0 << 0x1\n 62132: a3 = a3 + 0x1\n 62135: a4 = s1 + 0x400\n 62139: u64 [a4 + 0xa0] = a3\n 62143: u64 [a4 + 0xa8] = a2\n 62147: u64 [a4 + 0xb0] = a1\n 62151: u64 [a4 + 0xb8] = a0\n 62155: a1 = s1 + 0x4a0\n 62159: a0 = u64 [s1 + 0x48]\n 62162: ra = 0x9cc\n 62166: jump @23\n      : @2172 (gas: 5)\n 62170: u64 [s1 + 224] = 0\n 62174: u64 [s1 + 216] = 0\n 62178: u64 [s1 + 232] = 0\n 62182: u64 [s1 + 240] = 0\n 62186: fallthrough\n      : @2173 (gas: 22)\n 62187: a0 = a3 >> 0x3f\n 62190: a4 = u64 [s1 + 0x60]\n 62193: a1 = a4 << 0x1\n 62196: a0 = a0 | a1\n 62199: u64 [s1 + 0xd0] = a0\n 62203: a0 = a4 >> 0x3f\n 62206: a1 = u64 [s1 + 0x50]\n 62209: a1 = a1 << 0x1\n 62212: a0 = a0 | a1\n 62215: u64 [s1 + 0xc8] = a0\n 62219: a0 = a2 >> 0x3f\n 62222: a1 = a3 << 0x1\n 62225: a0 = a0 | a1\n 62228: u64 [s1 + 0xc0] = a0\n 62232: a0 = a2 << 0x1\n 62235: u64 [s1 + 0xb8] = a0\n 62239: a1 = a2 << 0x3\n 62242: u64 [s1 + 0xf8] = a1\n 62246: i32 a2 = 0x80 - a1\n 62250: a0 = 0xffffffffffffffff\n 62253: a1 = 0xffffffffffffffff\n 62256: ra = 2500, jump @2409\n      : @2174 [@dyn 1250] (gas: 7)\n 62262: u64 [s1 + 0x98] = a0\n 62266: u64 [s1 + 0xb0] = a1\n 62270: a0 = u64 [s1 + 0x68]\n 62273: i32 a2 = a0 << 0x3\n 62276: a0 = 0xffffffffffffffff\n 62279: a1 = 0xffffffffffffffff\n 62282: ra = 2502, jump @2404\n      : @2175 [@dyn 1251] (gas: 10)\n 62288: u64 [s1 + 0xa8] = a0\n 62292: u64 [s1 + 0xa0] = a1\n 62296: a1 = u64 [s1 + 0x98]\n 62300: a0 = a0 | a1\n 62303: u64 [s1 + 0x98] = a0\n 62307: a0 = u64 [s1 + 0xf8]\n 62311: i32 a2 = a0 + 0xffffffffffffff80\n 62314: a0 = 0xffffffffffffffff\n 62317: a1 = 0xffffffffffffffff\n 62320: ra = 2504, jump @2404\n      : @2176 [@dyn 1252] (gas: 7)\n 62326: a4 = u64 [s1 + 0xf8]\n 62330: a2 = a4 <u 0x80\n 62334: a3 = u64 [s1 + 0x98]\n 62338: a0 = a3 if a2 != 0\n 62341: a5 = u64 [s1 + 0xa0]\n 62345: a3 = u64 [s1 + 0xb0]\n 62349: t0 = 2506, jump @2393\n      : @2177 [@dyn 1253] (gas: 26)\n 62355: a4 = u64 [s1 + 0xa8]\n 62359: a4 = 0 if a2 == 0\n 62361: a1 = u64 [s1 + 0xd8]\n 62365: a1 = a1 & ~a3\n 62368: a2 = u64 [s1 + 0xe0]\n 62372: a0 = a2 & ~a0\n 62375: a2 = u64 [s1 + 0xe8]\n 62379: a2 = a2 & ~a4\n 62382: a3 = u64 [s1 + 0xf0]\n 62386: a3 = a3 & ~a5\n 62389: a4 = u64 [s1 + 0xb8]\n 62393: a0 = a0 | a4\n 62396: a4 = u64 [s1 + 0xc0]\n 62400: a1 = a1 | a4\n 62403: a4 = u64 [s1 + 0xc8]\n 62407: a3 = a3 | a4\n 62410: a4 = u64 [s1 + 0xd0]\n 62414: a2 = a2 | a4\n 62417: a4 = s1 + 0x400\n 62421: u64 [a4 + 0xd0] = a2\n 62425: u64 [a4 + 0xd8] = a3\n 62429: u64 [a4 + 0xc8] = a1\n 62433: u64 [a4 + 0xc0] = a0\n 62437: a1 = s1 + 0x4c0\n 62441: a0 = u64 [s1 + 0x48]\n 62444: ra = 2508, jump @23\n      : @2178 [@dyn 1254] (gas: 7)\n 62451: sp = s0 + 0xfffffffffffffb00\n 62455: a0 = sp + 0x400\n 62459: ra = u64 [a0 + 0xf8]\n 62463: s0 = u64 [a0 + 0xf0]\n 62467: s1 = u64 [a0 + 0xe8]\n 62471: sp = sp + 0x500\n 62475: ret\n      : @2179 (gas: 1)\n 62477: trap\n      : @2180 (gas: 6)\n 62478: u64 [s1 + 304] = 0\n 62482: u64 [s1 + 296] = 0\n 62486: u64 [s1 + 288] = 0\n 62490: t0 = 0x9ce\n 62494: a0 = 0x4e487b7100000000\n 62504: fallthrough\n      : @2181 [@dyn 1255] (gas: 4)\n 62505: a1 = s1 + 0x120\n 62509: u64 [s1 + 0x138] = a0\n 62513: a0 = 0\n 62515: ra = 2512, jump @19\n      : @2182 [@dyn 1256] (gas: 7)\n 62522: u64 [s1 + 280] = 0\n 62526: u64 [s1 + 272] = 0\n 62530: u64 [s1 + 256] = 0x41\n 62535: a0 = 0x4\n 62538: a1 = s1 + 0x100\n 62542: u64 [s1 + 264] = 0\n 62546: ra = 2514, jump @19\n      : @2183 [@dyn 1257] (gas: 2)\n 62553: a1 = i32 [0x201a4]\n 62558: jump @2185 if a1 >u 63\n      : @2184 (gas: 2)\n 62562: u32 [0x201a4] = 0x40\n 62568: fallthrough\n      : @2185 (gas: 6)\n 62569: a1 = 0x201b0\n 62574: i32 a1 = a1 + 0\n 62576: a0 = 0x1\n 62579: a2 = 0x24\n 62582: ecalli 8 // 'seal_return'\n 62584: fallthrough\n      : @2186 (gas: 6)\n 62585: u64 [s1 + 368] = 0\n 62589: u64 [s1 + 360] = 0\n 62593: u64 [s1 + 352] = 0\n 62597: t0 = 0x9d4\n 62601: a0 = 0x4e487b7100000000\n 62611: fallthrough\n      : @2187 [@dyn 1258] (gas: 4)\n 62612: a1 = s1 + 0x160\n 62616: u64 [s1 + 0x178] = a0\n 62620: a0 = 0\n 62622: ra = 2518, jump @19\n      : @2188 [@dyn 1259] (gas: 7)\n 62629: u64 [s1 + 344] = 0\n 62633: u64 [s1 + 336] = 0\n 62637: u64 [s1 + 320] = 0x41\n 62642: a0 = 0x4\n 62645: a1 = s1 + 0x140\n 62649: u64 [s1 + 328] = 0\n 62653: ra = 2520, jump @19\n      : @2189 [@dyn 1260] (gas: 3)\n 62660: a0 = u64 [s1 + 0x20]\n 62663: a0 = i32 [a0]\n 62665: jump @2191 if a0 >u 63\n      : @2190 (gas: 3)\n 62669: a1 = u64 [s1 + 0x20]\n 62672: u32 [a1 + 0] = 0x40\n 62675: fallthrough\n      : @2191 (gas: 6)\n 62676: a0 = 0x1\n 62679: a2 = 0x24\n 62682: a1 = u64 [s1 + 0x28]\n 62685: ra = 0x9da\n 62689: ecalli 8 // 'seal_return'\n 62691: fallthrough\n      : @2192 [@dyn 1261] (gas: 22)\n 62692: sp = sp + 0xfffffffffffffed0\n 62696: u64 [sp + 0x128] = ra\n 62700: u64 [sp + 0x120] = s0\n 62704: u64 [sp + 0x118] = s1\n 62708: s0 = sp + 0x130\n 62712: sp = sp & 0xfffffffffffffff0\n 62715: s1 = u64 [a1 + 0x10]\n 62718: a5 = u64 [a1 + 0x18]\n 62721: a4 = u64 [a1 + 0x8]\n 62724: t0 = u64 [a1]\n 62726: u64 [sp + 0x60] = a4\n 62729: u64 [sp + 0x58] = a5\n 62732: a1 = a4 | a5\n 62735: a4 = t0 | s1\n 62738: a4 = a4 | a1\n 62741: a4 = a4 >> 0x20\n 62744: u64 [sp + 0x50] = s1\n 62747: a1 = a1 | s1\n 62750: a1 = a1 << 0x20\n 62753: a1 = a1 | a4\n 62756: u64 [sp + 0x48] = a0\n 62759: jump @2199 if a1 != 0\n      : @2193 (gas: 24)\n 62763: a0 = u64 [a3 + 0x18]\n 62766: u64 [sp + 0x20] = a0\n 62769: a0 = u64 [a3 + 0x10]\n 62772: u64 [sp + 0x18] = a0\n 62775: a0 = u64 [a3 + 0x8]\n 62778: u64 [sp + 0x10] = a0\n 62781: a0 = u64 [a3]\n 62783: u64 [sp + 0x8] = a0\n 62786: a0 = u64 [a2 + 0x18]\n 62789: u64 [sp + 0x28] = a0\n 62792: a0 = u64 [a2 + 0x10]\n 62795: u64 [sp + 0x30] = a0\n 62798: a0 = u64 [a2 + 0x8]\n 62801: u64 [sp + 0x38] = a0\n 62804: a0 = u64 [a2]\n 62806: u64 [sp + 0x40] = a0\n 62809: u64 [sp + 264] = 0\n 62813: u64 [sp + 256] = 0\n 62817: u64 [sp + 248] = 0\n 62821: a1 = sp + 0xf0\n 62825: u64 [sp + 240] = 0x40\n 62830: a0 = t0\n 62832: u64 [sp + 0x68] = t0\n 62835: ra = 2524, jump @19\n      : @2194 [@dyn 1262] (gas: 6)\n 62842: a0 = u64 [sp + 0x68]\n 62845: a0 = a0 + 0x40\n 62848: a1 = u64 [sp + 0x68]\n 62851: a1 = a0 <u a1\n 62854: a3 = u64 [sp + 0x60]\n 62857: t0 = 2526, jump @2385\n      : @2195 [@dyn 1263] (gas: 21)\n 62863: s1 = u64 [sp + 0x50]\n 62866: a3 = a3 + s1\n 62869: a1 = a3 <u s1\n 62872: a4 = u64 [sp + 0x58]\n 62875: a4 = a4 + a1\n 62878: u64 [sp + 0x98] = a2\n 62882: u64 [sp + 0x90] = a0\n 62886: a0 = u64 [sp + 0x28]\n 62889: u64 [sp + 0xc8] = a0\n 62893: a0 = u64 [sp + 0x30]\n 62896: u64 [sp + 0xc0] = a0\n 62900: a0 = u64 [sp + 0x38]\n 62903: u64 [sp + 0xb8] = a0\n 62907: a0 = u64 [sp + 0x40]\n 62910: u64 [sp + 0xb0] = a0\n 62914: u64 [sp + 0xa0] = a3\n 62918: a0 = sp + 0xd0\n 62922: a1 = sp + 0xb0\n 62926: a2 = sp + 0x90\n 62930: u64 [sp + 0xa8] = a4\n 62934: ra = 2528, jump @1909\n      : @2196 [@dyn 1264] (gas: 9)\n 62940: a2 = u64 [sp + 0x68]\n 62943: a0 = u64 [sp + 0x58]\n 62946: a0 = a0 | s1\n 62949: a1 = 0xffffffe0\n 62959: a1 = a2 <u a1\n 62962: a3 = u64 [sp + 0x60]\n 62965: a1 = 0 if a3 != 0\n 62967: a1 = 0 if a0 != 0\n 62969: jump @2199 if a1 == 0\n      : @2197 (gas: 18)\n 62972: a0 = u64 [sp + 0xe8]\n 62976: u64 [sp + 0x50] = a0\n 62979: a0 = u64 [sp + 0xe0]\n 62983: u64 [sp + 0x58] = a0\n 62986: a0 = u64 [sp + 0xd8]\n 62990: u64 [sp + 0x60] = a0\n 62993: s1 = u64 [sp + 0xd0]\n 62997: i32 a0 = a2 + 0x20\n 63000: a1 = u64 [sp + 0x8]\n 63003: u64 [sp + 0x70] = a1\n 63006: a1 = u64 [sp + 0x10]\n 63009: u64 [sp + 0x78] = a1\n 63012: a1 = u64 [sp + 0x18]\n 63015: u64 [sp + 0x80] = a1\n 63019: a1 = sp + 0x70\n 63022: a2 = u64 [sp + 0x20]\n 63025: u64 [sp + 0x88] = a2\n 63029: ra = 2530, jump @19\n      : @2198 [@dyn 1265] (gas: 14)\n 63036: a0 = u64 [sp + 0x48]\n 63039: a1 = u64 [sp + 0x50]\n 63042: u64 [a0 + 0x18] = a1\n 63045: a1 = u64 [sp + 0x58]\n 63048: u64 [a0 + 0x10] = a1\n 63051: a1 = u64 [sp + 0x60]\n 63054: u64 [a0 + 0x8] = a1\n 63057: u64 [a0] = s1\n 63059: sp = s0 + 0xfffffffffffffed0\n 63063: ra = u64 [sp + 0x128]\n 63067: s0 = u64 [sp + 0x120]\n 63071: s1 = u64 [sp + 0x118]\n 63075: sp = sp + 0x130\n 63079: ret\n      : @2199 (gas: 1)\n 63081: trap\n      : @2200 [@dyn 1266] (gas: 6)\n 63082: a1 = u64 [s1 + 0x70]\n 63085: a0 = u64 [s1 + 0x78]\n 63088: a2 = u64 [s1 + 0x90]\n 63092: a0 = a0 | a2\n 63095: a3 = u64 [s1 + 0x80]\n 63099: t0 = 2534, jump @2290\n      : @2201 [@dyn 1267] (gas: 1)\n 63105: jump @2241 if a0 != 0\n      : @2202 (gas: 23)\n 63109: a5 = s1 + 0x200\n 63113: a0 = u64 [a5 + 0x20]\n 63116: a2 = u64 [a5 + 0x38]\n 63119: a4 = u64 [a5 + 0x28]\n 63122: a3 = u64 [a5 + 0x30]\n 63125: a5 = a0 + 0x20\n 63128: u64 [s1 + 0x98] = a5\n 63132: u64 [s1 + 0x88] = a0\n 63136: a0 = a5 <u a0\n 63139: a5 = a4 + a0\n 63142: u64 [s1 + 0x58] = a5\n 63145: u64 [s1 + 0x50] = a4\n 63148: a4 = a5 <u a4\n 63151: a4 = a0 if a0 == 0\n 63154: a4 = a4 + a3\n 63157: u64 [s1 + 0x68] = a4\n 63160: u64 [s1 + 0x40] = a3\n 63163: a0 = a4 <u a3\n 63166: u64 [s1 + 0x48] = a2\n 63169: a0 = a0 + a2\n 63172: u64 [s1 + 0x60] = a0\n 63175: a0 = s1 + 0x200\n 63179: ra = 2536, jump @17\n      : @2203 [@dyn 1268] (gas: 6)\n 63186: a2 = u64 [s1 + 0x68]\n 63189: a0 = u64 [s1 + 0x98]\n 63193: a0 = a0 | a2\n 63196: a1 = u64 [s1 + 0x58]\n 63199: a3 = u64 [s1 + 0x60]\n 63202: t0 = 2538, jump @2324\n      : @2204 [@dyn 1269] (gas: 1)\n 63208: jump @2241 if a0 != 0\n      : @2205 (gas: 10)\n 63212: a0 = u64 [s1 + 0x80]\n 63216: a1 = u64 [s1 + 0x78]\n 63219: a0 = a0 | a1\n 63222: a1 = 0xffffffe0\n 63232: a3 = u64 [s1 + 0x70]\n 63235: a1 = a3 <u a1\n 63238: a2 = u64 [s1 + 0x90]\n 63242: a1 = 0 if a2 != 0\n 63244: a1 = 0 if a0 != 0\n 63246: jump @2241 if a1 == 0\n      : @2206 (gas: 16)\n 63250: a0 = s1 + 0x200\n 63254: a2 = u64 [a0 + 0x18]\n 63257: a4 = u64 [a0 + 0x10]\n 63260: a1 = u64 [a0]\n 63262: a5 = u64 [a0 + 0x8]\n 63265: a0 = a1 | a4\n 63268: u64 [s1 + 0x80] = a2\n 63272: u64 [s1 + 0x38] = a5\n 63275: a2 = a2 | a5\n 63278: a0 = a0 | a2\n 63281: a0 = a0 >> 0x20\n 63284: u64 [s1 + 0x78] = a4\n 63287: a2 = a2 | a4\n 63290: a2 = a2 << 0x20\n 63293: a0 = a0 | a2\n 63296: jump @2241 if a0 != 0\n      : @2207 (gas: 5)\n 63300: i32 a0 = a3 + 0x20\n 63303: u64 [s1 + 0x70] = a0\n 63306: a0 = u64 [s1 + 0x98]\n 63310: u64 [s1 + 0x90] = a1\n 63314: ra = 2540, jump @32\n      : @2208 [@dyn 1270] (gas: 4)\n 63321: u64 [s1 + 0x28] = a0\n 63324: a0 = u64 [s1 + 0x70]\n 63327: a1 = u64 [s1 + 0x90]\n 63331: ra = 2542, jump @32\n      : @2209 [@dyn 1271] (gas: 4)\n 63338: a1 = a0\n 63340: a0 = u64 [s1 + 0x28]\n 63343: a2 = u64 [s1 + 0x90]\n 63347: ra = 2544, jump @0\n      : @2210 [@dyn 1272] (gas: 7)\n 63354: a1 = u64 [s1 + 0x98]\n 63358: a0 = u64 [s1 + 0x90]\n 63362: a0 = a0 + a1\n 63365: a1 = a0 <u a1\n 63368: a4 = u64 [s1 + 0x58]\n 63371: a2 = u64 [s1 + 0x38]\n 63374: t0 = 2546, jump @2308\n      : @2211 [@dyn 1273] (gas: 9)\n 63380: a3 = u64 [s1 + 0x68]\n 63383: a1 = u64 [s1 + 0x78]\n 63386: a1 = a1 + a3\n 63389: t0 = a1 <u a3\n 63392: a5 = u64 [s1 + 0x60]\n 63395: a3 = u64 [s1 + 0x80]\n 63399: a5 = a5 + a3\n 63402: a3 = a5 + t0\n 63405: t0 = 2548, jump @2269\n      : @2212 [@dyn 1274] (gas: 1)\n 63411: jump @2241 if a1 != 0\n      : @2213 (gas: 6)\n 63415: u64 [s1 + 504] = 0\n 63419: u64 [s1 + 496] = 0\n 63423: u64 [s1 + 488] = 0\n 63427: a1 = s1 + 0x1e0\n 63431: u64 [s1 + 480] = 0\n 63435: ra = 2550, jump @19\n      : @2214 [@dyn 1275] (gas: 12)\n 63442: a0 = u64 [s1 + 0x88]\n 63446: a3 = u64 [s1 + 0x40]\n 63449: a2 = a0 | a3\n 63452: a1 = u64 [s1 + 0x50]\n 63455: a4 = u64 [s1 + 0x48]\n 63458: a1 = a1 | a4\n 63461: a2 = a2 | a1\n 63464: a2 = a2 >> 0x20\n 63467: a1 = a1 | a3\n 63470: a1 = a1 << 0x20\n 63473: a1 = a1 | a2\n 63476: jump @2241 if a1 != 0\n      : @2215 (gas: 22)\n 63480: a4 = u64 [s1 + 0x90]\n 63484: a1 = a4 + 0x20\n 63487: u64 [s1 + 0x68] = a1\n 63490: a2 = a1 <u a4\n 63493: a5 = u64 [s1 + 0x38]\n 63496: a1 = a5 + a2\n 63499: u64 [s1 + 0x60] = a1\n 63502: a1 = a1 <u a5\n 63505: a1 = a2 if a2 == 0\n 63508: a3 = u64 [s1 + 0x78]\n 63511: a1 = a1 + a3\n 63514: u64 [s1 + 0x58] = a1\n 63517: a1 = a1 <u a3\n 63520: a2 = u64 [s1 + 0x80]\n 63524: a1 = a1 + a2\n 63527: u64 [s1 + 0x70] = a1\n 63530: u64 [s1 + 0x1c0] = a4\n 63534: u64 [s1 + 0x1c8] = a5\n 63538: u64 [s1 + 0x1d0] = a3\n 63542: a1 = s1 + 0x1c0\n 63546: u64 [s1 + 0x1d8] = a2\n 63550: ra = 2552, jump @19\n      : @2216 [@dyn 1276] (gas: 19)\n 63557: a0 = u64 [s1 + 0x58]\n 63560: u64 [s1 + 0x190] = a0\n 63564: a0 = u64 [s1 + 0x60]\n 63567: u64 [s1 + 0x188] = a0\n 63571: a0 = u64 [s1 + 0x68]\n 63574: u64 [s1 + 0x180] = a0\n 63578: a0 = u64 [s1 + 0x48]\n 63581: u64 [s1 + 0x1b8] = a0\n 63585: a0 = u64 [s1 + 0x40]\n 63588: u64 [s1 + 0x1b0] = a0\n 63592: a0 = u64 [s1 + 0x50]\n 63595: u64 [s1 + 0x1a8] = a0\n 63599: a0 = u64 [s1 + 0x88]\n 63603: u64 [s1 + 0x1a0] = a0\n 63607: a0 = s1 + 0x1a0\n 63611: a1 = s1 + 0x180\n 63615: a2 = u64 [s1 + 0x70]\n 63618: u64 [s1 + 0x198] = a2\n 63622: ra = 2554, jump @1946\n      : @2217 [@dyn 1277] (gas: 3)\n 63628: a0 = s1 + 0x160\n 63632: a1 = u64 [s1 + 0x88]\n 63636: ra = 2556, jump @17\n      : @2218 [@dyn 1278] (gas: 7)\n 63643: a4 = s1 + 0x100\n 63647: a0 = u64 [a4 + 0x78]\n 63650: a3 = u64 [a4 + 0x70]\n 63653: a2 = u64 [a4 + 0x68]\n 63656: a1 = u64 [a4 + 0x60]\n 63659: a0 = a0 | a2\n 63662: t0 = 2558, jump @2290\n      : @2219 [@dyn 1279] (gas: 1)\n 63668: jump @2241 if a0 != 0\n      : @2220 (gas: 3)\n 63672: a0 = u64 [s1 + 0x98]\n 63676: u64 [s1 + 0x98] = a1\n 63680: ra = 2560, jump @32\n      : @2221 [@dyn 1280] (gas: 12)\n 63687: a1 = sp + 0xffffffffffffffe0\n 63690: a2 = a1 & 0xffffffffffffffe0\n 63693: u64 [s1 + 0x90] = a2\n 63697: sp = a2\n 63699: i32 a0 = a0 + 0\n 63701: a1 = i32 [s1 + 0x98]\n 63705: i32 a2 = a2 + 0\n 63707: ra = 0xa02\n 63711: ecalli 6 // 'hash_keccak_256'\n 63713: a3 = u64 [s1 + 0x90]\n 63717: t0 = 0xa04\n 63721: jump @2370\n      : @2222 [@dyn 1281] (gas: 2)\n 63724: a3 = u64 [s1 + 0x90]\n 63728: t0 = 2564, jump @2370\n      : @2223 [@dyn 1282] (gas: 11)\n 63734: u64 [s1 + 0x90] = a0\n 63738: u64 [s1 + 0x158] = a0\n 63742: u64 [s1 + 0x78] = a2\n 63745: u64 [s1 + 0x150] = a2\n 63749: u64 [s1 + 0x80] = a1\n 63753: u64 [s1 + 0x148] = a1\n 63757: a1 = s1 + 0x140\n 63761: u64 [s1 + 0x88] = a4\n 63765: u64 [s1 + 0x140] = a4\n 63769: a0 = 0\n 63771: ra = 2566, jump @19\n      : @2224 [@dyn 1283] (gas: 7)\n 63778: u64 [s1 + 312] = 0\n 63782: u64 [s1 + 304] = 0\n 63786: u64 [s1 + 288] = 0x1\n 63791: a0 = 0x20\n 63794: a1 = s1 + 0x120\n 63798: u64 [s1 + 296] = 0\n 63802: ra = 2568, jump @19\n      : @2225 [@dyn 1284] (gas: 3)\n 63809: a2 = 0x201a4\n 63814: a0 = i32 [0x201a4]\n 63819: jump @2227 if a0 >u 63\n      : @2226 (gas: 2)\n 63823: u32 [0x201a4] = 0x40\n 63829: fallthrough\n      : @2227 (gas: 15)\n 63830: u64 [s1 + 0x70] = a2\n 63833: a0 = sp + 0xffffffffffffffe0\n 63836: a2 = a0 & 0xffffffffffffffe0\n 63839: u64 [s1 + 0x98] = a2\n 63843: sp = a2\n 63845: a0 = 0x201b0\n 63850: i32 a0 = a0 + 0\n 63852: i32 a2 = a2 + 0\n 63854: a1 = 0x40\n 63857: u64 [s1 + 0x68] = a0\n 63860: ra = 0xa0a\n 63864: ecalli 6 // 'hash_keccak_256'\n 63866: a3 = u64 [s1 + 0x98]\n 63870: t0 = 0xa0c\n 63874: jump @2300\n      : @2228 [@dyn 1285] (gas: 2)\n 63877: a3 = u64 [s1 + 0x98]\n 63881: t0 = 2572, jump @2300\n      : @2229 [@dyn 1286] (gas: 8)\n 63887: a1 = s1 + 0x200\n 63891: u64 [a1 + 0x40] = a4\n 63894: u64 [a1 + 0x48] = a5\n 63897: u64 [a1 + 0x50] = a2\n 63900: u64 [a1 + 0x58] = a0\n 63903: a0 = s1 + 0x100\n 63907: a1 = s1 + 0x240\n 63911: ra = 2574, jump @21\n      : @2230 [@dyn 1287] (gas: 2)\n 63918: a0 = u8 [s1 + 0x100]\n 63922: jump @2239 if a0 == 0\n      : @2231 (gas: 11)\n 63926: a0 = u64 [s1 + 0x88]\n 63930: u64 [s1 + 0xe0] = a0\n 63934: a0 = u64 [s1 + 0x80]\n 63938: u64 [s1 + 0xe8] = a0\n 63942: a0 = u64 [s1 + 0x78]\n 63945: u64 [s1 + 0xf0] = a0\n 63949: a1 = s1 + 0xe0\n 63953: a0 = u64 [s1 + 0x90]\n 63957: u64 [s1 + 0xf8] = a0\n 63961: a0 = 0\n 63963: ra = 2576, jump @19\n      : @2232 [@dyn 1288] (gas: 7)\n 63970: u64 [s1 + 216] = 0\n 63974: u64 [s1 + 208] = 0\n 63978: u64 [s1 + 192] = 0x1\n 63983: a0 = 0x20\n 63986: a1 = s1 + 0xc0\n 63990: u64 [s1 + 200] = 0\n 63994: ra = 2578, jump @19\n      : @2233 [@dyn 1289] (gas: 3)\n 64001: a2 = u64 [s1 + 0x70]\n 64004: a0 = i32 [a2]\n 64006: jump @2235 if a0 >u 63\n      : @2234 (gas: 2)\n 64010: u32 [a2 + 0] = 0x40\n 64013: fallthrough\n      : @2235 (gas: 12)\n 64014: a0 = sp + 0xffffffffffffffe0\n 64017: a0 = a0 & 0xffffffffffffffe0\n 64020: u64 [s1 + 0x98] = a0\n 64024: sp = a0\n 64026: i32 a2 = a0 + 0\n 64028: a1 = 0x40\n 64031: a0 = u64 [s1 + 0x68]\n 64034: ra = 0xa14\n 64038: ecalli 6 // 'hash_keccak_256'\n 64040: a3 = u64 [s1 + 0x98]\n 64044: t0 = 0xa16\n 64048: jump @2273\n      : @2236 [@dyn 1290] (gas: 2)\n 64051: a3 = u64 [s1 + 0x98]\n 64055: t0 = 2582, jump @2273\n      : @2237 [@dyn 1291] (gas: 8)\n 64061: a1 = s1 + 0x200\n 64065: u64 [a1 + 0x60] = a4\n 64068: u64 [a1 + 0x68] = a5\n 64071: u64 [a1 + 0x70] = a2\n 64074: u64 [a1 + 0x78] = a0\n 64077: a0 = s1 + 0xa0\n 64081: a1 = s1 + 0x260\n 64085: ra = 2584, jump @21\n      : @2238 [@dyn 1292] (gas: 16)\n 64092: a1 = u64 [s1 + 0xa8]\n 64096: a0 = 0\n 64098: a2 = u32 [s1 + 0xb0]\n 64102: a3 = u64 [s1 + 0x10]\n 64105: a1 = a1 ^ a3\n 64108: a3 = u64 [s1 + 0xa0]\n 64112: a4 = u64 [s1 + 0x18]\n 64115: a4 = a4 << 0x20\n 64118: a4 = a4 >> 0x20\n 64121: a2 = a2 ^ a4\n 64124: a4 = u64 [s1 + 0x20]\n 64127: a3 = a3 ^ a4\n 64130: a1 = a1 | a3\n 64133: a1 = a1 | a2\n 64136: a1 = a1 <u 0x1\n 64139: jump @2240\n      : @2239 (gas: 2)\n 64141: a1 = 0\n 64143: fallthrough\n      : @2240 (gas: 12)\n 64144: a2 = u64 [s1 + 0x30]\n 64147: u64 [a2] = a1\n 64149: u64 [a2 + 0x8] = a0\n 64152: u64 [a2 + 0x10] = a0\n 64155: u64 [a2 + 0x18] = a0\n 64158: sp = s0 + 0xfffffffffffffd60\n 64162: a0 = sp + 0x200\n 64166: ra = u64 [a0 + 0x98]\n 64170: s0 = u64 [a0 + 0x90]\n 64174: s1 = u64 [a0 + 0x88]\n 64178: sp = sp + 0x2a0\n 64182: ret\n      : @2241 (gas: 1)\n 64184: trap\n      : @2242 (gas: 12)\n 64185: sp = sp + 0xffffffffffffff80\n 64188: u64 [sp + 0x78] = ra\n 64191: u64 [sp + 0x70] = s0\n 64194: s0 = sp + 0x80\n 64198: sp = sp & 0xffffffffffffffe0\n 64201: u64 [sp + 88] = 0\n 64204: u64 [sp + 80] = 0\n 64207: u64 [sp + 72] = 0\n 64210: u64 [sp + 64] = 0\n 64213: a0 = sp + 0x20\n 64216: a1 = sp + 0x40\n 64219: ra = 2586, jump @21\n      : @2243 [@dyn 1293] (gas: 2)\n 64226: a0 = u8 [sp + 0x34]\n 64229: jump @2245 if a0 != 0\n      : @2244 (gas: 5)\n 64232: sp = s0 + 0xffffffffffffff80\n 64235: ra = u64 [sp + 0x78]\n 64238: s0 = u64 [sp + 0x70]\n 64241: sp = sp + 0x80\n 64245: ret\n      : @2245 (gas: 8)\n 64247: u64 [sp + 16] = 0\n 64250: u64 [sp + 8] = 0\n 64253: u64 [sp + 0] = 0\n 64255: a0 = 0xd93c066500000000\n 64265: a1 = sp\n 64267: u64 [sp + 0x18] = a0\n 64270: a0 = 0\n 64272: ra = 2588, jump @19\n      : @2246 [@dyn 1294] (gas: 2)\n 64279: a1 = i32 [0x201a4]\n 64284: jump @2248 if a1 >u 31\n      : @2247 (gas: 2)\n 64288: u32 [0x201a4] = 0x20\n 64294: fallthrough\n      : @2248 (gas: 7)\n 64295: a1 = 0x201b0\n 64300: i32 a1 = a1 + 0\n 64302: a0 = 0x1\n 64305: a2 = 0x4\n 64308: ra = 0xa1e\n 64312: ecalli 8 // 'seal_return'\n 64314: fallthrough\n      : @2249 [@dyn 1295] (gas: 13)\n 64315: sp = sp + 0xffffffffffffff40\n 64319: u64 [sp + 0xb8] = ra\n 64323: u64 [sp + 0xb0] = s0\n 64327: u64 [sp + 0xa8] = s1\n 64331: s0 = sp + 0xc0\n 64335: sp = sp & 0xffffffffffffffe0\n 64338: u64 [sp + 152] = 0\n 64342: u64 [sp + 144] = 0\n 64346: u64 [sp + 136] = 0\n 64350: u64 [sp + 128] = 0\n 64354: a0 = sp + 0x60\n 64357: a1 = sp + 0x80\n 64361: ra = 2592, jump @21\n      : @2250 [@dyn 1296] (gas: 12)\n 64368: a0 = u64 [sp + 0x68]\n 64371: u64 [sp + 0x18] = a0\n 64374: a0 = u64 [sp + 0x60]\n 64377: u64 [sp + 0x10] = a0\n 64380: a0 = u32 [sp + 0x70]\n 64383: u64 [sp + 0x8] = a0\n 64386: s1 = 0x301b0\n 64391: i32 a0 = s1 + 0\n 64393: u64 [sp] = a0\n 64395: ra = 0xa22\n 64399: ecalli 3 // 'caller'\n 64401: fallthrough\n      : @2251 [@dyn 1297] (gas: 4)\n 64402: a0 = u64 [s1 + 0x8]\n 64405: a1 = u64 [s1]\n 64407: a2 = i32 [s1 + 0x10]\n 64410: t0 = 2596, jump @2284\n      : @2252 [@dyn 1298] (gas: 9)\n 64416: a2 = u64 [sp + 0x8]\n 64419: a1 = a1 ^ a2\n 64422: a2 = u64 [sp + 0x10]\n 64425: a0 = a0 ^ a2\n 64428: a0 = a0 | a1\n 64431: a1 = u64 [sp + 0x18]\n 64434: a1 = a1 ^ a3\n 64437: a0 = a0 | a1\n 64440: jump @2254 if a0 != 0\n      : @2253 (gas: 6)\n 64443: sp = s0 + 0xffffffffffffff40\n 64447: ra = u64 [sp + 0xb8]\n 64451: s0 = u64 [sp + 0xb0]\n 64455: s1 = u64 [sp + 0xa8]\n 64459: sp = sp + 0xc0\n 64463: ret\n      : @2254 (gas: 8)\n 64465: u64 [sp + 80] = 0\n 64468: u64 [sp + 72] = 0\n 64471: u64 [sp + 64] = 0\n 64474: a0 = 0x118cdaa700000000\n 64484: a1 = sp + 0x40\n 64487: u64 [sp + 0x58] = a0\n 64490: a0 = 0\n 64492: ra = 2598, jump @19\n      : @2255 [@dyn 1299] (gas: 4)\n 64499: a0 = u64 [sp]\n 64501: ra = 0xa28\n 64505: ecalli 3 // 'caller'\n 64507: fallthrough\n      : @2256 [@dyn 1300] (gas: 4)\n 64508: a0 = u64 [s1 + 0x8]\n 64511: a1 = i32 [s1 + 0x10]\n 64514: a2 = u64 [s1]\n 64516: t0 = 2602, jump @2283\n      : @2257 [@dyn 1301] (gas: 7)\n 64522: u64 [sp + 56] = 0\n 64525: u64 [sp + 0x30] = a1\n 64528: u64 [sp + 0x28] = a0\n 64531: a0 = 0x4\n 64534: a1 = sp + 0x20\n 64537: u64 [sp + 0x20] = a3\n 64540: ra = 2604, jump @19\n      : @2258 [@dyn 1302] (gas: 2)\n 64547: a1 = i32 [0x201a4]\n 64552: jump @2260 if a1 >u 63\n      : @2259 (gas: 2)\n 64556: u32 [0x201a4] = 0x40\n 64562: fallthrough\n      : @2260 (gas: 8)\n 64563: a1 = 0x201b0\n 64568: i32 a1 = a1 + 0\n 64570: a0 = 0x1\n 64573: a2 = 0x24\n 64576: ecalli 8 // 'seal_return'\n 64578: a0 = 0\n 64580: ra = 0xa2e\n 64584: jump @38\n      : @2261 [export #0: 'call'] (gas: 2)\n 64588: a0 = 0\n 64590: ra = 2606, jump @38\n      : @2262 [@dyn 1303] [export #1: 'deploy'] (gas: 2)\n 64597: a0 = 0x1\n 64600: ra = 2608, jump @38\n      : @2263 [@dyn 1304] (gas: 22)\n 64607: a4 = u64 [s1 + 0x1d8]\n 64611: a2 = a4 <u 0x80\n 64615: a3 = u64 [s1 + 0x160]\n 64619: a0 = a3 if a2 != 0\n 64622: a5 = u64 [s1 + 0x168]\n 64626: a3 = u64 [s1 + 0x178]\n 64630: a3 = a3 | a5\n 64633: a3 = a1 if a2 == 0\n 64636: a0 = 0xffffffffffffffff if a4 == 0\n 64639: a3 = 0xffffffffffffffff if a4 == 0\n 64642: a5 = 0 if a2 == 0\n 64644: a4 = u64 [s1 + 0x170]\n 64648: a4 = 0 if a2 == 0\n 64650: a1 = u64 [s1 + 0x140]\n 64654: a1 = a1 & ~a3\n 64657: a2 = u64 [s1 + 0x148]\n 64661: a0 = a2 & ~a0\n 64664: a2 = u64 [s1 + 0x150]\n 64668: a2 = a2 & ~a4\n 64671: a3 = u64 [s1 + 0x158]\n 64675: a3 = a3 & ~a5\n 64678: jump [t0]\n      : @2264 (gas: 38)\n 64680: t1 = u64 [s1 + 0x148]\n 64684: t1 = t1 + 0x1\n 64687: a0 = t1 <u 0x1\n 64690: t2 = u64 [s1 + 0x140]\n 64694: t2 = t2 + a0\n 64697: a0 = t1 | t2\n 64700: a0 = a0 <u 0x1\n 64703: a1 = u64 [s1 + 0x150]\n 64707: ra = a1 + a0\n 64710: a1 = ra <u a1\n 64713: a0 = u64 [s1 + 0x168]\n 64717: a0 = a0 + a1\n 64720: a1 = u64 [s1 + 0x1d8]\n 64724: a2 = a1 + 0x20\n 64727: u64 [s1 + 0x168] = a2\n 64731: a3 = a2 <u a1\n 64734: a1 = u64 [s1 + 0x138]\n 64738: a2 = a1 + a3\n 64741: u64 [s1 + 0x148] = a2\n 64745: a4 = a2 <u a1\n 64748: a4 = a3 if a3 == 0\n 64751: a1 = u64 [s1 + 0x190]\n 64755: a3 = a1 + a4\n 64758: a4 = a3 <u a1\n 64761: a1 = u64 [s1 + 0x188]\n 64765: a1 = a1 + a4\n 64768: u64 [s1 + 0x188] = a1\n 64772: a1 = u64 [s1 + 0x178]\n 64776: a4 = a1 + 0x20\n 64779: a5 = a4 <u a1\n 64782: a2 = u64 [s1 + 0x158]\n 64786: a1 = a2 + a5\n 64789: a2 = a1 <u a2\n 64792: a2 = a5 if a5 == 0\n 64795: a5 = u64 [s1 + 0x160]\n 64799: a2 = a2 + a5\n 64802: a5 = a2 <u a5\n 64805: jump [t0]\n      : @2265 (gas: 23)\n 64807: a4 = u64 [s1 + 0x1d8]\n 64811: a2 = a4 <u 0x80\n 64815: a3 = u64 [s1 + 0x150]\n 64819: a1 = a3 if a2 != 0\n 64822: a5 = u64 [s1 + 0x158]\n 64826: a3 = u64 [s1 + 0x168]\n 64830: a3 = a3 | a5\n 64833: a3 = a0 if a2 == 0\n 64836: a1 = 0xffffffffffffffff if a4 == 0\n 64839: a3 = 0xffffffffffffffff if a4 == 0\n 64842: a4 = u64 [s1 + 0x160]\n 64846: a4 = 0 if a2 == 0\n 64848: a5 = 0 if a2 == 0\n 64850: a0 = u64 [s1 + 0x178]\n 64854: a0 = a0 & ~a3\n 64857: a2 = u64 [s1 + 0x180]\n 64861: a1 = a2 & ~a1\n 64864: a2 = u64 [s1 + 0x188]\n 64868: a2 = a2 & ~a5\n 64871: a3 = u64 [s1 + 0x190]\n 64875: a3 = a3 & ~a4\n 64878: a4 = s1 + 0x4958\n 64882: jump [t0]\n      : @2266 (gas: 18)\n 64884: a0 = u64 [a3]\n 64886: a1 = u64 [a3 + 0x8]\n 64889: a2 = u64 [a3 + 0x10]\n 64892: a3 = u64 [a3 + 0x18]\n 64895: a0 = reverse a0\n 64897: a1 = reverse a1\n 64899: a2 = reverse a2\n 64901: a3 = reverse a3\n 64903: a4 = a3 + 0x7\n 64906: a3 = a4 <u a3\n 64909: a5 = a2 + a3\n 64912: a2 = a5 <u a2\n 64915: a2 = a3 if a3 == 0\n 64918: a2 = a2 + a1\n 64921: a1 = a2 <u a1\n 64924: a0 = a0 + a1\n 64927: a1 = s1 + 0x4958\n 64931: jump [t0]\n      : @2267 (gas: 23)\n 64933: a0 = u64 [s1 + 0x110]\n 64937: u64 [s1 + 0x178] = a4\n 64941: a0 = a4 <u a0\n 64944: a4 = a0 ^ 0x1\n 64947: u64 [s1 + 0x158] = a3\n 64951: a4 = 0x1 if a3 != 0\n 64954: u64 [s1 + 0x160] = a2\n 64958: a0 = u64 [s1 + 0x180]\n 64962: a0 = a0 | a2\n 64965: a4 = 0x1 if a0 != 0\n 64968: a1 = u64 [s1 + 0x130]\n 64972: a0 = u64 [s1 + 0x1d8]\n 64976: a1 = a1 + a0\n 64979: a3 = u64 [s1 + 0x128]\n 64983: ra = a5 + a3\n 64986: a2 = u64 [s1 + 0x118]\n 64990: a0 = u64 [s1 + 0x190]\n 64994: a2 = a2 + a0\n 64997: a0 = u64 [s1 + 0x120]\n 65001: a3 = a5\n 65003: a5 = u64 [s1 + 0x188]\n 65007: a0 = a0 + a5\n 65010: jump [t0]\n      : @2268 (gas: 13)\n 65012: a1 = a0 <u a1\n 65015: a3 = u64 [s1 + 0x1b8]\n 65019: a2 = a3 + a1\n 65022: a3 = a2 <u a3\n 65025: a3 = a1 if a1 == 0\n 65028: a1 = u64 [s1 + 0x1c8]\n 65032: a3 = a3 + a1\n 65035: a1 = a3 <u a1\n 65038: a4 = u64 [s1 + 0x1c0]\n 65042: a1 = a1 + a4\n 65045: a4 = s1 + 0x5158\n 65049: a5 = a4 + 0x300\n 65053: jump [t0]\n      : @2269 (gas: 11)\n 65055: a4 = a4 + a1\n 65058: a1 = a4 <u a1\n 65061: a1 = a1 + a3\n 65064: a1 = a1 | a2\n 65067: a2 = a0 | a4\n 65070: a2 = a2 | a1\n 65073: a1 = a1 | a4\n 65076: a2 = a2 >> 0x20\n 65079: a1 = a1 << 0x20\n 65082: a1 = a1 | a2\n 65085: jump [t0]\n      : @2270 (gas: 7)\n 65087: a1 = u64 [a2 + 0xd8]\n 65091: a0 = a1 <u a0\n 65094: a1 = u64 [a2 + 0xd0]\n 65098: a0 = 0 if a1 != 0\n 65100: a1 = u64 [a2 + 0xa8]\n 65104: a0 = 0 if a1 != 0\n 65106: jump [t0]\n      : @2271 (gas: 7)\n 65108: a1 = u64 [a2 + 0x38]\n 65111: a0 = a1 <u a0\n 65114: a1 = u64 [a2 + 0x30]\n 65117: a0 = 0 if a1 != 0\n 65119: a1 = u64 [a2 + 0x10]\n 65122: a0 = 0 if a1 != 0\n 65124: jump [t0]\n      : @2272 (gas: 10)\n 65126: u64 [s1 + 0x170] = a0\n 65130: u64 [s1 + 0x168] = a1\n 65134: a1 = u64 [s1 + 0x160]\n 65138: a0 = a0 | a1\n 65141: u64 [s1 + 0x160] = a0\n 65145: a0 = u64 [s1 + 0x1d8]\n 65149: i32 a2 = a0 + 0xffffffffffffff80\n 65152: a0 = 0xffffffffffffffff\n 65155: a1 = 0xffffffffffffffff\n 65158: jump [t0]\n      : @2273 (gas: 17)\n 65160: a0 = u64 [a3]\n 65162: a1 = u64 [a3 + 0x8]\n 65165: a2 = u64 [a3 + 0x10]\n 65168: a3 = u64 [a3 + 0x18]\n 65171: a0 = reverse a0\n 65173: a1 = reverse a1\n 65175: a2 = reverse a2\n 65177: a3 = reverse a3\n 65179: a4 = a3 + 0x4\n 65182: a3 = a4 <u a3\n 65185: a5 = a2 + a3\n 65188: a2 = a5 <u a2\n 65191: a2 = a3 if a3 == 0\n 65194: a2 = a2 + a1\n 65197: a1 = a2 <u a1\n 65200: a0 = a0 + a1\n 65203: jump [t0]\n      : @2274 (gas: 15)\n 65205: a1 = u64 [s1 + 0x1b8]\n 65209: a0 = u64 [s1 + 0x1d8]\n 65213: a0 = a0 + a1\n 65216: a1 = a0 <u a1\n 65219: a2 = u64 [s1 + 0x1c0]\n 65223: a4 = u64 [s1 + 0x1a0]\n 65227: a2 = a2 + a4\n 65230: a2 = a2 + a1\n 65233: a3 = a2 ^ a4\n 65236: a4 = a2 <u a4\n 65239: a4 = a1 if a3 == 0\n 65242: a1 = u64 [s1 + 0x1c8]\n 65246: a3 = u64 [s1 + 0x1b0]\n 65250: a1 = a1 + a3\n 65253: jump [t0]\n      : @2275 (gas: 23)\n 65255: a4 = u64 [s1 + 0x1d8]\n 65259: a2 = a4 <u 0x80\n 65263: a3 = u64 [s1 + 0x150]\n 65267: a1 = a3 if a2 != 0\n 65270: a5 = u64 [s1 + 0x160]\n 65274: a3 = u64 [s1 + 0x170]\n 65278: a3 = a3 | a5\n 65281: a3 = a0 if a2 == 0\n 65284: a1 = 0xffffffffffffffff if a4 == 0\n 65287: a3 = 0xffffffffffffffff if a4 == 0\n 65290: a4 = u64 [s1 + 0x168]\n 65294: a4 = 0 if a2 == 0\n 65296: a5 = 0 if a2 == 0\n 65298: a0 = u64 [s1 + 0x178]\n 65302: a0 = a0 & ~a3\n 65305: a2 = u64 [s1 + 0x180]\n 65309: a1 = a2 & ~a1\n 65312: a2 = u64 [s1 + 0x188]\n 65316: a2 = a2 & ~a5\n 65319: a3 = u64 [s1 + 0x190]\n 65323: a3 = a3 & ~a4\n 65326: a4 = 0x5000\n 65330: jump [t0]\n      : @2276 (gas: 11)\n 65332: t2 = u64 [s1 + 0x188]\n 65336: t2 = t2 + 0x1\n 65339: a0 = t2 <u 0x1\n 65342: a4 = u64 [s1 + 0x1d8]\n 65346: a4 = a4 + a0\n 65349: a0 = t2 | a4\n 65352: a0 = a0 <u 0x1\n 65355: a1 = u64 [s1 + 0x178]\n 65359: a0 = a0 + a1\n 65362: a1 = a0 <u a1\n 65365: jump [t0]\n      : @2277 (gas: 8)\n 65367: a2 = a1 | a5\n 65370: a0 = a0 | a3\n 65373: a2 = a2 | a0\n 65376: a2 = a2 >> 0x20\n 65379: a0 = a0 | a5\n 65382: a0 = a0 << 0x20\n 65385: a0 = a0 | a2\n 65388: jump [t0]\n      : @2278 (gas: 23)\n 65390: a0 = u64 [s1 + 0x100]\n 65394: a1 = u64 [s1 + 0x168]\n 65398: a0 = a1 <u a0\n 65401: a4 = a0 ^ 0x1\n 65404: a0 = u64 [s1 + 0x160]\n 65408: a4 = 0x1 if a0 != 0\n 65411: a0 = u64 [s1 + 0x178]\n 65415: a2 = u64 [s1 + 0x170]\n 65419: a0 = a0 | a2\n 65422: a4 = 0x1 if a0 != 0\n 65425: a1 = u64 [s1 + 0x120]\n 65429: a0 = u64 [s1 + 0x1d8]\n 65433: a1 = a1 + a0\n 65436: a3 = u64 [s1 + 0x118]\n 65440: a0 = u64 [s1 + 0x188]\n 65444: a3 = a3 + a0\n 65447: a2 = u64 [s1 + 0x108]\n 65451: a0 = u64 [s1 + 0x190]\n 65455: a2 = a2 + a0\n 65458: a0 = u64 [s1 + 0x110]\n 65462: a5 = u64 [s1 + 0x180]\n 65466: a0 = a0 + a5\n 65469: jump [t0]\n      : @2279 (gas: 7)\n 65471: a0 = a0 << 0x3b\n 65474: a1 = a0 >> 0x38\n 65477: u64 [s1 + 0x1d8] = a1\n 65481: a2 = 0x80 - a1\n 65485: a0 = 0xffffffffffffffff\n 65488: a1 = 0xffffffffffffffff\n 65491: jump [t0]\n      : @2280 (gas: 7)\n 65493: a1 = u64 [a2 + 0xd8]\n 65497: a0 = a1 <u a0\n 65500: a1 = u64 [a2 + 0xd0]\n 65504: a0 = 0 if a1 != 0\n 65506: a1 = u64 [a2 + 0xb8]\n 65510: a0 = 0 if a1 != 0\n 65512: jump [t0]\n      : @2281 (gas: 14)\n 65514: u64 [s1 + 384] = 0\n 65518: a3 = u64 [s1 + 0x168]\n 65522: a0 = u64 [a3 + 0x18]\n 65525: a1 = u64 [a3 + 0x10]\n 65528: a2 = u64 [a3 + 0x8]\n 65531: a3 = u64 [a3]\n 65533: t1 = reverse a0\n 65535: t2 = reverse a1\n 65537: ra = reverse a2\n 65539: a2 = 0\n 65541: a4 = u64 [s1 + 0x178]\n 65545: a0 = reverse a3\n 65547: a3 = 0\n 65549: jump [t0]\n      : @2282 (gas: 27)\n 65551: u64 [s1 + 392] = 0\n 65555: u64 [s1 + 400] = 0\n 65559: u64 [s1 + 384] = 0\n 65563: u64 [s1 + 360] = 0\n 65567: u64 [s1 + 352] = 0\n 65571: u64 [s1 + 368] = 0\n 65575: u64 [s1 + 376] = 0\n 65579: a5 = s1 + 0x100\n 65583: a3 = u64 [a5 + 0x50]\n 65586: a0 = u64 [a3 + 0x18]\n 65589: a1 = u64 [a3 + 0x10]\n 65592: a2 = u64 [a3 + 0x8]\n 65595: a3 = u64 [a3]\n 65597: a0 = reverse a0\n 65599: a1 = reverse a1\n 65601: a4 = reverse a2\n 65603: a2 = reverse a3\n 65605: u64 [a5 + 0x40] = a2\n 65608: a3 = u64 [a5 + 0x58]\n 65611: u64 [a3 + 0x18] = a2\n 65614: u64 [a5 + 0x38] = a4\n 65617: u64 [a3 + 0x10] = a4\n 65620: u64 [a5 + 0x48] = a1\n 65623: u64 [a3 + 0x8] = a1\n 65626: u64 [a5 + 0x50] = a0\n 65629: u64 [a3] = a0\n 65631: jump [t0]\n      : @2283 (gas: 11)\n 65633: a0 = reverse a0\n 65635: a3 = a0 << 0x20\n 65638: a1 = reverse a1\n 65640: a1 = a1 >> 0x20\n 65643: a3 = a3 | a1\n 65646: a0 = a0 >> 0x20\n 65649: a1 = reverse a2\n 65651: a2 = a1 << 0x20\n 65654: a0 = a0 | a2\n 65657: a1 = a1 >> 0x20\n 65660: jump [t0]\n      : @2284 (gas: 11)\n 65662: a0 = reverse a0\n 65664: a3 = a0 >> 0x20\n 65667: a1 = reverse a1\n 65669: a4 = a1 << 0x20\n 65672: a3 = a3 | a4\n 65675: a0 = a0 << 0x20\n 65678: a2 = reverse a2\n 65680: a2 = a2 >> 0x20\n 65683: a0 = a0 | a2\n 65686: a1 = a1 >> 0x20\n 65689: jump [t0]\n      : @2285 (gas: 20)\n 65691: a3 = u64 [s1 + 0x1d8]\n 65695: a0 = u64 [a3]\n 65697: a1 = u64 [a3 + 0x8]\n 65700: a2 = u64 [a3 + 0x10]\n 65703: a3 = u64 [a3 + 0x18]\n 65706: a0 = reverse a0\n 65708: a1 = reverse a1\n 65710: a2 = reverse a2\n 65712: a3 = reverse a3\n 65714: a4 = a3 + 0x4\n 65717: a3 = a4 <u a3\n 65720: a5 = a2 + a3\n 65723: a2 = a5 <u a2\n 65726: a2 = a3 if a3 == 0\n 65729: a2 = a2 + a1\n 65732: a1 = a2 <u a1\n 65735: a0 = a0 + a1\n 65738: a1 = s1 + 0x4158\n 65742: a3 = a1 + 0x600\n 65746: jump [t0]\n      : @2286 (gas: 11)\n 65748: a1 = a0 <u a1\n 65751: a3 = u64 [s1 + 0x1b8]\n 65755: a2 = a3 + a1\n 65758: a3 = a2 <u a3\n 65761: a3 = a1 if a1 == 0\n 65764: a1 = u64 [s1 + 0x1c8]\n 65768: a3 = a3 + a1\n 65771: a1 = a3 <u a1\n 65774: a4 = u64 [s1 + 0x1c0]\n 65778: a4 = a4 + a1\n 65781: jump [t0]\n      : @2287 (gas: 8)\n 65783: a0 = u64 [s1 + 0x150]\n 65787: a0 = a0 | a1\n 65790: u64 [s1 + 0x150] = a0\n 65794: a0 = u64 [s1 + 0x1d8]\n 65798: a2 = a0 + 0xffffffffffffff80\n 65801: a0 = 0xffffffffffffffff\n 65804: a1 = 0xffffffffffffffff\n 65807: jump [t0]\n      : @2288 (gas: 8)\n 65809: a1 = sp + 0xffffffffffffffe0\n 65812: a2 = a1 & 0xffffffffffffffe0\n 65815: u64 [s1 + 0x1d0] = a2\n 65819: sp = a2\n 65821: i32 a0 = a0 + 0\n 65823: a1 = i32 [s1 + 0x1d8]\n 65827: i32 a2 = a2 + 0\n 65829: jump [t0]\n      : @2289 (gas: 18)\n 65831: a5 = a0 + 0x20\n 65834: u64 [s1 + 0x1b8] = a5\n 65838: u64 [s1 + 0x198] = a0\n 65842: a0 = a5 <u a0\n 65845: a5 = a4 + a0\n 65848: u64 [s1 + 0x1a0] = a5\n 65852: u64 [s1 + 0x190] = a4\n 65856: a4 = a5 <u a4\n 65859: a4 = a0 if a0 == 0\n 65862: a4 = a4 + a3\n 65865: u64 [s1 + 0x1b0] = a4\n 65869: u64 [s1 + 0x180] = a3\n 65873: a0 = a4 <u a3\n 65876: u64 [s1 + 0x188] = a2\n 65880: a0 = a0 + a2\n 65883: u64 [s1 + 0x1a8] = a0\n 65887: a0 = 0x2000\n 65891: jump [t0]\n      : @2290 (gas: 7)\n 65893: a2 = a1 | a3\n 65896: a2 = a2 | a0\n 65899: a2 = a2 >> 0x20\n 65902: a0 = a0 | a3\n 65905: a0 = a0 << 0x20\n 65908: a0 = a0 | a2\n 65911: jump [t0]\n      : @2291 (gas: 13)\n 65913: a4 = s1 + 0x100\n 65917: a2 = u64 [a4 + 0xb0]\n 65921: a0 = u64 [a4 + 0xb8]\n 65925: a0 = a0 | a2\n 65928: a1 = u64 [a4 + 0xa0]\n 65932: a3 = u64 [a4 + 0xa8]\n 65936: a1 = a1 | a3\n 65939: a0 = a0 | a1\n 65942: a0 = a0 >> 0x20\n 65945: a1 = a1 | a2\n 65948: a1 = a1 << 0x20\n 65951: a0 = a0 | a1\n 65954: jump [t0]\n      : @2292 (gas: 12)\n 65956: a0 = u64 [s1 + 0x198]\n 65960: a5 = u64 [s1 + 0x180]\n 65964: a2 = a0 | a5\n 65967: t2 = u64 [s1 + 0x190]\n 65971: t1 = u64 [s1 + 0x188]\n 65975: a1 = t2 | t1\n 65978: a2 = a2 | a1\n 65981: a2 = a2 >> 0x20\n 65984: a1 = a1 | a5\n 65987: a1 = a1 << 0x20\n 65990: a1 = a1 | a2\n 65993: jump [t0]\n      : @2293 (gas: 13)\n 65995: a2 = u64 [s1 + 0xc8]\n 65999: a0 = u64 [a2 + 0x8]\n 66002: a1 = i32 [a2 + 0x10]\n 66005: a2 = u64 [a2]\n 66007: a0 = reverse a0\n 66009: a3 = a0 << 0x20\n 66012: a1 = reverse a1\n 66014: a1 = a1 >> 0x20\n 66017: a3 = a3 | a1\n 66020: a0 = a0 >> 0x20\n 66023: a1 = reverse a2\n 66025: a2 = a1 << 0x20\n 66028: jump [t0]\n      : @2294 (gas: 10)\n 66030: a3 = a0 >u 0\n 66032: a4 = a5 <u 0x100\n 66036: a4 = a4 ^ 0x1\n 66039: a4 = a3 if a0 != 0\n 66042: a0 = a2 >u 0\n 66044: a3 = a1 >u 0\n 66046: a3 = a0 if a2 != 0\n 66049: a1 = a1 | a2\n 66052: a4 = a3 if a1 != 0\n 66055: jump [t0]\n      : @2295 (gas: 17)\n 66057: a0 = a3 >u 0\n 66059: a1 = a4 >u 0\n 66061: a1 = a0 if a3 != 0\n 66064: a0 = a5 >u 0\n 66066: u64 [s1 + 0x178] = a2\n 66070: a2 = a2 <u 0x20\n 66073: a2 = a2 ^ 0x1\n 66076: u64 [s1 + 0x180] = a5\n 66080: a2 = a0 if a5 != 0\n 66083: a5 = s1 + 0x100\n 66087: u64 [a5 + 0x88] = a3\n 66091: u64 [a5 + 0x90] = a4\n 66095: a0 = a4 | a3\n 66098: a2 = a1 if a0 != 0\n 66101: a0 = u64 [a5 + 0x8]\n 66104: a0 = a0 <u 0x20\n 66107: jump [t0]\n      : @2296 (gas: 11)\n 66109: a3 = s1 + 0x100\n 66113: a0 = u64 [a3 + 0x20]\n 66116: a1 = u64 [a3 + 0x18]\n 66119: a0 = a0 | a1\n 66122: a1 = 0xffffffe0\n 66132: a2 = u64 [a3 + 0x30]\n 66135: a1 = a2 <u a1\n 66138: a2 = u64 [a3 + 0x28]\n 66141: a1 = 0 if a2 != 0\n 66143: a1 = 0 if a0 != 0\n 66145: jump [t0]\n      : @2297 (gas: 4)\n 66147: a3 = a1 | a0\n 66150: a4 = a2 <u 0x1\n 66153: a4 = 0 if a3 != 0\n 66155: jump [t0]\n      : @2298 (gas: 9)\n 66157: a0 = u64 [a3 + 0x18]\n 66160: a1 = u64 [a3 + 0x10]\n 66163: a2 = u64 [a3 + 0x8]\n 66166: a3 = u64 [a3]\n 66168: a0 = reverse a0\n 66170: a1 = reverse a1\n 66172: a2 = reverse a2\n 66174: a3 = reverse a3\n 66176: jump [t0]\n      : @2299 (gas: 17)\n 66178: a0 = u64 [a3 + 0x10]\n 66181: a1 = u64 [a3 + 0x18]\n 66184: a2 = u64 [a3 + 0x8]\n 66187: a3 = u64 [a3]\n 66189: a0 = reverse a0\n 66191: a1 = reverse a1\n 66193: a4 = a1 + 0x6\n 66196: a1 = a4 <u a1\n 66199: a5 = a0 + a1\n 66202: a0 = a5 <u a0\n 66205: a0 = a1 if a1 == 0\n 66208: a1 = reverse a3\n 66210: a2 = reverse a2\n 66212: a0 = a0 + a2\n 66215: a2 = a0 <u a2\n 66218: a1 = a1 + a2\n 66221: jump [t0]\n      : @2300 (gas: 17)\n 66223: a0 = u64 [a3]\n 66225: a1 = u64 [a3 + 0x8]\n 66228: a2 = u64 [a3 + 0x10]\n 66231: a3 = u64 [a3 + 0x18]\n 66234: a0 = reverse a0\n 66236: a1 = reverse a1\n 66238: a2 = reverse a2\n 66240: a3 = reverse a3\n 66242: a4 = a3 + 0x7\n 66245: a3 = a4 <u a3\n 66248: a5 = a2 + a3\n 66251: a2 = a5 <u a2\n 66254: a2 = a3 if a3 == 0\n 66257: a2 = a2 + a1\n 66260: a1 = a2 <u a1\n 66263: a0 = a0 + a1\n 66266: jump [t0]\n      : @2301 (gas: 8)\n 66268: t1 = u64 [a0 + 0x18]\n 66271: a2 = a2 << 0x3b\n 66274: a3 = u64 [a0 + 0x10]\n 66277: a1 = a1 >> 0x5\n 66280: a0 = a1 | a2\n 66283: t2 = reverse t1\n 66285: a2 = reverse a3\n 66287: jump [t0]\n      : @2302 (gas: 17)\n 66289: a0 = a3 <u a0\n 66292: a1 = u64 [s1 + 0x70]\n 66295: a4 = a1 + a0\n 66298: a1 = a4 <u a1\n 66301: a1 = a0 if a0 == 0\n 66304: a0 = u64 [s1 + 0x80]\n 66308: a5 = a0 + a1\n 66311: a0 = a5 <u a0\n 66314: a1 = u64 [s1 + 0x78]\n 66317: a0 = a0 + a1\n 66320: u64 [s1 + 0x138] = a5\n 66324: u64 [a2 + 0x10] = a5\n 66327: u64 [s1 + 0x148] = a4\n 66331: u64 [a2 + 0x8] = a4\n 66334: u64 [s1 + 0x150] = a3\n 66338: u64 [a2] = a3\n 66340: jump [t0]\n      : @2303 (gas: 8)\n 66342: a0 = sp + 0xffffffffffffffe0\n 66345: a0 = a0 & 0xffffffffffffffe0\n 66348: u64 [s1 + 0x1d8] = a0\n 66352: sp = a0\n 66354: i32 a2 = a0 + 0\n 66356: a1 = 0x40\n 66359: a0 = u64 [s1 + 0xa0]\n 66363: jump [t0]\n      : @2304 (gas: 8)\n 66365: a0 = sp + 0xffffffffffffffe0\n 66368: a0 = a0 & 0xffffffffffffffe0\n 66371: u64 [s1 + 0x160] = a0\n 66375: sp = a0\n 66377: i32 a2 = a0 + 0\n 66379: a1 = 0x20\n 66382: a0 = u64 [s1 + 0xf0]\n 66386: jump [t0]\n      : @2305 (gas: 13)\n 66388: a1 = a0 <u a1\n 66391: a3 = u64 [s1 + 0x1b8]\n 66395: a2 = a3 + a1\n 66398: a3 = a2 <u a3\n 66401: a3 = a1 if a1 == 0\n 66404: a1 = u64 [s1 + 0x1c8]\n 66408: a3 = a3 + a1\n 66411: a1 = a3 <u a1\n 66414: a4 = u64 [s1 + 0x1c0]\n 66418: a1 = a1 + a4\n 66421: a4 = s1 + 0x4158\n 66425: a5 = a4 + 0x500\n 66429: jump [t0]\n      : @2306 (gas: 13)\n 66431: a1 = a0 <u a1\n 66434: a3 = u64 [s1 + 0x1b8]\n 66438: a2 = a3 + a1\n 66441: a3 = a2 <u a3\n 66444: a3 = a1 if a1 == 0\n 66447: a1 = u64 [s1 + 0x1c8]\n 66451: a3 = a3 + a1\n 66454: a1 = a3 <u a1\n 66457: a4 = u64 [s1 + 0x1c0]\n 66461: a1 = a1 + a4\n 66464: a4 = s1 + 0x4158\n 66468: a5 = a4 + 0x600\n 66472: jump [t0]\n      : @2307 (gas: 5)\n 66474: u64 [s1 + 0x1d8] = a1\n 66478: i32 a2 = 0x80 - a1\n 66482: a0 = 0xffffffffffffffff\n 66485: a1 = 0xffffffffffffffff\n 66488: jump [t0]\n      : @2308 (gas: 6)\n 66490: a2 = a2 + a4\n 66493: a2 = a2 + a1\n 66496: a3 = a2 ^ a4\n 66499: a4 = a2 <u a4\n 66502: a4 = a1 if a3 == 0\n 66505: jump [t0]\n      : @2309 (gas: 13)\n 66507: a5 = s1 + 0x100\n 66511: u64 [a5 + 0x28] = a2\n 66514: u64 [a5 + 0x20] = a3\n 66517: a0 = a2 | a3\n 66520: u64 [a5 + 0x30] = a1\n 66523: a1 = a1 | a4\n 66526: a1 = a1 | a0\n 66529: a1 = a1 >> 0x20\n 66532: u64 [a5 + 0x18] = a4\n 66535: a0 = a0 | a4\n 66538: a0 = a0 << 0x20\n 66541: a0 = a0 | a1\n 66544: jump [t0]\n      : @2310 (gas: 12)\n 66546: a1 = a0 <u a1\n 66549: a3 = u64 [s1 + 0x1b8]\n 66553: a2 = a3 + a1\n 66556: a3 = a2 <u a3\n 66559: a3 = a1 if a1 == 0\n 66562: a1 = u64 [s1 + 0x1c8]\n 66566: a3 = a3 + a1\n 66569: a1 = a3 <u a1\n 66572: a4 = u64 [s1 + 0x1c0]\n 66576: a4 = a4 + a1\n 66579: a1 = s1 + 0x4158\n 66583: jump [t0]\n      : @2311 (gas: 10)\n 66585: a2 = a1 | a5\n 66588: a0 = ra | a0\n 66591: a2 = a2 | a0\n 66594: a2 = a2 >> 0x20\n 66597: a0 = a0 | a5\n 66600: a0 = a0 << 0x20\n 66603: a0 = a0 | a2\n 66606: u64 [s1 + 0x148] = t1\n 66610: u64 [s1 + 0x140] = t2\n 66614: jump [t0]\n      : @2312 (gas: 14)\n 66616: a3 = u64 [s1 + 0x1d8]\n 66620: a0 = u64 [a3 + 0x18]\n 66623: a1 = u64 [a3 + 0x10]\n 66626: a2 = u64 [a3 + 0x8]\n 66629: a3 = u64 [a3]\n 66631: a0 = reverse a0\n 66633: u64 [s1 + 0x1b0] = a0\n 66637: a0 = reverse a1\n 66639: u64 [s1 + 0x1b8] = a0\n 66643: a0 = reverse a2\n 66645: u64 [s1 + 0x1c8] = a0\n 66649: a0 = reverse a3\n 66651: u64 [s1 + 0x1c0] = a0\n 66655: jump [t0]\n      : @2313 (gas: 7)\n 66657: u64 [s1 + 0x178] = a0\n 66661: a0 = u64 [s1 + 0x1b8]\n 66665: u64 [s1 + 0x1d0] = a2\n 66669: u64 [s1 + 0x1c8] = a3\n 66673: u64 [s1 + 0x1d8] = a1\n 66677: u64 [s1 + 0x1c0] = a5\n 66681: jump [t0]\n      : @2314 (gas: 13)\n 66683: a0 = u64 [s1 + 0x1b0]\n 66687: a0 = a0 + 0x1\n 66690: a1 = a0 <u 0x1\n 66693: a2 = u64 [s1 + 0x1b8]\n 66697: a1 = a1 + a2\n 66700: a2 = a0 | a1\n 66703: a2 = a2 <u 0x1\n 66706: a3 = u64 [s1 + 0x1c8]\n 66710: a2 = a2 + a3\n 66713: a3 = a2 <u a3\n 66716: a4 = u64 [s1 + 0x1c0]\n 66720: a3 = a3 + a4\n 66723: jump [t0]\n      : @2315 (gas: 5)\n 66725: u64 [s1 + 328] = 0\n 66729: u64 [s1 + 320] = 0\n 66733: u64 [s1 + 336] = 0\n 66737: u64 [s1 + 344] = 0\n 66741: jump [t0]\n      : @2316 (gas: 4)\n 66743: a0 = 0x3958\n 66747: a1 = s1 + a0\n 66750: a2 = a1 + 0x600\n 66754: jump [t0]\n      : @2317 (gas: 4)\n 66756: a2 = a0\n 66758: a0 = 0x4e487b7100000000\n 66768: a1 = 0x3000\n 66772: jump [t0]\n      : @2318 (gas: 15)\n 66774: u64 [s1 + 0x150] = ra\n 66778: u64 [a3] = ra\n 66780: u64 [a3 + 0x10] = t1\n 66783: u64 [a5 + 0x40] = a0\n 66786: u64 [a3 + 0x18] = a0\n 66789: u64 [s1 + 0x138] = t1\n 66793: a0 = u64 [a5 + 0x30]\n 66796: u64 [a5 + 0xd8] = a0\n 66800: a0 = u64 [a5 + 0x28]\n 66803: u64 [a5 + 0x88] = a0\n 66807: u64 [s1 + 0x190] = t2\n 66811: u64 [a5 + 0x68] = a4\n 66814: u64 [a5 + 0x60] = a1\n 66817: u64 [a5 + 0x70] = a2\n 66820: jump [t0]\n      : @2319 (gas: 14)\n 66822: a4 = a1 <u t1\n 66825: a5 = a0 + a4\n 66828: a0 = a5 <u a0\n 66831: a0 = a4 if a4 == 0\n 66834: a0 = a0 + a2\n 66837: a2 = a0 <u a2\n 66840: a2 = a2 + a3\n 66843: u64 [sp + 0x40] = a1\n 66846: u64 [sp + 0x48] = a5\n 66849: u64 [sp + 0x50] = a0\n 66852: a0 = 0x40\n 66855: a1 = sp + a0\n 66858: u64 [sp + 0x58] = a2\n 66861: jump [t0]\n      : @2320 (gas: 11)\n 66863: a1 = a0 <u a1\n 66866: a3 = u64 [s1 + 0x1d0]\n 66870: a2 = a3 + a1\n 66873: a3 = a2 <u a3\n 66876: a3 = a1 if a1 == 0\n 66879: a1 = u64 [s1 + 0x1c0]\n 66883: a3 = a3 + a1\n 66886: a1 = a3 <u a1\n 66889: a4 = u64 [s1 + 0x1c8]\n 66893: a4 = a4 + a1\n 66896: jump [t0]\n      : @2321 (gas: 7)\n 66898: a0 = 0x20\n 66901: u64 [s1 + 0x1d8] = a0\n 66905: a5 = 0\n 66907: u64 [s1 + 400] = 0\n 66911: u64 [s1 + 392] = 0\n 66915: u64 [s1 + 376] = 0\n 66919: jump [t0]\n      : @2322 (gas: 14)\n 66921: a3 = s1 + 0x100\n 66925: a0 = u64 [a3 + 0xc0]\n 66929: a1 = u64 [a3 + 0xc8]\n 66933: a1 = a1 | a0\n 66936: a0 = 0x100000000\n 66946: u64 [a3 + 0xb0] = a0\n 66950: a0 = 0xffffffe0\n 66960: a2 = u64 [a3 + 0xd8]\n 66964: a0 = a2 <u a0\n 66967: a2 = u64 [a3 + 0xd0]\n 66971: a0 = 0 if a2 != 0\n 66973: u64 [a3 + 0xb8] = a1\n 66977: a0 = 0 if a1 != 0\n 66979: jump [t0]\n      : @2323 (gas: 8)\n 66981: u64 [sp + 48] = 0\n 66984: u64 [sp + 40] = 0\n 66987: u64 [sp + 32] = 0\n 66990: a0 = 0x4e487b7100000000\n 67000: a1 = sp + 0x20\n 67003: u64 [sp + 0x38] = a0\n 67006: a0 = 0\n 67008: jump [t0]\n      : @2324 (gas: 7)\n 67010: a1 = a1 | a3\n 67013: a0 = a0 | a1\n 67016: a0 = a0 >> 0x20\n 67019: a1 = a1 | a2\n 67022: a1 = a1 << 0x20\n 67025: a0 = a0 | a1\n 67028: jump [t0]\n      : @2325 (gas: 8)\n 67030: a0 = sp + 0xffffffffffffffe0\n 67033: a0 = a0 & 0xffffffffffffffe0\n 67036: u64 [s1 + 0x1d8] = a0\n 67040: sp = a0\n 67042: i32 a2 = a0 + 0\n 67044: a1 = 0x40\n 67047: a0 = u64 [s1 + 0xf0]\n 67051: jump [t0]\n      : @2326 (gas: 12)\n 67053: a5 = s1 + 0x100\n 67057: a1 = u64 [a5 + 0xd8]\n 67061: a0 = u64 [a5 + 0xc8]\n 67065: a3 = u64 [a5 + 0xc0]\n 67069: a3 = a3 | a0\n 67072: a4 = 0x100000000\n 67082: a0 = 0xfffffffc\n 67092: a0 = a1 <u a0\n 67095: a2 = u64 [a5 + 0xd0]\n 67099: a0 = 0 if a2 != 0\n 67101: a0 = 0 if a3 != 0\n 67103: jump [t0]\n      : @2327 (gas: 8)\n 67105: a1 = sp + 0xffffffffffffffe0\n 67108: a1 = a1 & 0xffffffffffffffe0\n 67111: u64 [s1 + 0x168] = a1\n 67115: sp = a1\n 67117: i32 a0 = a0 + 0\n 67119: i32 a2 = a1 + 0\n 67121: a1 = 0x20\n 67124: jump [t0]\n      : @2328 (gas: 10)\n 67126: u64 [s1 + 0x1a0] = a1\n 67130: t2 = u64 [s1 + 0x190]\n 67134: a2 = t2 >> 0x3d\n 67137: a3 = u64 [s1 + 0x180]\n 67141: a5 = a3 << 0x3\n 67144: t1 = a5 | a2\n 67147: a3 = a3 >> 0x3d\n 67150: a5 = u64 [s1 + 0x188]\n 67154: a2 = a5 << 0x3\n 67157: jump [t0]\n      : @2329 (gas: 10)\n 67159: a1 = a0 <u a1\n 67162: a3 = u64 [s1 + 0x1b0]\n 67166: a2 = a3 + a1\n 67169: a3 = a2 <u a3\n 67172: a3 = a1 if a1 == 0\n 67175: a1 = u64 [s1 + 0x1d0]\n 67179: a3 = a3 + a1\n 67182: a1 = a3 <u a1\n 67185: a4 = u64 [s1 + 0x1c0]\n 67189: jump [t0]\n      : @2330 (gas: 13)\n 67191: sp = sp + 0xffffffffffffff90\n 67194: u64 [sp + 0x68] = ra\n 67197: u64 [sp + 0x60] = s0\n 67200: s0 = sp + 0x70\n 67203: sp = sp & 0xfffffffffffffff0\n 67206: a3 = u64 [a0 + 0x18]\n 67209: a2 = u64 [a0 + 0x10]\n 67212: t1 = u64 [a0]\n 67214: a0 = u64 [a0 + 0x8]\n 67217: a4 = a3 >u 0\n 67219: a5 = a2 >u 0\n 67221: a5 = a4 if a3 != 0\n 67224: jump [t0]\n      : @2331 (gas: 11)\n 67226: a3 = s1 + 0x100\n 67230: a0 = u64 [a3 + 0x10]\n 67233: a1 = u64 [a3 + 0x8]\n 67236: a0 = a0 | a1\n 67239: a1 = 0xffffffe0\n 67249: a2 = u64 [a3 + 0x20]\n 67252: a1 = a2 <u a1\n 67255: a2 = u64 [a3 + 0x18]\n 67258: a1 = 0 if a2 != 0\n 67260: a1 = 0 if a0 != 0\n 67262: jump [t0]\n      : @2332 (gas: 11)\n 67264: a4 = s1 + 0x100\n 67268: a0 = u64 [a4 + 0xa8]\n 67272: a2 = u64 [a4 + 0xa0]\n 67276: a2 = a2 | a0\n 67279: a3 = 0x100000000\n 67289: a0 = 0xffffffe0\n 67299: a1 = u64 [a4 + 0xd8]\n 67303: a0 = a1 <u a0\n 67306: a1 = u64 [a4 + 0xd0]\n 67310: a0 = 0 if a1 != 0\n 67312: jump [t0]\n      : @2333 (gas: 6)\n 67314: a0 = a0 + a3\n 67317: a3 = a4 >> 0x5\n 67320: a4 = a0 << 0x3b\n 67323: a3 = a3 | a4\n 67326: a4 = u64 [s1 + 0x160]\n 67330: jump [t0]\n      : @2334 (gas: 11)\n 67332: a2 = a5 + a0\n 67335: a3 = a2 <u a5\n 67338: a3 = a0 if a0 == 0\n 67341: a4 = u64 [s1 + 0x98]\n 67345: a3 = a3 + a4\n 67348: u64 [s1 + 0x158] = a3\n 67352: a3 = a3 << 0x3b\n 67355: a4 = a2 >> 0x5\n 67358: a4 = a4 | a3\n 67361: a0 = u64 [s1 + 0x160]\n 67365: jump [t0]\n      : @2335 (gas: 7)\n 67367: a1 = a1 | a2\n 67370: a1 = a1 | a0\n 67373: a1 = a1 >> 0x20\n 67376: a0 = a0 | a2\n 67379: a0 = a0 << 0x20\n 67382: a0 = a0 | a1\n 67385: jump [t0]\n      : @2336 (gas: 5)\n 67387: sp = a1\n 67389: i32 a0 = a0 + 0\n 67391: i32 a2 = a1 + 0\n 67393: a1 = 0x20\n 67396: jump [t0]\n      : @2337 (gas: 8)\n 67398: a0 = a0 | a2\n 67401: a2 = a4 | a1\n 67404: a2 = a2 | a0\n 67407: a2 = a2 >> 0x20\n 67410: a0 = a0 | a1\n 67413: a0 = a0 << 0x20\n 67416: a0 = a0 | a2\n 67419: jump [t0]\n      : @2338 (gas: 9)\n 67421: a2 = s1 + 0x100\n 67425: a3 = u64 [a2 + 0xd8]\n 67429: a0 = 0xffffffbc\n 67439: a0 = a3 <u a0\n 67442: a1 = u64 [a2 + 0xd0]\n 67446: a0 = 0 if a1 != 0\n 67448: a1 = u64 [a2 + 0xc8]\n 67452: a0 = 0 if a1 != 0\n 67454: jump [t0]\n      : @2339 (gas: 11)\n 67456: a0 = a0 | a4\n 67459: a5 = s1 + 0x100\n 67463: a4 = u64 [a5 + 0x80]\n 67467: a1 = a1 | a4\n 67470: a4 = u64 [a5 + 0x88]\n 67474: a3 = a3 | a4\n 67477: a4 = u64 [a5 + 0x90]\n 67481: a2 = a2 | a4\n 67484: a4 = s1 + 0x4958\n 67488: a5 = a4 + 0x600\n 67492: jump [t0]\n      : @2340 (gas: 13)\n 67494: a0 = u64 [s1 + 0x30]\n 67497: a1 = u64 [s1 + 0x20]\n 67500: a0 = a0 | a1\n 67503: u64 [s1 + 0x190] = a0\n 67507: a0 = u64 [s1 + 0x48]\n 67510: a1 = u64 [s1 + 0x40]\n 67513: a0 = a0 | a1\n 67516: u64 [s1 + 0x188] = a0\n 67520: a0 = u64 [s1 + 0x38]\n 67523: a1 = u64 [s1 + 0x28]\n 67526: a0 = a0 | a1\n 67529: u64 [s1 + 0x180] = a0\n 67533: jump [t0]\n      : @2341 (gas: 11)\n 67535: a2 = u64 [sp + 0x8]\n 67538: a2 = a2 | s1\n 67541: s1 = 0x100000000\n 67551: a0 = 0xfffffffc\n 67561: a1 = u64 [sp + 0x18]\n 67564: a0 = a1 <u a0\n 67567: a1 = u64 [sp + 0x10]\n 67570: a0 = 0 if a1 != 0\n 67572: u64 [sp + 0x8] = a2\n 67575: a0 = 0 if a2 != 0\n 67577: jump [t0]\n      : @2342 (gas: 16)\n 67579: a4 = u64 [a3]\n 67581: u64 [sp + 0x18] = a4\n 67584: a4 = u64 [a3 + 0x8]\n 67587: u64 [sp + 0x20] = a4\n 67590: a4 = u64 [a3 + 0x10]\n 67593: u64 [sp + 0x28] = a4\n 67596: a3 = u64 [a3 + 0x18]\n 67599: u64 [sp + 0x30] = a3\n 67602: s1 = u64 [a2]\n 67604: a3 = u64 [a2 + 0x8]\n 67607: u64 [sp] = a3\n 67609: a3 = u64 [a2 + 0x10]\n 67612: u64 [sp + 0x8] = a3\n 67615: a2 = u64 [a2 + 0x18]\n 67618: u64 [sp + 0x10] = a2\n 67621: jump [t0]\n      : @2343 (gas: 10)\n 67623: a1 = a0 <u a1\n 67626: a3 = u64 [s1 + 0x70]\n 67629: a2 = a3 + a1\n 67632: a3 = a2 <u a3\n 67635: a3 = a1 if a1 == 0\n 67638: a1 = u64 [s1 + 0x80]\n 67642: a3 = a3 + a1\n 67645: a1 = a3 <u a1\n 67648: a4 = u64 [s1 + 0x78]\n 67651: jump [t0]\n      : @2344 (gas: 7)\n 67653: u64 [s1 + 0x170] = a0\n 67657: u64 [s1 + 0x168] = a1\n 67661: a1 = u64 [s1 + 0x198]\n 67665: i32 a2 = 0x80 - a1\n 67669: a0 = u64 [s1 + 0x1a8]\n 67673: a1 = u64 [s1 + 0x1a0]\n 67677: jump [t0]\n      : @2345 (gas: 14)\n 67679: a4 = s1 + 0x100\n 67683: a1 = u64 [a4 + 0xc0]\n 67687: a2 = a1\n 67689: a0 = u64 [a4 + 0xd0]\n 67693: a0 = a0 | a1\n 67696: a3 = u64 [a4 + 0xc8]\n 67700: a1 = u64 [a4 + 0xd8]\n 67704: a1 = a1 | a3\n 67707: a1 = a1 | a0\n 67710: a1 = a1 >> 0x20\n 67713: a0 = a0 | a3\n 67716: a0 = a0 << 0x20\n 67719: a0 = a0 | a1\n 67722: jump [t0]\n      : @2346 (gas: 10)\n 67724: a0 = u64 [sp + 0x10]\n 67727: a1 = u64 [sp + 0x18]\n 67730: a2 = 0x100000000\n 67740: a2 = a2 ^ a0\n 67743: a2 = a2 | a1\n 67746: a3 = a0 >> 0x20\n 67749: a3 = a3 <u 0x1\n 67752: a3 = 0 if a1 != 0\n 67754: a3 = 0 if a2 == 0\n 67756: jump [t0]\n      : @2347 (gas: 12)\n 67758: a5 = a5 - a3\n 67761: a0 = a0 - a2\n 67764: a0 = a0 - a1\n 67767: a1 = t1 - t2\n 67770: a0 = a0 | a5\n 67773: a3 = a1 | ra\n 67776: a3 = a3 | a0\n 67779: a0 = a0 | ra\n 67782: a3 = a3 >> 0x20\n 67785: a0 = a0 << 0x20\n 67788: a0 = a0 | a3\n 67791: jump [t0]\n      : @2348 (gas: 15)\n 67793: a2 = u64 [sp + 0xb8]\n 67797: s1 = u64 [sp + 0xb0]\n 67801: a0 = u64 [sp + 0xa8]\n 67805: a1 = u64 [sp + 0xa0]\n 67809: u64 [sp + 0x10] = a0\n 67812: u64 [sp + 0x8] = a2\n 67815: a0 = a0 | a2\n 67818: u64 [sp + 0x18] = a1\n 67821: a1 = a1 | s1\n 67824: a1 = a1 | a0\n 67827: a1 = a1 >> 0x20\n 67830: a0 = a0 | s1\n 67833: a0 = a0 << 0x20\n 67836: a0 = a0 | a1\n 67839: jump [t0]\n      : @2349 (gas: 10)\n 67841: a3 = u64 [s1 + 0x1d8]\n 67845: a0 = u64 [a3 + 0x18]\n 67848: a1 = u64 [a3 + 0x10]\n 67851: a2 = u64 [a3 + 0x8]\n 67854: a3 = u64 [a3]\n 67856: a4 = reverse a0\n 67858: a0 = reverse a1\n 67860: a1 = reverse a2\n 67862: a2 = reverse a3\n 67864: jump [t0]\n      : @2350 (gas: 7)\n 67866: a0 = sp + 0xffffffffffffffe0\n 67869: a0 = a0 & 0xffffffffffffffe0\n 67872: u64 [s1 + 0x170] = a0\n 67876: sp = a0\n 67878: a1 = 0x20\n 67881: a0 = 0\n 67883: jump [t0]\n      : @2351 (gas: 14)\n 67885: sp = sp + 0xffffffffffffff20\n 67889: u64 [sp + 0xd8] = ra\n 67893: u64 [sp + 0xd0] = s0\n 67897: u64 [sp + 0xc8] = s1\n 67901: s0 = sp + 0xe0\n 67905: sp = sp & 0xfffffffffffffff0\n 67908: a1 = u64 [a0 + 0x10]\n 67911: a2 = u64 [a0 + 0x18]\n 67914: a3 = u64 [a0 + 0x8]\n 67917: a0 = u64 [a0]\n 67919: a2 = a2 | a3\n 67922: a0 = a0 | a1\n 67925: a0 = a0 | a2\n 67928: jump [t0]\n      : @2352 (gas: 13)\n 67930: a4 = s1 + 0x100\n 67934: u64 [a4 + 0xd0] = a0\n 67938: u64 [a4 + 0xc8] = a2\n 67942: a0 = a0 | a2\n 67945: u64 [a4 + 0xd8] = a1\n 67949: a1 = a1 | a3\n 67952: a1 = a1 | a0\n 67955: a1 = a1 >> 0x20\n 67958: u64 [a4 + 0xc0] = a3\n 67962: a0 = a0 | a3\n 67965: a0 = a0 << 0x20\n 67968: a0 = a0 | a1\n 67971: jump [t0]\n      : @2353 (gas: 5)\n 67973: a4 = u64 [s1 + 0x1d8]\n 67977: a4 = a1 <u a4\n 67980: a3 = a3 + a4\n 67983: a5 = u64 [s1 + 0x188]\n 67987: jump [t0]\n      : @2354 (gas: 8)\n 67989: a4 = a2 + a0\n 67992: a4 = a4 + a3\n 67995: a3 = a4 ^ a2\n 67998: u64 [s1 + 0x168] = a4\n 68002: a2 = a4 <u a2\n 68005: a2 = a0 if a3 == 0\n 68008: a4 = u64 [s1 + 0x158]\n 68012: jump [t0]\n      : @2355 (gas: 8)\n 68014: a2 = a0 + a4\n 68017: a2 = a2 + a3\n 68020: a3 = a2 ^ a0\n 68023: u64 [s1 + 0x168] = a2\n 68027: a2 = a2 <u a0\n 68030: a2 = a4 if a3 == 0\n 68033: a4 = u64 [s1 + 0x158]\n 68037: jump [t0]\n      : @2356 (gas: 10)\n 68039: a0 = a0 | a4\n 68042: a5 = s1 + 0x100\n 68046: a4 = u64 [a5 + 0x80]\n 68050: a1 = a1 | a4\n 68053: a4 = u64 [a5 + 0x88]\n 68057: a3 = a3 | a4\n 68060: a4 = u64 [a5 + 0x90]\n 68064: a2 = a2 | a4\n 68067: a4 = s1 + 0x5158\n 68071: jump [t0]\n      : @2357 (gas: 8)\n 68073: a0 = sp + 0xffffffffffffffe0\n 68076: a0 = a0 & 0xffffffffffffffe0\n 68079: u64 [s1 + 0x158] = a0\n 68083: sp = a0\n 68085: a1 = 0x20\n 68088: u64 [s1 + 0x1d8] = a1\n 68092: a0 = 0\n 68094: jump [t0]\n      : @2358 (gas: 5)\n 68096: a0 = a0 + 0xffffffffffffffdc\n 68099: a0 = a1 <u a0\n 68102: a0 = 0 if a2 != 0\n 68104: a0 = 0 if a3 != 0\n 68106: jump [t0]\n      : @2359 (gas: 8)\n 68108: a4 = a4 | a2\n 68111: a2 = a0 | a1\n 68114: a2 = a2 | a4\n 68117: a2 = a2 >> 0x20\n 68120: a1 = a1 | a4\n 68123: a1 = a1 << 0x20\n 68126: a1 = a1 | a2\n 68129: jump [t0]\n      : @2360 (gas: 6)\n 68131: a3 = s1 + 0x100\n 68135: a0 = u64 [a3 + 0xd0]\n 68139: a1 = u64 [a3 + 0xc8]\n 68143: a0 = a0 | a1\n 68146: a1 = 0xffffffe0\n 68156: jump [t0]\n      : @2361 (gas: 10)\n 68158: a1 = u64 [s1 + 0x98]\n 68162: a2 = a1 >> 0x3f\n 68165: u64 [s1 + 0x48] = a2\n 68168: a2 = a4 << 0x1\n 68171: u64 [s1 + 0x40] = a2\n 68174: a2 = a3 >> 0x3f\n 68177: u64 [s1 + 0x30] = a2\n 68180: a1 = a1 << 0x1\n 68183: u64 [s1 + 0x20] = a1\n 68186: jump [t0]\n      : @2362 (gas: 5)\n 68188: a5 = u64 [s1 + 0x170]\n 68192: u64 [a5 + 0x8] = t2\n 68195: u64 [a5] = t1\n 68197: u64 [a5 + 0x10] = ra\n 68200: jump [t0]\n      : @2363 (gas: 9)\n 68202: a1 = u64 [a2 + 0x60]\n 68205: u64 [s1 + 0x190] = a1\n 68209: a1 = u64 [a2 + 0x58]\n 68212: u64 [s1 + 0x188] = a1\n 68216: a1 = u64 [a2 + 0x50]\n 68219: u64 [s1 + 0x180] = a1\n 68223: a0 = u64 [a2 + 0x48]\n 68226: u64 [s1 + 0x178] = a0\n 68230: jump [t0]\n      : @2364 (gas: 7)\n 68232: a0 = 0xffffffbc\n 68242: a0 = s1 <u a0\n 68245: a1 = u64 [sp + 0x10]\n 68248: a0 = 0 if a1 != 0\n 68250: a1 = u64 [sp + 0x8]\n 68253: a0 = 0 if a1 != 0\n 68255: jump [t0]\n      : @2365 (gas: 6)\n 68257: u64 [s1 + 0x168] = a0\n 68261: u64 [s1 + 0x150] = a1\n 68265: a0 = 0xffffffffffffffff\n 68268: a1 = 0xffffffffffffffff\n 68271: a2 = u64 [s1 + 0x1d8]\n 68275: jump [t0]\n      : @2366 (gas: 12)\n 68277: a2 = u64 [sp]\n 68279: a3 = u64 [sp + 0x8]\n 68282: u64 [s1] = a2\n 68284: u64 [s1 + 0x8] = a3\n 68287: u64 [s1 + 0x10] = a0\n 68290: u64 [s1 + 0x18] = a1\n 68293: sp = s0 + 0xffffffffffffffc0\n 68296: ra = u64 [sp + 0x38]\n 68299: s0 = u64 [sp + 0x30]\n 68302: s1 = u64 [sp + 0x28]\n 68305: sp = sp + 0x40\n 68308: jump [t0]\n      : @2367 (gas: 8)\n 68310: a0 = sp + 0xffffffffffffffe0\n 68313: a0 = a0 & 0xffffffffffffffe0\n 68316: u64 [s1 + 0x1d8] = a0\n 68320: sp = a0\n 68322: i32 a2 = a0 + 0\n 68324: a1 = 0x40\n 68327: a0 = u64 [s1 + 0x128]\n 68331: jump [t0]\n      : @2368 (gas: 9)\n 68333: a0 = u64 [a3 + 0x18]\n 68336: a1 = u64 [a3 + 0x10]\n 68339: a2 = u64 [a3 + 0x8]\n 68342: a3 = u64 [a3]\n 68344: a0 = reverse a0\n 68346: a4 = reverse a1\n 68348: a2 = reverse a2\n 68350: a3 = reverse a3\n 68352: jump [t0]\n      : @2369 (gas: 9)\n 68354: a0 = u64 [a3 + 0x18]\n 68357: a1 = u64 [a3 + 0x10]\n 68360: a2 = u64 [a3 + 0x8]\n 68363: a3 = u64 [a3]\n 68365: a5 = reverse a0\n 68367: a4 = reverse a1\n 68369: a0 = reverse a2\n 68371: a1 = reverse a3\n 68373: jump [t0]\n      : @2370 (gas: 9)\n 68375: a0 = u64 [a3 + 0x18]\n 68378: a1 = u64 [a3 + 0x10]\n 68381: a2 = u64 [a3 + 0x8]\n 68384: a3 = u64 [a3]\n 68386: a4 = reverse a0\n 68388: a1 = reverse a1\n 68390: a2 = reverse a2\n 68392: a0 = reverse a3\n 68394: jump [t0]\n      : @2371 (gas: 10)\n 68396: a4 = s1 + a0\n 68399: a5 = a4 + 0x200\n 68403: a0 = u64 [a5 + 0xd8]\n 68407: a1 = u64 [a5 + 0xe0]\n 68411: a2 = u64 [a5 + 0xd0]\n 68415: a3 = u64 [a5 + 0xc8]\n 68419: a1 = a1 | a2\n 68422: a0 = a0 | a3\n 68425: a0 = a0 | a1\n 68428: jump [t0]\n      : @2372 (gas: 8)\n 68430: a3 = s1 + 0x100\n 68434: a1 = u64 [a3 + 0xd8]\n 68438: a0 = a1 <u a0\n 68441: a1 = u64 [a3 + 0xd0]\n 68445: a0 = 0 if a1 != 0\n 68447: a1 = u64 [a3 + 0xa8]\n 68451: a0 = 0 if a1 != 0\n 68453: jump [t0]\n      : @2373 (gas: 8)\n 68455: a0 = u64 [s1 + 0x120]\n 68459: u64 [a5 + 0x80] = a0\n 68463: a0 = u64 [s1 + 0x128]\n 68467: u64 [a5 + 0x78] = a0\n 68470: a0 = u64 [s1 + 0x130]\n 68474: u64 [a5 + 0x70] = a0\n 68477: a0 = s1 + 0x7ff\n 68481: jump [t0]\n      : @2374 (gas: 8)\n 68483: a0 = s1 + 0xffffffffffffffdc\n 68486: a1 = u64 [sp + 0x18]\n 68489: a0 = a1 <u a0\n 68492: a1 = u64 [sp + 0x10]\n 68495: a0 = 0 if a1 != 0\n 68497: a1 = u64 [sp + 0x8]\n 68500: a0 = 0 if a1 != 0\n 68502: jump [t0]\n      : @2375 (gas: 10)\n 68504: a3 = s1 + a0\n 68507: a4 = a3 + 0x300\n 68511: a0 = u64 [a4 + 0x18]\n 68514: a1 = u64 [a4 + 0x20]\n 68517: a2 = u64 [a4 + 0x10]\n 68520: a3 = u64 [a4 + 0x8]\n 68523: a1 = a1 | a2\n 68526: a0 = a0 | a3\n 68529: a0 = a0 | a1\n 68532: jump [t0]\n      : @2376 (gas: 8)\n 68534: u64 [sp + 144] = 0\n 68538: u64 [sp + 136] = 0\n 68542: u64 [sp + 128] = 0\n 68546: a0 = 0x8c379a000000000\n 68556: a1 = sp + 0x80\n 68560: u64 [sp + 0x98] = a0\n 68564: a0 = u64 [sp + 0x18]\n 68567: jump [t0]\n      : @2377 (gas: 7)\n 68569: a0 = a3 >u 0\n 68571: a4 = a1 >u 0\n 68573: a4 = a0 if a3 != 0\n 68576: a5 = s1 + 0x100\n 68580: u64 [a5 + 0x30] = a2\n 68583: a0 = a2 >u 0\n 68585: jump [t0]\n      : @2378 (gas: 6)\n 68587: a0 = u64 [s1 + 0x108]\n 68591: a0 = a0 & 0xffffffffffffffe0\n 68594: u64 [s1 + 0x110] = a0\n 68598: a0 = s1 + 0x3158\n 68602: a1 = u64 [s1 + 0x150]\n 68606: jump [t0]\n      : @2379 (gas: 5)\n 68608: a2 = u64 [s1 + 0x1c8]\n 68612: a1 = a1 + a2\n 68615: u64 [s1 + 0x178] = a1\n 68619: a1 = a1 <u a2\n 68622: jump [t0]\n      : @2380 (gas: 4)\n 68624: i32 a0 = a1 + 0x4\n 68627: a1 = 0x2158\n 68631: a2 = s1 + a1\n 68634: jump [t0]\n      : @2381 (gas: 6)\n 68636: u64 [a2 + 736] = 0\n 68640: u64 [a2 + 728] = 0\n 68644: u64 [a2 + 720] = 0\n 68648: u64 [a2 + 712] = 0\n 68652: a0 = s1 + 0x5000\n 68656: jump [t0]\n      : @2382 (gas: 6)\n 68658: sp = s0 + 0xffffffffffffffa0\n 68661: ra = u64 [sp + 0x58]\n 68664: s0 = u64 [sp + 0x50]\n 68667: s1 = u64 [sp + 0x48]\n 68670: sp = sp + 0x60\n 68673: jump [t0]\n      : @2383 (gas: 6)\n 68675: u64 [s1 + 0x180] = a0\n 68679: u64 [s1 + 0x178] = a1\n 68683: a0 = u64 [s1 + 0x190]\n 68687: i32 a2 = a0 << 0x3\n 68690: u64 [s1 + 0x190] = a2\n 68694: jump [t0]\n      : @2384 (gas: 7)\n 68696: u64 [s1 + 0x160] = a0\n 68700: u64 [s1 + 0x178] = a1\n 68704: a0 = u64 [s1 + 0x108]\n 68708: i32 a2 = a0 << 0x3\n 68711: a0 = 0xffffffffffffffff\n 68714: a1 = 0xffffffffffffffff\n 68717: jump [t0]\n      : @2385 (gas: 4)\n 68719: a2 = a3 + a1\n 68722: a3 = a2 <u a3\n 68725: a3 = a1 if a1 == 0\n 68728: jump [t0]\n      : @2386 (gas: 8)\n 68730: a0 = u64 [a4 + 0x98]\n 68734: a1 = u64 [a4 + 0xa0]\n 68738: a2 = u64 [a4 + 0x90]\n 68742: a3 = u64 [a4 + 0x88]\n 68746: a1 = a1 | a2\n 68749: a0 = a0 | a3\n 68752: a0 = a0 | a1\n 68755: jump [t0]\n      : @2387 (gas: 4)\n 68757: i32 a0 = a0 + 0xfffffffffffff958\n 68761: a3 = s1 + a0\n 68764: a4 = a3 + 0x200\n 68768: jump [t0]\n      : @2388 (gas: 5)\n 68770: a0 = a0 + a4\n 68773: a3 = a3 + a1\n 68776: a5 = a3 <u a1\n 68779: a0 = a0 + a5\n 68782: jump [t0]\n      : @2389 (gas: 4)\n 68784: a1 = 0 if a3 != 0\n 68786: a4 = 0 if a1 != 0\n 68788: a0 = 0 if a1 != 0\n 68790: jump [t0]\n      : @2390 (gas: 4)\n 68792: a0 = 0x3958\n 68796: a1 = s1 + a0\n 68799: a2 = a1 + 0x100\n 68803: jump [t0]\n      : @2391 (gas: 4)\n 68805: a0 = 0x4958\n 68809: a5 = s1 + a0\n 68812: a3 = a5 + 0x400\n 68816: jump [t0]\n      : @2392 (gas: 6)\n 68818: a0 = a3 >u 0\n 68820: a4 = a1 >u 0\n 68822: a4 = a0 if a3 != 0\n 68825: u64 [s1 + 0x110] = a2\n 68829: a0 = a2 >u 0\n 68831: jump [t0]\n      : @2393 (gas: 7)\n 68833: a3 = a3 | a5\n 68836: a3 = a1 if a2 == 0\n 68839: a1 = 0xffffffffffffffff\n 68842: a0 = a1 if a4 == 0\n 68845: a3 = a1 if a4 == 0\n 68848: a5 = 0 if a2 == 0\n 68850: jump [t0]\n      : @2394 (gas: 7)\n 68852: a1 = a0 | a3\n 68855: a1 = a1 | a2\n 68858: a1 = a1 >> 0x20\n 68861: a2 = a2 | a3\n 68864: a2 = a2 << 0x20\n 68867: a1 = a1 | a2\n 68870: jump [t0]\n      : @2395 (gas: 8)\n 68872: a1 = u64 [a3 + 0x98]\n 68876: u64 [a3 + 0x20] = a0\n 68879: a0 = a1 <u a0\n 68882: a2 = u64 [a3 + 0xa0]\n 68886: a0 = 0 if a2 != 0\n 68888: a2 = u64 [a3 + 0x60]\n 68891: a0 = 0 if a2 != 0\n 68893: jump [t0]\n      : @2396 (gas: 9)\n 68895: sp = sp + 0xffffffffffffffc0\n 68898: u64 [sp + 0x38] = ra\n 68901: u64 [sp + 0x30] = s0\n 68904: u64 [sp + 0x28] = s1\n 68907: s0 = sp + 0x40\n 68910: sp = sp & 0xffffffffffffffe0\n 68913: s1 = a0\n 68915: i32 a0 = sp + 0\n 68917: jump [t0]\n      : @2397 (gas: 4)\n 68919: a0 = s1 + 0x3158\n 68923: a3 = s1 + 0x100\n 68927: a1 = u64 [a3 + 0x50]\n 68930: jump [t0]\n      : @2398 (gas: 7)\n 68932: a0 = sp + 0xffffffffffffffe0\n 68935: a0 = a0 & 0xffffffffffffffe0\n 68938: u64 [s1 + 0x1d8] = a0\n 68942: sp = a0\n 68944: i32 a2 = a0 + 0\n 68946: a1 = 0x40\n 68949: jump [t0]\n      : @2399 (gas: 7)\n 68951: a0 = sp + 0xffffffffffffffe0\n 68954: a0 = a0 & 0xffffffffffffffe0\n 68957: u64 [s1 + 0x1b8] = a0\n 68961: sp = a0\n 68963: i32 a2 = a0 + 0\n 68965: a1 = 0x40\n 68968: jump [t0]\n      : @2400 (gas: 5)\n 68970: a0 = sp + 0xffffffffffffffe0\n 68973: a2 = a0 & 0xffffffffffffffe0\n 68976: u64 [s1 + 0x1d8] = a2\n 68980: sp = a2\n 68982: jump [t0]\n      : @2401 (gas: 5)\n 68984: a0 = sp + 0xffffffffffffffe0\n 68987: a2 = a0 & 0xffffffffffffffe0\n 68990: sp = a2\n 68992: a0 = u64 [s1 + 0x68]\n 68995: jump [t0]\n      : @2402 (gas: 10)\n 68997: a1 = u64 [a2 + 0xa0]\n 69001: a3 = s1 + 0x100\n 69005: u64 [a3 + 0x58] = a1\n 69008: a1 = u64 [a2 + 0x98]\n 69012: u64 [a3 + 0x50] = a1\n 69015: a1 = u64 [a2 + 0x90]\n 69019: u64 [a3 + 0x40] = a1\n 69022: a0 = u64 [a2 + 0x88]\n 69026: u64 [a3 + 0x48] = a0\n 69029: jump [t0]\n      : @2403 (gas: 8)\n 69031: a0 = u64 [a4 + 0x58]\n 69034: a1 = u64 [a4 + 0x60]\n 69037: a2 = u64 [a4 + 0x50]\n 69040: a3 = u64 [a4 + 0x48]\n 69043: a1 = a1 | a2\n 69046: a0 = a0 | a3\n 69049: a0 = a0 | a1\n 69052: jump [t0]\n      : @2404 (gas: 2)\n 69054: a3 = a2 & 0x40\n 69057: jump @2408 if a3 != 0\n      : @2405 (gas: 1)\n 69060: jump @2407 if a2 == 0\n      : @2406 (gas: 6)\n 69063: i32 a3 = 0x40 - a2\n 69066: a3 = a1 << a3\n 69069: a1 = a1 >> a2\n 69072: a0 = a0 >> a2\n 69075: a0 = a0 | a3\n 69078: ret\n      : @2407 (gas: 1)\n 69080: ret\n      : @2408 (gas: 4)\n 69082: a0 = a2 + 0xffffffffffffffc0\n 69085: a0 = a1 >> a0\n 69088: a1 = 0\n 69090: ret\n      : @2409 (gas: 2)\n 69092: a3 = a2 & 0x40\n 69095: jump @2413 if a3 != 0\n      : @2410 (gas: 1)\n 69098: jump @2412 if a2 == 0\n      : @2411 (gas: 6)\n 69101: i32 a3 = 0x40 - a2\n 69104: a3 = a0 >> a3\n 69107: a0 = a0 << a2\n 69110: a1 = a1 << a2\n 69113: a1 = a1 | a3\n 69116: ret\n      : @2412 (gas: 1)\n 69118: ret\n      : @2413 (gas: 4)\n 69120: a1 = a2 + 0xffffffffffffffc0\n 69123: a1 = a0 << a1\n 69126: a0 = 0\n 69128: ret\n","bytecode":{"object":"50564d00009c3c010000000000010700c1d001c000800381a0145916539c07e08b84f2a4d01fcd4413afdaa322977f4919e057646b6f18b4e3145916539c07e08b84f2a4d01fcd4413afdaa322977f4919e057646b6f18b4e320e3be01ea8ce76274eab57002424ecd5447f7c9b0110d0058a2054b54fcdbeb726c61206b6f6f4267657220796461650064657265747369206c616974696e49617274736967657225e45e1fa132459468c1a974237708fb3928742314b5a3cc9e36acf51d8805d96320726f68747541656220746f6e6e6100007974706d6520616320656c74695420656220746f6e6e204449206b6f6f426220746f6e6e6163007974706d652065d774a322fca28e1ae3252afea295ca3e0829b3557a88c046f1e80cf3a885b921e6f25b490aeeb95da41b4c83a7919cff534eaae8a544d2fdaa73b0e4ea8ad37b8faa6d5d5c6b34760a34da2c95d333da2cae6d666824836658b602a4cd28f7cf7420746f6e6e614320726566736e61727372756f79206f742064696c61766e49656e776f2077656e7365726464612072756f207865646e49756f6220666f2074746f6e206b6f6f422065687420746f4e20746e65727275630480c40c000000000e0000001c0000002a000000300000003d00000048000000570000005a00000065000000770000008200000063616c6c5f646174615f636f707963616c6c5f646174615f6c6f616463616c6c5f646174615f73697a6563616c6c65726465706f7369745f6576656e746765745f73746f72616765686173685f6b656363616b5f3235366e6f777365616c5f72657475726e7365745f696d6d757461626c655f646174617365745f73746f7261676576616c75655f7472616e73666572726564051302c04cfc0463616c6cc055fc066465706c6f7906c1023a851802c10a0e9b00e3012703c103f20328043004b704bf04be05c305f8057f06ff068f07bc07e507fc071f085e088c08940840094e0974098e09f009210a3e0a5f0a6b0a710a7e0ad10ad60ae70af60afc0a130b370b3d0b690b910be60bf30b100c240c2a0c300c3e0c6e0c760c950cda0ce40c050d2c0d5f0d670d860dc50dcf0df70d400edf0efd0e320f950faf10151123118411d6113d124b127012c912d71203135913c01386149c14a714da14e3140d152c15d815f11510166c167b1697169e16c016cb162b17381772179217ab17cc17081843185218bc184619bb195c1a881aa61ac21ad41adb1ae81a231b561b741ba81baf1bce1bd51b161c241c421c541c8f1c9d1cc01cdb1c1e1d2c1d4a1d5c1d981da61dc41ddf1d161e241e3e1e511e8d1e9b1eb51e161f241f431f561f8e1f9c1fc91ff71f25204a2065208b209a20d820df206521bc21ce215322a122b6221c239d23b323be23f22328244324a824b324f324232547259a25a525d125072621266926cd26c327342847296529c429d1290b2a2b2a442a682aa72a352b3c2b4c2baf2be02bfe2b232c302c372c442c962c9c2cae2cbe2cc52cdd2c012d082d342d5d2db02dbe2ddc2df02df72d092e142e342e3d2e5d2e7d2e9b2ea62ec52ede2efd2e522f5d2f992fb12f14304c30f6302b31463180318d31ba31c931f831ff3112327532b632bd32d03236333d336f338633e933f03323343b349d34a434d634ee344d357835b135dd3544364b3658367b369636be36c53657376e37c837fb37123878389f38ac3833395139d739e939f939163a393a5d3ade3a303b3e3b603b743b7b3bc33be73b0a3c303c3b3c593c813cb13cba3cda3cf63c083d133d353d673d7a3dbc3df03df93d193e413ec73e223f523fd03ffa3f30404140e340ae410942144239425142b642e742054314436a4371437e43d043d643e843f843ff4317443b4442446e449744e944f74419452d4534453b454a457e45a2452a4652468246a646c246d446db46e8462e4767478547c147c847eb47f2473948474868487a48b948c748e8480b4947495549704982499149c249d049ee49114a4f4a5d4a7b4a8e4ad24ae04afe4a214b574ba54bb84b024c104c194c4b4c524c804c874cb54cbc4cea4cf14c144d1b4d454d4c4d754d904dba4dc94d164e1d4ea64efc4e0e4f954f9e4ff64f1950a250f750095178519b51db51ee512e524352bd52c65217539553d053df5304541d547e54b254e454ff5463559255bf554056b256cd5605577657f957005880589258a258bf58e25806598659da59e859065a1a5a215a335a3e5a6e5a8f5ab25ad85ae35a095b2c5b585b615b7c5b985ba65bad5bcb5b015c145c5a5c655c785caa5c165d805dce5dc85ed55e5b5f695fda5f9c600961e761116278627f628c62af62f562fc6238638063aa631d6457647a649364bb6414659165ec6506668e66a066b066cd66f066ff6619679867ea67f86713682b6851685c688c68b068f868036921693a69a969d869066a286a6d6a7e6a986ac86aea6a2f6b456b566b636b946ba36bc66b0c6c1b6c2e6c776cbd6cdb6cee6c336d406d6c6d906dbc6dce6dd96d036e226e366e8d6ebb6e3c6f5c6f0e701f70367004710b717a719171a2719472ca72b673de73fa7308740f742d747974a174f074fb74147558759075b875457650769376cb76f7761377217728777677ab77d777ff770a7829785278e878097964798f79cd79d479e379ea79f179427a4a7b5a7b8d7b947bad7bd47b3d7cc57c397d407d5c7d837da17d0d7e417e4a7e6a7e797ec07ed67ee17e277f347f907f9b7f16801d8077801481b3810c823b82798280828f8296829d82ee828d83e08344845e848184a384f48433854c85708516862986a986ca862487b787d787f4873b889f88ae88e88815892f896289b189ce890d8a868afa8a858be88bfa8bc68ccc8c2a8d278ead8ebc8edb8e198f06913a9143918591fc9130929792a792b992099319932b938b93a093fd93119533954795639574958895a495b895f2950096d996df96e696ec96f996ff960597249758976797a397a997ba97fa974698559887988d9893989998a798ad98b398d69818992e998b999199ac99b299b899be99c799e699ec993c9a579a6a9a819ab89aec9a069b139b3d9b5b9b629b769bf59b059c1b9ce79ced9c219d419d6e9d749d7b9d819d8e9d949d9a9db99ded9dfc9d389e3e9e4f9e909edd9eec9e1b9f219f279f2d9f3b9f419f479f6a9fb09fc69ffb9f08a00ea014a01aa020a026a02ca035a058a05ea067a081a09ba0b0a0c7a0ffa035a153a160a18aa1a8a1afa1e4a1f2a150a261a277a243a349a3b5a3dfa3e5a3eca3f2a3ffa305a40ba42aa45ea46fa4a2a4a8a4b9a4faa447a558a566a570a576a57ca582a590a596a59ca5bba5fea516a624a658a65ea664a66aa670a676a67ca6c4a6caa6d3a6eda63ba752a788a7baa70aa830a84ea855a869a86fa87ea8dca8eda803a9cfa9d5a90baa5daa63aa6aaa7aaa87aa8daa93aa9daabfaad0aa0baba6abc4abe9ab0bac1cac46ac4cac64ac72ac78ac7eaca8acf0ac08ad36ad43ad49ad64ad6aad70ad76ad7fad9eadadaddaadf9ad38ae47aeacaebbae27af3baf5caf6aaf7fafc2afc8af17b020b06ab081b0b9b0efb073b189b259b337b43db444b454b461b467b46db477b499b4aab4e1b47cb54bb67eb6b1b6f7b641b752b771b70db8dcb913ba1dba53ba76ba98baa9bab7bac1bac7badfbaedbaf3baf9ba1fbb65bb7dbb8bbbc2bbc8bbe3bbe9bbefbbf5bbffbb23bc2ebc40bc62bc6bbc8cbcaabcb7bcbdbc03bd27bdbcbd11be60bebcbed5bef6be18bf68bfa6bfbebfe1bf81c0b6c0bfc0e0c0fec02dc174c191c1bac1c5c109c236c29ec2acc201c31ac344c3b9c33ac48bc499c4a2c405c519c576c53ac643c694c625c72dc83bc856c8cac8ecc837c9a3c930ca5aca6bca90cacacadbcae4ca05cb28cb3ecb52cb5bcba8cbd5cb07cc2bcc3fcc48cc7dcc90cc99ccc9ccddcc15cd29cd65cd79cd82cda3cdcecdf1cd4ecec9ceffce23cfabcf09d07dd08cd09ad0afd003d128d174d193d19ad1aed1b5d1cdd1f7d1fdd11bd222d236d23dd255d279d241d36ed37dd397d3bbd3cdd420d574d585d606d759d76ad789d7c9d7cfd7dfd7e5d7eed709d80fd81fd825d82ed843d8acd811d9d3d9e4d903da27da97da9fdaa6dabedae2da38db62dba4dbb9dbf8db54dccfdc2ddd26de40de60de8bde03df2adf30df39df40df46df66df6cdf8cdf92dfc1dfcddfe2dfe8df0fe015e01ee025e02be04be051e071e077e0abe0b7e0c6e065e182e19be1dfe118e22de249e243e3ade302e447e496e4ade4cae4e8e431e56ce581e59fe535e667e678e697e6bbe62de793e7c0e7c2e8e9e825e989e9fce940ea6cead0ea4beb92ebddeb0bec7ceca4ecd6ece6ec85ed46eecdeee5eef5eecaefddef10f017f191f1a0f1e1f1f9f11ff289f236f350f376f393f3f3f329f43af459f494f4a5f4c4f4e4f47af58ff5dcf53cf66af681f6d2f6e8f659f76af77af794f7b3f7d2f745f88cf89bf8b4f8c7f8ecf8f6f822f941f985f98ff9aef9e2f901fa33fa3dfa5cfae2fa17fb3bfb70fb92fba0fbf3fbfcfb0afc23fc55fc5ffcaa876e978a2098aa20977b2098bb20c89b0bc9ba0a979b019abbaeab20ae873751094ec87909647a017c8b95880195ac0178ab64caab9cf42836510934c87909647a017c8b95880195ac0178ab64caab9cf4281c51091a839aff01c8a80b7cbb9599ffc8a70c78cb83aaff5209f032003908a8010251083c073307d0010383770a09282f079511f07b10087b15648964753308206497501002d9047c78017c797c7a027c7b03978808d4980897aa1097bb18d4ba0ad4a8087c79057c7a047c7b067c7c07979908d4a90997bb1097cc18d4cb0bd4b909979920d489027c79097c7a087c7b0a7c7c0b979908d4a90997bb1097cc18d4cb0bd4b9097c7a0d7c7b0c7c7c0e7c780f97aa08d4ba0a97cc10978818d4c808d4a808978820d498037c78117c7a107c7b127c7c13978808d4a80897bb1097cc18d4cb0bd4b8087c7a157c7b147c7c167c791797aa08d4ba0a97cc10979918d4c909d4a909979920d4890a7c78197c79187c7b1a7c7c1b978808d4980897bb1097cc18d4cb0bd4b8087c791d7c7b1c7c7c1e7c771f979908d4b90997cc10977718d4c707d49707977720d487076f776fa86f396f2a7b5a187b59107b58087b57821008821595111032009511d87b10207b15187b161082897b19088289087b1982851082861833082050100491036f686f59821a6faa821b086fbb787b18787a10787908787898bc38787c1f98bc30787c1e98bc28787c1d98bc20787c1c98bc18787c1b98bc10787c1a98bb08787b1998ab38787b1798ab30787b1698ab28787b1598ab20787b1498ab18787b1398ab10787b1298aa08787a11989a38787a0f989a30787a0e989a28787a0d989a20787a0c989a18787a0b989a10787a0a98990878790998893878790798893078790698892878790598892078790498891878790398891078790298880878780182102082151882161095112832009511a07b10587b15507b16489515608411e06476828718828910828a0882886f776f996faa6f887b18187b1a107b19087b17491138491130491128491120481140208318831a20831b403309ff33070a05821738821830821928821a206f776f886f996faa7b6a187b69107b68087b6750120611090132009511a07b10587b15509515608411e08272827a08827b108277188283828908828c108288186f746fbb6faa6f276f826fcc6f996f387b17187b1a107b1b087b147b18387b19307b1c287b12208318831a203309ff330b2033070a0a9551a082105882155095116032009511a07b10587b15507b16489515608411e0829a7b1a18829a087b1a10829a107b1a088299187b196486501008b30182186f888219086f99821a106faa821b186fbb7b1b387b1a307b19287b18208379836a8317203308010a0450120a4608013200951120ff7b10d8007b15d0007b16c8009515e0008411e082bc7b1c4082bc087b1c4882bc107b1c5082bb187b1b5850120cd903017b183850100e44016f687b187882186f887b18708218086f887b18688218106f887b18608218186f887b1898008218206f887b1890008218286f887b1888008218306f887b1880008218406f887b18b8008218486f887b18b0008218506f887b18a8008218586f887b18a0008379811a388317603308030a04955120ff8210d8008215d0008216c8009511e00032007b1858501012b5006f687b18980082186f887b1890008218086f887b1888008218106f887b1880008218186f887b18b8008218206f887b18b0008218286f887b18a8008218306f887b18a0008218386f887b18d8008218406f887b18d0008218486f887b18c8008218506f887b18c0008218606f887b18f8008218686f887b18f0008218706f887b18e8008218786f887b18e0008379811a58831780003308040a049551e0fe8210180182151001821608019511200132008b7910520931c8780883881f8488e05638000001253309a40102390aa40102ae8a093d08a40102013308b001028377c887073200009511f07b10087b158475010a02013d07a00102510507501014095010166102951140fe7b10b8017b15b0017b16a8019515c0018411e049211801492110014921000180003307409518000149210801501018ccfb49213801492130014921280149212001831720010a0b01821730018218380182192801821a2001d49808d4a707d487075107143308b00102838833070133090a08288c013306b0010383677b17380a03013807c001033a08b001033a09b80103d48707d4970751076701492158014921500149214801492140019517e0009518400150101a37fc8217e0007b17288217e8007b17208217f8007b17188217f0007b17308217380a0382670881681082696f77977a206f88988820d4a8089877206f99979a20d4a707989920821a3098aa2097aa20d4a90949217801492170014921680149216001821a187b1a98017b1990017b1788017b188001951760019518800150101c2ffc8217380a0382670881681082696f7a97a7206f88988820d4870798aa206f99979820d4a808989920821a3097aa2098aa20492198004921b8007b1ab000821a207b1aa800821a287b1aa0003a0a0000023a0b0800023a0c1000023a061800027b1ad8007b1bd0007b1cc8007b16c0007b1990007b1888009519c000951aa000951b80007b1780003307330850101e6afc3908a4010256187f0c2003a401028000013307b0010283778000330833090a28c2f8330780003308501020b8fd8378330733090a0801491170491168491160140700000000f7bd4f1e9518607b17783307501022dff9491158491150491148330704951840491140501024c8f93908a4010256183f0b2003a4010240013308b0010283883307013309243300260a0801951110fe7b10e8017b15e0017b16d8019515f001951110ac8411e06416956958414929200549291805492908058000330740956860464929100550102866f93307a001027b67d8013907a001025517040828bfb1009567004083778006330833002a0a0133022c956a5841280a33022c956a58410181a744055247602ac3820a28f828524759cb56840a28a00d33085bcba58d95695851aa87c90b524761837ac30a281e395247b23da52b0a284a0f5247524576350a28cd4a52473aa84b3f0a2813209569584952476c0ece560a28112e5247d68bde590a2831265147bb5a975c720c52471471f45f0a28751b3308211b9368ab870628811a51477cca2c7b0a28a5214929a003492998034929900349298803956700508377e0fc33002e0a0b01956a584995ab0003501230320301510707282eac008267d801817756172308282dac0095670050837700fd3308043300320a0101956c584995ca000382a7c00082a8b80082a9b000501234dbf800520b072808ac0082caa803826bd80180b295ac04d8ac0ac8a90bd89b09daaa09c88909d88908c8870a956758214927400349273803492730037b722803957800037b8c487b8b507b8958647b9567c0249568a024956980247bba6003501036d1c9009567582195790003829880007b68d0018298787b68c8018298707b68d8018297687b67c0019567602433084050103869f6956b000182b8c00082b7d00082b9d800d4970782bac80050123a2df70051070728008c00956a582195ac000382c70882c92082cb1082ca1850123ccef60083774004c8670750103e1ff65012400ef70051070728cd8b00501242abff008262c001d8820882a9d8009498947852080728b18b009567582182790003957b000282baf80082b8e80082bcf000d4a807d49c0bd4b707987720d4ab0b97bb20d4b707510707287d8b0083272050124496f9005010469efa7b677001826778018268d8015010488dfa6478826770018269d80150104a0ff550124cbff300d8a802826cd001826aa801c8ac0cc82c0a50124e12f300510807282b8b00956958214929e0024929d8024929d002956820244929c8025010508df65012526df60051080728018b008260d8019508207b68a801d80802826ac001c82a087b68a001d8a808da22085012549d00018262d001c828087b68b001956b58217bb0a8027bbab0027bb9b802956800247bb2c00250105633f69567582182687801957900027b98788268a0017b98708268a8017b9868826888017b98a000826880017b989800826890017b989000826898017b988800647a9567e0239568c0238269b0017ba9800250105899c6009567a0238268980150105a97f495685821958b000282b76082ba5882b95082b848d4970750125c5bf500510707282e8a008267b8017b68d80150105e50f9501260edf4003300620a0601956c000182cad00050126435f6007bcab000956b58217bba40027bc9b80095ba00027ba9387bc8c0007ba830956880237bc7c8007ba728330750106656f53302689568582101492820024928180249280802016489330720956860234929100250106a2ff53308a401023907a4010256173f0b2003a4010240019517e08479e07b69a80164913307b0010283777b68d00183993308407b67d80133006c0a06826aa80133026e289ef000826aa80150126e96f000958a00037babc8007bacd0007ba9d8007ba7e000956740239568204d501070b1f5956858217c87e8014928e0014928d8017b87c801956720234928d00133007233021c092805fc008267b00195695821959a00017ba7c0008267b8017ba7b8008267c0017ba7b000956800238267c8017ba7a800330750107465f433027695685821014928a00149289801492888010264893307209568e022492990015010783ef48268d0019517e08477e07b67c8016471818756173f08480840019517e08477e07b67c001647183793308408267d80133007a0a06826ac00133027c282cfd00826ac00150127c24fd007b6a98018268c8017b8a187b69a0017b89107b6ba8017b8b087b67b0017b879567c02250107ebff4956a582195a7000182798000827b78827c708e978eb8db97087b6928017b6b2001d49b077b6c18018ec9db78095109072812bc0082a768017b6710019567a022330840502080004bf295605821820360017b63c801820258017b62c001820450017b64b8018269200198973b82682801978805d48707826a180198a83b979905d49808826b100198b93b97aa05d4a90997ba0595ab20d8ab0ac8a90cd89c09daaa09820a48017b6ae000c88909d88908c8870095675821957800017b8b087b7340017b7238017b7430017b8a287b8c107b8918647995678022956860227b90200150208200a1c3008267e000956b000182b8c80082b9b800d4890982bac00050228400fefd0051080728418700956a5821826810017ba8e800826818017ba8f000826820017ba8f80095684022826928017ba900015020860093f28268e0009587207b670001d887078269b801c879087b68f800d89808da77088267c001c878087b68f000d878077b67c00182679801956858217b87e0008267a0017b87d8008267a8017b87d0006489956820228267b0017b97c80033075020880030f29517e08477e07b67680164718269d001819756171f08480920018267c8018268c001c887077b67e8001407ffffffff000000007b6770019517e08477e07b67d001647183793308208267d8010a063309330a330c33028267d001827418827810827b0882736f446f806fbb6f38826768017b68c0017b7818956800017b8bd0007b7b107b60b0017b70087b64b8017b74140700000000010000007b87501407e0ffffff000000007b870882877b8798008267f8007b87788267f0007b87a0008267e8007b87800001826710017b694801d8790782691801d39a087b6a4001d89a09da8709826b2001d8bc07826a2801d3a2087b623801d8a20ada870a7b6c3001d3bc07d48707da790a7b6a58019567002233084050208a00dcef956758218279c000827ab8008278a800827bb000d4a807956c00017bc760d49b077bc788007bc8d80082c7587bc990007bcaa8007bcbc800520706284e7d956c58197bc8880695c800067b8b90007b8a98009567e01f7b89a00033008c003302b0082866f5009567c01f8268680150208e0094f1956a000182a8880082a760d4870798772082a9a800d49808978820d4870751070728fd8400956a581995ac000682c77882c87082c968826b7001d2b707330bffd2b808d2b909492a60067bc9487bc8509568a01f7bc7588267d8015020900041f08267b8019577018878018269b001c89808d48709889901826ad001c8a9097b6ad001d8a90a826bc001c8ba0a956b584995bc00037bc8f0007bc7e8007bc9f8007bba00049567801f9568404d50209200e1f0956a000182a7900082a9a800d4790982a70882abd800d87b0782a8c80094877ba98800949752070728438400956c581982c7380682c8300682c92806826a7001d27a0a8488ff8499ff83b720492c200695cb00067bb9087bb8109568601f7bba185020940088ef8268b8019587025022960013f400c8b808956b584995bc00047bc9107bc7087bca187bc8209567401f9568604d5020980047f095690001829cd8008297509577c0d87c078298c800948782988800948752070728b1830095695819829200068298f805829af005829be80583c740959c00057bcbc8007bcad0007bc8d8009568201f7b92e00550209a00fcee8268b80195870350229c0087f300c88b0b95685819958c00057bca98007bc990007bc7880064899567001f9568e01e7b9ba00550209e00e6c70095690001829cd8008297509577a0d87c078298c8009487829888009487520707281e8300956958198292c0058298b805829ab005829ba80583c760959c00057bcb687bca707bc8789568c01e7b9280055020a0006cee956c000182caa00082c99800d4a90782c8800082cb78d4b808d487079877207bcaa000d4a808978820d4870751070728b98200956a58198267d80195ab00057bb7488267c8017bb7508267a8017bb7589568a01e826790017bb76064977b6998015020a20005ee826898019587207b67d801d8870982687801c898077b67c801d8870ada990a8267a001c8a704d8740a82678001c8a7077b6780018267b801957004d8700b8267b001c8b703d8730cdabb0c8267d001c87c0cd87c0b8267c001c8b70782694801959901889b01826a4001c8ba0ad4a90b88bb0182683001c88b0bd88b0882623801c88202826868017b83087b807b8c107b67c0017b8718956800018287d8007b8798008287c8007b87787b64a0017b60b8017b63b0017b8cd00064bc28e1fb5022a4009df700837720043300a6000a0b330758513302a8002894f600330758515022a8008cf60051070728fca0008267d80181775617030828fba000492b0003492bf802492bf002492be8029567603c956840545020aa00dded3302ac00956858390195890003829718956800017b87c8008297107b87d8008297087b87d0009567403c3308405020ae007eeb956a583982ab000395ac000282c8f80082c9f00082c7e8005022b000e7f40051080728128100956b000182b8c800978820988920492ae00282b8d00095ac00027bc8c80082b8d8007bc8d0009568203c7bc9d8007b67d8013300e6012856ec49298002492978024929700249296802956700508377c0fb0a0b01956b584995bc000282c77882c8800082c97082ca68d49808d4a707d487075107072818a0008267d8018177561703082817a000492ba002492b9802492b9002492b88029567401b9568e04b5020b200dfec956758198277f8017b67d8019567201b3308405020b4009aea956a581995ac000182cbe00082c8d80082c9d00082c7c8005022b60003f400510807282e8000140800000000ff0000008269d801d298088e88492ac001492ab8017ba8a8019568001b492ab0017b67d8013300e6012879eb9567585149276002492758024927500249274802956700508377a0033300b8000a0b01956a585195ab00025022ba0033f700510707285c9f008267d801817756170308285b9f005020bc00abe4005020be0022e40095675851492780024927780249277002492768029567003c9568c0535020c000f7eb330700405022c200d1f50082b7a80082b8b00082b9b80082bac000140bffffffff00ffffffd2b909140b0000000001000000d4b909956b5851492ba002492b9802492b9002492b880295bc00027bcac0007bc8b0007bc7a8007bc9b8009567e053956800545020c40004ec9567e03b3308405020c60053e995675839957900028298a0007b68d001829898007b68c801829890007b68c001829788007b67d8013307b001037b67b80183773300c8000a0301956a000182a7d00082a8c000d4870782a8d800648b82a9c8005022ca009cef0051070628ac7e8269b80182970881981082995022cc00bde8009569583949298002959c00027bc8787bc7709568c03b7bca6864b75020ce00f9e93a074000023a0848000295695839959b00027bb7603a075000027bb8583a0a5800027bb75064973308209569a03b7b7a48028267d8015020d00090eb3308b00102838833072839a200492a6005492a5805492a5005492a4805956700408377a0063300d2000a0b956a584195ab00053302d4002868f500956a584195ab00055022d4005cf500510707289f9d008267d801817756172308289e9d00956700408377c0063308040a019567584195790005829880007b68d8018298787b68d0018298707b68c0018298687b68c8014927a005492798054927900549298800049567ff079577a1009568e0465020d600fbe9956700108277b8f8956800108282a0f8956800108289b0f895680010828aa8f88268d801d3780bd878088267d001d8970cdbb80c8268c001d3a803d8a80a8268c801d82808db3a08d39707d4b707db7c0852080728fe9c009517e08477e07b67b8016471956858414928c0054928b8054928b0054928a805049567ff07957701956800475020d80071e995670010827718f895680010828200f895680010828910f895680010828a08f88268d801d3780bd878088267d001d8970cdbb80c8268c001d3a803d8a80a8268c801d82808db3a08d39707d4b707db7c08520807288c9d004926b8074926b0074926a8079568a0074926a0070433075020da000ae83309a401023907a4010256171f0b2003a4010220019517e08478e07b68a00164813307b0010283777b69b00183893308207b67a8010a06826aa00182a782a80882a91882aa106f726f886f996faa826bc001c8ab0b826cc801c89c0cd89c09c89b0bd3ab07d8ab0ada790a8267d001c88707c87a0ad87a038269d801c89202d88707c82707c837078268b8017b8c7b8b087b8a107b8718956780075020dc005be8826780078268880782699007826a98077b6a78077b6970077b686807956860077b67600733075020de003de74926580749265007492640070133072095684007492648075020e0001fe78269b001819756173f0f4809403302e200288df2005022e20089f2008267a8013300e4000a063302e6002868e9005022e60064e900956720073308405020e800a3e5956b000782b7387b67a80182b8307b68a00182ba287b6ad00182b9207b69d8017bb7187bb8107bba08956700077bb93300ea003302a2082858eb008267c001956a00067ba7d8008267c8017ba7d0008267b8017ba7c8009567e0069568c0068269b0017ba9c0005020ec0093bf00956a000182a7a80082a8d000d4870782a9a00082a8d8005022ee00baeb0051070628ca7a8267f8068268f0068269e806826ae0067b6aa0067b69a8067b68b0069568a0067b67b8068267d8015020f0001de65022f200d3e800956b00067bb9707bb8687bb76095678006956860067bba785020f4001bbf005022f600f2ea00949752070628677a7b69a80182699806826890067b6aa001826a8806826b80068267d8018377207b6b40067b6a48067b685006956840067b6958065020f800afe58268b0019587025022fa00b7e400956c00067bca107bc9087bc795672006956800067bcb185020fc00a7be00956900018297a0009577c05022fe00f2e10052070628ea7995670006827b38827830827928827a208267d8018377407b6ae0057b69e8057b68f0059568e0057b6bf8057b67a0015020000136e58268b001958703502202013ee400956c00057bcab0007bc9a8007bc7a0009567c0059568a0057bcbb8005020040129be00140900000000010000001407a0ffffff00000000502206017aee00520706286379956c000582cbd80082c8d0007b69980182c9c80082cac0008267d8018377607bca80007bc988007bc89000956880057bcb98007b67900150200801a7e48268b00195870450220a012fe6007bc9d0007bc7c8007bcad8007bc8e000956760059568204750200c016de5956900018297980095778050220e01eae00052070628e278956b000582b77082b86882b960977720987a208267d80183778000492658057bb9407bb848956840057bba507b679801502010012de48268b00195870550221201b5e5007bcaf8007bc9f0007bc7e8007bb80006956720059568404750201401f3e414090000000001000000140760ffffff000000005022160176ed00520706285f787b698801956c000582c93882c83082ca2882cb208267d8018377a0007bcb7bca087bc810956800057bc91850201801afe38268b00195870650221a0162e5007bc9107bc7087bca187bc8209567e0049568604750201c0179e49569000182978800957740ff50221e01f5df0052070628ed77956c000482c9f80082c8f00082cae80082cbe0008267d8018377c0007bcbc0007bcac8007bc8d0009568c0047bc9d8005020200138e38268b00195870750222201ebe4007bc9307bc7287bca387bc8409567a004956880475020240102e4956b000182b9a800140a0000000001000000140720ffffff0000000082b8d800d8780782b8d00094879497520706285e778267a0048477ff008e788267d8018377e00049269804492690047b68800495688004492688047b6a880150202601afe28268b00195870850222801b7e100956c00047bc9487bc7407bca5095676004956840047bcb5850202a01a6bb009569000182978800957700ff50222c01f0de0052070628e8768269780482687004826a6804826b60048267d801837700017b6b20047b6a28047b683004956820047b69380450202e0137e2956700048268d80150203001efe0956800048287187b6788018287107b67a8018287087b67b00182877b67b8019567e0038268a00150203201c2e08267f8037b6770018267f0037b6778018267e8037b6780018267e0037b67a0019567c003826890015020340194e08267d8037b6758018267d0037b6760018267c8037b6768018267c0037b6790019567a003826898015020360166e08267a0037b6798018267a8037b6750018267b0037b674801956780033308405020380141e0956b000382b9980082ba900082b7880082b8800050223a01fce80051070628d975492678034926700349266803956860034926600380008267d80150203c013ae18268d8019587800050223e019ce400956c00037bc9087bc7826788017bc7388267a8017bc7308267b0017bc7288267b8017bc7207bca109567400395682003956900037bcb185020400171ae005022420191e400520706285f7595690003829740829848826458037b648801829b507b6ba801826cd801d8c70264737b673801826ad0016487d3a808d8a70964707b67400164a7da8209826ac001c9ab08d8ab0a826bc801c9b40bc9ab0bd8980ac9ab0bc99808c97009c92909c9c30a83c7207b6ae0027b69e8027b68f0029568e0027b6bf8025020440160e082678801956b00027bb798008267a8017bb79000826740017bb78800826738017bb78000826770017bb7b800826778017bb7b000826780017bb7a8009567c0029568a00295698002826aa0017bbaa000502046018dad00956900018297b0009577c0502248010ede005207062870748267c0028268c8028264d8027b64a801826bd0027b6bb001826cd801d8c70264737b678801826ad0016487d3a808d8a70964707b67a00164a7da8209826ac001c9ab08d8ab0a826bc801c9b40bc9ab0bd8980ac9ab0bc99808c97009c92909c9c30a83c7407b6a60027b6968027b687002956860027b6b780250204a0172df8267a801956b00027bb7188267b0017bb7108267a0017bb708826788017bb7826758017bb738826760017bb730826768017bb728956740029568200295690002826a90017bba2050204c01a8ac001407a0ffffff000000009569000150224e0126dd005207062888731408ffffffff0000000082694801d28909956a000282a8587b68b80182a8507b68b00182a8487b68a80182a8407b68a001826850018488ff826a980184aaff8267d8018377604926f8017b6ae0017b68e8019568e0017b69f00150205001a9de8262a0018264d801d84207826cd001826aa801d3ca08d8ca0964a3da8709826ac001826bb001c9ab08d8ab00826bc801826ab801c9ba0bc90b0bd8980ac9ab0bc99808c9c309c97909c94207d4b909647ad48707d49707d49808987720978820d4870751070628bf728267d80164a87b6ad0013300740328dce15022520186e800837720fc330054010a0b3307584933025601287de700330758495022560175e70051070728d793008267d80181775617030828d69300492b0003492bf802492bf002492be802049567c01d9568404c50205801c5de956858199589000482978000956800017b87d8008297787b87d0008297707b87c8008297687b87c0009567a01d33084050205a0163dc956a581995ac000482c76082c85882c95082cb4850225c010ae30051070628fb71956900018297c00095ac00047bc7288297c8007bc7308297d0007bc7389568801d8297d8007bc74064b77b6bd8013300e6012844dd4929c0024929b8024929b0024929a80295670050837700fc33005e010a0b330700503302600128f1e7003307005050226001e9e70082b7b80082b8c00082b9b00082baa800d49808d4a707d4870751070728e392008267d8018177330823ac780728e092009567601d330062013302e4082830e800956a581982a7080482a8100480a91804492a000495ab00037bb9f8007bb8f0009568401d7bb7e800330750206401a2dc956858194928e0034928d8034928c8030364893307209568201d4929d003502066017edc9517e08477e07b67d80164713309a401023907a4010256173f0b2003a4010240017b69c8019517e08479e07b69d00164913307b00102837783993308407b67c001330068010a06826ad00133026a0128d7dc00826ad00150226a01cfdc00826bd8017b6aa8017bba187b69b0017bb9107b68b8017bb8087b67d0017bb79567001d33084050206c01bada95675819957900038298c0007b6818018298b8007b6810018298b0007b6808018297a8007b6720019567e01c8268d80150206e01b0dc95680001828b08828a10828720828918d4b90950227001dae600510806281d70956858198282a00382839803958a000382ac900082a988007b6948017ba9687b6c50017bac707b6358017b83780364899568c01c7b6260017b928003502072015cdb826820019587207b673001d8870782690801c879087b684001d89808da770882671001c878087b682801d878077b67d8018267a80195685819958900037b97608267b0017b97588267b8017b975064899568a01c8267d0017b974803330750207401f8da9517e08477e07b67680164718269c801819756171f0848092001826718018268d801c887077b6738019517e08477e07b67d801647183793308208267c0010a063302330333004926b801826ad80182a71882a81082a90882ac6f746f8b6f9a6fc98268680164977b89187b6a98017b8a1064bc7b8b087b64a0017b84956a000182a9307ba9d80082a9407ba9c80082a9287ba9c00082a9387ba9d00001956b00017bb7a8007bbcb00082b748d8720782b950d3930ad89309daa70982b758d8700482ba6082bcb800d3ac0bd8ac0adab40ad37007d4b707da790a520a062897367b6080017b6388017b6290019567801b50207601f4da95680001828cd800828bc000d4bc07828ad0008289c800d4a908d48707987720d4b808978820d4870751070628526e956758197b6bc001647b8272400282783802827730027b6ad00182ba28027bba08027bb710027bb818029568601b7bb2200264c77b6cd8017b69c8015020780191d98268d8019587207b677801d887098268c801c898077b677001d8870ada990a8267c001c8a700d8700a8267d001c8a7077b67d0018264a0019544017b64a001884a018267b001c8a707d4740a88aa0182689801c88a0ad88a0b8269a801c8b90982629001952201882b0182638801c8b303d4320b88bb01826c8001c8cb0bd8cb0c8268b801c8c8087b68b801647c826868017b87087b847b8a1064977b89187b6a9801956a000182a9787ba9d80082a9707ba9c8007b60c00164b0287bfe9567584949074917f84917f04917e895670050837740f90a0b01956a584995ab00ff82b7f80082a882b9f00082bae800d49808d4a707d48707510707289e8e008267d801817756170308289d8e0050207a01fbd10095675849491720491718491710491708956740149568604950207c0152d9956a581182a7f802140800000000ff000000d2780852080728698e0082a8000382a9f00282aae802140bffffffff00ffffffd2b707956b5849491b40491b38491b30491b287bba487bb9507bb8607bb758956780499568a04950207e016bd99567201433084050208001bad695675811957900028298e0007b68d0018298d8007b68c8018298d0007b68c0018297c8007b67d8013307b001037b67b8018377330082010a0301956a000182a7d00082a8c000d4870782a8d800648b82a9c8005022840103dd0051070628136c8269b80182970881981082995022860124d600956958114929c002959c00027bc8b8007bc7b000956800147bcaa80064b7502088015dd73a070801023a0810010295695811959b00027bb7a0003a071801027bb898003a0a2001027bb7900064973308209569e0137b7a88028267d80150208a01f1d83308b0010283883307289a8f008388330733093300ac070a0828938f00514709f3157c0b28628d004929400449293804492930044929280495670050837780fd0a0b01956a584995ab000482b73882b84082b93082ba28d49808d4a707d48707510707287e8d008267d801817756172308287d8d00956700508377a0fd33080433008c010a0133028e012894e10050228e0190e10082a76082a85882a950502290011ed700520b0728538d0082ca4804826bd80180b295ac04d8ac0ac8a90bd89b09daaa09c88909d88908c8870a956758214927200549271805492710057b720805957800057b8c287b8b307b8938647b9567a02695688026956960267bba40055020920113a80095675821957900058298607b68d0018298587b68c8018298507b68d8018297487b67c0019567402633084050209401abd4956b000182b8c00082b7d00082b9d800d4970782bac800502296016ed50051070628406a956a582195ac000482c7e80082a9000582cbf00082caf800502298010bd50083772006c8670750209a015bd450229c0149d50051070628076a50229e01e6dd008262c001d8820882a9d8009498947852080628eb6995675821957b000482b9e00082bad80082b8c80082bcd000d4a807d49c0bd4b707987720d4ab0b97bb20d4b70751070628b8698327205022a001d2d7005020a201d9d87b677001826778018268d8015020a401c7d86478826770018269d8015020a60148d35022a801f7d100d8a802826cd001826aa801c8ac0cc82c0a5022aa0149d100510806286169956958214929c0044929b8044929b004956800264929a8045020ac01c4d45022ae01a3d4005108062836698260d8019508207b68a801d80802826ac001c82a087b68a001d8a808da22085022b001d3de008262d001c828087b68b001956b58217bb088047bba90047bb998049568e0257bb2a0045020b20168d49567582182687801957900047b98588268a0017b98508268a8017b9848826888017b988000826880017b9878826890017b9870826898017b9868647a9567c0259568a0258269b0017ba960045020b401d0a40095678025826898015020b601cdd295685821958b000482b74082ba3882b93082b828d497075022b80190d3005107062862688267b8017b68d8015020ba0185d75022bc0121d3003300be010a06826ad0013302c0012868d400826ad0015022c00160d400956b582195bc00047bca207bc9187bc810956860257bc70833075020c20191d33302c4019568582101492800044928f8034928e803016489330720956840254929f0035020c60168d33908a4010256183f143308403d08a401023302c80128f8de005022c801f4de003307b00102837783993308403300ca010a06826ad8013302cc0128ddce00826ad8015022cc01d5ce00958a00047bab687bac707ba9787ba78000956720259568c04d5020ce01f2d3956758218277c8037b67d801956700253308405020d001add1956a582195ac000382cbc00082c8b80082c9b00082c7a8005022d20116db005108062841677c68d8018e88492aa003492a98037ba888039568e024492a90037b67d8013300e601289ad24929400249293802492930024929280295670050837780fb3300d4010a0b330700503302d6012847dd00330700505022d6013fdd0082b73882b84082b93082ba28d49808d4a707d48707510707283a89008267d80181775617430828398900956700508377a0fb3308043300d8010a0101956c584995ca000282a76082a85882a9505022da01b9d200520b072815890082ca4802826bd80180b295ac04d8ac0ac8a90bd89b09daaa09c88909d88908c8870a956758194927600149275801492750017b724801957800017b8c687b8b707b8978647b9567e01a9568c01a9569a01a7bba80015020dc01aea3009568581995890001829788007b67d801829790007b67d001829798007b67c8018297a0007b67c0019567801a3300de013302da0828d7dc00956b581995bc000182c72882c83082c93882ca407bbae0007bb9d8007bb8d0007bb7c8008267c0017bc78267c8017bb7f8008267d0017bb7f0009567601a9568401a9569201a826ad8017bbae8003300e001951160fd951a00027ba098007ba590007ba688009515a0028411e06416829a107b6a18829a087b6a1082997b69208289107b69800082897b69708289187b69788288087b6890007b6730956720023308403300e4092892cf9568581995890001829720956800017b87d8008297187b87d0008297107b87c8008297087b87c0009567001a3308405020e20160cf956a581982a7c00082a8b80082a9b00082aba8005022e40107d60051070628f864956900018297c0007ba788008297c8007ba790008297d0007ba798009568e0198297d8007ba7a00064b77b6bd8015020e60145d03308208267d8015020e801e8d3837833092033070a0801956758494927a004492798044927900449278804956700508377e0fd3300ea010a0b01956a584995ab00045022ec01b8da00510707280a87008267d80181775627a300092808870095670050837700fe3308043300ee010a013302f00128d1da005022f001cdda0082a7c00082a8b80082a9b0005022f20158d000520b0728db860082caa804826bd80180b295ac04d8ac0ac8a90bd89b09daaa09c88909d88908c8870a95675839492700024927f8014927f0017b72e801957800027b8c087b8b107b8918647b9567803b9568603b9569403b7bba20025020f4014da1009568583995890002829740956800017b87b8008297387b87c0008297307b87c8008297287b87d00095670050837720fe3308243300f6010a013302f8012813da005022f8010fda0082a7e00082a8d80082a9d0005022fa019acf00520b07282a860082cac804826bd80180b295ac04d8ac0ac8a90bd89b09daaa09c88909d88908c8870a956758394927a00149279801492790017b728801957800017b8ca8007b8bb0007b89b800647b9567203b9568003b9569e03a7bbac0015020fc018ca0005022fe0182d9008297e000956800017b87708297d8007b87688297d0007b87608297c8007b875895670050837740fe330844330000020a0101956c584982c7000582c8f80482c9f00450220202e4ce00520b072881850082cae804826bd80180b295ac04d8ac0ac8a90bd89b09daaa09c88909d88908c8870a956758394927400149273801492730017b722801957800017b8c487b8b507b8958647b9567c03a9568a03a9569803a7bba600150200402d99f0050220602cfd80082978000956800017b8798008297787b87a0008297707b87a8008297687b87b00095670050837760fe330864330008020a0101956c584995ca000582a72082a81882a91050220a022fce00520b0728d9840082ca0805826bd80180b295ac04d8ac0ac8a90bd89b09daaa09c88909d88908c8870a956758394927e0004927d8004927d0007b72c8007b7ce8007b7bf0007b79f800647b9567603a9568403a9569203a7bba000150200c02259f0050220e021bd800829720956800017b8790008297187b8788008297107b8780008297087b877895670050837780fe33088400330010020a0101956c584995ca000582a74082a83882a930502212027ccd00520b072833840082ca2805826bd80180b295ac04d8ac0ac8a90bd89b09daaa09c88909d88908c8870a95675839492780004917784917707b72687b7c88007b7b90007b799800647b9567003a9568e0399569c0397bbaa00050201402759e00956858398287c0007b67d8018287b8007b6750018287b0007b6748018287a8007b6740015020160248c500956c000182c8d00082cac000d4a80782c9c80082cbb800d4b909d49707987720d4a909979920d49707510706289d609567a03950201802daca956a583982a75882a86082a95082aa48d49808d4a707d4870751070628e12b9567402733084050201a02aeca956958218292000695980005828cf800828bf0008287e800d42b0ad4c708d4a808988820d4ca0a97aa20d4a8085108062834604929d8054929d0054929c805140a00000000a079c308956820277b9ae0057b67d8017b6bd0017b62c0017b6cc80150201c0281cb50221e02a9cf0052070628f35f50222002bfd5004929c0054929b8054929a80520956800274929b0057b6ac8017b6bc001502022024acb956b000182bac80082b9d00082b8d80082b7c0005022240271d30052070628a85f838724956a5821492aa005492a9805492a8805179568e026492a90055020260207cb502228029fd00052070628795f83a7443a08d000023a09d800023a0ae00002956b582195bc00057bc880007bc9787bca709568c026492b68053300020428c4ca49298000491978491970491968956700508377c0f90a0b01956a584982a77882a8800082a97082aa68d49808d4a707d4870751070728fe81008267d80181775617430828fd8100956700508377e0f933080433002a020a0101956c584982c7a00082c8980082c9900050222c02fcca00520b0728da810082ca8800826bd80180b295ac04d8ac0ac8a90bd89b09daaa09c88909d88908c8870a956758194917404917384917307b72287b7c487b7b507b7958647b9567c0199568a019956980197bba6050202e02fa9b009568581982878000956900017b97308287787b97388287707b97408287687b974895670050837700fa330824330030020a0101956c584982c7c00082c8b80082c9b0005022320258ca00520b072843810082caa800826bd80180b295ac04d8ac0ac8a90bd89b09daaa09c88909d88908c8870a956758114927e0074927d8074927d0077b72c807957800077b8ce8007b8bf0007b89f800956760199568401995692019956b58197bba502034024a9b00956858198287207b6758018287187b6760018287107b6768018287087b6770015020360221c2009567001933084050203802dfc7956c000182c93882cb48d49b0782c83082ca40d4a808d48707987720d49808978820d48707510706286d5d64b8956b581195bc000782c7a80082cac00082c9b00082cbb800957c207b6cd8017b67b801d87c07c8790c7b6cc0017b69b001d89c09da7709c8b9097b69d0017b6ba001d8b9077b6aa801c8a7077b67c8019567e01850203a0258c7956b000182b9d00082b7d800d4970782b8c00082bac80050223c0278cc0051070628ed5c956b000182b73882b830d487071408e0ffffff0000000082ba48d88a0882b9409498947852080628c35c64a9956758118272a007957c000782cb980082c8880082ca9000d4b807d42a0cd4c707987720d4bc0c97cc20d4c707510706288e5c8397207b6778018267d8017b6290017b6b88017b6898017b6a800150203e029ecb7b6750018267780182689801502040028ccb64788267500182699801502042020dc68268d80182679801c88707d8870882698001826bc00150224402abc90082688801826ad001c8a808d8a802826c9001826ac801c8ac0cc82c0a50224602edc30051080628055c956958114929800749297807492970079568c018492968075020480268c78267b801826ca001d4c7098264b0018263a801d43408d48909989920d4c808978820d4980851080628bc5b826098019508207b68c801d80802826a8001c82a087b68c001d8a808da220882698801c898087b687801d8980882629001c828087b68d001956b58117bb048077bba50077bb958079568a0187bb2600750204a02e7c69567581182687801957900077b98188268c0017b98108268c8017b98088268a8017b98408268a0017b98388268b0017b98308268b8017b9828647a95678018956860188269d0017ba9200750204c02509700956740188268b80150204e024dc59568581182870007958b000682baf80082b9f00082b8e800d49707502250020cc60051070628de5a8267d8017b68d8015020520201ca502254029dc5000a06826ad00182a71882a81082a90882aa6f7b6f8c6f976fa8956a00017ba810956958117b98e0067ba7187b97d8067bac7b9cd006956820187bab087b9bc80633075020560202c6956758114927c0064927b8064927b006647a33072095680018492aa8060150205802dec53308a401023907a4010256173f122003a401024033025a02286bd10050225a0267d1003307b0010283777b68200183993308407b67280133005c020a06826ad80133025e022848c100826ad80150225e0240c1007b8bc8007b8cd0007b89d8007b87e0009567e0179568204a502060025ec6956858117c87880649288006492878067b8768069567c017492870063300620233021c0928b0cc008267100195695811959a00067ba760826718017ba758826700017ba7509568a017826708017ba74833075020640214c5330266029568581101492840064928380649282806016489330720956880174929300650206802ebc482682001818756173f0f48084033026a0228ebcd0050226a02e7cd0033006c020a06826ad80133026e022884c100826ad80150226e027cc100956858497b8be8007b8cf0007b89f8007b870001956760179568404a5020700282c595675811827810067b68d801827808067b68d001807718067b67c8013307b001037b67e80083777b67c800330072020a03018269e8008297088298819910502274020bc3008269c801d398088269d001d39707d487078268d801d3a808d4870788770195685811492800064928f8057b87e805956740174928f00533007602330236092875cb008267100195695811959a00057ba7e000826718017ba7d800826700017ba7d00095682017826708017ba7c800330750207802d5c333027a0295685811014928c0054928b8054928a805016489330720956800174929b00550207c02acc3826820019517e08477e07b67f800647181875517400f48084033027e0228a0cc0050227e029ccc000a0601826ad80182a782a80882a91082aa186f776f886f996faa95a208d8a20ac8a904d89409daaa09c8980cd88c08c8870382687001826a6001d4a80782696801826b5801d4b909d49707987720d4a909979920d497078269f8007b927b94087b9c107b93185107062897577b6ca8007b63b0007b64b8007b62c0009567e01650208002c4c19569581195970005827ba000827a9800827890008eb78eacdbb70c7b68d8008e877b6ae0007b6bd000d4ba0a956800017b87787b8c80007b8a9000dbac0751070728a78b00829788057b67f0009567c0168268f8005020820295c3956b581195bc000582c96882c77082c87882ca80007bca407bc8387bc7309567a016956880167bc92850208402dc9a009567581195780005828a60828b58828c50827248058ea78eb8dba7088ec7882920859901dbc709d4ab07db78098267f0008877207b678801520906288a317b62b0017b6cb8017b6bd0017b6ac001956758118268c000957a00057ba8088268b8007ba8108268a8007ba818956860168269b0007ba920330750208602f5c182692001819756171f08480920019517e08477e07b67c8016471837933082082672801330088020a06018267f00095781fd87807826cd800c87c09d8c90ada770a826be000c8ba0a7b6aa80197aa3b989b05d4ab0b8267c80150228a02b3c2008268880194c8826a900150228c0276cc00c87402d84207c8790cc8cb0b7b6bd801d39b0cd89b0adac70a7b6aa0018267b00195701fd8700b826ab801c8ba07d8a70cdabb0c8263d001c8c303973b3b987a05d4ba0a97773b980b05d4b707c847077b67b801d847076424c8790bc8ab0bd39b0a7b6bb001d89b09daa709826ba8018267e000d87b07826ad000c8a70798ba05977b3bd4ba0a826bc80182b282bb08987705948a94876fb86f2b50228e02c6cb008260a001c8a000d8a00ac8a7028267d001d87307826ac001c8a707983a05977c3bd4ca0a987705c8b707956c000182cbd800c88a0ad88a08c88707c8a9097bc9a800d8a908c887077bc7a0009517e08473e064317b639801018267b801d874078269b001d39b08d89b09da8709826ca801d8c007826aa001d3a208d8a20ada870ad3c007d48707da790a7b347b3b087b30107b321895675849520a0628982f492720014927180149271001492708019568604a64377b64d0017b6bd8017b62c8017b60c0015020900281c1826398018262c801826bd8018264d001954401884701c87b0bd4b4078877018268c001c88707d88708c8820264702860ff492920034929180349291003492908039567005083776004330092020a0b33075851330294022893c90033075851502294028bc900510706284e778267d801817756172307284e779567005083778004330804330096020a0101956c585195ca000382a74082a83882a9305022980219c000520b06282b7782ca2803826bd80180b295ac04d8ac0ac8a90bd89b09daaa09c88909d88908c8870a956758414927e0034927d8034927d0037b72c803957800037b8ce8007b8bf0007b89f800647b9567604595684045956920457bba000450209a020c910095675841957900048298207b68d0018298187b68c8018298107b68d8018297087b67c0019567004533084050209c02a4bd956b000182b8c00082b7d00082b9d800d4970782bac80050229e0267be005107062839533302a002956a58410195ac000382c7a80082c9c00082cbb00082cab800957c207b6cb8017b679801d87c07c87b0c7b6ca0017b6b9001d8bc0bda770bc8ab0b7b6bb0017b6a8001d8ab077b698801c897077b67a8019567e0445020a20221bd5022a4020fbe0051070628cd525022a602acc6008262c001d8820882a9d8009498947852080628b15295675841957b000382b9a00082ba980082b8880082bc9000d4a807d49c0bd4b707987720d4ab0b97bb20d4b707510706287e528327205022a80298c0005020aa029fc17b677001826778018268d8015020ac028dc16478826770018269d8015020ae020ebc5022b002bdba00d8a802826cd001826aa801c8ac0cc82c0a5022b2020fba00510806282752956958414929800349297803492970039568c044492968035020b4028abd5022b60269bd0051080628fc518260d8019508207b68a801d80802826ac001c82a087b68a001d8a808da22085022b80299c7008262d001c828087b68b001956b58417bb048037bba50037bb958039568a0447bb260035020ba022ebd9567584182687801957900037b98188268a0017b98108268a8017b9808826888017b9840826880017b9838826890017b9830826898017b9828647a95678044956860448269b0017ba920035020bc02978d0095674044826898015020be0294bb9568584182870003958b000282baf80082b9f00082b8e800d497075022c00253bc005107062825518267b8017b68d8015020c20248c05022c402e4bb003300c6020a0601956c000182cad0005022c8022abd007bcac000956b58417bbae0027bc9c80095ba00027ba9d8007bc8d0007ba8d000956820447bc7d8007ba7c80033075020ca0247bc956758414927c0024927b8024927b002647a33072095680044492aa802015020cc0223bc3308a401023907a4010256173f0b2003a4010240019517e08479e07b69a80164913307b00102837783997b68b8013308407b67b0010a06826aa80182a782a80882a91082aa186f776f886f996faa95ab07d8ab0ac8a90cd89c09daaa09c88909d88908c8870795685851958a00037bab487bac507ba9587ba7609567e0439568a0545020ce028dbc956858417c87880249288002492878027b8768029567c043492870023300d00233021c0928dfc2008267c00195695841959a00027ba7608267c8017ba7588267d0017ba7509568a0438267d8017ba74833075020d20243bb9568584149284002492838024928280201648933072095688043492930025020d4021fbb8268b801818756173f0f4808403302d602288dc6005022d60289c6008267b0013300d8020a063302da022868bd005022da0264bd00956760433308405020dc02a3b9956a584195ac000282c7207b67a80182c8187b68a00182cb107b6bd00182c9087b69d8017bc795ac00017bc8f8007bcbf000956740437bc9e8003300de023302a208284dbf008267c00195685841958900017b97c0008267c8017b97b8008267b8017b97b000648a95672043956800438269b0017ba9a8015020e002829300956a000182a7a80082a8d000d4870782a9a00082a8d8005022e202a9bf0051070628b94e956b584195bc000182c7e00082c8d80082c9d00082cac8007bca88007bc990007bc898009568e0427bc7a0008267d8015020e40204ba5022e602babc00956b584195bc00017bc9587bc8507bc7489567c0429568a0427bca605020e802fe92005022ea02d5be007bb9a800949752070628464e956b584182b2800195bc000182c87882c9707b6aa00182ca688267d8018377207bca287bc9307bc838956880427bb240017b6798015020ec028cb98268b0019587025022ee02b2bb007b8af8007b89f0007b87e800648995676042956840427b9b00015020f002819200956900018297a0009577c05022f202ccb50052070628c44d956c584195c70001827b20827818827910827a088267d8018377407bcac8007bc9d0007bc8d800956820427bcbe0007b6790015020f4020cb98268b0019587035022f60232bb007b8a98007b8990007b8788006489956700429568e0417b9ba0005020f80201920014070000000001000000956900017b97a0001407a0ffffff000000005022fa023bb50052070628334d956b584182b2c00082b8b80082b9b00082baa8008267d8018377607bba687bb9707bb8789568c0417bb280007b6788015020fc027eb88268b0019587045022fe02a6b4007bc9707bc7687bca787bc880009567a0419568c0545020000347b9956900018297a00095778050220203c4b40052070628bc4c33020403956a58410182a75882a85082a948977720987b208267d80183778000491a407ba9287ba830956880417bab387b6780015020060303b88268b001958705502208032bb4007bca98007bc990007bc788007bc8a000956760419568e05450200a03c9b814070000000001000000956900017b97a000140760ffffff0000000050220c0335b400520706282d4c956b584182b22082b81882b91082ba088267d8018377a000956c58397bcae8077bc9f0077bc8f807956840417bb27b67780150200e0376b78268b001958706502210039eb3007bc9b0007bc7a8007bcab8007bc8c0009567204195680055502012033cb8956900018297a000957740ff50221403b8b30052070628b04b956b583982b2e00795bc000782c8d80082c9d00082cac8008267d8018377c0007bcaa8007bc9b0007bc8b800956800417bb2c0077b67700150201603f3b68268b001958707502218031bb3007bc9d0007bc7c8007bcad8007bc8e0009567e0409568205550201a03b9b714070000000001000000956900017b97a000140720ffffff0000000050221c0325b300520706281d4b95695839829788078477ff008e788267d8018377e00049298007492978077b9868079568c0404929700750201e036eb68268b001958708d88708826ab801c88a09d8a90ada880a8268c801c88a0ad88a08826bc001c88b0b95685839958c00077bc9307bc7287bca3864899567a040956880407b9b400750202003448f00956900018297a000957700ff502222038eb20052070628864a956c583982c2600795cb000782ba5882b95082b8488267d801837700017b68e0007bb8087b69d8007bb9107b6ad0007bba18956860407b62c8007bc2200750202403c3b5956740408268d801502026037bb4330228039568583901828700077b67a001958900068297f8007b67a8018297f0007b67b0018297e8007b67b801956720408268980150202a0340b450222c036cb8008297e0007b6758018297d8007b6760018297d0007b6768018297c8007b679801956700408268900150202e030bb45022300337b8008297c0007b6740018297b8007b6748018297b0007b6750018297a8007b6790019567e03f8268880150203203d6b35022340302b8008297a0007b672801829798007b673001829790007b673801829788007b6788019567c03f8268800150203603a1b350223803cdb7008297687b6780018297707b6720018297787b6718019567a03f8268780150203a0377b350223c03a3b7008297607b6778018297587b6710018297507b6708018297487b6700019567803f8268700150203e0346b35022400372b7008297407b6770018297387b67f8008297307b67f0008297287b67e8009567603f3308405020420316b395685839958b000682b92082ba1882b71082b80850224403d1bb0051070628ae4895695839492900064929f8054929f0059568403f4929e80500018267d801502046030bb48268d80195870001502248036db70095685839958c00057bc990007bc788008267a0017bc7c0008267a8017bc7b8008267b0017bc7b0008267b8017bc7a8007bca9800648a9567203f9568003f9569e03e7baba00550204a0333810050224c0353b700520706282148956958398290c8058292d0058294e0057b64a001829bd8057b6ba801826cd801d8c0037b60b800826ad001d3a208d8a2097b62c00064a7da8309826ac001c9ab08d8ab0a826bc801c9b40bc9ab0bd8980ac9ab0bc99808c97209c93909c9c00a83c720956c58397bca680595ca00057ba9707ba8789568c03e7bab800050204e031fb3956858398267a001958900057b97208267a8017b97188267c0007b97108267b8007b9708826758017b9740826760017b9738826768017b9730648b9567a03e9568803e9569603e826a98017bba2805502050034d8000956900018297b0009577c050225203ceb000520706283047956958398290480582925005829460057b64a801829b58057b6bb001826cd801d8c0037b609801826ad001d3a208d8a2097b62a00164a7da8309826ac001c9ab08d8ab0a826bc801c9b40bc9ab0bd8980ac9ab0bc99808c97209c93909c9c00a83c740956c58397bcae8047bc9f0047bc8f8049568403e7bcb00055020540330b23302560395685839018267a801958900047b97a0008267b0017b9798008267a0017b979000826798017b978800826740017b97c000826748017b97b800826750017b97b000648b9567203e9568003e9569e03d826a90017bbaa80450205803527f14070000000001000000956900017b97b0001407a0ffffff0000000050225a03c3af00520706282546956958398290c8048292d0048294e0047b64a001829bd8047b6ba801826cd801d8c0037b609001826ad001d3a208d8a2097b62980164a7da8309826ac001c9ab08d8ab0a826bc801c9b40bc9ab0bd8980ac9ab0bc99808c97209c93909c9c00a83c760956c58397bca680495ca00047ba9707ba8789568c03d7bab800050205c0323b1956858398267a001958900047b97208267a8017b9718826798017b9710826790017b9708826728017b9740826730017b9738826738017b9730648b9567a03d9568803d9569603d826a88017bba280450205e03517e956900018297b00095778050226003d3ae005207062835451408ffffffff0000000082691801d28909956b583995ba000482a8607b68900182a8587b68980182a8507b68a00182a8487b68a801826820018488ff826a800184aaff8267d80183778000492b000495bc00037bcae8007bc8f0009568403d7bc9f800502062034db014070000000001000000956900017b97b000140760ffffff000000005022640341ae0052070628a3448267d8018377a0009569583982680001959b00037bb8c800826808017bb8d000826810017bb8d8009568203d826a78017bbae00050206603eaaf956900018297b000957740ff50226803eead005207062850448267d8018377c000956958398268e800959b00037bb8a8008268f0007bb8b0008268f8007bb8b8009568003d826a70017bbac00050206a0397af140720ffffff000000009569000150226c0399ad0052070628fb43826cd8018267a801d8c7036472826ad0018267a001d3a708d8a70964a0da8309826ac001826b9801c9ab08d8ab04826ac801826b9001c9ab0bc94b0bd8980ac9ab0bc99808c90709c93909c9c20a83c7e000956c58397bca880395ca00037ba990007ba898009568e03c7baba00050206e0308af33027003956858390182679001958900037b9740826798017b97388267a0017b97308267a8017b97288267c8007b97608267d0007b97588267d8007b9750648b9567c03c9568a03c9569803c826ae0007bba480350207203317c9568583901828770038282800382836803828a78038268d001d3870bd8870c64848260d801d80308dab80c8269c001c99a0bd89a0a8269c801c99209c9a909d8cb0ac9a909c9cb0bc94707c98707c90308d497076489d4b808d47808d4b707988820977720d4870751070628bf428267d80164987b69d00150207403e0b183788169d00133070a0828f8dd492a6006492a5806492a5006492a4806956700408377a007330076030a0b956a584195ab00063302780328dbb900956a584195ab000650227803cfb90051070628aa658267d80181775617630728aa65956700408377c00733080433007a030a0101956c584195ca000682a7800082a87882a97050227c034dae00520b0628866582ca6806826bd80180b295ac04d8ac0ac8a90bd89b09daaa09c88909d88908c8870a956758114927200249271802492710027b720802957800027b8c287b8b307b8938647b9567a01395688013956960137bba400250207e03437f95685811958900028297607b67d0008297587b67d8008297507b67e0008297487b67e80095674013330080033302da082871b80095685811958900018297f8007b67d0018297f0007b67f8008297e8007b67f000956700408377e007330844330082030a0101956c584195ca000682a7a00082a8980082a99000502284036bad00520b0628b16482ca8806826bd80180b295ac04d8ac0ac8a90bd89b09daaa09c88909d88908c8870a956758114927a00149279801492790017b728801957800017b8ca8007b8bb0007b89b800647b95672013956800139569e0127bbac001502086035e7e95685811958900018297e0007b67c0008297d8007b67b8008297d0007b67b0008297c8007b67a800502088032ea5008267d0019777209878208267f8008269f000d497077b68c800d487077b67d8019567c01233084050208a03ccaa9567581182748001827378018270680182727001d43007d4420c8268d8015208a701d4c707987720d43c08978820d48707510706284e4095670010492730f995670010492728f995670010492720f9140700000000a079c3089568ff0795882101956900107b9738f964077b60d0017b62c8017b63c0017b64d80150208c0385ab956c000182c8d00082c7c00082cad800d47a0a140b00000000010000001407fcffffff00000000d8780782c9c800949794a752070628cc3f83870495680010492818f995680010492810f995690010492900f9209568ff079588010195690010492908f97b6ad8017b6bc00150208e0313ab956b000182bad80082b9c80082b8d00082b7c000502290033ab30052070628713f838724956800104928f8f8956800104928f0f8956900104929e0f8199568ff079588e100956900104929e8f850209203c0aa95690001829bd0001407bcffffff00000000d87b078298c80094878298d800948752070628183f83b7443a086001023a096801023a0a700102956b00107bb8d8f8956800107b89d0f8956800107b8ac8f8140900000000000000739568ff079588c100956a00107ba9c0f8502094034faa3308648267d0013300bc0528eead7b6798018268e800826ad800d4a8078269e000826bd000d4b909d49707987720d4a909979920d4970751070628913e7b6c90019507207b67b8017b60d001d80707c872097b69a0017b62c801d82909da7709c839097b69b0017b63c001d839077b64d801c847077b67a8019567a0125020960392a85022980380a900510706283e3e8267d8008268d000d487071408e0ffffff000000008262e800d882088269e0009498947852080628143e95675811957c000182ca6082cb5882c84882c950d4b807d4a90cd4c707987720d4bc0c97cc20d4c70751070628e53d8327207b6768018267b8017b6a80017b6b78017b6888017b69700150209a03f5ac7b676001826768018268880150209c03e3ac6478826760018269880150209e0364a78268b80182678801c88707d8870882697001826ba0015022a00302ab0082687801826ab001c8a808d8a802826c8001826aa801c8ac0cc82c0a5022a20344a500510806285c3d9569581149294001492938014929300195688012492928015020a403bfa8956a000182a8900082a79800d4870798772082a9c000d49808978820d4870751070628193d826c880195c7207b67a801d8c707826a7001c87a087b68a001d8a808da7708826b7801c8b8087b689801d8b80782628001c827077b67b00195675811957800017b8c087b8a107b8b18956860127b7220018267d0015020a6033fa895685811826798017b87d8008267a0017b87d0008267a8017b87c8008267d8017b8700018267c0017b87f8008267c8017b87f0008267d0017b87e800648a95674012956820128269b0017ba9e0005020a803a578956700128268d0015020aa03a3a6956858118287c000828ab8008289b0008288a800d497075022ac0366a70051070628383c8267b8017b68d8015020ae035bab5022b003f7a6003300b2030a06826ad0013302b40328d3b000826ad0015022b403cbb000956a00017ba858956958117b98a0007ba7607b9798007bab507b9b90009568e0117bac487b9c880033075020b60357a79567581149278000491778491770647a3307209568c011491a68015020b80336a73308a401023907a4010256173f122003a40102403302ba0328c3b2005022ba03bfb2003307b0010283777b68980083993308407b67a0003300bc030a06826ad8013302be0328dba700826ad8015022be03d3a70095685841958a00067baba8007bacb0007ba9b8007ba7c0009567a011956800485020c003aea7956858117c87484918404918387b8728956780114918303300c20333021c092805ae00956a000182a758956958117b972082a7607b971882a7507b97109568601182a7487b970833075020c4036da63302c603956858110149084918f84918e8016489330720956840114919f05020c80349a682689800818756173f0f4808403302ca032899a7005022ca0395a7003300cc030a063302ce0328f9a4005022ce03f5a4007babc8007bacd0007ba9d8007ba7e00095672011956820485020d003eca69567ff07957759018278d0077b68c8018278c8077b68c0018077d8077b67b8013307b001037b67d80183777b67d0013300d2030a03018269d80182970882988199105022d40371a4008269b801d398088269c001d39707d487078268c801d3a808d487078877019568ff07958859014928c0074928b8077b87a807956700114928b0073300d6033302360928d7ac008267d0013300d8030a03018269d80182970882988199105022da030da4008269c800d398088269f000d39707d487078268f800d3a808d4870751070628e8169567ff079577c1013308405020dc03e1a39569ff0795995901829a8000829b78829770829868956c00017bc7d0007bcac800d4a7077bc8d800d4b808d478089888207bcbc000d4b707977720d48707510706285639491958491950491948140700000000a079c3089568ff079588a1017b97608267d8015020de03afa4956a000182a7c80082a9c000d47909140700000000010000007ba7c0001407fcffffff0000000082a8d800d8780782a8d00094877ba9c800949752070628ee388267d8018377049569ff0795995901491940491938491928209568ff07958881014919305020e00345a4956900018297c0009577dc8298d800d878078298d00094878298c800948752070628a0388267d8018377249569ff07959959014919204919184919081b9568ff07958861014919105020e203f7a31407bcffffff00000000956900018298d800d878078298d00094878298c8009487520706284f388267d8018377443a084801023a095001023a0a580102956bff0795bb59017bb87bb9f8956800107b8a48f914090000000000666c659568ff0795884101956a00107ba940f9330002042881a3826720018268d801d8780482680801826cc801d38c0ad88c09daa40982621001826ac001c92a03d82a0a82601801826bd001c90b0bc9ab0bd8930ac9ab0b7b6bd001c99303c98c09c94909826bd801c97b0b956a581995ac00037bc7287bcb087bc8307ba238037bc9107ba040037ba318039567801c9568601c8269d0017bc9205020e403b7739567401c3308405020e603b6a1956958198292000395980002828cf800828bf0008287e800d42b0ad4c708d4a808988820d4ca0a97aa20d4a808510806283c379578207b68d001d87803c83b087b68d801d8b808da3308c8c8087b68c001d8c808c828087b68c8014929e0024929d8024929d0029568201c4929c802207b6770017b6b68017b6260017b6c58015020e8036aa29567001c826820015020ea0322a1956c000182c7d00082cac000d4a70982c8d80082cbc800d4b808d48909989920d4a808978820d4980851080628ac36956c581982cbc00282c8b80282c9b00282caa8027b6a78017bca88027b69800195ca00027ba990007b6888017ba898009568e01b7b6b90017baba0005020ec03eba13300330b33023304956a000182a8709587407ba7d000d8870782a968c879087ba8c800d89808da770882a758c878087ba8c000d8780782a860c887077ba7d80082a830826328010182677801d8700782698001d39b0a7b6bb801d89b09daa709826c8801d8c207826a9001d3a40bd8a40adab70ad3c207d4b707da790a510acb04d4380782693801826a4001d4a909d49707987720d43909979920d4970751070628c6357b62a0017b64a8017b60b0017b6328019567c01b7b6830015020ee03ef9f95680001828cd0008289c000d49c07828ad8008263c801d4a308d48707987720d49808978820d48707510706287935956b58197b69c00182b2800295b900028298788297707b6ad801829a687b9a487b97507b98589568a01b7bb2600264c77b6cd0017b63c8015020f003bca08268d0019587207b679801d887098267c801c89703d8730ada990a8267c001c8a702d8720a8267d801c8a7077b67d80182673001957a20d87a0b82674001c8b70cd87c07dabb0782682801c87809d8890b82673801c8b7077b6738018260b001950001880b018264b801c8b404d4400b88bb018267a001c87b0bd87b088267a801c88707826898017b68d0017b63c8017b62c00164a87b6c4001649364b2644b64742877fe956c000182c8b00082caa000d4a80782c9a80082cb9800d4b909d49707987720d4a909979920d49707510706286734956780395020f203a49e956a583982a73882a84082a93082aa28d49808d4a707d48707520746019567e0273308405020f4037a9e956958218292a00695980006828c9800828b900082878800d42b0ad4c708d4a808988820d4ca0a97aa20d4a808510806280034492978064929700649296806140a00000000a079c3089568c0277b9a80067b67d8017b6bd0017b62c0017b6cc8015020f6034d9f5022f80375a30052070628bf335022fa038ba900492960064929580649294806209568a027492950067b6ac8017b6bc0015020fc03169f95690001829bc800829ad0008298d8008297c0009577dcd8780794a794b7520706287133838724956958214929400649293806492928061595688027492930065020fe03d09e5022000468a40052070628423383a7443a08c000023a09c80002956b582195ba00067ba8207ba91814080000007974706d657ba81095686027492b0806502002048d9e3308648267d8013300bc05282ca2956b000182b9880082bc78d49c0782b8900082ba8000d4a808d48707987720d49808978820d4870751070628d0329567603964c8502004040b9d956a583982a71882a82082a91082aa08d49808d4a707d487077b6738019567403933084050200604e19c956758398273957800ff828bf8008289e800828af000d4b907d43a08826c3801520cd401d48707987720d4b808978820d4870751070628613295625821492218074922100749220807140700000000a079c308956860287b27200764977b6930017b6a28017b6b08017b63000150200804a89d956c000182c83082c70882cad47a0a140b00000000010000001407fcffffff00000000d8780782c928949794a752070628f43150220a04c0a700492900074929f8064929e80620956840284929f0067b6ad8017b6bd00150200c044b9d956b000182bad80082b92882b83082b7d00050220e0474a50052070628ab31838724956a5821492ae006492ad806492ac8061695682028492ad006502010040a9d956a000182a9301407bcffffff00000000d8790782a828948782a8d80094875207062864318397443a08a800023a09b000023a0ab80002956b582195bc00067bc8c0007bc9b8007bcab00095680028492ba80650201204b19c330864826730013300bc052850a0826770018264d001d87402826c68018268c801d3c80ad8c809daa209826a5801826bc001c9ab00d8ab03826b6001826ad801c9ba0bc93b0bd8900ac9ab0ac9900bc9c809c92909c97408d4a909d4b80ad49a0ad4b90998aa20979920d4a90951090628bd307b68d80150201404e49f83788169d80133070a0828fccb7b67f0007b68f8009597207b6738017b693001d89707c87a087b6810017b6a2801d8a808da7708c8b8087b6820017b6b0801d8b8077b630001c837077b671801956720398268d001502016049f9a956b000182b92082b738d4970782b81082ba1850221804c39f00510706283830956a000182a7c00082a8b800d487071408e0ffffff000000008262d001d8820882a9c80094989478520806280a3095675831957c000782cae00082cbd80082c8c80082c9d000d4b807d4a90cd4c707987720d4bc0c97cc20d4c70751070628d72f8327207b67c800826738017b6ae0007b6bd8007b68e8007b69d00050201a04e79e7b67c0008267c8008268e80050201c04d59e64788267c0008269e80050201e045699826838018267e800c88707d88708826b10018269d00050222004f49c00826a20018268d800c8a808d8a802826c1801826ae000c8ac0cc82c0a50222204369700510806284e2f3302240495695831014929c0074929b8074929b007956800394929a80750202604ac9a8269f8008267f000d4970798772082680801d49808978820d48707510706280a2f826be80095b7207b671801d8b707826cd000c87c087b681001d8c808da7708826ad800c8a8087b68f800d8a8078269e000c897077b672001956758317b7b8807957b00077bbc90007bba98009568e0387bb9a00082673001502028042d9a956858318267f800958900077b9758826710017b9750826718017b9748826700017b978000826708017b9778826728017b9770826730017b9768648a9567c0389568a038826920017ba9600750202a04956a956780388268300150202c049398956a583195ac000782c74082c83882c93082cb2850222e043a9f00510706282b2e64ba8267380164b87b6a3001502030044a9d9518e08489e07b69380164918377816830018399330032040a06826a38013302340428caa200826a380150223404c2a2007b67d800956a583195ac00077bc7207b69d0007bc9187b68e0007bc810956860387b6be8007bcb08330750203604399995685831492800074928f8064928e806016489330720956840384929f0065020380415993307a401027b67f8003907a4010256173f0c8268f800480840019517e08479e07b69380164913307b00102837783993308407b67f00033003a040a06826a380133023c0428809400826a380150223c04789400958a00057bab487bac507ba9587ba760956720389568a04e50203e049699956758317c77c8067b6718019567003833084050204004519795695831959a000682a7c00082abb80082a8a80082a9b000956c00017bc838d4b8087bc8207bc930d479097bc92864bad47b087bc81082c81851080628532b9568583182693801958b00067bb908826930017bb9107bb720956760377b6a08017bba18330042043302a20828d29c00956a000182a82882a720d4870798772082a908d49808978820d4870751070628792c8267d001330244049569583101959800057b87e8008267c8017b87f0008267c0017b87f800956840378267b8017b9700068267380150204604bf9714070000000001000000956900017b97281407e0ffffff000000005022480433940052070628162c826738018379209567583182685801957b00057bb8c800826860017bb8d000826868017bb8d80095682037826a70017bbae0007b690801649750204a045897956900018297289577c050224c04dd930052070628c02b82673801837a408267b00133024e049569583101959b00057bb7a8008267a8017bb7b0008267a0017bb7b80095680037826798017bb7c0007b6a000164a750205004fd9614070000000001000000956900017b97701407a0ffffff000000005022520471930052070628542b826738018379609567583182687801957b00057bb88800826880017bb89000826888017bb898009568e036826a90017bbaa0007b69c00064975020540496963307b001037b67c80083777b67b800330056040a0301956900018297709577805022580405930052070628e82a50225a046f9600d4790b98882082673801837780009569583149298005959c00057bc8787bcb709568c0367bca687b67b00050205c043196956700508377c0fe33005e040a070114070000000001000000956900017b979000140760ffffff000000005022600495920052070628782a956a584995a70005827c68827870827978827a8000826738018377a000956b58317bba600595ba00057ba9587ba8509568a0367bac487b67a80050206204b995956700508377e0fe330064040a07019569000182979000957740ff502266042d920052070628102a956a584995a70005827c88008278900082799800827aa000826738018377c000956b58317bba400595ba00057ba9387ba830956880367bac287b67a000502068044e95330a0114070000000001000000956900017b979000140820ffffff00000000829738d8870882973094788297109478520806289829826738018377e00033026a049569583101492920054929180549291005956860367b9a08057b67880050206c04ea949569000182979000957700ff50226e046d9100520706285029956b000182b73883790001956a583182b74095a800047b87e80082b7487b87f00082b7507b87f8009568403682b7d8007ba700057b695864975020700492948267d800330272049569583101959a00047ba7e0008267d0007ba7d8008267e0007ba7d000956820368267e8007ba7c8003307502074045994956858314928c0044928b8044928a804016489330720956800364929b0045020760435949517e08477e07b67980064718267f800817756173f138268f80048084033027804282598005022780421980033007a040a06826ad80133027c0428389d00826ad80150227c04309d007b6878826998007b98187b6780007b97107b6b707b9b087b6c687b9c9567e0358268380150207e04889295675831957c000482caa00082cb980082c9900082c8880050228004b09500510706281c289567c0358268300150208204559295675831957b000482ba800082b87882b9708ea78e8bdba70b956c00017bc9508e977b68607bca48d4a8087b67507bcb107bc840db8b0751070628b85c95675831827768047b6790009567a03582689800502084042a94956b583195bc000482c94882c75082c85882ca607bca207bc8187bc71095678035956860357bc90850208604726b9567583195780004828a40828b38828c308289288ea78eb8dba7088ec77b6978018899208599017b6c8001dbc709956c00017bca88007bcb9000d4ab07db7809826790008877207bc738520906283a2795675831826868957900037b98e8008268707b98f000826880007b98f800956840358269787b79000433075020880489928267f800817756171f138268f80048082033028a0428ec930050228a04e893000a068267900095781fd87807826c5001c87c09d8c90ada770a826b60c8ba0a7b6a580197aa3b989b05d4ab0b8267600182721897993b827710988805d489096f246f778268380194c8826a400194a8948b9489c89402d84209c8970cc8cb0b7b6bd801d37b0cd87b0adac90a7b6a488269780195901fd8900b826a8001c8ba09d8a90cdabb0c82639001c8c303973b3b989a05d4ba0a97993b980b05d4b909c849097b697001d8490b642450228c04a79900826760d87b07826a480150228e04da960082b282bb08987705948a94876fb86f2b50229004739c00826048c8a000d8a00ac8a70282679001d87307826a8801c8a707983a05977c3bd4ca0a987705c8b707956c000182cbd800c88a0ad88a08c88707c8a9097bc960d8a908c887077bc7589517e08477e07bc7900064710182677001d8740782696801d39b08d89b09da8709826c6001d8c007826a5801d3a208d8a20ada870ad3c007d48707da790a7b648801826790017b747b6bd8017b7b087b6078017b70107b6280017b721895675849520a06285f254927c0054927b8054927b0054927a8059568004f82679001502092042b9250229404308e0082628001c8820264702878ff956b000182b788008577018269d80082b878db980782b8800082ba9000dba807510791098267f0008477e07b675001956758118268c000957a00047ba8c8008268b8007ba8d0008268a8007ba8d800956820168269b0007ba9e0003307502096044b909517e08477e07b67b8016471330820330750209804e4939518e08488e07b68c00150229a04a095000a064926d80120330333044926d001330b330c33094926c801826ac00182a71882a81082a20882aa6f777b67c0016f806f286faa64a28267b8017b7a187b6878017b78107b60b0017b70088268c001648a7b78017b62a8017b6ac001826750017b6b9001d87b07857b017b6c880194cb017b69a0018267c801d49707947b01826c70018268d801c8c808826a68017b638001c83a02826960017b649801c84900826358018267d001c87303520ba708d8c804c8420bd3ab02d8ab0cda240cc80c0cd80c0ad89009c89307c8a707d4c809d4b707d47909989920d4c707977720d4970751070628ba239567a01450209c04f78d956a581195ab000382b76082b85882b95082ba48956b584995bc00017bc7407bc8387bc9307bca289568804a8267b80150209e0465908260c0019500018807018262b001c87202d4200788770182687801c87803d883088267a801c887078268d8019589207b69c001d8890a82688001c8a8097b69a801d8890bdaaa0b82689801c8b804d8840b8268d001c8b8087b68d00182689001958b20d88b0c82698801c8c908d89809dacc09826aa001c8a909d8a90c826ac801c8ca0a7b6ac8017b62b001826cb8017bc208640a7bc07bc31064727bc7187b6378018267c0017b67d8018263a801648c287bfe956a000182a7489569ff0795995901959b00077bb7880082a7507bb7900082a7607bb798009568e01082a7587bb7a00033075020a0040f8e9567ff0795775901492780074927780749277007647a3307209568c010492a6807015020a204e78d82689800818756173f0f4808403302a40428378f005022a404338f003300a6040a063302a80428978c005022a804938c007babe8007bacf0007ba9f8007b8700079567a010956840485020aa048a8e9568ff0795885901958900078297487b67d0018297507b67c8018297587b67c001826758017b9740826760017b9738826750017b9730648995688010826748017b97280733075020ac044c8d9568ff079588590149282007492818074928080701648933072095686010492910075020ae04248d826898009517e08477e07b67d8016471818756173f08480840011407ffffffff000000007b67b8019517e08477e07b67b001647183793308408267a0003300b0040a06826ab0013302b204289c8900826ab0015022b2049489008268d8017b8b7b8c087b89107b8718956740105020b404a38d9568ff07958859018087fc06977720828800078269c800d49707956a58418269f80095ab00077bb9108269f0007bb9087bb8207bb718956860488267d8015020b604d78d826758019569ff0795995901959a00067ba7e000826760017ba7d800826750017ba7d00095682010826748017ba7c80033075020b804358c9568ff07958859014928c0064928b8064928a806016489330720956800104929b0065020ba040d8c95670050837780f80a07018268980095695841959a000782a740956b00017bb7a80082a7387bb7b00082a7307bb7d800818782a9287bb9a00056173f08480840018267c0018268b801d287077b6790008267c8018477ff7b6788008267d0018477ff7b6780009517e08477e07b67d001647183793308408267a0003300bc040a06826ad0013302be0428418c00826ad0015022be04398c0095695841959a00077bab487bac507ba7587ba860956800018287a8007ba780008287b0007ba7788287d8007ba7708287a0007ba7689567a0489568c0485020c0049c8c9569ff07959959014929a0068267c800959a00067ba798008267f8007ba790009568ff079588e1078267f0007ba7880033075020c204fa8a9567ff0795775901492780064927780649277006647a3307209568ff079588c107492a6806035020c404ce8a82689800818756173f0f4808403302c604281e8c005022c6041a8c003300c8040a063302ca0428e491005022ca04e09100956cff0795cc5901826a58017bca4006826a60017bca3806826a50017bca3006826a48017bca280695ca00067ba9607ba8587ba7509567ff079577a1079568ff07958881077bab485020cc04686b9569ff07959959014929200682679000959a00067ba718826788007ba7109568ff0795886107826780007ba70833075020ce041a8a9568ff0795885901492800064928f8054928e8050364893307209568ff07958841074929f0055020d004ee89826898009517e08477e07b674001647181875517400f4808403302d204286395005022d2045f95008267a0003300d4040a06014926d8014926d0014926c0014926c801956c000182cab8005022d604cb920082c8407bca207b8a187bc9287b89107bcb307b8b087bc7387b87019567ff07957721075020d804658a956bff0795bb590195b90005829cd0008298e000829ac8008297d8008269d001d3c9027b6c0801d8c90c8269d8017b6a1801d8a909db2c098263c001d87302826ac801d38a0c7b681001d88a0adac20a7b670001d37307d4c707da790a520a062805109517e08477e07b67b80164718267c80195bc00057bc7608267c0017bc7588267d0017bc7508267d8017bc7485022da048692009577e1069568ff079588c1069569ff079599a106826a38017bca685020dc04405f956aff0795aa590195ab000582b7c0007b67980182b7b8007b67880182b7b0007b67800182b7a8007b67900182b7980082b8a00082b9880082ba9000826bb8017bb7107bb8187bb97bba0864b89567ff07957781065020de0453899568ff0795885901958900058297287b67b8018297307b67b0018297387b67a8018298405022e004ae8c00d4a90298c93d826a980197aa03d4a9099744037b6498018e3a884b000185bc01db3a0c8e9b8e2adb9b0ad49209db9a0c7b6c88018349805020e204f893005022e4047692008267b8018268b0015020e604e293005022e804628e005020ea04fa9300826a6801d48a0a82699801889b80007b6b680182687801dab80a8268b001da980a7b6ab00182687001d4780882678001dab7088267b801da97087b68b8018267a8018268a001826990015020ec04839300956c000182c9689398939782c9880082cbb800949b82cab000949a9497949882c950d3a90982ca58d3a808d4980882c948d3b90982ca60d3a707d49707d487075107a306956a000182a8d80095880188870182a9d000c879097ba8d8007ba9d000d4980788770182a8c000c88707d8870882a9c800c889097ba9c8007ba7c00082a840287ffd8267f0008268e000d487078268d000d49808d487075207ad01492680014926780149268801492690012804028269f000826b5001d39b0b8269e000d49b0b8269d800826cd000d49c0cd4cb0b510b290195670001827b70d8b80bc8b20a827968d39a02d89a0cda2b0cc80c0cd80c0b827960d89009c89307c8b7075022ee0414840051070628f41a956700165020f004318595675811957900048298c0007b68d0018298b8007b68c8018298b0007b68c0018297a8007b67b0018267f0005022f2043984005020f4045792007b67a8017b6890013307ff3308ff8269d8015020f6041892007b6798017b68a00182679001d487077b6790018267d8019579803307ff3308ff5020f804f19100826bd80188b98000826a9001db9a08826c9801826aa801d4ca0ada970a93b8ff93baff826ba001939b939c8267b001e0a7078269c001e089088269c801e0c909826ad001e0ba0a956b584995bc00017bca607bc9587bc8507bc7489568a04a8267b8015020fa04f2868269e00098973f8268d000978801d48707826ad80098a83f979901d49808826bf00098b93f97aa01d4a90997ba0195aa01956b584995bc00017bca687bc9707bc8787bc780003307c04a287901956a000182a76082a858d487071408e0ffffff0000000082a970d8890882a9689498947852080628901982677001837820956740165020fc04c6839567581182780005956900017b989000957a000482a8f8007b98880082a8f0007b987882a7e8007b9780008269d8000198973f826ae00097a801d487077b67d00198a73f8268d000978801d487077b67c801826af00098a73f979801d487077b67c00197a7017b67b80197a8035022fe0478860050200005ab90007b6798017b68b0018267f0008a79033307ff3308ff502002056990007b67a8017b68a00182689801d487077b6798018267d8018379803307ff3308ff50200405429000826bd80188b98000826a9801db9a07826ca001826ab00150220605478f00826ba801939b82687801e0a80882698001e0790782698801e0b909826a9001e0ca0a956c000182cbb800d4b70782cbc000d4b80882cbc800d4ba0a82cbd000d4b909956b584995bc00017bc998007bcaa0007bc890007bc788003307e04a01c876088267f8005020080522859569581182671801959a00047ba79800826700017ba79000826708017ba788009568e015826710017ba7a000330750200a05848333020c0595685811014928800449287804492868040164893307209568c0154929700450200e055b8395670050837700fb330010050a070195685849958a000182a7c000956b00017bb7c80082a7b8007bb7d00082a7b0007bb7d80082b920819782a8a8007bb8c00056173f0f4809403302120528a28e00502212059e8e0082672801330014050a06826ab8013302160528b08300826ab80150221605a8830095695849959a00017babc8007bacd0007ba7d8007ba8e0008267c8017b9700028267d0017ba7f8008267d8017ba7f0008267c0017ba7e8009567204b9568404b5020180508849567a01533084050201a05578195685811958900048297607b67d0018297587b67c8018297507b67c0018297487b67d8018267c8000a038267e8008078107b68b0018278087b68a80182777b67b80195670050837760fb33001c050a073307005033021e0528098d003307005050221e05018d0082b70882b81082b91882ba20956b581195bc00037bcae0007bc9d8007bc8d0007bc7c8008267300195b800047b87826738017bc7f800826740017bc7f000826748017bc7e8008267d0017b87208267c8017b87188267c0017b871064bc956780159568601595694015956a2015826bd8017bcb080450202005d4745022220549880051070628211664a295685811958b000482b73082ba407b6aa0018283280482ba38d39700d8970c8264d801d84308da080cc92a0bc9cb00d8cb0b7b6b9801d82a0a826cd001826ba001c9cb0cc9ac0c826a9801502224053e880051070628c7158267a8016f79979720826ab0016faa98aa20d47a028267b8016f7a97ab20989920d4b90998aa203a0be8000295635811826708017b378803826700017b3790037b3bc0033a0bf000023a0cf800023a070001027b3bb80349238003953b00037bbcb0007bb7a8007bba78826718017bb79800826710017bb7a0007bb97095690015956ae014956bc0147b3268038267d80150202605e68233078268280133093300ac070a08283139826a180188a70182680801c97807d4a808888801826b0001c98b09d88b08826b1001c98b0895aaff951be084bbe07b6bb80164b1956bff0795bb590195bc00047bc8c0007bc9b8007bc7b0007bcaa800826720017bc7e000826728017bc7d800826730017bc7d0009567ff07957741069568ff07958821069569ff0795990106826a38017bcac800502028059656956aff0795aa590195a900058297207b6798018297187b6788018297107b6780018297087b67900195ab000482b7f800829882b9e80082baf000826bb8017bb7107bb8187bb97bba0864b89567ff079577e10550202a05ab809569ff0795995901959a000482a888007b68b00182a790007b67b80182a798007b67a80182a8a00050222c05028400d4a90298c93d826a980197aa03d4a9099744037b6498018e3a884b000185bc01db3a0c8e9b8e2adb9b0ad49209db9a0c7b6c880183498050202e054c8b0050223005ca89008267b0018268b80150203205368b0050223405b68500502036054e8b0082696801d49808826a980188ab80007b6b680182697801dab9088269b801daa9087b68b80182687001d4870782688001dab8078268b001daa8077b67b0018267a8018268a0018269900150203805d78a00647982676801937893798267b001826a880194a77b67b0018267b80194a77b67b80194a97b69980194a87b68a0019517e08477e07b67a80164718267c8019568ff0795885901958900047b97208267c0017b97188267d0017b97108267d8017b9708826720017b9740826728017b9738826730017b9730648b9567ff079577a1059568ff07958881059569ff0795996105826a38017bba280450203a05bc549568ff0795885901958b000482b780007b67d00182b7787b67c80182b7707b67c00182b7687b67d80182b75882bc6082b94882ba508268a8017b87107b8c187b897b8a089567ff079577410550203c05d87eff9567ff0795775901957900038298f8007b688001827800047b6878018298e8007b6870018297f0007b676801826cd80198c73d8269c001979803d4870798983d826ac80197a903d4980898a93d826ad00197aa03d4a90997cc037b6cc80150223e05b07d7b6bc00183c9807b6918018267b0018268b801502040058d89007b6708017b68d0018268c8018d8980007b6910018267b0018268b801502042054489007b6788017b6800018267d8018a79037b699001826798018268a00150204405488900826a8801d47a0a8269c801889b80007b6b880182670801dab70a82679801da970a7b6ad80182670001d478088267d001dab7088267a001da97087b68d0018267b0018268b8018269900150204605f7880064898268880193879389826ac0018268d00194a87b68d0018268d80194a87b68d80194a97b69b80194a77b67b0013307ff3308ff82691001502048059288007b6710017b68a0013307ff3308ff8269900150204a059f88007b6798017b68900182681001d487077b6710013307ff3308ff8269180150204c057b8800826a880182691001dba907826c90018269a001d4c909daa8098268c8019387ff9389ff826b980193ab93ac8598ff8577ff85c9ff85baff826cc00194c7ff94c8ff94caff94c9ff826b6801d2b909826b7001d2ba0a826b7801d2b808826b8001d2b707826bd801d4b707826bd001d4b808826bb001d4ba0a826bb801d4b909956b584195bc00077bc990007bca88007bc8a0007bc798009568e0488267a80150204e051a7dff9567ff079577210582684001502050058f7cff9568ff0795885901958b000382b7e00082b9d80082bad000648282b8c800d47a0bd4980cd4cb0b520b06282a45951be084bce064c1888b01c9ba03d48a0a88aa01c9a90bd8a909c997079588ff7b6cc0017bc7187bcb107bc3087bc89519e08499e07b69d8016491952c00037bc7607bcb587b2350037bc84850225205c584009577e1049568ff079588c1049569ff079599a104826a38017bca68502054057f519568ff0795885901958c000382c7c0007b67c80182c7b8007b67900182c7b0007b67880182c7a8007b67d00182c7980082cba00082c9880082ca90008268d8017b87107b8b187b897b8a089567ff079577810450205605947bff9567ff0795775901957900038298307b68b8018298287b68b0018298407b68a8018297387b67a0019517e08477e07b6798016471826bd00198b73d82698801979803d4870798983d826a900197a903d4980898a93d826ac80197aa03d4a90997ba037b6ac8018e9c8e8bdb9c0b8e7288ac000185cc01db720cd49808db8b0c7b6c900183a9803307ff3308ff502058053486007b6788017b6880018267d0018a79037b69d0013307ff3308ff50205a051486007b6778017b6870018268c8018d8980003307ff3308ff50205c05d18500826a7001d48a0a8268c801888b80007b6b700182698001dab90a938aff7b6a8001826a7801d47a0a82678801dab70a938aff7b6ac8013307ff3308ff8269d00150205e05b0850082697001939893978269c8018599ff826a800185aaff8577ff8588ff826b900194baff94b9ff94b8ff94b7ff826ba001d2b909826ba801d2ba0a826bb001d2b707826bb801d2b808826b98017bba187bb9107bb8087bb764b88267d80150206005917aff826740018268c00150206205827aff956bff0795bb5901019569000182974895ba00037ba7088297507ba7108297607ba7189568ff07958861048297587ba720330750206405de78ff9568ff0795885901492800034928f8024928e8020264893307209568ff07958841044929f00250206605b178ff82699800819756173f0e4809403302680528007a50226805fd790a068268d8018287187b67b8018287107b67b0018287087b67a80182877b67a0019567ff079577210433084050206a052a77ff9568ff0795885901958c000282c7e0007b67c00182c9d8007b69c80182cbd0007b6bd00182cac8007b6ad8017bc7c0007bc9b8007bcbb0009567ff07957701047bcaa80033006c053302b00828c97c956a000182a7c00082a8d000d4870782a9c80082a8d80050226e055f7d5207730c9569ff07959959014929a00282678000959a00027ba78800826788007ba790009568ff079588e103826790007ba798008267d80150207005b977ff956a000182a7c00082a9c800d47909140700000000010000007ba790001407e0ffffff0000000082a8d800d8780782a8d00094877ba9980094975107fa0b8267d801837720956aff0795aa5901492a80028268f00095ab00027bb8688268f8007bb8709568ff079588c1038269c8007bb978502072054077ff95670050837700f90a070195690001829790009577c08298d800d878078298d00094878298980094875107920b95675841957c000782c9a80082c8b00082cab80082cbc0008267d801837740956cff0795cc59017bcb600295cb00027bba587bb8509568ff079588a1037bb94850207405cc76ff1407a0ffffff00000000956900018298d800d878078298d00094878298980094875107260b8267a0016f777b67a0018267a8016f777b67a8018267b0016f777b67b0018267b8016f777b67b8018267d801837760956aff0795aa59018268a80095ab00027bb8288268b0007bb8308268b8007bb8389568ff07958881038269c0007bb940502076054176ff8267c0019568ff0795885901958900027b978267c801958a00017ba7f8008267d0017ba7f0008267d8017ba7e8008267a0017b97208267a8017b97188267b0017b9710648a9567ff07957761039568ff07958841038269b8017ba9080250207805d95a9567ff079577210333084050207a059274ff9568ff0795885901958900018297e0007b67d0018297d8007b67c8018297d0007b67c0018297c8007b67d80195670050837720f90a07956a584195ab000782b7c80082b8d00082b9d80082bae000956bff0795bb59017bba60017bb958017bb850017bb748018267d0007bb780018267d8007bb778018267e0007bb770018267e8007bb768018267d0017bb7a0018267c8017bb798018267c0017bb790019567ff07957701039568ff079588e1029569ff079599c102956aff0795aaa102826cd8017bbc880150207c05246850227e05997b5207750964a29568ff0795885901958b000182b7b00082bac0007b6ab8018283a80182bab800d39700d8970c8264d801d84308da080cc92a0bc9cb00d8cb0b7b6bb001d82a0a826cd001826bb801c9cb0cc9ac0c826ab001502280058a7b520717098267f0009562ff0795225901642c7bc7c800826780007bc7e800826748017b2708018267f8007bc7d000826788007bc7f000826750017b2710013a072801023a093001023a0a3801023a0b4001027b2740017b293801952900017b9a307b9b284922e0008267c8007bc7d800826790007bc7f800826760017b9718826758017b97209569ff0795998102956aff0795aa6102956bff0795bb4102956cff0795cc2102492200018267d801330082059511e0fe7b1018017b1510017b160801951520018411e082c67b166082c6087b166882c6107b167082cc187b1c7882bc7b1c3882bc087b1c4082bc107b1c4882bb187b1b5033021028d77933078268a00033093300ac070a08281e2c8268880182676001d48707987720d4a808978820d487075207f207826ad80195a7207b67d001d8a7078268c801c878097b69c001d88908da77088267a801c878087b68b001d8780782689001c887077b67b801956958214929a00049299800492990009568e021492988002064a7502084051973ff9567c0218268e00050208605d071ff956b000182b7d000647c82b9b000d4970782b8c00082bab80050228805ed765207660795675821827980007b691001827a787b6a08018278707b681801827b687b6be0007b7b487b78507b7a589568a0217b796064c750208a05ad72ff3300330a330333028267d801957c40d87c077b67b801826bc801c8b7078268e00098893b7b69d001826918019799058264d001d44904978905c84708c8c9097b6c88017b69d001d8c909c8980cd37c087b6cc001d87c0cda890c7b678001d8b7088267b801da7708826b080198b73b82691001979905d479048269180198993b97bb05d49b07826ba801c88b09d8b908826b9001c8b808c8790b7b687801c848077b696801d89b08c88707c8bc0c956900017b9cb000d8bc08c887077b97b800140700000000010000007b97481407e0ffffff000000007b9750018267e0007b604001d8700782691801d39a087b6a3801d89a09da8709826c0801d8c307826a1001d3a2087b623001d8a20bda870b7b632801d3c307d48707da790b826ad8018264d001d8a4028267c8018260c001d370087b689801d87008826ca8018269b001c9c903d8c9097b69a001826c90018269b801c9c9097b696001c97000c9a404510b8c058267880182696801d4970a826b8001826c7801d4cb0bd4ba0a98aa20d49b0b97bb20d4ba0a520a9f0582699801da9208d8830a8269a001826b6001c99b0bc9ab0ac9830bc9200988b801c98a029540c0d8400ac8a90c95ccffd39c03d89c08da3a0895b9ffc89808d89809c82909956a58217ba0287bac307ba838956880217ba94050208c05c070ff82680001826af000d4a8078269f800826be800d4b909d49707987720d4a909979920d49707520716059567602150208e05526fff330290059568582101828920828a18828710828808956b00017bb7a0007bb960d49707d4a809d479099899207bba58d4a707977720d497075207cf04956740217b68980150209205076fff956c000182cbd00082cab000d4ab0782c8b80082c9c000d49808d48707987720d4a808978820d487075207930495695821959a00ff82a7f80082a8f00082a9e800826a7001d2a7078488ff8499ff956a5819492ae00795ac00077bc9c8007bc8d000956820217bc7d80064b77b6bd00150209405ca6fff956b000182b76082ba58d47a0a82b8980082b750d8780782b9a00094977bba6094a75107230483882095670021502096055c6eff956a000182a7b80082a8b000d4780982acd00082a750d87c0782a8c00094877ba95894975107ed03956b581982b7b80782b8b00782b9a807826a7001d27a0a8488ff8499ff83c720492ba00795bc00077bc988007bc890009568e0207bca9800502098052f6fff956a000182a7489577c050229a05677a51079a038388409567c02050209c05d36dff956a000182a9d00082a720d8790782a8c000948782a858948751076f03956c581982c2800782c8780782ca700782cb680783974095c900077b9b487b9a507b98589568a0207bc2600750209e05bd6eff956a000182a7489577a05022a005f57951072803838860956780205020a205616dff95690001829ad000829720d87a078298c000948782985894875107fd02956b581995bc000782c7407b67580182c7387b67600182c7307b67980182c7287b67a00183a760492b2007492b1807492b100795686020491c0880005020a4053b6eff8268d00195878000d88708826ac0015022a605d5788268b001c88a0ad88a08826bb801c88b0b95685819958c00067bc9b0007bc7a800826758017bc7e000826760017bc7d800826798017bc7d0008267a0017bc7c8007bcab800648a9567402095682020956900207babc0065020a8054b3b95625819822700077b67b801826700019578207b68a001d878098267f800c89703d8730ada990a8267f000c8a704d8740a8267e800c8a7077b67e80082678801957920d8790c82678001c8c70bd87b07dacc078228f8067b68b00182686801c88707d8870c82687801c8c8087b68780182604001950001880c01826a3801c8ca0ad4a00c88cc018228f0067b68c0018228e8067b68d00182682801c88c0cd88c0882623001c882028268a0017b6800017b63f8007b64f000956800017b8988007b8b80007b876864c3282efb8268280182672001d48707987720d4a808978820d487075207610195695831492998064929900649298806140700000000a079c3089568e0377b97a006826738015020aa05b56cff14070000000001000000956900017b97d8001407fcffffff000000005022ac05276951070e01826738018377043302ae059569583101492980064929780649296806209568c037492970065020b005636cff956900018297d8009577dc5022b205e6685107cd00826738018377243302b4059569583101492960064929580649294806179568a037492950065020b605226cff1407bcffffff00000000956900015022b805a26851078900826738018377443a086000023a096800023a0a700002956b583195bc00067bc8407bc9387bca3095688037492b28065020ba05d46bff330864826738015020bc05766fff8378281b219569000182979800da7208d8830a8297a000829b60c97b0bc9ab0bc9830cc92007d4c408d4b707d47808988820d4c707977720d4870752070628b63500956c000182c73885770182ca50826850dba80782c81082c940db980782cb48d4ba087b685082686098893f7b694097b9017b693898a93f7b69289788017b68188268900098893f7b693097a9017b69209788017b684851074801826790008477e07b67100195675831826868957a00037ba8a8008268707ba8b000826880007ba8b800956800358269787ba9c00033075020be05ed6aff5022c00541725020c205906eff5022c4053b6f3300c6050a063302c805285c6e5022c805596e5022ca05eb686472826870017b87187b6050017b80107b84087b837b6268015022cc058766520bd900826bd801d8b80bc8b000d3a0027b6a3801d8a00cda2b0cc89c0cd89c02826a9001d8a909c89707c827075022ce05c76c5207e9fe9567c0285020d0052569ff956a582195ab000782b7800082b87882b97082ba68956b584995bc00057bc7e0007bc8d8007bc9d0007bcac8009568204f826770015020d2058d6bff5022d405056582628001c8c2027b6280015022d605a87264727bc7187b605001826768017b67d801826c48017b6a9001648a7b6268013302cc0528c86582679000826860d48707826850d48707520722015022d805b16c285d01826390018262d801826b9000826c1001d3cb0b826c60d4cb0b826c50d4cb0b510bba0064a4d8280bc8b00ad34a02d84a0cda2b0cc89c0cd89c0bd83909c89707c8b7075022da0517675207fbfd9567e0345020dc053768ff95675831957900038298a0007b689001829898007b688801829890007b688001829788007b677801826790005022de053e675020e0055d755022e20514725020e4052b757b6758017b6860015022e60556685020e80517755022ea057a647bba000695ba00057ba9f8007ba8f0007ba7e8009568404f826770015020ec055a6aff826740826838d48707826828826918d49808826930826a20d4a909826a4895aa01956b584995bc00067bca087bc9107bc8187bc7203307604f28c9005022ee052b69510829fd82673001837820956720355020f0055e67ff95675831957900038298e000956a00017ba8588298d8007ba8508298d0007ba8408297c8007ba74801826728826818d487077b679001826740826838d487077b678801826730826820d487077b678001826890009788035022f205256a5020f40559747b6760017b687801826790008a79033307ff3308ff5020f60518745022f805ba645020fa050c745022fc05a762826b485022fe05bf6d7bc9387bca407bc8307bc7283307804f01c8760882679800502000064a69ff502202069273957a0188a701826870c8780bd4ba0788770182688000c8780cd88c07826878c887077b6c38017b9c107b6b40017b9b087b6a50017b9a7b6990007b6748017b97189567c03482680801502004065066ff95675831957c000382ca800082cb7882c97082c868502206067a695207eafb9567a03482683001502008062266ff95675831957b000382ba6082b85882b95050220a0657727b6898007b6a60d4a8087b67387b6b407b6850db8b07510706287b3195675831827748037b670801956780348268900050200c060068ff956b583195bc000382c92882c73082c83882ca407bca95ba00027ba8f8007ba7f00095676034956840347ba9e80050200e06413f9567583195780003828a20828b18828c108289085022100609677b67485109f001502212062a72957b00027bb8c80082a8407bb8d00082a8387bb8d8009568203482a9487bb9e0003307502014068966ff8267f800817756171f128268f8004808203302160628eb6750221606e867330018060a06018267080195781fd87807826c100150221a06946b82721897993b827710988805d489096f246f7782684894c8826a5094a8948b9489c89402d84209c8970cc8cb0b7b6bd801d37b0cd87b0adac90a7b6a308269780195901fd8900b826a8001c8ba09d8a90cdabb0c82639001c8c303973b3b989a05d4ba0a97993b980b05d4b909c849097b697001d8490b642450221c06bf6d82679800d87b07826a6050221e06f36a82b282bb08987705948a94876fb86f2b502220068d70826030c8a000d8a00ac8a70282679001d87307826a8801c8a707983a05977c3bd4ca0a987705c8b707956c000182cbd800c88a0ad88a08c88707c8a9097bc960d8a908c887077bc7589517e08477e07bc7900064710182677001d8740782696801d39b08d89b09da8709826c6001d8c007826a5801d3a208d8a20ada870ad3c007d48707da790a7b648801826790017b747b6bd8017b7b087b6078017b70107b6280017b721895675849510a34492760064927580649275006492748069568a04f82679001502022064966ff502224064d6282628001c882026470287bff826748857701826a1001826838dba807826840826950db9807826b60d4ba087b685050222606236d8268080198893f7b693897a9017b69289788017b686051073e0150222806b06e957a00027ba88800826840017ba89000826838017ba898009568e033826948017ba9a000330750202a065864ff50222c06ac6b50202e06fb67ff50223006a668330032060a063302340628c76750223406c4675022360656626472826870017b87187b6050017b80107b84087b837b62680150223806f25f520bda00826bd801d8b80bc8b000d3a0027b6a3801d8a00cda2b0cc89c0cd89c02826a9001d8a909c89707c8270750223a063266520754f89567202950203c069062ff956a582195ab000782b7e00082b8d80082b9d00082bac800956b584995bc00067bc780007bc8787bc9707bca689568c04f8267700150203e06f864ff50224006705e82628001c8c2027b62800150224206136c64727bc7187b605001826768017b67d801826c48017b6a9001648a7b6268013302380628335f8267080182689800d48707826850d4870752072401502244061b66286501826390018262d801826b0801826c1001d3cb0b826c9800d4cb0b826c50d4cb0b510bb70064a4d8280bc8b00ad34a02d84a0cda2b0cc89c0cd89c0bd83909c89707c8b707502246068060520764f79567c03350204806a061ff9567583195790002829880007b6890018298787b6888018298707b6880018297687b6778018267080150224a06aa6050204c06c96e50224e06806b50205006976e7b6758017b68600150225206c26150205406836e50225606e65d95bc00067bcaa0007bc998007bc890007bc788009568e04f8267700150205806c663ff826748826840d48707826830826920d49808826938826a28d4a909826a6095aa01956b584995bc00067bcaa8007bc9b0007bc8b8007bc7c0003307005028a30050225a069362510891f6826730018378209567003450205c06c660ff95675831957900028298c000956a00017ba8588298b8007ba8508298b0007ba8408297a8007ba74833025e0628b46750225e06b1678268080197880350226006a86350206206dc6d502264064a6c50206606aa6d502268064c5e50206a069e6d50226c06395c826b6050226e0651677bc9d8007bcae0007bc8d0007bc7c8003307205001c876088267900050207006d862ff50227206206d957a025022740690627b6998007b6740017b97189567a03382680001502076060b60ff95675831957c000282ca6082cb5882c95082c84850227806366351070628a3f5956780338268300150207a06dc5fff95675831957b000282ba4082b83882b93050227c06116c7b6800017b6a9000d4a8087b67407b6b487b6860db8b0751070628892b95675831827728027b670801956760338268980050207e06b961ff956b583195bc000282c90882c71082c81882ca2095bc00017bcae0007bc8d8007bc7d00095674033956820337bc9c80050208006f83895675831827a000295780001828bf800828cf0008289e80050228206bc607b67505109ff0150228406dd6b957b00017bb8a80082a8487bb8b00082a8387bb8b8009568003382a9407bb9c0003307502086063c60ff8267f800817756171f128268f80048082033028806289e61502288069b6133008a060a06018267080195781fd87807826c1001c87c09d8c90ada770a826b0001c8ba0a7b6a580197aa3b989b05d4ab0b8267600150228c06fe6082685094c8826a6050228e06c46ac87402d84207c8790cc8cb0b7b6bd801d39b0cd89b0adac70a7b6a388267780195701fd8700b826a8001c8ba07d8a70cdabb0c82639001c8c303973b3b987a05d4ba0a97773b980b05d4b707c847077b677001d847076424502290064b6782670001d87b07826a900050229206976482b282bb08987705948a94876fb86f2b50229406316a826038c8a000d8a00ac8a70282679001d87307826a8801c8a707983a05977c3bd4ca0a987705c8b707956c000182cbd800c88a0ad88a08c88707c8a9097bc960d8a908c887077bc7589517e08477e07bc7900064710182677001d8740782696801d39b08d89b09da8709826c6001d8c007826a5801d3a208d8a20ada870ad3c007d48707da790a7b648801826790017b747b6bd8017b7b087b6078017b70107b6280017b721895675849510a34492700074927f8064927f0064927e806956840508267900150209606ed5fff50229806f15b82628001c882026470287bff826750857701956c000182ca10826840dba807826848826960db9807826b9000d4ba087b686082c898893f7b695097b9017b694898a93f7b69389788017b682882c80898893f7b694097a9017b69309788017b6890005107340150229a063c68957a00017ba868826848017ba870826838017ba8789568c032826940017ba98000330750209c06e75dff50229e063b655020a0068a61ff5022a20635623300a4060a063302a6062856615022a60653615022a806e55b6472826870017b87187b6050017b80107b84087b837b6268015022aa068159520bd300826bd801d8b80bc8b000d3a0027b6a3801d8a00cda2b0cc89c0cd89c02826a9001d8a909c89707c827075022ac06c15f51070628e0f1956780295020ae061d5cff956a582982a74082a83882a93082aa28956b584995bc00077bc7207bc8187bc9107bca0895686050826770015020b0068e5eff5022b206065882628001c8c2027b6280015022b406a96564727bc7187b605001826768017b67d801826c48017b6a9001648a7b6268013302aa0628c9588267080182680001d48707826860d48707520708015022b606b15f282a01826390018262d801826b0801826c1001d3cb0b826c0001d4cb0b826c60d4cb0b510b9e0064a4d8280bc8b00ad34a02d84a0cda2b0cc89c0cd89c0bd83909c89707c8b7075022b806165a51070628f7f09567a0325020ba06345bff95675831957900015022bc060a65826708015022be06555a5020c00674685022c2062b655020c40642687b6758017b6860015022c6066d5b5020c8062e685022ca06915795bc00077bca407bc9387bc8307bc72895688050826770015020cc06755dff826750826848d48707826838826928d49808826940826a30d4a909826a900095aa01956b584995bc00077bca487bc9507bc8587bc7603307a05028c1005022ce06455c5208062840f0826730018378209567e0325020d006765aff95675831957900015022d2066767826738826828d487077b679001826750826848d487077b678801826740826830d487077b678001826808019788035022d406585d5020d6068c675022d806fa655020da065a675022dc06fc575020de064e675022e006e955826b9000d4b707956c000182cb8000d4b80882cb8800d4ba0a82cb9000d4b909956b584995bc00077bc9787bca80007bc8707bc7683307c05001c87608826798005020e2066c5cff5022e406b466957a035022e606245c7b6990007b6740017b9718956780328268c0005020e8069f59ff95675831957c000182ca4082cb3882c93082c828956c00017bc9187bca10d4a9077bc820d4b808d478089888207bcb08d4b707977720d487075107062818ef95676032826820015020ea065159ff95675831957b000182ba2082b81882b9105022ec068d647b6898007bca28d4a8087b67487b6b507bc8db8b07510706284c2595675831827708017b67c00095674032826890005020ee06305bff956b583182b9e80082b7f00082b8f80082ba00017bbac0007bb8b8007bb7b00095672032956800327bb9a8005020f006733295675831827ae000827bd800827cd0008279c8008ea78eb8dba7088ec77b6978018899208599017b6c8001dbc7097b6a88017b6b9001d4ab07db78098267c0008877207b67605109e1015022f20633657b78880082a8487b78900082a8387b7898009568e03182a9407b79a00033075020f4069659ff8267f800817756171f128268f8004808203302f60628f85a5022f606f55a3300f8060a06018267c00095781fd87807826c30015022fa06a15e5022fc06735a82686094c8826a00015022fe063864c87402d84207c8790cc8cb0b7b6bd801d39b0cd89b0adac70a7b6a408267780195701fd8700b826a8001c8ba07d8a70cdabb0c82639001c8c303973b3b987a05d4ba0a97773b980b05d4b707c847077b677001d84707642450220007bf6082679800d87b07826a2801502202070b5e82b282bb08987705948a94876fb86f2b50220407a563826040c8a000d8a00ac8a70282679001d87307826a8801c8a707983a05977c3bd4ca0a987705c8b707956c000182cbd800c88a0ad88a08c88707c8a9097bc960d8a908c887077bc7589517e08477e07bc7900064710182677001d8740782696801d39b08d89b09da8709826c6001d8c007826a5801d3a208d8a20ada870ad3c007d48707da790a7b648801826790017b747b6bd8017b7b087b6078017b70107b6280017b7218510a38956758494927a0074927980749279007492788079568e05082679001502006076159ff50220807655582628001c882026470287bff826760857701956c000182ca30826848dba80782685082c9db980782cb28d4ba087b686050220a0739608268c00098893f7b693897a9017b69289788017b6850510788018267c0008477e07b67000195675831826850017b7848826848017b7850826838017b78589568a031826940017b7960330750200c076957ff50220e078c5f502010070c5bff9518e08488e07b68500150221207c75c330014070a0633021607288b5550221607885550221807e154520b340150221a07ee5ed3ca02d8ca0cda2b0cc89c0cd89c02826b9001d8b909c89707c8270750221c079e54510706287feb9567e02950201e07bc55ff956a582982a7a00082a8980082a9900082aa8800956b584995bc00077bc7c0007bc8b8007bc9b0007bcaa8009568005182675801502020072558ff8260500195000188070182624801c87202d4200788770182683801c87803d8830882674001c887078268d8019589207b693001d8890a82688801c8a8097b692801d8890bdaaa0b82689001c8b804d8840b82688001c8b8087b68800182686801958b20d88b0c82696001c8c908d89809dacc09826a7001c8a909d8a90c826a7801c8ca0a956c00017bca787b62480182ca587ba20850222207365928e7fe8267c00082689800d48707826860d487075207300150222407e758286c01826bc000826c0001d3cb0b826c9800d4cb0b826c60d4cb0b510bc90050222607a25dd3ca02d8ca0cda2b0cc89c0cd89c02826b9001d8b909c89707c827075022280752535107062833ea9567803150202a077054ff956758318278407b6890018278387b6888018278307b6880018277287b6778018267c00050222c077f5350202e079e617b6770017b6850013307ff3308ff8269d8015020300760617b6760017b686801502232078b54502034074c61502236076f5283bb58f9c86b0b95bc00077bcae0007bc9d8007bc8d0007bc7c8009568205182675801502038078856ff826748826840d48707826830826920d49808826938826a28d4a909826a5095aa01956b584995bc00077bcae8007bc9f0007bc8f800956858517b873307405128a90050223a07b059520806284ee9826720018378209567c03150203c078453ff9567583182788000956900017b98588278787b98508278707b98408277687b974833023e0728795a50223e07765a8268c000978803502240076d5650204207a1607b6760017b6878018267c0008a79033307ff3308ff50204407606050224607025150204807546050224a07ef4e826b5050224c074e5c7bb9187bba207bb8107bb7083307605101c876088267900050204e079255ff956760318268b00050205007df52ff956858318287087b67d8018287107b6790018087187b6788019517e0847ce064c182686895870450225207535ac88b0b64c87b6c80017bcb187bca107bc9087bc79567403150205407bf54ff956758298077fc0797772095685831828882698801d49707956a5851826990017ba9308269d8017ba9287ba8407ba738956880518267800150205607f854ff956720318268a800502058074552ff956758298272c8078273d0078274d807827ae007826768957b05d87b0c826870c8c807d88708dacc0882698000c89808d8980c826978c89c0c956958517b9c607b98587b97507b9b487b9a80007b94787b93707b92689567a0519568c05150205a078454ff956700318268a00050205c07d151ff956758298272a8078273b0078274b807827ac007826768957b06d87b0c826870c8c807d88708dacc0882698000c89808d8980c826978c89c0c956958517b9ca0007b9898007b9790007b9b88007b9ac0007b94b8007b93b0007b92a8009567e0519568005250205e070954ff9517e0847ce064c182686895870750226007f258c8b8087b6cd8017bc8187bca107bc9087bc79567e03082688800502062073051ff956a582995ab000750226407165d8e777b6790019567c0308268d801502066073953ff956a582995ab000782b76882b87082b9800082ba78847700ff826b9001d4b707956b58517bb9e0007bbad8007bb8d0007bb7c800956820528267d801502068076e53ff50226a07b65d957a08d87a07826870c8780bd88b08da770882678000c87808d87807826c78c8c7077b6740017b97187b6838017b98107b6b48017b9b087b69a8007b6a50017b9a9567a03082685850206c077550ff33026e079568582901958b000782b96082ba5882b75082b848956b00017bb7187bb910d497077bb820d4a808d478089888207bba08d4a707977720d4870751070628e9e59567803082682001502070072250ff95675829957b000782ba4082b83882b930502272075e5b7b68b0007bca28d4a8087b6790007b6b98007bc8db8b0751070628641c95675829827728077b67c000956760308268a80050207407ff51ff956b582995bc000782c90882c71082c81882ca2095bc00067bcae0007bc8d8007bc7d00095674030956820307bc9c800502076073e2995675829827a000795780006828bf800828cf0008289e8008ea78eb8dba7088ec77b6980018899208599017b6c8801dbc7097b6a60017b6b7801d4ab07db78098267c0008877207b67a00051095e0295675829956a000182a850957b00067bb8a80082a8487bb8b00082a8387bb8b8009568003082a9407bb9c0003307502078075350ff8267f800817756171f0c8268f800480820019517e08477e07b675801647183793308208267f0000a068267c00095781fd87807826c3001c87c09d8c90ada770a8262b000c8a202972a3b989b05d4ab0b8267580182731897993b827a10988805d498076f346fa98268a00094c8826a000194a8948b9487c847077b67d801d84707c8790cc8cb0bd39b0c7b6b9001d89b0adac70a7b6a88008267800195701fd8700b826a8801c8ba07d8a70cdabb0c82637801c8c303973b3b987a05d4ba0a97773b980b05d4b707c847077b677001d84707c8790bc8ab0bd39b0a7b6b6801d89b09daa7098267b000d87207826a2801c8a707982a05977b3bd4ba0a826b580182b282bb08987705948a94876fb86f2b50227a071f5a826c8800c8ac0c7b6c8001d8ac0ac8a7077b67880182677801d87307826a6001c8a707983a05977c3bd4ca0a987705c8b707c88a0ad88a08c88707c8a909956b00017bb960d8a908c887077bb7589517e08477e07bb7786471018262d80182677001d87207826c900182696801d39c08d89c09da87098268800182676001d87804826b8801826a5801d3ab03d8ab0ada340ad38707d43707da790a826778017b727b7c087b78107b7b18510a6595675851492700014927f8004927f0004927e800956840528267780150207c07d74fff956a000182a8d80095880188870182a99000c879097ba8d8007ba99000d4980788770182a88000c88707d8870882a98800c889097ba988007ba78000284eff8267a000857701956c000182ca3082689000dba8078268980082c9db980782cb28d4ba087b68a0008268b00098893f7b69900097b9017b69880098a93f7b69789788017b68688268c00098893f7b69800097a9017b69709788017b6898005107ca058267c0008477e07b6700019567582982685001957a00067ba868826848017ba870826838017ba8789568c02f826940017ba98000330750207e078f4dff50228007b255502082073251ff9518e08488e07b68500150228407ed52330086070a063302880728b14b50228807ae4b50228a07074b520be60550228c071455d3ca02d8ca0cda2b0cc89c0cd89c02826b9001d8b909c89707c8270750228e07c44a51070628a5e19567402a50209007e24bff956a582982a7000182a8f80082a9f00082aae800956b585195bc00017bc7207bc8187bc9107bca089568605282675801502092074f4eff8260500195000188070182624801c87202d4200788770182683801c87803d8830882674001c887078268d8019589207b693001d8890a82688801c8a8097b692801d8890bdaaa0b82689001c8b804d8840b82688001c8b8087b68800182686801958b20d88b0c82696001c8c908d89809dacc09826a7001c8a909d8a90c826a7801c8ca0a956c00017bca787b62480182ca587ba20850229407604f28ebfe3308b00102838833070128c1043308b00102838833070128b4043308b00102838833070128a7043308b001028388330701289a043308b001028388330701288d043308b0010283883307012880043308b0010283883307012873043308b0010283883307012866043308b0010283883307012859043308b001028388330701284c043308b001028388330701283f0495670010492790f895670010492788f8140700000000a079c308956800107b8798f8330780009568ff079588810095690010492980f8502096077b4bff95670010492778f895670010492770f895680010492860f820330784009568ff0795886195690010492968f850209807484bff95670010492758f895670010492750f895680010492840f8133307a4009568ff0795884195690010492948f850209a07154bff3a077801023a08800102956900107b9738f8956700107b7830f81407000000000073646e956800107b8728f83307c4009568ff0795882195690010492920f850209c07cf4aff3908a401025628ff00172003a4010200013307b0010283788000280c3307b0010283788000013307013309640a08014926f0074926e8074926e00733029e07140700000000717b484e019568e0077b67f80733075020a007744aff4926d8074926d0074926c007323307049568c0074926c8075020a207554aff3908a4010256183f112003a40102403308b0010228083308b001020183883307013309240a08013308b00102838833070128a8023308b001028388330701289b023308b001028388330701288e023308b0010283883307012881023308b0010283883307012874023308b001028388330701286702492a7802492a70021407000000002b20fc8d7ba780029568c013492a680233075020a407b949ff3908a4010256181f0b2003a4010220013308b0010283883307013309040a080152478be3fdf2b20195675851492700044927f8034927f0034927e80395670050837740050a0b01956a585195ab000382b7f80082a8000482b9f00082bae800d49808d4a707d48707520706281c103308b00102838833070128c5013308b00102838833070128b8013308b00102838833070128ab013308b001028388330701289e013308b0010283883307012891013308b0010283883307012884013308b0010283883307012877013308b001028388330701286a013308b001028388330701285d013308b0010283883307012850013308b0010283883307012843013308b0010283883307012836013308b0010283883307012829013308b001028388330701281c013308b001028388330701280f013308b0010283883307012802013308b00102838833070128f5003308b00102838833070128e8003308b00102838833070128db003308b00102838833070128ce003308b00102838833070128c1003308b00102838833070128b4003308b00102838833070128a7003308b001028388330701289a003308b001028388330701288d008267c0008268b000d487078268a000d4870752078d015022a607cf4a28af015247a618507150956758494927200349271803492710034927080395670050837760fc3300a8070a0b330758493302aa07288851330758495022aa07815152070628880e3308b001028388330701281d3308b0010283883307012811838833070133093300ac070a08280b33093300ac070a0801826bc000826c0001d3cb0b826cb000d4cb0b826ca000d4cb0b510bb3005022ae07154fd3ca02d8ca0cda2b0cc89c0cd89c02826b9001d8b909c89707c827075022b007c54451070628a6db9567a02f5020b207e345ff95675829957900065022b407b94f8267c0005022b60704455020b80723537b6770017b6850013307ff3308ff8269d8015020ba07e5527b6760017b6868015022bc0710465020be07d1525022c007f44383bb5801c86b0b95bc00017bca407bc9387bc8307bc72895688052826758015020c2071148ff8267900082688800d48707826878826968d4980882698000826a70d4a909826a980095aa01956b585195bc00017bca487bc9507bc8587bc7603307a05228b9005022c4073b4b52080628d9da826720018378209567e02f5020c6070f45ff95675829957900065022c8070052826778826868d487077b6790018267900082688800d487077b67880182678000826870d487077b6780018268c0009788035022ca07ee475020cc0722527b6760017b6878018267c0008a79033307ff3308ff5020ce07e1515022d00783425020d207d5515022d4077040826b98005022d607ce4d95bc00017bc9787bca80007bc8707bc7683307c05201c876088267a8005020d8070d47ff8267b8003300da070a03018269c80082970881981082995022dc0727449569582949294006959b00067bb8387bb7309568802f7bba2833075020de076445ff3302e00795685829014928200649281806492808060364893307209568602f492910065020e2073a45ff8267f800817756173f128268f8004808403302e4072835495022e40732493300e6070a063302e807284d4c5022e8074a4c826ad800956c58297bcae005826ad0007bcad805826ae0007bcad005826ae8007bcac8057bc9000695c900057b98f8007b97f0009567402f9568202f7b9be8005020ea07db25956758514927a001492798014927900149278801049567002f9568e0525020ec079145ff9567582995780005828cc000828ab8008289b0008ec78ea8dbc70864abd4ca07649a8e99db780951090628fe0f956758298277a8057b67d8019577018878017b6a9001c8a80895695851959a00017ba7c800d487077ba8d0008877017b6b8801c8b7077ba7d800d8b7077b6c7801c8c7077ba7e0004929c0014929b8014929b001492aa8000495670053956820535020ee077445ff9517e08477e07b67800164719567582982687801957900057b9840826888017b9838826890017b98308268d8017b9828492760054927580549275005647b9567c02e9568a02e9569802e492b4805045020f007381a95685829958b000582b7a0007b67900182b798007b67880182b790007b67780182b788007b67d80182b77882bc800082b96882ba70826880017b87107b8c187b897b8a089567602e5020f2075844ff95675829957900058298187b6860018298207b6858018298087b6850018297107b674801826cd80198c73d82697801979803d4870798983d826a880197a903d4980898a93d826a900197aa03d4a90997cc037b6c88015022f40738437b6b700183c9807b6940018267e8008268e0005020f607154f7b6738017b6890018267d8018a79037b6978018267d0008268d8005020f807f44e7b67d8017b683001826888018d8980007b6928018267e8008268e0005020fa07ac4e826ad801d47a0a82698801889b80007b6b680182673801dab70a8267d000da970a7b6ad80182673001d4780882679001dab7088267d800da97087b6890018267e8008268e000826978015020fc07824e64898268680193879389826a70018268900194a87b6890018268d80194a87b68d80194a97b69380194a77b6730013307ff3308ff826928015020fe071e4e7b6718017b6828013307ff3308ff82697801502000082c4e7b6778017b68200182681801d487077b6718013307ff3308ff8269400150200208094e826a680182691801dba907826b200182692801d4b909daa809826888019387ff9389ff826c780193ac93ab8598ff8577ff85b9ff85caff826b700194b7ff94b8ff94baff94b9ff956c000182cb48d2b90982cb50d2ba0a82cb58d2b80882cb60d2b70782cbd800d4b70782cb9000d4b80882cb30d4ba0a82cb38d4b909956b58517bb9f0017bbae8017bb800027bb7f8019568405382c7800050200408af42ff956758298268d8007b7800058268d000957a00047ba8f8008268e0007ba8f0009568402e8269e8007ba9e8003307502006081041ff3302080895685829014928e0044928d8044928c8040264893307209568202e4929d00450200a08e640ff8267f800817756173f128268f80048084033020c0828e14450220c08de440a068268d8018287187b6778018287107b6770018287087b67680182877b6760019567002e33084050200e085f3fff95685829958c000482c7c0007b67800182c9b8007b69880182cbb0007b6b900182caa8007b6ad8017bc7a0007bc998007bcb90009567e02d7bca8800330010083302b008280645956a000182a7800082a89000d4870782a9880082a8d800502212089c4551070628add4956758294927800449277804492770049568c02d492768048267d801502014080c40ff8267b800330016080a0301956a000182a7880082a88000d48709140700000000010000007ba7501407e0ffffff0000000082a8d800d8780782a8900094877ba95894975207062841d450221808c83fd479099888208267d801837720956b5829492b600495bc00047bc8587bc9509568a02d7bca4850201a08903fff95670050837760030a0701956900018297509577c08298d800d87807829890009487829858948752070628e1d395675851957c000282c90882c81082ca1882cb208267d801837740956c58297bcb400495cb00047bba387bb8309568802d7bb92850201c08283fff9567602d33084050201e08e03dff95675829827920047b694801827818047b684001827b10047b6b3801827a08047b6a50014927e0034927d8034927d0034927c803407b7900047b78f8037b7bf00364799567402d9568202d7b9ae803502020087e0f956a000182a74882a838d4870782a94082a8505022220813445107062824d3956958294929c0034929b8034929b0039568002d4929a803148267500150202408823eff956a000182a74882a840d48707140800000000010000007ba8301408e0ffffff0000000082a950d8890882a9389498947852080628c9d2826750018377203a087800023a09800002956a582995ab00037bb8a0007bb998001408000000006e6f69747bb890009568e02c492a8803502026080d3eff956900018297309577a08298d800d8780782989000948782985894875207062869d2826760016f777b676001826768016f777b676801826770016f777b677001826778016f777b6778018267d801837760956a58298268500195ab00037bb868826838017bb870826840017bb8789568c02c826948017bb98000502028088c3dff8267800195685829958900037b9740826788017b9738826790017b97308267d8017b9728826760017b9760826768017b9758826770017b9750648a9567a02c9568802c826978017ba9480350202a0836229567602c33084050202c08f33bff33022e089568582901958b000382b92082ba1882b71082b808956b00017bb790007bb98800d497077bb8d800d4a808d478089888207bba8000d4a707977720d487075107062863d195695829492900034929f8024929f0029568402c4929e802608267d80150203008c13cff8268d801958760d88708826a9001502232085c4782688001c88a0ad88a08826b8801c88b0b95685829958c00027bc990007bc788008267b8017bc7c0008267c0017bc7b8008267c8017bc7b0008267d0017bc7a8007bca9800648a9567202c9568002c9569e02b7baba00250203408d209956a000182a7800082a88800d47808140700000000010000007ba7c8001407e0ffffff0000000082a9d800d8790782a9900094977ba8d0009487520706288ed0956958298290c8028292d0028294e0027b64b801829bd8027b6bc001826cd801d8c0037b607001826a9001d3a208d8a2097b62780164a7da8309826a8001c9ab08d8ab0a826b8801c9b40bc9ab0bd8980ac9ab0bc99808c97209c93909c9c00a83c720956c58297bca680295ca00027ba9707ba8789568c02b7bab8000502036088c3bff3302380895685829018267b801958900027b97208267c0017b9718826778017b9710826770017b9708826798017b97408267a0017b97388267a8017b9730648b9567a02b9568802b9569602b826ab0017bba280250203a08b40895685829958900028297607b67b0018297587b67a8018297507b67b8018297487b67c00195670050837780030a0701956900018297c8009577c08298d800d878078298900094878298d0009487520706285dcf95675851957c000282c92882c83082ca3882cb408267d801837740956c58297bcb000295cb00017bbaf8007bb8f0009568402b7bb9e80050203c08a13aff8267b8000a03018262c0018260d801d80203826c90018268b801d3c80ad8c809daa309826a8001826ba801c9ab07d8ab04826b8801826ab001c9ba0bc94b0bd8970ac9ab0bc99709c9c808c93807c90208d4b707d4980ad47a0ad4970798aa20977720d4a70751070628b3ce826ac80082a70881a91082aa6f7b97b7206f99989920d4790298bb206faa97a920d4b90398a4203a0b8800023a0c9000023a079800023a09a00002956a58297babe00195ab00017bbcd8007bb7d0007bb9c800492aa0018267d0007bb7b8008267e0007bb7b0008267e8007bb7a8007ba498017ba390017ba2880164ac9569202b956a002b956be02a8267d8007bc7c0018267d80150203e08ce3bff9567c02a330840502040085138ff956a582995ac000182c7800082c87882c97082cb6850224208f63e51070628e8cd64ba8267e80095695829959c00017bc7488267e0007bc7508267d0007bc7589568a02a8267d8007bc76064b77b6ad8013300e601282f39ff8267d8018177330823ac781e3308b001022896f18267d80181775617031a053308b001022883f195674046330044083302e408285844956758418278f0047b68d0018278e8047b68d8018077f8047b67c801502046085532956900018297d8008298c800d487078298d000d487075107d0051407ffffffff000000007b67c00195675851492720044927180449271004492708049567204695686055502048088139ff95685841958a000482a9d8007b69a80182a7d0007b67b80182a7c8007b67b00182a7e0009898209788208269c801d498089569585149294004492938044929300449292804826ad001959b00047bba50826ad8017bba487bb7607bb858956780559568a05550204a088d39ff956c000182c7b0008477ff82c9b8008498ff82c9c00082caa800d2a909956b5841492b800482cac8007bba780482cad0007bba700482cad80095bc00047bca68492ba0047bc998007bc890003a082000023a092800023a0a3000027bc788007bc8c0007bc9b8007bcab00064b83a0738000295690046956ae045956bc0457b87a8043307330850204c08cb39ff3308b00102287f60ff95675819492738054927300549272805647933024e08140700000000717b484e019568801e7b9740053307502050085b37ff956858194928200549281805492808054164893307049568601e49291005502052083637ff8267d001817756173f0c8268d001480840013307013309248268d8010a080149293803492930034929280333025408140700000000717b484e01956880147b974003330750205608eb36ff330258089568581101492820034928180349280803416489330704956860144929100350205a08c136ff82672001817756173f0c82682001480840013307013309248268280133005c080a08019567582149275807492750074927480750225e088c398388a0f8c868087b9760073307502060087436ff330262089568582101492840074928380749282807416489330704956880284929300733008408284636ff4922b8004922b0004922a800140700000000717b484e9568ff07958801027b27c0003307502064081e36ff9568ff07958859014928a00049289800492888003164893307049568ff079588e1014929900050206608f135ff82679800817756173f0c82689800480840013307013309248268a0000a0801644a8267d80164487b6a5801502068086f39ff83788169580133070a08288665ff956758214927b8074927b0074927a80750226a089f38838800f9c868087b97c007330750206c088735ff33026e0895685821014928a00749289807492888074164893307049568e0284929900733008408285935ff95675829491718491710491708502270084d38838860f9c868087b97203307502072083635ff33027408956858290149084918f84918e8416489330704956840294919f033008408280d35ff956758294917784917704917685022760801388388c0f9c868087b978000330750207808e934ff956858294918604918584918484164893307049568a0294919503300840828c434ff956758294927d8004927d0004927c80050227a08b537838820fac868087b97e000330750207c089d34ff956858294928c0004928b8004928a8004164893307049568002a4929b00033008408287434ff9567582949273801492730014927280150227e086537838880fac868087b9740013307502080084d34ff3302820895685829014928200149281801492808014164893307049568602a49291001502084082334ff8267f800817756173f0c8268f800480840013307013309248268f0000a083300860828762d50208608732d95675849492740034927380349273003492728039567401e9568804c50208808c734ff95685819958a000482a9f8007b69c80182a7e8007b67d80182a7f0007b67d00182870005989820978820956958494929600349295803492950034929480349297003492968037b9780037b9878039567a04c9568c04c50208a08e234ff956c000182c7c800977720987720956a5819492aa004492a9804492a9004492a8804492ac0047ba7b80482c7d0007ba7b0043a072000023a082800023a0930000282cbd80095ac00047bcba8007bc7e0007bc8d8007bc9d00064a83a073800029569201e956a001e956be01d7b87c8043307330850208c083235ff3308b0010228e65bff956758414927580449275004492748046479140700000000f7bd4f1e9568a0457b976004330750208e08c732ff956758414927400449273804492730046479330704956880454929280450209008a332ff3908a4010256183f122003a40102403308b001022856e83308b00102284ee8951110ff7b10e8007b15e0007b16d8009515f0008411f0828c10828b18828a0882887b1a287b1b18d4ab0bd4c80ad4ba0a98aa207b1c20d4cb0b97bb20d4ba0a520af1017b17088297187b17688296108297087b176082977b17589517b0007b181050209208e130ff821758d46709821868821a60d4a808d489099899207b1650d46808978820d498085208a7018219c800821ac000821bb8008218b0007b18307b1890007b1b387b1b98007b1a407b1aa000951890007b19487b19a800647650209408bd31ff821768821850d478081407e0ffffff00000000d87609821a6094a9948951094d01821820821918d49808821910d87907821a2894a7948751073301646c821630821a40d4a607821848821b38d4b808d48707987720d4a808978820d4870752070c0183c7208398207b1828646850209608f934ff7b1720821728646850209808ea34ff6478821720646950209a086d2fff821758c86707d86708821960821b3850229c081133821850821a40c8a808d8a80a821c68821648c86c0cc8ca0ac88b0bd88b08c8a808d4b808140ae0ffffff00000000d8a70a949a948a510a8f00837720492188004921800049117895187049117050209e08c330ff82163095661f1407e0ffffff01000000d26707821858c88707d88708821a605022a0084d3b821850c88a0ad88a08821b68c8b808957b20d87b07c8790cd89c09da7709c8a909d8a907c887078218087b8b7b8c087b89107b8718955110ff8210e8008215e0008216d8009511f0003200008e72883be0fe85bb01db720bd4a908db8c0b520b22953820015022a40879335020a6082c30ff95519082106882156095117032005022a808fd335020aa081130ff49111849111049014133070464184911085020ac08f92fff3908a4010256183f0b2003a4010240013308b0010283883307013309243300ae080a083302b0082883345022b00880348e72883b8085bb01db720bd4a908db8c0b520b22953880005022b208f1325020b408a42fff95519082106882156095117032005022b60875335020b808892fff49111849111049014133070464184911085020ba08712fff3908a4010256183f0b2003a4010240013308b0010283883307013309243300bc080a0801951170ff7b1088007b1580007b1678951590008411f064728289827408828c088273959a1fd89a00c80c0984aae07b1308c8a303d8a30bc8490ac8ba0ad39a06d89a07da6b07822b18d8c90c828610822210828818da000cc86c0cd86c06c82c09c89707d8c90cd89709c8b808c86808c8c808c8980c8ec88e79dbc809d4c7088ea6db8906520658821808d88308d34a09d84a06da9806d82708d3bc09d8bc0bda980bd32708d49808da860b520b317b13507b1a587b17603307409518507b1c685020be08852eff955170ff82108800821580008216789511900032004911404911384911303302c008140700000000717b484e019518307b174833075020c208492eff491128491120491110413307049518104911185020c4082f2eff3908a4010256183f0b2003a4010240013308b0010283883307013309243300c6080a0801951120fe7b10d8017b15d0017b16c8019515e0018411e08280829b088284088296950a1fd80a02c8240c7b1650d86a03d3bc0a7b1b60d8bc0bdaa30b828610d84c0ada220a829c18828218829310c86a0ad86a08c82808d3c8097b1c40d9c808d83a0cda9c08d33a0ad4a909db980b510b0d037b1348d460097b14707b1258d42408d489099899207b1668d46808978820d498085208e7027b17187b107883088317a0017b18200a01018219b801821ab001821ba8018e978ea8db97087b19b0007b1aa800d49a078eb9db78095209b6028218a00195871f7b189800d88708c8b8088488018477e09579207b1928d87907c878097b1930d88908da77087b1838951780013308407b1bb8005020c808bf2bff821798017b17a00082169001821988017b199000821a80017b1a8800492158018218287b1840017b1778017b1670017b1968017b1a60018217307b17480195176001951840018219387b1950015020ca085ffd821788008218a00082199000d48909d46708d498089888207b168000d46909979920d498085208f101821698007b1620018218b8007b1828018218a8007b183001951820018219b0007b1938015020cc08522cff821778c8670ad87a098214708217b800c84707c89707d3470bd84708dab9088210688219a800c8090995ac20d8ac02c8270b821a50d8ca0c821a60d3ab06d8ba0adb6a0cd8090a8213588216b000c83606c86a0ac89808d89809c8a909d87b07da2207c88707d88708c89808821a40d3a809d88a08821b48d87b0ada9a08d3b707d49707db780c821ab800520cb001d430071408e0ffffff00000000821978d889089448947851081c018219a800821c9800d49c078218b000d4a808d48707987720d49808978820d487078219880082169000821a8000821ba0005207e700d4ba071408e0ffffff000000007b1878d88908946894785108cc008217208377207b177083972064c864965020ce08f12eff8377811898008219700a0182129800c86202d862088219b80082179000c87909c88909d3790ad8790bdaa80b8218a800821a8000c8a808d8a80a821cb0008216a000c86c0cc8ca0ac88b0bd88b08c8a808d4b808821a78d8a20a949a948a510a53647683272049211801492110014921080195180001492100015020d008c02aff8217188218a0007b7818821880007b78107b7608821888007b78955120fe8210d8018215d0018216c8019511e0013200003308b0010228794921f0004921e8004921e0003302d208140700000000717b484e019518e0007b17f80033075020d4085c2aff4921d8004921d0004921c000413307049518c0004921c8005020d6083d2aff3908a4010256183f0b2003a4010240013308b0010283883307013309240a083308b0010228083308b0010201838833070133093300d8080a083302da082859355022da0856353308243300dc080a013302de0828b0305022de08ad30510a0b5022e008cd3232003308b00102838833070133093300e2080a083302e4082819355022e40816353308043300e6080a013302e8082870305022e8086d30510a0b5022ea088d3232003308b00102838833070133093300ec080a08019511e0fe7b1018017b1510017b160801951520018411e064167b673882977b67488297087b67408297107b67508297187b6758828718828910828a0882887b67307b67f8007b69287b69f0007b6a207b6ae8007b68187b68e0009567c0009568e0005020ee080c2aff8267d8008262c0008269d000826ac800826858d3870bd87808826750d8970cdbb80c826840d38a03d8a80a826848d82808db3a08d39707d4b707db7c085108cf008267187b67608267207b67688267287b67709568608267307b677833075020f008b528ff3908a4010256181f0b2003a4010220019517e08479e07b693064913307b00102837783993308200a06826a3082a782a80882a91882aa106f726f886f996faa826b40c8ab0b826348c89303d89309c89b0bd3ab07d8ab0ada790a826750c88707c87a0ad87a09826c58c8c202d88707c82707c8970782683833094918384918304918284918207b837b8b087b8a107b87189551e0fe8210180182151001821608019511200132004926b0004926a8004926a0003302f208140700000000717b484e019568a0007b67b80033075020f408e227ff4926980049269000492680003233070495688000492688005020f608c327ff3908a4010256183f0b2003a4010240013308b0010283883307013309243300f8080a08019511a07b10587b15507b16489515608411f0828910828c08828b82881897923f98ca01d42a02978a3f989901d49a0a97cc3f98b901d49c0c98830184bb019ab888b60184c97fd2a804d2280adbbc09d2380b88982094a8d4b40c94c8ab86167b797b7a087b74107b7b185022fa08a13132005022fc080c2b5020fe082027ff4911184911104901223307046418491108502000090827ff3908a4010256183f0b2003a4010240013308b001028388330701330924330002090a08019511a0fd951900027b90587b95507b9648951560028411e064167b6710828718828910828a0882887b67b0007b6738027b69a8007b6930027b6aa0007b6a28027b6898007b68200295670002330840502004095425ff956800028287187b67188287107b67208287087b672882877b67309567e00195682002502006095627ff956b000182b7f80082b8f00082b9e80082bae0007b6790007bb7b8007b6888007bb8b0007b6980007bb9a8009567c0019568a0017b6ab8007bbaa0005020080989fe826730826818826928d48909826a2050220a09413152084903956c000182c9d80082cad00082c8c80082cbc0007b6b607bcb80007b68707bc888007b6a687bca9000956880017b69787bc9980050200c09ce25ff826ab80084a70152070101826720826818d487071408e0ffffff00000000826b30d88b08826928949894785108df0284a800ff83b720826a8000956900017b9a087b98826888007b981095680001826a90007b9a1850200e097225ff330433033302826768826860d48707826878826970d49808d487078e779777057b67b800018268b800958720d88708c88409d8490ada880ac83a0ad83a08c8820b8268307b68e0007b67c0008267287b67e8008267207b67f0007b69c8008267187b67f8007b6ad0009567e0009568c0007b6bd80050201009b0f58267108268187b78188268207b78108268287b78088268307b789551a0fd9517000282705882755082764895116002320082679800956900017b97608267a0007b97688267a8007b9770956860018267b0007b97783307502012099924ff9517e08477e07b675864713908a4010256181f0b2003a4010220019517e08479e07b69b00064913307b00102837783993308200a064926b800330433033302826cb00082c7188268309589207b6950d88908826928c8890a7b6a48d89a0bda880b82c81082c90882ca6f776f886f906fa9826c58649a7bc91864097b6980007bc9107b6890007bc80864797bc7826720c87b0b7b6b40d87b07826818c887077b6738017b6a88007b6998008267608268b800d87807826970d39408d89409da8709826b68d8b307826a78d3a208d8a20ada870ad3b307d48707da790a510a70fe9567400164c87b62b0007b63a8007b64a000502014099224ff8268508267b800c88707d88708826b488269a000502216098025826a408268a800c8a808d8a802826c38826ab000c8ac0cc82c0a50221809c51f5208a200956c000182c95882c85082ca4882cb407bcb207bca287bc830956820017bc93850201a093b23ff826a980095aa0188a70182649000c87404d44a0788770182688000c87803d8830882678800c887078268b800958020d88009826ba000c89b08d8b80bda990b8269a800c89b0bd89b098262b000c8920264497b699000826c587bc90864a97bca7bc310647a7bc7187b6380007b60b800648464b328d1fe00510719955120ff8210d8008215d0008216c8009511e00032009517a00033084050201e096221ff50222009a72952076550222209832c502024098622ff502226098f2851074f82171883770449117849117049116020951860491168502028096022ff50222a091d2c5107298216188367244911584911504911400e95184049114850202c093a22ff50222e09fc2a520704008216188367443a088801024911287b183814080000646e756f66207b1830951820491120502030090522ff330864646750203209a925ff8378330701330964330034090a0833023609284e29502236094b29510719955120ff8210d8008215d0008216c8009511e00032009517a000330840502038097d20ff50223a09c22852076550223c099e2b50203e09a121ff50224009aa2751074f82171883770449117849117049116020951860491168502042097b21ff50224409382b51072982161883672449115849115049114015951840491148502046095521ff50224809172a520704008216188367443a089001023a099801027b18387b1930140800000072656e776f7b182895182049112050204a091b21ff330864646750204c09bf24ff837833070133096433004e090a0801951158ff7b10a0007b1598007b1690007b1768829c7b1c788296088287107b176082921098c73d976b03d47b0b97c7038ebc887500016473855701dbbc076475828b187b1b5882991898663d972b03d46b0b828c7b1c508288087b184898273d979903d4790c82a7107b17800082a7187b17880082a782a8087b18088eca8eb9dbca09d4cb0bdbb9057b157064368339807b194064757b171050205009852c7b17307b18388217788a79037b1978821780008218880050205209682c7b17187b188d6980007b19206457821508645850205409292c821918d4790964677b162888668000821a30da6a09821a8000da7a097b1980008219d49808821938da690882198800da79087b1888008217106458821978502056090b2c64797b161893699368821a708217880094a77b1788008217800094a77b17800094a87b183894a97b19303307ff3308ff82192050205809ac2b7b17107b18203307ff3308ff82197850205a09bd2b64756486821710d457077b17783307ff3308ff82194050205c09a12b821a18821978dba907821920d46909daa8098218289387ff9389ff93a593a68598ff8577ff8569ff855aff821b7094b7ff94b8ff94baff330cffdbbc09821b48d2b909821b50d2ba0a821b58d2b808821b60d2b707821b8000d4b707821b8800d4b808821b30d4ba0a821b38d4b909821b687bb9087bba7bb8187bb7108210a00082159800821690009511a80032009511e0fd951900027b90187b95107b9608951520028411e064168289187b6980008289107b6988008289087b69980082887b689000827a1882791082780882777b6a587b6ab8017b69607b69b0017b68687b68a8017b67787b67a001956780019568a00150205e09751fff95670001827c9800827b9000827a88008ec78eb8dbc708d4cb078ea9db78095209ea02826780017b6750957701887801c8a808d48709889901c8b9097b6a48d8b90ac8ca0a7b67c0017b68c8017b69d0017b6ad8019567a0019568c0017b6b407b6c3850206009831fff9517e08477e07b677064718267387b6718018267407b6710018267487b6708018267507b6700018267587b6738018267607b6730018267687b672801956740019568200195690001826a787b6a20015020620947f4826778017b6778826770017b6760826768017b6758826760017b676882675001826b580182694001826a48018268707b87107b8b187b897b8a089567e00050206409711eff8267f0007b67508267f8007b67488267e0007b67408267e8007b6738826c6898c73d826958979803d4870798983d826a6097a903d4980898a93d826a7897aa03d4a90997cc037b6c78502266095e1d7b6b6083c9807b69308267900082689800502068093d297b67187b68208267688a79037b6968826788008268800050206a0920297b67587b68108268788d8980007b6928826790008268980050206c09dc28826958d47909826778887b80007b6b58826a18daba09826a8800da7a097b698800826910d49808826920dab90882698000da79087b688000826790008268980082696850206e09b928648982685893879389826a608268800094a87b6880008268880094a87b68880094a97b69980094a77b6790003307ff3308ff8269285020700958287b67187b68283307ff3308ff8269685020720969287b67687b6820826818d487077b67183307ff3308ff826930502074094b28826a58826918dba907826b20826928d4b909daa8098268789387ff9389ff826c6893ac93ab8598ff8577ff85b9ff85caff826b6094b7ff94b8ff94baff94b9ff826b38d2b909826b40d2ba0a826b48d2b808826b50d2b707826b8800d4b707826b8000d4b808826b9000d4ba0a826b9800d4b909956b00017bb9e8007bbae0007bb8f8007bb7f0009568e00182677050207609fb1cff9551e0fd951700028270188275108276089511200232004926d0004926c8004926c00033027809140700000000717b484e019568c0007b67d800330750207a094e1bff4926b8004926b0004926a000413307049568a0004926a80050207c092f1bff3908a4010256183f0b2003a4010240013308b00102838833070133092433007e090a0801951100fb951900047b90f8007b95f0007b96e800951500058411e064168289187b69c8008289107b69c0008289087b69f00082887b68f800827a1882791082780882777b6aa0007b6ab8037b69a8007b69b0037b68b0007b68a8037b67e0007b67a003956780039568a003502080098b1bff95670003827c9800827b9000827a8800d4cb0788a80194785108c90c826780039518e08488e064817b67e8009577018879017b6ad000c8a909d4970a88aa01c8ba0a7b6bd800d8ba0b7b6cb800c8cb0b7b89087b877b8a107b8b189567a003502082099d1bff8267a000956900037b97788267a8007b97708267b0007b9768956860038267e0007b9760330750208409061aff3309a401023907a4010256171f0b2003a4010220017b69209517e08479e07b69e00064913307b00102837783993308207b67280a06018268e0008287828908828a18828b106f746f986fa36fb9951be084b0e06401826be80098ba3e8267d000977c02d4ca0a97bc02c8a90bc8c302d8320ac8ab03d3930bd89309daba09826cd80098ca3e826bb80097bb02d4ba0a987b3e97cc02d4cb0bc8a404c88b0bc89b0ad88b07d8ba09c84707c8970b8268f800826cc000d4c8048269f0008267c800d47909d49407987720d4c909979920d497077b63e0007b03087b62e8007b027b6ad80064097b9a107b6bd0007b69b8007b9b1852075a0b9567400350208609ca17ff826740037b67b000826748037b67a800806750037b67a000956720038268b80050208809cf19ff80673403977720956a000382a8388269a000d497078269a8007ba9c8008269b0007ba9c0007ba8d8007ba7d0009568c0038267b80050208a090b1aff8268f8008267c000826ac800d47a0a140700000000010000007b67c0001407e0ffffff00000000d878078269f00094977b6ac80094a75107b20a140700000000ffffffff7b67b8001409ffffffff000000007b69a0008388209567000350208c090317ff8267000382680803826910038477ff7b67b0008488ff7b68a8008267a000d297077b67a0009517e08472e064218267e8009577018878018269e000c8890cd4c709889901826ad800c8a909d8a90a826bd000c8ba0a6428642b7b6b98007bba187bb9107bbc087bb79567e00250208e09bc18ff8267f8028268f0028477ff8269b800d298088269a000d498088269a800956a00037ba9e8008269b0007ba9e0007ba7f8007ba8f0009568e0038267980050209009f018ff8268f8008267c0009577c0d878078269f00094978269c80094975107b3098388409567c002502092092016ff8262c0028263c8028269d0028267e800957a02d87a0b8267e000c8b708d87807dabb07826bd802956c00047bca7bc8088268d800c887077bc710d887078268d000c887077bc7187bcb387bc9307b6328047b6220049567000495682004502094096018ff9517e08479e064918267e800957a03d87a078268e000c8780bd88b08da77088267d800c87808d87807826cd000c8c7077b67407b97187b68387b98107b6b98007b9b088268f8001407a0ffffff00000000d87807826bf00094b7826bc80094b77b69487b6aa0007b9a5107d4088388609567a002502096094115ff956b000282b9b80082bab00082b7a80082b8a0007b6788007b698000d49707d4a809d479099899207b6a78d4a707977720d4970752078e08956780027b68900050209809fa14ff95670002827a980082799000827888008ea78e9bdba70b7b68588e877b69607b6a50d4a9097b67307b6b707b69b000db9b075207b508826780027b67689567600282684850209a09db16ff826960028267680282687002826a78027b6a38027b6830027b67280295674002956820027b69200250209c0922ee95670002827a58827b50827c48826240028ea78eb8dba7088ec7882920859901dbc709d4ab07db78098267688877207b67a800510939027b62d0007b6cd8007b6bf0007b6ae0008267a000956900027b97826798007b97088267387b9710956800028267407b9718330750209e094a15ff826920819756171f08480920019517e08477e07b67e800647183793308208267283300a0090a060182676895781fd87807826c58c87c09d8c90ada770a826b60c8ba0a7b6ac80097aa3b989b05d4ab0b8267e8005022a2090c168268a80094c8826ab0005022a409d01fc87402d84207c8790cc8cb0b7b6bf800d39b0cd89b0adac70a7b6ac0008267d00095701fd8700b826ad800c8ba07d8a70cdabb0c8263f000c8c303973b3b987a05d4ba0a97773b980b05d4b707c847077b67d800d847076424c8790bc8ab0bd39b0a7b6bd000d89b09daa709826bc800826760d87b07826a50c8a70798ba05977b3bd4ba0a826be80082b282bb08987705948a94876fb86f2b5022a609231f8260c000c8a000d8a00ac8a7028267f000d87307826ae000c8a707983a05977c3bd4ca0a987705c8b707826bf800c88a0ad88a08c88707c8a9097b69c800d8a908c887077b67c0009517e08473e064317b63b800018267d800d874078269d000d39b08d89b09da8709826cc800d8c007826ac000d3a208d8a20ada870ad3c007d48707da790a7b347b3b087b30107b3218510a61492658044926500449264804492640049568400464377b64f0007b6bf8007b62e8007b60e0005020a809ea14ff8263b8008262e800826bf8008264f000954401884701c87b0bd4b4078877018268e000c88707d88708c8820264702866ff8267a800857701826a58826830dba8078268708269b000db980751073b028267688477e07b67708267a000956900017b97c000826798007b97c8008267387b97d0009568c0018267407b97d80033075020aa09f912ff9517e08477e07b67d800647133082033075020ac099116ff9518e08488e07b68d0005022ae094c180a064926f000204926f8004926e800330b330233044926e000826ad00082a71882a81082a90882ac6f736f886f9a6fc9330c64908267d8007b79187b6ab0007b7a107b68d0007b7808643a7b73017b60c80064a38267707b6bc000d87b07857b017b62b800942b018267e000d47407947b01826890008267f000c87808826a8800c8ca0a8269788267f800c879098267800064c2826ce800c8c707642c520bb2017b64a000826bf000d8b80bc8ba0ad3ca027b6c9800d8ca0cda2b0cc89c0cd89c02826bf800d8b909c89707c827075022b009930f7b63a80052073f04956780015020b209af10ff956b000182b7980082b8900082b9880082ba8000956b00047bb7787bb8707bb9687bba60956860048267d8005020b4092013ff8260a8009500018807018262d000c87202d420078877018268b000c87803d883088267c800c887078268f0009589207b69c800d8890a82689800c8a8097b69a800d8890bdaaa0b8268f800c8b804d8840b8268e800c8b8087b68e8008268c000958b20d88b0c8269b800c8c908d89809dacc09826aa000c8a909d8a90c826ae000c8ca0a7b6ae000642a7b6ad000826cd8007bca08640a7bc07bc31064707bc7187b63b0008267c8007b67f000826ca8007b64f80064826494287afe826968826760d49707826850d4a808d48707826b90005107f80182678000826878d487071408e0ffffff00000000d88b0882698800949894785108080383b8209567e0015020b609750fff956800018287f8007b67f0008287f0007b67e8008287e8007b67d8008287e0007b67e000826968826a5828aa0164c3826268826b70d32b0b826c60d4cb0b826458826c50d4c40cd4cb0b510b2f01826bf000d8b80bc8ba0ad33a02d83a0cda2b0cc89c0cd89c02826bf800d8b909c89707c827075022b809cc0d52077c029567a0015020ba09ec0eff956800018287b8007b67f0008287b0007b67e8008287a8007b67e0008287a0007b67d00082676897773b9878387b68f8009a8980003307ff3308ff5020bc09091c7b67c8007b68b0003307ff3308ff8269f8005020be09cb1b7b67b8007b68c0008267b000d487077b67b0008267f8009579803307ff3308ff5020c009a51b826bf80088b98000826ab000db9a08826cb800826ac800d4ca0ada970a93b8ff93baff826bc000939b939c8267d000e0a7078269e000e089088269e800e0c909826af000e0ba0a956b00047bba98007bb990007bb888007bb78000956880048267d8005020c209a710ff8262688264580182696098973f826850978801d4870798483f979901d4980898293f974a01d4a909972a0195aa01956b00047bbaa0007bb9a8007bb8b0007bb7b8009568a0048267483300cc09285310ff4926e0004926d8004926e8004926f0000198a73f826b6097b801d487077b67d00098b73f826850978801d487077b67c80098973f97a801d487077b67c0009797017b67b8009798037b68f8008d8980003307ff3308ff5020c409b41a7b6798007b68b0008267688a79033307ff3308ff5020c609741a7b67a8007b68a00082689800d487077b6798008267f8008379803307ff3308ff5020c8094e1a826bf80088b98000826a9800db9a07826ca000826ab0005022ca095419826ba800939b8268d800e0a8088269e000e079078269e800e0b909826af000e0ca0a826bb800d4b707826bc000d4b808826bc800d4ba0a826bd000d4b909956b00047bb9d0007bbad8007bb8c8007bb7c0009568c0048267485020cc093d0fff955100fb951700048270f8008275f0008276e800951100053200004926300149262801492620013302ce09140700000000717b484e01956820017b67380133075020d0098c0dff4926180149261001492600014133070495680001492608015020d2096d0dff3908a4010256183f0b2003a4010240013308b0010283883307013309240a08014926700149266801492660013302d409140700000000717b484e01956860017b67780133075020d609210dff4926580149265001492640014133070495684001492648015020d809020dff826720817756173f0b826820480840013307013309248268283300da090a08019511d0fe7b1028017b1520017b161801951530018411f0828610828c18828b0882827b1b607b1c58d4cb08d4620bd48b0b98bb207b1650d46808978820d4b8087b17485208420182a7187b172082a7107b171882a7087b171082a77b17088297187b17288297107b17308297087b173882977b174049210801492100014921f8009518f0004921f0004064277b12685020dc094c0cff821768957740821868d88708821a605022de09e616821650c86a0ad86a08821b58c88b0b7b1998007b1790008217287b17c8008217307b17c0008217387b17b8008217407b17b0007b1aa0009517d0009518b000951990007b1ba8005020e0096cd9821968821758d467071408e0ffffff00000000d88908821a6094a894785108708217e8007b17508217e0007b17588217d8007b17608216d0008397208218087b18708218107b18788218187b1880009518708219207b1988005020e2098a0bff8217488218507b78188218587b78108218607b78087b769551d0fe8210280182152001821618019511300132000082687082677882699000d49707826a80005022e609ea0a52073704956c000282c72082c93882cb2882ca30957c207b6c98007b678800d87c07c87b0c7b6c587b6b50d8bc0bda770bc8ab0b7b6b687b6a40d8ab077b6948c897077b6760956700025020e809ba09ff82696882679800d49707826858826a605022ea09e00e5207d00382678000826878d487071408e0ffffff00000000826a70d88a0882699000949894785108aa0395670002827918827b108278827c08d4b8077b6980007b6c38d4c909d497079877207b6b78d4b909979920d497075207780383a7207b6770826798007b6890005020ec091d0eff7b6728826770826890005020ee090c0eff6478826728826990005020f0098d08ff8268980082679000c88707d88708826b588269385022f2092c0c826a68826878c8a808d8a802826c60826a8000c8ac0cc82c0a5022f4097206520805034926f8014926f0014926e8019568e0014926e0015020f609f409ff82678800826a40d4a709826850826b48d4b808d48909989920d4a808978820d498085208c402826b900095b8207b6868d8b809826c38c89c087b6860d8c808da9908826a78c8a8087b6858d8a80882698000c898087b68707b6bc0017b6cc8017b6ad0019568c0017b69d8015020f8098109ff8267587b6790018267607b6788018267687b6780018267487b67b8018267407b67b0018267507b67a801826788007b67a0019567a001956880018269707b6998015020fa09f3d995676001826888005020fc09f107ff956b000182b77882ba7082b96882b860d497075022fe09b70852070402826798007b6898005020000aaf0cff9518e08489e07b699000649183778168980083993300020a0a06826a90003302040a282e12826a90005022040a27127b6790007b6758017b69787b6950017b6880007b684801956840017b6b88007b6b400133075020060aa408ff4926380149263001492620010133072095682001492628015020080a8508ff3309a401023907a4010256173f0b2003a4010240017b69709517e08479e07b69980064913307b00102837783993308407b676833000a0a0a06826a980033020c0a282d09826a980050220c0a2609956800027b8b407b8c487b89507b8758956700019568400250200e0a0a09ff7c6700015107db00826788007b67e000826780007b67e8008267787b67f0009568e000826790007b67f80033075020100ae407ff4926d8004926d0004926c000013307209568c0004926c8005020120ac507ff826970819756173f08480940019517e08477e07b679800647183793308408267683300140a0a06826a98003302160a285804826a98005022160a5104956800027b8b607b8c687b89707b87789567a000956860025020180a5c08ff8268a80033078069b000826a10d3a808826aa000826b1897bb2098bb20d3b909826b20d3ba0ad4a808d4980888880128053308018269307b987b97087b97107b9718955160fd951700028270980082759000827688009511a0023200009511807b10787b1570951580008411e049115849115049114849114095172095184050201a0ad607ff7c1734520712955180821078821570951180003200491110491108490114070000000065063cd964187b1718330750201c0aaf06ff3908a4010256181f0b2003a4010220013308b00102838833070133090433001e0a0a0801951140ff7b10b8007b15b0007b16a8009515c0008411e049219800492190004921880049218000951760951880005020200a4807ff8217687b17188217607b17108017707b17083306b0010383677b173300220a0a030182670882688169105022240ae404821908d39808821910d39707d48707821818d3a808d48707520719955140ff8210b8008215b0008216a8009511c0003200491150491148491140140700000000a7da8c119518407b175833075020260ad305ff82173300280a0a0301826708816810826950222a0a5d044911387b18307b17283307049518207b1a2050202c0aa305ff3908a4010256183f0b2003a4010240013308b0010283883307013309240a08330733002e0a285c09ff330750202e0a5609ff3307015020300a4c09ff826bd80188b98000826a6001db9a07826c6801826a7801d4ca0ada980a93b7ff93baff939c826b7001939b82684001e0a80882694801e0790782695001e0b909826a5801e0ca0a32028263480195330188370182644001c87404d4430788770182685001c87800d8800882676801c887078268d8019589207b696801d8890a82683801c8a8097b694801d8890bdaaa0b82689001c8b80ad88a0b82688801c8b8087b68880182687801958b20d88b0c82695801c8c908d89809dacc09826c6001c8c909d8c90c3202826bd80188b98000826a5001db9a08826c5801826a6801d4ca0ada970a93b8ff93baff826b6001939b939c82677801e0a70782698001e0890882698801e0c909826a9001e0ba0a956b5849320282a782a80882a91082aa186f776f886f996faa95ab07d8ab0ac8a90cd89c09daaa09c88909d88908c88707956858493202826710017b6b7801d87b07857b017b6a580194ab017b69600182678001d49707947b01826830018267d801c87808826a2801c8ac008269180182679001c879098267200164ca826c8801c8c7073202d88708826ab801c88a09d8a90ada880a8268c801c88a0ad88a08826bc001c8b808956b585195bc00033202c88b0bd88b08c8a808d49808d4b709d48909d4b808989920978820d4980832028298d800d878078298d00094878298a80094873202829838d878078298309487829810948732027b6770017b68680182686001d487077b6760018267d8018379803307ff3308ff320282a782a80882a91082aa186f776f886f996faa95ab04d8ab0ac8a90cd89c09daaa09c88909d88908c8870732028268b8018267d801c88707d887088269c001826ba001c8b909c88909d3b90ad8b90bdaa80b8268c801826ab001c8a8083202826bd80188b98000826a5001db9a08826c6001826a7001d4ca0ada970a93b8ff93baff826b6801939b939c82677801e0a70782698001e0890882698801e0c909826a9001e0ba0a330b0050320282648801954401884701826bd801c87b0bd4b40788770182687801c88707d887083202d4c809d4a707d47909989920d4c707977720d4970732028267000182686801d87807857b0182676001947b018267780182697001d49707947b01826820018267d801c87808826a180182678801c87a0a8269080182679001c8790982671001826c8001c8c707320297773b9878387b68d8019a8980003307ff3308ff32028298d800d878078298d00094878298b8009487320249268001826a680182a71882a81082a90882aa6f736f846f903309826b78016fa7330a320249268801492690014926800149266801492660014926700149267801956c000182ca5082a71882a81082a90882aa6f776f886f9b6fa97bc94082ca587ba9187bcb387bab107bc8487ba8087bc7507ba732026f77977a206f88988820d48a0a9877206f98978920d4970798882032026f77987a206f88978b20d4ba0a9777206f99989920d497079888203202826ad80182a782a80882a91082aa186f776f886f996faa95ab04d8ab0ac8a90cd89c09daaa09c88909d88908c8870795685841958a00063202d88708826ab801c88a09d8a90ada880a8268c801c88a0ad88a08826bc001c88b0b320282675001d487077b6750018267d8019579803307ff3308ff32029518e08489e07b69d001649183778168d80183993202957c207b6cb8017b679801d87c07c87b0c7b6ca0017b6b9001d8bc0bda770bc8ab0b7b6bb0017b6a8001d8ab077b698801c897077b67a801330700203202d4a809d47909989920d4a707977720d497073202956b000182b9b00082b7b800d4970782b8a00082baa800d4a808d48707987720d49808978820d48707320282679801826c8001d4c7098264900182638801d43408d48909989920d4c808978820d4980832028269c80082970881981082996f77977a206f88988820d48a0a9877206f9897892032028e7a88cb000185bb01db7a0b8e978e8adb970ad49808db8a0b32028ea78eb8dba7088ec77b6978018899208599017b6c8001dbc709956c00017bca88007bcb9000d4ab07db780982c7088877203202956a000182a72082a818d487071408e0ffffff0000000082a930d8890882a928949894783202d4780a889b0194ab320282a71882a81082a90882aa6f776f886f996faa320282a71082a81882a90882aa6f776f88958b06d88b08c8870cd87c07da88076fa86f99c89707d89709c89808320282a782a80882a91082aa186f776f886f996faa95ab07d8ab0ac8a90cd89c09daaa09c88909d88908c88707320282731897993b827a10988805d498076f346fa93202d87a07826870c8780bd88b08da770882678000c8870cd87c07826878c887077b6c38017b9c107b6b48017b9b087b6a50017b9a32029517e08477e07b67d801647183793308408267a00032029517e08477e07b676001647183793308208267f0003202d88708826ab801c88a09d8a90ada880a8268c801c88a0ad88a08826bc001c8b808956b584195bc00053202d88708826ab801c88a09d8a90ada880a8268c801c88a0ad88a08826bc001c8b808956b584195bc000632027b68d8018d8980003307ff3308ff3202c8b909c88909d3b90ad8b90bdaa80b3202956c00017bc9287bca20d4a9077bc830d4b808d478089888207bcb18d4b707977720d487073202d88708826ab801c88a09d8a90ada880a8268c801c88a0ad88a08826bc001c88b0b956858413202d4c809d47007d47909989920d4c707977720d497077b6348017b6440013202826ad80182a71882a81082a90882aa6f777b67b0016f877b67b8016f977b67c8016fa77b67c00132027b6778018267b8017b69d0017b6ac8017b68d8017b6cc00132028267b0019577018878018269b801c89808d48709889901826ac801c8a909d8a90a826bc001c8ba0a320249264801492640014926500149265801320233075839c876089589000632026479140700000000717b484e3308003032027b6050017ba07ba3107bc7407ba7187b63380182c7307bc7d80082c7287bc788007b6490017bcb687bc8607bc9703202d8380bc8b70cd87c07dabb07c89707d89709c8a9097b18407b1c487b1750330740c871087b19583202d88708826ad001c88a09d8a90ada880a8268c001c88a0ad88a08826bc801c88b0b32023307207b67d801330c4926900149268801492678013202956a000182a7c00082a8c800d47808140700000000010000007ba7b0001407e0ffffff0000000082a9d800d8790782a9d00094977ba8b80094873202491130491128491120140700000000717b484e9518207b173833073202d4a808d48707987720d49808978820d4870732029517e08477e07b67d801647183793308408267f0003202956c000182c8d80082c7c80082cac000d47a0a140b00000000010000001407fcffffff00000000d8780782c9d000949794a732029518e08488e07b68680164818377838933082032027b68a0018264900198493d826a800197ac03d49c0398aa3d826c880197c9033202d88708826ab001c88a09d8a90ada880a8268d001c88a0ad88a08826bc00132029511907b10687b15609515708411f0827a1882791082738277088eab8e9cdbab0c3202956a000182a71082a808d487071408e0ffffff0000000082a920d8890882a918949894783202956b000182b7a80082b9a000d47909140a00000000010000001407e0ffffff0000000082b8d800d8780782b8d00094873202c8a70798ba05977b3bd4ba0a826b60013202c87c09d8c90ada770a826b9800c8ba0a7b6a580197aa3b989b05d4ab0b826760013202d49808d47808988820d49707977720d4870732026481837783893308203202d49707d48b09d47909989920d48707977720d49707320295690001829ad8001407bcffffff00000000d87a078298d00094878298c80094873202d4b707956c000182cb8000d4b80882cb8800d4ba0a82cb9000d4b909956b584995bc00063202826730826820d487077b679001826748826840d487077b678801826738826828d487077b6780013202821908d46909140600000000010000001407fcffffff00000000821818d8780782181094877b19089497320282ab7b1b1882ab087b1b2082ab107b1b2882aa187b1a308296829a087b1a829a107b1a088299187b19103202d88708826a70c88a09d8a90ada880a82688000c88a0ad88a08826b7832027b6770017b686801826898018d8980008267a8018268a0013202956b000182b8c000648982b7d000d4870782bac80082b8d800d4a808d47808988820d4a707977720d48707320282171082181814090000000001000000d37909d48909987a2088aa01948a939a3202c9ac0cc99707c98707c94308d4c707d4080ad47a0ad4070798aa20977720d4a70732028219b8008216b0008217a8008218a0007b17107b1908d497077b1818d46808d47808988820d46707977720d487073202826ad80182a71882a81082a90882aa6f7b6f876f986fa932029517e08477e07b677001647133082033073202951120ff7b10d8007b15d0007b16c8009515e0008411f0827810827918827a088277d4a909d48707d497073202956b00017bb7d0007bb9c800d497077bb8d800d4a808d478089888207bbac000d4a707977720d487073202826bd801d8b80bc8ba0a826c88013202c8790bc8ab0bd39b0a7b6b6801d89b09daa709826b58013202c8b709c8a909d3790a7b696801d87909daab09826b58013202d4b707956c000182cb8000d4b80882cb8800d4ba0a82cb9000d4b909956b585132029517e08477e07b67580164713308207b68d801330732029577dcd87807949794a73202d49b0bd48709d4b909989920d4b808978820d498083202956a000182a7d00082a8c800d487071408e0ffffff0000000032028268980098893f7b694897b9017b694098a93f7b69309788017b68203202826c70017bc4087bc37bc01032028298607b6890018298587b6888018298507b6880018297487b67780132021407bcffffff00000000d876078218109487821808948732027b6768017b6850013307ff3308ff8269d80132028219821a087b697b6a087b67107b68189551c082103882153082162895114032029517e08477e07b67d8016471837933084082672801320282a71882a81082a90882aa6f776f8b6f996faa320282a71882a81082a90882aa6f7c6f8b6f976fa8320282a71882a81082a90882aa6f7b6f886f996fa73202c8760b95bc000282c7d80082c8e00082c9d00082cac800d49808d4a707d487073202956a000182a8d800d8780782a8d000948782a8a80094873202826720017bc78000826728017bc778826730017bc7709567ff0732029567dc821818d87807821810948782180894873202c8760a95ab000382b71882b82082b91082ba08d49808d4a707d487073202492190004921880049218000140700000000a079c308951880007b17980082171832028ea78e8bdba70b956c00017bc9308e973202826708018477e07b671001956758318268500132028269c801c898087b687801d89808320283870433085821c8860932024929e0024929d8024929d0024929c8029567005032029551a082105882155082164895116032027b6780017b687801826790018a79037b69900132027b6760017b687801826708018a79033307ff3308ff3202c88a09d8a90ada880a320282b7980082b8a00082b9900082ba8800d49808d4a707d487073202837758f9c8760a95ab00023202c8b707c88a0ad88a0cc8c707320294a8948b9487320233075839c8760895890001320233075849c8760c95ca000432028ea78e8bdba70b7b6910018e973202d4ca0ada980a3308ffdab807dab80a939c3202d4a708d49808988820d4a909979920d49808320282a898007ba720d8780782a9a000949782a960949732029511c07b10387b15307b16289515408411e064768317320295675831956a000182a85032029517e08477e07b67d8016471837933084032029517e08477e07b67b8016471837933084032029517e08479e07b69d801649132029517e08479e0649182676832028298a000956a00017ba858829898007ba850829890007ba840829788007ba748320282b75882b86082b95082ba48d49808d4a707d487073202849a40520a195109148d9a40cfa80ad09808d09707d4a707320032009597c0d0780733083200849a40520a195109148d9a40d0a70acf9707cf9808d4a808320032009598c0cf87083307320049922425494b2a252da9944c4949214225a952484992244992244992244992244992244992244992244992244992244992244992542529a524292949a84a494a922449922449922449922449922449922449922449929224294955494a9228492549559282922425294955559292a42495242549529224152aa5942495141411112949920409a592929222458a142952a44851922222a284a222458a142952a4489122458a142952a428912222a224491042c2509a948644888888440489081111d188882409a5124a430849444444844824124949a52425499288884444448494544a5292241191488410424444444444851081216aa250354900492149921022184ad28888881411412242881011514a94188104124404124820814420810404122481444444a41141228a88481a11114122a224499288888824454404111189442212222212412222498248081241242a111111912449120942448422429088244844444484201189442209221111111122229148444444441111414488489204898810a41141444424129142624428112184082651284aa4484410111111212222221211111111111185c488502242245191495422452282884422518488482a1189928888041111111189249244922449229244242292141181888844201111111111114422914822918888888822a22089a2c8884400914425aa8a24554524229128800490221211312291482291482249448288884824118988242222222222228848124912114922492289441049248944221111111141442491284a44444492442491201248449244041149a22811111189888808228144444411118848124589888848248908222291249124111189442252049148249248221149248924124924892412299188884444944044111181441411111111448c44241291202222229088482222222222121111d1884492241145444444041111092222220289002245444444222222221a114844118140444444041188880820012422222222222288041111111111218a4644a2082491148888245210424442424a4404a1222222228a88880824a28888141191482422224444101111111149249144922491441111211241444444442491441249924444442808218249148a124549aa229124492489248992441011111111051121114114890844141188049148241249a28888888888888840442422904444444444048148129140a02422222212111141241049110944249044924422222282482022222202010410482222222211111141241011111144249044922422924804914044444410400081242249224a2241249024114144049288888888888820124892882022800022514944111111114124104922128888401211111111114144108944a288082222222222828888888888202222221244444420898808228808448a4422914444028124928844a48892a2441249922489888820222222222222222222221091401211111129a2a428914492244922222288482412452291888804028840124024128944221289444444109188a4442411499224294992248a4820a2888840228a88881011444444229188041149124822229148448a4844444414111188884892889288888888888888288888502282240a21829144a11251444420229148140922222222222282489204928888884824a288082291482491484444229122a22089a2c888441295a88a4852559448892291482446449224492249922422228888442449924414111111115144108944228924129148248924124924892412454a894824a24449221a114524494411814892882022802422228044922449441009222222222242148d8844114822291011111105214444881025228250514511888888884624499244141191282290249088284992242222224911118188442291880411118940121111118804812410894a22222292244992401011411141201149208988880802492412892410898888882022128944442291222202114144922490440481282222109124521031229488204442442054a28888402489882022224144444420892222222211111151444420499224a28888442392041211254992444444242922221011111111111111912411115144444444444444444a92922849229148442212894424888888401211111111510489a0d488888888460412518888441181880824224a922489888848524444202211894422225144202202898892244922222222a2888840202291482422d188884022a224499288888824454404021191482422128d4812484494244912111111514444209088442289886844924022a22449928824115144442022222222021191882449920822499224912022222249922411114044444410480211212222888888409288081141204908212292884824896824922489282222d188884022a22449924892244544021191244922128d880824224a9224898888888888880291482412814810499224499222222212914424894824228888440492481240924a8a8888489224492222228288088a0822928840441291049288888820221149922491482492482412111111414424128944229122220211414444440249441028925415894814912888882811821022880884a24414111188888808222222222222229148440a22468412114491884014111188888888202222224214d14809442289241111111111111111111105112342890822898a44041a25a94a922489484492245192242222828888a844118944241111114424892411094424894a4992482411111191482422055164129588461249229124025104922492442491249224492225892422912451521588249148922422492289a4188924914892a424914444441111414444922492948888882822229044918844239204928892244922222222a288884044229148448288884420891811118948229244241211049240242a89888848922449024144044504814424812422222208249148249240242222228288482412894422454404228288888804928820108d0844444444444441444489108410c1240a1589a224554992241149121144444444444444229188144444281141148908441411880411894422514444444444444444111181884844208988888888880802114922120844494424914892880822818828220211092411491289888808228188282202014404104822222292242282482049440411092411932411492211440211111141001101049248928888882882482022222288884012111111111111114402111111410011010492882822222282482249249188244544202202494424898844221111440411232222222222084444444444048188888888882010111111111104128944441048241289882090482412912022490249444404114404222222222222a288884020898888884844122592489224494424114144241289442291222222109140121111119188244a2491244992888888206244444444444444141111410011010492888888884424512289244992444412114444229148241229222282880492002211894422118944444444040144041048222222222222228888401211111111111141001148225244522292882449928888888820624422914824122922228218111149914412499224294992248aa0a84444444411111181248a44241a1149208928499224222222491111414422914844444444444444241a11118124a2244992888888882822228888888888084412914844828888482292244944444400111145440411110920804425898888101111114444442049444484888820228044519210424444440011114122121189489224894424114922128908024944028844251149922449924444440411111411442411818824220924111111414424912489442291442291884812114144444444444444141111440411119140121104a2888840242291884441445222821022880884a244141111888888880822492211118924492405114b9448104522025144202222228888888808514423251089249244444444444434520291482249221244449288482489244992002212414424800820124549242289880411894451128948222241001189a2241242882811014444442212912422894892481289481289888804912022222249922489249244121111212222880822221149922411111111111111115445124922492249244622914422499248449224494444441011894892248988482249228a08229148124924228924914422924812492422a2a84a44242249922482489224110922222292244912110144444404812410112222828888482a4944848820902484882480440489484412912449120591244922124411114944922489880820a2888820921240004925818810111144241148121121228804901425092144444444908844242249441291244992244992088a4a44229288241189444410499240121109201295444444244992241111114144044504114944202289480249c488880822924892442291482291484444444404119148242212891411114404114912488a2248a2a22822221011894422521011a144042142442651a8441411118824890822221244444444922425492222914424222249922489881111111111410091000249242222222222a22092401289881111111111050144020824918888888888888210453492401248222222894410110d20228040129124222222894410118d88401211111111114924820410114092521211312222228888401289484422111129888811111111511011a14404491445242210454404128924292288888808241141442495484992248988882022499244248848924a914422228924894424222251104524225024912489249124a928aa24892489249244922449a440128192aa40924422499288244992241a892491489224a24824124944444410889488441291884444444444441424510a9208142aaa882415559148246a4444128948221291884424922449922449924410912411491211441249228944229148228944249124924844a45222224a2422229188444144449408411489084411818888882022128944241229220a222242890822898a0c2092a844141111889244101189484424924404111111111111051111a14404118d88442412252223129188441295882222021149121191482422888888888888288888881211822812118822021111111111912422224144442412112988880825228248a222118188464444049224491a114444444424129144229144922489221289440211111109222222222222222292524410118944228124924491549248201011080422111189442412898808442aa2a8922449924444128948228944241189242222129148441291244992240924114444444444442010914420221291241011894892a848241289489288201249248924494492884492009254128920222222221131914422894812890402119124101189481288884404a24824128948241289888888892022222222220a2246841211444423222222224544220211454404222222222222222282481091482412512412454414111148928888888822222222914811111141202922894812499248441281244a94444912222222420811119188884444445014251249228924892222222222222222222222888844229188282292524410111111111148224914492589040211814020121191484422918888405111451445914411118944229148a4888888882022221289449244522202111111111111892491249244108988404444440422221111884444241291482422225054441145512411884822101189240211894822894a92489248241289442291888888884044042222228a24495292244924298922890422222212444444444444444424252210118944229144914812492249548a2489248188482481888824108988482212492411888a44924892482412892415818840c44824492292021111a14444208a448222914814110944444444444444444444222211414444444444444420221240041089a2884444442211914044231289a2888888884444241109041091288a28a288228a484444229188482022a288888888442245444404110944444444444444111111111111111111111111111111111111411045444444249124894424114444141111111111218410114944444422111111111111111129499294244992a22811499288442291442291888888502022105124228888482412492205aa22894824229124114922894422914492482289449288240248001991482491482491242211894424119148222211499244241149922449922489249140442292248908444c9288244992444420221291244944444424898888882210492289522402119148a21411119124111111814882480422922845444424924404220922118848a21411894422918888108848049144222222222222a288882022229148124924228924119144229248121111492422222252229224111111404404028808208848c488101188481091881121221040041109214424890824022522892449922449469224499224499244922411894844222212058240104582a048244510912492249204118188481211111111082211948888282291241124222249122549922441442022222222228220082282208888888840922449928824890411894044442291c8249124924424082222491004418224898940902449244924124524221011498288084424092249922422220211495244444410912441228848242251208a48248846124192a452aa24892489249244922449a42092a0a42a4892482449129124499244239124124992441489442211111181205292489224092249920822222222a2401008a248101489a408229244924492202210111111114922024124821211114524224904898848248992244992202210119148242208822022088288888808244992248988888804118940444422914824880441100441902022222602418288440422922448220211498288244912111181882489888888202222224804118944240a44118904d1482249249244901224492449249124922449220591084aaa822489449224114992244934124922912449449148241211111108222589244922294992244992882012894444812010449120281249114424892489244112814892882489080491084a4444149188241124222291244a92244982240211410441104404411049121148922449242249224112894044902492449288044110044110894824129148622210248848442022492249922449121188481244929424222202111111111111444444a548221149241144221189025144224134920882144192449244124922499224521089a0a42a489248244912912449924423912412499244148944121111118120529248929224882449221211894422522008241144912088204912498224021111111111111188249244128944229144128948224924914824412292449088449208922491244822108944221141109144101104412422222202499224492222228a044924021191244922412408222249100441822489894044201289445212a44852042212452212492202118188884892249124912491242210118888882449124912111111111181a424482429221011141181882412918888880804499244924422918822818891249124499224890844240922892849444404229224222222828888884a914422924844442212894814882232894a14492489248924494551259224928824924492244924492491489228a90a22914424922449924892248d484492884424491225494444440422924844124924229148244a12914824492492444422221289444481209044104582208224492409920844444444924404228924914422914824914422924812492412499050124a4249280925a12494849250124a424944440011111111888888109188404444848844044288880820222211811002210a3169444400230a448444044204a1b0a4a12494849250124a4249440011512044309434202222221a111191240925a12494849250124a4249280925a12494849250124a4249280925a12494849250124a424928092511894490404444444411892009a5502a45158d482412419224920449042282088288248288200822912411818824892412912491208944202248121189482212041191240882208248243111886824051191440a448c08252210452412449120222222222222222288880811818888a8944a1211492422128944221111212290441191482412114544082222222222124924250211894422118924912492441089882022121141444444049188884422128944440445451451144512414412414424920822129144129524912491244912892449444444042222222222a240c488502202514422419148248a482022222222222222221211890892888888084434221240028844290992484424914044238944298948924844249140241011111111111122a2880822491224111111221049024800492a89841011114044042289442989228a28a28844442291880844442291482412292222880422469244442249244922222244209208228944444444444444111141442480082012454944444444229228914492244922228908448c4824128944224544441091482412118d48248a9288248944444444201a91882411494492244992244922a994a4242184101111111111111151444444201288882441524424128948111125215108898844444444101189440011111111818888888848221111119148121188482422111111118988104244442122a2022122228a0046148888502202514426d188880046148818114a44208ac824a2111141240a448c0825222222028888021111a14444208ac8245a1481a22222228844818811a144444492209202114b9448442409225120922891888888201205222294888888882012052246841211882232892241444444042222222222898888888888404412111111112184888888424444054244441440448188881211081184844444449294244992449224251248922449121111894422120592049054244952519224499248522029500a2449822449922409201589481248024892044992244992942422225a2449220824494120494a204430944491a02449220824494120494a20443094442322914a4a922449922449922449924a4a9224499224499204222251920860522089248110c150128d888894942449922449922449924492244992488a34222a1129118924499224894420222222221111918848041191249124222222222290249124492449922449244992244992248948004945442249928888480049459254a0c8914424492292882449924a898888402291441111d150444400230a4484440442044349a1b014458244912041a114458244912041a1148d88889492244992128944222210119124499224492249922405420493142aa52455499224499224494a92924444441111018c281011121108110c25d124499292244992a42449524a4982824092944088602889462489942445444444440291244989084444444444444444902409222222128944240291481240928a48448a44245025499212234992241189442422228224499222924411894422522049218249142a45154992244952554a914825499211892449922449228a88402249048924910411499224128824924412892492441229924a89a84c444414090409024192249240902489241064129200920452a0248a048988882281204120489244120892249104824c42480248124881926844444a9224495152922425499248945492949420491211a44829484a249128492452825289228a5292044992a0922409922449524992244992244924922449494444114922251289224989442211118888a8a4442449922411111149204989442291482422221144229148444492128148241249922449922441928820491211248944044922492492241211094a258a288a224990240992244982244992249524499224499248241289888848202249141111c088021121118110c150128d8888488944a2485244444444442022222922299248924824251188482412910221443049142a6994a42a2912499224492492244992242211499244a228118908444444440422914844444444202212400490288a002280480422229188445224912492484592221091482422222222021149144522101191449288124922492222024991449248224912890012458922118888888824499288084444545292241291482022222222228824512949924444444414492229902293a8249a244992481241144192449288249244922449a424914492248992aa209244224992489248222946224924922429492222a2888840444492249294489244224944442422512089522089a010514524a9aa2291488d12492492884412892245449248924812444420222222492202914492482291482492482211492489241245a4522222a2922449442401242a1281888888884852922449229224492409220211111111912422092292082222114982884844924445229148444444049249922449928888884444444c924892481289442441449204119188244144242288229148241289442222221288888868444400230a4484440442044349232202185120222422902299241a11114952922449924892a424495222224209244982244944229148444444902480a412894422499248229024498a888826910822922411499224499208249204114900495444521249922491440492089408442449902489248888880844922449129124499224914444442091482412898888441011882449101181242a8a221241442222220a44844404428860922854124524824892884044444422220a448444045264129544118920922422104512499224a9294944444493449224092449a2a4004a8110c150128d8888444424024992848aa60449922489888892049014289a1424491208110c2515512081884844921445229148914492482291482492482211492489a48848449244452291485492aa2449922822894424118944248a9448124924a2244992a4481495a4544424224925a94a9224292289489244a488484492444522914814492489a4244952441289482212918844a424222912454524a92aaa8888888824a92a4992a44a494a522949498a92542549924494481249a448449292a8a844241149221289284992222211499214918824498aa45292529154922a451289882429920490a44a2a495525a9922495a492542549929424a992249124914854129528894a9448124924a24492482211452425498a2449922425924412899224494491a4a2288a2222228a249244122922a24854005194241289485292244992a444924822258a88222201440091282a4900492549521295282222010490a892a852442249a4449248a22449522a4592009254119100028844254994241249a22449aa5292242922804451894824125192481249a224800092942a49929492a4244924292222a2882211499294049024559224499222229224499222495525512a222292a42445442249242992284924519248a244241289922851499524498a8804502449921429251289440124a52292a894244952129528495525a9aa2455958888485244a2a88848244a925289244952440410912a918a444491488914111125498a88441191a424454424291225495591281255a292249524499144a92449aa889444a5242a25514929229148a42449529224492595244952490100"},"methodIdentifiers":{"getBook(string)":"c37a8361","getBookByIndex(uint256)":"2ba53db2","getBooksByOwner(address)":"5ff47114","getTotalBooks()":"68931b21","getTransferHistory(string)":"7b2cca7c","isBookRegistered(string)":"7c15f309","owner()":"8da5cb5b","pause()":"8456cb59","paused()":"5c975abb","registerBook(string,string,string,string,string)":"82c32a60","renounceOwnership()":"715018a6","transferOwnership(address)":"f2fde38b","transferOwnership(string,address,string)":"35764552","unpause()":"3f4ba83a","updateMetadata(string,string)":"56ce0e6c","verifyOwnership(string,address)":"59de8bd6"}},"hash":"01fdde4ac0b3dd57b50a1391ecf0adb3919a2bd1899790319229705fd8503eea","factoryDependencies":{}}}}