{
  "_format": "hh-sol-artifact-1",
  "contractName": "BookTraceability",
  "sourceName": "contracts/BookTraceability.sol",
  "abi": [
    {
      "inputs": [],
      "stateMutability": "nonpayable",
      "type": "constructor"
    },
    {
      "inputs": [],
      "name": "EnforcedPause",
      "type": "error"
    },
    {
      "inputs": [],
      "name": "ExpectedPause",
      "type": "error"
    },
    {
      "inputs": [
        {
          "internalType": "address",
          "name": "owner",
          "type": "address"
        }
      ],
      "name": "OwnableInvalidOwner",
      "type": "error"
    },
    {
      "inputs": [
        {
          "internalType": "address",
          "name": "account",
          "type": "address"
        }
      ],
      "name": "OwnableUnauthorizedAccount",
      "type": "error"
    },
    {
      "anonymous": false,
      "inputs": [
        {
          "indexed": true,
          "internalType": "bytes32",
          "name": "bookIdHash",
          "type": "bytes32"
        },
        {
          "indexed": false,
          "internalType": "string",
          "name": "bookId",
          "type": "string"
        },
        {
          "indexed": true,
          "internalType": "address",
          "name": "updatedBy",
          "type": "address"
        },
        {
          "indexed": false,
          "internalType": "uint256",
          "name": "timestamp",
          "type": "uint256"
        }
      ],
      "name": "BookMetadataUpdated",
      "type": "event"
    },
    {
      "anonymous": false,
      "inputs": [
        {
          "indexed": true,
          "internalType": "bytes32",
          "name": "bookIdHash",
          "type": "bytes32"
        },
        {
          "indexed": false,
          "internalType": "string",
          "name": "bookId",
          "type": "string"
        },
        {
          "indexed": true,
          "internalType": "address",
          "name": "from",
          "type": "address"
        },
        {
          "indexed": true,
          "internalType": "address",
          "name": "to",
          "type": "address"
        },
        {
          "indexed": false,
          "internalType": "uint256",
          "name": "timestamp",
          "type": "uint256"
        }
      ],
      "name": "BookOwnershipTransferred",
      "type": "event"
    },
    {
      "anonymous": false,
      "inputs": [
        {
          "indexed": true,
          "internalType": "bytes32",
          "name": "bookIdHash",
          "type": "bytes32"
        },
        {
          "indexed": false,
          "internalType": "string",
          "name": "bookId",
          "type": "string"
        },
        {
          "indexed": false,
          "internalType": "string",
          "name": "title",
          "type": "string"
        },
        {
          "indexed": true,
          "internalType": "address",
          "name": "owner",
          "type": "address"
        },
        {
          "indexed": false,
          "internalType": "uint256",
          "name": "timestamp",
          "type": "uint256"
        }
      ],
      "name": "BookRegistered",
      "type": "event"
    },
    {
      "anonymous": false,
      "inputs": [
        {
          "indexed": true,
          "internalType": "address",
          "name": "previousOwner",
          "type": "address"
        },
        {
          "indexed": true,
          "internalType": "address",
          "name": "newOwner",
          "type": "address"
        }
      ],
      "name": "OwnershipTransferred",
      "type": "event"
    },
    {
      "anonymous": false,
      "inputs": [
        {
          "indexed": false,
          "internalType": "address",
          "name": "account",
          "type": "address"
        }
      ],
      "name": "Paused",
      "type": "event"
    },
    {
      "anonymous": false,
      "inputs": [
        {
          "indexed": false,
          "internalType": "address",
          "name": "account",
          "type": "address"
        }
      ],
      "name": "Unpaused",
      "type": "event"
    },
    {
      "inputs": [
        {
          "internalType": "string",
          "name": "_bookId",
          "type": "string"
        }
      ],
      "name": "getBook",
      "outputs": [
        {
          "internalType": "string",
          "name": "bookId",
          "type": "string"
        },
        {
          "internalType": "string",
          "name": "isbn",
          "type": "string"
        },
        {
          "internalType": "string",
          "name": "title",
          "type": "string"
        },
        {
          "internalType": "string",
          "name": "author",
          "type": "string"
        },
        {
          "internalType": "address",
          "name": "currentOwner",
          "type": "address"
        },
        {
          "internalType": "uint256",
          "name": "registeredAt",
          "type": "uint256"
        },
        {
          "internalType": "uint256",
          "name": "lastUpdated",
          "type": "uint256"
        },
        {
          "internalType": "string",
          "name": "metadata",
          "type": "string"
        }
      ],
      "stateMutability": "view",
      "type": "function"
    },
    {
      "inputs": [
        {
          "internalType": "uint256",
          "name": "_index",
          "type": "uint256"
        }
      ],
      "name": "getBookByIndex",
      "outputs": [
        {
          "internalType": "string",
          "name": "bookId",
          "type": "string"
        },
        {
          "internalType": "string",
          "name": "title",
          "type": "string"
        },
        {
          "internalType": "string",
          "name": "author",
          "type": "string"
        },
        {
          "internalType": "address",
          "name": "currentOwner",
          "type": "address"
        }
      ],
      "stateMutability": "view",
      "type": "function"
    },
    {
      "inputs": [
        {
          "internalType": "address",
          "name": "_owner",
          "type": "address"
        }
      ],
      "name": "getBooksByOwner",
      "outputs": [
        {
          "internalType": "bytes32[]",
          "name": "",
          "type": "bytes32[]"
        }
      ],
      "stateMutability": "view",
      "type": "function"
    },
    {
      "inputs": [],
      "name": "getTotalBooks",
      "outputs": [
        {
          "internalType": "uint256",
          "name": "",
          "type": "uint256"
        }
      ],
      "stateMutability": "view",
      "type": "function"
    },
    {
      "inputs": [
        {
          "internalType": "string",
          "name": "_bookId",
          "type": "string"
        }
      ],
      "name": "getTransferHistory",
      "outputs": [
        {
          "components": [
            {
              "internalType": "address",
              "name": "from",
              "type": "address"
            },
            {
              "internalType": "address",
              "name": "to",
              "type": "address"
            },
            {
              "internalType": "uint256",
              "name": "timestamp",
              "type": "uint256"
            },
            {
              "internalType": "string",
              "name": "notes",
              "type": "string"
            }
          ],
          "internalType": "struct BookTraceability.Transfer[]",
          "name": "",
          "type": "tuple[]"
        }
      ],
      "stateMutability": "view",
      "type": "function"
    },
    {
      "inputs": [
        {
          "internalType": "string",
          "name": "_bookId",
          "type": "string"
        }
      ],
      "name": "isBookRegistered",
      "outputs": [
        {
          "internalType": "bool",
          "name": "",
          "type": "bool"
        }
      ],
      "stateMutability": "view",
      "type": "function"
    },
    {
      "inputs": [],
      "name": "owner",
      "outputs": [
        {
          "internalType": "address",
          "name": "",
          "type": "address"
        }
      ],
      "stateMutability": "view",
      "type": "function"
    },
    {
      "inputs": [],
      "name": "pause",
      "outputs": [],
      "stateMutability": "nonpayable",
      "type": "function"
    },
    {
      "inputs": [],
      "name": "paused",
      "outputs": [
        {
          "internalType": "bool",
          "name": "",
          "type": "bool"
        }
      ],
      "stateMutability": "view",
      "type": "function"
    },
    {
      "inputs": [
        {
          "internalType": "string",
          "name": "_bookId",
          "type": "string"
        },
        {
          "internalType": "string",
          "name": "_isbn",
          "type": "string"
        },
        {
          "internalType": "string",
          "name": "_title",
          "type": "string"
        },
        {
          "internalType": "string",
          "name": "_author",
          "type": "string"
        },
        {
          "internalType": "string",
          "name": "_metadata",
          "type": "string"
        }
      ],
      "name": "registerBook",
      "outputs": [
        {
          "internalType": "bytes32",
          "name": "",
          "type": "bytes32"
        }
      ],
      "stateMutability": "nonpayable",
      "type": "function"
    },
    {
      "inputs": [],
      "name": "renounceOwnership",
      "outputs": [],
      "stateMutability": "nonpayable",
      "type": "function"
    },
    {
      "inputs": [
        {
          "internalType": "string",
          "name": "_bookId",
          "type": "string"
        },
        {
          "internalType": "address",
          "name": "_newOwner",
          "type": "address"
        },
        {
          "internalType": "string",
          "name": "_notes",
          "type": "string"
        }
      ],
      "name": "transferOwnership",
      "outputs": [],
      "stateMutability": "nonpayable",
      "type": "function"
    },
    {
      "inputs": [
        {
          "internalType": "address",
          "name": "newOwner",
          "type": "address"
        }
      ],
      "name": "transferOwnership",
      "outputs": [],
      "stateMutability": "nonpayable",
      "type": "function"
    },
    {
      "inputs": [],
      "name": "unpause",
      "outputs": [],
      "stateMutability": "nonpayable",
      "type": "function"
    },
    {
      "inputs": [
        {
          "internalType": "string",
          "name": "_bookId",
          "type": "string"
        },
        {
          "internalType": "string",
          "name": "_metadata",
          "type": "string"
        }
      ],
      "name": "updateMetadata",
      "outputs": [],
      "stateMutability": "nonpayable",
      "type": "function"
    },
    {
      "inputs": [
        {
          "internalType": "string",
          "name": "_bookId",
          "type": "string"
        },
        {
          "internalType": "address",
          "name": "_address",
          "type": "address"
        }
      ],
      "name": "verifyOwnership",
      "outputs": [
        {
          "internalType": "bool",
          "name": "",
          "type": "bool"
        }
      ],
      "stateMutability": "view",
      "type": "function"
    }
  ],
  "bytecode": "608060405234801561001057600080fd5b5033600073ffffffffffffffffffffffffffffffffffffffff168173ffffffffffffffffffffffffffffffffffffffff16036100845760006040517f1e4fbdf700000000000000000000000000000000000000000000000000000000815260040161007b919061019e565b60405180910390fd5b6100938161009960201b60201c565b506101b9565b60008060009054906101000a900473ffffffffffffffffffffffffffffffffffffffff169050816000806101000a81548173ffffffffffffffffffffffffffffffffffffffff021916908373ffffffffffffffffffffffffffffffffffffffff1602179055508173ffffffffffffffffffffffffffffffffffffffff168173ffffffffffffffffffffffffffffffffffffffff167f8be0079c531659141344cd1fd0a4f28419497f9722a3daafe3b4186f6b6457e060405160405180910390a35050565b600073ffffffffffffffffffffffffffffffffffffffff82169050919050565b60006101888261015d565b9050919050565b6101988161017d565b82525050565b60006020820190506101b3600083018461018f565b92915050565b61323e806101c86000396000f3fe608060405234801561001057600080fd5b50600436106101005760003560e01c8063715018a6116100975780638456cb59116100665780638456cb59146102b05780638da5cb5b146102ba578063c37a8361146102d8578063f2fde38b1461030f57610100565b8063715018a6146102165780637b2cca7c146102205780637c15f3091461025057806382c32a601461028057610100565b806359de8bd6116100d357806359de8bd61461017a5780635c975abb146101aa5780635ff47114146101c857806368931b21146101f857610100565b80632ba53db21461010557806335764552146101385780633f4ba83a1461015457806356ce0e6c1461015e575b600080fd5b61011f600480360381019061011a9190612061565b61032b565b60405161012f949392919061215f565b60405180910390f35b610152600480360381019061014d919061231a565b610743565b005b61015c610c1d565b005b610178600480360381019061017391906123a5565b610c2f565b005b610194600480360381019061018f919061241d565b610dfe565b6040516101a19190612494565b60405180910390f35b6101b2610ecb565b6040516101bf9190612494565b60405180910390f35b6101e260048036038101906101dd91906124af565b610ee1565b6040516101ef91906125a4565b60405180910390f35b610200610f78565b60405161020d91906125d5565b60405180910390f35b61021e610f85565b005b61023a600480360381019061023591906125f0565b610f99565b60405161024791906127c6565b60405180910390f35b61026a600480360381019061026591906125f0565b6111e2565b6040516102779190612494565b60405180910390f35b61029a600480360381019061029591906127e8565b61123a565b6040516102a791906128fe565b60405180910390f35b6102b8611756565b005b6102c2611768565b6040516102cf9190612919565b60405180910390f35b6102f260048036038101906102ed91906125f0565b611791565b604051610306989796959493929190612934565b60405180910390f35b610329600480360381019061032491906124af565b611bf4565b005b606080606060006004805490508510610379576040517f08c379a000000000000000000000000000000000000000000000000000000000815260040161037090612a21565b60405180910390fd5b60006004868154811061038f5761038e612a41565b5b90600052602060002001549050600060016000838152602001908152602001600020604051806101200160405290816000820180546103cd90612a9f565b80601f01602080910402602001604051908101604052809291908181526020018280546103f990612a9f565b80156104465780601f1061041b57610100808354040283529160200191610446565b820191906000526020600020905b81548152906001019060200180831161042957829003601f168201915b5050505050815260200160018201805461045f90612a9f565b80601f016020809104026020016040519081016040528092919081815260200182805461048b90612a9f565b80156104d85780601f106104ad576101008083540402835291602001916104d8565b820191906000526020600020905b8154815290600101906020018083116104bb57829003601f168201915b505050505081526020016002820180546104f190612a9f565b80601f016020809104026020016040519081016040528092919081815260200182805461051d90612a9f565b801561056a5780601f1061053f5761010080835404028352916020019161056a565b820191906000526020600020905b81548152906001019060200180831161054d57829003601f168201915b5050505050815260200160038201805461058390612a9f565b80601f01602080910402602001604051908101604052809291908181526020018280546105af90612a9f565b80156105fc5780601f106105d1576101008083540402835291602001916105fc565b820191906000526020600020905b8154815290600101906020018083116105df57829003601f168201915b505050505081526020016004820160009054906101000a900473ffffffffffffffffffffffffffffffffffffffff1673ffffffffffffffffffffffffffffffffffffffff1673ffffffffffffffffffffffffffffffffffffffff16815260200160058201548152602001600682015481526020016007820160009054906101000a900460ff1615151515815260200160088201805461069a90612a9f565b80601f01602080910402602001604051908101604052809291908181526020018280546106c690612a9f565b80156107135780601f106106e857610100808354040283529160200191610713565b820191906000526020600020905b8154815290600101906020018083116106f657829003601f168201915b50505050508152505090508060000151816040015182606001518360800151955095509550955050509193509193565b61074b611c7a565b600073ffffffffffffffffffffffffffffffffffffffff168273ffffffffffffffffffffffffffffffffffffffff16036107ba576040517f08c379a00000000000000000000000000000000000000000000000000000000081526004016107b190612b1c565b60405180910390fd5b6000836040516020016107cd9190612b78565b6040516020818303038152906040528051906020012090506001600082815260200190815260200160002060070160009054906101000a900460ff16610848576040517f08c379a000000000000000000000000000000000000000000000000000000000815260040161083f90612bdb565b60405180910390fd5b3373ffffffffffffffffffffffffffffffffffffffff166001600083815260200190815260200160002060040160009054906101000a900473ffffffffffffffffffffffffffffffffffffffff1673ffffffffffffffffffffffffffffffffffffffff16146108ec576040517f08c379a00000000000000000000000000000000000000000000000000000000081526004016108e390612c47565b60405180910390fd5b3373ffffffffffffffffffffffffffffffffffffffff168373ffffffffffffffffffffffffffffffffffffffff160361095a576040517f08c379a000000000000000000000000000000000000000000000000000000000815260040161095190612cb3565b60405180910390fd5b60006001600083815260200190815260200160002060040160009054906101000a900473ffffffffffffffffffffffffffffffffffffffff169050836001600084815260200190815260200160002060040160006101000a81548173ffffffffffffffffffffffffffffffffffffffff021916908373ffffffffffffffffffffffffffffffffffffffff160217905550426001600084815260200190815260200160002060060181905550600360008573ffffffffffffffffffffffffffffffffffffffff1673ffffffffffffffffffffffffffffffffffffffff168152602001908152602001600020829080600181540180825580915050600190039060005260206000200160009091909190915055610a758183611cbb565b6002600083815260200190815260200160002060405180608001604052808373ffffffffffffffffffffffffffffffffffffffff1681526020018673ffffffffffffffffffffffffffffffffffffffff16815260200142815260200185815250908060018154018082558091505060019003906000526020600020906004020160009091909190915060008201518160000160006101000a81548173ffffffffffffffffffffffffffffffffffffffff021916908373ffffffffffffffffffffffffffffffffffffffff16021790555060208201518160010160006101000a81548173ffffffffffffffffffffffffffffffffffffffff021916908373ffffffffffffffffffffffffffffffffffffffff160217905550604082015181600201556060820151816003019081610bab9190612e7f565b5050508373ffffffffffffffffffffffffffffffffffffffff168173ffffffffffffffffffffffffffffffffffffffff16837f76346b5c5d6daa8fda33d3952cda340a66832468666dae2ccff728cda402b6588842604051610c0e929190612f51565b60405180910390a45050505050565b610c25611dbf565b610c2d611e46565b565b610c37611c7a565b600082604051602001610c4a9190612b78565b6040516020818303038152906040528051906020012090506001600082815260200190815260200160002060070160009054906101000a900460ff16610cc5576040517f08c379a0000000000000000000000000000000000000000000000000000000008152600401610cbc90612bdb565b60405180910390fd5b3373ffffffffffffffffffffffffffffffffffffffff166001600083815260200190815260200160002060040160009054906101000a900473ffffffffffffffffffffffffffffffffffffffff1673ffffffffffffffffffffffffffffffffffffffff1614610d69576040517f08c379a0000000000000000000000000000000000000000000000000000000008152600401610d6090612c47565b60405180910390fd5b81600160008381526020019081526020016000206008019081610d8c9190612e7f565b504260016000838152602001908152602001600020600601819055503373ffffffffffffffffffffffffffffffffffffffff16817f1a8ea2fc22a374d73eca95a2fe2a25e346c0887a55b3290821b985a8f30ce8f18542604051610df1929190612f51565b60405180910390a3505050565b60008083604051602001610e129190612b78565b6040516020818303038152906040528051906020012090506001600082815260200190815260200160002060070160009054906101000a900460ff16610e5c576000915050610ec5565b8273ffffffffffffffffffffffffffffffffffffffff166001600083815260200190815260200160002060040160009054906101000a900473ffffffffffffffffffffffffffffffffffffffff1673ffffffffffffffffffffffffffffffffffffffff16149150505b92915050565b60008060149054906101000a900460ff16905090565b6060600360008373ffffffffffffffffffffffffffffffffffffffff1673ffffffffffffffffffffffffffffffffffffffff168152602001908152602001600020805480602002602001604051908101604052809291908181526020018280548015610f6c57602002820191906000526020600020905b815481526020019060010190808311610f58575b50505050509050919050565b6000600480549050905090565b610f8d611dbf565b610f976000611ea8565b565b6060600082604051602001610fae9190612b78565b6040516020818303038152906040528051906020012090506001600082815260200190815260200160002060070160009054906101000a900460ff16611029576040517f08c379a000000000000000000000000000000000000000000000000000000000815260040161102090612bdb565b60405180910390fd5b60026000828152602001908152602001600020805480602002602001604051908101604052809291908181526020016000905b828210156111d657838290600052602060002090600402016040518060800160405290816000820160009054906101000a900473ffffffffffffffffffffffffffffffffffffffff1673ffffffffffffffffffffffffffffffffffffffff1673ffffffffffffffffffffffffffffffffffffffff1681526020016001820160009054906101000a900473ffffffffffffffffffffffffffffffffffffffff1673ffffffffffffffffffffffffffffffffffffffff1673ffffffffffffffffffffffffffffffffffffffff1681526020016002820154815260200160038201805461114590612a9f565b80601f016020809104026020016040519081016040528092919081815260200182805461117190612a9f565b80156111be5780601f10611193576101008083540402835291602001916111be565b820191906000526020600020905b8154815290600101906020018083116111a157829003601f168201915b5050505050815250508152602001906001019061105c565b50505050915050919050565b600080826040516020016111f69190612b78565b6040516020818303038152906040528051906020012090506001600082815260200190815260200160002060070160009054906101000a900460ff16915050919050565b6000611244611c7a565b6000865111611288576040517f08c379a000000000000000000000000000000000000000000000000000000000815260040161127f90612fcd565b60405180910390fd5b60008451116112cc576040517f08c379a00000000000000000000000000000000000000000000000000000000081526004016112c390613039565b60405180910390fd5b6000835111611310576040517f08c379a0000000000000000000000000000000000000000000000000000000008152600401611307906130a5565b60405180910390fd5b6000866040516020016113239190612b78565b6040516020818303038152906040528051906020012090506001600082815260200190815260200160002060070160009054906101000a900460ff161561139f576040517f08c379a000000000000000000000000000000000000000000000000000000000815260040161139690613111565b60405180910390fd5b6040518061012001604052808881526020018781526020018681526020018581526020013373ffffffffffffffffffffffffffffffffffffffff168152602001428152602001428152602001600115158152602001848152506001600083815260200190815260200160002060008201518160000190816114209190612e7f565b5060208201518160010190816114369190612e7f565b50604082015181600201908161144c9190612e7f565b5060608201518160030190816114629190612e7f565b5060808201518160040160006101000a81548173ffffffffffffffffffffffffffffffffffffffff021916908373ffffffffffffffffffffffffffffffffffffffff16021790555060a0820151816005015560c0820151816006015560e08201518160070160006101000a81548160ff0219169083151502179055506101008201518160080190816114f49190612e7f565b50905050600360003373ffffffffffffffffffffffffffffffffffffffff1673ffffffffffffffffffffffffffffffffffffffff1681526020019081526020016000208190806001815401808255809150506001900390600052602060002001600090919091909150556004819080600181540180825580915050600190039060005260206000200160009091909190915055600260008281526020019081526020016000206040518060800160405280600073ffffffffffffffffffffffffffffffffffffffff1681526020013373ffffffffffffffffffffffffffffffffffffffff1681526020014281526020016040518060400160405280601481526020017f496e697469616c20726567697374726174696f6e000000000000000000000000815250815250908060018154018082558091505060019003906000526020600020906004020160009091909190915060008201518160000160006101000a81548173ffffffffffffffffffffffffffffffffffffffff021916908373ffffffffffffffffffffffffffffffffffffffff16021790555060208201518160010160006101000a81548173ffffffffffffffffffffffffffffffffffffffff021916908373ffffffffffffffffffffffffffffffffffffffff1602179055506040820151816002015560608201518160030190816116f39190612e7f565b5050503373ffffffffffffffffffffffffffffffffffffffff16817f944532a11f5ee425fb08772374a9c168cca3b51423742839d905881df5ac369e89884260405161174193929190613131565b60405180910390a38091505095945050505050565b61175e611dbf565b611766611f6c565b565b60008060009054906101000a900473ffffffffffffffffffffffffffffffffffffffff16905090565b606080606080600080600060606000896040516020016117b19190612b78565b6040516020818303038152906040528051906020012090506001600082815260200190815260200160002060070160009054906101000a900460ff1661182c576040517f08c379a000000000000000000000000000000000000000000000000000000000815260040161182390612bdb565b60405180910390fd5b6000600160008381526020019081526020016000206040518061012001604052908160008201805461185d90612a9f565b80601f016020809104026020016040519081016040528092919081815260200182805461188990612a9f565b80156118d65780601f106118ab576101008083540402835291602001916118d6565b820191906000526020600020905b8154815290600101906020018083116118b957829003601f168201915b505050505081526020016001820180546118ef90612a9f565b80601f016020809104026020016040519081016040528092919081815260200182805461191b90612a9f565b80156119685780601f1061193d57610100808354040283529160200191611968565b820191906000526020600020905b81548152906001019060200180831161194b57829003601f168201915b5050505050815260200160028201805461198190612a9f565b80601f01602080910402602001604051908101604052809291908181526020018280546119ad90612a9f565b80156119fa5780601f106119cf576101008083540402835291602001916119fa565b820191906000526020600020905b8154815290600101906020018083116119dd57829003601f168201915b50505050508152602001600382018054611a1390612a9f565b80601f0160208091040260200160405190810160405280929190818152602001828054611a3f90612a9f565b8015611a8c5780601f10611a6157610100808354040283529160200191611a8c565b820191906000526020600020905b815481529060010190602001808311611a6f57829003601f168201915b505050505081526020016004820160009054906101000a900473ffffffffffffffffffffffffffffffffffffffff1673ffffffffffffffffffffffffffffffffffffffff1673ffffffffffffffffffffffffffffffffffffffff16815260200160058201548152602001600682015481526020016007820160009054906101000a900460ff16151515158152602001600882018054611b2a90612a9f565b80601f0160208091040260200160405190810160405280929190818152602001828054611b5690612a9f565b8015611ba35780601f10611b7857610100808354040283529160200191611ba3565b820191906000526020600020905b815481529060010190602001808311611b8657829003601f168201915b5050505050815250509050806000015181602001518260400151836060015184608001518560a001518660c00151876101000151995099509950995099509950995099505050919395975091939597565b611bfc611dbf565b600073ffffffffffffffffffffffffffffffffffffffff168173ffffffffffffffffffffffffffffffffffffffff1603611c6e5760006040517f1e4fbdf7000000000000000000000000000000000000000000000000000000008152600401611c659190612919565b60405180910390fd5b611c7781611ea8565b50565b611c82610ecb565b15611cb9576040517fd93c066500000000000000000000000000000000000000000000000000000000815260040160405180910390fd5b565b6000600360008473ffffffffffffffffffffffffffffffffffffffff1673ffffffffffffffffffffffffffffffffffffffff168152602001908152602001600020905060005b8180549050811015611db95782828281548110611d2157611d20612a41565b5b906000526020600020015403611dac578160018380549050611d4391906131a5565b81548110611d5457611d53612a41565b5b9060005260206000200154828281548110611d7257611d71612a41565b5b906000526020600020018190555081805480611d9157611d906131d9565b5b60019003818190600052602060002001600090559055611db9565b8080600101915050611d01565b50505050565b611dc7611fcf565b73ffffffffffffffffffffffffffffffffffffffff16611de5611768565b73ffffffffffffffffffffffffffffffffffffffff1614611e4457611e08611fcf565b6040517f118cdaa7000000000000000000000000000000000000000000000000000000008152600401611e3b9190612919565b60405180910390fd5b565b611e4e611fd7565b60008060146101000a81548160ff0219169083151502179055507f5db9ee0a495bf2e6ff9c91a7834c1ba4fdd244a5e8aa4e537bd38aeae4b073aa611e91611fcf565b604051611e9e9190612919565b60405180910390a1565b60008060009054906101000a900473ffffffffffffffffffffffffffffffffffffffff169050816000806101000a81548173ffffffffffffffffffffffffffffffffffffffff021916908373ffffffffffffffffffffffffffffffffffffffff1602179055508173ffffffffffffffffffffffffffffffffffffffff168173ffffffffffffffffffffffffffffffffffffffff167f8be0079c531659141344cd1fd0a4f28419497f9722a3daafe3b4186f6b6457e060405160405180910390a35050565b611f74611c7a565b6001600060146101000a81548160ff0219169083151502179055507f62e78cea01bee320cd4e420270b5ea74000d11b0c9f74754ebdbfc544b05a258611fb8611fcf565b604051611fc59190612919565b60405180910390a1565b600033905090565b611fdf610ecb565b612015576040517f8dfc202b00000000000000000000000000000000000000000000000000000000815260040160405180910390fd5b565b6000604051905090565b600080fd5b600080fd5b6000819050919050565b61203e8161202b565b811461204957600080fd5b50565b60008135905061205b81612035565b92915050565b60006020828403121561207757612076612021565b5b60006120858482850161204c565b91505092915050565b600081519050919050565b600082825260208201905092915050565b60005b838110156120c85780820151818401526020810190506120ad565b60008484015250505050565b6000601f19601f8301169050919050565b60006120f08261208e565b6120fa8185612099565b935061210a8185602086016120aa565b612113816120d4565b840191505092915050565b600073ffffffffffffffffffffffffffffffffffffffff82169050919050565b60006121498261211e565b9050919050565b6121598161213e565b82525050565b6000608082019050818103600083015261217981876120e5565b9050818103602083015261218d81866120e5565b905081810360408301526121a181856120e5565b90506121b06060830184612150565b95945050505050565b600080fd5b600080fd5b7f4e487b7100000000000000000000000000000000000000000000000000000000600052604160045260246000fd5b6121fb826120d4565b810181811067ffffffffffffffff8211171561221a576122196121c3565b5b80604052505050565b600061222d612017565b905061223982826121f2565b919050565b600067ffffffffffffffff821115612259576122586121c3565b5b612262826120d4565b9050602081019050919050565b82818337600083830152505050565b600061229161228c8461223e565b612223565b9050828152602081018484840111156122ad576122ac6121be565b5b6122b884828561226f565b509392505050565b600082601f8301126122d5576122d46121b9565b5b81356122e584826020860161227e565b91505092915050565b6122f78161213e565b811461230257600080fd5b50565b600081359050612314816122ee565b92915050565b60008060006060848603121561233357612332612021565b5b600084013567ffffffffffffffff81111561235157612350612026565b5b61235d868287016122c0565b935050602061236e86828701612305565b925050604084013567ffffffffffffffff81111561238f5761238e612026565b5b61239b868287016122c0565b9150509250925092565b600080604083850312156123bc576123bb612021565b5b600083013567ffffffffffffffff8111156123da576123d9612026565b5b6123e6858286016122c0565b925050602083013567ffffffffffffffff81111561240757612406612026565b5b612413858286016122c0565b9150509250929050565b6000806040838503121561243457612433612021565b5b600083013567ffffffffffffffff81111561245257612451612026565b5b61245e858286016122c0565b925050602061246f85828601612305565b9150509250929050565b60008115159050919050565b61248e81612479565b82525050565b60006020820190506124a96000830184612485565b92915050565b6000602082840312156124c5576124c4612021565b5b60006124d384828501612305565b91505092915050565b600081519050919050565b600082825260208201905092915050565b6000819050602082019050919050565b6000819050919050565b61251b81612508565b82525050565b600061252d8383612512565b60208301905092915050565b6000602082019050919050565b6000612551826124dc565b61255b81856124e7565b9350612566836124f8565b8060005b8381101561259757815161257e8882612521565b975061258983612539565b92505060018101905061256a565b5085935050505092915050565b600060208201905081810360008301526125be8184612546565b905092915050565b6125cf8161202b565b82525050565b60006020820190506125ea60008301846125c6565b92915050565b60006020828403121561260657612605612021565b5b600082013567ffffffffffffffff81111561262457612623612026565b5b612630848285016122c0565b91505092915050565b600081519050919050565b600082825260208201905092915050565b6000819050602082019050919050565b61266e8161213e565b82525050565b61267d8161202b565b82525050565b600082825260208201905092915050565b600061269f8261208e565b6126a98185612683565b93506126b98185602086016120aa565b6126c2816120d4565b840191505092915050565b60006080830160008301516126e56000860182612665565b5060208301516126f86020860182612665565b50604083015161270b6040860182612674565b50606083015184820360608601526127238282612694565b9150508091505092915050565b600061273c83836126cd565b905092915050565b6000602082019050919050565b600061275c82612639565b6127668185612644565b93508360208202850161277885612655565b8060005b858110156127b457848403895281516127958582612730565b94506127a083612744565b925060208a0199505060018101905061277c565b50829750879550505050505092915050565b600060208201905081810360008301526127e08184612751565b905092915050565b600080600080600060a0868803121561280457612803612021565b5b600086013567ffffffffffffffff81111561282257612821612026565b5b61282e888289016122c0565b955050602086013567ffffffffffffffff81111561284f5761284e612026565b5b61285b888289016122c0565b945050604086013567ffffffffffffffff81111561287c5761287b612026565b5b612888888289016122c0565b935050606086013567ffffffffffffffff8111156128a9576128a8612026565b5b6128b5888289016122c0565b925050608086013567ffffffffffffffff8111156128d6576128d5612026565b5b6128e2888289016122c0565b9150509295509295909350565b6128f881612508565b82525050565b600060208201905061291360008301846128ef565b92915050565b600060208201905061292e6000830184612150565b92915050565b600061010082019050818103600083015261294f818b6120e5565b90508181036020830152612963818a6120e5565b9050818103604083015261297781896120e5565b9050818103606083015261298b81886120e5565b905061299a6080830187612150565b6129a760a08301866125c6565b6129b460c08301856125c6565b81810360e08301526129c681846120e5565b90509998505050505050505050565b7f496e646578206f7574206f6620626f756e647300000000000000000000000000600082015250565b6000612a0b601383612099565b9150612a16826129d5565b602082019050919050565b60006020820190508181036000830152612a3a816129fe565b9050919050565b7f4e487b7100000000000000000000000000000000000000000000000000000000600052603260045260246000fd5b7f4e487b7100000000000000000000000000000000000000000000000000000000600052602260045260246000fd5b60006002820490506001821680612ab757607f821691505b602082108103612aca57612ac9612a70565b5b50919050565b7f496e76616c6964206e6577206f776e6572206164647265737300000000000000600082015250565b6000612b06601983612099565b9150612b1182612ad0565b602082019050919050565b60006020820190508181036000830152612b3581612af9565b9050919050565b600081905092915050565b6000612b528261208e565b612b5c8185612b3c565b9350612b6c8185602086016120aa565b80840191505092915050565b6000612b848284612b47565b915081905092915050565b7f426f6f6b206e6f7420666f756e64000000000000000000000000000000000000600082015250565b6000612bc5600e83612099565b9150612bd082612b8f565b602082019050919050565b60006020820190508181036000830152612bf481612bb8565b9050919050565b7f4e6f74207468652063757272656e74206f776e65720000000000000000000000600082015250565b6000612c31601583612099565b9150612c3c82612bfb565b602082019050919050565b60006020820190508181036000830152612c6081612c24565b9050919050565b7f43616e6e6f74207472616e7366657220746f20796f757273656c660000000000600082015250565b6000612c9d601b83612099565b9150612ca882612c67565b602082019050919050565b60006020820190508181036000830152612ccc81612c90565b9050919050565b60008190508160005260206000209050919050565b60006020601f8301049050919050565b600082821b905092915050565b600060088302612d357fffffffffffffffffffffffffffffffffffffffffffffffffffffffffffffffff82612cf8565b612d3f8683612cf8565b95508019841693508086168417925050509392505050565b6000819050919050565b6000612d7c612d77612d728461202b565b612d57565b61202b565b9050919050565b6000819050919050565b612d9683612d61565b612daa612da282612d83565b848454612d05565b825550505050565b600090565b612dbf612db2565b612dca818484612d8d565b505050565b5b81811015612dee57612de3600082612db7565b600181019050612dd0565b5050565b601f821115612e3357612e0481612cd3565b612e0d84612ce8565b81016020851015612e1c578190505b612e30612e2885612ce8565b830182612dcf565b50505b505050565b600082821c905092915050565b6000612e5660001984600802612e38565b1980831691505092915050565b6000612e6f8383612e45565b9150826002028217905092915050565b612e888261208e565b67ffffffffffffffff811115612ea157612ea06121c3565b5b612eab8254612a9f565b612eb6828285612df2565b600060209050601f831160018114612ee95760008415612ed7578287015190505b612ee18582612e63565b865550612f49565b601f198416612ef786612cd3565b60005b82811015612f1f57848901518255600182019150602085019450602081019050612efa565b86831015612f3c5784890151612f38601f891682612e45565b8355505b6001600288020188555050505b505050505050565b60006040820190508181036000830152612f6b81856120e5565b9050612f7a60208301846125c6565b9392505050565b7f426f6f6b2049442063616e6e6f7420626520656d707479000000000000000000600082015250565b6000612fb7601783612099565b9150612fc282612f81565b602082019050919050565b60006020820190508181036000830152612fe681612faa565b9050919050565b7f5469746c652063616e6e6f7420626520656d7074790000000000000000000000600082015250565b6000613023601583612099565b915061302e82612fed565b602082019050919050565b6000602082019050818103600083015261305281613016565b9050919050565b7f417574686f722063616e6e6f7420626520656d70747900000000000000000000600082015250565b600061308f601683612099565b915061309a82613059565b602082019050919050565b600060208201905081810360008301526130be81613082565b9050919050565b7f426f6f6b20616c72656164792072656769737465726564000000000000000000600082015250565b60006130fb601783612099565b9150613106826130c5565b602082019050919050565b6000602082019050818103600083015261312a816130ee565b9050919050565b6000606082019050818103600083015261314b81866120e5565b9050818103602083015261315f81856120e5565b905061316e60408301846125c6565b949350505050565b7f4e487b7100000000000000000000000000000000000000000000000000000000600052601160045260246000fd5b60006131b08261202b565b91506131bb8361202b565b92508282039050818111156131d3576131d2613176565b5b92915050565b7f4e487b7100000000000000000000000000000000000000000000000000000000600052603160045260246000fdfea2646970667358221220287596000e13edbb71a864d94ac80128256da3b126b172f1f125cd1355231b1a64736f6c634300081c0033",
  "linkReferences": {},
  "deployedLinkReferences": {}
}